{
	"pool/Pool.sol": {
		"Pool": {
			"abi": [
				{
					"inputs": [
						{
							"internalType": "string",
							"name": "_tokenSymbol",
							"type": "string"
						},
						{
							"internalType": "address",
							"name": "_tokenAddress",
							"type": "address"
						}
					],
					"stateMutability": "nonpayable",
					"type": "constructor"
				},
				{
					"inputs": [],
					"name": "addLiquidity",
					"outputs": [
						{
							"internalType": "uint256",
							"name": "",
							"type": "uint256"
						}
					],
					"stateMutability": "payable",
					"type": "function"
				},
				{
					"inputs": [
						{
							"internalType": "address",
							"name": "",
							"type": "address"
						}
					],
					"name": "userLimit",
					"outputs": [
						{
							"internalType": "uint256",
							"name": "",
							"type": "uint256"
						}
					],
					"stateMutability": "view",
					"type": "function"
				},
				{
					"inputs": [
						{
							"internalType": "uint256",
							"name": "",
							"type": "uint256"
						}
					],
					"name": "userLiqudity",
					"outputs": [
						{
							"internalType": "address",
							"name": "owner",
							"type": "address"
						},
						{
							"internalType": "uint256",
							"name": "amount",
							"type": "uint256"
						},
						{
							"internalType": "uint256",
							"name": "timestamp",
							"type": "uint256"
						}
					],
					"stateMutability": "view",
					"type": "function"
				},
				{
					"inputs": [
						{
							"internalType": "uint256",
							"name": "amount",
							"type": "uint256"
						}
					],
					"name": "withdraw",
					"outputs": [],
					"stateMutability": "payable",
					"type": "function"
				}
			],
			"devdoc": {
				"kind": "dev",
				"methods": {},
				"version": 1
			},
			"evm": {
				"assembly": "    /* \"pool/Pool.sol\":62:1120  contract Pool {... */\n  mstore(0x40, 0x80)\n    /* \"pool/Pool.sol\":338:483  constructor(string memory _tokenSymbol,address _tokenAddress){... */\n  callvalue\n  dup1\n  iszero\n  tag_1\n  jumpi\n  0x00\n  dup1\n  revert\ntag_1:\n  pop\n  mload(0x40)\n  sub(codesize, bytecodeSize)\n  dup1\n  bytecodeSize\n  dup4\n  codecopy\n  dup2\n  dup2\n  add\n  0x40\n  mstore\n  dup2\n  add\n  swap1\n  tag_2\n  swap2\n  swap1\n  tag_3\n  jump\t// in\ntag_2:\n    /* \"pool/Pool.sol\":425:438  _tokenAddress */\n  dup1\n    /* \"pool/Pool.sol\":410:422  tokenAddress */\n  0x01\n  0x00\n    /* \"pool/Pool.sol\":410:438  tokenAddress = _tokenAddress */\n  0x0100\n  exp\n  dup2\n  sload\n  dup2\n  0xffffffffffffffffffffffffffffffffffffffff\n  mul\n  not\n  and\n  swap1\n  dup4\n  0xffffffffffffffffffffffffffffffffffffffff\n  and\n  mul\n  or\n  swap1\n  sstore\n  pop\n    /* \"pool/Pool.sol\":463:475  _tokenSymbol */\n  dup2\n    /* \"pool/Pool.sol\":449:460  tokenSymbol */\n  0x00\n    /* \"pool/Pool.sol\":449:475  tokenSymbol = _tokenSymbol */\n  swap1\n  dup2\n  tag_6\n  swap2\n  swap1\n  tag_7\n  jump\t// in\ntag_6:\n  pop\n    /* \"pool/Pool.sol\":338:483  constructor(string memory _tokenSymbol,address _tokenAddress){... */\n  pop\n  pop\n    /* \"pool/Pool.sol\":62:1120  contract Pool {... */\n  jump(tag_8)\n    /* \"#utility.yul\":7:82   */\ntag_9:\n    /* \"#utility.yul\":40:46   */\n  0x00\n    /* \"#utility.yul\":73:75   */\n  0x40\n    /* \"#utility.yul\":67:76   */\n  mload\n    /* \"#utility.yul\":57:76   */\n  swap1\n  pop\n    /* \"#utility.yul\":7:82   */\n  swap1\n  jump\t// out\n    /* \"#utility.yul\":88:205   */\ntag_10:\n    /* \"#utility.yul\":197:198   */\n  0x00\n    /* \"#utility.yul\":194:195   */\n  dup1\n    /* \"#utility.yul\":187:199   */\n  revert\n    /* \"#utility.yul\":211:328   */\ntag_11:\n    /* \"#utility.yul\":320:321   */\n  0x00\n    /* \"#utility.yul\":317:318   */\n  dup1\n    /* \"#utility.yul\":310:322   */\n  revert\n    /* \"#utility.yul\":334:451   */\ntag_12:\n    /* \"#utility.yul\":443:444   */\n  0x00\n    /* \"#utility.yul\":440:441   */\n  dup1\n    /* \"#utility.yul\":433:445   */\n  revert\n    /* \"#utility.yul\":457:574   */\ntag_13:\n    /* \"#utility.yul\":566:567   */\n  0x00\n    /* \"#utility.yul\":563:564   */\n  dup1\n    /* \"#utility.yul\":556:568   */\n  revert\n    /* \"#utility.yul\":580:682   */\ntag_14:\n    /* \"#utility.yul\":621:627   */\n  0x00\n    /* \"#utility.yul\":672:674   */\n  0x1f\n    /* \"#utility.yul\":668:675   */\n  not\n    /* \"#utility.yul\":663:665   */\n  0x1f\n    /* \"#utility.yul\":656:661   */\n  dup4\n    /* \"#utility.yul\":652:666   */\n  add\n    /* \"#utility.yul\":648:676   */\n  and\n    /* \"#utility.yul\":638:676   */\n  swap1\n  pop\n    /* \"#utility.yul\":580:682   */\n  swap2\n  swap1\n  pop\n  jump\t// out\n    /* \"#utility.yul\":688:868   */\ntag_15:\n    /* \"#utility.yul\":736:813   */\n  0x4e487b7100000000000000000000000000000000000000000000000000000000\n    /* \"#utility.yul\":733:734   */\n  0x00\n    /* \"#utility.yul\":726:814   */\n  mstore\n    /* \"#utility.yul\":833:837   */\n  0x41\n    /* \"#utility.yul\":830:831   */\n  0x04\n    /* \"#utility.yul\":823:838   */\n  mstore\n    /* \"#utility.yul\":857:861   */\n  0x24\n    /* \"#utility.yul\":854:855   */\n  0x00\n    /* \"#utility.yul\":847:862   */\n  revert\n    /* \"#utility.yul\":874:1155   */\ntag_16:\n    /* \"#utility.yul\":957:984   */\n  tag_54\n    /* \"#utility.yul\":979:983   */\n  dup3\n    /* \"#utility.yul\":957:984   */\n  tag_14\n  jump\t// in\ntag_54:\n    /* \"#utility.yul\":949:955   */\n  dup2\n    /* \"#utility.yul\":945:985   */\n  add\n    /* \"#utility.yul\":1087:1093   */\n  dup2\n    /* \"#utility.yul\":1075:1085   */\n  dup2\n    /* \"#utility.yul\":1072:1094   */\n  lt\n    /* \"#utility.yul\":1051:1069   */\n  0xffffffffffffffff\n    /* \"#utility.yul\":1039:1049   */\n  dup3\n    /* \"#utility.yul\":1036:1070   */\n  gt\n    /* \"#utility.yul\":1033:1095   */\n  or\n    /* \"#utility.yul\":1030:1118   */\n  iszero\n  tag_55\n  jumpi\n    /* \"#utility.yul\":1098:1116   */\n  tag_56\n  tag_15\n  jump\t// in\ntag_56:\n    /* \"#utility.yul\":1030:1118   */\ntag_55:\n    /* \"#utility.yul\":1138:1148   */\n  dup1\n    /* \"#utility.yul\":1134:1136   */\n  0x40\n    /* \"#utility.yul\":1127:1149   */\n  mstore\n    /* \"#utility.yul\":917:1155   */\n  pop\n    /* \"#utility.yul\":874:1155   */\n  pop\n  pop\n  jump\t// out\n    /* \"#utility.yul\":1161:1290   */\ntag_17:\n    /* \"#utility.yul\":1195:1201   */\n  0x00\n    /* \"#utility.yul\":1222:1242   */\n  tag_58\n  tag_9\n  jump\t// in\ntag_58:\n    /* \"#utility.yul\":1212:1242   */\n  swap1\n  pop\n    /* \"#utility.yul\":1251:1284   */\n  tag_59\n    /* \"#utility.yul\":1279:1283   */\n  dup3\n    /* \"#utility.yul\":1271:1277   */\n  dup3\n    /* \"#utility.yul\":1251:1284   */\n  tag_16\n  jump\t// in\ntag_59:\n    /* \"#utility.yul\":1161:1290   */\n  swap2\n  swap1\n  pop\n  jump\t// out\n    /* \"#utility.yul\":1296:1604   */\ntag_18:\n    /* \"#utility.yul\":1358:1362   */\n  0x00\n    /* \"#utility.yul\":1448:1466   */\n  0xffffffffffffffff\n    /* \"#utility.yul\":1440:1446   */\n  dup3\n    /* \"#utility.yul\":1437:1467   */\n  gt\n    /* \"#utility.yul\":1434:1490   */\n  iszero\n  tag_61\n  jumpi\n    /* \"#utility.yul\":1470:1488   */\n  tag_62\n  tag_15\n  jump\t// in\ntag_62:\n    /* \"#utility.yul\":1434:1490   */\ntag_61:\n    /* \"#utility.yul\":1508:1537   */\n  tag_63\n    /* \"#utility.yul\":1530:1536   */\n  dup3\n    /* \"#utility.yul\":1508:1537   */\n  tag_14\n  jump\t// in\ntag_63:\n    /* \"#utility.yul\":1500:1537   */\n  swap1\n  pop\n    /* \"#utility.yul\":1592:1596   */\n  0x20\n    /* \"#utility.yul\":1586:1590   */\n  dup2\n    /* \"#utility.yul\":1582:1597   */\n  add\n    /* \"#utility.yul\":1574:1597   */\n  swap1\n  pop\n    /* \"#utility.yul\":1296:1604   */\n  swap2\n  swap1\n  pop\n  jump\t// out\n    /* \"#utility.yul\":1610:1856   */\ntag_19:\n    /* \"#utility.yul\":1691:1692   */\n  0x00\n    /* \"#utility.yul\":1701:1814   */\ntag_65:\n    /* \"#utility.yul\":1715:1721   */\n  dup4\n    /* \"#utility.yul\":1712:1713   */\n  dup2\n    /* \"#utility.yul\":1709:1722   */\n  lt\n    /* \"#utility.yul\":1701:1814   */\n  iszero\n  tag_67\n  jumpi\n    /* \"#utility.yul\":1800:1801   */\n  dup1\n    /* \"#utility.yul\":1795:1798   */\n  dup3\n    /* \"#utility.yul\":1791:1802   */\n  add\n    /* \"#utility.yul\":1785:1803   */\n  mload\n    /* \"#utility.yul\":1781:1782   */\n  dup2\n    /* \"#utility.yul\":1776:1779   */\n  dup5\n    /* \"#utility.yul\":1772:1783   */\n  add\n    /* \"#utility.yul\":1765:1804   */\n  mstore\n    /* \"#utility.yul\":1737:1739   */\n  0x20\n    /* \"#utility.yul\":1734:1735   */\n  dup2\n    /* \"#utility.yul\":1730:1740   */\n  add\n    /* \"#utility.yul\":1725:1740   */\n  swap1\n  pop\n    /* \"#utility.yul\":1701:1814   */\n  jump(tag_65)\ntag_67:\n    /* \"#utility.yul\":1848:1849   */\n  0x00\n    /* \"#utility.yul\":1839:1845   */\n  dup5\n    /* \"#utility.yul\":1834:1837   */\n  dup5\n    /* \"#utility.yul\":1830:1846   */\n  add\n    /* \"#utility.yul\":1823:1850   */\n  mstore\n    /* \"#utility.yul\":1672:1856   */\n  pop\n    /* \"#utility.yul\":1610:1856   */\n  pop\n  pop\n  pop\n  jump\t// out\n    /* \"#utility.yul\":1862:2296   */\ntag_20:\n    /* \"#utility.yul\":1951:1956   */\n  0x00\n    /* \"#utility.yul\":1976:2042   */\n  tag_69\n    /* \"#utility.yul\":1992:2041   */\n  tag_70\n    /* \"#utility.yul\":2034:2040   */\n  dup5\n    /* \"#utility.yul\":1992:2041   */\n  tag_18\n  jump\t// in\ntag_70:\n    /* \"#utility.yul\":1976:2042   */\n  tag_17\n  jump\t// in\ntag_69:\n    /* \"#utility.yul\":1967:2042   */\n  swap1\n  pop\n    /* \"#utility.yul\":2065:2071   */\n  dup3\n    /* \"#utility.yul\":2058:2063   */\n  dup2\n    /* \"#utility.yul\":2051:2072   */\n  mstore\n    /* \"#utility.yul\":2103:2107   */\n  0x20\n    /* \"#utility.yul\":2096:2101   */\n  dup2\n    /* \"#utility.yul\":2092:2108   */\n  add\n    /* \"#utility.yul\":2141:2144   */\n  dup5\n    /* \"#utility.yul\":2132:2138   */\n  dup5\n    /* \"#utility.yul\":2127:2130   */\n  dup5\n    /* \"#utility.yul\":2123:2139   */\n  add\n    /* \"#utility.yul\":2120:2145   */\n  gt\n    /* \"#utility.yul\":2117:2229   */\n  iszero\n  tag_71\n  jumpi\n    /* \"#utility.yul\":2148:2227   */\n  tag_72\n  tag_13\n  jump\t// in\ntag_72:\n    /* \"#utility.yul\":2117:2229   */\ntag_71:\n    /* \"#utility.yul\":2238:2290   */\n  tag_73\n    /* \"#utility.yul\":2283:2289   */\n  dup5\n    /* \"#utility.yul\":2278:2281   */\n  dup3\n    /* \"#utility.yul\":2273:2276   */\n  dup6\n    /* \"#utility.yul\":2238:2290   */\n  tag_19\n  jump\t// in\ntag_73:\n    /* \"#utility.yul\":1957:2296   */\n  pop\n    /* \"#utility.yul\":1862:2296   */\n  swap4\n  swap3\n  pop\n  pop\n  pop\n  jump\t// out\n    /* \"#utility.yul\":2316:2671   */\ntag_21:\n    /* \"#utility.yul\":2383:2388   */\n  0x00\n    /* \"#utility.yul\":2432:2435   */\n  dup3\n    /* \"#utility.yul\":2425:2429   */\n  0x1f\n    /* \"#utility.yul\":2417:2423   */\n  dup4\n    /* \"#utility.yul\":2413:2430   */\n  add\n    /* \"#utility.yul\":2409:2436   */\n  slt\n    /* \"#utility.yul\":2399:2521   */\n  tag_75\n  jumpi\n    /* \"#utility.yul\":2440:2519   */\n  tag_76\n  tag_12\n  jump\t// in\ntag_76:\n    /* \"#utility.yul\":2399:2521   */\ntag_75:\n    /* \"#utility.yul\":2550:2556   */\n  dup2\n    /* \"#utility.yul\":2544:2557   */\n  mload\n    /* \"#utility.yul\":2575:2665   */\n  tag_77\n    /* \"#utility.yul\":2661:2664   */\n  dup5\n    /* \"#utility.yul\":2653:2659   */\n  dup3\n    /* \"#utility.yul\":2646:2650   */\n  0x20\n    /* \"#utility.yul\":2638:2644   */\n  dup7\n    /* \"#utility.yul\":2634:2651   */\n  add\n    /* \"#utility.yul\":2575:2665   */\n  tag_20\n  jump\t// in\ntag_77:\n    /* \"#utility.yul\":2566:2665   */\n  swap2\n  pop\n    /* \"#utility.yul\":2389:2671   */\n  pop\n    /* \"#utility.yul\":2316:2671   */\n  swap3\n  swap2\n  pop\n  pop\n  jump\t// out\n    /* \"#utility.yul\":2677:2803   */\ntag_22:\n    /* \"#utility.yul\":2714:2721   */\n  0x00\n    /* \"#utility.yul\":2754:2796   */\n  0xffffffffffffffffffffffffffffffffffffffff\n    /* \"#utility.yul\":2747:2752   */\n  dup3\n    /* \"#utility.yul\":2743:2797   */\n  and\n    /* \"#utility.yul\":2732:2797   */\n  swap1\n  pop\n    /* \"#utility.yul\":2677:2803   */\n  swap2\n  swap1\n  pop\n  jump\t// out\n    /* \"#utility.yul\":2809:2905   */\ntag_23:\n    /* \"#utility.yul\":2846:2853   */\n  0x00\n    /* \"#utility.yul\":2875:2899   */\n  tag_80\n    /* \"#utility.yul\":2893:2898   */\n  dup3\n    /* \"#utility.yul\":2875:2899   */\n  tag_22\n  jump\t// in\ntag_80:\n    /* \"#utility.yul\":2864:2899   */\n  swap1\n  pop\n    /* \"#utility.yul\":2809:2905   */\n  swap2\n  swap1\n  pop\n  jump\t// out\n    /* \"#utility.yul\":2911:3033   */\ntag_24:\n    /* \"#utility.yul\":2984:3008   */\n  tag_82\n    /* \"#utility.yul\":3002:3007   */\n  dup2\n    /* \"#utility.yul\":2984:3008   */\n  tag_23\n  jump\t// in\ntag_82:\n    /* \"#utility.yul\":2977:2982   */\n  dup2\n    /* \"#utility.yul\":2974:3009   */\n  eq\n    /* \"#utility.yul\":2964:3027   */\n  tag_83\n  jumpi\n    /* \"#utility.yul\":3023:3024   */\n  0x00\n    /* \"#utility.yul\":3020:3021   */\n  dup1\n    /* \"#utility.yul\":3013:3025   */\n  revert\n    /* \"#utility.yul\":2964:3027   */\ntag_83:\n    /* \"#utility.yul\":2911:3033   */\n  pop\n  jump\t// out\n    /* \"#utility.yul\":3039:3182   */\ntag_25:\n    /* \"#utility.yul\":3096:3101   */\n  0x00\n    /* \"#utility.yul\":3127:3133   */\n  dup2\n    /* \"#utility.yul\":3121:3134   */\n  mload\n    /* \"#utility.yul\":3112:3134   */\n  swap1\n  pop\n    /* \"#utility.yul\":3143:3176   */\n  tag_85\n    /* \"#utility.yul\":3170:3175   */\n  dup2\n    /* \"#utility.yul\":3143:3176   */\n  tag_24\n  jump\t// in\ntag_85:\n    /* \"#utility.yul\":3039:3182   */\n  swap3\n  swap2\n  pop\n  pop\n  jump\t// out\n    /* \"#utility.yul\":3188:3868   */\ntag_3:\n    /* \"#utility.yul\":3277:3283   */\n  0x00\n    /* \"#utility.yul\":3285:3291   */\n  dup1\n    /* \"#utility.yul\":3334:3336   */\n  0x40\n    /* \"#utility.yul\":3322:3331   */\n  dup4\n    /* \"#utility.yul\":3313:3320   */\n  dup6\n    /* \"#utility.yul\":3309:3332   */\n  sub\n    /* \"#utility.yul\":3305:3337   */\n  slt\n    /* \"#utility.yul\":3302:3421   */\n  iszero\n  tag_87\n  jumpi\n    /* \"#utility.yul\":3340:3419   */\n  tag_88\n  tag_10\n  jump\t// in\ntag_88:\n    /* \"#utility.yul\":3302:3421   */\ntag_87:\n    /* \"#utility.yul\":3481:3482   */\n  0x00\n    /* \"#utility.yul\":3470:3479   */\n  dup4\n    /* \"#utility.yul\":3466:3483   */\n  add\n    /* \"#utility.yul\":3460:3484   */\n  mload\n    /* \"#utility.yul\":3511:3529   */\n  0xffffffffffffffff\n    /* \"#utility.yul\":3503:3509   */\n  dup2\n    /* \"#utility.yul\":3500:3530   */\n  gt\n    /* \"#utility.yul\":3497:3614   */\n  iszero\n  tag_89\n  jumpi\n    /* \"#utility.yul\":3533:3612   */\n  tag_90\n  tag_11\n  jump\t// in\ntag_90:\n    /* \"#utility.yul\":3497:3614   */\ntag_89:\n    /* \"#utility.yul\":3638:3712   */\n  tag_91\n    /* \"#utility.yul\":3704:3711   */\n  dup6\n    /* \"#utility.yul\":3695:3701   */\n  dup3\n    /* \"#utility.yul\":3684:3693   */\n  dup7\n    /* \"#utility.yul\":3680:3702   */\n  add\n    /* \"#utility.yul\":3638:3712   */\n  tag_21\n  jump\t// in\ntag_91:\n    /* \"#utility.yul\":3628:3712   */\n  swap3\n  pop\n    /* \"#utility.yul\":3431:3722   */\n  pop\n    /* \"#utility.yul\":3761:3763   */\n  0x20\n    /* \"#utility.yul\":3787:3851   */\n  tag_92\n    /* \"#utility.yul\":3843:3850   */\n  dup6\n    /* \"#utility.yul\":3834:3840   */\n  dup3\n    /* \"#utility.yul\":3823:3832   */\n  dup7\n    /* \"#utility.yul\":3819:3841   */\n  add\n    /* \"#utility.yul\":3787:3851   */\n  tag_25\n  jump\t// in\ntag_92:\n    /* \"#utility.yul\":3777:3851   */\n  swap2\n  pop\n    /* \"#utility.yul\":3732:3861   */\n  pop\n    /* \"#utility.yul\":3188:3868   */\n  swap3\n  pop\n  swap3\n  swap1\n  pop\n  jump\t// out\n    /* \"#utility.yul\":3874:3973   */\ntag_26:\n    /* \"#utility.yul\":3926:3932   */\n  0x00\n    /* \"#utility.yul\":3960:3965   */\n  dup2\n    /* \"#utility.yul\":3954:3966   */\n  mload\n    /* \"#utility.yul\":3944:3966   */\n  swap1\n  pop\n    /* \"#utility.yul\":3874:3973   */\n  swap2\n  swap1\n  pop\n  jump\t// out\n    /* \"#utility.yul\":3979:4159   */\ntag_27:\n    /* \"#utility.yul\":4027:4104   */\n  0x4e487b7100000000000000000000000000000000000000000000000000000000\n    /* \"#utility.yul\":4024:4025   */\n  0x00\n    /* \"#utility.yul\":4017:4105   */\n  mstore\n    /* \"#utility.yul\":4124:4128   */\n  0x22\n    /* \"#utility.yul\":4121:4122   */\n  0x04\n    /* \"#utility.yul\":4114:4129   */\n  mstore\n    /* \"#utility.yul\":4148:4152   */\n  0x24\n    /* \"#utility.yul\":4145:4146   */\n  0x00\n    /* \"#utility.yul\":4138:4153   */\n  revert\n    /* \"#utility.yul\":4165:4485   */\ntag_28:\n    /* \"#utility.yul\":4209:4215   */\n  0x00\n    /* \"#utility.yul\":4246:4247   */\n  0x02\n    /* \"#utility.yul\":4240:4244   */\n  dup3\n    /* \"#utility.yul\":4236:4248   */\n  div\n    /* \"#utility.yul\":4226:4248   */\n  swap1\n  pop\n    /* \"#utility.yul\":4293:4294   */\n  0x01\n    /* \"#utility.yul\":4287:4291   */\n  dup3\n    /* \"#utility.yul\":4283:4295   */\n  and\n    /* \"#utility.yul\":4314:4332   */\n  dup1\n    /* \"#utility.yul\":4304:4385   */\n  tag_96\n  jumpi\n    /* \"#utility.yul\":4370:4374   */\n  0x7f\n    /* \"#utility.yul\":4362:4368   */\n  dup3\n    /* \"#utility.yul\":4358:4375   */\n  and\n    /* \"#utility.yul\":4348:4375   */\n  swap2\n  pop\n    /* \"#utility.yul\":4304:4385   */\ntag_96:\n    /* \"#utility.yul\":4432:4434   */\n  0x20\n    /* \"#utility.yul\":4424:4430   */\n  dup3\n    /* \"#utility.yul\":4421:4435   */\n  lt\n    /* \"#utility.yul\":4401:4419   */\n  dup2\n    /* \"#utility.yul\":4398:4436   */\n  sub\n    /* \"#utility.yul\":4395:4479   */\n  tag_97\n  jumpi\n    /* \"#utility.yul\":4451:4469   */\n  tag_98\n  tag_27\n  jump\t// in\ntag_98:\n    /* \"#utility.yul\":4395:4479   */\ntag_97:\n    /* \"#utility.yul\":4216:4485   */\n  pop\n    /* \"#utility.yul\":4165:4485   */\n  swap2\n  swap1\n  pop\n  jump\t// out\n    /* \"#utility.yul\":4491:4632   */\ntag_29:\n    /* \"#utility.yul\":4540:4544   */\n  0x00\n    /* \"#utility.yul\":4563:4566   */\n  dup2\n    /* \"#utility.yul\":4555:4566   */\n  swap1\n  pop\n    /* \"#utility.yul\":4586:4589   */\n  dup2\n    /* \"#utility.yul\":4583:4584   */\n  0x00\n    /* \"#utility.yul\":4576:4590   */\n  mstore\n    /* \"#utility.yul\":4620:4624   */\n  0x20\n    /* \"#utility.yul\":4617:4618   */\n  0x00\n    /* \"#utility.yul\":4607:4625   */\n  keccak256\n    /* \"#utility.yul\":4599:4625   */\n  swap1\n  pop\n    /* \"#utility.yul\":4491:4632   */\n  swap2\n  swap1\n  pop\n  jump\t// out\n    /* \"#utility.yul\":4638:4731   */\ntag_30:\n    /* \"#utility.yul\":4675:4681   */\n  0x00\n    /* \"#utility.yul\":4722:4724   */\n  0x20\n    /* \"#utility.yul\":4717:4719   */\n  0x1f\n    /* \"#utility.yul\":4710:4715   */\n  dup4\n    /* \"#utility.yul\":4706:4720   */\n  add\n    /* \"#utility.yul\":4702:4725   */\n  div\n    /* \"#utility.yul\":4692:4725   */\n  swap1\n  pop\n    /* \"#utility.yul\":4638:4731   */\n  swap2\n  swap1\n  pop\n  jump\t// out\n    /* \"#utility.yul\":4737:4844   */\ntag_31:\n    /* \"#utility.yul\":4781:4789   */\n  0x00\n    /* \"#utility.yul\":4831:4836   */\n  dup3\n    /* \"#utility.yul\":4825:4829   */\n  dup3\n    /* \"#utility.yul\":4821:4837   */\n  shl\n    /* \"#utility.yul\":4800:4837   */\n  swap1\n  pop\n    /* \"#utility.yul\":4737:4844   */\n  swap3\n  swap2\n  pop\n  pop\n  jump\t// out\n    /* \"#utility.yul\":4850:5243   */\ntag_32:\n    /* \"#utility.yul\":4919:4925   */\n  0x00\n    /* \"#utility.yul\":4969:4970   */\n  0x08\n    /* \"#utility.yul\":4957:4967   */\n  dup4\n    /* \"#utility.yul\":4953:4971   */\n  mul\n    /* \"#utility.yul\":4992:5089   */\n  tag_103\n    /* \"#utility.yul\":5022:5088   */\n  0xffffffffffffffffffffffffffffffffffffffffffffffffffffffffffffffff\n    /* \"#utility.yul\":5011:5020   */\n  dup3\n    /* \"#utility.yul\":4992:5089   */\n  tag_31\n  jump\t// in\ntag_103:\n    /* \"#utility.yul\":5110:5149   */\n  tag_104\n    /* \"#utility.yul\":5140:5148   */\n  dup7\n    /* \"#utility.yul\":5129:5138   */\n  dup4\n    /* \"#utility.yul\":5110:5149   */\n  tag_31\n  jump\t// in\ntag_104:\n    /* \"#utility.yul\":5098:5149   */\n  swap6\n  pop\n    /* \"#utility.yul\":5182:5186   */\n  dup1\n    /* \"#utility.yul\":5178:5187   */\n  not\n    /* \"#utility.yul\":5171:5176   */\n  dup5\n    /* \"#utility.yul\":5167:5188   */\n  and\n    /* \"#utility.yul\":5158:5188   */\n  swap4\n  pop\n    /* \"#utility.yul\":5231:5235   */\n  dup1\n    /* \"#utility.yul\":5221:5229   */\n  dup7\n    /* \"#utility.yul\":5217:5236   */\n  and\n    /* \"#utility.yul\":5210:5215   */\n  dup5\n    /* \"#utility.yul\":5207:5237   */\n  or\n    /* \"#utility.yul\":5197:5237   */\n  swap3\n  pop\n    /* \"#utility.yul\":4926:5243   */\n  pop\n  pop\n    /* \"#utility.yul\":4850:5243   */\n  swap4\n  swap3\n  pop\n  pop\n  pop\n  jump\t// out\n    /* \"#utility.yul\":5249:5326   */\ntag_33:\n    /* \"#utility.yul\":5286:5293   */\n  0x00\n    /* \"#utility.yul\":5315:5320   */\n  dup2\n    /* \"#utility.yul\":5304:5320   */\n  swap1\n  pop\n    /* \"#utility.yul\":5249:5326   */\n  swap2\n  swap1\n  pop\n  jump\t// out\n    /* \"#utility.yul\":5332:5392   */\ntag_34:\n    /* \"#utility.yul\":5360:5363   */\n  0x00\n    /* \"#utility.yul\":5381:5386   */\n  dup2\n    /* \"#utility.yul\":5374:5386   */\n  swap1\n  pop\n    /* \"#utility.yul\":5332:5392   */\n  swap2\n  swap1\n  pop\n  jump\t// out\n    /* \"#utility.yul\":5398:5540   */\ntag_35:\n    /* \"#utility.yul\":5448:5457   */\n  0x00\n    /* \"#utility.yul\":5481:5534   */\n  tag_108\n    /* \"#utility.yul\":5499:5533   */\n  tag_109\n    /* \"#utility.yul\":5508:5532   */\n  tag_110\n    /* \"#utility.yul\":5526:5531   */\n  dup5\n    /* \"#utility.yul\":5508:5532   */\n  tag_33\n  jump\t// in\ntag_110:\n    /* \"#utility.yul\":5499:5533   */\n  tag_34\n  jump\t// in\ntag_109:\n    /* \"#utility.yul\":5481:5534   */\n  tag_33\n  jump\t// in\ntag_108:\n    /* \"#utility.yul\":5468:5534   */\n  swap1\n  pop\n    /* \"#utility.yul\":5398:5540   */\n  swap2\n  swap1\n  pop\n  jump\t// out\n    /* \"#utility.yul\":5546:5621   */\ntag_36:\n    /* \"#utility.yul\":5589:5592   */\n  0x00\n    /* \"#utility.yul\":5610:5615   */\n  dup2\n    /* \"#utility.yul\":5603:5615   */\n  swap1\n  pop\n    /* \"#utility.yul\":5546:5621   */\n  swap2\n  swap1\n  pop\n  jump\t// out\n    /* \"#utility.yul\":5627:5896   */\ntag_37:\n    /* \"#utility.yul\":5737:5776   */\n  tag_113\n    /* \"#utility.yul\":5768:5775   */\n  dup4\n    /* \"#utility.yul\":5737:5776   */\n  tag_35\n  jump\t// in\ntag_113:\n    /* \"#utility.yul\":5798:5889   */\n  tag_114\n    /* \"#utility.yul\":5847:5888   */\n  tag_115\n    /* \"#utility.yul\":5871:5887   */\n  dup3\n    /* \"#utility.yul\":5847:5888   */\n  tag_36\n  jump\t// in\ntag_115:\n    /* \"#utility.yul\":5839:5845   */\n  dup5\n    /* \"#utility.yul\":5832:5836   */\n  dup5\n    /* \"#utility.yul\":5826:5837   */\n  sload\n    /* \"#utility.yul\":5798:5889   */\n  tag_32\n  jump\t// in\ntag_114:\n    /* \"#utility.yul\":5792:5796   */\n  dup3\n    /* \"#utility.yul\":5785:5890   */\n  sstore\n    /* \"#utility.yul\":5703:5896   */\n  pop\n    /* \"#utility.yul\":5627:5896   */\n  pop\n  pop\n  pop\n  jump\t// out\n    /* \"#utility.yul\":5902:5975   */\ntag_38:\n    /* \"#utility.yul\":5947:5950   */\n  0x00\n    /* \"#utility.yul\":5902:5975   */\n  swap1\n  jump\t// out\n    /* \"#utility.yul\":5981:6170   */\ntag_39:\n    /* \"#utility.yul\":6058:6090   */\n  tag_118\n  tag_38\n  jump\t// in\ntag_118:\n    /* \"#utility.yul\":6099:6164   */\n  tag_119\n    /* \"#utility.yul\":6157:6163   */\n  dup2\n    /* \"#utility.yul\":6149:6155   */\n  dup5\n    /* \"#utility.yul\":6143:6147   */\n  dup5\n    /* \"#utility.yul\":6099:6164   */\n  tag_37\n  jump\t// in\ntag_119:\n    /* \"#utility.yul\":6034:6170   */\n  pop\n    /* \"#utility.yul\":5981:6170   */\n  pop\n  pop\n  jump\t// out\n    /* \"#utility.yul\":6176:6362   */\ntag_40:\n    /* \"#utility.yul\":6236:6356   */\ntag_121:\n    /* \"#utility.yul\":6253:6256   */\n  dup2\n    /* \"#utility.yul\":6246:6251   */\n  dup2\n    /* \"#utility.yul\":6243:6257   */\n  lt\n    /* \"#utility.yul\":6236:6356   */\n  iszero\n  tag_123\n  jumpi\n    /* \"#utility.yul\":6307:6346   */\n  tag_124\n    /* \"#utility.yul\":6344:6345   */\n  0x00\n    /* \"#utility.yul\":6337:6342   */\n  dup3\n    /* \"#utility.yul\":6307:6346   */\n  tag_39\n  jump\t// in\ntag_124:\n    /* \"#utility.yul\":6280:6281   */\n  0x01\n    /* \"#utility.yul\":6273:6278   */\n  dup2\n    /* \"#utility.yul\":6269:6282   */\n  add\n    /* \"#utility.yul\":6260:6282   */\n  swap1\n  pop\n    /* \"#utility.yul\":6236:6356   */\n  jump(tag_121)\ntag_123:\n    /* \"#utility.yul\":6176:6362   */\n  pop\n  pop\n  jump\t// out\n    /* \"#utility.yul\":6368:6911   */\ntag_41:\n    /* \"#utility.yul\":6469:6471   */\n  0x1f\n    /* \"#utility.yul\":6464:6467   */\n  dup3\n    /* \"#utility.yul\":6461:6472   */\n  gt\n    /* \"#utility.yul\":6458:6904   */\n  iszero\n  tag_126\n  jumpi\n    /* \"#utility.yul\":6503:6541   */\n  tag_127\n    /* \"#utility.yul\":6535:6540   */\n  dup2\n    /* \"#utility.yul\":6503:6541   */\n  tag_29\n  jump\t// in\ntag_127:\n    /* \"#utility.yul\":6587:6616   */\n  tag_128\n    /* \"#utility.yul\":6605:6615   */\n  dup5\n    /* \"#utility.yul\":6587:6616   */\n  tag_30\n  jump\t// in\ntag_128:\n    /* \"#utility.yul\":6577:6585   */\n  dup2\n    /* \"#utility.yul\":6573:6617   */\n  add\n    /* \"#utility.yul\":6770:6772   */\n  0x20\n    /* \"#utility.yul\":6758:6768   */\n  dup6\n    /* \"#utility.yul\":6755:6773   */\n  lt\n    /* \"#utility.yul\":6752:6801   */\n  iszero\n  tag_129\n  jumpi\n    /* \"#utility.yul\":6791:6799   */\n  dup2\n    /* \"#utility.yul\":6776:6799   */\n  swap1\n  pop\n    /* \"#utility.yul\":6752:6801   */\ntag_129:\n    /* \"#utility.yul\":6814:6894   */\n  tag_130\n    /* \"#utility.yul\":6870:6892   */\n  tag_131\n    /* \"#utility.yul\":6888:6891   */\n  dup6\n    /* \"#utility.yul\":6870:6892   */\n  tag_30\n  jump\t// in\ntag_131:\n    /* \"#utility.yul\":6860:6868   */\n  dup4\n    /* \"#utility.yul\":6856:6893   */\n  add\n    /* \"#utility.yul\":6843:6854   */\n  dup3\n    /* \"#utility.yul\":6814:6894   */\n  tag_40\n  jump\t// in\ntag_130:\n    /* \"#utility.yul\":6473:6904   */\n  pop\n  pop\n    /* \"#utility.yul\":6458:6904   */\ntag_126:\n    /* \"#utility.yul\":6368:6911   */\n  pop\n  pop\n  pop\n  jump\t// out\n    /* \"#utility.yul\":6917:7034   */\ntag_42:\n    /* \"#utility.yul\":6971:6979   */\n  0x00\n    /* \"#utility.yul\":7021:7026   */\n  dup3\n    /* \"#utility.yul\":7015:7019   */\n  dup3\n    /* \"#utility.yul\":7011:7027   */\n  shr\n    /* \"#utility.yul\":6990:7027   */\n  swap1\n  pop\n    /* \"#utility.yul\":6917:7034   */\n  swap3\n  swap2\n  pop\n  pop\n  jump\t// out\n    /* \"#utility.yul\":7040:7209   */\ntag_43:\n    /* \"#utility.yul\":7084:7090   */\n  0x00\n    /* \"#utility.yul\":7117:7168   */\n  tag_134\n    /* \"#utility.yul\":7165:7166   */\n  0x00\n    /* \"#utility.yul\":7161:7167   */\n  not\n    /* \"#utility.yul\":7153:7158   */\n  dup5\n    /* \"#utility.yul\":7150:7151   */\n  0x08\n    /* \"#utility.yul\":7146:7159   */\n  mul\n    /* \"#utility.yul\":7117:7168   */\n  tag_42\n  jump\t// in\ntag_134:\n    /* \"#utility.yul\":7113:7169   */\n  not\n    /* \"#utility.yul\":7198:7202   */\n  dup1\n    /* \"#utility.yul\":7192:7196   */\n  dup4\n    /* \"#utility.yul\":7188:7203   */\n  and\n    /* \"#utility.yul\":7178:7203   */\n  swap2\n  pop\n    /* \"#utility.yul\":7091:7209   */\n  pop\n    /* \"#utility.yul\":7040:7209   */\n  swap3\n  swap2\n  pop\n  pop\n  jump\t// out\n    /* \"#utility.yul\":7214:7509   */\ntag_44:\n    /* \"#utility.yul\":7290:7294   */\n  0x00\n    /* \"#utility.yul\":7436:7465   */\n  tag_136\n    /* \"#utility.yul\":7461:7464   */\n  dup4\n    /* \"#utility.yul\":7455:7459   */\n  dup4\n    /* \"#utility.yul\":7436:7465   */\n  tag_43\n  jump\t// in\ntag_136:\n    /* \"#utility.yul\":7428:7465   */\n  swap2\n  pop\n    /* \"#utility.yul\":7498:7501   */\n  dup3\n    /* \"#utility.yul\":7495:7496   */\n  0x02\n    /* \"#utility.yul\":7491:7502   */\n  mul\n    /* \"#utility.yul\":7485:7489   */\n  dup3\n    /* \"#utility.yul\":7482:7503   */\n  or\n    /* \"#utility.yul\":7474:7503   */\n  swap1\n  pop\n    /* \"#utility.yul\":7214:7509   */\n  swap3\n  swap2\n  pop\n  pop\n  jump\t// out\n    /* \"#utility.yul\":7514:8909   */\ntag_7:\n    /* \"#utility.yul\":7631:7668   */\n  tag_138\n    /* \"#utility.yul\":7664:7667   */\n  dup3\n    /* \"#utility.yul\":7631:7668   */\n  tag_26\n  jump\t// in\ntag_138:\n    /* \"#utility.yul\":7733:7751   */\n  0xffffffffffffffff\n    /* \"#utility.yul\":7725:7731   */\n  dup2\n    /* \"#utility.yul\":7722:7752   */\n  gt\n    /* \"#utility.yul\":7719:7775   */\n  iszero\n  tag_139\n  jumpi\n    /* \"#utility.yul\":7755:7773   */\n  tag_140\n  tag_15\n  jump\t// in\ntag_140:\n    /* \"#utility.yul\":7719:7775   */\ntag_139:\n    /* \"#utility.yul\":7799:7837   */\n  tag_141\n    /* \"#utility.yul\":7831:7835   */\n  dup3\n    /* \"#utility.yul\":7825:7836   */\n  sload\n    /* \"#utility.yul\":7799:7837   */\n  tag_28\n  jump\t// in\ntag_141:\n    /* \"#utility.yul\":7884:7951   */\n  tag_142\n    /* \"#utility.yul\":7944:7950   */\n  dup3\n    /* \"#utility.yul\":7936:7942   */\n  dup3\n    /* \"#utility.yul\":7930:7934   */\n  dup6\n    /* \"#utility.yul\":7884:7951   */\n  tag_41\n  jump\t// in\ntag_142:\n    /* \"#utility.yul\":7978:7979   */\n  0x00\n    /* \"#utility.yul\":8002:8006   */\n  0x20\n    /* \"#utility.yul\":7989:8006   */\n  swap1\n  pop\n    /* \"#utility.yul\":8034:8036   */\n  0x1f\n    /* \"#utility.yul\":8026:8032   */\n  dup4\n    /* \"#utility.yul\":8023:8037   */\n  gt\n    /* \"#utility.yul\":8051:8052   */\n  0x01\n    /* \"#utility.yul\":8046:8664   */\n  dup2\n  eq\n  tag_144\n  jumpi\n    /* \"#utility.yul\":8708:8709   */\n  0x00\n    /* \"#utility.yul\":8725:8731   */\n  dup5\n    /* \"#utility.yul\":8722:8799   */\n  iszero\n  tag_145\n  jumpi\n    /* \"#utility.yul\":8774:8783   */\n  dup3\n    /* \"#utility.yul\":8769:8772   */\n  dup8\n    /* \"#utility.yul\":8765:8784   */\n  add\n    /* \"#utility.yul\":8759:8785   */\n  mload\n    /* \"#utility.yul\":8750:8785   */\n  swap1\n  pop\n    /* \"#utility.yul\":8722:8799   */\ntag_145:\n    /* \"#utility.yul\":8825:8892   */\n  tag_146\n    /* \"#utility.yul\":8885:8891   */\n  dup6\n    /* \"#utility.yul\":8878:8883   */\n  dup3\n    /* \"#utility.yul\":8825:8892   */\n  tag_44\n  jump\t// in\ntag_146:\n    /* \"#utility.yul\":8819:8823   */\n  dup7\n    /* \"#utility.yul\":8812:8893   */\n  sstore\n    /* \"#utility.yul\":8681:8903   */\n  pop\n    /* \"#utility.yul\":8016:8903   */\n  jump(tag_143)\n    /* \"#utility.yul\":8046:8664   */\ntag_144:\n    /* \"#utility.yul\":8098:8102   */\n  0x1f\n    /* \"#utility.yul\":8094:8103   */\n  not\n    /* \"#utility.yul\":8086:8092   */\n  dup5\n    /* \"#utility.yul\":8082:8104   */\n  and\n    /* \"#utility.yul\":8132:8169   */\n  tag_147\n    /* \"#utility.yul\":8164:8168   */\n  dup7\n    /* \"#utility.yul\":8132:8169   */\n  tag_29\n  jump\t// in\ntag_147:\n    /* \"#utility.yul\":8191:8192   */\n  0x00\n    /* \"#utility.yul\":8205:8413   */\ntag_148:\n    /* \"#utility.yul\":8219:8226   */\n  dup3\n    /* \"#utility.yul\":8216:8217   */\n  dup2\n    /* \"#utility.yul\":8213:8227   */\n  lt\n    /* \"#utility.yul\":8205:8413   */\n  iszero\n  tag_150\n  jumpi\n    /* \"#utility.yul\":8298:8307   */\n  dup5\n    /* \"#utility.yul\":8293:8296   */\n  dup10\n    /* \"#utility.yul\":8289:8308   */\n  add\n    /* \"#utility.yul\":8283:8309   */\n  mload\n    /* \"#utility.yul\":8275:8281   */\n  dup3\n    /* \"#utility.yul\":8268:8310   */\n  sstore\n    /* \"#utility.yul\":8349:8350   */\n  0x01\n    /* \"#utility.yul\":8341:8347   */\n  dup3\n    /* \"#utility.yul\":8337:8351   */\n  add\n    /* \"#utility.yul\":8327:8351   */\n  swap2\n  pop\n    /* \"#utility.yul\":8396:8398   */\n  0x20\n    /* \"#utility.yul\":8385:8394   */\n  dup6\n    /* \"#utility.yul\":8381:8399   */\n  add\n    /* \"#utility.yul\":8368:8399   */\n  swap5\n  pop\n    /* \"#utility.yul\":8242:8246   */\n  0x20\n    /* \"#utility.yul\":8239:8240   */\n  dup2\n    /* \"#utility.yul\":8235:8247   */\n  add\n    /* \"#utility.yul\":8230:8247   */\n  swap1\n  pop\n    /* \"#utility.yul\":8205:8413   */\n  jump(tag_148)\ntag_150:\n    /* \"#utility.yul\":8441:8447   */\n  dup7\n    /* \"#utility.yul\":8432:8439   */\n  dup4\n    /* \"#utility.yul\":8429:8448   */\n  lt\n    /* \"#utility.yul\":8426:8605   */\n  iszero\n  tag_151\n  jumpi\n    /* \"#utility.yul\":8499:8508   */\n  dup5\n    /* \"#utility.yul\":8494:8497   */\n  dup10\n    /* \"#utility.yul\":8490:8509   */\n  add\n    /* \"#utility.yul\":8484:8510   */\n  mload\n    /* \"#utility.yul\":8542:8590   */\n  tag_152\n    /* \"#utility.yul\":8584:8588   */\n  0x1f\n    /* \"#utility.yul\":8576:8582   */\n  dup10\n    /* \"#utility.yul\":8572:8589   */\n  and\n    /* \"#utility.yul\":8561:8570   */\n  dup3\n    /* \"#utility.yul\":8542:8590   */\n  tag_43\n  jump\t// in\ntag_152:\n    /* \"#utility.yul\":8534:8540   */\n  dup4\n    /* \"#utility.yul\":8527:8591   */\n  sstore\n    /* \"#utility.yul\":8449:8605   */\n  pop\n    /* \"#utility.yul\":8426:8605   */\ntag_151:\n    /* \"#utility.yul\":8651:8652   */\n  0x01\n    /* \"#utility.yul\":8647:8648   */\n  0x02\n    /* \"#utility.yul\":8639:8645   */\n  dup9\n    /* \"#utility.yul\":8635:8649   */\n  mul\n    /* \"#utility.yul\":8631:8653   */\n  add\n    /* \"#utility.yul\":8625:8629   */\n  dup9\n    /* \"#utility.yul\":8618:8654   */\n  sstore\n    /* \"#utility.yul\":8053:8664   */\n  pop\n  pop\n  pop\n    /* \"#utility.yul\":8016:8903   */\ntag_143:\n  pop\n    /* \"#utility.yul\":7606:8909   */\n  pop\n  pop\n  pop\n    /* \"#utility.yul\":7514:8909   */\n  pop\n  pop\n  jump\t// out\n    /* \"pool/Pool.sol\":62:1120  contract Pool {... */\ntag_8:\n  dataSize(sub_0)\n  dup1\n  dataOffset(sub_0)\n  0x00\n  codecopy\n  0x00\n  return\nstop\n\nsub_0: assembly {\n        /* \"pool/Pool.sol\":62:1120  contract Pool {... */\n      mstore(0x40, 0x80)\n      jumpi(tag_1, lt(calldatasize, 0x04))\n      shr(0xe0, calldataload(0x00))\n      dup1\n      0x2e1a7d4d\n      eq\n      tag_2\n      jumpi\n      dup1\n      0xd50b2628\n      eq\n      tag_3\n      jumpi\n      dup1\n      0xe121b448\n      eq\n      tag_4\n      jumpi\n      dup1\n      0xe8078d94\n      eq\n      tag_5\n      jumpi\n    tag_1:\n      0x00\n      dup1\n      revert\n        /* \"pool/Pool.sol\":874:1113  function withdraw(uint256 amount) payable external hasUserLiqudity(amount){... */\n    tag_2:\n      tag_6\n      0x04\n      dup1\n      calldatasize\n      sub\n      dup2\n      add\n      swap1\n      tag_7\n      swap2\n      swap1\n      tag_8\n      jump\t// in\n    tag_7:\n      tag_9\n      jump\t// in\n    tag_6:\n      stop\n        /* \"pool/Pool.sol\":246:277  Liquidity[] public userLiqudity */\n    tag_3:\n      callvalue\n      dup1\n      iszero\n      tag_10\n      jumpi\n      0x00\n      dup1\n      revert\n    tag_10:\n      pop\n      tag_11\n      0x04\n      dup1\n      calldatasize\n      sub\n      dup2\n      add\n      swap1\n      tag_12\n      swap2\n      swap1\n      tag_8\n      jump\t// in\n    tag_12:\n      tag_13\n      jump\t// in\n    tag_11:\n      mload(0x40)\n      tag_14\n      swap4\n      swap3\n      swap2\n      swap1\n      tag_15\n      jump\t// in\n    tag_14:\n      mload(0x40)\n      dup1\n      swap2\n      sub\n      swap1\n      return\n        /* \"pool/Pool.sol\":284:329  mapping(address => uint256) public  userLimit */\n    tag_4:\n      callvalue\n      dup1\n      iszero\n      tag_16\n      jumpi\n      0x00\n      dup1\n      revert\n    tag_16:\n      pop\n      tag_17\n      0x04\n      dup1\n      calldatasize\n      sub\n      dup2\n      add\n      swap1\n      tag_18\n      swap2\n      swap1\n      tag_19\n      jump\t// in\n    tag_18:\n      tag_20\n      jump\t// in\n    tag_17:\n      mload(0x40)\n      tag_21\n      swap2\n      swap1\n      tag_22\n      jump\t// in\n    tag_21:\n      mload(0x40)\n      dup1\n      swap2\n      sub\n      swap1\n      return\n        /* \"pool/Pool.sol\":637:866  function addLiquidity() payable external returns(uint256) {... */\n    tag_5:\n      tag_23\n      tag_24\n      jump\t// in\n    tag_23:\n      mload(0x40)\n      tag_25\n      swap2\n      swap1\n      tag_22\n      jump\t// in\n    tag_25:\n      mload(0x40)\n      dup1\n      swap2\n      sub\n      swap1\n      return\n        /* \"pool/Pool.sol\":874:1113  function withdraw(uint256 amount) payable external hasUserLiqudity(amount){... */\n    tag_9:\n        /* \"pool/Pool.sol\":941:947  amount */\n      dup1\n        /* \"pool/Pool.sol\":576:582  amount */\n      dup1\n        /* \"pool/Pool.sol\":551:560  userLimit */\n      0x03\n        /* \"pool/Pool.sol\":551:572  userLimit[msg.sender] */\n      0x00\n        /* \"pool/Pool.sol\":561:571  msg.sender */\n      caller\n        /* \"pool/Pool.sol\":551:572  userLimit[msg.sender] */\n      0xffffffffffffffffffffffffffffffffffffffff\n      and\n      0xffffffffffffffffffffffffffffffffffffffff\n      and\n      dup2\n      mstore\n      0x20\n      add\n      swap1\n      dup2\n      mstore\n      0x20\n      add\n      0x00\n      keccak256\n      sload\n        /* \"pool/Pool.sol\":551:582  userLimit[msg.sender] >= amount */\n      lt\n      iszero\n        /* \"pool/Pool.sol\":543:609  require(userLimit[msg.sender] >= amount,\"User hasnt enough limit\") */\n      tag_27\n      jumpi\n      mload(0x40)\n      0x08c379a000000000000000000000000000000000000000000000000000000000\n      dup2\n      mstore\n      0x04\n      add\n      tag_28\n      swap1\n      tag_29\n      jump\t// in\n    tag_28:\n      mload(0x40)\n      dup1\n      swap2\n      sub\n      swap1\n      revert\n    tag_27:\n        /* \"pool/Pool.sol\":960:972  bool success */\n      0x00\n        /* \"pool/Pool.sol\":978:988  msg.sender */\n      caller\n        /* \"pool/Pool.sol\":978:993  msg.sender.call */\n      0xffffffffffffffffffffffffffffffffffffffff\n      and\n        /* \"pool/Pool.sol\":1001:1007  amount */\n      dup4\n        /* \"pool/Pool.sol\":978:1012  msg.sender.call{value: amount}(\"\") */\n      mload(0x40)\n      tag_31\n      swap1\n      tag_32\n      jump\t// in\n    tag_31:\n      0x00\n      mload(0x40)\n      dup1\n      dup4\n      sub\n      dup2\n      dup6\n      dup8\n      gas\n      call\n      swap3\n      pop\n      pop\n      pop\n      returndatasize\n      dup1\n      0x00\n      dup2\n      eq\n      tag_35\n      jumpi\n      mload(0x40)\n      swap2\n      pop\n      and(add(returndatasize, 0x3f), not(0x1f))\n      dup3\n      add\n      0x40\n      mstore\n      returndatasize\n      dup3\n      mstore\n      returndatasize\n      0x00\n      0x20\n      dup5\n      add\n      returndatacopy\n      jump(tag_34)\n    tag_35:\n      0x60\n      swap2\n      pop\n    tag_34:\n      pop\n        /* \"pool/Pool.sol\":959:1012  (bool success, ) = msg.sender.call{value: amount}(\"\") */\n      pop\n      swap1\n      pop\n        /* \"pool/Pool.sol\":1031:1038  success */\n      dup1\n        /* \"pool/Pool.sol\":1023:1063  require(success, \"Failed to send Ether\") */\n      tag_36\n      jumpi\n      mload(0x40)\n      0x08c379a000000000000000000000000000000000000000000000000000000000\n      dup2\n      mstore\n      0x04\n      add\n      tag_37\n      swap1\n      tag_38\n      jump\t// in\n    tag_37:\n      mload(0x40)\n      dup1\n      swap2\n      sub\n      swap1\n      revert\n    tag_36:\n        /* \"pool/Pool.sol\":1099:1105  amount */\n      dup3\n        /* \"pool/Pool.sol\":1074:1083  userLimit */\n      0x03\n        /* \"pool/Pool.sol\":1074:1095  userLimit[msg.sender] */\n      0x00\n        /* \"pool/Pool.sol\":1084:1094  msg.sender */\n      caller\n        /* \"pool/Pool.sol\":1074:1095  userLimit[msg.sender] */\n      0xffffffffffffffffffffffffffffffffffffffff\n      and\n      0xffffffffffffffffffffffffffffffffffffffff\n      and\n      dup2\n      mstore\n      0x20\n      add\n      swap1\n      dup2\n      mstore\n      0x20\n      add\n      0x00\n      keccak256\n      0x00\n        /* \"pool/Pool.sol\":1074:1105  userLimit[msg.sender] -= amount */\n      dup3\n      dup3\n      sload\n      tag_39\n      swap2\n      swap1\n      tag_40\n      jump\t// in\n    tag_39:\n      swap3\n      pop\n      pop\n      dup2\n      swap1\n      sstore\n      pop\n        /* \"pool/Pool.sol\":948:1113  {... */\n      pop\n        /* \"pool/Pool.sol\":874:1113  function withdraw(uint256 amount) payable external hasUserLiqudity(amount){... */\n      pop\n      pop\n      jump\t// out\n        /* \"pool/Pool.sol\":246:277  Liquidity[] public userLiqudity */\n    tag_13:\n      0x02\n      dup2\n      dup2\n      sload\n      dup2\n      lt\n      tag_41\n      jumpi\n      0x00\n      dup1\n      revert\n    tag_41:\n      swap1\n      0x00\n      mstore\n      keccak256(0x00, 0x20)\n      swap1\n      0x03\n      mul\n      add\n      0x00\n      swap2\n      pop\n      swap1\n      pop\n      dup1\n      0x00\n      add\n      0x00\n      swap1\n      sload\n      swap1\n      0x0100\n      exp\n      swap1\n      div\n      0xffffffffffffffffffffffffffffffffffffffff\n      and\n      swap1\n      dup1\n      0x01\n      add\n      sload\n      swap1\n      dup1\n      0x02\n      add\n      sload\n      swap1\n      pop\n      dup4\n      jump\t// out\n        /* \"pool/Pool.sol\":284:329  mapping(address => uint256) public  userLimit */\n    tag_20:\n      mstore(0x20, 0x03)\n      dup1\n      0x00\n      mstore\n      keccak256(0x00, 0x40)\n      0x00\n      swap2\n      pop\n      swap1\n      pop\n      sload\n      dup2\n      jump\t// out\n        /* \"pool/Pool.sol\":637:866  function addLiquidity() payable external returns(uint256) {... */\n    tag_24:\n        /* \"pool/Pool.sol\":686:693  uint256 */\n      0x00\n        /* \"pool/Pool.sol\":731:740  msg.value */\n      callvalue\n        /* \"pool/Pool.sol\":706:715  userLimit */\n      0x03\n        /* \"pool/Pool.sol\":706:727  userLimit[msg.sender] */\n      0x00\n        /* \"pool/Pool.sol\":716:726  msg.sender */\n      caller\n        /* \"pool/Pool.sol\":706:727  userLimit[msg.sender] */\n      0xffffffffffffffffffffffffffffffffffffffff\n      and\n      0xffffffffffffffffffffffffffffffffffffffff\n      and\n      dup2\n      mstore\n      0x20\n      add\n      swap1\n      dup2\n      mstore\n      0x20\n      add\n      0x00\n      keccak256\n      0x00\n        /* \"pool/Pool.sol\":706:740  userLimit[msg.sender] += msg.value */\n      dup3\n      dup3\n      sload\n      tag_44\n      swap2\n      swap1\n      tag_45\n      jump\t// in\n    tag_44:\n      swap3\n      pop\n      pop\n      dup2\n      swap1\n      sstore\n      pop\n        /* \"pool/Pool.sol\":751:763  userLiqudity */\n      0x02\n        /* \"pool/Pool.sol\":769:816  Liquidity(msg.sender,msg.value,block.timestamp) */\n      mload(0x40)\n      dup1\n      0x60\n      add\n      0x40\n      mstore\n      dup1\n        /* \"pool/Pool.sol\":779:789  msg.sender */\n      caller\n        /* \"pool/Pool.sol\":769:816  Liquidity(msg.sender,msg.value,block.timestamp) */\n      0xffffffffffffffffffffffffffffffffffffffff\n      and\n      dup2\n      mstore\n      0x20\n      add\n        /* \"pool/Pool.sol\":790:799  msg.value */\n      callvalue\n        /* \"pool/Pool.sol\":769:816  Liquidity(msg.sender,msg.value,block.timestamp) */\n      dup2\n      mstore\n      0x20\n      add\n        /* \"pool/Pool.sol\":800:815  block.timestamp */\n      timestamp\n        /* \"pool/Pool.sol\":769:816  Liquidity(msg.sender,msg.value,block.timestamp) */\n      dup2\n      mstore\n      pop\n        /* \"pool/Pool.sol\":751:817  userLiqudity.push(Liquidity(msg.sender,msg.value,block.timestamp)) */\n      swap1\n      dup1\n      0x01\n      dup2\n      sload\n      add\n      dup1\n      dup3\n      sstore\n      dup1\n      swap2\n      pop\n      pop\n      0x01\n      swap1\n      sub\n      swap1\n      0x00\n      mstore\n      keccak256(0x00, 0x20)\n      swap1\n      0x03\n      mul\n      add\n      0x00\n      swap1\n      swap2\n      swap1\n      swap2\n      swap1\n      swap2\n      pop\n      0x00\n      dup3\n      add\n      mload\n      dup2\n      0x00\n      add\n      exp(0x0100, 0x00)\n      dup2\n      sload\n      dup2\n      0xffffffffffffffffffffffffffffffffffffffff\n      mul\n      not\n      and\n      swap1\n      dup4\n      0xffffffffffffffffffffffffffffffffffffffff\n      and\n      mul\n      or\n      swap1\n      sstore\n      pop\n      0x20\n      dup3\n      add\n      mload\n      dup2\n      0x01\n      add\n      sstore\n      0x40\n      dup3\n      add\n      mload\n      dup2\n      0x02\n      add\n      sstore\n      pop\n      pop\n        /* \"pool/Pool.sol\":857:858  1 */\n      0x01\n        /* \"pool/Pool.sol\":835:847  userLiqudity */\n      0x02\n        /* \"pool/Pool.sol\":835:854  userLiqudity.length */\n      dup1\n      sload\n      swap1\n      pop\n        /* \"pool/Pool.sol\":835:858  userLiqudity.length - 1 */\n      tag_47\n      swap2\n      swap1\n      tag_40\n      jump\t// in\n    tag_47:\n        /* \"pool/Pool.sol\":828:858  return userLiqudity.length - 1 */\n      swap1\n      pop\n        /* \"pool/Pool.sol\":637:866  function addLiquidity() payable external returns(uint256) {... */\n      swap1\n      jump\t// out\n        /* \"#utility.yul\":88:205   */\n    tag_49:\n        /* \"#utility.yul\":197:198   */\n      0x00\n        /* \"#utility.yul\":194:195   */\n      dup1\n        /* \"#utility.yul\":187:199   */\n      revert\n        /* \"#utility.yul\":334:411   */\n    tag_51:\n        /* \"#utility.yul\":371:378   */\n      0x00\n        /* \"#utility.yul\":400:405   */\n      dup2\n        /* \"#utility.yul\":389:405   */\n      swap1\n      pop\n        /* \"#utility.yul\":334:411   */\n      swap2\n      swap1\n      pop\n      jump\t// out\n        /* \"#utility.yul\":417:539   */\n    tag_52:\n        /* \"#utility.yul\":490:514   */\n      tag_75\n        /* \"#utility.yul\":508:513   */\n      dup2\n        /* \"#utility.yul\":490:514   */\n      tag_51\n      jump\t// in\n    tag_75:\n        /* \"#utility.yul\":483:488   */\n      dup2\n        /* \"#utility.yul\":480:515   */\n      eq\n        /* \"#utility.yul\":470:533   */\n      tag_76\n      jumpi\n        /* \"#utility.yul\":529:530   */\n      0x00\n        /* \"#utility.yul\":526:527   */\n      dup1\n        /* \"#utility.yul\":519:531   */\n      revert\n        /* \"#utility.yul\":470:533   */\n    tag_76:\n        /* \"#utility.yul\":417:539   */\n      pop\n      jump\t// out\n        /* \"#utility.yul\":545:684   */\n    tag_53:\n        /* \"#utility.yul\":591:596   */\n      0x00\n        /* \"#utility.yul\":629:635   */\n      dup2\n        /* \"#utility.yul\":616:636   */\n      calldataload\n        /* \"#utility.yul\":607:636   */\n      swap1\n      pop\n        /* \"#utility.yul\":645:678   */\n      tag_78\n        /* \"#utility.yul\":672:677   */\n      dup2\n        /* \"#utility.yul\":645:678   */\n      tag_52\n      jump\t// in\n    tag_78:\n        /* \"#utility.yul\":545:684   */\n      swap3\n      swap2\n      pop\n      pop\n      jump\t// out\n        /* \"#utility.yul\":690:1019   */\n    tag_8:\n        /* \"#utility.yul\":749:755   */\n      0x00\n        /* \"#utility.yul\":798:800   */\n      0x20\n        /* \"#utility.yul\":786:795   */\n      dup3\n        /* \"#utility.yul\":777:784   */\n      dup5\n        /* \"#utility.yul\":773:796   */\n      sub\n        /* \"#utility.yul\":769:801   */\n      slt\n        /* \"#utility.yul\":766:885   */\n      iszero\n      tag_80\n      jumpi\n        /* \"#utility.yul\":804:883   */\n      tag_81\n      tag_49\n      jump\t// in\n    tag_81:\n        /* \"#utility.yul\":766:885   */\n    tag_80:\n        /* \"#utility.yul\":924:925   */\n      0x00\n        /* \"#utility.yul\":949:1002   */\n      tag_82\n        /* \"#utility.yul\":994:1001   */\n      dup5\n        /* \"#utility.yul\":985:991   */\n      dup3\n        /* \"#utility.yul\":974:983   */\n      dup6\n        /* \"#utility.yul\":970:992   */\n      add\n        /* \"#utility.yul\":949:1002   */\n      tag_53\n      jump\t// in\n    tag_82:\n        /* \"#utility.yul\":939:1002   */\n      swap2\n      pop\n        /* \"#utility.yul\":895:1012   */\n      pop\n        /* \"#utility.yul\":690:1019   */\n      swap3\n      swap2\n      pop\n      pop\n      jump\t// out\n        /* \"#utility.yul\":1025:1151   */\n    tag_54:\n        /* \"#utility.yul\":1062:1069   */\n      0x00\n        /* \"#utility.yul\":1102:1144   */\n      0xffffffffffffffffffffffffffffffffffffffff\n        /* \"#utility.yul\":1095:1100   */\n      dup3\n        /* \"#utility.yul\":1091:1145   */\n      and\n        /* \"#utility.yul\":1080:1145   */\n      swap1\n      pop\n        /* \"#utility.yul\":1025:1151   */\n      swap2\n      swap1\n      pop\n      jump\t// out\n        /* \"#utility.yul\":1157:1253   */\n    tag_55:\n        /* \"#utility.yul\":1194:1201   */\n      0x00\n        /* \"#utility.yul\":1223:1247   */\n      tag_85\n        /* \"#utility.yul\":1241:1246   */\n      dup3\n        /* \"#utility.yul\":1223:1247   */\n      tag_54\n      jump\t// in\n    tag_85:\n        /* \"#utility.yul\":1212:1247   */\n      swap1\n      pop\n        /* \"#utility.yul\":1157:1253   */\n      swap2\n      swap1\n      pop\n      jump\t// out\n        /* \"#utility.yul\":1259:1377   */\n    tag_56:\n        /* \"#utility.yul\":1346:1370   */\n      tag_87\n        /* \"#utility.yul\":1364:1369   */\n      dup2\n        /* \"#utility.yul\":1346:1370   */\n      tag_55\n      jump\t// in\n    tag_87:\n        /* \"#utility.yul\":1341:1344   */\n      dup3\n        /* \"#utility.yul\":1334:1371   */\n      mstore\n        /* \"#utility.yul\":1259:1377   */\n      pop\n      pop\n      jump\t// out\n        /* \"#utility.yul\":1383:1501   */\n    tag_57:\n        /* \"#utility.yul\":1470:1494   */\n      tag_89\n        /* \"#utility.yul\":1488:1493   */\n      dup2\n        /* \"#utility.yul\":1470:1494   */\n      tag_51\n      jump\t// in\n    tag_89:\n        /* \"#utility.yul\":1465:1468   */\n      dup3\n        /* \"#utility.yul\":1458:1495   */\n      mstore\n        /* \"#utility.yul\":1383:1501   */\n      pop\n      pop\n      jump\t// out\n        /* \"#utility.yul\":1507:1949   */\n    tag_15:\n        /* \"#utility.yul\":1656:1660   */\n      0x00\n        /* \"#utility.yul\":1694:1696   */\n      0x60\n        /* \"#utility.yul\":1683:1692   */\n      dup3\n        /* \"#utility.yul\":1679:1697   */\n      add\n        /* \"#utility.yul\":1671:1697   */\n      swap1\n      pop\n        /* \"#utility.yul\":1707:1778   */\n      tag_91\n        /* \"#utility.yul\":1775:1776   */\n      0x00\n        /* \"#utility.yul\":1764:1773   */\n      dup4\n        /* \"#utility.yul\":1760:1777   */\n      add\n        /* \"#utility.yul\":1751:1757   */\n      dup7\n        /* \"#utility.yul\":1707:1778   */\n      tag_56\n      jump\t// in\n    tag_91:\n        /* \"#utility.yul\":1788:1860   */\n      tag_92\n        /* \"#utility.yul\":1856:1858   */\n      0x20\n        /* \"#utility.yul\":1845:1854   */\n      dup4\n        /* \"#utility.yul\":1841:1859   */\n      add\n        /* \"#utility.yul\":1832:1838   */\n      dup6\n        /* \"#utility.yul\":1788:1860   */\n      tag_57\n      jump\t// in\n    tag_92:\n        /* \"#utility.yul\":1870:1942   */\n      tag_93\n        /* \"#utility.yul\":1938:1940   */\n      0x40\n        /* \"#utility.yul\":1927:1936   */\n      dup4\n        /* \"#utility.yul\":1923:1941   */\n      add\n        /* \"#utility.yul\":1914:1920   */\n      dup5\n        /* \"#utility.yul\":1870:1942   */\n      tag_57\n      jump\t// in\n    tag_93:\n        /* \"#utility.yul\":1507:1949   */\n      swap5\n      swap4\n      pop\n      pop\n      pop\n      pop\n      jump\t// out\n        /* \"#utility.yul\":1955:2077   */\n    tag_58:\n        /* \"#utility.yul\":2028:2052   */\n      tag_95\n        /* \"#utility.yul\":2046:2051   */\n      dup2\n        /* \"#utility.yul\":2028:2052   */\n      tag_55\n      jump\t// in\n    tag_95:\n        /* \"#utility.yul\":2021:2026   */\n      dup2\n        /* \"#utility.yul\":2018:2053   */\n      eq\n        /* \"#utility.yul\":2008:2071   */\n      tag_96\n      jumpi\n        /* \"#utility.yul\":2067:2068   */\n      0x00\n        /* \"#utility.yul\":2064:2065   */\n      dup1\n        /* \"#utility.yul\":2057:2069   */\n      revert\n        /* \"#utility.yul\":2008:2071   */\n    tag_96:\n        /* \"#utility.yul\":1955:2077   */\n      pop\n      jump\t// out\n        /* \"#utility.yul\":2083:2222   */\n    tag_59:\n        /* \"#utility.yul\":2129:2134   */\n      0x00\n        /* \"#utility.yul\":2167:2173   */\n      dup2\n        /* \"#utility.yul\":2154:2174   */\n      calldataload\n        /* \"#utility.yul\":2145:2174   */\n      swap1\n      pop\n        /* \"#utility.yul\":2183:2216   */\n      tag_98\n        /* \"#utility.yul\":2210:2215   */\n      dup2\n        /* \"#utility.yul\":2183:2216   */\n      tag_58\n      jump\t// in\n    tag_98:\n        /* \"#utility.yul\":2083:2222   */\n      swap3\n      swap2\n      pop\n      pop\n      jump\t// out\n        /* \"#utility.yul\":2228:2557   */\n    tag_19:\n        /* \"#utility.yul\":2287:2293   */\n      0x00\n        /* \"#utility.yul\":2336:2338   */\n      0x20\n        /* \"#utility.yul\":2324:2333   */\n      dup3\n        /* \"#utility.yul\":2315:2322   */\n      dup5\n        /* \"#utility.yul\":2311:2334   */\n      sub\n        /* \"#utility.yul\":2307:2339   */\n      slt\n        /* \"#utility.yul\":2304:2423   */\n      iszero\n      tag_100\n      jumpi\n        /* \"#utility.yul\":2342:2421   */\n      tag_101\n      tag_49\n      jump\t// in\n    tag_101:\n        /* \"#utility.yul\":2304:2423   */\n    tag_100:\n        /* \"#utility.yul\":2462:2463   */\n      0x00\n        /* \"#utility.yul\":2487:2540   */\n      tag_102\n        /* \"#utility.yul\":2532:2539   */\n      dup5\n        /* \"#utility.yul\":2523:2529   */\n      dup3\n        /* \"#utility.yul\":2512:2521   */\n      dup6\n        /* \"#utility.yul\":2508:2530   */\n      add\n        /* \"#utility.yul\":2487:2540   */\n      tag_59\n      jump\t// in\n    tag_102:\n        /* \"#utility.yul\":2477:2540   */\n      swap2\n      pop\n        /* \"#utility.yul\":2433:2550   */\n      pop\n        /* \"#utility.yul\":2228:2557   */\n      swap3\n      swap2\n      pop\n      pop\n      jump\t// out\n        /* \"#utility.yul\":2563:2785   */\n    tag_22:\n        /* \"#utility.yul\":2656:2660   */\n      0x00\n        /* \"#utility.yul\":2694:2696   */\n      0x20\n        /* \"#utility.yul\":2683:2692   */\n      dup3\n        /* \"#utility.yul\":2679:2697   */\n      add\n        /* \"#utility.yul\":2671:2697   */\n      swap1\n      pop\n        /* \"#utility.yul\":2707:2778   */\n      tag_104\n        /* \"#utility.yul\":2775:2776   */\n      0x00\n        /* \"#utility.yul\":2764:2773   */\n      dup4\n        /* \"#utility.yul\":2760:2777   */\n      add\n        /* \"#utility.yul\":2751:2757   */\n      dup5\n        /* \"#utility.yul\":2707:2778   */\n      tag_57\n      jump\t// in\n    tag_104:\n        /* \"#utility.yul\":2563:2785   */\n      swap3\n      swap2\n      pop\n      pop\n      jump\t// out\n        /* \"#utility.yul\":2791:2960   */\n    tag_60:\n        /* \"#utility.yul\":2875:2886   */\n      0x00\n        /* \"#utility.yul\":2909:2915   */\n      dup3\n        /* \"#utility.yul\":2904:2907   */\n      dup3\n        /* \"#utility.yul\":2897:2916   */\n      mstore\n        /* \"#utility.yul\":2949:2953   */\n      0x20\n        /* \"#utility.yul\":2944:2947   */\n      dup3\n        /* \"#utility.yul\":2940:2954   */\n      add\n        /* \"#utility.yul\":2925:2954   */\n      swap1\n      pop\n        /* \"#utility.yul\":2791:2960   */\n      swap3\n      swap2\n      pop\n      pop\n      jump\t// out\n        /* \"#utility.yul\":2966:3139   */\n    tag_61:\n        /* \"#utility.yul\":3106:3131   */\n      0x55736572206861736e7420656e6f756768206c696d6974000000000000000000\n        /* \"#utility.yul\":3102:3103   */\n      0x00\n        /* \"#utility.yul\":3094:3100   */\n      dup3\n        /* \"#utility.yul\":3090:3104   */\n      add\n        /* \"#utility.yul\":3083:3132   */\n      mstore\n        /* \"#utility.yul\":2966:3139   */\n      pop\n      jump\t// out\n        /* \"#utility.yul\":3145:3511   */\n    tag_62:\n        /* \"#utility.yul\":3287:3290   */\n      0x00\n        /* \"#utility.yul\":3308:3375   */\n      tag_108\n        /* \"#utility.yul\":3372:3374   */\n      0x17\n        /* \"#utility.yul\":3367:3370   */\n      dup4\n        /* \"#utility.yul\":3308:3375   */\n      tag_60\n      jump\t// in\n    tag_108:\n        /* \"#utility.yul\":3301:3375   */\n      swap2\n      pop\n        /* \"#utility.yul\":3384:3477   */\n      tag_109\n        /* \"#utility.yul\":3473:3476   */\n      dup3\n        /* \"#utility.yul\":3384:3477   */\n      tag_61\n      jump\t// in\n    tag_109:\n        /* \"#utility.yul\":3502:3504   */\n      0x20\n        /* \"#utility.yul\":3497:3500   */\n      dup3\n        /* \"#utility.yul\":3493:3505   */\n      add\n        /* \"#utility.yul\":3486:3505   */\n      swap1\n      pop\n        /* \"#utility.yul\":3145:3511   */\n      swap2\n      swap1\n      pop\n      jump\t// out\n        /* \"#utility.yul\":3517:3936   */\n    tag_29:\n        /* \"#utility.yul\":3683:3687   */\n      0x00\n        /* \"#utility.yul\":3721:3723   */\n      0x20\n        /* \"#utility.yul\":3710:3719   */\n      dup3\n        /* \"#utility.yul\":3706:3724   */\n      add\n        /* \"#utility.yul\":3698:3724   */\n      swap1\n      pop\n        /* \"#utility.yul\":3770:3779   */\n      dup2\n        /* \"#utility.yul\":3764:3768   */\n      dup2\n        /* \"#utility.yul\":3760:3780   */\n      sub\n        /* \"#utility.yul\":3756:3757   */\n      0x00\n        /* \"#utility.yul\":3745:3754   */\n      dup4\n        /* \"#utility.yul\":3741:3758   */\n      add\n        /* \"#utility.yul\":3734:3781   */\n      mstore\n        /* \"#utility.yul\":3798:3929   */\n      tag_111\n        /* \"#utility.yul\":3924:3928   */\n      dup2\n        /* \"#utility.yul\":3798:3929   */\n      tag_62\n      jump\t// in\n    tag_111:\n        /* \"#utility.yul\":3790:3929   */\n      swap1\n      pop\n        /* \"#utility.yul\":3517:3936   */\n      swap2\n      swap1\n      pop\n      jump\t// out\n        /* \"#utility.yul\":3942:4089   */\n    tag_63:\n        /* \"#utility.yul\":4043:4054   */\n      0x00\n        /* \"#utility.yul\":4080:4083   */\n      dup2\n        /* \"#utility.yul\":4065:4083   */\n      swap1\n      pop\n        /* \"#utility.yul\":3942:4089   */\n      swap3\n      swap2\n      pop\n      pop\n      jump\t// out\n        /* \"#utility.yul\":4095:4209   */\n    tag_64:\n      pop\n      jump\t// out\n        /* \"#utility.yul\":4215:4613   */\n    tag_65:\n        /* \"#utility.yul\":4374:4377   */\n      0x00\n        /* \"#utility.yul\":4395:4478   */\n      tag_115\n        /* \"#utility.yul\":4476:4477   */\n      0x00\n        /* \"#utility.yul\":4471:4474   */\n      dup4\n        /* \"#utility.yul\":4395:4478   */\n      tag_63\n      jump\t// in\n    tag_115:\n        /* \"#utility.yul\":4388:4478   */\n      swap2\n      pop\n        /* \"#utility.yul\":4487:4580   */\n      tag_116\n        /* \"#utility.yul\":4576:4579   */\n      dup3\n        /* \"#utility.yul\":4487:4580   */\n      tag_64\n      jump\t// in\n    tag_116:\n        /* \"#utility.yul\":4605:4606   */\n      0x00\n        /* \"#utility.yul\":4600:4603   */\n      dup3\n        /* \"#utility.yul\":4596:4607   */\n      add\n        /* \"#utility.yul\":4589:4607   */\n      swap1\n      pop\n        /* \"#utility.yul\":4215:4613   */\n      swap2\n      swap1\n      pop\n      jump\t// out\n        /* \"#utility.yul\":4619:4998   */\n    tag_32:\n        /* \"#utility.yul\":4803:4806   */\n      0x00\n        /* \"#utility.yul\":4825:4972   */\n      tag_118\n        /* \"#utility.yul\":4968:4971   */\n      dup3\n        /* \"#utility.yul\":4825:4972   */\n      tag_65\n      jump\t// in\n    tag_118:\n        /* \"#utility.yul\":4818:4972   */\n      swap2\n      pop\n        /* \"#utility.yul\":4989:4992   */\n      dup2\n        /* \"#utility.yul\":4982:4992   */\n      swap1\n      pop\n        /* \"#utility.yul\":4619:4998   */\n      swap2\n      swap1\n      pop\n      jump\t// out\n        /* \"#utility.yul\":5004:5174   */\n    tag_66:\n        /* \"#utility.yul\":5144:5166   */\n      0x4661696c656420746f2073656e64204574686572000000000000000000000000\n        /* \"#utility.yul\":5140:5141   */\n      0x00\n        /* \"#utility.yul\":5132:5138   */\n      dup3\n        /* \"#utility.yul\":5128:5142   */\n      add\n        /* \"#utility.yul\":5121:5167   */\n      mstore\n        /* \"#utility.yul\":5004:5174   */\n      pop\n      jump\t// out\n        /* \"#utility.yul\":5180:5546   */\n    tag_67:\n        /* \"#utility.yul\":5322:5325   */\n      0x00\n        /* \"#utility.yul\":5343:5410   */\n      tag_121\n        /* \"#utility.yul\":5407:5409   */\n      0x14\n        /* \"#utility.yul\":5402:5405   */\n      dup4\n        /* \"#utility.yul\":5343:5410   */\n      tag_60\n      jump\t// in\n    tag_121:\n        /* \"#utility.yul\":5336:5410   */\n      swap2\n      pop\n        /* \"#utility.yul\":5419:5512   */\n      tag_122\n        /* \"#utility.yul\":5508:5511   */\n      dup3\n        /* \"#utility.yul\":5419:5512   */\n      tag_66\n      jump\t// in\n    tag_122:\n        /* \"#utility.yul\":5537:5539   */\n      0x20\n        /* \"#utility.yul\":5532:5535   */\n      dup3\n        /* \"#utility.yul\":5528:5540   */\n      add\n        /* \"#utility.yul\":5521:5540   */\n      swap1\n      pop\n        /* \"#utility.yul\":5180:5546   */\n      swap2\n      swap1\n      pop\n      jump\t// out\n        /* \"#utility.yul\":5552:5971   */\n    tag_38:\n        /* \"#utility.yul\":5718:5722   */\n      0x00\n        /* \"#utility.yul\":5756:5758   */\n      0x20\n        /* \"#utility.yul\":5745:5754   */\n      dup3\n        /* \"#utility.yul\":5741:5759   */\n      add\n        /* \"#utility.yul\":5733:5759   */\n      swap1\n      pop\n        /* \"#utility.yul\":5805:5814   */\n      dup2\n        /* \"#utility.yul\":5799:5803   */\n      dup2\n        /* \"#utility.yul\":5795:5815   */\n      sub\n        /* \"#utility.yul\":5791:5792   */\n      0x00\n        /* \"#utility.yul\":5780:5789   */\n      dup4\n        /* \"#utility.yul\":5776:5793   */\n      add\n        /* \"#utility.yul\":5769:5816   */\n      mstore\n        /* \"#utility.yul\":5833:5964   */\n      tag_124\n        /* \"#utility.yul\":5959:5963   */\n      dup2\n        /* \"#utility.yul\":5833:5964   */\n      tag_67\n      jump\t// in\n    tag_124:\n        /* \"#utility.yul\":5825:5964   */\n      swap1\n      pop\n        /* \"#utility.yul\":5552:5971   */\n      swap2\n      swap1\n      pop\n      jump\t// out\n        /* \"#utility.yul\":5977:6157   */\n    tag_68:\n        /* \"#utility.yul\":6025:6102   */\n      0x4e487b7100000000000000000000000000000000000000000000000000000000\n        /* \"#utility.yul\":6022:6023   */\n      0x00\n        /* \"#utility.yul\":6015:6103   */\n      mstore\n        /* \"#utility.yul\":6122:6126   */\n      0x11\n        /* \"#utility.yul\":6119:6120   */\n      0x04\n        /* \"#utility.yul\":6112:6127   */\n      mstore\n        /* \"#utility.yul\":6146:6150   */\n      0x24\n        /* \"#utility.yul\":6143:6144   */\n      0x00\n        /* \"#utility.yul\":6136:6151   */\n      revert\n        /* \"#utility.yul\":6163:6357   */\n    tag_40:\n        /* \"#utility.yul\":6203:6207   */\n      0x00\n        /* \"#utility.yul\":6223:6243   */\n      tag_127\n        /* \"#utility.yul\":6241:6242   */\n      dup3\n        /* \"#utility.yul\":6223:6243   */\n      tag_51\n      jump\t// in\n    tag_127:\n        /* \"#utility.yul\":6218:6243   */\n      swap2\n      pop\n        /* \"#utility.yul\":6257:6277   */\n      tag_128\n        /* \"#utility.yul\":6275:6276   */\n      dup4\n        /* \"#utility.yul\":6257:6277   */\n      tag_51\n      jump\t// in\n    tag_128:\n        /* \"#utility.yul\":6252:6277   */\n      swap3\n      pop\n        /* \"#utility.yul\":6301:6302   */\n      dup3\n        /* \"#utility.yul\":6298:6299   */\n      dup3\n        /* \"#utility.yul\":6294:6303   */\n      sub\n        /* \"#utility.yul\":6286:6303   */\n      swap1\n      pop\n        /* \"#utility.yul\":6325:6326   */\n      dup2\n        /* \"#utility.yul\":6319:6323   */\n      dup2\n        /* \"#utility.yul\":6316:6327   */\n      gt\n        /* \"#utility.yul\":6313:6350   */\n      iszero\n      tag_129\n      jumpi\n        /* \"#utility.yul\":6330:6348   */\n      tag_130\n      tag_68\n      jump\t// in\n    tag_130:\n        /* \"#utility.yul\":6313:6350   */\n    tag_129:\n        /* \"#utility.yul\":6163:6357   */\n      swap3\n      swap2\n      pop\n      pop\n      jump\t// out\n        /* \"#utility.yul\":6363:6554   */\n    tag_45:\n        /* \"#utility.yul\":6403:6406   */\n      0x00\n        /* \"#utility.yul\":6422:6442   */\n      tag_132\n        /* \"#utility.yul\":6440:6441   */\n      dup3\n        /* \"#utility.yul\":6422:6442   */\n      tag_51\n      jump\t// in\n    tag_132:\n        /* \"#utility.yul\":6417:6442   */\n      swap2\n      pop\n        /* \"#utility.yul\":6456:6476   */\n      tag_133\n        /* \"#utility.yul\":6474:6475   */\n      dup4\n        /* \"#utility.yul\":6456:6476   */\n      tag_51\n      jump\t// in\n    tag_133:\n        /* \"#utility.yul\":6451:6476   */\n      swap3\n      pop\n        /* \"#utility.yul\":6499:6500   */\n      dup3\n        /* \"#utility.yul\":6496:6497   */\n      dup3\n        /* \"#utility.yul\":6492:6501   */\n      add\n        /* \"#utility.yul\":6485:6501   */\n      swap1\n      pop\n        /* \"#utility.yul\":6520:6523   */\n      dup1\n        /* \"#utility.yul\":6517:6518   */\n      dup3\n        /* \"#utility.yul\":6514:6524   */\n      gt\n        /* \"#utility.yul\":6511:6547   */\n      iszero\n      tag_134\n      jumpi\n        /* \"#utility.yul\":6527:6545   */\n      tag_135\n      tag_68\n      jump\t// in\n    tag_135:\n        /* \"#utility.yul\":6511:6547   */\n    tag_134:\n        /* \"#utility.yul\":6363:6554   */\n      swap3\n      swap2\n      pop\n      pop\n      jump\t// out\n\n    auxdata: 0xa2646970667358221220ff0fb752d74c79b4e07d12dfefbd1a59622f2f5d084472f1080599fada82f64964736f6c63430008170033\n}\n",
				"bytecode": {
					"linkReferences": {},
					"object": "608060405234801562000010575f80fd5b5060405162000d3d38038062000d3d833981810160405281019062000036919062000275565b8060015f6101000a81548173ffffffffffffffffffffffffffffffffffffffff021916908373ffffffffffffffffffffffffffffffffffffffff160217905550815f908162000086919062000510565b505050620005f4565b5f604051905090565b5f80fd5b5f80fd5b5f80fd5b5f80fd5b5f601f19601f8301169050919050565b7f4e487b71000000000000000000000000000000000000000000000000000000005f52604160045260245ffd5b620000f082620000a8565b810181811067ffffffffffffffff82111715620001125762000111620000b8565b5b80604052505050565b5f620001266200008f565b9050620001348282620000e5565b919050565b5f67ffffffffffffffff821115620001565762000155620000b8565b5b6200016182620000a8565b9050602081019050919050565b5f5b838110156200018d57808201518184015260208101905062000170565b5f8484015250505050565b5f620001ae620001a88462000139565b6200011b565b905082815260208101848484011115620001cd57620001cc620000a4565b5b620001da8482856200016e565b509392505050565b5f82601f830112620001f957620001f8620000a0565b5b81516200020b84826020860162000198565b91505092915050565b5f73ffffffffffffffffffffffffffffffffffffffff82169050919050565b5f6200023f8262000214565b9050919050565b620002518162000233565b81146200025c575f80fd5b50565b5f815190506200026f8162000246565b92915050565b5f80604083850312156200028e576200028d62000098565b5b5f83015167ffffffffffffffff811115620002ae57620002ad6200009c565b5b620002bc85828601620001e2565b9250506020620002cf858286016200025f565b9150509250929050565b5f81519050919050565b7f4e487b71000000000000000000000000000000000000000000000000000000005f52602260045260245ffd5b5f60028204905060018216806200032857607f821691505b6020821081036200033e576200033d620002e3565b5b50919050565b5f819050815f5260205f209050919050565b5f6020601f8301049050919050565b5f82821b905092915050565b5f60088302620003a27fffffffffffffffffffffffffffffffffffffffffffffffffffffffffffffffff8262000365565b620003ae868362000365565b95508019841693508086168417925050509392505050565b5f819050919050565b5f819050919050565b5f620003f8620003f2620003ec84620003c6565b620003cf565b620003c6565b9050919050565b5f819050919050565b6200041383620003d8565b6200042b6200042282620003ff565b84845462000371565b825550505050565b5f90565b6200044162000433565b6200044e81848462000408565b505050565b5b818110156200047557620004695f8262000437565b60018101905062000454565b5050565b601f821115620004c4576200048e8162000344565b620004998462000356565b81016020851015620004a9578190505b620004c1620004b88562000356565b83018262000453565b50505b505050565b5f82821c905092915050565b5f620004e65f1984600802620004c9565b1980831691505092915050565b5f620005008383620004d5565b9150826002028217905092915050565b6200051b82620002d9565b67ffffffffffffffff811115620005375762000536620000b8565b5b62000543825462000310565b6200055082828562000479565b5f60209050601f83116001811462000586575f841562000571578287015190505b6200057d8582620004f3565b865550620005ec565b601f198416620005968662000344565b5f5b82811015620005bf5784890151825560018201915060208501945060208101905062000598565b86831015620005df5784890151620005db601f891682620004d5565b8355505b6001600288020188555050505b505050505050565b61073b80620006025f395ff3fe60806040526004361061003e575f3560e01c80632e1a7d4d14610042578063d50b26281461005e578063e121b4481461009c578063e8078d94146100d8575b5f80fd5b61005c60048036038101906100579190610435565b6100f6565b005b348015610069575f80fd5b50610084600480360381019061007f9190610435565b610277565b604051610093939291906104ae565b60405180910390f35b3480156100a7575f80fd5b506100c260048036038101906100bd919061050d565b6102cb565b6040516100cf9190610538565b60405180910390f35b6100e06102e0565b6040516100ed9190610538565b60405180910390f35b808060035f3373ffffffffffffffffffffffffffffffffffffffff1673ffffffffffffffffffffffffffffffffffffffff1681526020019081526020015f20541015610177576040517f08c379a000000000000000000000000000000000000000000000000000000000815260040161016e906105ab565b60405180910390fd5b5f3373ffffffffffffffffffffffffffffffffffffffff168360405161019c906105f6565b5f6040518083038185875af1925050503d805f81146101d6576040519150601f19603f3d011682016040523d82523d5f602084013e6101db565b606091505b505090508061021f576040517f08c379a000000000000000000000000000000000000000000000000000000000815260040161021690610654565b60405180910390fd5b8260035f3373ffffffffffffffffffffffffffffffffffffffff1673ffffffffffffffffffffffffffffffffffffffff1681526020019081526020015f205f82825461026b919061069f565b92505081905550505050565b60028181548110610286575f80fd5b905f5260205f2090600302015f91509050805f015f9054906101000a900473ffffffffffffffffffffffffffffffffffffffff16908060010154908060020154905083565b6003602052805f5260405f205f915090505481565b5f3460035f3373ffffffffffffffffffffffffffffffffffffffff1673ffffffffffffffffffffffffffffffffffffffff1681526020019081526020015f205f82825461032d91906106d2565b92505081905550600260405180606001604052803373ffffffffffffffffffffffffffffffffffffffff16815260200134815260200142815250908060018154018082558091505060019003905f5260205f2090600302015f909190919091505f820151815f015f6101000a81548173ffffffffffffffffffffffffffffffffffffffff021916908373ffffffffffffffffffffffffffffffffffffffff1602179055506020820151816001015560408201518160020155505060016002805490506103f9919061069f565b905090565b5f80fd5b5f819050919050565b61041481610402565b811461041e575f80fd5b50565b5f8135905061042f8161040b565b92915050565b5f6020828403121561044a576104496103fe565b5b5f61045784828501610421565b91505092915050565b5f73ffffffffffffffffffffffffffffffffffffffff82169050919050565b5f61048982610460565b9050919050565b6104998161047f565b82525050565b6104a881610402565b82525050565b5f6060820190506104c15f830186610490565b6104ce602083018561049f565b6104db604083018461049f565b949350505050565b6104ec8161047f565b81146104f6575f80fd5b50565b5f81359050610507816104e3565b92915050565b5f60208284031215610522576105216103fe565b5b5f61052f848285016104f9565b91505092915050565b5f60208201905061054b5f83018461049f565b92915050565b5f82825260208201905092915050565b7f55736572206861736e7420656e6f756768206c696d69740000000000000000005f82015250565b5f610595601783610551565b91506105a082610561565b602082019050919050565b5f6020820190508181035f8301526105c281610589565b9050919050565b5f81905092915050565b50565b5f6105e15f836105c9565b91506105ec826105d3565b5f82019050919050565b5f610600826105d6565b9150819050919050565b7f4661696c656420746f2073656e642045746865720000000000000000000000005f82015250565b5f61063e601483610551565b91506106498261060a565b602082019050919050565b5f6020820190508181035f83015261066b81610632565b9050919050565b7f4e487b71000000000000000000000000000000000000000000000000000000005f52601160045260245ffd5b5f6106a982610402565b91506106b483610402565b92508282039050818111156106cc576106cb610672565b5b92915050565b5f6106dc82610402565b91506106e783610402565b92508282019050808211156106ff576106fe610672565b5b9291505056fea2646970667358221220ff0fb752d74c79b4e07d12dfefbd1a59622f2f5d084472f1080599fada82f64964736f6c63430008170033",
					"opcodes": "PUSH1 0x80 PUSH1 0x40 MSTORE CALLVALUE DUP1 ISZERO PUSH3 0x10 JUMPI PUSH0 DUP1 REVERT JUMPDEST POP PUSH1 0x40 MLOAD PUSH3 0xD3D CODESIZE SUB DUP1 PUSH3 0xD3D DUP4 CODECOPY DUP2 DUP2 ADD PUSH1 0x40 MSTORE DUP2 ADD SWAP1 PUSH3 0x36 SWAP2 SWAP1 PUSH3 0x275 JUMP JUMPDEST DUP1 PUSH1 0x1 PUSH0 PUSH2 0x100 EXP DUP2 SLOAD DUP2 PUSH20 0xFFFFFFFFFFFFFFFFFFFFFFFFFFFFFFFFFFFFFFFF MUL NOT AND SWAP1 DUP4 PUSH20 0xFFFFFFFFFFFFFFFFFFFFFFFFFFFFFFFFFFFFFFFF AND MUL OR SWAP1 SSTORE POP DUP2 PUSH0 SWAP1 DUP2 PUSH3 0x86 SWAP2 SWAP1 PUSH3 0x510 JUMP JUMPDEST POP POP POP PUSH3 0x5F4 JUMP JUMPDEST PUSH0 PUSH1 0x40 MLOAD SWAP1 POP SWAP1 JUMP JUMPDEST PUSH0 DUP1 REVERT JUMPDEST PUSH0 DUP1 REVERT JUMPDEST PUSH0 DUP1 REVERT JUMPDEST PUSH0 DUP1 REVERT JUMPDEST PUSH0 PUSH1 0x1F NOT PUSH1 0x1F DUP4 ADD AND SWAP1 POP SWAP2 SWAP1 POP JUMP JUMPDEST PUSH32 0x4E487B7100000000000000000000000000000000000000000000000000000000 PUSH0 MSTORE PUSH1 0x41 PUSH1 0x4 MSTORE PUSH1 0x24 PUSH0 REVERT JUMPDEST PUSH3 0xF0 DUP3 PUSH3 0xA8 JUMP JUMPDEST DUP2 ADD DUP2 DUP2 LT PUSH8 0xFFFFFFFFFFFFFFFF DUP3 GT OR ISZERO PUSH3 0x112 JUMPI PUSH3 0x111 PUSH3 0xB8 JUMP JUMPDEST JUMPDEST DUP1 PUSH1 0x40 MSTORE POP POP POP JUMP JUMPDEST PUSH0 PUSH3 0x126 PUSH3 0x8F JUMP JUMPDEST SWAP1 POP PUSH3 0x134 DUP3 DUP3 PUSH3 0xE5 JUMP JUMPDEST SWAP2 SWAP1 POP JUMP JUMPDEST PUSH0 PUSH8 0xFFFFFFFFFFFFFFFF DUP3 GT ISZERO PUSH3 0x156 JUMPI PUSH3 0x155 PUSH3 0xB8 JUMP JUMPDEST JUMPDEST PUSH3 0x161 DUP3 PUSH3 0xA8 JUMP JUMPDEST SWAP1 POP PUSH1 0x20 DUP2 ADD SWAP1 POP SWAP2 SWAP1 POP JUMP JUMPDEST PUSH0 JUMPDEST DUP4 DUP2 LT ISZERO PUSH3 0x18D JUMPI DUP1 DUP3 ADD MLOAD DUP2 DUP5 ADD MSTORE PUSH1 0x20 DUP2 ADD SWAP1 POP PUSH3 0x170 JUMP JUMPDEST PUSH0 DUP5 DUP5 ADD MSTORE POP POP POP POP JUMP JUMPDEST PUSH0 PUSH3 0x1AE PUSH3 0x1A8 DUP5 PUSH3 0x139 JUMP JUMPDEST PUSH3 0x11B JUMP JUMPDEST SWAP1 POP DUP3 DUP2 MSTORE PUSH1 0x20 DUP2 ADD DUP5 DUP5 DUP5 ADD GT ISZERO PUSH3 0x1CD JUMPI PUSH3 0x1CC PUSH3 0xA4 JUMP JUMPDEST JUMPDEST PUSH3 0x1DA DUP5 DUP3 DUP6 PUSH3 0x16E JUMP JUMPDEST POP SWAP4 SWAP3 POP POP POP JUMP JUMPDEST PUSH0 DUP3 PUSH1 0x1F DUP4 ADD SLT PUSH3 0x1F9 JUMPI PUSH3 0x1F8 PUSH3 0xA0 JUMP JUMPDEST JUMPDEST DUP2 MLOAD PUSH3 0x20B DUP5 DUP3 PUSH1 0x20 DUP7 ADD PUSH3 0x198 JUMP JUMPDEST SWAP2 POP POP SWAP3 SWAP2 POP POP JUMP JUMPDEST PUSH0 PUSH20 0xFFFFFFFFFFFFFFFFFFFFFFFFFFFFFFFFFFFFFFFF DUP3 AND SWAP1 POP SWAP2 SWAP1 POP JUMP JUMPDEST PUSH0 PUSH3 0x23F DUP3 PUSH3 0x214 JUMP JUMPDEST SWAP1 POP SWAP2 SWAP1 POP JUMP JUMPDEST PUSH3 0x251 DUP2 PUSH3 0x233 JUMP JUMPDEST DUP2 EQ PUSH3 0x25C JUMPI PUSH0 DUP1 REVERT JUMPDEST POP JUMP JUMPDEST PUSH0 DUP2 MLOAD SWAP1 POP PUSH3 0x26F DUP2 PUSH3 0x246 JUMP JUMPDEST SWAP3 SWAP2 POP POP JUMP JUMPDEST PUSH0 DUP1 PUSH1 0x40 DUP4 DUP6 SUB SLT ISZERO PUSH3 0x28E JUMPI PUSH3 0x28D PUSH3 0x98 JUMP JUMPDEST JUMPDEST PUSH0 DUP4 ADD MLOAD PUSH8 0xFFFFFFFFFFFFFFFF DUP2 GT ISZERO PUSH3 0x2AE JUMPI PUSH3 0x2AD PUSH3 0x9C JUMP JUMPDEST JUMPDEST PUSH3 0x2BC DUP6 DUP3 DUP7 ADD PUSH3 0x1E2 JUMP JUMPDEST SWAP3 POP POP PUSH1 0x20 PUSH3 0x2CF DUP6 DUP3 DUP7 ADD PUSH3 0x25F JUMP JUMPDEST SWAP2 POP POP SWAP3 POP SWAP3 SWAP1 POP JUMP JUMPDEST PUSH0 DUP2 MLOAD SWAP1 POP SWAP2 SWAP1 POP JUMP JUMPDEST PUSH32 0x4E487B7100000000000000000000000000000000000000000000000000000000 PUSH0 MSTORE PUSH1 0x22 PUSH1 0x4 MSTORE PUSH1 0x24 PUSH0 REVERT JUMPDEST PUSH0 PUSH1 0x2 DUP3 DIV SWAP1 POP PUSH1 0x1 DUP3 AND DUP1 PUSH3 0x328 JUMPI PUSH1 0x7F DUP3 AND SWAP2 POP JUMPDEST PUSH1 0x20 DUP3 LT DUP2 SUB PUSH3 0x33E JUMPI PUSH3 0x33D PUSH3 0x2E3 JUMP JUMPDEST JUMPDEST POP SWAP2 SWAP1 POP JUMP JUMPDEST PUSH0 DUP2 SWAP1 POP DUP2 PUSH0 MSTORE PUSH1 0x20 PUSH0 KECCAK256 SWAP1 POP SWAP2 SWAP1 POP JUMP JUMPDEST PUSH0 PUSH1 0x20 PUSH1 0x1F DUP4 ADD DIV SWAP1 POP SWAP2 SWAP1 POP JUMP JUMPDEST PUSH0 DUP3 DUP3 SHL SWAP1 POP SWAP3 SWAP2 POP POP JUMP JUMPDEST PUSH0 PUSH1 0x8 DUP4 MUL PUSH3 0x3A2 PUSH32 0xFFFFFFFFFFFFFFFFFFFFFFFFFFFFFFFFFFFFFFFFFFFFFFFFFFFFFFFFFFFFFFFF DUP3 PUSH3 0x365 JUMP JUMPDEST PUSH3 0x3AE DUP7 DUP4 PUSH3 0x365 JUMP JUMPDEST SWAP6 POP DUP1 NOT DUP5 AND SWAP4 POP DUP1 DUP7 AND DUP5 OR SWAP3 POP POP POP SWAP4 SWAP3 POP POP POP JUMP JUMPDEST PUSH0 DUP2 SWAP1 POP SWAP2 SWAP1 POP JUMP JUMPDEST PUSH0 DUP2 SWAP1 POP SWAP2 SWAP1 POP JUMP JUMPDEST PUSH0 PUSH3 0x3F8 PUSH3 0x3F2 PUSH3 0x3EC DUP5 PUSH3 0x3C6 JUMP JUMPDEST PUSH3 0x3CF JUMP JUMPDEST PUSH3 0x3C6 JUMP JUMPDEST SWAP1 POP SWAP2 SWAP1 POP JUMP JUMPDEST PUSH0 DUP2 SWAP1 POP SWAP2 SWAP1 POP JUMP JUMPDEST PUSH3 0x413 DUP4 PUSH3 0x3D8 JUMP JUMPDEST PUSH3 0x42B PUSH3 0x422 DUP3 PUSH3 0x3FF JUMP JUMPDEST DUP5 DUP5 SLOAD PUSH3 0x371 JUMP JUMPDEST DUP3 SSTORE POP POP POP POP JUMP JUMPDEST PUSH0 SWAP1 JUMP JUMPDEST PUSH3 0x441 PUSH3 0x433 JUMP JUMPDEST PUSH3 0x44E DUP2 DUP5 DUP5 PUSH3 0x408 JUMP JUMPDEST POP POP POP JUMP JUMPDEST JUMPDEST DUP2 DUP2 LT ISZERO PUSH3 0x475 JUMPI PUSH3 0x469 PUSH0 DUP3 PUSH3 0x437 JUMP JUMPDEST PUSH1 0x1 DUP2 ADD SWAP1 POP PUSH3 0x454 JUMP JUMPDEST POP POP JUMP JUMPDEST PUSH1 0x1F DUP3 GT ISZERO PUSH3 0x4C4 JUMPI PUSH3 0x48E DUP2 PUSH3 0x344 JUMP JUMPDEST PUSH3 0x499 DUP5 PUSH3 0x356 JUMP JUMPDEST DUP2 ADD PUSH1 0x20 DUP6 LT ISZERO PUSH3 0x4A9 JUMPI DUP2 SWAP1 POP JUMPDEST PUSH3 0x4C1 PUSH3 0x4B8 DUP6 PUSH3 0x356 JUMP JUMPDEST DUP4 ADD DUP3 PUSH3 0x453 JUMP JUMPDEST POP POP JUMPDEST POP POP POP JUMP JUMPDEST PUSH0 DUP3 DUP3 SHR SWAP1 POP SWAP3 SWAP2 POP POP JUMP JUMPDEST PUSH0 PUSH3 0x4E6 PUSH0 NOT DUP5 PUSH1 0x8 MUL PUSH3 0x4C9 JUMP JUMPDEST NOT DUP1 DUP4 AND SWAP2 POP POP SWAP3 SWAP2 POP POP JUMP JUMPDEST PUSH0 PUSH3 0x500 DUP4 DUP4 PUSH3 0x4D5 JUMP JUMPDEST SWAP2 POP DUP3 PUSH1 0x2 MUL DUP3 OR SWAP1 POP SWAP3 SWAP2 POP POP JUMP JUMPDEST PUSH3 0x51B DUP3 PUSH3 0x2D9 JUMP JUMPDEST PUSH8 0xFFFFFFFFFFFFFFFF DUP2 GT ISZERO PUSH3 0x537 JUMPI PUSH3 0x536 PUSH3 0xB8 JUMP JUMPDEST JUMPDEST PUSH3 0x543 DUP3 SLOAD PUSH3 0x310 JUMP JUMPDEST PUSH3 0x550 DUP3 DUP3 DUP6 PUSH3 0x479 JUMP JUMPDEST PUSH0 PUSH1 0x20 SWAP1 POP PUSH1 0x1F DUP4 GT PUSH1 0x1 DUP2 EQ PUSH3 0x586 JUMPI PUSH0 DUP5 ISZERO PUSH3 0x571 JUMPI DUP3 DUP8 ADD MLOAD SWAP1 POP JUMPDEST PUSH3 0x57D DUP6 DUP3 PUSH3 0x4F3 JUMP JUMPDEST DUP7 SSTORE POP PUSH3 0x5EC JUMP JUMPDEST PUSH1 0x1F NOT DUP5 AND PUSH3 0x596 DUP7 PUSH3 0x344 JUMP JUMPDEST PUSH0 JUMPDEST DUP3 DUP2 LT ISZERO PUSH3 0x5BF JUMPI DUP5 DUP10 ADD MLOAD DUP3 SSTORE PUSH1 0x1 DUP3 ADD SWAP2 POP PUSH1 0x20 DUP6 ADD SWAP5 POP PUSH1 0x20 DUP2 ADD SWAP1 POP PUSH3 0x598 JUMP JUMPDEST DUP7 DUP4 LT ISZERO PUSH3 0x5DF JUMPI DUP5 DUP10 ADD MLOAD PUSH3 0x5DB PUSH1 0x1F DUP10 AND DUP3 PUSH3 0x4D5 JUMP JUMPDEST DUP4 SSTORE POP JUMPDEST PUSH1 0x1 PUSH1 0x2 DUP9 MUL ADD DUP9 SSTORE POP POP POP JUMPDEST POP POP POP POP POP POP JUMP JUMPDEST PUSH2 0x73B DUP1 PUSH3 0x602 PUSH0 CODECOPY PUSH0 RETURN INVALID PUSH1 0x80 PUSH1 0x40 MSTORE PUSH1 0x4 CALLDATASIZE LT PUSH2 0x3E JUMPI PUSH0 CALLDATALOAD PUSH1 0xE0 SHR DUP1 PUSH4 0x2E1A7D4D EQ PUSH2 0x42 JUMPI DUP1 PUSH4 0xD50B2628 EQ PUSH2 0x5E JUMPI DUP1 PUSH4 0xE121B448 EQ PUSH2 0x9C JUMPI DUP1 PUSH4 0xE8078D94 EQ PUSH2 0xD8 JUMPI JUMPDEST PUSH0 DUP1 REVERT JUMPDEST PUSH2 0x5C PUSH1 0x4 DUP1 CALLDATASIZE SUB DUP2 ADD SWAP1 PUSH2 0x57 SWAP2 SWAP1 PUSH2 0x435 JUMP JUMPDEST PUSH2 0xF6 JUMP JUMPDEST STOP JUMPDEST CALLVALUE DUP1 ISZERO PUSH2 0x69 JUMPI PUSH0 DUP1 REVERT JUMPDEST POP PUSH2 0x84 PUSH1 0x4 DUP1 CALLDATASIZE SUB DUP2 ADD SWAP1 PUSH2 0x7F SWAP2 SWAP1 PUSH2 0x435 JUMP JUMPDEST PUSH2 0x277 JUMP JUMPDEST PUSH1 0x40 MLOAD PUSH2 0x93 SWAP4 SWAP3 SWAP2 SWAP1 PUSH2 0x4AE JUMP JUMPDEST PUSH1 0x40 MLOAD DUP1 SWAP2 SUB SWAP1 RETURN JUMPDEST CALLVALUE DUP1 ISZERO PUSH2 0xA7 JUMPI PUSH0 DUP1 REVERT JUMPDEST POP PUSH2 0xC2 PUSH1 0x4 DUP1 CALLDATASIZE SUB DUP2 ADD SWAP1 PUSH2 0xBD SWAP2 SWAP1 PUSH2 0x50D JUMP JUMPDEST PUSH2 0x2CB JUMP JUMPDEST PUSH1 0x40 MLOAD PUSH2 0xCF SWAP2 SWAP1 PUSH2 0x538 JUMP JUMPDEST PUSH1 0x40 MLOAD DUP1 SWAP2 SUB SWAP1 RETURN JUMPDEST PUSH2 0xE0 PUSH2 0x2E0 JUMP JUMPDEST PUSH1 0x40 MLOAD PUSH2 0xED SWAP2 SWAP1 PUSH2 0x538 JUMP JUMPDEST PUSH1 0x40 MLOAD DUP1 SWAP2 SUB SWAP1 RETURN JUMPDEST DUP1 DUP1 PUSH1 0x3 PUSH0 CALLER PUSH20 0xFFFFFFFFFFFFFFFFFFFFFFFFFFFFFFFFFFFFFFFF AND PUSH20 0xFFFFFFFFFFFFFFFFFFFFFFFFFFFFFFFFFFFFFFFF AND DUP2 MSTORE PUSH1 0x20 ADD SWAP1 DUP2 MSTORE PUSH1 0x20 ADD PUSH0 KECCAK256 SLOAD LT ISZERO PUSH2 0x177 JUMPI PUSH1 0x40 MLOAD PUSH32 0x8C379A000000000000000000000000000000000000000000000000000000000 DUP2 MSTORE PUSH1 0x4 ADD PUSH2 0x16E SWAP1 PUSH2 0x5AB JUMP JUMPDEST PUSH1 0x40 MLOAD DUP1 SWAP2 SUB SWAP1 REVERT JUMPDEST PUSH0 CALLER PUSH20 0xFFFFFFFFFFFFFFFFFFFFFFFFFFFFFFFFFFFFFFFF AND DUP4 PUSH1 0x40 MLOAD PUSH2 0x19C SWAP1 PUSH2 0x5F6 JUMP JUMPDEST PUSH0 PUSH1 0x40 MLOAD DUP1 DUP4 SUB DUP2 DUP6 DUP8 GAS CALL SWAP3 POP POP POP RETURNDATASIZE DUP1 PUSH0 DUP2 EQ PUSH2 0x1D6 JUMPI PUSH1 0x40 MLOAD SWAP2 POP PUSH1 0x1F NOT PUSH1 0x3F RETURNDATASIZE ADD AND DUP3 ADD PUSH1 0x40 MSTORE RETURNDATASIZE DUP3 MSTORE RETURNDATASIZE PUSH0 PUSH1 0x20 DUP5 ADD RETURNDATACOPY PUSH2 0x1DB JUMP JUMPDEST PUSH1 0x60 SWAP2 POP JUMPDEST POP POP SWAP1 POP DUP1 PUSH2 0x21F JUMPI PUSH1 0x40 MLOAD PUSH32 0x8C379A000000000000000000000000000000000000000000000000000000000 DUP2 MSTORE PUSH1 0x4 ADD PUSH2 0x216 SWAP1 PUSH2 0x654 JUMP JUMPDEST PUSH1 0x40 MLOAD DUP1 SWAP2 SUB SWAP1 REVERT JUMPDEST DUP3 PUSH1 0x3 PUSH0 CALLER PUSH20 0xFFFFFFFFFFFFFFFFFFFFFFFFFFFFFFFFFFFFFFFF AND PUSH20 0xFFFFFFFFFFFFFFFFFFFFFFFFFFFFFFFFFFFFFFFF AND DUP2 MSTORE PUSH1 0x20 ADD SWAP1 DUP2 MSTORE PUSH1 0x20 ADD PUSH0 KECCAK256 PUSH0 DUP3 DUP3 SLOAD PUSH2 0x26B SWAP2 SWAP1 PUSH2 0x69F JUMP JUMPDEST SWAP3 POP POP DUP2 SWAP1 SSTORE POP POP POP POP JUMP JUMPDEST PUSH1 0x2 DUP2 DUP2 SLOAD DUP2 LT PUSH2 0x286 JUMPI PUSH0 DUP1 REVERT JUMPDEST SWAP1 PUSH0 MSTORE PUSH1 0x20 PUSH0 KECCAK256 SWAP1 PUSH1 0x3 MUL ADD PUSH0 SWAP2 POP SWAP1 POP DUP1 PUSH0 ADD PUSH0 SWAP1 SLOAD SWAP1 PUSH2 0x100 EXP SWAP1 DIV PUSH20 0xFFFFFFFFFFFFFFFFFFFFFFFFFFFFFFFFFFFFFFFF AND SWAP1 DUP1 PUSH1 0x1 ADD SLOAD SWAP1 DUP1 PUSH1 0x2 ADD SLOAD SWAP1 POP DUP4 JUMP JUMPDEST PUSH1 0x3 PUSH1 0x20 MSTORE DUP1 PUSH0 MSTORE PUSH1 0x40 PUSH0 KECCAK256 PUSH0 SWAP2 POP SWAP1 POP SLOAD DUP2 JUMP JUMPDEST PUSH0 CALLVALUE PUSH1 0x3 PUSH0 CALLER PUSH20 0xFFFFFFFFFFFFFFFFFFFFFFFFFFFFFFFFFFFFFFFF AND PUSH20 0xFFFFFFFFFFFFFFFFFFFFFFFFFFFFFFFFFFFFFFFF AND DUP2 MSTORE PUSH1 0x20 ADD SWAP1 DUP2 MSTORE PUSH1 0x20 ADD PUSH0 KECCAK256 PUSH0 DUP3 DUP3 SLOAD PUSH2 0x32D SWAP2 SWAP1 PUSH2 0x6D2 JUMP JUMPDEST SWAP3 POP POP DUP2 SWAP1 SSTORE POP PUSH1 0x2 PUSH1 0x40 MLOAD DUP1 PUSH1 0x60 ADD PUSH1 0x40 MSTORE DUP1 CALLER PUSH20 0xFFFFFFFFFFFFFFFFFFFFFFFFFFFFFFFFFFFFFFFF AND DUP2 MSTORE PUSH1 0x20 ADD CALLVALUE DUP2 MSTORE PUSH1 0x20 ADD TIMESTAMP DUP2 MSTORE POP SWAP1 DUP1 PUSH1 0x1 DUP2 SLOAD ADD DUP1 DUP3 SSTORE DUP1 SWAP2 POP POP PUSH1 0x1 SWAP1 SUB SWAP1 PUSH0 MSTORE PUSH1 0x20 PUSH0 KECCAK256 SWAP1 PUSH1 0x3 MUL ADD PUSH0 SWAP1 SWAP2 SWAP1 SWAP2 SWAP1 SWAP2 POP PUSH0 DUP3 ADD MLOAD DUP2 PUSH0 ADD PUSH0 PUSH2 0x100 EXP DUP2 SLOAD DUP2 PUSH20 0xFFFFFFFFFFFFFFFFFFFFFFFFFFFFFFFFFFFFFFFF MUL NOT AND SWAP1 DUP4 PUSH20 0xFFFFFFFFFFFFFFFFFFFFFFFFFFFFFFFFFFFFFFFF AND MUL OR SWAP1 SSTORE POP PUSH1 0x20 DUP3 ADD MLOAD DUP2 PUSH1 0x1 ADD SSTORE PUSH1 0x40 DUP3 ADD MLOAD DUP2 PUSH1 0x2 ADD SSTORE POP POP PUSH1 0x1 PUSH1 0x2 DUP1 SLOAD SWAP1 POP PUSH2 0x3F9 SWAP2 SWAP1 PUSH2 0x69F JUMP JUMPDEST SWAP1 POP SWAP1 JUMP JUMPDEST PUSH0 DUP1 REVERT JUMPDEST PUSH0 DUP2 SWAP1 POP SWAP2 SWAP1 POP JUMP JUMPDEST PUSH2 0x414 DUP2 PUSH2 0x402 JUMP JUMPDEST DUP2 EQ PUSH2 0x41E JUMPI PUSH0 DUP1 REVERT JUMPDEST POP JUMP JUMPDEST PUSH0 DUP2 CALLDATALOAD SWAP1 POP PUSH2 0x42F DUP2 PUSH2 0x40B JUMP JUMPDEST SWAP3 SWAP2 POP POP JUMP JUMPDEST PUSH0 PUSH1 0x20 DUP3 DUP5 SUB SLT ISZERO PUSH2 0x44A JUMPI PUSH2 0x449 PUSH2 0x3FE JUMP JUMPDEST JUMPDEST PUSH0 PUSH2 0x457 DUP5 DUP3 DUP6 ADD PUSH2 0x421 JUMP JUMPDEST SWAP2 POP POP SWAP3 SWAP2 POP POP JUMP JUMPDEST PUSH0 PUSH20 0xFFFFFFFFFFFFFFFFFFFFFFFFFFFFFFFFFFFFFFFF DUP3 AND SWAP1 POP SWAP2 SWAP1 POP JUMP JUMPDEST PUSH0 PUSH2 0x489 DUP3 PUSH2 0x460 JUMP JUMPDEST SWAP1 POP SWAP2 SWAP1 POP JUMP JUMPDEST PUSH2 0x499 DUP2 PUSH2 0x47F JUMP JUMPDEST DUP3 MSTORE POP POP JUMP JUMPDEST PUSH2 0x4A8 DUP2 PUSH2 0x402 JUMP JUMPDEST DUP3 MSTORE POP POP JUMP JUMPDEST PUSH0 PUSH1 0x60 DUP3 ADD SWAP1 POP PUSH2 0x4C1 PUSH0 DUP4 ADD DUP7 PUSH2 0x490 JUMP JUMPDEST PUSH2 0x4CE PUSH1 0x20 DUP4 ADD DUP6 PUSH2 0x49F JUMP JUMPDEST PUSH2 0x4DB PUSH1 0x40 DUP4 ADD DUP5 PUSH2 0x49F JUMP JUMPDEST SWAP5 SWAP4 POP POP POP POP JUMP JUMPDEST PUSH2 0x4EC DUP2 PUSH2 0x47F JUMP JUMPDEST DUP2 EQ PUSH2 0x4F6 JUMPI PUSH0 DUP1 REVERT JUMPDEST POP JUMP JUMPDEST PUSH0 DUP2 CALLDATALOAD SWAP1 POP PUSH2 0x507 DUP2 PUSH2 0x4E3 JUMP JUMPDEST SWAP3 SWAP2 POP POP JUMP JUMPDEST PUSH0 PUSH1 0x20 DUP3 DUP5 SUB SLT ISZERO PUSH2 0x522 JUMPI PUSH2 0x521 PUSH2 0x3FE JUMP JUMPDEST JUMPDEST PUSH0 PUSH2 0x52F DUP5 DUP3 DUP6 ADD PUSH2 0x4F9 JUMP JUMPDEST SWAP2 POP POP SWAP3 SWAP2 POP POP JUMP JUMPDEST PUSH0 PUSH1 0x20 DUP3 ADD SWAP1 POP PUSH2 0x54B PUSH0 DUP4 ADD DUP5 PUSH2 0x49F JUMP JUMPDEST SWAP3 SWAP2 POP POP JUMP JUMPDEST PUSH0 DUP3 DUP3 MSTORE PUSH1 0x20 DUP3 ADD SWAP1 POP SWAP3 SWAP2 POP POP JUMP JUMPDEST PUSH32 0x55736572206861736E7420656E6F756768206C696D6974000000000000000000 PUSH0 DUP3 ADD MSTORE POP JUMP JUMPDEST PUSH0 PUSH2 0x595 PUSH1 0x17 DUP4 PUSH2 0x551 JUMP JUMPDEST SWAP2 POP PUSH2 0x5A0 DUP3 PUSH2 0x561 JUMP JUMPDEST PUSH1 0x20 DUP3 ADD SWAP1 POP SWAP2 SWAP1 POP JUMP JUMPDEST PUSH0 PUSH1 0x20 DUP3 ADD SWAP1 POP DUP2 DUP2 SUB PUSH0 DUP4 ADD MSTORE PUSH2 0x5C2 DUP2 PUSH2 0x589 JUMP JUMPDEST SWAP1 POP SWAP2 SWAP1 POP JUMP JUMPDEST PUSH0 DUP2 SWAP1 POP SWAP3 SWAP2 POP POP JUMP JUMPDEST POP JUMP JUMPDEST PUSH0 PUSH2 0x5E1 PUSH0 DUP4 PUSH2 0x5C9 JUMP JUMPDEST SWAP2 POP PUSH2 0x5EC DUP3 PUSH2 0x5D3 JUMP JUMPDEST PUSH0 DUP3 ADD SWAP1 POP SWAP2 SWAP1 POP JUMP JUMPDEST PUSH0 PUSH2 0x600 DUP3 PUSH2 0x5D6 JUMP JUMPDEST SWAP2 POP DUP2 SWAP1 POP SWAP2 SWAP1 POP JUMP JUMPDEST PUSH32 0x4661696C656420746F2073656E64204574686572000000000000000000000000 PUSH0 DUP3 ADD MSTORE POP JUMP JUMPDEST PUSH0 PUSH2 0x63E PUSH1 0x14 DUP4 PUSH2 0x551 JUMP JUMPDEST SWAP2 POP PUSH2 0x649 DUP3 PUSH2 0x60A JUMP JUMPDEST PUSH1 0x20 DUP3 ADD SWAP1 POP SWAP2 SWAP1 POP JUMP JUMPDEST PUSH0 PUSH1 0x20 DUP3 ADD SWAP1 POP DUP2 DUP2 SUB PUSH0 DUP4 ADD MSTORE PUSH2 0x66B DUP2 PUSH2 0x632 JUMP JUMPDEST SWAP1 POP SWAP2 SWAP1 POP JUMP JUMPDEST PUSH32 0x4E487B7100000000000000000000000000000000000000000000000000000000 PUSH0 MSTORE PUSH1 0x11 PUSH1 0x4 MSTORE PUSH1 0x24 PUSH0 REVERT JUMPDEST PUSH0 PUSH2 0x6A9 DUP3 PUSH2 0x402 JUMP JUMPDEST SWAP2 POP PUSH2 0x6B4 DUP4 PUSH2 0x402 JUMP JUMPDEST SWAP3 POP DUP3 DUP3 SUB SWAP1 POP DUP2 DUP2 GT ISZERO PUSH2 0x6CC JUMPI PUSH2 0x6CB PUSH2 0x672 JUMP JUMPDEST JUMPDEST SWAP3 SWAP2 POP POP JUMP JUMPDEST PUSH0 PUSH2 0x6DC DUP3 PUSH2 0x402 JUMP JUMPDEST SWAP2 POP PUSH2 0x6E7 DUP4 PUSH2 0x402 JUMP JUMPDEST SWAP3 POP DUP3 DUP3 ADD SWAP1 POP DUP1 DUP3 GT ISZERO PUSH2 0x6FF JUMPI PUSH2 0x6FE PUSH2 0x672 JUMP JUMPDEST JUMPDEST SWAP3 SWAP2 POP POP JUMP INVALID LOG2 PUSH5 0x6970667358 0x22 SLT KECCAK256 SELFDESTRUCT 0xF 0xB7 MSTORE 0xD7 0x4C PUSH26 0xB4E07D12DFEFBD1A59622F2F5D084472F1080599FADA82F64964 PUSH20 0x6F6C634300081700330000000000000000000000 "
				},
				"gasEstimates": {
					"creation": {
						"codeDepositCost": "370200",
						"executionCost": "infinite",
						"totalCost": "infinite"
					},
					"external": {
						"addLiquidity()": "infinite",
						"userLimit(address)": "2824",
						"userLiqudity(uint256)": "infinite",
						"withdraw(uint256)": "infinite"
					}
				},
				"methodIdentifiers": {
					"addLiquidity()": "e8078d94",
					"userLimit(address)": "e121b448",
					"userLiqudity(uint256)": "d50b2628",
					"withdraw(uint256)": "2e1a7d4d"
				}
			},
			"storageLayout": {
				"storage": [
					{
						"astId": 3,
						"contract": "pool/Pool.sol:Pool",
						"label": "tokenSymbol",
						"offset": 0,
						"slot": "0",
						"type": "t_string_storage"
					},
					{
						"astId": 5,
						"contract": "pool/Pool.sol:Pool",
						"label": "tokenAddress",
						"offset": 0,
						"slot": "1",
						"type": "t_address"
					},
					{
						"astId": 16,
						"contract": "pool/Pool.sol:Pool",
						"label": "userLiqudity",
						"offset": 0,
						"slot": "2",
						"type": "t_array(t_struct(Liquidity)12_storage)dyn_storage"
					},
					{
						"astId": 20,
						"contract": "pool/Pool.sol:Pool",
						"label": "userLimit",
						"offset": 0,
						"slot": "3",
						"type": "t_mapping(t_address,t_uint256)"
					}
				],
				"types": {
					"t_address": {
						"encoding": "inplace",
						"label": "address",
						"numberOfBytes": "20"
					},
					"t_array(t_struct(Liquidity)12_storage)dyn_storage": {
						"base": "t_struct(Liquidity)12_storage",
						"encoding": "dynamic_array",
						"label": "struct Pool.Liquidity[]",
						"numberOfBytes": "32"
					},
					"t_mapping(t_address,t_uint256)": {
						"encoding": "mapping",
						"key": "t_address",
						"label": "mapping(address => uint256)",
						"numberOfBytes": "32",
						"value": "t_uint256"
					},
					"t_string_storage": {
						"encoding": "bytes",
						"label": "string",
						"numberOfBytes": "32"
					},
					"t_struct(Liquidity)12_storage": {
						"encoding": "inplace",
						"label": "struct Pool.Liquidity",
						"members": [
							{
								"astId": 7,
								"contract": "pool/Pool.sol:Pool",
								"label": "owner",
								"offset": 0,
								"slot": "0",
								"type": "t_address"
							},
							{
								"astId": 9,
								"contract": "pool/Pool.sol:Pool",
								"label": "amount",
								"offset": 0,
								"slot": "1",
								"type": "t_uint256"
							},
							{
								"astId": 11,
								"contract": "pool/Pool.sol:Pool",
								"label": "timestamp",
								"offset": 0,
								"slot": "2",
								"type": "t_uint256"
							}
						],
						"numberOfBytes": "96"
					},
					"t_uint256": {
						"encoding": "inplace",
						"label": "uint256",
						"numberOfBytes": "32"
					}
				}
			},
			"userdoc": {
				"kind": "user",
				"methods": {},
				"version": 1
			}
		}
	}
}