{
	"OpenZeppelin ERC20 - 1/pool/Lendingmarket.sol": {
		"LendingMarket": {
			"abi": [
				{
					"anonymous": false,
					"inputs": [
						{
							"indexed": false,
							"internalType": "address",
							"name": "poolAddress",
							"type": "address"
						}
					],
					"name": "PoolIsCreated",
					"type": "event"
				},
				{
					"inputs": [
						{
							"internalType": "uint256",
							"name": "",
							"type": "uint256"
						}
					],
					"name": "assets",
					"outputs": [
						{
							"internalType": "string",
							"name": "",
							"type": "string"
						}
					],
					"stateMutability": "view",
					"type": "function"
				},
				{
					"inputs": [
						{
							"internalType": "string",
							"name": "tokenSymbol",
							"type": "string"
						},
						{
							"internalType": "address",
							"name": "tokenAddress",
							"type": "address"
						}
					],
					"name": "createPool",
					"outputs": [],
					"stateMutability": "nonpayable",
					"type": "function"
				},
				{
					"inputs": [],
					"name": "getAllAssets",
					"outputs": [
						{
							"internalType": "string[]",
							"name": "",
							"type": "string[]"
						}
					],
					"stateMutability": "view",
					"type": "function"
				},
				{
					"inputs": [
						{
							"internalType": "string",
							"name": "tokenSymbol",
							"type": "string"
						}
					],
					"name": "getPoolAddressForToken",
					"outputs": [
						{
							"internalType": "address",
							"name": "",
							"type": "address"
						}
					],
					"stateMutability": "view",
					"type": "function"
				},
				{
					"inputs": [
						{
							"internalType": "string",
							"name": "",
							"type": "string"
						}
					],
					"name": "poolData",
					"outputs": [
						{
							"internalType": "address",
							"name": "",
							"type": "address"
						}
					],
					"stateMutability": "view",
					"type": "function"
				}
			],
			"devdoc": {
				"kind": "dev",
				"methods": {},
				"version": 1
			},
			"evm": {
				"assembly": "    /* \"OpenZeppelin ERC20 - 1/pool/Lendingmarket.sol\":84:977  contract LendingMarket {... */\n  mstore(0x40, 0x80)\n  callvalue\n  dup1\n  iszero\n  tag_1\n  jumpi\n  0x00\n  dup1\n  revert\ntag_1:\n  pop\n  dataSize(sub_0)\n  dup1\n  dataOffset(sub_0)\n  0x00\n  codecopy\n  0x00\n  return\nstop\n\nsub_0: assembly {\n        /* \"OpenZeppelin ERC20 - 1/pool/Lendingmarket.sol\":84:977  contract LendingMarket {... */\n      mstore(0x40, 0x80)\n      callvalue\n      dup1\n      iszero\n      tag_1\n      jumpi\n      0x00\n      dup1\n      revert\n    tag_1:\n      pop\n      jumpi(tag_2, lt(calldatasize, 0x04))\n      shr(0xe0, calldataload(0x00))\n      dup1\n      0x2acada4d\n      eq\n      tag_3\n      jumpi\n      dup1\n      0xcf35bdd0\n      eq\n      tag_4\n      jumpi\n      dup1\n      0xd301fbbd\n      eq\n      tag_5\n      jumpi\n      dup1\n      0xdb6a1d62\n      eq\n      tag_6\n      jumpi\n      dup1\n      0xdc52eba8\n      eq\n      tag_7\n      jumpi\n    tag_2:\n      0x00\n      dup1\n      revert\n        /* \"OpenZeppelin ERC20 - 1/pool/Lendingmarket.sol\":878:972  function getAllAssets() view external returns(string[] memory){... */\n    tag_3:\n      tag_8\n      tag_9\n      jump\t// in\n    tag_8:\n      mload(0x40)\n      tag_10\n      swap2\n      swap1\n      tag_11\n      jump\t// in\n    tag_10:\n      mload(0x40)\n      dup1\n      swap2\n      sub\n      swap1\n      return\n        /* \"OpenZeppelin ERC20 - 1/pool/Lendingmarket.sol\":166:188  string[] public assets */\n    tag_4:\n      tag_12\n      0x04\n      dup1\n      calldatasize\n      sub\n      dup2\n      add\n      swap1\n      tag_13\n      swap2\n      swap1\n      tag_14\n      jump\t// in\n    tag_13:\n      tag_15\n      jump\t// in\n    tag_12:\n      mload(0x40)\n      tag_16\n      swap2\n      swap1\n      tag_17\n      jump\t// in\n    tag_16:\n      mload(0x40)\n      dup1\n      swap2\n      sub\n      swap1\n      return\n        /* \"OpenZeppelin ERC20 - 1/pool/Lendingmarket.sol\":732:870  function getPoolAddressForToken(string calldata tokenSymbol) view external returns(address){... */\n    tag_5:\n      tag_18\n      0x04\n      dup1\n      calldatasize\n      sub\n      dup2\n      add\n      swap1\n      tag_19\n      swap2\n      swap1\n      tag_20\n      jump\t// in\n    tag_19:\n      tag_21\n      jump\t// in\n    tag_18:\n      mload(0x40)\n      tag_22\n      swap2\n      swap1\n      tag_23\n      jump\t// in\n    tag_22:\n      mload(0x40)\n      dup1\n      swap2\n      sub\n      swap1\n      return\n        /* \"OpenZeppelin ERC20 - 1/pool/Lendingmarket.sol\":116:159  mapping(string => address) public  poolData */\n    tag_6:\n      tag_24\n      0x04\n      dup1\n      calldatasize\n      sub\n      dup2\n      add\n      swap1\n      tag_25\n      swap2\n      swap1\n      tag_26\n      jump\t// in\n    tag_25:\n      tag_27\n      jump\t// in\n    tag_24:\n      mload(0x40)\n      tag_28\n      swap2\n      swap1\n      tag_23\n      jump\t// in\n    tag_28:\n      mload(0x40)\n      dup1\n      swap2\n      sub\n      swap1\n      return\n        /* \"OpenZeppelin ERC20 - 1/pool/Lendingmarket.sol\":412:724  function createPool(string calldata tokenSymbol, address tokenAddress) external isPoolExists(tokenSymbol){... */\n    tag_7:\n      tag_29\n      0x04\n      dup1\n      calldatasize\n      sub\n      dup2\n      add\n      swap1\n      tag_30\n      swap2\n      swap1\n      tag_31\n      jump\t// in\n    tag_30:\n      tag_32\n      jump\t// in\n    tag_29:\n      stop\n        /* \"OpenZeppelin ERC20 - 1/pool/Lendingmarket.sol\":878:972  function getAllAssets() view external returns(string[] memory){... */\n    tag_9:\n        /* \"OpenZeppelin ERC20 - 1/pool/Lendingmarket.sol\":924:939  string[] memory */\n      0x60\n        /* \"OpenZeppelin ERC20 - 1/pool/Lendingmarket.sol\":958:964  assets */\n      0x01\n        /* \"OpenZeppelin ERC20 - 1/pool/Lendingmarket.sol\":951:964  return assets */\n      dup1\n      sload\n      dup1\n      0x20\n      mul\n      0x20\n      add\n      mload(0x40)\n      swap1\n      dup2\n      add\n      0x40\n      mstore\n      dup1\n      swap3\n      swap2\n      swap1\n      dup2\n      dup2\n      mstore\n      0x20\n      add\n      0x00\n      swap1\n    tag_34:\n      dup3\n      dup3\n      lt\n      iszero\n      tag_35\n      jumpi\n      dup4\n      dup3\n      swap1\n      0x00\n      mstore\n      keccak256(0x00, 0x20)\n      add\n      dup1\n      sload\n      tag_37\n      swap1\n      tag_38\n      jump\t// in\n    tag_37:\n      dup1\n      0x1f\n      add\n      0x20\n      dup1\n      swap2\n      div\n      mul\n      0x20\n      add\n      mload(0x40)\n      swap1\n      dup2\n      add\n      0x40\n      mstore\n      dup1\n      swap3\n      swap2\n      swap1\n      dup2\n      dup2\n      mstore\n      0x20\n      add\n      dup3\n      dup1\n      sload\n      tag_39\n      swap1\n      tag_38\n      jump\t// in\n    tag_39:\n      dup1\n      iszero\n      tag_40\n      jumpi\n      dup1\n      0x1f\n      lt\n      tag_41\n      jumpi\n      0x0100\n      dup1\n      dup4\n      sload\n      div\n      mul\n      dup4\n      mstore\n      swap2\n      0x20\n      add\n      swap2\n      jump(tag_40)\n    tag_41:\n      dup3\n      add\n      swap2\n      swap1\n      0x00\n      mstore\n      keccak256(0x00, 0x20)\n      swap1\n    tag_42:\n      dup2\n      sload\n      dup2\n      mstore\n      swap1\n      0x01\n      add\n      swap1\n      0x20\n      add\n      dup1\n      dup4\n      gt\n      tag_42\n      jumpi\n      dup3\n      swap1\n      sub\n      0x1f\n      and\n      dup3\n      add\n      swap2\n    tag_40:\n      pop\n      pop\n      pop\n      pop\n      pop\n      dup2\n      mstore\n      0x20\n      add\n      swap1\n      0x01\n      add\n      swap1\n      jump(tag_34)\n    tag_35:\n      pop\n      pop\n      pop\n      pop\n      swap1\n      pop\n        /* \"OpenZeppelin ERC20 - 1/pool/Lendingmarket.sol\":878:972  function getAllAssets() view external returns(string[] memory){... */\n      swap1\n      jump\t// out\n        /* \"OpenZeppelin ERC20 - 1/pool/Lendingmarket.sol\":166:188  string[] public assets */\n    tag_15:\n      0x01\n      dup2\n      dup2\n      sload\n      dup2\n      lt\n      tag_43\n      jumpi\n      0x00\n      dup1\n      revert\n    tag_43:\n      swap1\n      0x00\n      mstore\n      keccak256(0x00, 0x20)\n      add\n      0x00\n      swap2\n      pop\n      swap1\n      pop\n      dup1\n      sload\n      tag_45\n      swap1\n      tag_38\n      jump\t// in\n    tag_45:\n      dup1\n      0x1f\n      add\n      0x20\n      dup1\n      swap2\n      div\n      mul\n      0x20\n      add\n      mload(0x40)\n      swap1\n      dup2\n      add\n      0x40\n      mstore\n      dup1\n      swap3\n      swap2\n      swap1\n      dup2\n      dup2\n      mstore\n      0x20\n      add\n      dup3\n      dup1\n      sload\n      tag_46\n      swap1\n      tag_38\n      jump\t// in\n    tag_46:\n      dup1\n      iszero\n      tag_47\n      jumpi\n      dup1\n      0x1f\n      lt\n      tag_48\n      jumpi\n      0x0100\n      dup1\n      dup4\n      sload\n      div\n      mul\n      dup4\n      mstore\n      swap2\n      0x20\n      add\n      swap2\n      jump(tag_47)\n    tag_48:\n      dup3\n      add\n      swap2\n      swap1\n      0x00\n      mstore\n      keccak256(0x00, 0x20)\n      swap1\n    tag_49:\n      dup2\n      sload\n      dup2\n      mstore\n      swap1\n      0x01\n      add\n      swap1\n      0x20\n      add\n      dup1\n      dup4\n      gt\n      tag_49\n      jumpi\n      dup3\n      swap1\n      sub\n      0x1f\n      and\n      dup3\n      add\n      swap2\n    tag_47:\n      pop\n      pop\n      pop\n      pop\n      pop\n      dup2\n      jump\t// out\n        /* \"OpenZeppelin ERC20 - 1/pool/Lendingmarket.sol\":732:870  function getPoolAddressForToken(string calldata tokenSymbol) view external returns(address){... */\n    tag_21:\n        /* \"OpenZeppelin ERC20 - 1/pool/Lendingmarket.sol\":815:822  address */\n      0x00\n        /* \"OpenZeppelin ERC20 - 1/pool/Lendingmarket.sol\":841:849  poolData */\n      dup1\n        /* \"OpenZeppelin ERC20 - 1/pool/Lendingmarket.sol\":850:861  tokenSymbol */\n      dup4\n      dup4\n        /* \"OpenZeppelin ERC20 - 1/pool/Lendingmarket.sol\":841:862  poolData[tokenSymbol] */\n      mload(0x40)\n      tag_51\n      swap3\n      swap2\n      swap1\n      tag_52\n      jump\t// in\n    tag_51:\n      swap1\n      dup2\n      mstore\n      0x20\n      add\n      mload(0x40)\n      dup1\n      swap2\n      sub\n      swap1\n      keccak256\n      0x00\n      swap1\n      sload\n      swap1\n      0x0100\n      exp\n      swap1\n      div\n      0xffffffffffffffffffffffffffffffffffffffff\n      and\n        /* \"OpenZeppelin ERC20 - 1/pool/Lendingmarket.sol\":834:862  return poolData[tokenSymbol] */\n      swap1\n      pop\n        /* \"OpenZeppelin ERC20 - 1/pool/Lendingmarket.sol\":732:870  function getPoolAddressForToken(string calldata tokenSymbol) view external returns(address){... */\n      swap3\n      swap2\n      pop\n      pop\n      jump\t// out\n        /* \"OpenZeppelin ERC20 - 1/pool/Lendingmarket.sol\":116:159  mapping(string => address) public  poolData */\n    tag_27:\n      0x00\n      dup2\n      dup1\n      mload\n      0x20\n      dup2\n      add\n      dup3\n      add\n      dup1\n      mload\n      dup5\n      dup3\n      mstore\n      0x20\n      dup4\n      add\n      0x20\n      dup6\n      add\n      keccak256\n      dup2\n      dup4\n      mstore\n      dup1\n      swap6\n      pop\n      pop\n      pop\n      pop\n      pop\n      pop\n      0x00\n      swap2\n      pop\n      sload\n      swap1\n      0x0100\n      exp\n      swap1\n      div\n      0xffffffffffffffffffffffffffffffffffffffff\n      and\n      dup2\n      jump\t// out\n        /* \"OpenZeppelin ERC20 - 1/pool/Lendingmarket.sol\":412:724  function createPool(string calldata tokenSymbol, address tokenAddress) external isPoolExists(tokenSymbol){... */\n    tag_32:\n        /* \"OpenZeppelin ERC20 - 1/pool/Lendingmarket.sol\":505:516  tokenSymbol */\n      dup3\n      dup3\n        /* \"OpenZeppelin ERC20 - 1/pool/Lendingmarket.sol\":349:350  0 */\n      0x00\n        /* \"OpenZeppelin ERC20 - 1/pool/Lendingmarket.sol\":316:351  poolData[tokenSymbol] == address(0) */\n      0xffffffffffffffffffffffffffffffffffffffff\n      and\n        /* \"OpenZeppelin ERC20 - 1/pool/Lendingmarket.sol\":316:324  poolData */\n      0x00\n        /* \"OpenZeppelin ERC20 - 1/pool/Lendingmarket.sol\":325:336  tokenSymbol */\n      dup4\n      dup4\n        /* \"OpenZeppelin ERC20 - 1/pool/Lendingmarket.sol\":316:337  poolData[tokenSymbol] */\n      mload(0x40)\n      tag_54\n      swap3\n      swap2\n      swap1\n      tag_52\n      jump\t// in\n    tag_54:\n      swap1\n      dup2\n      mstore\n      0x20\n      add\n      mload(0x40)\n      dup1\n      swap2\n      sub\n      swap1\n      keccak256\n      0x00\n      swap1\n      sload\n      swap1\n      0x0100\n      exp\n      swap1\n      div\n      0xffffffffffffffffffffffffffffffffffffffff\n      and\n        /* \"OpenZeppelin ERC20 - 1/pool/Lendingmarket.sol\":316:351  poolData[tokenSymbol] == address(0) */\n      0xffffffffffffffffffffffffffffffffffffffff\n      and\n      eq\n        /* \"OpenZeppelin ERC20 - 1/pool/Lendingmarket.sol\":308:384  require(poolData[tokenSymbol] == address(0),\"Pool for the token is created\") */\n      tag_55\n      jumpi\n      mload(0x40)\n      0x08c379a000000000000000000000000000000000000000000000000000000000\n      dup2\n      mstore\n      0x04\n      add\n      tag_56\n      swap1\n      tag_57\n      jump\t// in\n    tag_56:\n      mload(0x40)\n      dup1\n      swap2\n      sub\n      swap1\n      revert\n    tag_55:\n        /* \"OpenZeppelin ERC20 - 1/pool/Lendingmarket.sol\":528:547  address poolAddress */\n      0x00\n        /* \"OpenZeppelin ERC20 - 1/pool/Lendingmarket.sol\":567:578  tokenSymbol */\n      dup6\n      dup6\n        /* \"OpenZeppelin ERC20 - 1/pool/Lendingmarket.sol\":579:591  tokenAddress */\n      dup6\n        /* \"OpenZeppelin ERC20 - 1/pool/Lendingmarket.sol\":558:592  new Pool(tokenSymbol,tokenAddress) */\n      mload(0x40)\n      tag_59\n      swap1\n      tag_60\n      jump\t// in\n    tag_59:\n      tag_61\n      swap4\n      swap3\n      swap2\n      swap1\n      tag_62\n      jump\t// in\n    tag_61:\n      mload(0x40)\n      dup1\n      swap2\n      sub\n      swap1\n      0x00\n      create\n      dup1\n      iszero\n      dup1\n      iszero\n      tag_63\n      jumpi\n      returndatasize\n      0x00\n      dup1\n      returndatacopy\n      revert(0x00, returndatasize)\n    tag_63:\n      pop\n        /* \"OpenZeppelin ERC20 - 1/pool/Lendingmarket.sol\":528:593  address poolAddress = address(new Pool(tokenSymbol,tokenAddress)) */\n      swap1\n      pop\n        /* \"OpenZeppelin ERC20 - 1/pool/Lendingmarket.sol\":609:635  PoolIsCreated(poolAddress) */\n      0x14bc445941746b6cec74f6d7ebf98edd82939f3f7418542f8bffbd7ff282fff3\n        /* \"OpenZeppelin ERC20 - 1/pool/Lendingmarket.sol\":623:634  poolAddress */\n      dup2\n        /* \"OpenZeppelin ERC20 - 1/pool/Lendingmarket.sol\":609:635  PoolIsCreated(poolAddress) */\n      mload(0x40)\n      tag_64\n      swap2\n      swap1\n      tag_23\n      jump\t// in\n    tag_64:\n      mload(0x40)\n      dup1\n      swap2\n      sub\n      swap1\n      log1\n        /* \"OpenZeppelin ERC20 - 1/pool/Lendingmarket.sol\":646:652  assets */\n      0x01\n        /* \"OpenZeppelin ERC20 - 1/pool/Lendingmarket.sol\":658:669  tokenSymbol */\n      dup7\n      dup7\n        /* \"OpenZeppelin ERC20 - 1/pool/Lendingmarket.sol\":646:670  assets.push(tokenSymbol) */\n      swap1\n      swap2\n      dup1\n      0x01\n      dup2\n      sload\n      add\n      dup1\n      dup3\n      sstore\n      dup1\n      swap2\n      pop\n      pop\n      0x01\n      swap1\n      sub\n      swap1\n      0x00\n      mstore\n      keccak256(0x00, 0x20)\n      add\n      0x00\n      swap1\n      swap2\n      swap3\n      swap1\n      swap2\n      swap3\n      swap1\n      swap2\n      swap3\n      swap1\n      swap2\n      swap3\n      pop\n      swap2\n      dup3\n      tag_66\n      swap3\n      swap2\n      swap1\n      tag_67\n      jump\t// in\n    tag_66:\n      pop\n        /* \"OpenZeppelin ERC20 - 1/pool/Lendingmarket.sol\":705:716  poolAddress */\n      dup1\n        /* \"OpenZeppelin ERC20 - 1/pool/Lendingmarket.sol\":681:689  poolData */\n      0x00\n        /* \"OpenZeppelin ERC20 - 1/pool/Lendingmarket.sol\":690:701  tokenSymbol */\n      dup8\n      dup8\n        /* \"OpenZeppelin ERC20 - 1/pool/Lendingmarket.sol\":681:702  poolData[tokenSymbol] */\n      mload(0x40)\n      tag_68\n      swap3\n      swap2\n      swap1\n      tag_52\n      jump\t// in\n    tag_68:\n      swap1\n      dup2\n      mstore\n      0x20\n      add\n      mload(0x40)\n      dup1\n      swap2\n      sub\n      swap1\n      keccak256\n      0x00\n        /* \"OpenZeppelin ERC20 - 1/pool/Lendingmarket.sol\":681:716  poolData[tokenSymbol] = poolAddress */\n      0x0100\n      exp\n      dup2\n      sload\n      dup2\n      0xffffffffffffffffffffffffffffffffffffffff\n      mul\n      not\n      and\n      swap1\n      dup4\n      0xffffffffffffffffffffffffffffffffffffffff\n      and\n      mul\n      or\n      swap1\n      sstore\n      pop\n        /* \"OpenZeppelin ERC20 - 1/pool/Lendingmarket.sol\":517:724  {... */\n      pop\n        /* \"OpenZeppelin ERC20 - 1/pool/Lendingmarket.sol\":412:724  function createPool(string calldata tokenSymbol, address tokenAddress) external isPoolExists(tokenSymbol){... */\n      pop\n      pop\n      pop\n      pop\n      pop\n      jump\t// out\n    tag_60:\n      dataSize(sub_0)\n      dup1\n      dataOffset(sub_0)\n      dup4\n      codecopy\n      add\n      swap1\n      jump\t// out\n        /* \"#utility.yul\":7:131   */\n    tag_69:\n        /* \"#utility.yul\":84:90   */\n      0x00\n        /* \"#utility.yul\":118:123   */\n      dup2\n        /* \"#utility.yul\":112:124   */\n      mload\n        /* \"#utility.yul\":102:124   */\n      swap1\n      pop\n        /* \"#utility.yul\":7:131   */\n      swap2\n      swap1\n      pop\n      jump\t// out\n        /* \"#utility.yul\":137:331   */\n    tag_70:\n        /* \"#utility.yul\":246:257   */\n      0x00\n        /* \"#utility.yul\":280:286   */\n      dup3\n        /* \"#utility.yul\":275:278   */\n      dup3\n        /* \"#utility.yul\":268:287   */\n      mstore\n        /* \"#utility.yul\":320:324   */\n      0x20\n        /* \"#utility.yul\":315:318   */\n      dup3\n        /* \"#utility.yul\":311:325   */\n      add\n        /* \"#utility.yul\":296:325   */\n      swap1\n      pop\n        /* \"#utility.yul\":137:331   */\n      swap3\n      swap2\n      pop\n      pop\n      jump\t// out\n        /* \"#utility.yul\":337:479   */\n    tag_71:\n        /* \"#utility.yul\":414:418   */\n      0x00\n        /* \"#utility.yul\":437:440   */\n      dup2\n        /* \"#utility.yul\":429:440   */\n      swap1\n      pop\n        /* \"#utility.yul\":467:471   */\n      0x20\n        /* \"#utility.yul\":462:465   */\n      dup3\n        /* \"#utility.yul\":458:472   */\n      add\n        /* \"#utility.yul\":450:472   */\n      swap1\n      pop\n        /* \"#utility.yul\":337:479   */\n      swap2\n      swap1\n      pop\n      jump\t// out\n        /* \"#utility.yul\":485:584   */\n    tag_72:\n        /* \"#utility.yul\":537:543   */\n      0x00\n        /* \"#utility.yul\":571:576   */\n      dup2\n        /* \"#utility.yul\":565:577   */\n      mload\n        /* \"#utility.yul\":555:577   */\n      swap1\n      pop\n        /* \"#utility.yul\":485:584   */\n      swap2\n      swap1\n      pop\n      jump\t// out\n        /* \"#utility.yul\":590:749   */\n    tag_73:\n        /* \"#utility.yul\":664:675   */\n      0x00\n        /* \"#utility.yul\":698:704   */\n      dup3\n        /* \"#utility.yul\":693:696   */\n      dup3\n        /* \"#utility.yul\":686:705   */\n      mstore\n        /* \"#utility.yul\":738:742   */\n      0x20\n        /* \"#utility.yul\":733:736   */\n      dup3\n        /* \"#utility.yul\":729:743   */\n      add\n        /* \"#utility.yul\":714:743   */\n      swap1\n      pop\n        /* \"#utility.yul\":590:749   */\n      swap3\n      swap2\n      pop\n      pop\n      jump\t// out\n        /* \"#utility.yul\":755:1001   */\n    tag_74:\n        /* \"#utility.yul\":836:837   */\n      0x00\n        /* \"#utility.yul\":846:959   */\n    tag_134:\n        /* \"#utility.yul\":860:866   */\n      dup4\n        /* \"#utility.yul\":857:858   */\n      dup2\n        /* \"#utility.yul\":854:867   */\n      lt\n        /* \"#utility.yul\":846:959   */\n      iszero\n      tag_136\n      jumpi\n        /* \"#utility.yul\":945:946   */\n      dup1\n        /* \"#utility.yul\":940:943   */\n      dup3\n        /* \"#utility.yul\":936:947   */\n      add\n        /* \"#utility.yul\":930:948   */\n      mload\n        /* \"#utility.yul\":926:927   */\n      dup2\n        /* \"#utility.yul\":921:924   */\n      dup5\n        /* \"#utility.yul\":917:928   */\n      add\n        /* \"#utility.yul\":910:949   */\n      mstore\n        /* \"#utility.yul\":882:884   */\n      0x20\n        /* \"#utility.yul\":879:880   */\n      dup2\n        /* \"#utility.yul\":875:885   */\n      add\n        /* \"#utility.yul\":870:885   */\n      swap1\n      pop\n        /* \"#utility.yul\":846:959   */\n      jump(tag_134)\n    tag_136:\n        /* \"#utility.yul\":993:994   */\n      0x00\n        /* \"#utility.yul\":984:990   */\n      dup5\n        /* \"#utility.yul\":979:982   */\n      dup5\n        /* \"#utility.yul\":975:991   */\n      add\n        /* \"#utility.yul\":968:995   */\n      mstore\n        /* \"#utility.yul\":817:1001   */\n      pop\n        /* \"#utility.yul\":755:1001   */\n      pop\n      pop\n      pop\n      jump\t// out\n        /* \"#utility.yul\":1007:1109   */\n    tag_75:\n        /* \"#utility.yul\":1048:1054   */\n      0x00\n        /* \"#utility.yul\":1099:1101   */\n      0x1f\n        /* \"#utility.yul\":1095:1102   */\n      not\n        /* \"#utility.yul\":1090:1092   */\n      0x1f\n        /* \"#utility.yul\":1083:1088   */\n      dup4\n        /* \"#utility.yul\":1079:1093   */\n      add\n        /* \"#utility.yul\":1075:1103   */\n      and\n        /* \"#utility.yul\":1065:1103   */\n      swap1\n      pop\n        /* \"#utility.yul\":1007:1109   */\n      swap2\n      swap1\n      pop\n      jump\t// out\n        /* \"#utility.yul\":1115:1472   */\n    tag_76:\n        /* \"#utility.yul\":1193:1196   */\n      0x00\n        /* \"#utility.yul\":1221:1260   */\n      tag_139\n        /* \"#utility.yul\":1254:1259   */\n      dup3\n        /* \"#utility.yul\":1221:1260   */\n      tag_72\n      jump\t// in\n    tag_139:\n        /* \"#utility.yul\":1276:1337   */\n      tag_140\n        /* \"#utility.yul\":1330:1336   */\n      dup2\n        /* \"#utility.yul\":1325:1328   */\n      dup6\n        /* \"#utility.yul\":1276:1337   */\n      tag_73\n      jump\t// in\n    tag_140:\n        /* \"#utility.yul\":1269:1337   */\n      swap4\n      pop\n        /* \"#utility.yul\":1346:1411   */\n      tag_141\n        /* \"#utility.yul\":1404:1410   */\n      dup2\n        /* \"#utility.yul\":1399:1402   */\n      dup6\n        /* \"#utility.yul\":1392:1396   */\n      0x20\n        /* \"#utility.yul\":1385:1390   */\n      dup7\n        /* \"#utility.yul\":1381:1397   */\n      add\n        /* \"#utility.yul\":1346:1411   */\n      tag_74\n      jump\t// in\n    tag_141:\n        /* \"#utility.yul\":1436:1465   */\n      tag_142\n        /* \"#utility.yul\":1458:1464   */\n      dup2\n        /* \"#utility.yul\":1436:1465   */\n      tag_75\n      jump\t// in\n    tag_142:\n        /* \"#utility.yul\":1431:1434   */\n      dup5\n        /* \"#utility.yul\":1427:1466   */\n      add\n        /* \"#utility.yul\":1420:1466   */\n      swap2\n      pop\n        /* \"#utility.yul\":1197:1472   */\n      pop\n        /* \"#utility.yul\":1115:1472   */\n      swap3\n      swap2\n      pop\n      pop\n      jump\t// out\n        /* \"#utility.yul\":1478:1674   */\n    tag_77:\n        /* \"#utility.yul\":1567:1577   */\n      0x00\n        /* \"#utility.yul\":1602:1668   */\n      tag_144\n        /* \"#utility.yul\":1664:1667   */\n      dup4\n        /* \"#utility.yul\":1656:1662   */\n      dup4\n        /* \"#utility.yul\":1602:1668   */\n      tag_76\n      jump\t// in\n    tag_144:\n        /* \"#utility.yul\":1588:1668   */\n      swap1\n      pop\n        /* \"#utility.yul\":1478:1674   */\n      swap3\n      swap2\n      pop\n      pop\n      jump\t// out\n        /* \"#utility.yul\":1680:1803   */\n    tag_78:\n        /* \"#utility.yul\":1760:1764   */\n      0x00\n        /* \"#utility.yul\":1792:1796   */\n      0x20\n        /* \"#utility.yul\":1787:1790   */\n      dup3\n        /* \"#utility.yul\":1783:1797   */\n      add\n        /* \"#utility.yul\":1775:1797   */\n      swap1\n      pop\n        /* \"#utility.yul\":1680:1803   */\n      swap2\n      swap1\n      pop\n      jump\t// out\n        /* \"#utility.yul\":1837:2828   */\n    tag_79:\n        /* \"#utility.yul\":1976:1979   */\n      0x00\n        /* \"#utility.yul\":2005:2069   */\n      tag_147\n        /* \"#utility.yul\":2063:2068   */\n      dup3\n        /* \"#utility.yul\":2005:2069   */\n      tag_69\n      jump\t// in\n    tag_147:\n        /* \"#utility.yul\":2085:2181   */\n      tag_148\n        /* \"#utility.yul\":2174:2180   */\n      dup2\n        /* \"#utility.yul\":2169:2172   */\n      dup6\n        /* \"#utility.yul\":2085:2181   */\n      tag_70\n      jump\t// in\n    tag_148:\n        /* \"#utility.yul\":2078:2181   */\n      swap4\n      pop\n        /* \"#utility.yul\":2207:2210   */\n      dup4\n        /* \"#utility.yul\":2252:2256   */\n      0x20\n        /* \"#utility.yul\":2244:2250   */\n      dup3\n        /* \"#utility.yul\":2240:2257   */\n      mul\n        /* \"#utility.yul\":2235:2238   */\n      dup6\n        /* \"#utility.yul\":2231:2258   */\n      add\n        /* \"#utility.yul\":2282:2348   */\n      tag_149\n        /* \"#utility.yul\":2342:2347   */\n      dup6\n        /* \"#utility.yul\":2282:2348   */\n      tag_71\n      jump\t// in\n    tag_149:\n        /* \"#utility.yul\":2371:2378   */\n      dup1\n        /* \"#utility.yul\":2402:2403   */\n      0x00\n        /* \"#utility.yul\":2387:2783   */\n    tag_150:\n        /* \"#utility.yul\":2412:2418   */\n      dup6\n        /* \"#utility.yul\":2409:2410   */\n      dup2\n        /* \"#utility.yul\":2406:2419   */\n      lt\n        /* \"#utility.yul\":2387:2783   */\n      iszero\n      tag_152\n      jumpi\n        /* \"#utility.yul\":2483:2492   */\n      dup5\n        /* \"#utility.yul\":2477:2481   */\n      dup5\n        /* \"#utility.yul\":2473:2493   */\n      sub\n        /* \"#utility.yul\":2468:2471   */\n      dup10\n        /* \"#utility.yul\":2461:2494   */\n      mstore\n        /* \"#utility.yul\":2534:2540   */\n      dup2\n        /* \"#utility.yul\":2528:2541   */\n      mload\n        /* \"#utility.yul\":2562:2646   */\n      tag_153\n        /* \"#utility.yul\":2641:2645   */\n      dup6\n        /* \"#utility.yul\":2626:2639   */\n      dup3\n        /* \"#utility.yul\":2562:2646   */\n      tag_77\n      jump\t// in\n    tag_153:\n        /* \"#utility.yul\":2554:2646   */\n      swap5\n      pop\n        /* \"#utility.yul\":2669:2739   */\n      tag_154\n        /* \"#utility.yul\":2732:2738   */\n      dup4\n        /* \"#utility.yul\":2669:2739   */\n      tag_78\n      jump\t// in\n    tag_154:\n        /* \"#utility.yul\":2659:2739   */\n      swap3\n      pop\n        /* \"#utility.yul\":2768:2772   */\n      0x20\n        /* \"#utility.yul\":2763:2766   */\n      dup11\n        /* \"#utility.yul\":2759:2773   */\n      add\n        /* \"#utility.yul\":2752:2773   */\n      swap10\n      pop\n        /* \"#utility.yul\":2447:2783   */\n      pop\n        /* \"#utility.yul\":2434:2435   */\n      0x01\n        /* \"#utility.yul\":2431:2432   */\n      dup2\n        /* \"#utility.yul\":2427:2436   */\n      add\n        /* \"#utility.yul\":2422:2436   */\n      swap1\n      pop\n        /* \"#utility.yul\":2387:2783   */\n      jump(tag_150)\n    tag_152:\n        /* \"#utility.yul\":2391:2405   */\n      pop\n        /* \"#utility.yul\":2799:2803   */\n      dup3\n        /* \"#utility.yul\":2792:2803   */\n      swap8\n      pop\n        /* \"#utility.yul\":2819:2822   */\n      dup8\n        /* \"#utility.yul\":2812:2822   */\n      swap6\n      pop\n        /* \"#utility.yul\":1981:2828   */\n      pop\n      pop\n      pop\n      pop\n      pop\n        /* \"#utility.yul\":1837:2828   */\n      swap3\n      swap2\n      pop\n      pop\n      jump\t// out\n        /* \"#utility.yul\":2834:3247   */\n    tag_11:\n        /* \"#utility.yul\":2997:3001   */\n      0x00\n        /* \"#utility.yul\":3035:3037   */\n      0x20\n        /* \"#utility.yul\":3024:3033   */\n      dup3\n        /* \"#utility.yul\":3020:3038   */\n      add\n        /* \"#utility.yul\":3012:3038   */\n      swap1\n      pop\n        /* \"#utility.yul\":3084:3093   */\n      dup2\n        /* \"#utility.yul\":3078:3082   */\n      dup2\n        /* \"#utility.yul\":3074:3094   */\n      sub\n        /* \"#utility.yul\":3070:3071   */\n      0x00\n        /* \"#utility.yul\":3059:3068   */\n      dup4\n        /* \"#utility.yul\":3055:3072   */\n      add\n        /* \"#utility.yul\":3048:3095   */\n      mstore\n        /* \"#utility.yul\":3112:3240   */\n      tag_156\n        /* \"#utility.yul\":3235:3239   */\n      dup2\n        /* \"#utility.yul\":3226:3232   */\n      dup5\n        /* \"#utility.yul\":3112:3240   */\n      tag_79\n      jump\t// in\n    tag_156:\n        /* \"#utility.yul\":3104:3240   */\n      swap1\n      pop\n        /* \"#utility.yul\":2834:3247   */\n      swap3\n      swap2\n      pop\n      pop\n      jump\t// out\n        /* \"#utility.yul\":3253:3328   */\n    tag_80:\n        /* \"#utility.yul\":3286:3292   */\n      0x00\n        /* \"#utility.yul\":3319:3321   */\n      0x40\n        /* \"#utility.yul\":3313:3322   */\n      mload\n        /* \"#utility.yul\":3303:3322   */\n      swap1\n      pop\n        /* \"#utility.yul\":3253:3328   */\n      swap1\n      jump\t// out\n        /* \"#utility.yul\":3334:3451   */\n    tag_81:\n        /* \"#utility.yul\":3443:3444   */\n      0x00\n        /* \"#utility.yul\":3440:3441   */\n      dup1\n        /* \"#utility.yul\":3433:3445   */\n      revert\n        /* \"#utility.yul\":3457:3574   */\n    tag_82:\n        /* \"#utility.yul\":3566:3567   */\n      0x00\n        /* \"#utility.yul\":3563:3564   */\n      dup1\n        /* \"#utility.yul\":3556:3568   */\n      revert\n        /* \"#utility.yul\":3580:3657   */\n    tag_83:\n        /* \"#utility.yul\":3617:3624   */\n      0x00\n        /* \"#utility.yul\":3646:3651   */\n      dup2\n        /* \"#utility.yul\":3635:3651   */\n      swap1\n      pop\n        /* \"#utility.yul\":3580:3657   */\n      swap2\n      swap1\n      pop\n      jump\t// out\n        /* \"#utility.yul\":3663:3785   */\n    tag_84:\n        /* \"#utility.yul\":3736:3760   */\n      tag_162\n        /* \"#utility.yul\":3754:3759   */\n      dup2\n        /* \"#utility.yul\":3736:3760   */\n      tag_83\n      jump\t// in\n    tag_162:\n        /* \"#utility.yul\":3729:3734   */\n      dup2\n        /* \"#utility.yul\":3726:3761   */\n      eq\n        /* \"#utility.yul\":3716:3779   */\n      tag_163\n      jumpi\n        /* \"#utility.yul\":3775:3776   */\n      0x00\n        /* \"#utility.yul\":3772:3773   */\n      dup1\n        /* \"#utility.yul\":3765:3777   */\n      revert\n        /* \"#utility.yul\":3716:3779   */\n    tag_163:\n        /* \"#utility.yul\":3663:3785   */\n      pop\n      jump\t// out\n        /* \"#utility.yul\":3791:3930   */\n    tag_85:\n        /* \"#utility.yul\":3837:3842   */\n      0x00\n        /* \"#utility.yul\":3875:3881   */\n      dup2\n        /* \"#utility.yul\":3862:3882   */\n      calldataload\n        /* \"#utility.yul\":3853:3882   */\n      swap1\n      pop\n        /* \"#utility.yul\":3891:3924   */\n      tag_165\n        /* \"#utility.yul\":3918:3923   */\n      dup2\n        /* \"#utility.yul\":3891:3924   */\n      tag_84\n      jump\t// in\n    tag_165:\n        /* \"#utility.yul\":3791:3930   */\n      swap3\n      swap2\n      pop\n      pop\n      jump\t// out\n        /* \"#utility.yul\":3936:4265   */\n    tag_14:\n        /* \"#utility.yul\":3995:4001   */\n      0x00\n        /* \"#utility.yul\":4044:4046   */\n      0x20\n        /* \"#utility.yul\":4032:4041   */\n      dup3\n        /* \"#utility.yul\":4023:4030   */\n      dup5\n        /* \"#utility.yul\":4019:4042   */\n      sub\n        /* \"#utility.yul\":4015:4047   */\n      slt\n        /* \"#utility.yul\":4012:4131   */\n      iszero\n      tag_167\n      jumpi\n        /* \"#utility.yul\":4050:4129   */\n      tag_168\n      tag_81\n      jump\t// in\n    tag_168:\n        /* \"#utility.yul\":4012:4131   */\n    tag_167:\n        /* \"#utility.yul\":4170:4171   */\n      0x00\n        /* \"#utility.yul\":4195:4248   */\n      tag_169\n        /* \"#utility.yul\":4240:4247   */\n      dup5\n        /* \"#utility.yul\":4231:4237   */\n      dup3\n        /* \"#utility.yul\":4220:4229   */\n      dup6\n        /* \"#utility.yul\":4216:4238   */\n      add\n        /* \"#utility.yul\":4195:4248   */\n      tag_85\n      jump\t// in\n    tag_169:\n        /* \"#utility.yul\":4185:4248   */\n      swap2\n      pop\n        /* \"#utility.yul\":4141:4258   */\n      pop\n        /* \"#utility.yul\":3936:4265   */\n      swap3\n      swap2\n      pop\n      pop\n      jump\t// out\n        /* \"#utility.yul\":4271:4440   */\n    tag_86:\n        /* \"#utility.yul\":4355:4366   */\n      0x00\n        /* \"#utility.yul\":4389:4395   */\n      dup3\n        /* \"#utility.yul\":4384:4387   */\n      dup3\n        /* \"#utility.yul\":4377:4396   */\n      mstore\n        /* \"#utility.yul\":4429:4433   */\n      0x20\n        /* \"#utility.yul\":4424:4427   */\n      dup3\n        /* \"#utility.yul\":4420:4434   */\n      add\n        /* \"#utility.yul\":4405:4434   */\n      swap1\n      pop\n        /* \"#utility.yul\":4271:4440   */\n      swap3\n      swap2\n      pop\n      pop\n      jump\t// out\n        /* \"#utility.yul\":4446:4823   */\n    tag_87:\n        /* \"#utility.yul\":4534:4537   */\n      0x00\n        /* \"#utility.yul\":4562:4601   */\n      tag_172\n        /* \"#utility.yul\":4595:4600   */\n      dup3\n        /* \"#utility.yul\":4562:4601   */\n      tag_72\n      jump\t// in\n    tag_172:\n        /* \"#utility.yul\":4617:4688   */\n      tag_173\n        /* \"#utility.yul\":4681:4687   */\n      dup2\n        /* \"#utility.yul\":4676:4679   */\n      dup6\n        /* \"#utility.yul\":4617:4688   */\n      tag_86\n      jump\t// in\n    tag_173:\n        /* \"#utility.yul\":4610:4688   */\n      swap4\n      pop\n        /* \"#utility.yul\":4697:4762   */\n      tag_174\n        /* \"#utility.yul\":4755:4761   */\n      dup2\n        /* \"#utility.yul\":4750:4753   */\n      dup6\n        /* \"#utility.yul\":4743:4747   */\n      0x20\n        /* \"#utility.yul\":4736:4741   */\n      dup7\n        /* \"#utility.yul\":4732:4748   */\n      add\n        /* \"#utility.yul\":4697:4762   */\n      tag_74\n      jump\t// in\n    tag_174:\n        /* \"#utility.yul\":4787:4816   */\n      tag_175\n        /* \"#utility.yul\":4809:4815   */\n      dup2\n        /* \"#utility.yul\":4787:4816   */\n      tag_75\n      jump\t// in\n    tag_175:\n        /* \"#utility.yul\":4782:4785   */\n      dup5\n        /* \"#utility.yul\":4778:4817   */\n      add\n        /* \"#utility.yul\":4771:4817   */\n      swap2\n      pop\n        /* \"#utility.yul\":4538:4823   */\n      pop\n        /* \"#utility.yul\":4446:4823   */\n      swap3\n      swap2\n      pop\n      pop\n      jump\t// out\n        /* \"#utility.yul\":4829:5142   */\n    tag_17:\n        /* \"#utility.yul\":4942:4946   */\n      0x00\n        /* \"#utility.yul\":4980:4982   */\n      0x20\n        /* \"#utility.yul\":4969:4978   */\n      dup3\n        /* \"#utility.yul\":4965:4983   */\n      add\n        /* \"#utility.yul\":4957:4983   */\n      swap1\n      pop\n        /* \"#utility.yul\":5029:5038   */\n      dup2\n        /* \"#utility.yul\":5023:5027   */\n      dup2\n        /* \"#utility.yul\":5019:5039   */\n      sub\n        /* \"#utility.yul\":5015:5016   */\n      0x00\n        /* \"#utility.yul\":5004:5013   */\n      dup4\n        /* \"#utility.yul\":5000:5017   */\n      add\n        /* \"#utility.yul\":4993:5040   */\n      mstore\n        /* \"#utility.yul\":5057:5135   */\n      tag_177\n        /* \"#utility.yul\":5130:5134   */\n      dup2\n        /* \"#utility.yul\":5121:5127   */\n      dup5\n        /* \"#utility.yul\":5057:5135   */\n      tag_87\n      jump\t// in\n    tag_177:\n        /* \"#utility.yul\":5049:5135   */\n      swap1\n      pop\n        /* \"#utility.yul\":4829:5142   */\n      swap3\n      swap2\n      pop\n      pop\n      jump\t// out\n        /* \"#utility.yul\":5148:5265   */\n    tag_88:\n        /* \"#utility.yul\":5257:5258   */\n      0x00\n        /* \"#utility.yul\":5254:5255   */\n      dup1\n        /* \"#utility.yul\":5247:5259   */\n      revert\n        /* \"#utility.yul\":5271:5388   */\n    tag_89:\n        /* \"#utility.yul\":5380:5381   */\n      0x00\n        /* \"#utility.yul\":5377:5378   */\n      dup1\n        /* \"#utility.yul\":5370:5382   */\n      revert\n        /* \"#utility.yul\":5394:5511   */\n    tag_90:\n        /* \"#utility.yul\":5503:5504   */\n      0x00\n        /* \"#utility.yul\":5500:5501   */\n      dup1\n        /* \"#utility.yul\":5493:5505   */\n      revert\n        /* \"#utility.yul\":5531:6084   */\n    tag_91:\n        /* \"#utility.yul\":5589:5597   */\n      0x00\n        /* \"#utility.yul\":5599:5605   */\n      dup1\n        /* \"#utility.yul\":5649:5652   */\n      dup4\n        /* \"#utility.yul\":5642:5646   */\n      0x1f\n        /* \"#utility.yul\":5634:5640   */\n      dup5\n        /* \"#utility.yul\":5630:5647   */\n      add\n        /* \"#utility.yul\":5626:5653   */\n      slt\n        /* \"#utility.yul\":5616:5738   */\n      tag_182\n      jumpi\n        /* \"#utility.yul\":5657:5736   */\n      tag_183\n      tag_88\n      jump\t// in\n    tag_183:\n        /* \"#utility.yul\":5616:5738   */\n    tag_182:\n        /* \"#utility.yul\":5770:5776   */\n      dup3\n        /* \"#utility.yul\":5757:5777   */\n      calldataload\n        /* \"#utility.yul\":5747:5777   */\n      swap1\n      pop\n        /* \"#utility.yul\":5800:5818   */\n      0xffffffffffffffff\n        /* \"#utility.yul\":5792:5798   */\n      dup2\n        /* \"#utility.yul\":5789:5819   */\n      gt\n        /* \"#utility.yul\":5786:5903   */\n      iszero\n      tag_184\n      jumpi\n        /* \"#utility.yul\":5822:5901   */\n      tag_185\n      tag_89\n      jump\t// in\n    tag_185:\n        /* \"#utility.yul\":5786:5903   */\n    tag_184:\n        /* \"#utility.yul\":5936:5940   */\n      0x20\n        /* \"#utility.yul\":5928:5934   */\n      dup4\n        /* \"#utility.yul\":5924:5941   */\n      add\n        /* \"#utility.yul\":5912:5941   */\n      swap2\n      pop\n        /* \"#utility.yul\":5990:5993   */\n      dup4\n        /* \"#utility.yul\":5982:5986   */\n      0x01\n        /* \"#utility.yul\":5974:5980   */\n      dup3\n        /* \"#utility.yul\":5970:5987   */\n      mul\n        /* \"#utility.yul\":5960:5968   */\n      dup4\n        /* \"#utility.yul\":5956:5988   */\n      add\n        /* \"#utility.yul\":5953:5994   */\n      gt\n        /* \"#utility.yul\":5950:6078   */\n      iszero\n      tag_186\n      jumpi\n        /* \"#utility.yul\":5997:6076   */\n      tag_187\n      tag_90\n      jump\t// in\n    tag_187:\n        /* \"#utility.yul\":5950:6078   */\n    tag_186:\n        /* \"#utility.yul\":5531:6084   */\n      swap3\n      pop\n      swap3\n      swap1\n      pop\n      jump\t// out\n        /* \"#utility.yul\":6090:6619   */\n    tag_20:\n        /* \"#utility.yul\":6161:6167   */\n      0x00\n        /* \"#utility.yul\":6169:6175   */\n      dup1\n        /* \"#utility.yul\":6218:6220   */\n      0x20\n        /* \"#utility.yul\":6206:6215   */\n      dup4\n        /* \"#utility.yul\":6197:6204   */\n      dup6\n        /* \"#utility.yul\":6193:6216   */\n      sub\n        /* \"#utility.yul\":6189:6221   */\n      slt\n        /* \"#utility.yul\":6186:6305   */\n      iszero\n      tag_189\n      jumpi\n        /* \"#utility.yul\":6224:6303   */\n      tag_190\n      tag_81\n      jump\t// in\n    tag_190:\n        /* \"#utility.yul\":6186:6305   */\n    tag_189:\n        /* \"#utility.yul\":6372:6373   */\n      0x00\n        /* \"#utility.yul\":6361:6370   */\n      dup4\n        /* \"#utility.yul\":6357:6374   */\n      add\n        /* \"#utility.yul\":6344:6375   */\n      calldataload\n        /* \"#utility.yul\":6402:6420   */\n      0xffffffffffffffff\n        /* \"#utility.yul\":6394:6400   */\n      dup2\n        /* \"#utility.yul\":6391:6421   */\n      gt\n        /* \"#utility.yul\":6388:6505   */\n      iszero\n      tag_191\n      jumpi\n        /* \"#utility.yul\":6424:6503   */\n      tag_192\n      tag_82\n      jump\t// in\n    tag_192:\n        /* \"#utility.yul\":6388:6505   */\n    tag_191:\n        /* \"#utility.yul\":6537:6602   */\n      tag_193\n        /* \"#utility.yul\":6594:6601   */\n      dup6\n        /* \"#utility.yul\":6585:6591   */\n      dup3\n        /* \"#utility.yul\":6574:6583   */\n      dup7\n        /* \"#utility.yul\":6570:6592   */\n      add\n        /* \"#utility.yul\":6537:6602   */\n      tag_91\n      jump\t// in\n    tag_193:\n        /* \"#utility.yul\":6519:6602   */\n      swap3\n      pop\n      swap3\n      pop\n        /* \"#utility.yul\":6315:6612   */\n      pop\n        /* \"#utility.yul\":6090:6619   */\n      swap3\n      pop\n      swap3\n      swap1\n      pop\n      jump\t// out\n        /* \"#utility.yul\":6625:6751   */\n    tag_92:\n        /* \"#utility.yul\":6662:6669   */\n      0x00\n        /* \"#utility.yul\":6702:6744   */\n      0xffffffffffffffffffffffffffffffffffffffff\n        /* \"#utility.yul\":6695:6700   */\n      dup3\n        /* \"#utility.yul\":6691:6745   */\n      and\n        /* \"#utility.yul\":6680:6745   */\n      swap1\n      pop\n        /* \"#utility.yul\":6625:6751   */\n      swap2\n      swap1\n      pop\n      jump\t// out\n        /* \"#utility.yul\":6757:6853   */\n    tag_93:\n        /* \"#utility.yul\":6794:6801   */\n      0x00\n        /* \"#utility.yul\":6823:6847   */\n      tag_196\n        /* \"#utility.yul\":6841:6846   */\n      dup3\n        /* \"#utility.yul\":6823:6847   */\n      tag_92\n      jump\t// in\n    tag_196:\n        /* \"#utility.yul\":6812:6847   */\n      swap1\n      pop\n        /* \"#utility.yul\":6757:6853   */\n      swap2\n      swap1\n      pop\n      jump\t// out\n        /* \"#utility.yul\":6859:6977   */\n    tag_94:\n        /* \"#utility.yul\":6946:6970   */\n      tag_198\n        /* \"#utility.yul\":6964:6969   */\n      dup2\n        /* \"#utility.yul\":6946:6970   */\n      tag_93\n      jump\t// in\n    tag_198:\n        /* \"#utility.yul\":6941:6944   */\n      dup3\n        /* \"#utility.yul\":6934:6971   */\n      mstore\n        /* \"#utility.yul\":6859:6977   */\n      pop\n      pop\n      jump\t// out\n        /* \"#utility.yul\":6983:7205   */\n    tag_23:\n        /* \"#utility.yul\":7076:7080   */\n      0x00\n        /* \"#utility.yul\":7114:7116   */\n      0x20\n        /* \"#utility.yul\":7103:7112   */\n      dup3\n        /* \"#utility.yul\":7099:7117   */\n      add\n        /* \"#utility.yul\":7091:7117   */\n      swap1\n      pop\n        /* \"#utility.yul\":7127:7198   */\n      tag_200\n        /* \"#utility.yul\":7195:7196   */\n      0x00\n        /* \"#utility.yul\":7184:7193   */\n      dup4\n        /* \"#utility.yul\":7180:7197   */\n      add\n        /* \"#utility.yul\":7171:7177   */\n      dup5\n        /* \"#utility.yul\":7127:7198   */\n      tag_94\n      jump\t// in\n    tag_200:\n        /* \"#utility.yul\":6983:7205   */\n      swap3\n      swap2\n      pop\n      pop\n      jump\t// out\n        /* \"#utility.yul\":7211:7328   */\n    tag_95:\n        /* \"#utility.yul\":7320:7321   */\n      0x00\n        /* \"#utility.yul\":7317:7318   */\n      dup1\n        /* \"#utility.yul\":7310:7322   */\n      revert\n        /* \"#utility.yul\":7334:7514   */\n    tag_96:\n        /* \"#utility.yul\":7382:7459   */\n      0x4e487b7100000000000000000000000000000000000000000000000000000000\n        /* \"#utility.yul\":7379:7380   */\n      0x00\n        /* \"#utility.yul\":7372:7460   */\n      mstore\n        /* \"#utility.yul\":7479:7483   */\n      0x41\n        /* \"#utility.yul\":7476:7477   */\n      0x04\n        /* \"#utility.yul\":7469:7484   */\n      mstore\n        /* \"#utility.yul\":7503:7507   */\n      0x24\n        /* \"#utility.yul\":7500:7501   */\n      0x00\n        /* \"#utility.yul\":7493:7508   */\n      revert\n        /* \"#utility.yul\":7520:7801   */\n    tag_97:\n        /* \"#utility.yul\":7603:7630   */\n      tag_204\n        /* \"#utility.yul\":7625:7629   */\n      dup3\n        /* \"#utility.yul\":7603:7630   */\n      tag_75\n      jump\t// in\n    tag_204:\n        /* \"#utility.yul\":7595:7601   */\n      dup2\n        /* \"#utility.yul\":7591:7631   */\n      add\n        /* \"#utility.yul\":7733:7739   */\n      dup2\n        /* \"#utility.yul\":7721:7731   */\n      dup2\n        /* \"#utility.yul\":7718:7740   */\n      lt\n        /* \"#utility.yul\":7697:7715   */\n      0xffffffffffffffff\n        /* \"#utility.yul\":7685:7695   */\n      dup3\n        /* \"#utility.yul\":7682:7716   */\n      gt\n        /* \"#utility.yul\":7679:7741   */\n      or\n        /* \"#utility.yul\":7676:7764   */\n      iszero\n      tag_205\n      jumpi\n        /* \"#utility.yul\":7744:7762   */\n      tag_206\n      tag_96\n      jump\t// in\n    tag_206:\n        /* \"#utility.yul\":7676:7764   */\n    tag_205:\n        /* \"#utility.yul\":7784:7794   */\n      dup1\n        /* \"#utility.yul\":7780:7782   */\n      0x40\n        /* \"#utility.yul\":7773:7795   */\n      mstore\n        /* \"#utility.yul\":7563:7801   */\n      pop\n        /* \"#utility.yul\":7520:7801   */\n      pop\n      pop\n      jump\t// out\n        /* \"#utility.yul\":7807:7936   */\n    tag_98:\n        /* \"#utility.yul\":7841:7847   */\n      0x00\n        /* \"#utility.yul\":7868:7888   */\n      tag_208\n      tag_80\n      jump\t// in\n    tag_208:\n        /* \"#utility.yul\":7858:7888   */\n      swap1\n      pop\n        /* \"#utility.yul\":7897:7930   */\n      tag_209\n        /* \"#utility.yul\":7925:7929   */\n      dup3\n        /* \"#utility.yul\":7917:7923   */\n      dup3\n        /* \"#utility.yul\":7897:7930   */\n      tag_97\n      jump\t// in\n    tag_209:\n        /* \"#utility.yul\":7807:7936   */\n      swap2\n      swap1\n      pop\n      jump\t// out\n        /* \"#utility.yul\":7942:8250   */\n    tag_99:\n        /* \"#utility.yul\":8004:8008   */\n      0x00\n        /* \"#utility.yul\":8094:8112   */\n      0xffffffffffffffff\n        /* \"#utility.yul\":8086:8092   */\n      dup3\n        /* \"#utility.yul\":8083:8113   */\n      gt\n        /* \"#utility.yul\":8080:8136   */\n      iszero\n      tag_211\n      jumpi\n        /* \"#utility.yul\":8116:8134   */\n      tag_212\n      tag_96\n      jump\t// in\n    tag_212:\n        /* \"#utility.yul\":8080:8136   */\n    tag_211:\n        /* \"#utility.yul\":8154:8183   */\n      tag_213\n        /* \"#utility.yul\":8176:8182   */\n      dup3\n        /* \"#utility.yul\":8154:8183   */\n      tag_75\n      jump\t// in\n    tag_213:\n        /* \"#utility.yul\":8146:8183   */\n      swap1\n      pop\n        /* \"#utility.yul\":8238:8242   */\n      0x20\n        /* \"#utility.yul\":8232:8236   */\n      dup2\n        /* \"#utility.yul\":8228:8243   */\n      add\n        /* \"#utility.yul\":8220:8243   */\n      swap1\n      pop\n        /* \"#utility.yul\":7942:8250   */\n      swap2\n      swap1\n      pop\n      jump\t// out\n        /* \"#utility.yul\":8256:8402   */\n    tag_100:\n        /* \"#utility.yul\":8353:8359   */\n      dup3\n        /* \"#utility.yul\":8348:8351   */\n      dup2\n        /* \"#utility.yul\":8343:8346   */\n      dup4\n        /* \"#utility.yul\":8330:8360   */\n      calldatacopy\n        /* \"#utility.yul\":8394:8395   */\n      0x00\n        /* \"#utility.yul\":8385:8391   */\n      dup4\n        /* \"#utility.yul\":8380:8383   */\n      dup4\n        /* \"#utility.yul\":8376:8392   */\n      add\n        /* \"#utility.yul\":8369:8396   */\n      mstore\n        /* \"#utility.yul\":8256:8402   */\n      pop\n      pop\n      pop\n      jump\t// out\n        /* \"#utility.yul\":8408:8833   */\n    tag_101:\n        /* \"#utility.yul\":8486:8491   */\n      0x00\n        /* \"#utility.yul\":8511:8577   */\n      tag_216\n        /* \"#utility.yul\":8527:8576   */\n      tag_217\n        /* \"#utility.yul\":8569:8575   */\n      dup5\n        /* \"#utility.yul\":8527:8576   */\n      tag_99\n      jump\t// in\n    tag_217:\n        /* \"#utility.yul\":8511:8577   */\n      tag_98\n      jump\t// in\n    tag_216:\n        /* \"#utility.yul\":8502:8577   */\n      swap1\n      pop\n        /* \"#utility.yul\":8600:8606   */\n      dup3\n        /* \"#utility.yul\":8593:8598   */\n      dup2\n        /* \"#utility.yul\":8586:8607   */\n      mstore\n        /* \"#utility.yul\":8638:8642   */\n      0x20\n        /* \"#utility.yul\":8631:8636   */\n      dup2\n        /* \"#utility.yul\":8627:8643   */\n      add\n        /* \"#utility.yul\":8676:8679   */\n      dup5\n        /* \"#utility.yul\":8667:8673   */\n      dup5\n        /* \"#utility.yul\":8662:8665   */\n      dup5\n        /* \"#utility.yul\":8658:8674   */\n      add\n        /* \"#utility.yul\":8655:8680   */\n      gt\n        /* \"#utility.yul\":8652:8764   */\n      iszero\n      tag_218\n      jumpi\n        /* \"#utility.yul\":8683:8762   */\n      tag_219\n      tag_95\n      jump\t// in\n    tag_219:\n        /* \"#utility.yul\":8652:8764   */\n    tag_218:\n        /* \"#utility.yul\":8773:8827   */\n      tag_220\n        /* \"#utility.yul\":8820:8826   */\n      dup5\n        /* \"#utility.yul\":8815:8818   */\n      dup3\n        /* \"#utility.yul\":8810:8813   */\n      dup6\n        /* \"#utility.yul\":8773:8827   */\n      tag_100\n      jump\t// in\n    tag_220:\n        /* \"#utility.yul\":8492:8833   */\n      pop\n        /* \"#utility.yul\":8408:8833   */\n      swap4\n      swap3\n      pop\n      pop\n      pop\n      jump\t// out\n        /* \"#utility.yul\":8853:9193   */\n    tag_102:\n        /* \"#utility.yul\":8909:8914   */\n      0x00\n        /* \"#utility.yul\":8958:8961   */\n      dup3\n        /* \"#utility.yul\":8951:8955   */\n      0x1f\n        /* \"#utility.yul\":8943:8949   */\n      dup4\n        /* \"#utility.yul\":8939:8956   */\n      add\n        /* \"#utility.yul\":8935:8962   */\n      slt\n        /* \"#utility.yul\":8925:9047   */\n      tag_222\n      jumpi\n        /* \"#utility.yul\":8966:9045   */\n      tag_223\n      tag_88\n      jump\t// in\n    tag_223:\n        /* \"#utility.yul\":8925:9047   */\n    tag_222:\n        /* \"#utility.yul\":9083:9089   */\n      dup2\n        /* \"#utility.yul\":9070:9090   */\n      calldataload\n        /* \"#utility.yul\":9108:9187   */\n      tag_224\n        /* \"#utility.yul\":9183:9186   */\n      dup5\n        /* \"#utility.yul\":9175:9181   */\n      dup3\n        /* \"#utility.yul\":9168:9172   */\n      0x20\n        /* \"#utility.yul\":9160:9166   */\n      dup7\n        /* \"#utility.yul\":9156:9173   */\n      add\n        /* \"#utility.yul\":9108:9187   */\n      tag_101\n      jump\t// in\n    tag_224:\n        /* \"#utility.yul\":9099:9187   */\n      swap2\n      pop\n        /* \"#utility.yul\":8915:9193   */\n      pop\n        /* \"#utility.yul\":8853:9193   */\n      swap3\n      swap2\n      pop\n      pop\n      jump\t// out\n        /* \"#utility.yul\":9199:9708   */\n    tag_26:\n        /* \"#utility.yul\":9268:9274   */\n      0x00\n        /* \"#utility.yul\":9317:9319   */\n      0x20\n        /* \"#utility.yul\":9305:9314   */\n      dup3\n        /* \"#utility.yul\":9296:9303   */\n      dup5\n        /* \"#utility.yul\":9292:9315   */\n      sub\n        /* \"#utility.yul\":9288:9320   */\n      slt\n        /* \"#utility.yul\":9285:9404   */\n      iszero\n      tag_226\n      jumpi\n        /* \"#utility.yul\":9323:9402   */\n      tag_227\n      tag_81\n      jump\t// in\n    tag_227:\n        /* \"#utility.yul\":9285:9404   */\n    tag_226:\n        /* \"#utility.yul\":9471:9472   */\n      0x00\n        /* \"#utility.yul\":9460:9469   */\n      dup3\n        /* \"#utility.yul\":9456:9473   */\n      add\n        /* \"#utility.yul\":9443:9474   */\n      calldataload\n        /* \"#utility.yul\":9501:9519   */\n      0xffffffffffffffff\n        /* \"#utility.yul\":9493:9499   */\n      dup2\n        /* \"#utility.yul\":9490:9520   */\n      gt\n        /* \"#utility.yul\":9487:9604   */\n      iszero\n      tag_228\n      jumpi\n        /* \"#utility.yul\":9523:9602   */\n      tag_229\n      tag_82\n      jump\t// in\n    tag_229:\n        /* \"#utility.yul\":9487:9604   */\n    tag_228:\n        /* \"#utility.yul\":9628:9691   */\n      tag_230\n        /* \"#utility.yul\":9683:9690   */\n      dup5\n        /* \"#utility.yul\":9674:9680   */\n      dup3\n        /* \"#utility.yul\":9663:9672   */\n      dup6\n        /* \"#utility.yul\":9659:9681   */\n      add\n        /* \"#utility.yul\":9628:9691   */\n      tag_102\n      jump\t// in\n    tag_230:\n        /* \"#utility.yul\":9618:9691   */\n      swap2\n      pop\n        /* \"#utility.yul\":9414:9701   */\n      pop\n        /* \"#utility.yul\":9199:9708   */\n      swap3\n      swap2\n      pop\n      pop\n      jump\t// out\n        /* \"#utility.yul\":9714:9836   */\n    tag_103:\n        /* \"#utility.yul\":9787:9811   */\n      tag_232\n        /* \"#utility.yul\":9805:9810   */\n      dup2\n        /* \"#utility.yul\":9787:9811   */\n      tag_93\n      jump\t// in\n    tag_232:\n        /* \"#utility.yul\":9780:9785   */\n      dup2\n        /* \"#utility.yul\":9777:9812   */\n      eq\n        /* \"#utility.yul\":9767:9830   */\n      tag_233\n      jumpi\n        /* \"#utility.yul\":9826:9827   */\n      0x00\n        /* \"#utility.yul\":9823:9824   */\n      dup1\n        /* \"#utility.yul\":9816:9828   */\n      revert\n        /* \"#utility.yul\":9767:9830   */\n    tag_233:\n        /* \"#utility.yul\":9714:9836   */\n      pop\n      jump\t// out\n        /* \"#utility.yul\":9842:9981   */\n    tag_104:\n        /* \"#utility.yul\":9888:9893   */\n      0x00\n        /* \"#utility.yul\":9926:9932   */\n      dup2\n        /* \"#utility.yul\":9913:9933   */\n      calldataload\n        /* \"#utility.yul\":9904:9933   */\n      swap1\n      pop\n        /* \"#utility.yul\":9942:9975   */\n      tag_235\n        /* \"#utility.yul\":9969:9974   */\n      dup2\n        /* \"#utility.yul\":9942:9975   */\n      tag_103\n      jump\t// in\n    tag_235:\n        /* \"#utility.yul\":9842:9981   */\n      swap3\n      swap2\n      pop\n      pop\n      jump\t// out\n        /* \"#utility.yul\":9987:10661   */\n    tag_31:\n        /* \"#utility.yul\":10067:10073   */\n      0x00\n        /* \"#utility.yul\":10075:10081   */\n      dup1\n        /* \"#utility.yul\":10083:10089   */\n      0x00\n        /* \"#utility.yul\":10132:10134   */\n      0x40\n        /* \"#utility.yul\":10120:10129   */\n      dup5\n        /* \"#utility.yul\":10111:10118   */\n      dup7\n        /* \"#utility.yul\":10107:10130   */\n      sub\n        /* \"#utility.yul\":10103:10135   */\n      slt\n        /* \"#utility.yul\":10100:10219   */\n      iszero\n      tag_237\n      jumpi\n        /* \"#utility.yul\":10138:10217   */\n      tag_238\n      tag_81\n      jump\t// in\n    tag_238:\n        /* \"#utility.yul\":10100:10219   */\n    tag_237:\n        /* \"#utility.yul\":10286:10287   */\n      0x00\n        /* \"#utility.yul\":10275:10284   */\n      dup5\n        /* \"#utility.yul\":10271:10288   */\n      add\n        /* \"#utility.yul\":10258:10289   */\n      calldataload\n        /* \"#utility.yul\":10316:10334   */\n      0xffffffffffffffff\n        /* \"#utility.yul\":10308:10314   */\n      dup2\n        /* \"#utility.yul\":10305:10335   */\n      gt\n        /* \"#utility.yul\":10302:10419   */\n      iszero\n      tag_239\n      jumpi\n        /* \"#utility.yul\":10338:10417   */\n      tag_240\n      tag_82\n      jump\t// in\n    tag_240:\n        /* \"#utility.yul\":10302:10419   */\n    tag_239:\n        /* \"#utility.yul\":10451:10516   */\n      tag_241\n        /* \"#utility.yul\":10508:10515   */\n      dup7\n        /* \"#utility.yul\":10499:10505   */\n      dup3\n        /* \"#utility.yul\":10488:10497   */\n      dup8\n        /* \"#utility.yul\":10484:10506   */\n      add\n        /* \"#utility.yul\":10451:10516   */\n      tag_91\n      jump\t// in\n    tag_241:\n        /* \"#utility.yul\":10433:10516   */\n      swap4\n      pop\n      swap4\n      pop\n        /* \"#utility.yul\":10229:10526   */\n      pop\n        /* \"#utility.yul\":10565:10567   */\n      0x20\n        /* \"#utility.yul\":10591:10644   */\n      tag_242\n        /* \"#utility.yul\":10636:10643   */\n      dup7\n        /* \"#utility.yul\":10627:10633   */\n      dup3\n        /* \"#utility.yul\":10616:10625   */\n      dup8\n        /* \"#utility.yul\":10612:10634   */\n      add\n        /* \"#utility.yul\":10591:10644   */\n      tag_104\n      jump\t// in\n    tag_242:\n        /* \"#utility.yul\":10581:10644   */\n      swap2\n      pop\n        /* \"#utility.yul\":10536:10654   */\n      pop\n        /* \"#utility.yul\":9987:10661   */\n      swap3\n      pop\n      swap3\n      pop\n      swap3\n      jump\t// out\n        /* \"#utility.yul\":10667:10847   */\n    tag_105:\n        /* \"#utility.yul\":10715:10792   */\n      0x4e487b7100000000000000000000000000000000000000000000000000000000\n        /* \"#utility.yul\":10712:10713   */\n      0x00\n        /* \"#utility.yul\":10705:10793   */\n      mstore\n        /* \"#utility.yul\":10812:10816   */\n      0x22\n        /* \"#utility.yul\":10809:10810   */\n      0x04\n        /* \"#utility.yul\":10802:10817   */\n      mstore\n        /* \"#utility.yul\":10836:10840   */\n      0x24\n        /* \"#utility.yul\":10833:10834   */\n      0x00\n        /* \"#utility.yul\":10826:10841   */\n      revert\n        /* \"#utility.yul\":10853:11173   */\n    tag_38:\n        /* \"#utility.yul\":10897:10903   */\n      0x00\n        /* \"#utility.yul\":10934:10935   */\n      0x02\n        /* \"#utility.yul\":10928:10932   */\n      dup3\n        /* \"#utility.yul\":10924:10936   */\n      div\n        /* \"#utility.yul\":10914:10936   */\n      swap1\n      pop\n        /* \"#utility.yul\":10981:10982   */\n      0x01\n        /* \"#utility.yul\":10975:10979   */\n      dup3\n        /* \"#utility.yul\":10971:10983   */\n      and\n        /* \"#utility.yul\":11002:11020   */\n      dup1\n        /* \"#utility.yul\":10992:11073   */\n      tag_245\n      jumpi\n        /* \"#utility.yul\":11058:11062   */\n      0x7f\n        /* \"#utility.yul\":11050:11056   */\n      dup3\n        /* \"#utility.yul\":11046:11063   */\n      and\n        /* \"#utility.yul\":11036:11063   */\n      swap2\n      pop\n        /* \"#utility.yul\":10992:11073   */\n    tag_245:\n        /* \"#utility.yul\":11120:11122   */\n      0x20\n        /* \"#utility.yul\":11112:11118   */\n      dup3\n        /* \"#utility.yul\":11109:11123   */\n      lt\n        /* \"#utility.yul\":11089:11107   */\n      dup2\n        /* \"#utility.yul\":11086:11124   */\n      sub\n        /* \"#utility.yul\":11083:11167   */\n      tag_246\n      jumpi\n        /* \"#utility.yul\":11139:11157   */\n      tag_247\n      tag_105\n      jump\t// in\n    tag_247:\n        /* \"#utility.yul\":11083:11167   */\n    tag_246:\n        /* \"#utility.yul\":10904:11173   */\n      pop\n        /* \"#utility.yul\":10853:11173   */\n      swap2\n      swap1\n      pop\n      jump\t// out\n        /* \"#utility.yul\":11179:11327   */\n    tag_106:\n        /* \"#utility.yul\":11281:11292   */\n      0x00\n        /* \"#utility.yul\":11318:11321   */\n      dup2\n        /* \"#utility.yul\":11303:11321   */\n      swap1\n      pop\n        /* \"#utility.yul\":11179:11327   */\n      swap3\n      swap2\n      pop\n      pop\n      jump\t// out\n        /* \"#utility.yul\":11357:11687   */\n    tag_107:\n        /* \"#utility.yul\":11473:11476   */\n      0x00\n        /* \"#utility.yul\":11494:11583   */\n      tag_250\n        /* \"#utility.yul\":11576:11582   */\n      dup4\n        /* \"#utility.yul\":11571:11574   */\n      dup6\n        /* \"#utility.yul\":11494:11583   */\n      tag_106\n      jump\t// in\n    tag_250:\n        /* \"#utility.yul\":11487:11583   */\n      swap4\n      pop\n        /* \"#utility.yul\":11593:11649   */\n      tag_251\n        /* \"#utility.yul\":11642:11648   */\n      dup4\n        /* \"#utility.yul\":11637:11640   */\n      dup6\n        /* \"#utility.yul\":11630:11635   */\n      dup5\n        /* \"#utility.yul\":11593:11649   */\n      tag_100\n      jump\t// in\n    tag_251:\n        /* \"#utility.yul\":11674:11680   */\n      dup3\n        /* \"#utility.yul\":11669:11672   */\n      dup5\n        /* \"#utility.yul\":11665:11681   */\n      add\n        /* \"#utility.yul\":11658:11681   */\n      swap1\n      pop\n        /* \"#utility.yul\":11357:11687   */\n      swap4\n      swap3\n      pop\n      pop\n      pop\n      jump\t// out\n        /* \"#utility.yul\":11693:11988   */\n    tag_52:\n        /* \"#utility.yul\":11835:11838   */\n      0x00\n        /* \"#utility.yul\":11857:11962   */\n      tag_253\n        /* \"#utility.yul\":11958:11961   */\n      dup3\n        /* \"#utility.yul\":11949:11955   */\n      dup5\n        /* \"#utility.yul\":11941:11947   */\n      dup7\n        /* \"#utility.yul\":11857:11962   */\n      tag_107\n      jump\t// in\n    tag_253:\n        /* \"#utility.yul\":11850:11962   */\n      swap2\n      pop\n        /* \"#utility.yul\":11979:11982   */\n      dup2\n        /* \"#utility.yul\":11972:11982   */\n      swap1\n      pop\n        /* \"#utility.yul\":11693:11988   */\n      swap4\n      swap3\n      pop\n      pop\n      pop\n      jump\t// out\n        /* \"#utility.yul\":11994:12173   */\n    tag_108:\n        /* \"#utility.yul\":12134:12165   */\n      0x506f6f6c20666f722074686520746f6b656e2069732063726561746564000000\n        /* \"#utility.yul\":12130:12131   */\n      0x00\n        /* \"#utility.yul\":12122:12128   */\n      dup3\n        /* \"#utility.yul\":12118:12132   */\n      add\n        /* \"#utility.yul\":12111:12166   */\n      mstore\n        /* \"#utility.yul\":11994:12173   */\n      pop\n      jump\t// out\n        /* \"#utility.yul\":12179:12545   */\n    tag_109:\n        /* \"#utility.yul\":12321:12324   */\n      0x00\n        /* \"#utility.yul\":12342:12409   */\n      tag_256\n        /* \"#utility.yul\":12406:12408   */\n      0x1d\n        /* \"#utility.yul\":12401:12404   */\n      dup4\n        /* \"#utility.yul\":12342:12409   */\n      tag_86\n      jump\t// in\n    tag_256:\n        /* \"#utility.yul\":12335:12409   */\n      swap2\n      pop\n        /* \"#utility.yul\":12418:12511   */\n      tag_257\n        /* \"#utility.yul\":12507:12510   */\n      dup3\n        /* \"#utility.yul\":12418:12511   */\n      tag_108\n      jump\t// in\n    tag_257:\n        /* \"#utility.yul\":12536:12538   */\n      0x20\n        /* \"#utility.yul\":12531:12534   */\n      dup3\n        /* \"#utility.yul\":12527:12539   */\n      add\n        /* \"#utility.yul\":12520:12539   */\n      swap1\n      pop\n        /* \"#utility.yul\":12179:12545   */\n      swap2\n      swap1\n      pop\n      jump\t// out\n        /* \"#utility.yul\":12551:12970   */\n    tag_57:\n        /* \"#utility.yul\":12717:12721   */\n      0x00\n        /* \"#utility.yul\":12755:12757   */\n      0x20\n        /* \"#utility.yul\":12744:12753   */\n      dup3\n        /* \"#utility.yul\":12740:12758   */\n      add\n        /* \"#utility.yul\":12732:12758   */\n      swap1\n      pop\n        /* \"#utility.yul\":12804:12813   */\n      dup2\n        /* \"#utility.yul\":12798:12802   */\n      dup2\n        /* \"#utility.yul\":12794:12814   */\n      sub\n        /* \"#utility.yul\":12790:12791   */\n      0x00\n        /* \"#utility.yul\":12779:12788   */\n      dup4\n        /* \"#utility.yul\":12775:12792   */\n      add\n        /* \"#utility.yul\":12768:12815   */\n      mstore\n        /* \"#utility.yul\":12832:12963   */\n      tag_259\n        /* \"#utility.yul\":12958:12962   */\n      dup2\n        /* \"#utility.yul\":12832:12963   */\n      tag_109\n      jump\t// in\n    tag_259:\n        /* \"#utility.yul\":12824:12963   */\n      swap1\n      pop\n        /* \"#utility.yul\":12551:12970   */\n      swap2\n      swap1\n      pop\n      jump\t// out\n        /* \"#utility.yul\":13000:13317   */\n    tag_110:\n        /* \"#utility.yul\":13098:13101   */\n      0x00\n        /* \"#utility.yul\":13119:13190   */\n      tag_261\n        /* \"#utility.yul\":13183:13189   */\n      dup4\n        /* \"#utility.yul\":13178:13181   */\n      dup6\n        /* \"#utility.yul\":13119:13190   */\n      tag_86\n      jump\t// in\n    tag_261:\n        /* \"#utility.yul\":13112:13190   */\n      swap4\n      pop\n        /* \"#utility.yul\":13200:13256   */\n      tag_262\n        /* \"#utility.yul\":13249:13255   */\n      dup4\n        /* \"#utility.yul\":13244:13247   */\n      dup6\n        /* \"#utility.yul\":13237:13242   */\n      dup5\n        /* \"#utility.yul\":13200:13256   */\n      tag_100\n      jump\t// in\n    tag_262:\n        /* \"#utility.yul\":13281:13310   */\n      tag_263\n        /* \"#utility.yul\":13303:13309   */\n      dup4\n        /* \"#utility.yul\":13281:13310   */\n      tag_75\n      jump\t// in\n    tag_263:\n        /* \"#utility.yul\":13276:13279   */\n      dup5\n        /* \"#utility.yul\":13272:13311   */\n      add\n        /* \"#utility.yul\":13265:13311   */\n      swap1\n      pop\n        /* \"#utility.yul\":13000:13317   */\n      swap4\n      swap3\n      pop\n      pop\n      pop\n      jump\t// out\n        /* \"#utility.yul\":13323:13766   */\n    tag_62:\n        /* \"#utility.yul\":13474:13478   */\n      0x00\n        /* \"#utility.yul\":13512:13514   */\n      0x40\n        /* \"#utility.yul\":13501:13510   */\n      dup3\n        /* \"#utility.yul\":13497:13515   */\n      add\n        /* \"#utility.yul\":13489:13515   */\n      swap1\n      pop\n        /* \"#utility.yul\":13561:13570   */\n      dup2\n        /* \"#utility.yul\":13555:13559   */\n      dup2\n        /* \"#utility.yul\":13551:13571   */\n      sub\n        /* \"#utility.yul\":13547:13548   */\n      0x00\n        /* \"#utility.yul\":13536:13545   */\n      dup4\n        /* \"#utility.yul\":13532:13549   */\n      add\n        /* \"#utility.yul\":13525:13572   */\n      mstore\n        /* \"#utility.yul\":13589:13677   */\n      tag_265\n        /* \"#utility.yul\":13672:13676   */\n      dup2\n        /* \"#utility.yul\":13663:13669   */\n      dup6\n        /* \"#utility.yul\":13655:13661   */\n      dup8\n        /* \"#utility.yul\":13589:13677   */\n      tag_110\n      jump\t// in\n    tag_265:\n        /* \"#utility.yul\":13581:13677   */\n      swap1\n      pop\n        /* \"#utility.yul\":13687:13759   */\n      tag_266\n        /* \"#utility.yul\":13755:13757   */\n      0x20\n        /* \"#utility.yul\":13744:13753   */\n      dup4\n        /* \"#utility.yul\":13740:13758   */\n      add\n        /* \"#utility.yul\":13731:13737   */\n      dup5\n        /* \"#utility.yul\":13687:13759   */\n      tag_94\n      jump\t// in\n    tag_266:\n        /* \"#utility.yul\":13323:13766   */\n      swap5\n      swap4\n      pop\n      pop\n      pop\n      pop\n      jump\t// out\n        /* \"#utility.yul\":13772:13869   */\n    tag_111:\n        /* \"#utility.yul\":13831:13837   */\n      0x00\n        /* \"#utility.yul\":13859:13862   */\n      dup3\n        /* \"#utility.yul\":13849:13862   */\n      swap1\n      pop\n        /* \"#utility.yul\":13772:13869   */\n      swap3\n      swap2\n      pop\n      pop\n      jump\t// out\n        /* \"#utility.yul\":13875:14016   */\n    tag_112:\n        /* \"#utility.yul\":13924:13928   */\n      0x00\n        /* \"#utility.yul\":13947:13950   */\n      dup2\n        /* \"#utility.yul\":13939:13950   */\n      swap1\n      pop\n        /* \"#utility.yul\":13970:13973   */\n      dup2\n        /* \"#utility.yul\":13967:13968   */\n      0x00\n        /* \"#utility.yul\":13960:13974   */\n      mstore\n        /* \"#utility.yul\":14004:14008   */\n      0x20\n        /* \"#utility.yul\":14001:14002   */\n      0x00\n        /* \"#utility.yul\":13991:14009   */\n      keccak256\n        /* \"#utility.yul\":13983:14009   */\n      swap1\n      pop\n        /* \"#utility.yul\":13875:14016   */\n      swap2\n      swap1\n      pop\n      jump\t// out\n        /* \"#utility.yul\":14022:14115   */\n    tag_113:\n        /* \"#utility.yul\":14059:14065   */\n      0x00\n        /* \"#utility.yul\":14106:14108   */\n      0x20\n        /* \"#utility.yul\":14101:14103   */\n      0x1f\n        /* \"#utility.yul\":14094:14099   */\n      dup4\n        /* \"#utility.yul\":14090:14104   */\n      add\n        /* \"#utility.yul\":14086:14109   */\n      div\n        /* \"#utility.yul\":14076:14109   */\n      swap1\n      pop\n        /* \"#utility.yul\":14022:14115   */\n      swap2\n      swap1\n      pop\n      jump\t// out\n        /* \"#utility.yul\":14121:14228   */\n    tag_114:\n        /* \"#utility.yul\":14165:14173   */\n      0x00\n        /* \"#utility.yul\":14215:14220   */\n      dup3\n        /* \"#utility.yul\":14209:14213   */\n      dup3\n        /* \"#utility.yul\":14205:14221   */\n      shl\n        /* \"#utility.yul\":14184:14221   */\n      swap1\n      pop\n        /* \"#utility.yul\":14121:14228   */\n      swap3\n      swap2\n      pop\n      pop\n      jump\t// out\n        /* \"#utility.yul\":14234:14627   */\n    tag_115:\n        /* \"#utility.yul\":14303:14309   */\n      0x00\n        /* \"#utility.yul\":14353:14354   */\n      0x08\n        /* \"#utility.yul\":14341:14351   */\n      dup4\n        /* \"#utility.yul\":14337:14355   */\n      mul\n        /* \"#utility.yul\":14376:14473   */\n      tag_272\n        /* \"#utility.yul\":14406:14472   */\n      0xffffffffffffffffffffffffffffffffffffffffffffffffffffffffffffffff\n        /* \"#utility.yul\":14395:14404   */\n      dup3\n        /* \"#utility.yul\":14376:14473   */\n      tag_114\n      jump\t// in\n    tag_272:\n        /* \"#utility.yul\":14494:14533   */\n      tag_273\n        /* \"#utility.yul\":14524:14532   */\n      dup7\n        /* \"#utility.yul\":14513:14522   */\n      dup4\n        /* \"#utility.yul\":14494:14533   */\n      tag_114\n      jump\t// in\n    tag_273:\n        /* \"#utility.yul\":14482:14533   */\n      swap6\n      pop\n        /* \"#utility.yul\":14566:14570   */\n      dup1\n        /* \"#utility.yul\":14562:14571   */\n      not\n        /* \"#utility.yul\":14555:14560   */\n      dup5\n        /* \"#utility.yul\":14551:14572   */\n      and\n        /* \"#utility.yul\":14542:14572   */\n      swap4\n      pop\n        /* \"#utility.yul\":14615:14619   */\n      dup1\n        /* \"#utility.yul\":14605:14613   */\n      dup7\n        /* \"#utility.yul\":14601:14620   */\n      and\n        /* \"#utility.yul\":14594:14599   */\n      dup5\n        /* \"#utility.yul\":14591:14621   */\n      or\n        /* \"#utility.yul\":14581:14621   */\n      swap3\n      pop\n        /* \"#utility.yul\":14310:14627   */\n      pop\n      pop\n        /* \"#utility.yul\":14234:14627   */\n      swap4\n      swap3\n      pop\n      pop\n      pop\n      jump\t// out\n        /* \"#utility.yul\":14633:14693   */\n    tag_116:\n        /* \"#utility.yul\":14661:14664   */\n      0x00\n        /* \"#utility.yul\":14682:14687   */\n      dup2\n        /* \"#utility.yul\":14675:14687   */\n      swap1\n      pop\n        /* \"#utility.yul\":14633:14693   */\n      swap2\n      swap1\n      pop\n      jump\t// out\n        /* \"#utility.yul\":14699:14841   */\n    tag_117:\n        /* \"#utility.yul\":14749:14758   */\n      0x00\n        /* \"#utility.yul\":14782:14835   */\n      tag_276\n        /* \"#utility.yul\":14800:14834   */\n      tag_277\n        /* \"#utility.yul\":14809:14833   */\n      tag_278\n        /* \"#utility.yul\":14827:14832   */\n      dup5\n        /* \"#utility.yul\":14809:14833   */\n      tag_83\n      jump\t// in\n    tag_278:\n        /* \"#utility.yul\":14800:14834   */\n      tag_116\n      jump\t// in\n    tag_277:\n        /* \"#utility.yul\":14782:14835   */\n      tag_83\n      jump\t// in\n    tag_276:\n        /* \"#utility.yul\":14769:14835   */\n      swap1\n      pop\n        /* \"#utility.yul\":14699:14841   */\n      swap2\n      swap1\n      pop\n      jump\t// out\n        /* \"#utility.yul\":14847:14922   */\n    tag_118:\n        /* \"#utility.yul\":14890:14893   */\n      0x00\n        /* \"#utility.yul\":14911:14916   */\n      dup2\n        /* \"#utility.yul\":14904:14916   */\n      swap1\n      pop\n        /* \"#utility.yul\":14847:14922   */\n      swap2\n      swap1\n      pop\n      jump\t// out\n        /* \"#utility.yul\":14928:15197   */\n    tag_119:\n        /* \"#utility.yul\":15038:15077   */\n      tag_281\n        /* \"#utility.yul\":15069:15076   */\n      dup4\n        /* \"#utility.yul\":15038:15077   */\n      tag_117\n      jump\t// in\n    tag_281:\n        /* \"#utility.yul\":15099:15190   */\n      tag_282\n        /* \"#utility.yul\":15148:15189   */\n      tag_283\n        /* \"#utility.yul\":15172:15188   */\n      dup3\n        /* \"#utility.yul\":15148:15189   */\n      tag_118\n      jump\t// in\n    tag_283:\n        /* \"#utility.yul\":15140:15146   */\n      dup5\n        /* \"#utility.yul\":15133:15137   */\n      dup5\n        /* \"#utility.yul\":15127:15138   */\n      sload\n        /* \"#utility.yul\":15099:15190   */\n      tag_115\n      jump\t// in\n    tag_282:\n        /* \"#utility.yul\":15093:15097   */\n      dup3\n        /* \"#utility.yul\":15086:15191   */\n      sstore\n        /* \"#utility.yul\":15004:15197   */\n      pop\n        /* \"#utility.yul\":14928:15197   */\n      pop\n      pop\n      pop\n      jump\t// out\n        /* \"#utility.yul\":15203:15276   */\n    tag_120:\n        /* \"#utility.yul\":15248:15251   */\n      0x00\n        /* \"#utility.yul\":15203:15276   */\n      swap1\n      jump\t// out\n        /* \"#utility.yul\":15282:15471   */\n    tag_121:\n        /* \"#utility.yul\":15359:15391   */\n      tag_286\n      tag_120\n      jump\t// in\n    tag_286:\n        /* \"#utility.yul\":15400:15465   */\n      tag_287\n        /* \"#utility.yul\":15458:15464   */\n      dup2\n        /* \"#utility.yul\":15450:15456   */\n      dup5\n        /* \"#utility.yul\":15444:15448   */\n      dup5\n        /* \"#utility.yul\":15400:15465   */\n      tag_119\n      jump\t// in\n    tag_287:\n        /* \"#utility.yul\":15335:15471   */\n      pop\n        /* \"#utility.yul\":15282:15471   */\n      pop\n      pop\n      jump\t// out\n        /* \"#utility.yul\":15477:15663   */\n    tag_122:\n        /* \"#utility.yul\":15537:15657   */\n    tag_289:\n        /* \"#utility.yul\":15554:15557   */\n      dup2\n        /* \"#utility.yul\":15547:15552   */\n      dup2\n        /* \"#utility.yul\":15544:15558   */\n      lt\n        /* \"#utility.yul\":15537:15657   */\n      iszero\n      tag_291\n      jumpi\n        /* \"#utility.yul\":15608:15647   */\n      tag_292\n        /* \"#utility.yul\":15645:15646   */\n      0x00\n        /* \"#utility.yul\":15638:15643   */\n      dup3\n        /* \"#utility.yul\":15608:15647   */\n      tag_121\n      jump\t// in\n    tag_292:\n        /* \"#utility.yul\":15581:15582   */\n      0x01\n        /* \"#utility.yul\":15574:15579   */\n      dup2\n        /* \"#utility.yul\":15570:15583   */\n      add\n        /* \"#utility.yul\":15561:15583   */\n      swap1\n      pop\n        /* \"#utility.yul\":15537:15657   */\n      jump(tag_289)\n    tag_291:\n        /* \"#utility.yul\":15477:15663   */\n      pop\n      pop\n      jump\t// out\n        /* \"#utility.yul\":15669:16212   */\n    tag_123:\n        /* \"#utility.yul\":15770:15772   */\n      0x1f\n        /* \"#utility.yul\":15765:15768   */\n      dup3\n        /* \"#utility.yul\":15762:15773   */\n      gt\n        /* \"#utility.yul\":15759:16205   */\n      iszero\n      tag_294\n      jumpi\n        /* \"#utility.yul\":15804:15842   */\n      tag_295\n        /* \"#utility.yul\":15836:15841   */\n      dup2\n        /* \"#utility.yul\":15804:15842   */\n      tag_112\n      jump\t// in\n    tag_295:\n        /* \"#utility.yul\":15888:15917   */\n      tag_296\n        /* \"#utility.yul\":15906:15916   */\n      dup5\n        /* \"#utility.yul\":15888:15917   */\n      tag_113\n      jump\t// in\n    tag_296:\n        /* \"#utility.yul\":15878:15886   */\n      dup2\n        /* \"#utility.yul\":15874:15918   */\n      add\n        /* \"#utility.yul\":16071:16073   */\n      0x20\n        /* \"#utility.yul\":16059:16069   */\n      dup6\n        /* \"#utility.yul\":16056:16074   */\n      lt\n        /* \"#utility.yul\":16053:16102   */\n      iszero\n      tag_297\n      jumpi\n        /* \"#utility.yul\":16092:16100   */\n      dup2\n        /* \"#utility.yul\":16077:16100   */\n      swap1\n      pop\n        /* \"#utility.yul\":16053:16102   */\n    tag_297:\n        /* \"#utility.yul\":16115:16195   */\n      tag_298\n        /* \"#utility.yul\":16171:16193   */\n      tag_299\n        /* \"#utility.yul\":16189:16192   */\n      dup6\n        /* \"#utility.yul\":16171:16193   */\n      tag_113\n      jump\t// in\n    tag_299:\n        /* \"#utility.yul\":16161:16169   */\n      dup4\n        /* \"#utility.yul\":16157:16194   */\n      add\n        /* \"#utility.yul\":16144:16155   */\n      dup3\n        /* \"#utility.yul\":16115:16195   */\n      tag_122\n      jump\t// in\n    tag_298:\n        /* \"#utility.yul\":15774:16205   */\n      pop\n      pop\n        /* \"#utility.yul\":15759:16205   */\n    tag_294:\n        /* \"#utility.yul\":15669:16212   */\n      pop\n      pop\n      pop\n      jump\t// out\n        /* \"#utility.yul\":16218:16335   */\n    tag_124:\n        /* \"#utility.yul\":16272:16280   */\n      0x00\n        /* \"#utility.yul\":16322:16327   */\n      dup3\n        /* \"#utility.yul\":16316:16320   */\n      dup3\n        /* \"#utility.yul\":16312:16328   */\n      shr\n        /* \"#utility.yul\":16291:16328   */\n      swap1\n      pop\n        /* \"#utility.yul\":16218:16335   */\n      swap3\n      swap2\n      pop\n      pop\n      jump\t// out\n        /* \"#utility.yul\":16341:16510   */\n    tag_125:\n        /* \"#utility.yul\":16385:16391   */\n      0x00\n        /* \"#utility.yul\":16418:16469   */\n      tag_302\n        /* \"#utility.yul\":16466:16467   */\n      0x00\n        /* \"#utility.yul\":16462:16468   */\n      not\n        /* \"#utility.yul\":16454:16459   */\n      dup5\n        /* \"#utility.yul\":16451:16452   */\n      0x08\n        /* \"#utility.yul\":16447:16460   */\n      mul\n        /* \"#utility.yul\":16418:16469   */\n      tag_124\n      jump\t// in\n    tag_302:\n        /* \"#utility.yul\":16414:16470   */\n      not\n        /* \"#utility.yul\":16499:16503   */\n      dup1\n        /* \"#utility.yul\":16493:16497   */\n      dup4\n        /* \"#utility.yul\":16489:16504   */\n      and\n        /* \"#utility.yul\":16479:16504   */\n      swap2\n      pop\n        /* \"#utility.yul\":16392:16510   */\n      pop\n        /* \"#utility.yul\":16341:16510   */\n      swap3\n      swap2\n      pop\n      pop\n      jump\t// out\n        /* \"#utility.yul\":16515:16810   */\n    tag_126:\n        /* \"#utility.yul\":16591:16595   */\n      0x00\n        /* \"#utility.yul\":16737:16766   */\n      tag_304\n        /* \"#utility.yul\":16762:16765   */\n      dup4\n        /* \"#utility.yul\":16756:16760   */\n      dup4\n        /* \"#utility.yul\":16737:16766   */\n      tag_125\n      jump\t// in\n    tag_304:\n        /* \"#utility.yul\":16729:16766   */\n      swap2\n      pop\n        /* \"#utility.yul\":16799:16802   */\n      dup3\n        /* \"#utility.yul\":16796:16797   */\n      0x02\n        /* \"#utility.yul\":16792:16803   */\n      mul\n        /* \"#utility.yul\":16786:16790   */\n      dup3\n        /* \"#utility.yul\":16783:16804   */\n      or\n        /* \"#utility.yul\":16775:16804   */\n      swap1\n      pop\n        /* \"#utility.yul\":16515:16810   */\n      swap3\n      swap2\n      pop\n      pop\n      jump\t// out\n        /* \"#utility.yul\":16815:18218   */\n    tag_67:\n        /* \"#utility.yul\":16939:16983   */\n      tag_306\n        /* \"#utility.yul\":16979:16982   */\n      dup4\n        /* \"#utility.yul\":16974:16977   */\n      dup4\n        /* \"#utility.yul\":16939:16983   */\n      tag_111\n      jump\t// in\n    tag_306:\n        /* \"#utility.yul\":17048:17066   */\n      0xffffffffffffffff\n        /* \"#utility.yul\":17040:17046   */\n      dup2\n        /* \"#utility.yul\":17037:17067   */\n      gt\n        /* \"#utility.yul\":17034:17090   */\n      iszero\n      tag_307\n      jumpi\n        /* \"#utility.yul\":17070:17088   */\n      tag_308\n      tag_96\n      jump\t// in\n    tag_308:\n        /* \"#utility.yul\":17034:17090   */\n    tag_307:\n        /* \"#utility.yul\":17114:17152   */\n      tag_309\n        /* \"#utility.yul\":17146:17150   */\n      dup3\n        /* \"#utility.yul\":17140:17151   */\n      sload\n        /* \"#utility.yul\":17114:17152   */\n      tag_38\n      jump\t// in\n    tag_309:\n        /* \"#utility.yul\":17199:17266   */\n      tag_310\n        /* \"#utility.yul\":17259:17265   */\n      dup3\n        /* \"#utility.yul\":17251:17257   */\n      dup3\n        /* \"#utility.yul\":17245:17249   */\n      dup6\n        /* \"#utility.yul\":17199:17266   */\n      tag_123\n      jump\t// in\n    tag_310:\n        /* \"#utility.yul\":17293:17294   */\n      0x00\n        /* \"#utility.yul\":17322:17324   */\n      0x1f\n        /* \"#utility.yul\":17314:17320   */\n      dup4\n        /* \"#utility.yul\":17311:17325   */\n      gt\n        /* \"#utility.yul\":17339:17340   */\n      0x01\n        /* \"#utility.yul\":17334:17966   */\n      dup2\n      eq\n      tag_312\n      jumpi\n        /* \"#utility.yul\":18010:18011   */\n      0x00\n        /* \"#utility.yul\":18027:18033   */\n      dup5\n        /* \"#utility.yul\":18024:18108   */\n      iszero\n      tag_313\n      jumpi\n        /* \"#utility.yul\":18083:18092   */\n      dup3\n        /* \"#utility.yul\":18078:18081   */\n      dup8\n        /* \"#utility.yul\":18074:18093   */\n      add\n        /* \"#utility.yul\":18061:18094   */\n      calldataload\n        /* \"#utility.yul\":18052:18094   */\n      swap1\n      pop\n        /* \"#utility.yul\":18024:18108   */\n    tag_313:\n        /* \"#utility.yul\":18134:18201   */\n      tag_314\n        /* \"#utility.yul\":18194:18200   */\n      dup6\n        /* \"#utility.yul\":18187:18192   */\n      dup3\n        /* \"#utility.yul\":18134:18201   */\n      tag_126\n      jump\t// in\n    tag_314:\n        /* \"#utility.yul\":18128:18132   */\n      dup7\n        /* \"#utility.yul\":18121:18202   */\n      sstore\n        /* \"#utility.yul\":17983:18212   */\n      pop\n        /* \"#utility.yul\":17304:18212   */\n      jump(tag_311)\n        /* \"#utility.yul\":17334:17966   */\n    tag_312:\n        /* \"#utility.yul\":17386:17390   */\n      0x1f\n        /* \"#utility.yul\":17382:17391   */\n      not\n        /* \"#utility.yul\":17374:17380   */\n      dup5\n        /* \"#utility.yul\":17370:17392   */\n      and\n        /* \"#utility.yul\":17420:17457   */\n      tag_315\n        /* \"#utility.yul\":17452:17456   */\n      dup7\n        /* \"#utility.yul\":17420:17457   */\n      tag_112\n      jump\t// in\n    tag_315:\n        /* \"#utility.yul\":17479:17480   */\n      0x00\n        /* \"#utility.yul\":17493:17708   */\n    tag_316:\n        /* \"#utility.yul\":17507:17514   */\n      dup3\n        /* \"#utility.yul\":17504:17505   */\n      dup2\n        /* \"#utility.yul\":17501:17515   */\n      lt\n        /* \"#utility.yul\":17493:17708   */\n      iszero\n      tag_318\n      jumpi\n        /* \"#utility.yul\":17593:17602   */\n      dup5\n        /* \"#utility.yul\":17588:17591   */\n      dup10\n        /* \"#utility.yul\":17584:17603   */\n      add\n        /* \"#utility.yul\":17571:17604   */\n      calldataload\n        /* \"#utility.yul\":17563:17569   */\n      dup3\n        /* \"#utility.yul\":17556:17605   */\n      sstore\n        /* \"#utility.yul\":17644:17645   */\n      0x01\n        /* \"#utility.yul\":17636:17642   */\n      dup3\n        /* \"#utility.yul\":17632:17646   */\n      add\n        /* \"#utility.yul\":17622:17646   */\n      swap2\n      pop\n        /* \"#utility.yul\":17691:17693   */\n      0x20\n        /* \"#utility.yul\":17680:17689   */\n      dup6\n        /* \"#utility.yul\":17676:17694   */\n      add\n        /* \"#utility.yul\":17663:17694   */\n      swap5\n      pop\n        /* \"#utility.yul\":17530:17534   */\n      0x20\n        /* \"#utility.yul\":17527:17528   */\n      dup2\n        /* \"#utility.yul\":17523:17535   */\n      add\n        /* \"#utility.yul\":17518:17535   */\n      swap1\n      pop\n        /* \"#utility.yul\":17493:17708   */\n      jump(tag_316)\n    tag_318:\n        /* \"#utility.yul\":17736:17742   */\n      dup7\n        /* \"#utility.yul\":17727:17734   */\n      dup4\n        /* \"#utility.yul\":17724:17743   */\n      lt\n        /* \"#utility.yul\":17721:17907   */\n      iszero\n      tag_319\n      jumpi\n        /* \"#utility.yul\":17801:17810   */\n      dup5\n        /* \"#utility.yul\":17796:17799   */\n      dup10\n        /* \"#utility.yul\":17792:17811   */\n      add\n        /* \"#utility.yul\":17779:17812   */\n      calldataload\n        /* \"#utility.yul\":17844:17892   */\n      tag_320\n        /* \"#utility.yul\":17886:17890   */\n      0x1f\n        /* \"#utility.yul\":17878:17884   */\n      dup10\n        /* \"#utility.yul\":17874:17891   */\n      and\n        /* \"#utility.yul\":17863:17872   */\n      dup3\n        /* \"#utility.yul\":17844:17892   */\n      tag_125\n      jump\t// in\n    tag_320:\n        /* \"#utility.yul\":17836:17842   */\n      dup4\n        /* \"#utility.yul\":17829:17893   */\n      sstore\n        /* \"#utility.yul\":17744:17907   */\n      pop\n        /* \"#utility.yul\":17721:17907   */\n    tag_319:\n        /* \"#utility.yul\":17953:17954   */\n      0x01\n        /* \"#utility.yul\":17949:17950   */\n      0x02\n        /* \"#utility.yul\":17941:17947   */\n      dup9\n        /* \"#utility.yul\":17937:17951   */\n      mul\n        /* \"#utility.yul\":17933:17955   */\n      add\n        /* \"#utility.yul\":17927:17931   */\n      dup9\n        /* \"#utility.yul\":17920:17956   */\n      sstore\n        /* \"#utility.yul\":17341:17966   */\n      pop\n      pop\n      pop\n        /* \"#utility.yul\":17304:18212   */\n    tag_311:\n      pop\n        /* \"#utility.yul\":16914:18218   */\n      pop\n      pop\n      pop\n        /* \"#utility.yul\":16815:18218   */\n      pop\n      pop\n      pop\n      jump\t// out\n    stop\n\n    sub_0: assembly {\n            /* \"OpenZeppelin ERC20 - 1/pool/Pool.sol\":114:1879  contract Pool is ERC20 {... */\n          mstore(0x40, 0x80)\n            /* \"OpenZeppelin ERC20 - 1/pool/Pool.sol\":386:576  constructor(string memory _tokenSymbol, address _tokenAddress)... */\n          callvalue\n          dup1\n          iszero\n          tag_1\n          jumpi\n          0x00\n          dup1\n          revert\n        tag_1:\n          pop\n          mload(0x40)\n          sub(codesize, bytecodeSize)\n          dup1\n          bytecodeSize\n          dup4\n          codecopy\n          dup2\n          dup2\n          add\n          0x40\n          mstore\n          dup2\n          add\n          swap1\n          tag_2\n          swap2\n          swap1\n          tag_3\n          jump\t// in\n        tag_2:\n            /* \"OpenZeppelin ERC20 - 1/pool/Pool.sol\":463:475  _tokenSymbol */\n          dup2\n            /* \"OpenZeppelin ERC20 - 1/pool/Pool.sol\":477:489  _tokenSymbol */\n          dup3\n            /* \"@openzeppelin/contracts/token/ERC20/ERC20.sol\":1970:1975  name_ */\n          dup2\n            /* \"@openzeppelin/contracts/token/ERC20/ERC20.sol\":1962:1967  _name */\n          0x03\n            /* \"@openzeppelin/contracts/token/ERC20/ERC20.sol\":1962:1975  _name = name_ */\n          swap1\n          dup2\n          tag_7\n          swap2\n          swap1\n          tag_8\n          jump\t// in\n        tag_7:\n          pop\n            /* \"@openzeppelin/contracts/token/ERC20/ERC20.sol\":1995:2002  symbol_ */\n          dup1\n            /* \"@openzeppelin/contracts/token/ERC20/ERC20.sol\":1985:1992  _symbol */\n          0x04\n            /* \"@openzeppelin/contracts/token/ERC20/ERC20.sol\":1985:2002  _symbol = symbol_ */\n          swap1\n          dup2\n          tag_9\n          swap2\n          swap1\n          tag_8\n          jump\t// in\n        tag_9:\n          pop\n            /* \"@openzeppelin/contracts/token/ERC20/ERC20.sol\":1896:2009  constructor(string memory name_, string memory symbol_) {... */\n          pop\n          pop\n            /* \"OpenZeppelin ERC20 - 1/pool/Pool.sol\":520:533  _tokenAddress */\n          dup1\n            /* \"OpenZeppelin ERC20 - 1/pool/Pool.sol\":505:517  tokenAddress */\n          0x06\n          0x00\n            /* \"OpenZeppelin ERC20 - 1/pool/Pool.sol\":505:533  tokenAddress = _tokenAddress */\n          0x0100\n          exp\n          dup2\n          sload\n          dup2\n          0xffffffffffffffffffffffffffffffffffffffff\n          mul\n          not\n          and\n          swap1\n          dup4\n          0xffffffffffffffffffffffffffffffffffffffff\n          and\n          mul\n          or\n          swap1\n          sstore\n          pop\n            /* \"OpenZeppelin ERC20 - 1/pool/Pool.sol\":557:569  _tokenSymbol */\n          dup2\n            /* \"OpenZeppelin ERC20 - 1/pool/Pool.sol\":543:554  tokenSymbol */\n          0x05\n            /* \"OpenZeppelin ERC20 - 1/pool/Pool.sol\":543:569  tokenSymbol = _tokenSymbol */\n          swap1\n          dup2\n          tag_11\n          swap2\n          swap1\n          tag_8\n          jump\t// in\n        tag_11:\n          pop\n            /* \"OpenZeppelin ERC20 - 1/pool/Pool.sol\":386:576  constructor(string memory _tokenSymbol, address _tokenAddress)... */\n          pop\n          pop\n            /* \"OpenZeppelin ERC20 - 1/pool/Pool.sol\":114:1879  contract Pool is ERC20 {... */\n          jump(tag_12)\n            /* \"#utility.yul\":7:82   */\n        tag_13:\n            /* \"#utility.yul\":40:46   */\n          0x00\n            /* \"#utility.yul\":73:75   */\n          0x40\n            /* \"#utility.yul\":67:76   */\n          mload\n            /* \"#utility.yul\":57:76   */\n          swap1\n          pop\n            /* \"#utility.yul\":7:82   */\n          swap1\n          jump\t// out\n            /* \"#utility.yul\":88:205   */\n        tag_14:\n            /* \"#utility.yul\":197:198   */\n          0x00\n            /* \"#utility.yul\":194:195   */\n          dup1\n            /* \"#utility.yul\":187:199   */\n          revert\n            /* \"#utility.yul\":211:328   */\n        tag_15:\n            /* \"#utility.yul\":320:321   */\n          0x00\n            /* \"#utility.yul\":317:318   */\n          dup1\n            /* \"#utility.yul\":310:322   */\n          revert\n            /* \"#utility.yul\":334:451   */\n        tag_16:\n            /* \"#utility.yul\":443:444   */\n          0x00\n            /* \"#utility.yul\":440:441   */\n          dup1\n            /* \"#utility.yul\":433:445   */\n          revert\n            /* \"#utility.yul\":457:574   */\n        tag_17:\n            /* \"#utility.yul\":566:567   */\n          0x00\n            /* \"#utility.yul\":563:564   */\n          dup1\n            /* \"#utility.yul\":556:568   */\n          revert\n            /* \"#utility.yul\":580:682   */\n        tag_18:\n            /* \"#utility.yul\":621:627   */\n          0x00\n            /* \"#utility.yul\":672:674   */\n          0x1f\n            /* \"#utility.yul\":668:675   */\n          not\n            /* \"#utility.yul\":663:665   */\n          0x1f\n            /* \"#utility.yul\":656:661   */\n          dup4\n            /* \"#utility.yul\":652:666   */\n          add\n            /* \"#utility.yul\":648:676   */\n          and\n            /* \"#utility.yul\":638:676   */\n          swap1\n          pop\n            /* \"#utility.yul\":580:682   */\n          swap2\n          swap1\n          pop\n          jump\t// out\n            /* \"#utility.yul\":688:868   */\n        tag_19:\n            /* \"#utility.yul\":736:813   */\n          0x4e487b7100000000000000000000000000000000000000000000000000000000\n            /* \"#utility.yul\":733:734   */\n          0x00\n            /* \"#utility.yul\":726:814   */\n          mstore\n            /* \"#utility.yul\":833:837   */\n          0x41\n            /* \"#utility.yul\":830:831   */\n          0x04\n            /* \"#utility.yul\":823:838   */\n          mstore\n            /* \"#utility.yul\":857:861   */\n          0x24\n            /* \"#utility.yul\":854:855   */\n          0x00\n            /* \"#utility.yul\":847:862   */\n          revert\n            /* \"#utility.yul\":874:1155   */\n        tag_20:\n            /* \"#utility.yul\":957:984   */\n          tag_58\n            /* \"#utility.yul\":979:983   */\n          dup3\n            /* \"#utility.yul\":957:984   */\n          tag_18\n          jump\t// in\n        tag_58:\n            /* \"#utility.yul\":949:955   */\n          dup2\n            /* \"#utility.yul\":945:985   */\n          add\n            /* \"#utility.yul\":1087:1093   */\n          dup2\n            /* \"#utility.yul\":1075:1085   */\n          dup2\n            /* \"#utility.yul\":1072:1094   */\n          lt\n            /* \"#utility.yul\":1051:1069   */\n          0xffffffffffffffff\n            /* \"#utility.yul\":1039:1049   */\n          dup3\n            /* \"#utility.yul\":1036:1070   */\n          gt\n            /* \"#utility.yul\":1033:1095   */\n          or\n            /* \"#utility.yul\":1030:1118   */\n          iszero\n          tag_59\n          jumpi\n            /* \"#utility.yul\":1098:1116   */\n          tag_60\n          tag_19\n          jump\t// in\n        tag_60:\n            /* \"#utility.yul\":1030:1118   */\n        tag_59:\n            /* \"#utility.yul\":1138:1148   */\n          dup1\n            /* \"#utility.yul\":1134:1136   */\n          0x40\n            /* \"#utility.yul\":1127:1149   */\n          mstore\n            /* \"#utility.yul\":917:1155   */\n          pop\n            /* \"#utility.yul\":874:1155   */\n          pop\n          pop\n          jump\t// out\n            /* \"#utility.yul\":1161:1290   */\n        tag_21:\n            /* \"#utility.yul\":1195:1201   */\n          0x00\n            /* \"#utility.yul\":1222:1242   */\n          tag_62\n          tag_13\n          jump\t// in\n        tag_62:\n            /* \"#utility.yul\":1212:1242   */\n          swap1\n          pop\n            /* \"#utility.yul\":1251:1284   */\n          tag_63\n            /* \"#utility.yul\":1279:1283   */\n          dup3\n            /* \"#utility.yul\":1271:1277   */\n          dup3\n            /* \"#utility.yul\":1251:1284   */\n          tag_20\n          jump\t// in\n        tag_63:\n            /* \"#utility.yul\":1161:1290   */\n          swap2\n          swap1\n          pop\n          jump\t// out\n            /* \"#utility.yul\":1296:1604   */\n        tag_22:\n            /* \"#utility.yul\":1358:1362   */\n          0x00\n            /* \"#utility.yul\":1448:1466   */\n          0xffffffffffffffff\n            /* \"#utility.yul\":1440:1446   */\n          dup3\n            /* \"#utility.yul\":1437:1467   */\n          gt\n            /* \"#utility.yul\":1434:1490   */\n          iszero\n          tag_65\n          jumpi\n            /* \"#utility.yul\":1470:1488   */\n          tag_66\n          tag_19\n          jump\t// in\n        tag_66:\n            /* \"#utility.yul\":1434:1490   */\n        tag_65:\n            /* \"#utility.yul\":1508:1537   */\n          tag_67\n            /* \"#utility.yul\":1530:1536   */\n          dup3\n            /* \"#utility.yul\":1508:1537   */\n          tag_18\n          jump\t// in\n        tag_67:\n            /* \"#utility.yul\":1500:1537   */\n          swap1\n          pop\n            /* \"#utility.yul\":1592:1596   */\n          0x20\n            /* \"#utility.yul\":1586:1590   */\n          dup2\n            /* \"#utility.yul\":1582:1597   */\n          add\n            /* \"#utility.yul\":1574:1597   */\n          swap1\n          pop\n            /* \"#utility.yul\":1296:1604   */\n          swap2\n          swap1\n          pop\n          jump\t// out\n            /* \"#utility.yul\":1610:1856   */\n        tag_23:\n            /* \"#utility.yul\":1691:1692   */\n          0x00\n            /* \"#utility.yul\":1701:1814   */\n        tag_69:\n            /* \"#utility.yul\":1715:1721   */\n          dup4\n            /* \"#utility.yul\":1712:1713   */\n          dup2\n            /* \"#utility.yul\":1709:1722   */\n          lt\n            /* \"#utility.yul\":1701:1814   */\n          iszero\n          tag_71\n          jumpi\n            /* \"#utility.yul\":1800:1801   */\n          dup1\n            /* \"#utility.yul\":1795:1798   */\n          dup3\n            /* \"#utility.yul\":1791:1802   */\n          add\n            /* \"#utility.yul\":1785:1803   */\n          mload\n            /* \"#utility.yul\":1781:1782   */\n          dup2\n            /* \"#utility.yul\":1776:1779   */\n          dup5\n            /* \"#utility.yul\":1772:1783   */\n          add\n            /* \"#utility.yul\":1765:1804   */\n          mstore\n            /* \"#utility.yul\":1737:1739   */\n          0x20\n            /* \"#utility.yul\":1734:1735   */\n          dup2\n            /* \"#utility.yul\":1730:1740   */\n          add\n            /* \"#utility.yul\":1725:1740   */\n          swap1\n          pop\n            /* \"#utility.yul\":1701:1814   */\n          jump(tag_69)\n        tag_71:\n            /* \"#utility.yul\":1848:1849   */\n          0x00\n            /* \"#utility.yul\":1839:1845   */\n          dup5\n            /* \"#utility.yul\":1834:1837   */\n          dup5\n            /* \"#utility.yul\":1830:1846   */\n          add\n            /* \"#utility.yul\":1823:1850   */\n          mstore\n            /* \"#utility.yul\":1672:1856   */\n          pop\n            /* \"#utility.yul\":1610:1856   */\n          pop\n          pop\n          pop\n          jump\t// out\n            /* \"#utility.yul\":1862:2296   */\n        tag_24:\n            /* \"#utility.yul\":1951:1956   */\n          0x00\n            /* \"#utility.yul\":1976:2042   */\n          tag_73\n            /* \"#utility.yul\":1992:2041   */\n          tag_74\n            /* \"#utility.yul\":2034:2040   */\n          dup5\n            /* \"#utility.yul\":1992:2041   */\n          tag_22\n          jump\t// in\n        tag_74:\n            /* \"#utility.yul\":1976:2042   */\n          tag_21\n          jump\t// in\n        tag_73:\n            /* \"#utility.yul\":1967:2042   */\n          swap1\n          pop\n            /* \"#utility.yul\":2065:2071   */\n          dup3\n            /* \"#utility.yul\":2058:2063   */\n          dup2\n            /* \"#utility.yul\":2051:2072   */\n          mstore\n            /* \"#utility.yul\":2103:2107   */\n          0x20\n            /* \"#utility.yul\":2096:2101   */\n          dup2\n            /* \"#utility.yul\":2092:2108   */\n          add\n            /* \"#utility.yul\":2141:2144   */\n          dup5\n            /* \"#utility.yul\":2132:2138   */\n          dup5\n            /* \"#utility.yul\":2127:2130   */\n          dup5\n            /* \"#utility.yul\":2123:2139   */\n          add\n            /* \"#utility.yul\":2120:2145   */\n          gt\n            /* \"#utility.yul\":2117:2229   */\n          iszero\n          tag_75\n          jumpi\n            /* \"#utility.yul\":2148:2227   */\n          tag_76\n          tag_17\n          jump\t// in\n        tag_76:\n            /* \"#utility.yul\":2117:2229   */\n        tag_75:\n            /* \"#utility.yul\":2238:2290   */\n          tag_77\n            /* \"#utility.yul\":2283:2289   */\n          dup5\n            /* \"#utility.yul\":2278:2281   */\n          dup3\n            /* \"#utility.yul\":2273:2276   */\n          dup6\n            /* \"#utility.yul\":2238:2290   */\n          tag_23\n          jump\t// in\n        tag_77:\n            /* \"#utility.yul\":1957:2296   */\n          pop\n            /* \"#utility.yul\":1862:2296   */\n          swap4\n          swap3\n          pop\n          pop\n          pop\n          jump\t// out\n            /* \"#utility.yul\":2316:2671   */\n        tag_25:\n            /* \"#utility.yul\":2383:2388   */\n          0x00\n            /* \"#utility.yul\":2432:2435   */\n          dup3\n            /* \"#utility.yul\":2425:2429   */\n          0x1f\n            /* \"#utility.yul\":2417:2423   */\n          dup4\n            /* \"#utility.yul\":2413:2430   */\n          add\n            /* \"#utility.yul\":2409:2436   */\n          slt\n            /* \"#utility.yul\":2399:2521   */\n          tag_79\n          jumpi\n            /* \"#utility.yul\":2440:2519   */\n          tag_80\n          tag_16\n          jump\t// in\n        tag_80:\n            /* \"#utility.yul\":2399:2521   */\n        tag_79:\n            /* \"#utility.yul\":2550:2556   */\n          dup2\n            /* \"#utility.yul\":2544:2557   */\n          mload\n            /* \"#utility.yul\":2575:2665   */\n          tag_81\n            /* \"#utility.yul\":2661:2664   */\n          dup5\n            /* \"#utility.yul\":2653:2659   */\n          dup3\n            /* \"#utility.yul\":2646:2650   */\n          0x20\n            /* \"#utility.yul\":2638:2644   */\n          dup7\n            /* \"#utility.yul\":2634:2651   */\n          add\n            /* \"#utility.yul\":2575:2665   */\n          tag_24\n          jump\t// in\n        tag_81:\n            /* \"#utility.yul\":2566:2665   */\n          swap2\n          pop\n            /* \"#utility.yul\":2389:2671   */\n          pop\n            /* \"#utility.yul\":2316:2671   */\n          swap3\n          swap2\n          pop\n          pop\n          jump\t// out\n            /* \"#utility.yul\":2677:2803   */\n        tag_26:\n            /* \"#utility.yul\":2714:2721   */\n          0x00\n            /* \"#utility.yul\":2754:2796   */\n          0xffffffffffffffffffffffffffffffffffffffff\n            /* \"#utility.yul\":2747:2752   */\n          dup3\n            /* \"#utility.yul\":2743:2797   */\n          and\n            /* \"#utility.yul\":2732:2797   */\n          swap1\n          pop\n            /* \"#utility.yul\":2677:2803   */\n          swap2\n          swap1\n          pop\n          jump\t// out\n            /* \"#utility.yul\":2809:2905   */\n        tag_27:\n            /* \"#utility.yul\":2846:2853   */\n          0x00\n            /* \"#utility.yul\":2875:2899   */\n          tag_84\n            /* \"#utility.yul\":2893:2898   */\n          dup3\n            /* \"#utility.yul\":2875:2899   */\n          tag_26\n          jump\t// in\n        tag_84:\n            /* \"#utility.yul\":2864:2899   */\n          swap1\n          pop\n            /* \"#utility.yul\":2809:2905   */\n          swap2\n          swap1\n          pop\n          jump\t// out\n            /* \"#utility.yul\":2911:3033   */\n        tag_28:\n            /* \"#utility.yul\":2984:3008   */\n          tag_86\n            /* \"#utility.yul\":3002:3007   */\n          dup2\n            /* \"#utility.yul\":2984:3008   */\n          tag_27\n          jump\t// in\n        tag_86:\n            /* \"#utility.yul\":2977:2982   */\n          dup2\n            /* \"#utility.yul\":2974:3009   */\n          eq\n            /* \"#utility.yul\":2964:3027   */\n          tag_87\n          jumpi\n            /* \"#utility.yul\":3023:3024   */\n          0x00\n            /* \"#utility.yul\":3020:3021   */\n          dup1\n            /* \"#utility.yul\":3013:3025   */\n          revert\n            /* \"#utility.yul\":2964:3027   */\n        tag_87:\n            /* \"#utility.yul\":2911:3033   */\n          pop\n          jump\t// out\n            /* \"#utility.yul\":3039:3182   */\n        tag_29:\n            /* \"#utility.yul\":3096:3101   */\n          0x00\n            /* \"#utility.yul\":3127:3133   */\n          dup2\n            /* \"#utility.yul\":3121:3134   */\n          mload\n            /* \"#utility.yul\":3112:3134   */\n          swap1\n          pop\n            /* \"#utility.yul\":3143:3176   */\n          tag_89\n            /* \"#utility.yul\":3170:3175   */\n          dup2\n            /* \"#utility.yul\":3143:3176   */\n          tag_28\n          jump\t// in\n        tag_89:\n            /* \"#utility.yul\":3039:3182   */\n          swap3\n          swap2\n          pop\n          pop\n          jump\t// out\n            /* \"#utility.yul\":3188:3868   */\n        tag_3:\n            /* \"#utility.yul\":3277:3283   */\n          0x00\n            /* \"#utility.yul\":3285:3291   */\n          dup1\n            /* \"#utility.yul\":3334:3336   */\n          0x40\n            /* \"#utility.yul\":3322:3331   */\n          dup4\n            /* \"#utility.yul\":3313:3320   */\n          dup6\n            /* \"#utility.yul\":3309:3332   */\n          sub\n            /* \"#utility.yul\":3305:3337   */\n          slt\n            /* \"#utility.yul\":3302:3421   */\n          iszero\n          tag_91\n          jumpi\n            /* \"#utility.yul\":3340:3419   */\n          tag_92\n          tag_14\n          jump\t// in\n        tag_92:\n            /* \"#utility.yul\":3302:3421   */\n        tag_91:\n            /* \"#utility.yul\":3481:3482   */\n          0x00\n            /* \"#utility.yul\":3470:3479   */\n          dup4\n            /* \"#utility.yul\":3466:3483   */\n          add\n            /* \"#utility.yul\":3460:3484   */\n          mload\n            /* \"#utility.yul\":3511:3529   */\n          0xffffffffffffffff\n            /* \"#utility.yul\":3503:3509   */\n          dup2\n            /* \"#utility.yul\":3500:3530   */\n          gt\n            /* \"#utility.yul\":3497:3614   */\n          iszero\n          tag_93\n          jumpi\n            /* \"#utility.yul\":3533:3612   */\n          tag_94\n          tag_15\n          jump\t// in\n        tag_94:\n            /* \"#utility.yul\":3497:3614   */\n        tag_93:\n            /* \"#utility.yul\":3638:3712   */\n          tag_95\n            /* \"#utility.yul\":3704:3711   */\n          dup6\n            /* \"#utility.yul\":3695:3701   */\n          dup3\n            /* \"#utility.yul\":3684:3693   */\n          dup7\n            /* \"#utility.yul\":3680:3702   */\n          add\n            /* \"#utility.yul\":3638:3712   */\n          tag_25\n          jump\t// in\n        tag_95:\n            /* \"#utility.yul\":3628:3712   */\n          swap3\n          pop\n            /* \"#utility.yul\":3431:3722   */\n          pop\n            /* \"#utility.yul\":3761:3763   */\n          0x20\n            /* \"#utility.yul\":3787:3851   */\n          tag_96\n            /* \"#utility.yul\":3843:3850   */\n          dup6\n            /* \"#utility.yul\":3834:3840   */\n          dup3\n            /* \"#utility.yul\":3823:3832   */\n          dup7\n            /* \"#utility.yul\":3819:3841   */\n          add\n            /* \"#utility.yul\":3787:3851   */\n          tag_29\n          jump\t// in\n        tag_96:\n            /* \"#utility.yul\":3777:3851   */\n          swap2\n          pop\n            /* \"#utility.yul\":3732:3861   */\n          pop\n            /* \"#utility.yul\":3188:3868   */\n          swap3\n          pop\n          swap3\n          swap1\n          pop\n          jump\t// out\n            /* \"#utility.yul\":3874:3973   */\n        tag_30:\n            /* \"#utility.yul\":3926:3932   */\n          0x00\n            /* \"#utility.yul\":3960:3965   */\n          dup2\n            /* \"#utility.yul\":3954:3966   */\n          mload\n            /* \"#utility.yul\":3944:3966   */\n          swap1\n          pop\n            /* \"#utility.yul\":3874:3973   */\n          swap2\n          swap1\n          pop\n          jump\t// out\n            /* \"#utility.yul\":3979:4159   */\n        tag_31:\n            /* \"#utility.yul\":4027:4104   */\n          0x4e487b7100000000000000000000000000000000000000000000000000000000\n            /* \"#utility.yul\":4024:4025   */\n          0x00\n            /* \"#utility.yul\":4017:4105   */\n          mstore\n            /* \"#utility.yul\":4124:4128   */\n          0x22\n            /* \"#utility.yul\":4121:4122   */\n          0x04\n            /* \"#utility.yul\":4114:4129   */\n          mstore\n            /* \"#utility.yul\":4148:4152   */\n          0x24\n            /* \"#utility.yul\":4145:4146   */\n          0x00\n            /* \"#utility.yul\":4138:4153   */\n          revert\n            /* \"#utility.yul\":4165:4485   */\n        tag_32:\n            /* \"#utility.yul\":4209:4215   */\n          0x00\n            /* \"#utility.yul\":4246:4247   */\n          0x02\n            /* \"#utility.yul\":4240:4244   */\n          dup3\n            /* \"#utility.yul\":4236:4248   */\n          div\n            /* \"#utility.yul\":4226:4248   */\n          swap1\n          pop\n            /* \"#utility.yul\":4293:4294   */\n          0x01\n            /* \"#utility.yul\":4287:4291   */\n          dup3\n            /* \"#utility.yul\":4283:4295   */\n          and\n            /* \"#utility.yul\":4314:4332   */\n          dup1\n            /* \"#utility.yul\":4304:4385   */\n          tag_100\n          jumpi\n            /* \"#utility.yul\":4370:4374   */\n          0x7f\n            /* \"#utility.yul\":4362:4368   */\n          dup3\n            /* \"#utility.yul\":4358:4375   */\n          and\n            /* \"#utility.yul\":4348:4375   */\n          swap2\n          pop\n            /* \"#utility.yul\":4304:4385   */\n        tag_100:\n            /* \"#utility.yul\":4432:4434   */\n          0x20\n            /* \"#utility.yul\":4424:4430   */\n          dup3\n            /* \"#utility.yul\":4421:4435   */\n          lt\n            /* \"#utility.yul\":4401:4419   */\n          dup2\n            /* \"#utility.yul\":4398:4436   */\n          sub\n            /* \"#utility.yul\":4395:4479   */\n          tag_101\n          jumpi\n            /* \"#utility.yul\":4451:4469   */\n          tag_102\n          tag_31\n          jump\t// in\n        tag_102:\n            /* \"#utility.yul\":4395:4479   */\n        tag_101:\n            /* \"#utility.yul\":4216:4485   */\n          pop\n            /* \"#utility.yul\":4165:4485   */\n          swap2\n          swap1\n          pop\n          jump\t// out\n            /* \"#utility.yul\":4491:4632   */\n        tag_33:\n            /* \"#utility.yul\":4540:4544   */\n          0x00\n            /* \"#utility.yul\":4563:4566   */\n          dup2\n            /* \"#utility.yul\":4555:4566   */\n          swap1\n          pop\n            /* \"#utility.yul\":4586:4589   */\n          dup2\n            /* \"#utility.yul\":4583:4584   */\n          0x00\n            /* \"#utility.yul\":4576:4590   */\n          mstore\n            /* \"#utility.yul\":4620:4624   */\n          0x20\n            /* \"#utility.yul\":4617:4618   */\n          0x00\n            /* \"#utility.yul\":4607:4625   */\n          keccak256\n            /* \"#utility.yul\":4599:4625   */\n          swap1\n          pop\n            /* \"#utility.yul\":4491:4632   */\n          swap2\n          swap1\n          pop\n          jump\t// out\n            /* \"#utility.yul\":4638:4731   */\n        tag_34:\n            /* \"#utility.yul\":4675:4681   */\n          0x00\n            /* \"#utility.yul\":4722:4724   */\n          0x20\n            /* \"#utility.yul\":4717:4719   */\n          0x1f\n            /* \"#utility.yul\":4710:4715   */\n          dup4\n            /* \"#utility.yul\":4706:4720   */\n          add\n            /* \"#utility.yul\":4702:4725   */\n          div\n            /* \"#utility.yul\":4692:4725   */\n          swap1\n          pop\n            /* \"#utility.yul\":4638:4731   */\n          swap2\n          swap1\n          pop\n          jump\t// out\n            /* \"#utility.yul\":4737:4844   */\n        tag_35:\n            /* \"#utility.yul\":4781:4789   */\n          0x00\n            /* \"#utility.yul\":4831:4836   */\n          dup3\n            /* \"#utility.yul\":4825:4829   */\n          dup3\n            /* \"#utility.yul\":4821:4837   */\n          shl\n            /* \"#utility.yul\":4800:4837   */\n          swap1\n          pop\n            /* \"#utility.yul\":4737:4844   */\n          swap3\n          swap2\n          pop\n          pop\n          jump\t// out\n            /* \"#utility.yul\":4850:5243   */\n        tag_36:\n            /* \"#utility.yul\":4919:4925   */\n          0x00\n            /* \"#utility.yul\":4969:4970   */\n          0x08\n            /* \"#utility.yul\":4957:4967   */\n          dup4\n            /* \"#utility.yul\":4953:4971   */\n          mul\n            /* \"#utility.yul\":4992:5089   */\n          tag_107\n            /* \"#utility.yul\":5022:5088   */\n          0xffffffffffffffffffffffffffffffffffffffffffffffffffffffffffffffff\n            /* \"#utility.yul\":5011:5020   */\n          dup3\n            /* \"#utility.yul\":4992:5089   */\n          tag_35\n          jump\t// in\n        tag_107:\n            /* \"#utility.yul\":5110:5149   */\n          tag_108\n            /* \"#utility.yul\":5140:5148   */\n          dup7\n            /* \"#utility.yul\":5129:5138   */\n          dup4\n            /* \"#utility.yul\":5110:5149   */\n          tag_35\n          jump\t// in\n        tag_108:\n            /* \"#utility.yul\":5098:5149   */\n          swap6\n          pop\n            /* \"#utility.yul\":5182:5186   */\n          dup1\n            /* \"#utility.yul\":5178:5187   */\n          not\n            /* \"#utility.yul\":5171:5176   */\n          dup5\n            /* \"#utility.yul\":5167:5188   */\n          and\n            /* \"#utility.yul\":5158:5188   */\n          swap4\n          pop\n            /* \"#utility.yul\":5231:5235   */\n          dup1\n            /* \"#utility.yul\":5221:5229   */\n          dup7\n            /* \"#utility.yul\":5217:5236   */\n          and\n            /* \"#utility.yul\":5210:5215   */\n          dup5\n            /* \"#utility.yul\":5207:5237   */\n          or\n            /* \"#utility.yul\":5197:5237   */\n          swap3\n          pop\n            /* \"#utility.yul\":4926:5243   */\n          pop\n          pop\n            /* \"#utility.yul\":4850:5243   */\n          swap4\n          swap3\n          pop\n          pop\n          pop\n          jump\t// out\n            /* \"#utility.yul\":5249:5326   */\n        tag_37:\n            /* \"#utility.yul\":5286:5293   */\n          0x00\n            /* \"#utility.yul\":5315:5320   */\n          dup2\n            /* \"#utility.yul\":5304:5320   */\n          swap1\n          pop\n            /* \"#utility.yul\":5249:5326   */\n          swap2\n          swap1\n          pop\n          jump\t// out\n            /* \"#utility.yul\":5332:5392   */\n        tag_38:\n            /* \"#utility.yul\":5360:5363   */\n          0x00\n            /* \"#utility.yul\":5381:5386   */\n          dup2\n            /* \"#utility.yul\":5374:5386   */\n          swap1\n          pop\n            /* \"#utility.yul\":5332:5392   */\n          swap2\n          swap1\n          pop\n          jump\t// out\n            /* \"#utility.yul\":5398:5540   */\n        tag_39:\n            /* \"#utility.yul\":5448:5457   */\n          0x00\n            /* \"#utility.yul\":5481:5534   */\n          tag_112\n            /* \"#utility.yul\":5499:5533   */\n          tag_113\n            /* \"#utility.yul\":5508:5532   */\n          tag_114\n            /* \"#utility.yul\":5526:5531   */\n          dup5\n            /* \"#utility.yul\":5508:5532   */\n          tag_37\n          jump\t// in\n        tag_114:\n            /* \"#utility.yul\":5499:5533   */\n          tag_38\n          jump\t// in\n        tag_113:\n            /* \"#utility.yul\":5481:5534   */\n          tag_37\n          jump\t// in\n        tag_112:\n            /* \"#utility.yul\":5468:5534   */\n          swap1\n          pop\n            /* \"#utility.yul\":5398:5540   */\n          swap2\n          swap1\n          pop\n          jump\t// out\n            /* \"#utility.yul\":5546:5621   */\n        tag_40:\n            /* \"#utility.yul\":5589:5592   */\n          0x00\n            /* \"#utility.yul\":5610:5615   */\n          dup2\n            /* \"#utility.yul\":5603:5615   */\n          swap1\n          pop\n            /* \"#utility.yul\":5546:5621   */\n          swap2\n          swap1\n          pop\n          jump\t// out\n            /* \"#utility.yul\":5627:5896   */\n        tag_41:\n            /* \"#utility.yul\":5737:5776   */\n          tag_117\n            /* \"#utility.yul\":5768:5775   */\n          dup4\n            /* \"#utility.yul\":5737:5776   */\n          tag_39\n          jump\t// in\n        tag_117:\n            /* \"#utility.yul\":5798:5889   */\n          tag_118\n            /* \"#utility.yul\":5847:5888   */\n          tag_119\n            /* \"#utility.yul\":5871:5887   */\n          dup3\n            /* \"#utility.yul\":5847:5888   */\n          tag_40\n          jump\t// in\n        tag_119:\n            /* \"#utility.yul\":5839:5845   */\n          dup5\n            /* \"#utility.yul\":5832:5836   */\n          dup5\n            /* \"#utility.yul\":5826:5837   */\n          sload\n            /* \"#utility.yul\":5798:5889   */\n          tag_36\n          jump\t// in\n        tag_118:\n            /* \"#utility.yul\":5792:5796   */\n          dup3\n            /* \"#utility.yul\":5785:5890   */\n          sstore\n            /* \"#utility.yul\":5703:5896   */\n          pop\n            /* \"#utility.yul\":5627:5896   */\n          pop\n          pop\n          pop\n          jump\t// out\n            /* \"#utility.yul\":5902:5975   */\n        tag_42:\n            /* \"#utility.yul\":5947:5950   */\n          0x00\n            /* \"#utility.yul\":5902:5975   */\n          swap1\n          jump\t// out\n            /* \"#utility.yul\":5981:6170   */\n        tag_43:\n            /* \"#utility.yul\":6058:6090   */\n          tag_122\n          tag_42\n          jump\t// in\n        tag_122:\n            /* \"#utility.yul\":6099:6164   */\n          tag_123\n            /* \"#utility.yul\":6157:6163   */\n          dup2\n            /* \"#utility.yul\":6149:6155   */\n          dup5\n            /* \"#utility.yul\":6143:6147   */\n          dup5\n            /* \"#utility.yul\":6099:6164   */\n          tag_41\n          jump\t// in\n        tag_123:\n            /* \"#utility.yul\":6034:6170   */\n          pop\n            /* \"#utility.yul\":5981:6170   */\n          pop\n          pop\n          jump\t// out\n            /* \"#utility.yul\":6176:6362   */\n        tag_44:\n            /* \"#utility.yul\":6236:6356   */\n        tag_125:\n            /* \"#utility.yul\":6253:6256   */\n          dup2\n            /* \"#utility.yul\":6246:6251   */\n          dup2\n            /* \"#utility.yul\":6243:6257   */\n          lt\n            /* \"#utility.yul\":6236:6356   */\n          iszero\n          tag_127\n          jumpi\n            /* \"#utility.yul\":6307:6346   */\n          tag_128\n            /* \"#utility.yul\":6344:6345   */\n          0x00\n            /* \"#utility.yul\":6337:6342   */\n          dup3\n            /* \"#utility.yul\":6307:6346   */\n          tag_43\n          jump\t// in\n        tag_128:\n            /* \"#utility.yul\":6280:6281   */\n          0x01\n            /* \"#utility.yul\":6273:6278   */\n          dup2\n            /* \"#utility.yul\":6269:6282   */\n          add\n            /* \"#utility.yul\":6260:6282   */\n          swap1\n          pop\n            /* \"#utility.yul\":6236:6356   */\n          jump(tag_125)\n        tag_127:\n            /* \"#utility.yul\":6176:6362   */\n          pop\n          pop\n          jump\t// out\n            /* \"#utility.yul\":6368:6911   */\n        tag_45:\n            /* \"#utility.yul\":6469:6471   */\n          0x1f\n            /* \"#utility.yul\":6464:6467   */\n          dup3\n            /* \"#utility.yul\":6461:6472   */\n          gt\n            /* \"#utility.yul\":6458:6904   */\n          iszero\n          tag_130\n          jumpi\n            /* \"#utility.yul\":6503:6541   */\n          tag_131\n            /* \"#utility.yul\":6535:6540   */\n          dup2\n            /* \"#utility.yul\":6503:6541   */\n          tag_33\n          jump\t// in\n        tag_131:\n            /* \"#utility.yul\":6587:6616   */\n          tag_132\n            /* \"#utility.yul\":6605:6615   */\n          dup5\n            /* \"#utility.yul\":6587:6616   */\n          tag_34\n          jump\t// in\n        tag_132:\n            /* \"#utility.yul\":6577:6585   */\n          dup2\n            /* \"#utility.yul\":6573:6617   */\n          add\n            /* \"#utility.yul\":6770:6772   */\n          0x20\n            /* \"#utility.yul\":6758:6768   */\n          dup6\n            /* \"#utility.yul\":6755:6773   */\n          lt\n            /* \"#utility.yul\":6752:6801   */\n          iszero\n          tag_133\n          jumpi\n            /* \"#utility.yul\":6791:6799   */\n          dup2\n            /* \"#utility.yul\":6776:6799   */\n          swap1\n          pop\n            /* \"#utility.yul\":6752:6801   */\n        tag_133:\n            /* \"#utility.yul\":6814:6894   */\n          tag_134\n            /* \"#utility.yul\":6870:6892   */\n          tag_135\n            /* \"#utility.yul\":6888:6891   */\n          dup6\n            /* \"#utility.yul\":6870:6892   */\n          tag_34\n          jump\t// in\n        tag_135:\n            /* \"#utility.yul\":6860:6868   */\n          dup4\n            /* \"#utility.yul\":6856:6893   */\n          add\n            /* \"#utility.yul\":6843:6854   */\n          dup3\n            /* \"#utility.yul\":6814:6894   */\n          tag_44\n          jump\t// in\n        tag_134:\n            /* \"#utility.yul\":6473:6904   */\n          pop\n          pop\n            /* \"#utility.yul\":6458:6904   */\n        tag_130:\n            /* \"#utility.yul\":6368:6911   */\n          pop\n          pop\n          pop\n          jump\t// out\n            /* \"#utility.yul\":6917:7034   */\n        tag_46:\n            /* \"#utility.yul\":6971:6979   */\n          0x00\n            /* \"#utility.yul\":7021:7026   */\n          dup3\n            /* \"#utility.yul\":7015:7019   */\n          dup3\n            /* \"#utility.yul\":7011:7027   */\n          shr\n            /* \"#utility.yul\":6990:7027   */\n          swap1\n          pop\n            /* \"#utility.yul\":6917:7034   */\n          swap3\n          swap2\n          pop\n          pop\n          jump\t// out\n            /* \"#utility.yul\":7040:7209   */\n        tag_47:\n            /* \"#utility.yul\":7084:7090   */\n          0x00\n            /* \"#utility.yul\":7117:7168   */\n          tag_138\n            /* \"#utility.yul\":7165:7166   */\n          0x00\n            /* \"#utility.yul\":7161:7167   */\n          not\n            /* \"#utility.yul\":7153:7158   */\n          dup5\n            /* \"#utility.yul\":7150:7151   */\n          0x08\n            /* \"#utility.yul\":7146:7159   */\n          mul\n            /* \"#utility.yul\":7117:7168   */\n          tag_46\n          jump\t// in\n        tag_138:\n            /* \"#utility.yul\":7113:7169   */\n          not\n            /* \"#utility.yul\":7198:7202   */\n          dup1\n            /* \"#utility.yul\":7192:7196   */\n          dup4\n            /* \"#utility.yul\":7188:7203   */\n          and\n            /* \"#utility.yul\":7178:7203   */\n          swap2\n          pop\n            /* \"#utility.yul\":7091:7209   */\n          pop\n            /* \"#utility.yul\":7040:7209   */\n          swap3\n          swap2\n          pop\n          pop\n          jump\t// out\n            /* \"#utility.yul\":7214:7509   */\n        tag_48:\n            /* \"#utility.yul\":7290:7294   */\n          0x00\n            /* \"#utility.yul\":7436:7465   */\n          tag_140\n            /* \"#utility.yul\":7461:7464   */\n          dup4\n            /* \"#utility.yul\":7455:7459   */\n          dup4\n            /* \"#utility.yul\":7436:7465   */\n          tag_47\n          jump\t// in\n        tag_140:\n            /* \"#utility.yul\":7428:7465   */\n          swap2\n          pop\n            /* \"#utility.yul\":7498:7501   */\n          dup3\n            /* \"#utility.yul\":7495:7496   */\n          0x02\n            /* \"#utility.yul\":7491:7502   */\n          mul\n            /* \"#utility.yul\":7485:7489   */\n          dup3\n            /* \"#utility.yul\":7482:7503   */\n          or\n            /* \"#utility.yul\":7474:7503   */\n          swap1\n          pop\n            /* \"#utility.yul\":7214:7509   */\n          swap3\n          swap2\n          pop\n          pop\n          jump\t// out\n            /* \"#utility.yul\":7514:8909   */\n        tag_8:\n            /* \"#utility.yul\":7631:7668   */\n          tag_142\n            /* \"#utility.yul\":7664:7667   */\n          dup3\n            /* \"#utility.yul\":7631:7668   */\n          tag_30\n          jump\t// in\n        tag_142:\n            /* \"#utility.yul\":7733:7751   */\n          0xffffffffffffffff\n            /* \"#utility.yul\":7725:7731   */\n          dup2\n            /* \"#utility.yul\":7722:7752   */\n          gt\n            /* \"#utility.yul\":7719:7775   */\n          iszero\n          tag_143\n          jumpi\n            /* \"#utility.yul\":7755:7773   */\n          tag_144\n          tag_19\n          jump\t// in\n        tag_144:\n            /* \"#utility.yul\":7719:7775   */\n        tag_143:\n            /* \"#utility.yul\":7799:7837   */\n          tag_145\n            /* \"#utility.yul\":7831:7835   */\n          dup3\n            /* \"#utility.yul\":7825:7836   */\n          sload\n            /* \"#utility.yul\":7799:7837   */\n          tag_32\n          jump\t// in\n        tag_145:\n            /* \"#utility.yul\":7884:7951   */\n          tag_146\n            /* \"#utility.yul\":7944:7950   */\n          dup3\n            /* \"#utility.yul\":7936:7942   */\n          dup3\n            /* \"#utility.yul\":7930:7934   */\n          dup6\n            /* \"#utility.yul\":7884:7951   */\n          tag_45\n          jump\t// in\n        tag_146:\n            /* \"#utility.yul\":7978:7979   */\n          0x00\n            /* \"#utility.yul\":8002:8006   */\n          0x20\n            /* \"#utility.yul\":7989:8006   */\n          swap1\n          pop\n            /* \"#utility.yul\":8034:8036   */\n          0x1f\n            /* \"#utility.yul\":8026:8032   */\n          dup4\n            /* \"#utility.yul\":8023:8037   */\n          gt\n            /* \"#utility.yul\":8051:8052   */\n          0x01\n            /* \"#utility.yul\":8046:8664   */\n          dup2\n          eq\n          tag_148\n          jumpi\n            /* \"#utility.yul\":8708:8709   */\n          0x00\n            /* \"#utility.yul\":8725:8731   */\n          dup5\n            /* \"#utility.yul\":8722:8799   */\n          iszero\n          tag_149\n          jumpi\n            /* \"#utility.yul\":8774:8783   */\n          dup3\n            /* \"#utility.yul\":8769:8772   */\n          dup8\n            /* \"#utility.yul\":8765:8784   */\n          add\n            /* \"#utility.yul\":8759:8785   */\n          mload\n            /* \"#utility.yul\":8750:8785   */\n          swap1\n          pop\n            /* \"#utility.yul\":8722:8799   */\n        tag_149:\n            /* \"#utility.yul\":8825:8892   */\n          tag_150\n            /* \"#utility.yul\":8885:8891   */\n          dup6\n            /* \"#utility.yul\":8878:8883   */\n          dup3\n            /* \"#utility.yul\":8825:8892   */\n          tag_48\n          jump\t// in\n        tag_150:\n            /* \"#utility.yul\":8819:8823   */\n          dup7\n            /* \"#utility.yul\":8812:8893   */\n          sstore\n            /* \"#utility.yul\":8681:8903   */\n          pop\n            /* \"#utility.yul\":8016:8903   */\n          jump(tag_147)\n            /* \"#utility.yul\":8046:8664   */\n        tag_148:\n            /* \"#utility.yul\":8098:8102   */\n          0x1f\n            /* \"#utility.yul\":8094:8103   */\n          not\n            /* \"#utility.yul\":8086:8092   */\n          dup5\n            /* \"#utility.yul\":8082:8104   */\n          and\n            /* \"#utility.yul\":8132:8169   */\n          tag_151\n            /* \"#utility.yul\":8164:8168   */\n          dup7\n            /* \"#utility.yul\":8132:8169   */\n          tag_33\n          jump\t// in\n        tag_151:\n            /* \"#utility.yul\":8191:8192   */\n          0x00\n            /* \"#utility.yul\":8205:8413   */\n        tag_152:\n            /* \"#utility.yul\":8219:8226   */\n          dup3\n            /* \"#utility.yul\":8216:8217   */\n          dup2\n            /* \"#utility.yul\":8213:8227   */\n          lt\n            /* \"#utility.yul\":8205:8413   */\n          iszero\n          tag_154\n          jumpi\n            /* \"#utility.yul\":8298:8307   */\n          dup5\n            /* \"#utility.yul\":8293:8296   */\n          dup10\n            /* \"#utility.yul\":8289:8308   */\n          add\n            /* \"#utility.yul\":8283:8309   */\n          mload\n            /* \"#utility.yul\":8275:8281   */\n          dup3\n            /* \"#utility.yul\":8268:8310   */\n          sstore\n            /* \"#utility.yul\":8349:8350   */\n          0x01\n            /* \"#utility.yul\":8341:8347   */\n          dup3\n            /* \"#utility.yul\":8337:8351   */\n          add\n            /* \"#utility.yul\":8327:8351   */\n          swap2\n          pop\n            /* \"#utility.yul\":8396:8398   */\n          0x20\n            /* \"#utility.yul\":8385:8394   */\n          dup6\n            /* \"#utility.yul\":8381:8399   */\n          add\n            /* \"#utility.yul\":8368:8399   */\n          swap5\n          pop\n            /* \"#utility.yul\":8242:8246   */\n          0x20\n            /* \"#utility.yul\":8239:8240   */\n          dup2\n            /* \"#utility.yul\":8235:8247   */\n          add\n            /* \"#utility.yul\":8230:8247   */\n          swap1\n          pop\n            /* \"#utility.yul\":8205:8413   */\n          jump(tag_152)\n        tag_154:\n            /* \"#utility.yul\":8441:8447   */\n          dup7\n            /* \"#utility.yul\":8432:8439   */\n          dup4\n            /* \"#utility.yul\":8429:8448   */\n          lt\n            /* \"#utility.yul\":8426:8605   */\n          iszero\n          tag_155\n          jumpi\n            /* \"#utility.yul\":8499:8508   */\n          dup5\n            /* \"#utility.yul\":8494:8497   */\n          dup10\n            /* \"#utility.yul\":8490:8509   */\n          add\n            /* \"#utility.yul\":8484:8510   */\n          mload\n            /* \"#utility.yul\":8542:8590   */\n          tag_156\n            /* \"#utility.yul\":8584:8588   */\n          0x1f\n            /* \"#utility.yul\":8576:8582   */\n          dup10\n            /* \"#utility.yul\":8572:8589   */\n          and\n            /* \"#utility.yul\":8561:8570   */\n          dup3\n            /* \"#utility.yul\":8542:8590   */\n          tag_47\n          jump\t// in\n        tag_156:\n            /* \"#utility.yul\":8534:8540   */\n          dup4\n            /* \"#utility.yul\":8527:8591   */\n          sstore\n            /* \"#utility.yul\":8449:8605   */\n          pop\n            /* \"#utility.yul\":8426:8605   */\n        tag_155:\n            /* \"#utility.yul\":8651:8652   */\n          0x01\n            /* \"#utility.yul\":8647:8648   */\n          0x02\n            /* \"#utility.yul\":8639:8645   */\n          dup9\n            /* \"#utility.yul\":8635:8649   */\n          mul\n            /* \"#utility.yul\":8631:8653   */\n          add\n            /* \"#utility.yul\":8625:8629   */\n          dup9\n            /* \"#utility.yul\":8618:8654   */\n          sstore\n            /* \"#utility.yul\":8053:8664   */\n          pop\n          pop\n          pop\n            /* \"#utility.yul\":8016:8903   */\n        tag_147:\n          pop\n            /* \"#utility.yul\":7606:8909   */\n          pop\n          pop\n          pop\n            /* \"#utility.yul\":7514:8909   */\n          pop\n          pop\n          jump\t// out\n            /* \"OpenZeppelin ERC20 - 1/pool/Pool.sol\":114:1879  contract Pool is ERC20 {... */\n        tag_12:\n          dataSize(sub_0)\n          dup1\n          dataOffset(sub_0)\n          0x00\n          codecopy\n          0x00\n          return\n        stop\n\n        sub_0: assembly {\n                /* \"OpenZeppelin ERC20 - 1/pool/Pool.sol\":114:1879  contract Pool is ERC20 {... */\n              mstore(0x40, 0x80)\n              jumpi(tag_1, lt(calldatasize, 0x04))\n              shr(0xe0, calldataload(0x00))\n              dup1\n              0x70a08231\n              gt\n              tag_15\n              jumpi\n              dup1\n              0xd50b2628\n              gt\n              tag_16\n              jumpi\n              dup1\n              0xd50b2628\n              eq\n              tag_11\n              jumpi\n              dup1\n              0xdd62ed3e\n              eq\n              tag_12\n              jumpi\n              dup1\n              0xe121b448\n              eq\n              tag_13\n              jumpi\n              dup1\n              0xe8078d94\n              eq\n              tag_14\n              jumpi\n              jump(tag_1)\n            tag_16:\n              dup1\n              0x70a08231\n              eq\n              tag_8\n              jumpi\n              dup1\n              0x95d89b41\n              eq\n              tag_9\n              jumpi\n              dup1\n              0xa9059cbb\n              eq\n              tag_10\n              jumpi\n              jump(tag_1)\n            tag_15:\n              dup1\n              0x06fdde03\n              eq\n              tag_2\n              jumpi\n              dup1\n              0x095ea7b3\n              eq\n              tag_3\n              jumpi\n              dup1\n              0x18160ddd\n              eq\n              tag_4\n              jumpi\n              dup1\n              0x23b872dd\n              eq\n              tag_5\n              jumpi\n              dup1\n              0x2e1a7d4d\n              eq\n              tag_6\n              jumpi\n              dup1\n              0x313ce567\n              eq\n              tag_7\n              jumpi\n            tag_1:\n              0x00\n              dup1\n              revert\n                /* \"@openzeppelin/contracts/token/ERC20/ERC20.sol\":2074:2163  function name() public view virtual returns (string memory) {... */\n            tag_2:\n              callvalue\n              dup1\n              iszero\n              tag_17\n              jumpi\n              0x00\n              dup1\n              revert\n            tag_17:\n              pop\n              tag_18\n              tag_19\n              jump\t// in\n            tag_18:\n              mload(0x40)\n              tag_20\n              swap2\n              swap1\n              tag_21\n              jump\t// in\n            tag_20:\n              mload(0x40)\n              dup1\n              swap2\n              sub\n              swap1\n              return\n                /* \"@openzeppelin/contracts/token/ERC20/ERC20.sol\":4293:4479  function approve(address spender, uint256 value) public virtual returns (bool) {... */\n            tag_3:\n              callvalue\n              dup1\n              iszero\n              tag_22\n              jumpi\n              0x00\n              dup1\n              revert\n            tag_22:\n              pop\n              tag_23\n              0x04\n              dup1\n              calldatasize\n              sub\n              dup2\n              add\n              swap1\n              tag_24\n              swap2\n              swap1\n              tag_25\n              jump\t// in\n            tag_24:\n              tag_26\n              jump\t// in\n            tag_23:\n              mload(0x40)\n              tag_27\n              swap2\n              swap1\n              tag_28\n              jump\t// in\n            tag_27:\n              mload(0x40)\n              dup1\n              swap2\n              sub\n              swap1\n              return\n                /* \"@openzeppelin/contracts/token/ERC20/ERC20.sol\":3144:3241  function totalSupply() public view virtual returns (uint256) {... */\n            tag_4:\n              callvalue\n              dup1\n              iszero\n              tag_29\n              jumpi\n              0x00\n              dup1\n              revert\n            tag_29:\n              pop\n              tag_30\n              tag_31\n              jump\t// in\n            tag_30:\n              mload(0x40)\n              tag_32\n              swap2\n              swap1\n              tag_33\n              jump\t// in\n            tag_32:\n              mload(0x40)\n              dup1\n              swap2\n              sub\n              swap1\n              return\n                /* \"@openzeppelin/contracts/token/ERC20/ERC20.sol\":5039:5283  function transferFrom(address from, address to, uint256 value) public virtual returns (bool) {... */\n            tag_5:\n              callvalue\n              dup1\n              iszero\n              tag_34\n              jumpi\n              0x00\n              dup1\n              revert\n            tag_34:\n              pop\n              tag_35\n              0x04\n              dup1\n              calldatasize\n              sub\n              dup2\n              add\n              swap1\n              tag_36\n              swap2\n              swap1\n              tag_37\n              jump\t// in\n            tag_36:\n              tag_38\n              jump\t// in\n            tag_35:\n              mload(0x40)\n              tag_39\n              swap2\n              swap1\n              tag_28\n              jump\t// in\n            tag_39:\n              mload(0x40)\n              dup1\n              swap2\n              sub\n              swap1\n              return\n                /* \"OpenZeppelin ERC20 - 1/pool/Pool.sol\":1344:1580  function withdraw(uint256 amount) external payable hasUserLiqudity(amount) {... */\n            tag_6:\n              tag_40\n              0x04\n              dup1\n              calldatasize\n              sub\n              dup2\n              add\n              swap1\n              tag_41\n              swap2\n              swap1\n              tag_42\n              jump\t// in\n            tag_41:\n              tag_43\n              jump\t// in\n            tag_40:\n              stop\n                /* \"@openzeppelin/contracts/token/ERC20/ERC20.sol\":3002:3084  function decimals() public view virtual returns (uint8) {... */\n            tag_7:\n              callvalue\n              dup1\n              iszero\n              tag_44\n              jumpi\n              0x00\n              dup1\n              revert\n            tag_44:\n              pop\n              tag_45\n              tag_46\n              jump\t// in\n            tag_45:\n              mload(0x40)\n              tag_47\n              swap2\n              swap1\n              tag_48\n              jump\t// in\n            tag_47:\n              mload(0x40)\n              dup1\n              swap2\n              sub\n              swap1\n              return\n                /* \"@openzeppelin/contracts/token/ERC20/ERC20.sol\":3299:3415  function balanceOf(address account) public view virtual returns (uint256) {... */\n            tag_8:\n              callvalue\n              dup1\n              iszero\n              tag_49\n              jumpi\n              0x00\n              dup1\n              revert\n            tag_49:\n              pop\n              tag_50\n              0x04\n              dup1\n              calldatasize\n              sub\n              dup2\n              add\n              swap1\n              tag_51\n              swap2\n              swap1\n              tag_52\n              jump\t// in\n            tag_51:\n              tag_53\n              jump\t// in\n            tag_50:\n              mload(0x40)\n              tag_54\n              swap2\n              swap1\n              tag_33\n              jump\t// in\n            tag_54:\n              mload(0x40)\n              dup1\n              swap2\n              sub\n              swap1\n              return\n                /* \"@openzeppelin/contracts/token/ERC20/ERC20.sol\":2276:2369  function symbol() public view virtual returns (string memory) {... */\n            tag_9:\n              callvalue\n              dup1\n              iszero\n              tag_55\n              jumpi\n              0x00\n              dup1\n              revert\n            tag_55:\n              pop\n              tag_56\n              tag_57\n              jump\t// in\n            tag_56:\n              mload(0x40)\n              tag_58\n              swap2\n              swap1\n              tag_21\n              jump\t// in\n            tag_58:\n              mload(0x40)\n              dup1\n              swap2\n              sub\n              swap1\n              return\n                /* \"@openzeppelin/contracts/token/ERC20/ERC20.sol\":3610:3788  function transfer(address to, uint256 value) public virtual returns (bool) {... */\n            tag_10:\n              callvalue\n              dup1\n              iszero\n              tag_59\n              jumpi\n              0x00\n              dup1\n              revert\n            tag_59:\n              pop\n              tag_60\n              0x04\n              dup1\n              calldatasize\n              sub\n              dup2\n              add\n              swap1\n              tag_61\n              swap2\n              swap1\n              tag_25\n              jump\t// in\n            tag_61:\n              tag_62\n              jump\t// in\n            tag_60:\n              mload(0x40)\n              tag_63\n              swap2\n              swap1\n              tag_28\n              jump\t// in\n            tag_63:\n              mload(0x40)\n              dup1\n              swap2\n              sub\n              swap1\n              return\n                /* \"OpenZeppelin ERC20 - 1/pool/Pool.sol\":298:329  Liquidity[] public userLiqudity */\n            tag_11:\n              callvalue\n              dup1\n              iszero\n              tag_64\n              jumpi\n              0x00\n              dup1\n              revert\n            tag_64:\n              pop\n              tag_65\n              0x04\n              dup1\n              calldatasize\n              sub\n              dup2\n              add\n              swap1\n              tag_66\n              swap2\n              swap1\n              tag_42\n              jump\t// in\n            tag_66:\n              tag_67\n              jump\t// in\n            tag_65:\n              mload(0x40)\n              tag_68\n              swap4\n              swap3\n              swap2\n              swap1\n              tag_69\n              jump\t// in\n            tag_68:\n              mload(0x40)\n              dup1\n              swap2\n              sub\n              swap1\n              return\n                /* \"@openzeppelin/contracts/token/ERC20/ERC20.sol\":3846:3986  function allowance(address owner, address spender) public view virtual returns (uint256) {... */\n            tag_12:\n              callvalue\n              dup1\n              iszero\n              tag_70\n              jumpi\n              0x00\n              dup1\n              revert\n            tag_70:\n              pop\n              tag_71\n              0x04\n              dup1\n              calldatasize\n              sub\n              dup2\n              add\n              swap1\n              tag_72\n              swap2\n              swap1\n              tag_73\n              jump\t// in\n            tag_72:\n              tag_74\n              jump\t// in\n            tag_71:\n              mload(0x40)\n              tag_75\n              swap2\n              swap1\n              tag_33\n              jump\t// in\n            tag_75:\n              mload(0x40)\n              dup1\n              swap2\n              sub\n              swap1\n              return\n                /* \"OpenZeppelin ERC20 - 1/pool/Pool.sol\":335:379  mapping(address => uint256) public userLimit */\n            tag_13:\n              callvalue\n              dup1\n              iszero\n              tag_76\n              jumpi\n              0x00\n              dup1\n              revert\n            tag_76:\n              pop\n              tag_77\n              0x04\n              dup1\n              calldatasize\n              sub\n              dup2\n              add\n              swap1\n              tag_78\n              swap2\n              swap1\n              tag_52\n              jump\t// in\n            tag_78:\n              tag_79\n              jump\t// in\n            tag_77:\n              mload(0x40)\n              tag_80\n              swap2\n              swap1\n              tag_33\n              jump\t// in\n            tag_80:\n              mload(0x40)\n              dup1\n              swap2\n              sub\n              swap1\n              return\n                /* \"OpenZeppelin ERC20 - 1/pool/Pool.sol\":724:1017  function addLiquidity()... */\n            tag_14:\n              tag_81\n              tag_82\n              jump\t// in\n            tag_81:\n              mload(0x40)\n              tag_83\n              swap2\n              swap1\n              tag_33\n              jump\t// in\n            tag_83:\n              mload(0x40)\n              dup1\n              swap2\n              sub\n              swap1\n              return\n                /* \"@openzeppelin/contracts/token/ERC20/ERC20.sol\":2074:2163  function name() public view virtual returns (string memory) {... */\n            tag_19:\n                /* \"@openzeppelin/contracts/token/ERC20/ERC20.sol\":2119:2132  string memory */\n              0x60\n                /* \"@openzeppelin/contracts/token/ERC20/ERC20.sol\":2151:2156  _name */\n              0x03\n                /* \"@openzeppelin/contracts/token/ERC20/ERC20.sol\":2144:2156  return _name */\n              dup1\n              sload\n              tag_85\n              swap1\n              tag_86\n              jump\t// in\n            tag_85:\n              dup1\n              0x1f\n              add\n              0x20\n              dup1\n              swap2\n              div\n              mul\n              0x20\n              add\n              mload(0x40)\n              swap1\n              dup2\n              add\n              0x40\n              mstore\n              dup1\n              swap3\n              swap2\n              swap1\n              dup2\n              dup2\n              mstore\n              0x20\n              add\n              dup3\n              dup1\n              sload\n              tag_87\n              swap1\n              tag_86\n              jump\t// in\n            tag_87:\n              dup1\n              iszero\n              tag_88\n              jumpi\n              dup1\n              0x1f\n              lt\n              tag_89\n              jumpi\n              0x0100\n              dup1\n              dup4\n              sload\n              div\n              mul\n              dup4\n              mstore\n              swap2\n              0x20\n              add\n              swap2\n              jump(tag_88)\n            tag_89:\n              dup3\n              add\n              swap2\n              swap1\n              0x00\n              mstore\n              keccak256(0x00, 0x20)\n              swap1\n            tag_90:\n              dup2\n              sload\n              dup2\n              mstore\n              swap1\n              0x01\n              add\n              swap1\n              0x20\n              add\n              dup1\n              dup4\n              gt\n              tag_90\n              jumpi\n              dup3\n              swap1\n              sub\n              0x1f\n              and\n              dup3\n              add\n              swap2\n            tag_88:\n              pop\n              pop\n              pop\n              pop\n              pop\n              swap1\n              pop\n                /* \"@openzeppelin/contracts/token/ERC20/ERC20.sol\":2074:2163  function name() public view virtual returns (string memory) {... */\n              swap1\n              jump\t// out\n                /* \"@openzeppelin/contracts/token/ERC20/ERC20.sol\":4293:4479  function approve(address spender, uint256 value) public virtual returns (bool) {... */\n            tag_26:\n                /* \"@openzeppelin/contracts/token/ERC20/ERC20.sol\":4366:4370  bool */\n              0x00\n                /* \"@openzeppelin/contracts/token/ERC20/ERC20.sol\":4382:4395  address owner */\n              dup1\n                /* \"@openzeppelin/contracts/token/ERC20/ERC20.sol\":4398:4410  _msgSender() */\n              tag_92\n                /* \"@openzeppelin/contracts/token/ERC20/ERC20.sol\":4398:4408  _msgSender */\n              tag_93\n                /* \"@openzeppelin/contracts/token/ERC20/ERC20.sol\":4398:4410  _msgSender() */\n              jump\t// in\n            tag_92:\n                /* \"@openzeppelin/contracts/token/ERC20/ERC20.sol\":4382:4410  address owner = _msgSender() */\n              swap1\n              pop\n                /* \"@openzeppelin/contracts/token/ERC20/ERC20.sol\":4420:4451  _approve(owner, spender, value) */\n              tag_94\n                /* \"@openzeppelin/contracts/token/ERC20/ERC20.sol\":4429:4434  owner */\n              dup2\n                /* \"@openzeppelin/contracts/token/ERC20/ERC20.sol\":4436:4443  spender */\n              dup6\n                /* \"@openzeppelin/contracts/token/ERC20/ERC20.sol\":4445:4450  value */\n              dup6\n                /* \"@openzeppelin/contracts/token/ERC20/ERC20.sol\":4420:4428  _approve */\n              tag_95\n                /* \"@openzeppelin/contracts/token/ERC20/ERC20.sol\":4420:4451  _approve(owner, spender, value) */\n              jump\t// in\n            tag_94:\n                /* \"@openzeppelin/contracts/token/ERC20/ERC20.sol\":4468:4472  true */\n              0x01\n                /* \"@openzeppelin/contracts/token/ERC20/ERC20.sol\":4461:4472  return true */\n              swap2\n              pop\n              pop\n                /* \"@openzeppelin/contracts/token/ERC20/ERC20.sol\":4293:4479  function approve(address spender, uint256 value) public virtual returns (bool) {... */\n              swap3\n              swap2\n              pop\n              pop\n              jump\t// out\n                /* \"@openzeppelin/contracts/token/ERC20/ERC20.sol\":3144:3241  function totalSupply() public view virtual returns (uint256) {... */\n            tag_31:\n                /* \"@openzeppelin/contracts/token/ERC20/ERC20.sol\":3196:3203  uint256 */\n              0x00\n                /* \"@openzeppelin/contracts/token/ERC20/ERC20.sol\":3222:3234  _totalSupply */\n              sload(0x02)\n                /* \"@openzeppelin/contracts/token/ERC20/ERC20.sol\":3215:3234  return _totalSupply */\n              swap1\n              pop\n                /* \"@openzeppelin/contracts/token/ERC20/ERC20.sol\":3144:3241  function totalSupply() public view virtual returns (uint256) {... */\n              swap1\n              jump\t// out\n                /* \"@openzeppelin/contracts/token/ERC20/ERC20.sol\":5039:5283  function transferFrom(address from, address to, uint256 value) public virtual returns (bool) {... */\n            tag_38:\n                /* \"@openzeppelin/contracts/token/ERC20/ERC20.sol\":5126:5130  bool */\n              0x00\n                /* \"@openzeppelin/contracts/token/ERC20/ERC20.sol\":5142:5157  address spender */\n              dup1\n                /* \"@openzeppelin/contracts/token/ERC20/ERC20.sol\":5160:5172  _msgSender() */\n              tag_98\n                /* \"@openzeppelin/contracts/token/ERC20/ERC20.sol\":5160:5170  _msgSender */\n              tag_93\n                /* \"@openzeppelin/contracts/token/ERC20/ERC20.sol\":5160:5172  _msgSender() */\n              jump\t// in\n            tag_98:\n                /* \"@openzeppelin/contracts/token/ERC20/ERC20.sol\":5142:5172  address spender = _msgSender() */\n              swap1\n              pop\n                /* \"@openzeppelin/contracts/token/ERC20/ERC20.sol\":5182:5219  _spendAllowance(from, spender, value) */\n              tag_99\n                /* \"@openzeppelin/contracts/token/ERC20/ERC20.sol\":5198:5202  from */\n              dup6\n                /* \"@openzeppelin/contracts/token/ERC20/ERC20.sol\":5204:5211  spender */\n              dup3\n                /* \"@openzeppelin/contracts/token/ERC20/ERC20.sol\":5213:5218  value */\n              dup6\n                /* \"@openzeppelin/contracts/token/ERC20/ERC20.sol\":5182:5197  _spendAllowance */\n              tag_100\n                /* \"@openzeppelin/contracts/token/ERC20/ERC20.sol\":5182:5219  _spendAllowance(from, spender, value) */\n              jump\t// in\n            tag_99:\n                /* \"@openzeppelin/contracts/token/ERC20/ERC20.sol\":5229:5255  _transfer(from, to, value) */\n              tag_101\n                /* \"@openzeppelin/contracts/token/ERC20/ERC20.sol\":5239:5243  from */\n              dup6\n                /* \"@openzeppelin/contracts/token/ERC20/ERC20.sol\":5245:5247  to */\n              dup6\n                /* \"@openzeppelin/contracts/token/ERC20/ERC20.sol\":5249:5254  value */\n              dup6\n                /* \"@openzeppelin/contracts/token/ERC20/ERC20.sol\":5229:5238  _transfer */\n              tag_102\n                /* \"@openzeppelin/contracts/token/ERC20/ERC20.sol\":5229:5255  _transfer(from, to, value) */\n              jump\t// in\n            tag_101:\n                /* \"@openzeppelin/contracts/token/ERC20/ERC20.sol\":5272:5276  true */\n              0x01\n                /* \"@openzeppelin/contracts/token/ERC20/ERC20.sol\":5265:5276  return true */\n              swap2\n              pop\n              pop\n                /* \"@openzeppelin/contracts/token/ERC20/ERC20.sol\":5039:5283  function transferFrom(address from, address to, uint256 value) public virtual returns (bool) {... */\n              swap4\n              swap3\n              pop\n              pop\n              pop\n              jump\t// out\n                /* \"OpenZeppelin ERC20 - 1/pool/Pool.sol\":1344:1580  function withdraw(uint256 amount) external payable hasUserLiqudity(amount) {... */\n            tag_43:\n                /* \"OpenZeppelin ERC20 - 1/pool/Pool.sol\":1411:1417  amount */\n              dup1\n                /* \"OpenZeppelin ERC20 - 1/pool/Pool.sol\":666:672  amount */\n              dup1\n                /* \"OpenZeppelin ERC20 - 1/pool/Pool.sol\":641:650  userLimit */\n              0x08\n                /* \"OpenZeppelin ERC20 - 1/pool/Pool.sol\":641:662  userLimit[msg.sender] */\n              0x00\n                /* \"OpenZeppelin ERC20 - 1/pool/Pool.sol\":651:661  msg.sender */\n              caller\n                /* \"OpenZeppelin ERC20 - 1/pool/Pool.sol\":641:662  userLimit[msg.sender] */\n              0xffffffffffffffffffffffffffffffffffffffff\n              and\n              0xffffffffffffffffffffffffffffffffffffffff\n              and\n              dup2\n              mstore\n              0x20\n              add\n              swap1\n              dup2\n              mstore\n              0x20\n              add\n              0x00\n              keccak256\n              sload\n                /* \"OpenZeppelin ERC20 - 1/pool/Pool.sol\":641:672  userLimit[msg.sender] >= amount */\n              lt\n              iszero\n                /* \"OpenZeppelin ERC20 - 1/pool/Pool.sol\":633:700  require(userLimit[msg.sender] >= amount, \"User hasnt enough limit\") */\n              tag_104\n              jumpi\n              mload(0x40)\n              0x08c379a000000000000000000000000000000000000000000000000000000000\n              dup2\n              mstore\n              0x04\n              add\n              tag_105\n              swap1\n              tag_106\n              jump\t// in\n            tag_105:\n              mload(0x40)\n              dup1\n              swap2\n              sub\n              swap1\n              revert\n            tag_104:\n                /* \"OpenZeppelin ERC20 - 1/pool/Pool.sol\":1430:1442  bool success */\n              0x00\n                /* \"OpenZeppelin ERC20 - 1/pool/Pool.sol\":1448:1458  msg.sender */\n              caller\n                /* \"OpenZeppelin ERC20 - 1/pool/Pool.sol\":1448:1463  msg.sender.call */\n              0xffffffffffffffffffffffffffffffffffffffff\n              and\n                /* \"OpenZeppelin ERC20 - 1/pool/Pool.sol\":1471:1477  amount */\n              dup4\n                /* \"OpenZeppelin ERC20 - 1/pool/Pool.sol\":1448:1482  msg.sender.call{value: amount}(\"\") */\n              mload(0x40)\n              tag_108\n              swap1\n              tag_109\n              jump\t// in\n            tag_108:\n              0x00\n              mload(0x40)\n              dup1\n              dup4\n              sub\n              dup2\n              dup6\n              dup8\n              gas\n              call\n              swap3\n              pop\n              pop\n              pop\n              returndatasize\n              dup1\n              0x00\n              dup2\n              eq\n              tag_112\n              jumpi\n              mload(0x40)\n              swap2\n              pop\n              and(add(returndatasize, 0x3f), not(0x1f))\n              dup3\n              add\n              0x40\n              mstore\n              returndatasize\n              dup3\n              mstore\n              returndatasize\n              0x00\n              0x20\n              dup5\n              add\n              returndatacopy\n              jump(tag_111)\n            tag_112:\n              0x60\n              swap2\n              pop\n            tag_111:\n              pop\n                /* \"OpenZeppelin ERC20 - 1/pool/Pool.sol\":1429:1482  (bool success, ) = msg.sender.call{value: amount}(\"\") */\n              pop\n              swap1\n              pop\n                /* \"OpenZeppelin ERC20 - 1/pool/Pool.sol\":1500:1507  success */\n              dup1\n                /* \"OpenZeppelin ERC20 - 1/pool/Pool.sol\":1492:1532  require(success, \"Failed to send Ether\") */\n              tag_113\n              jumpi\n              mload(0x40)\n              0x08c379a000000000000000000000000000000000000000000000000000000000\n              dup2\n              mstore\n              0x04\n              add\n              tag_114\n              swap1\n              tag_115\n              jump\t// in\n            tag_114:\n              mload(0x40)\n              dup1\n              swap2\n              sub\n              swap1\n              revert\n            tag_113:\n                /* \"OpenZeppelin ERC20 - 1/pool/Pool.sol\":1567:1573  amount */\n              dup3\n                /* \"OpenZeppelin ERC20 - 1/pool/Pool.sol\":1542:1551  userLimit */\n              0x08\n                /* \"OpenZeppelin ERC20 - 1/pool/Pool.sol\":1542:1563  userLimit[msg.sender] */\n              0x00\n                /* \"OpenZeppelin ERC20 - 1/pool/Pool.sol\":1552:1562  msg.sender */\n              caller\n                /* \"OpenZeppelin ERC20 - 1/pool/Pool.sol\":1542:1563  userLimit[msg.sender] */\n              0xffffffffffffffffffffffffffffffffffffffff\n              and\n              0xffffffffffffffffffffffffffffffffffffffff\n              and\n              dup2\n              mstore\n              0x20\n              add\n              swap1\n              dup2\n              mstore\n              0x20\n              add\n              0x00\n              keccak256\n              0x00\n                /* \"OpenZeppelin ERC20 - 1/pool/Pool.sol\":1542:1573  userLimit[msg.sender] -= amount */\n              dup3\n              dup3\n              sload\n              tag_116\n              swap2\n              swap1\n              tag_117\n              jump\t// in\n            tag_116:\n              swap3\n              pop\n              pop\n              dup2\n              swap1\n              sstore\n              pop\n                /* \"OpenZeppelin ERC20 - 1/pool/Pool.sol\":1419:1580  {... */\n              pop\n                /* \"OpenZeppelin ERC20 - 1/pool/Pool.sol\":1344:1580  function withdraw(uint256 amount) external payable hasUserLiqudity(amount) {... */\n              pop\n              pop\n              jump\t// out\n                /* \"@openzeppelin/contracts/token/ERC20/ERC20.sol\":3002:3084  function decimals() public view virtual returns (uint8) {... */\n            tag_46:\n                /* \"@openzeppelin/contracts/token/ERC20/ERC20.sol\":3051:3056  uint8 */\n              0x00\n                /* \"@openzeppelin/contracts/token/ERC20/ERC20.sol\":3075:3077  18 */\n              0x12\n                /* \"@openzeppelin/contracts/token/ERC20/ERC20.sol\":3068:3077  return 18 */\n              swap1\n              pop\n                /* \"@openzeppelin/contracts/token/ERC20/ERC20.sol\":3002:3084  function decimals() public view virtual returns (uint8) {... */\n              swap1\n              jump\t// out\n                /* \"@openzeppelin/contracts/token/ERC20/ERC20.sol\":3299:3415  function balanceOf(address account) public view virtual returns (uint256) {... */\n            tag_53:\n                /* \"@openzeppelin/contracts/token/ERC20/ERC20.sol\":3364:3371  uint256 */\n              0x00\n                /* \"@openzeppelin/contracts/token/ERC20/ERC20.sol\":3390:3399  _balances */\n              dup1\n                /* \"@openzeppelin/contracts/token/ERC20/ERC20.sol\":3390:3408  _balances[account] */\n              0x00\n                /* \"@openzeppelin/contracts/token/ERC20/ERC20.sol\":3400:3407  account */\n              dup4\n                /* \"@openzeppelin/contracts/token/ERC20/ERC20.sol\":3390:3408  _balances[account] */\n              0xffffffffffffffffffffffffffffffffffffffff\n              and\n              0xffffffffffffffffffffffffffffffffffffffff\n              and\n              dup2\n              mstore\n              0x20\n              add\n              swap1\n              dup2\n              mstore\n              0x20\n              add\n              0x00\n              keccak256\n              sload\n                /* \"@openzeppelin/contracts/token/ERC20/ERC20.sol\":3383:3408  return _balances[account] */\n              swap1\n              pop\n                /* \"@openzeppelin/contracts/token/ERC20/ERC20.sol\":3299:3415  function balanceOf(address account) public view virtual returns (uint256) {... */\n              swap2\n              swap1\n              pop\n              jump\t// out\n                /* \"@openzeppelin/contracts/token/ERC20/ERC20.sol\":2276:2369  function symbol() public view virtual returns (string memory) {... */\n            tag_57:\n                /* \"@openzeppelin/contracts/token/ERC20/ERC20.sol\":2323:2336  string memory */\n              0x60\n                /* \"@openzeppelin/contracts/token/ERC20/ERC20.sol\":2355:2362  _symbol */\n              0x04\n                /* \"@openzeppelin/contracts/token/ERC20/ERC20.sol\":2348:2362  return _symbol */\n              dup1\n              sload\n              tag_121\n              swap1\n              tag_86\n              jump\t// in\n            tag_121:\n              dup1\n              0x1f\n              add\n              0x20\n              dup1\n              swap2\n              div\n              mul\n              0x20\n              add\n              mload(0x40)\n              swap1\n              dup2\n              add\n              0x40\n              mstore\n              dup1\n              swap3\n              swap2\n              swap1\n              dup2\n              dup2\n              mstore\n              0x20\n              add\n              dup3\n              dup1\n              sload\n              tag_122\n              swap1\n              tag_86\n              jump\t// in\n            tag_122:\n              dup1\n              iszero\n              tag_123\n              jumpi\n              dup1\n              0x1f\n              lt\n              tag_124\n              jumpi\n              0x0100\n              dup1\n              dup4\n              sload\n              div\n              mul\n              dup4\n              mstore\n              swap2\n              0x20\n              add\n              swap2\n              jump(tag_123)\n            tag_124:\n              dup3\n              add\n              swap2\n              swap1\n              0x00\n              mstore\n              keccak256(0x00, 0x20)\n              swap1\n            tag_125:\n              dup2\n              sload\n              dup2\n              mstore\n              swap1\n              0x01\n              add\n              swap1\n              0x20\n              add\n              dup1\n              dup4\n              gt\n              tag_125\n              jumpi\n              dup3\n              swap1\n              sub\n              0x1f\n              and\n              dup3\n              add\n              swap2\n            tag_123:\n              pop\n              pop\n              pop\n              pop\n              pop\n              swap1\n              pop\n                /* \"@openzeppelin/contracts/token/ERC20/ERC20.sol\":2276:2369  function symbol() public view virtual returns (string memory) {... */\n              swap1\n              jump\t// out\n                /* \"@openzeppelin/contracts/token/ERC20/ERC20.sol\":3610:3788  function transfer(address to, uint256 value) public virtual returns (bool) {... */\n            tag_62:\n                /* \"@openzeppelin/contracts/token/ERC20/ERC20.sol\":3679:3683  bool */\n              0x00\n                /* \"@openzeppelin/contracts/token/ERC20/ERC20.sol\":3695:3708  address owner */\n              dup1\n                /* \"@openzeppelin/contracts/token/ERC20/ERC20.sol\":3711:3723  _msgSender() */\n              tag_127\n                /* \"@openzeppelin/contracts/token/ERC20/ERC20.sol\":3711:3721  _msgSender */\n              tag_93\n                /* \"@openzeppelin/contracts/token/ERC20/ERC20.sol\":3711:3723  _msgSender() */\n              jump\t// in\n            tag_127:\n                /* \"@openzeppelin/contracts/token/ERC20/ERC20.sol\":3695:3723  address owner = _msgSender() */\n              swap1\n              pop\n                /* \"@openzeppelin/contracts/token/ERC20/ERC20.sol\":3733:3760  _transfer(owner, to, value) */\n              tag_128\n                /* \"@openzeppelin/contracts/token/ERC20/ERC20.sol\":3743:3748  owner */\n              dup2\n                /* \"@openzeppelin/contracts/token/ERC20/ERC20.sol\":3750:3752  to */\n              dup6\n                /* \"@openzeppelin/contracts/token/ERC20/ERC20.sol\":3754:3759  value */\n              dup6\n                /* \"@openzeppelin/contracts/token/ERC20/ERC20.sol\":3733:3742  _transfer */\n              tag_102\n                /* \"@openzeppelin/contracts/token/ERC20/ERC20.sol\":3733:3760  _transfer(owner, to, value) */\n              jump\t// in\n            tag_128:\n                /* \"@openzeppelin/contracts/token/ERC20/ERC20.sol\":3777:3781  true */\n              0x01\n                /* \"@openzeppelin/contracts/token/ERC20/ERC20.sol\":3770:3781  return true */\n              swap2\n              pop\n              pop\n                /* \"@openzeppelin/contracts/token/ERC20/ERC20.sol\":3610:3788  function transfer(address to, uint256 value) public virtual returns (bool) {... */\n              swap3\n              swap2\n              pop\n              pop\n              jump\t// out\n                /* \"OpenZeppelin ERC20 - 1/pool/Pool.sol\":298:329  Liquidity[] public userLiqudity */\n            tag_67:\n              0x07\n              dup2\n              dup2\n              sload\n              dup2\n              lt\n              tag_129\n              jumpi\n              0x00\n              dup1\n              revert\n            tag_129:\n              swap1\n              0x00\n              mstore\n              keccak256(0x00, 0x20)\n              swap1\n              0x03\n              mul\n              add\n              0x00\n              swap2\n              pop\n              swap1\n              pop\n              dup1\n              0x00\n              add\n              0x00\n              swap1\n              sload\n              swap1\n              0x0100\n              exp\n              swap1\n              div\n              0xffffffffffffffffffffffffffffffffffffffff\n              and\n              swap1\n              dup1\n              0x01\n              add\n              sload\n              swap1\n              dup1\n              0x02\n              add\n              sload\n              swap1\n              pop\n              dup4\n              jump\t// out\n                /* \"@openzeppelin/contracts/token/ERC20/ERC20.sol\":3846:3986  function allowance(address owner, address spender) public view virtual returns (uint256) {... */\n            tag_74:\n                /* \"@openzeppelin/contracts/token/ERC20/ERC20.sol\":3926:3933  uint256 */\n              0x00\n                /* \"@openzeppelin/contracts/token/ERC20/ERC20.sol\":3952:3963  _allowances */\n              0x01\n                /* \"@openzeppelin/contracts/token/ERC20/ERC20.sol\":3952:3970  _allowances[owner] */\n              0x00\n                /* \"@openzeppelin/contracts/token/ERC20/ERC20.sol\":3964:3969  owner */\n              dup5\n                /* \"@openzeppelin/contracts/token/ERC20/ERC20.sol\":3952:3970  _allowances[owner] */\n              0xffffffffffffffffffffffffffffffffffffffff\n              and\n              0xffffffffffffffffffffffffffffffffffffffff\n              and\n              dup2\n              mstore\n              0x20\n              add\n              swap1\n              dup2\n              mstore\n              0x20\n              add\n              0x00\n              keccak256\n                /* \"@openzeppelin/contracts/token/ERC20/ERC20.sol\":3952:3979  _allowances[owner][spender] */\n              0x00\n                /* \"@openzeppelin/contracts/token/ERC20/ERC20.sol\":3971:3978  spender */\n              dup4\n                /* \"@openzeppelin/contracts/token/ERC20/ERC20.sol\":3952:3979  _allowances[owner][spender] */\n              0xffffffffffffffffffffffffffffffffffffffff\n              and\n              0xffffffffffffffffffffffffffffffffffffffff\n              and\n              dup2\n              mstore\n              0x20\n              add\n              swap1\n              dup2\n              mstore\n              0x20\n              add\n              0x00\n              keccak256\n              sload\n                /* \"@openzeppelin/contracts/token/ERC20/ERC20.sol\":3945:3979  return _allowances[owner][spender] */\n              swap1\n              pop\n                /* \"@openzeppelin/contracts/token/ERC20/ERC20.sol\":3846:3986  function allowance(address owner, address spender) public view virtual returns (uint256) {... */\n              swap3\n              swap2\n              pop\n              pop\n              jump\t// out\n                /* \"OpenZeppelin ERC20 - 1/pool/Pool.sol\":335:379  mapping(address => uint256) public userLimit */\n            tag_79:\n              mstore(0x20, 0x08)\n              dup1\n              0x00\n              mstore\n              keccak256(0x00, 0x40)\n              0x00\n              swap2\n              pop\n              swap1\n              pop\n              sload\n              dup2\n              jump\t// out\n                /* \"OpenZeppelin ERC20 - 1/pool/Pool.sol\":724:1017  function addLiquidity()... */\n            tag_82:\n                /* \"OpenZeppelin ERC20 - 1/pool/Pool.sol\":798:805  uint256 */\n              0x00\n                /* \"OpenZeppelin ERC20 - 1/pool/Pool.sol\":846:855  msg.value */\n              callvalue\n                /* \"OpenZeppelin ERC20 - 1/pool/Pool.sol\":821:830  userLimit */\n              0x08\n                /* \"OpenZeppelin ERC20 - 1/pool/Pool.sol\":821:842  userLimit[msg.sender] */\n              0x00\n                /* \"OpenZeppelin ERC20 - 1/pool/Pool.sol\":831:841  msg.sender */\n              caller\n                /* \"OpenZeppelin ERC20 - 1/pool/Pool.sol\":821:842  userLimit[msg.sender] */\n              0xffffffffffffffffffffffffffffffffffffffff\n              and\n              0xffffffffffffffffffffffffffffffffffffffff\n              and\n              dup2\n              mstore\n              0x20\n              add\n              swap1\n              dup2\n              mstore\n              0x20\n              add\n              0x00\n              keccak256\n              0x00\n                /* \"OpenZeppelin ERC20 - 1/pool/Pool.sol\":821:855  userLimit[msg.sender] += msg.value */\n              dup3\n              dup3\n              sload\n              tag_133\n              swap2\n              swap1\n              tag_134\n              jump\t// in\n            tag_133:\n              swap3\n              pop\n              pop\n              dup2\n              swap1\n              sstore\n              pop\n                /* \"OpenZeppelin ERC20 - 1/pool/Pool.sol\":865:877  userLiqudity */\n              0x07\n                /* \"OpenZeppelin ERC20 - 1/pool/Pool.sol\":883:932  Liquidity(msg.sender, msg.value, block.timestamp) */\n              mload(0x40)\n              dup1\n              0x60\n              add\n              0x40\n              mstore\n              dup1\n                /* \"OpenZeppelin ERC20 - 1/pool/Pool.sol\":893:903  msg.sender */\n              caller\n                /* \"OpenZeppelin ERC20 - 1/pool/Pool.sol\":883:932  Liquidity(msg.sender, msg.value, block.timestamp) */\n              0xffffffffffffffffffffffffffffffffffffffff\n              and\n              dup2\n              mstore\n              0x20\n              add\n                /* \"OpenZeppelin ERC20 - 1/pool/Pool.sol\":905:914  msg.value */\n              callvalue\n                /* \"OpenZeppelin ERC20 - 1/pool/Pool.sol\":883:932  Liquidity(msg.sender, msg.value, block.timestamp) */\n              dup2\n              mstore\n              0x20\n              add\n                /* \"OpenZeppelin ERC20 - 1/pool/Pool.sol\":916:931  block.timestamp */\n              timestamp\n                /* \"OpenZeppelin ERC20 - 1/pool/Pool.sol\":883:932  Liquidity(msg.sender, msg.value, block.timestamp) */\n              dup2\n              mstore\n              pop\n                /* \"OpenZeppelin ERC20 - 1/pool/Pool.sol\":865:933  userLiqudity.push(Liquidity(msg.sender, msg.value, block.timestamp)) */\n              swap1\n              dup1\n              0x01\n              dup2\n              sload\n              add\n              dup1\n              dup3\n              sstore\n              dup1\n              swap2\n              pop\n              pop\n              0x01\n              swap1\n              sub\n              swap1\n              0x00\n              mstore\n              keccak256(0x00, 0x20)\n              swap1\n              0x03\n              mul\n              add\n              0x00\n              swap1\n              swap2\n              swap1\n              swap2\n              swap1\n              swap2\n              pop\n              0x00\n              dup3\n              add\n              mload\n              dup2\n              0x00\n              add\n              exp(0x0100, 0x00)\n              dup2\n              sload\n              dup2\n              0xffffffffffffffffffffffffffffffffffffffff\n              mul\n              not\n              and\n              swap1\n              dup4\n              0xffffffffffffffffffffffffffffffffffffffff\n              and\n              mul\n              or\n              swap1\n              sstore\n              pop\n              0x20\n              dup3\n              add\n              mload\n              dup2\n              0x01\n              add\n              sstore\n              0x40\n              dup3\n              add\n              mload\n              dup2\n              0x02\n              add\n              sstore\n              pop\n              pop\n                /* \"OpenZeppelin ERC20 - 1/pool/Pool.sol\":943:970  mint(msg.sender, msg.value) */\n              tag_136\n                /* \"OpenZeppelin ERC20 - 1/pool/Pool.sol\":948:958  msg.sender */\n              caller\n                /* \"OpenZeppelin ERC20 - 1/pool/Pool.sol\":960:969  msg.value */\n              callvalue\n                /* \"OpenZeppelin ERC20 - 1/pool/Pool.sol\":943:947  mint */\n              tag_137\n                /* \"OpenZeppelin ERC20 - 1/pool/Pool.sol\":943:970  mint(msg.sender, msg.value) */\n              jump\t// in\n            tag_136:\n                /* \"OpenZeppelin ERC20 - 1/pool/Pool.sol\":1009:1010  1 */\n              0x01\n                /* \"OpenZeppelin ERC20 - 1/pool/Pool.sol\":987:999  userLiqudity */\n              0x07\n                /* \"OpenZeppelin ERC20 - 1/pool/Pool.sol\":987:1006  userLiqudity.length */\n              dup1\n              sload\n              swap1\n              pop\n                /* \"OpenZeppelin ERC20 - 1/pool/Pool.sol\":987:1010  userLiqudity.length - 1 */\n              tag_138\n              swap2\n              swap1\n              tag_117\n              jump\t// in\n            tag_138:\n                /* \"OpenZeppelin ERC20 - 1/pool/Pool.sol\":980:1010  return userLiqudity.length - 1 */\n              swap1\n              pop\n                /* \"OpenZeppelin ERC20 - 1/pool/Pool.sol\":724:1017  function addLiquidity()... */\n              swap1\n              jump\t// out\n                /* \"@openzeppelin/contracts/utils/Context.sol\":656:752  function _msgSender() internal view virtual returns (address) {... */\n            tag_93:\n                /* \"@openzeppelin/contracts/utils/Context.sol\":709:716  address */\n              0x00\n                /* \"@openzeppelin/contracts/utils/Context.sol\":735:745  msg.sender */\n              caller\n                /* \"@openzeppelin/contracts/utils/Context.sol\":728:745  return msg.sender */\n              swap1\n              pop\n                /* \"@openzeppelin/contracts/utils/Context.sol\":656:752  function _msgSender() internal view virtual returns (address) {... */\n              swap1\n              jump\t// out\n                /* \"@openzeppelin/contracts/token/ERC20/ERC20.sol\":8989:9117  function _approve(address owner, address spender, uint256 value) internal {... */\n            tag_95:\n                /* \"@openzeppelin/contracts/token/ERC20/ERC20.sol\":9073:9110  _approve(owner, spender, value, true) */\n              tag_141\n                /* \"@openzeppelin/contracts/token/ERC20/ERC20.sol\":9082:9087  owner */\n              dup4\n                /* \"@openzeppelin/contracts/token/ERC20/ERC20.sol\":9089:9096  spender */\n              dup4\n                /* \"@openzeppelin/contracts/token/ERC20/ERC20.sol\":9098:9103  value */\n              dup4\n                /* \"@openzeppelin/contracts/token/ERC20/ERC20.sol\":9105:9109  true */\n              0x01\n                /* \"@openzeppelin/contracts/token/ERC20/ERC20.sol\":9073:9081  _approve */\n              tag_142\n                /* \"@openzeppelin/contracts/token/ERC20/ERC20.sol\":9073:9110  _approve(owner, spender, value, true) */\n              jump\t// in\n            tag_141:\n                /* \"@openzeppelin/contracts/token/ERC20/ERC20.sol\":8989:9117  function _approve(address owner, address spender, uint256 value) internal {... */\n              pop\n              pop\n              pop\n              jump\t// out\n                /* \"@openzeppelin/contracts/token/ERC20/ERC20.sol\":10663:11140  function _spendAllowance(address owner, address spender, uint256 value) internal virtual {... */\n            tag_100:\n                /* \"@openzeppelin/contracts/token/ERC20/ERC20.sol\":10762:10786  uint256 currentAllowance */\n              0x00\n                /* \"@openzeppelin/contracts/token/ERC20/ERC20.sol\":10789:10814  allowance(owner, spender) */\n              tag_144\n                /* \"@openzeppelin/contracts/token/ERC20/ERC20.sol\":10799:10804  owner */\n              dup5\n                /* \"@openzeppelin/contracts/token/ERC20/ERC20.sol\":10806:10813  spender */\n              dup5\n                /* \"@openzeppelin/contracts/token/ERC20/ERC20.sol\":10789:10798  allowance */\n              tag_74\n                /* \"@openzeppelin/contracts/token/ERC20/ERC20.sol\":10789:10814  allowance(owner, spender) */\n              jump\t// in\n            tag_144:\n                /* \"@openzeppelin/contracts/token/ERC20/ERC20.sol\":10762:10814  uint256 currentAllowance = allowance(owner, spender) */\n              swap1\n              pop\n                /* \"@openzeppelin/contracts/token/ERC20/ERC20.sol\":10848:10865  type(uint256).max */\n              0xffffffffffffffffffffffffffffffffffffffffffffffffffffffffffffffff\n                /* \"@openzeppelin/contracts/token/ERC20/ERC20.sol\":10828:10844  currentAllowance */\n              dup2\n                /* \"@openzeppelin/contracts/token/ERC20/ERC20.sol\":10828:10865  currentAllowance != type(uint256).max */\n              eq\n                /* \"@openzeppelin/contracts/token/ERC20/ERC20.sol\":10824:11134  if (currentAllowance != type(uint256).max) {... */\n              tag_145\n              jumpi\n                /* \"@openzeppelin/contracts/token/ERC20/ERC20.sol\":10904:10909  value */\n              dup2\n                /* \"@openzeppelin/contracts/token/ERC20/ERC20.sol\":10885:10901  currentAllowance */\n              dup2\n                /* \"@openzeppelin/contracts/token/ERC20/ERC20.sol\":10885:10909  currentAllowance < value */\n              lt\n                /* \"@openzeppelin/contracts/token/ERC20/ERC20.sol\":10881:11011  if (currentAllowance < value) {... */\n              iszero\n              tag_146\n              jumpi\n                /* \"@openzeppelin/contracts/token/ERC20/ERC20.sol\":10963:10970  spender */\n              dup3\n                /* \"@openzeppelin/contracts/token/ERC20/ERC20.sol\":10972:10988  currentAllowance */\n              dup2\n                /* \"@openzeppelin/contracts/token/ERC20/ERC20.sol\":10990:10995  value */\n              dup4\n                /* \"@openzeppelin/contracts/token/ERC20/ERC20.sol\":10936:10996  ERC20InsufficientAllowance(spender, currentAllowance, value) */\n              mload(0x40)\n              0xfb8f41b200000000000000000000000000000000000000000000000000000000\n              dup2\n              mstore\n              0x04\n              add\n              tag_147\n              swap4\n              swap3\n              swap2\n              swap1\n              tag_69\n              jump\t// in\n            tag_147:\n              mload(0x40)\n              dup1\n              swap2\n              sub\n              swap1\n              revert\n                /* \"@openzeppelin/contracts/token/ERC20/ERC20.sol\":10881:11011  if (currentAllowance < value) {... */\n            tag_146:\n                /* \"@openzeppelin/contracts/token/ERC20/ERC20.sol\":11052:11109  _approve(owner, spender, currentAllowance - value, false) */\n              tag_148\n                /* \"@openzeppelin/contracts/token/ERC20/ERC20.sol\":11061:11066  owner */\n              dup5\n                /* \"@openzeppelin/contracts/token/ERC20/ERC20.sol\":11068:11075  spender */\n              dup5\n                /* \"@openzeppelin/contracts/token/ERC20/ERC20.sol\":11096:11101  value */\n              dup5\n                /* \"@openzeppelin/contracts/token/ERC20/ERC20.sol\":11077:11093  currentAllowance */\n              dup5\n                /* \"@openzeppelin/contracts/token/ERC20/ERC20.sol\":11077:11101  currentAllowance - value */\n              sub\n                /* \"@openzeppelin/contracts/token/ERC20/ERC20.sol\":11103:11108  false */\n              0x00\n                /* \"@openzeppelin/contracts/token/ERC20/ERC20.sol\":11052:11060  _approve */\n              tag_142\n                /* \"@openzeppelin/contracts/token/ERC20/ERC20.sol\":11052:11109  _approve(owner, spender, currentAllowance - value, false) */\n              jump\t// in\n            tag_148:\n                /* \"@openzeppelin/contracts/token/ERC20/ERC20.sol\":10824:11134  if (currentAllowance != type(uint256).max) {... */\n            tag_145:\n                /* \"@openzeppelin/contracts/token/ERC20/ERC20.sol\":10752:11140  {... */\n              pop\n                /* \"@openzeppelin/contracts/token/ERC20/ERC20.sol\":10663:11140  function _spendAllowance(address owner, address spender, uint256 value) internal virtual {... */\n              pop\n              pop\n              pop\n              jump\t// out\n                /* \"@openzeppelin/contracts/token/ERC20/ERC20.sol\":5656:5956  function _transfer(address from, address to, uint256 value) internal {... */\n            tag_102:\n                /* \"@openzeppelin/contracts/token/ERC20/ERC20.sol\":5755:5756  0 */\n              0x00\n                /* \"@openzeppelin/contracts/token/ERC20/ERC20.sol\":5739:5757  from == address(0) */\n              0xffffffffffffffffffffffffffffffffffffffff\n              and\n                /* \"@openzeppelin/contracts/token/ERC20/ERC20.sol\":5739:5743  from */\n              dup4\n                /* \"@openzeppelin/contracts/token/ERC20/ERC20.sol\":5739:5757  from == address(0) */\n              0xffffffffffffffffffffffffffffffffffffffff\n              and\n              sub\n                /* \"@openzeppelin/contracts/token/ERC20/ERC20.sol\":5735:5821  if (from == address(0)) {... */\n              tag_150\n              jumpi\n                /* \"@openzeppelin/contracts/token/ERC20/ERC20.sol\":5807:5808  0 */\n              0x00\n                /* \"@openzeppelin/contracts/token/ERC20/ERC20.sol\":5780:5810  ERC20InvalidSender(address(0)) */\n              mload(0x40)\n              0x96c6fd1e00000000000000000000000000000000000000000000000000000000\n              dup2\n              mstore\n              0x04\n              add\n              tag_151\n              swap2\n              swap1\n              tag_152\n              jump\t// in\n            tag_151:\n              mload(0x40)\n              dup1\n              swap2\n              sub\n              swap1\n              revert\n                /* \"@openzeppelin/contracts/token/ERC20/ERC20.sol\":5735:5821  if (from == address(0)) {... */\n            tag_150:\n                /* \"@openzeppelin/contracts/token/ERC20/ERC20.sol\":5848:5849  0 */\n              0x00\n                /* \"@openzeppelin/contracts/token/ERC20/ERC20.sol\":5834:5850  to == address(0) */\n              0xffffffffffffffffffffffffffffffffffffffff\n              and\n                /* \"@openzeppelin/contracts/token/ERC20/ERC20.sol\":5834:5836  to */\n              dup3\n                /* \"@openzeppelin/contracts/token/ERC20/ERC20.sol\":5834:5850  to == address(0) */\n              0xffffffffffffffffffffffffffffffffffffffff\n              and\n              sub\n                /* \"@openzeppelin/contracts/token/ERC20/ERC20.sol\":5830:5916  if (to == address(0)) {... */\n              tag_153\n              jumpi\n                /* \"@openzeppelin/contracts/token/ERC20/ERC20.sol\":5902:5903  0 */\n              0x00\n                /* \"@openzeppelin/contracts/token/ERC20/ERC20.sol\":5873:5905  ERC20InvalidReceiver(address(0)) */\n              mload(0x40)\n              0xec442f0500000000000000000000000000000000000000000000000000000000\n              dup2\n              mstore\n              0x04\n              add\n              tag_154\n              swap2\n              swap1\n              tag_152\n              jump\t// in\n            tag_154:\n              mload(0x40)\n              dup1\n              swap2\n              sub\n              swap1\n              revert\n                /* \"@openzeppelin/contracts/token/ERC20/ERC20.sol\":5830:5916  if (to == address(0)) {... */\n            tag_153:\n                /* \"@openzeppelin/contracts/token/ERC20/ERC20.sol\":5925:5949  _update(from, to, value) */\n              tag_155\n                /* \"@openzeppelin/contracts/token/ERC20/ERC20.sol\":5933:5937  from */\n              dup4\n                /* \"@openzeppelin/contracts/token/ERC20/ERC20.sol\":5939:5941  to */\n              dup4\n                /* \"@openzeppelin/contracts/token/ERC20/ERC20.sol\":5943:5948  value */\n              dup4\n                /* \"@openzeppelin/contracts/token/ERC20/ERC20.sol\":5925:5932  _update */\n              tag_156\n                /* \"@openzeppelin/contracts/token/ERC20/ERC20.sol\":5925:5949  _update(from, to, value) */\n              jump\t// in\n            tag_155:\n                /* \"@openzeppelin/contracts/token/ERC20/ERC20.sol\":5656:5956  function _transfer(address from, address to, uint256 value) internal {... */\n              pop\n              pop\n              pop\n              jump\t// out\n                /* \"OpenZeppelin ERC20 - 1/pool/Pool.sol\":1586:1770  function mint(address account, uint256 amount) internal {... */\n            tag_137:\n                /* \"OpenZeppelin ERC20 - 1/pool/Pool.sol\":1736:1763  mintsToken(account, amount) */\n              tag_158\n                /* \"OpenZeppelin ERC20 - 1/pool/Pool.sol\":1747:1754  account */\n              dup3\n                /* \"OpenZeppelin ERC20 - 1/pool/Pool.sol\":1756:1762  amount */\n              dup3\n                /* \"OpenZeppelin ERC20 - 1/pool/Pool.sol\":1736:1746  mintsToken */\n              tag_159\n                /* \"OpenZeppelin ERC20 - 1/pool/Pool.sol\":1736:1763  mintsToken(account, amount) */\n              jump\t// in\n            tag_158:\n                /* \"OpenZeppelin ERC20 - 1/pool/Pool.sol\":1586:1770  function mint(address account, uint256 amount) internal {... */\n              pop\n              pop\n              jump\t// out\n                /* \"@openzeppelin/contracts/token/ERC20/ERC20.sol\":9949:10381  function _approve(address owner, address spender, uint256 value, bool emitEvent) internal virtual {... */\n            tag_142:\n                /* \"@openzeppelin/contracts/token/ERC20/ERC20.sol\":10078:10079  0 */\n              0x00\n                /* \"@openzeppelin/contracts/token/ERC20/ERC20.sol\":10061:10080  owner == address(0) */\n              0xffffffffffffffffffffffffffffffffffffffff\n              and\n                /* \"@openzeppelin/contracts/token/ERC20/ERC20.sol\":10061:10066  owner */\n              dup5\n                /* \"@openzeppelin/contracts/token/ERC20/ERC20.sol\":10061:10080  owner == address(0) */\n              0xffffffffffffffffffffffffffffffffffffffff\n              and\n              sub\n                /* \"@openzeppelin/contracts/token/ERC20/ERC20.sol\":10057:10146  if (owner == address(0)) {... */\n              tag_161\n              jumpi\n                /* \"@openzeppelin/contracts/token/ERC20/ERC20.sol\":10132:10133  0 */\n              0x00\n                /* \"@openzeppelin/contracts/token/ERC20/ERC20.sol\":10103:10135  ERC20InvalidApprover(address(0)) */\n              mload(0x40)\n              0xe602df0500000000000000000000000000000000000000000000000000000000\n              dup2\n              mstore\n              0x04\n              add\n              tag_162\n              swap2\n              swap1\n              tag_152\n              jump\t// in\n            tag_162:\n              mload(0x40)\n              dup1\n              swap2\n              sub\n              swap1\n              revert\n                /* \"@openzeppelin/contracts/token/ERC20/ERC20.sol\":10057:10146  if (owner == address(0)) {... */\n            tag_161:\n                /* \"@openzeppelin/contracts/token/ERC20/ERC20.sol\":10178:10179  0 */\n              0x00\n                /* \"@openzeppelin/contracts/token/ERC20/ERC20.sol\":10159:10180  spender == address(0) */\n              0xffffffffffffffffffffffffffffffffffffffff\n              and\n                /* \"@openzeppelin/contracts/token/ERC20/ERC20.sol\":10159:10166  spender */\n              dup4\n                /* \"@openzeppelin/contracts/token/ERC20/ERC20.sol\":10159:10180  spender == address(0) */\n              0xffffffffffffffffffffffffffffffffffffffff\n              and\n              sub\n                /* \"@openzeppelin/contracts/token/ERC20/ERC20.sol\":10155:10245  if (spender == address(0)) {... */\n              tag_163\n              jumpi\n                /* \"@openzeppelin/contracts/token/ERC20/ERC20.sol\":10231:10232  0 */\n              0x00\n                /* \"@openzeppelin/contracts/token/ERC20/ERC20.sol\":10203:10234  ERC20InvalidSpender(address(0)) */\n              mload(0x40)\n              0x94280d6200000000000000000000000000000000000000000000000000000000\n              dup2\n              mstore\n              0x04\n              add\n              tag_164\n              swap2\n              swap1\n              tag_152\n              jump\t// in\n            tag_164:\n              mload(0x40)\n              dup1\n              swap2\n              sub\n              swap1\n              revert\n                /* \"@openzeppelin/contracts/token/ERC20/ERC20.sol\":10155:10245  if (spender == address(0)) {... */\n            tag_163:\n                /* \"@openzeppelin/contracts/token/ERC20/ERC20.sol\":10284:10289  value */\n              dup2\n                /* \"@openzeppelin/contracts/token/ERC20/ERC20.sol\":10254:10265  _allowances */\n              0x01\n                /* \"@openzeppelin/contracts/token/ERC20/ERC20.sol\":10254:10272  _allowances[owner] */\n              0x00\n                /* \"@openzeppelin/contracts/token/ERC20/ERC20.sol\":10266:10271  owner */\n              dup7\n                /* \"@openzeppelin/contracts/token/ERC20/ERC20.sol\":10254:10272  _allowances[owner] */\n              0xffffffffffffffffffffffffffffffffffffffff\n              and\n              0xffffffffffffffffffffffffffffffffffffffff\n              and\n              dup2\n              mstore\n              0x20\n              add\n              swap1\n              dup2\n              mstore\n              0x20\n              add\n              0x00\n              keccak256\n                /* \"@openzeppelin/contracts/token/ERC20/ERC20.sol\":10254:10281  _allowances[owner][spender] */\n              0x00\n                /* \"@openzeppelin/contracts/token/ERC20/ERC20.sol\":10273:10280  spender */\n              dup6\n                /* \"@openzeppelin/contracts/token/ERC20/ERC20.sol\":10254:10281  _allowances[owner][spender] */\n              0xffffffffffffffffffffffffffffffffffffffff\n              and\n              0xffffffffffffffffffffffffffffffffffffffff\n              and\n              dup2\n              mstore\n              0x20\n              add\n              swap1\n              dup2\n              mstore\n              0x20\n              add\n              0x00\n              keccak256\n                /* \"@openzeppelin/contracts/token/ERC20/ERC20.sol\":10254:10289  _allowances[owner][spender] = value */\n              dup2\n              swap1\n              sstore\n              pop\n                /* \"@openzeppelin/contracts/token/ERC20/ERC20.sol\":10303:10312  emitEvent */\n              dup1\n                /* \"@openzeppelin/contracts/token/ERC20/ERC20.sol\":10299:10375  if (emitEvent) {... */\n              iszero\n              tag_165\n              jumpi\n                /* \"@openzeppelin/contracts/token/ERC20/ERC20.sol\":10349:10356  spender */\n              dup3\n                /* \"@openzeppelin/contracts/token/ERC20/ERC20.sol\":10333:10364  Approval(owner, spender, value) */\n              0xffffffffffffffffffffffffffffffffffffffff\n              and\n                /* \"@openzeppelin/contracts/token/ERC20/ERC20.sol\":10342:10347  owner */\n              dup5\n                /* \"@openzeppelin/contracts/token/ERC20/ERC20.sol\":10333:10364  Approval(owner, spender, value) */\n              0xffffffffffffffffffffffffffffffffffffffff\n              and\n              0x8c5be1e5ebec7d5bd14f71427d1e84f3dd0314c0f7b2291e5b200ac8c7c3b925\n                /* \"@openzeppelin/contracts/token/ERC20/ERC20.sol\":10358:10363  value */\n              dup5\n                /* \"@openzeppelin/contracts/token/ERC20/ERC20.sol\":10333:10364  Approval(owner, spender, value) */\n              mload(0x40)\n              tag_166\n              swap2\n              swap1\n              tag_33\n              jump\t// in\n            tag_166:\n              mload(0x40)\n              dup1\n              swap2\n              sub\n              swap1\n              log3\n                /* \"@openzeppelin/contracts/token/ERC20/ERC20.sol\":10299:10375  if (emitEvent) {... */\n            tag_165:\n                /* \"@openzeppelin/contracts/token/ERC20/ERC20.sol\":9949:10381  function _approve(address owner, address spender, uint256 value, bool emitEvent) internal virtual {... */\n              pop\n              pop\n              pop\n              pop\n              jump\t// out\n                /* \"@openzeppelin/contracts/token/ERC20/ERC20.sol\":6271:7378  function _update(address from, address to, uint256 value) internal virtual {... */\n            tag_156:\n                /* \"@openzeppelin/contracts/token/ERC20/ERC20.sol\":6376:6377  0 */\n              0x00\n                /* \"@openzeppelin/contracts/token/ERC20/ERC20.sol\":6360:6378  from == address(0) */\n              0xffffffffffffffffffffffffffffffffffffffff\n              and\n                /* \"@openzeppelin/contracts/token/ERC20/ERC20.sol\":6360:6364  from */\n              dup4\n                /* \"@openzeppelin/contracts/token/ERC20/ERC20.sol\":6360:6378  from == address(0) */\n              0xffffffffffffffffffffffffffffffffffffffff\n              and\n              sub\n                /* \"@openzeppelin/contracts/token/ERC20/ERC20.sol\":6356:6896  if (from == address(0)) {... */\n              tag_168\n              jumpi\n                /* \"@openzeppelin/contracts/token/ERC20/ERC20.sol\":6512:6517  value */\n              dup1\n                /* \"@openzeppelin/contracts/token/ERC20/ERC20.sol\":6496:6508  _totalSupply */\n              0x02\n              0x00\n                /* \"@openzeppelin/contracts/token/ERC20/ERC20.sol\":6496:6517  _totalSupply += value */\n              dup3\n              dup3\n              sload\n              tag_169\n              swap2\n              swap1\n              tag_134\n              jump\t// in\n            tag_169:\n              swap3\n              pop\n              pop\n              dup2\n              swap1\n              sstore\n              pop\n                /* \"@openzeppelin/contracts/token/ERC20/ERC20.sol\":6356:6896  if (from == address(0)) {... */\n              jump(tag_170)\n            tag_168:\n                /* \"@openzeppelin/contracts/token/ERC20/ERC20.sol\":6548:6567  uint256 fromBalance */\n              0x00\n                /* \"@openzeppelin/contracts/token/ERC20/ERC20.sol\":6570:6579  _balances */\n              dup1\n                /* \"@openzeppelin/contracts/token/ERC20/ERC20.sol\":6570:6585  _balances[from] */\n              0x00\n                /* \"@openzeppelin/contracts/token/ERC20/ERC20.sol\":6580:6584  from */\n              dup6\n                /* \"@openzeppelin/contracts/token/ERC20/ERC20.sol\":6570:6585  _balances[from] */\n              0xffffffffffffffffffffffffffffffffffffffff\n              and\n              0xffffffffffffffffffffffffffffffffffffffff\n              and\n              dup2\n              mstore\n              0x20\n              add\n              swap1\n              dup2\n              mstore\n              0x20\n              add\n              0x00\n              keccak256\n              sload\n                /* \"@openzeppelin/contracts/token/ERC20/ERC20.sol\":6548:6585  uint256 fromBalance = _balances[from] */\n              swap1\n              pop\n                /* \"@openzeppelin/contracts/token/ERC20/ERC20.sol\":6617:6622  value */\n              dup2\n                /* \"@openzeppelin/contracts/token/ERC20/ERC20.sol\":6603:6614  fromBalance */\n              dup2\n                /* \"@openzeppelin/contracts/token/ERC20/ERC20.sol\":6603:6622  fromBalance < value */\n              lt\n                /* \"@openzeppelin/contracts/token/ERC20/ERC20.sol\":6599:6714  if (fromBalance < value) {... */\n              iszero\n              tag_171\n              jumpi\n                /* \"@openzeppelin/contracts/token/ERC20/ERC20.sol\":6674:6678  from */\n              dup4\n                /* \"@openzeppelin/contracts/token/ERC20/ERC20.sol\":6680:6691  fromBalance */\n              dup2\n                /* \"@openzeppelin/contracts/token/ERC20/ERC20.sol\":6693:6698  value */\n              dup4\n                /* \"@openzeppelin/contracts/token/ERC20/ERC20.sol\":6649:6699  ERC20InsufficientBalance(from, fromBalance, value) */\n              mload(0x40)\n              0xe450d38c00000000000000000000000000000000000000000000000000000000\n              dup2\n              mstore\n              0x04\n              add\n              tag_172\n              swap4\n              swap3\n              swap2\n              swap1\n              tag_69\n              jump\t// in\n            tag_172:\n              mload(0x40)\n              dup1\n              swap2\n              sub\n              swap1\n              revert\n                /* \"@openzeppelin/contracts/token/ERC20/ERC20.sol\":6599:6714  if (fromBalance < value) {... */\n            tag_171:\n                /* \"@openzeppelin/contracts/token/ERC20/ERC20.sol\":6866:6871  value */\n              dup2\n                /* \"@openzeppelin/contracts/token/ERC20/ERC20.sol\":6852:6863  fromBalance */\n              dup2\n                /* \"@openzeppelin/contracts/token/ERC20/ERC20.sol\":6852:6871  fromBalance - value */\n              sub\n                /* \"@openzeppelin/contracts/token/ERC20/ERC20.sol\":6834:6843  _balances */\n              0x00\n                /* \"@openzeppelin/contracts/token/ERC20/ERC20.sol\":6834:6849  _balances[from] */\n              dup1\n                /* \"@openzeppelin/contracts/token/ERC20/ERC20.sol\":6844:6848  from */\n              dup7\n                /* \"@openzeppelin/contracts/token/ERC20/ERC20.sol\":6834:6849  _balances[from] */\n              0xffffffffffffffffffffffffffffffffffffffff\n              and\n              0xffffffffffffffffffffffffffffffffffffffff\n              and\n              dup2\n              mstore\n              0x20\n              add\n              swap1\n              dup2\n              mstore\n              0x20\n              add\n              0x00\n              keccak256\n                /* \"@openzeppelin/contracts/token/ERC20/ERC20.sol\":6834:6871  _balances[from] = fromBalance - value */\n              dup2\n              swap1\n              sstore\n              pop\n                /* \"@openzeppelin/contracts/token/ERC20/ERC20.sol\":6534:6896  {... */\n              pop\n                /* \"@openzeppelin/contracts/token/ERC20/ERC20.sol\":6356:6896  if (from == address(0)) {... */\n            tag_170:\n                /* \"@openzeppelin/contracts/token/ERC20/ERC20.sol\":6924:6925  0 */\n              0x00\n                /* \"@openzeppelin/contracts/token/ERC20/ERC20.sol\":6910:6926  to == address(0) */\n              0xffffffffffffffffffffffffffffffffffffffff\n              and\n                /* \"@openzeppelin/contracts/token/ERC20/ERC20.sol\":6910:6912  to */\n              dup3\n                /* \"@openzeppelin/contracts/token/ERC20/ERC20.sol\":6910:6926  to == address(0) */\n              0xffffffffffffffffffffffffffffffffffffffff\n              and\n              sub\n                /* \"@openzeppelin/contracts/token/ERC20/ERC20.sol\":6906:7331  if (to == address(0)) {... */\n              tag_173\n              jumpi\n                /* \"@openzeppelin/contracts/token/ERC20/ERC20.sol\":7089:7094  value */\n              dup1\n                /* \"@openzeppelin/contracts/token/ERC20/ERC20.sol\":7073:7085  _totalSupply */\n              0x02\n              0x00\n                /* \"@openzeppelin/contracts/token/ERC20/ERC20.sol\":7073:7094  _totalSupply -= value */\n              dup3\n              dup3\n              sload\n              sub\n              swap3\n              pop\n              pop\n              dup2\n              swap1\n              sstore\n              pop\n                /* \"@openzeppelin/contracts/token/ERC20/ERC20.sol\":6906:7331  if (to == address(0)) {... */\n              jump(tag_174)\n            tag_173:\n                /* \"@openzeppelin/contracts/token/ERC20/ERC20.sol\":7301:7306  value */\n              dup1\n                /* \"@openzeppelin/contracts/token/ERC20/ERC20.sol\":7284:7293  _balances */\n              0x00\n                /* \"@openzeppelin/contracts/token/ERC20/ERC20.sol\":7284:7297  _balances[to] */\n              dup1\n                /* \"@openzeppelin/contracts/token/ERC20/ERC20.sol\":7294:7296  to */\n              dup5\n                /* \"@openzeppelin/contracts/token/ERC20/ERC20.sol\":7284:7297  _balances[to] */\n              0xffffffffffffffffffffffffffffffffffffffff\n              and\n              0xffffffffffffffffffffffffffffffffffffffff\n              and\n              dup2\n              mstore\n              0x20\n              add\n              swap1\n              dup2\n              mstore\n              0x20\n              add\n              0x00\n              keccak256\n              0x00\n                /* \"@openzeppelin/contracts/token/ERC20/ERC20.sol\":7284:7306  _balances[to] += value */\n              dup3\n              dup3\n              sload\n              add\n              swap3\n              pop\n              pop\n              dup2\n              swap1\n              sstore\n              pop\n                /* \"@openzeppelin/contracts/token/ERC20/ERC20.sol\":6906:7331  if (to == address(0)) {... */\n            tag_174:\n                /* \"@openzeppelin/contracts/token/ERC20/ERC20.sol\":7361:7363  to */\n              dup2\n                /* \"@openzeppelin/contracts/token/ERC20/ERC20.sol\":7346:7371  Transfer(from, to, value) */\n              0xffffffffffffffffffffffffffffffffffffffff\n              and\n                /* \"@openzeppelin/contracts/token/ERC20/ERC20.sol\":7355:7359  from */\n              dup4\n                /* \"@openzeppelin/contracts/token/ERC20/ERC20.sol\":7346:7371  Transfer(from, to, value) */\n              0xffffffffffffffffffffffffffffffffffffffff\n              and\n              0xddf252ad1be2c89b69c2b068fc378daa952ba7f163c4a11628f55a4df523b3ef\n                /* \"@openzeppelin/contracts/token/ERC20/ERC20.sol\":7365:7370  value */\n              dup4\n                /* \"@openzeppelin/contracts/token/ERC20/ERC20.sol\":7346:7371  Transfer(from, to, value) */\n              mload(0x40)\n              tag_175\n              swap2\n              swap1\n              tag_33\n              jump\t// in\n            tag_175:\n              mload(0x40)\n              dup1\n              swap2\n              sub\n              swap1\n              log3\n                /* \"@openzeppelin/contracts/token/ERC20/ERC20.sol\":6271:7378  function _update(address from, address to, uint256 value) internal virtual {... */\n              pop\n              pop\n              pop\n              jump\t// out\n                /* \"OpenZeppelin ERC20 - 1/pool/Pool.sol\":1776:1877  function mintsToken(address account, uint256 amount) internal {... */\n            tag_159:\n                /* \"OpenZeppelin ERC20 - 1/pool/Pool.sol\":1848:1870  _mint(account, amount) */\n              tag_177\n                /* \"OpenZeppelin ERC20 - 1/pool/Pool.sol\":1854:1861  account */\n              dup3\n                /* \"OpenZeppelin ERC20 - 1/pool/Pool.sol\":1863:1869  amount */\n              dup3\n                /* \"OpenZeppelin ERC20 - 1/pool/Pool.sol\":1848:1853  _mint */\n              tag_178\n                /* \"OpenZeppelin ERC20 - 1/pool/Pool.sol\":1848:1870  _mint(account, amount) */\n              jump\t// in\n            tag_177:\n                /* \"OpenZeppelin ERC20 - 1/pool/Pool.sol\":1776:1877  function mintsToken(address account, uint256 amount) internal {... */\n              pop\n              pop\n              jump\t// out\n                /* \"@openzeppelin/contracts/token/ERC20/ERC20.sol\":7721:7929  function _mint(address account, uint256 value) internal {... */\n            tag_178:\n                /* \"@openzeppelin/contracts/token/ERC20/ERC20.sol\":7810:7811  0 */\n              0x00\n                /* \"@openzeppelin/contracts/token/ERC20/ERC20.sol\":7791:7812  account == address(0) */\n              0xffffffffffffffffffffffffffffffffffffffff\n              and\n                /* \"@openzeppelin/contracts/token/ERC20/ERC20.sol\":7791:7798  account */\n              dup3\n                /* \"@openzeppelin/contracts/token/ERC20/ERC20.sol\":7791:7812  account == address(0) */\n              0xffffffffffffffffffffffffffffffffffffffff\n              and\n              sub\n                /* \"@openzeppelin/contracts/token/ERC20/ERC20.sol\":7787:7878  if (account == address(0)) {... */\n              tag_180\n              jumpi\n                /* \"@openzeppelin/contracts/token/ERC20/ERC20.sol\":7864:7865  0 */\n              0x00\n                /* \"@openzeppelin/contracts/token/ERC20/ERC20.sol\":7835:7867  ERC20InvalidReceiver(address(0)) */\n              mload(0x40)\n              0xec442f0500000000000000000000000000000000000000000000000000000000\n              dup2\n              mstore\n              0x04\n              add\n              tag_181\n              swap2\n              swap1\n              tag_152\n              jump\t// in\n            tag_181:\n              mload(0x40)\n              dup1\n              swap2\n              sub\n              swap1\n              revert\n                /* \"@openzeppelin/contracts/token/ERC20/ERC20.sol\":7787:7878  if (account == address(0)) {... */\n            tag_180:\n                /* \"@openzeppelin/contracts/token/ERC20/ERC20.sol\":7887:7922  _update(address(0), account, value) */\n              tag_182\n                /* \"@openzeppelin/contracts/token/ERC20/ERC20.sol\":7903:7904  0 */\n              0x00\n                /* \"@openzeppelin/contracts/token/ERC20/ERC20.sol\":7907:7914  account */\n              dup4\n                /* \"@openzeppelin/contracts/token/ERC20/ERC20.sol\":7916:7921  value */\n              dup4\n                /* \"@openzeppelin/contracts/token/ERC20/ERC20.sol\":7887:7894  _update */\n              tag_156\n                /* \"@openzeppelin/contracts/token/ERC20/ERC20.sol\":7887:7922  _update(address(0), account, value) */\n              jump\t// in\n            tag_182:\n                /* \"@openzeppelin/contracts/token/ERC20/ERC20.sol\":7721:7929  function _mint(address account, uint256 value) internal {... */\n              pop\n              pop\n              jump\t// out\n                /* \"#utility.yul\":7:106   */\n            tag_183:\n                /* \"#utility.yul\":59:65   */\n              0x00\n                /* \"#utility.yul\":93:98   */\n              dup2\n                /* \"#utility.yul\":87:99   */\n              mload\n                /* \"#utility.yul\":77:99   */\n              swap1\n              pop\n                /* \"#utility.yul\":7:106   */\n              swap2\n              swap1\n              pop\n              jump\t// out\n                /* \"#utility.yul\":112:281   */\n            tag_184:\n                /* \"#utility.yul\":196:207   */\n              0x00\n                /* \"#utility.yul\":230:236   */\n              dup3\n                /* \"#utility.yul\":225:228   */\n              dup3\n                /* \"#utility.yul\":218:237   */\n              mstore\n                /* \"#utility.yul\":270:274   */\n              0x20\n                /* \"#utility.yul\":265:268   */\n              dup3\n                /* \"#utility.yul\":261:275   */\n              add\n                /* \"#utility.yul\":246:275   */\n              swap1\n              pop\n                /* \"#utility.yul\":112:281   */\n              swap3\n              swap2\n              pop\n              pop\n              jump\t// out\n                /* \"#utility.yul\":287:533   */\n            tag_185:\n                /* \"#utility.yul\":368:369   */\n              0x00\n                /* \"#utility.yul\":378:491   */\n            tag_217:\n                /* \"#utility.yul\":392:398   */\n              dup4\n                /* \"#utility.yul\":389:390   */\n              dup2\n                /* \"#utility.yul\":386:399   */\n              lt\n                /* \"#utility.yul\":378:491   */\n              iszero\n              tag_219\n              jumpi\n                /* \"#utility.yul\":477:478   */\n              dup1\n                /* \"#utility.yul\":472:475   */\n              dup3\n                /* \"#utility.yul\":468:479   */\n              add\n                /* \"#utility.yul\":462:480   */\n              mload\n                /* \"#utility.yul\":458:459   */\n              dup2\n                /* \"#utility.yul\":453:456   */\n              dup5\n                /* \"#utility.yul\":449:460   */\n              add\n                /* \"#utility.yul\":442:481   */\n              mstore\n                /* \"#utility.yul\":414:416   */\n              0x20\n                /* \"#utility.yul\":411:412   */\n              dup2\n                /* \"#utility.yul\":407:417   */\n              add\n                /* \"#utility.yul\":402:417   */\n              swap1\n              pop\n                /* \"#utility.yul\":378:491   */\n              jump(tag_217)\n            tag_219:\n                /* \"#utility.yul\":525:526   */\n              0x00\n                /* \"#utility.yul\":516:522   */\n              dup5\n                /* \"#utility.yul\":511:514   */\n              dup5\n                /* \"#utility.yul\":507:523   */\n              add\n                /* \"#utility.yul\":500:527   */\n              mstore\n                /* \"#utility.yul\":349:533   */\n              pop\n                /* \"#utility.yul\":287:533   */\n              pop\n              pop\n              pop\n              jump\t// out\n                /* \"#utility.yul\":539:641   */\n            tag_186:\n                /* \"#utility.yul\":580:586   */\n              0x00\n                /* \"#utility.yul\":631:633   */\n              0x1f\n                /* \"#utility.yul\":627:634   */\n              not\n                /* \"#utility.yul\":622:624   */\n              0x1f\n                /* \"#utility.yul\":615:620   */\n              dup4\n                /* \"#utility.yul\":611:625   */\n              add\n                /* \"#utility.yul\":607:635   */\n              and\n                /* \"#utility.yul\":597:635   */\n              swap1\n              pop\n                /* \"#utility.yul\":539:641   */\n              swap2\n              swap1\n              pop\n              jump\t// out\n                /* \"#utility.yul\":647:1024   */\n            tag_187:\n                /* \"#utility.yul\":735:738   */\n              0x00\n                /* \"#utility.yul\":763:802   */\n              tag_222\n                /* \"#utility.yul\":796:801   */\n              dup3\n                /* \"#utility.yul\":763:802   */\n              tag_183\n              jump\t// in\n            tag_222:\n                /* \"#utility.yul\":818:889   */\n              tag_223\n                /* \"#utility.yul\":882:888   */\n              dup2\n                /* \"#utility.yul\":877:880   */\n              dup6\n                /* \"#utility.yul\":818:889   */\n              tag_184\n              jump\t// in\n            tag_223:\n                /* \"#utility.yul\":811:889   */\n              swap4\n              pop\n                /* \"#utility.yul\":898:963   */\n              tag_224\n                /* \"#utility.yul\":956:962   */\n              dup2\n                /* \"#utility.yul\":951:954   */\n              dup6\n                /* \"#utility.yul\":944:948   */\n              0x20\n                /* \"#utility.yul\":937:942   */\n              dup7\n                /* \"#utility.yul\":933:949   */\n              add\n                /* \"#utility.yul\":898:963   */\n              tag_185\n              jump\t// in\n            tag_224:\n                /* \"#utility.yul\":988:1017   */\n              tag_225\n                /* \"#utility.yul\":1010:1016   */\n              dup2\n                /* \"#utility.yul\":988:1017   */\n              tag_186\n              jump\t// in\n            tag_225:\n                /* \"#utility.yul\":983:986   */\n              dup5\n                /* \"#utility.yul\":979:1018   */\n              add\n                /* \"#utility.yul\":972:1018   */\n              swap2\n              pop\n                /* \"#utility.yul\":739:1024   */\n              pop\n                /* \"#utility.yul\":647:1024   */\n              swap3\n              swap2\n              pop\n              pop\n              jump\t// out\n                /* \"#utility.yul\":1030:1343   */\n            tag_21:\n                /* \"#utility.yul\":1143:1147   */\n              0x00\n                /* \"#utility.yul\":1181:1183   */\n              0x20\n                /* \"#utility.yul\":1170:1179   */\n              dup3\n                /* \"#utility.yul\":1166:1184   */\n              add\n                /* \"#utility.yul\":1158:1184   */\n              swap1\n              pop\n                /* \"#utility.yul\":1230:1239   */\n              dup2\n                /* \"#utility.yul\":1224:1228   */\n              dup2\n                /* \"#utility.yul\":1220:1240   */\n              sub\n                /* \"#utility.yul\":1216:1217   */\n              0x00\n                /* \"#utility.yul\":1205:1214   */\n              dup4\n                /* \"#utility.yul\":1201:1218   */\n              add\n                /* \"#utility.yul\":1194:1241   */\n              mstore\n                /* \"#utility.yul\":1258:1336   */\n              tag_227\n                /* \"#utility.yul\":1331:1335   */\n              dup2\n                /* \"#utility.yul\":1322:1328   */\n              dup5\n                /* \"#utility.yul\":1258:1336   */\n              tag_187\n              jump\t// in\n            tag_227:\n                /* \"#utility.yul\":1250:1336   */\n              swap1\n              pop\n                /* \"#utility.yul\":1030:1343   */\n              swap3\n              swap2\n              pop\n              pop\n              jump\t// out\n                /* \"#utility.yul\":1430:1547   */\n            tag_189:\n                /* \"#utility.yul\":1539:1540   */\n              0x00\n                /* \"#utility.yul\":1536:1537   */\n              dup1\n                /* \"#utility.yul\":1529:1541   */\n              revert\n                /* \"#utility.yul\":1676:1802   */\n            tag_191:\n                /* \"#utility.yul\":1713:1720   */\n              0x00\n                /* \"#utility.yul\":1753:1795   */\n              0xffffffffffffffffffffffffffffffffffffffff\n                /* \"#utility.yul\":1746:1751   */\n              dup3\n                /* \"#utility.yul\":1742:1796   */\n              and\n                /* \"#utility.yul\":1731:1796   */\n              swap1\n              pop\n                /* \"#utility.yul\":1676:1802   */\n              swap2\n              swap1\n              pop\n              jump\t// out\n                /* \"#utility.yul\":1808:1904   */\n            tag_192:\n                /* \"#utility.yul\":1845:1852   */\n              0x00\n                /* \"#utility.yul\":1874:1898   */\n              tag_233\n                /* \"#utility.yul\":1892:1897   */\n              dup3\n                /* \"#utility.yul\":1874:1898   */\n              tag_191\n              jump\t// in\n            tag_233:\n                /* \"#utility.yul\":1863:1898   */\n              swap1\n              pop\n                /* \"#utility.yul\":1808:1904   */\n              swap2\n              swap1\n              pop\n              jump\t// out\n                /* \"#utility.yul\":1910:2032   */\n            tag_193:\n                /* \"#utility.yul\":1983:2007   */\n              tag_235\n                /* \"#utility.yul\":2001:2006   */\n              dup2\n                /* \"#utility.yul\":1983:2007   */\n              tag_192\n              jump\t// in\n            tag_235:\n                /* \"#utility.yul\":1976:1981   */\n              dup2\n                /* \"#utility.yul\":1973:2008   */\n              eq\n                /* \"#utility.yul\":1963:2026   */\n              tag_236\n              jumpi\n                /* \"#utility.yul\":2022:2023   */\n              0x00\n                /* \"#utility.yul\":2019:2020   */\n              dup1\n                /* \"#utility.yul\":2012:2024   */\n              revert\n                /* \"#utility.yul\":1963:2026   */\n            tag_236:\n                /* \"#utility.yul\":1910:2032   */\n              pop\n              jump\t// out\n                /* \"#utility.yul\":2038:2177   */\n            tag_194:\n                /* \"#utility.yul\":2084:2089   */\n              0x00\n                /* \"#utility.yul\":2122:2128   */\n              dup2\n                /* \"#utility.yul\":2109:2129   */\n              calldataload\n                /* \"#utility.yul\":2100:2129   */\n              swap1\n              pop\n                /* \"#utility.yul\":2138:2171   */\n              tag_238\n                /* \"#utility.yul\":2165:2170   */\n              dup2\n                /* \"#utility.yul\":2138:2171   */\n              tag_193\n              jump\t// in\n            tag_238:\n                /* \"#utility.yul\":2038:2177   */\n              swap3\n              swap2\n              pop\n              pop\n              jump\t// out\n                /* \"#utility.yul\":2183:2260   */\n            tag_195:\n                /* \"#utility.yul\":2220:2227   */\n              0x00\n                /* \"#utility.yul\":2249:2254   */\n              dup2\n                /* \"#utility.yul\":2238:2254   */\n              swap1\n              pop\n                /* \"#utility.yul\":2183:2260   */\n              swap2\n              swap1\n              pop\n              jump\t// out\n                /* \"#utility.yul\":2266:2388   */\n            tag_196:\n                /* \"#utility.yul\":2339:2363   */\n              tag_241\n                /* \"#utility.yul\":2357:2362   */\n              dup2\n                /* \"#utility.yul\":2339:2363   */\n              tag_195\n              jump\t// in\n            tag_241:\n                /* \"#utility.yul\":2332:2337   */\n              dup2\n                /* \"#utility.yul\":2329:2364   */\n              eq\n                /* \"#utility.yul\":2319:2382   */\n              tag_242\n              jumpi\n                /* \"#utility.yul\":2378:2379   */\n              0x00\n                /* \"#utility.yul\":2375:2376   */\n              dup1\n                /* \"#utility.yul\":2368:2380   */\n              revert\n                /* \"#utility.yul\":2319:2382   */\n            tag_242:\n                /* \"#utility.yul\":2266:2388   */\n              pop\n              jump\t// out\n                /* \"#utility.yul\":2394:2533   */\n            tag_197:\n                /* \"#utility.yul\":2440:2445   */\n              0x00\n                /* \"#utility.yul\":2478:2484   */\n              dup2\n                /* \"#utility.yul\":2465:2485   */\n              calldataload\n                /* \"#utility.yul\":2456:2485   */\n              swap1\n              pop\n                /* \"#utility.yul\":2494:2527   */\n              tag_244\n                /* \"#utility.yul\":2521:2526   */\n              dup2\n                /* \"#utility.yul\":2494:2527   */\n              tag_196\n              jump\t// in\n            tag_244:\n                /* \"#utility.yul\":2394:2533   */\n              swap3\n              swap2\n              pop\n              pop\n              jump\t// out\n                /* \"#utility.yul\":2539:3013   */\n            tag_25:\n                /* \"#utility.yul\":2607:2613   */\n              0x00\n                /* \"#utility.yul\":2615:2621   */\n              dup1\n                /* \"#utility.yul\":2664:2666   */\n              0x40\n                /* \"#utility.yul\":2652:2661   */\n              dup4\n                /* \"#utility.yul\":2643:2650   */\n              dup6\n                /* \"#utility.yul\":2639:2662   */\n              sub\n                /* \"#utility.yul\":2635:2667   */\n              slt\n                /* \"#utility.yul\":2632:2751   */\n              iszero\n              tag_246\n              jumpi\n                /* \"#utility.yul\":2670:2749   */\n              tag_247\n              tag_189\n              jump\t// in\n            tag_247:\n                /* \"#utility.yul\":2632:2751   */\n            tag_246:\n                /* \"#utility.yul\":2790:2791   */\n              0x00\n                /* \"#utility.yul\":2815:2868   */\n              tag_248\n                /* \"#utility.yul\":2860:2867   */\n              dup6\n                /* \"#utility.yul\":2851:2857   */\n              dup3\n                /* \"#utility.yul\":2840:2849   */\n              dup7\n                /* \"#utility.yul\":2836:2858   */\n              add\n                /* \"#utility.yul\":2815:2868   */\n              tag_194\n              jump\t// in\n            tag_248:\n                /* \"#utility.yul\":2805:2868   */\n              swap3\n              pop\n                /* \"#utility.yul\":2761:2878   */\n              pop\n                /* \"#utility.yul\":2917:2919   */\n              0x20\n                /* \"#utility.yul\":2943:2996   */\n              tag_249\n                /* \"#utility.yul\":2988:2995   */\n              dup6\n                /* \"#utility.yul\":2979:2985   */\n              dup3\n                /* \"#utility.yul\":2968:2977   */\n              dup7\n                /* \"#utility.yul\":2964:2986   */\n              add\n                /* \"#utility.yul\":2943:2996   */\n              tag_197\n              jump\t// in\n            tag_249:\n                /* \"#utility.yul\":2933:2996   */\n              swap2\n              pop\n                /* \"#utility.yul\":2888:3006   */\n              pop\n                /* \"#utility.yul\":2539:3013   */\n              swap3\n              pop\n              swap3\n              swap1\n              pop\n              jump\t// out\n                /* \"#utility.yul\":3019:3109   */\n            tag_198:\n                /* \"#utility.yul\":3053:3060   */\n              0x00\n                /* \"#utility.yul\":3096:3101   */\n              dup2\n                /* \"#utility.yul\":3089:3102   */\n              iszero\n                /* \"#utility.yul\":3082:3103   */\n              iszero\n                /* \"#utility.yul\":3071:3103   */\n              swap1\n              pop\n                /* \"#utility.yul\":3019:3109   */\n              swap2\n              swap1\n              pop\n              jump\t// out\n                /* \"#utility.yul\":3115:3224   */\n            tag_199:\n                /* \"#utility.yul\":3196:3217   */\n              tag_252\n                /* \"#utility.yul\":3211:3216   */\n              dup2\n                /* \"#utility.yul\":3196:3217   */\n              tag_198\n              jump\t// in\n            tag_252:\n                /* \"#utility.yul\":3191:3194   */\n              dup3\n                /* \"#utility.yul\":3184:3218   */\n              mstore\n                /* \"#utility.yul\":3115:3224   */\n              pop\n              pop\n              jump\t// out\n                /* \"#utility.yul\":3230:3440   */\n            tag_28:\n                /* \"#utility.yul\":3317:3321   */\n              0x00\n                /* \"#utility.yul\":3355:3357   */\n              0x20\n                /* \"#utility.yul\":3344:3353   */\n              dup3\n                /* \"#utility.yul\":3340:3358   */\n              add\n                /* \"#utility.yul\":3332:3358   */\n              swap1\n              pop\n                /* \"#utility.yul\":3368:3433   */\n              tag_254\n                /* \"#utility.yul\":3430:3431   */\n              0x00\n                /* \"#utility.yul\":3419:3428   */\n              dup4\n                /* \"#utility.yul\":3415:3432   */\n              add\n                /* \"#utility.yul\":3406:3412   */\n              dup5\n                /* \"#utility.yul\":3368:3433   */\n              tag_199\n              jump\t// in\n            tag_254:\n                /* \"#utility.yul\":3230:3440   */\n              swap3\n              swap2\n              pop\n              pop\n              jump\t// out\n                /* \"#utility.yul\":3446:3564   */\n            tag_200:\n                /* \"#utility.yul\":3533:3557   */\n              tag_256\n                /* \"#utility.yul\":3551:3556   */\n              dup2\n                /* \"#utility.yul\":3533:3557   */\n              tag_195\n              jump\t// in\n            tag_256:\n                /* \"#utility.yul\":3528:3531   */\n              dup3\n                /* \"#utility.yul\":3521:3558   */\n              mstore\n                /* \"#utility.yul\":3446:3564   */\n              pop\n              pop\n              jump\t// out\n                /* \"#utility.yul\":3570:3792   */\n            tag_33:\n                /* \"#utility.yul\":3663:3667   */\n              0x00\n                /* \"#utility.yul\":3701:3703   */\n              0x20\n                /* \"#utility.yul\":3690:3699   */\n              dup3\n                /* \"#utility.yul\":3686:3704   */\n              add\n                /* \"#utility.yul\":3678:3704   */\n              swap1\n              pop\n                /* \"#utility.yul\":3714:3785   */\n              tag_258\n                /* \"#utility.yul\":3782:3783   */\n              0x00\n                /* \"#utility.yul\":3771:3780   */\n              dup4\n                /* \"#utility.yul\":3767:3784   */\n              add\n                /* \"#utility.yul\":3758:3764   */\n              dup5\n                /* \"#utility.yul\":3714:3785   */\n              tag_200\n              jump\t// in\n            tag_258:\n                /* \"#utility.yul\":3570:3792   */\n              swap3\n              swap2\n              pop\n              pop\n              jump\t// out\n                /* \"#utility.yul\":3798:4417   */\n            tag_37:\n                /* \"#utility.yul\":3875:3881   */\n              0x00\n                /* \"#utility.yul\":3883:3889   */\n              dup1\n                /* \"#utility.yul\":3891:3897   */\n              0x00\n                /* \"#utility.yul\":3940:3942   */\n              0x60\n                /* \"#utility.yul\":3928:3937   */\n              dup5\n                /* \"#utility.yul\":3919:3926   */\n              dup7\n                /* \"#utility.yul\":3915:3938   */\n              sub\n                /* \"#utility.yul\":3911:3943   */\n              slt\n                /* \"#utility.yul\":3908:4027   */\n              iszero\n              tag_260\n              jumpi\n                /* \"#utility.yul\":3946:4025   */\n              tag_261\n              tag_189\n              jump\t// in\n            tag_261:\n                /* \"#utility.yul\":3908:4027   */\n            tag_260:\n                /* \"#utility.yul\":4066:4067   */\n              0x00\n                /* \"#utility.yul\":4091:4144   */\n              tag_262\n                /* \"#utility.yul\":4136:4143   */\n              dup7\n                /* \"#utility.yul\":4127:4133   */\n              dup3\n                /* \"#utility.yul\":4116:4125   */\n              dup8\n                /* \"#utility.yul\":4112:4134   */\n              add\n                /* \"#utility.yul\":4091:4144   */\n              tag_194\n              jump\t// in\n            tag_262:\n                /* \"#utility.yul\":4081:4144   */\n              swap4\n              pop\n                /* \"#utility.yul\":4037:4154   */\n              pop\n                /* \"#utility.yul\":4193:4195   */\n              0x20\n                /* \"#utility.yul\":4219:4272   */\n              tag_263\n                /* \"#utility.yul\":4264:4271   */\n              dup7\n                /* \"#utility.yul\":4255:4261   */\n              dup3\n                /* \"#utility.yul\":4244:4253   */\n              dup8\n                /* \"#utility.yul\":4240:4262   */\n              add\n                /* \"#utility.yul\":4219:4272   */\n              tag_194\n              jump\t// in\n            tag_263:\n                /* \"#utility.yul\":4209:4272   */\n              swap3\n              pop\n                /* \"#utility.yul\":4164:4282   */\n              pop\n                /* \"#utility.yul\":4321:4323   */\n              0x40\n                /* \"#utility.yul\":4347:4400   */\n              tag_264\n                /* \"#utility.yul\":4392:4399   */\n              dup7\n                /* \"#utility.yul\":4383:4389   */\n              dup3\n                /* \"#utility.yul\":4372:4381   */\n              dup8\n                /* \"#utility.yul\":4368:4390   */\n              add\n                /* \"#utility.yul\":4347:4400   */\n              tag_197\n              jump\t// in\n            tag_264:\n                /* \"#utility.yul\":4337:4400   */\n              swap2\n              pop\n                /* \"#utility.yul\":4292:4410   */\n              pop\n                /* \"#utility.yul\":3798:4417   */\n              swap3\n              pop\n              swap3\n              pop\n              swap3\n              jump\t// out\n                /* \"#utility.yul\":4423:4752   */\n            tag_42:\n                /* \"#utility.yul\":4482:4488   */\n              0x00\n                /* \"#utility.yul\":4531:4533   */\n              0x20\n                /* \"#utility.yul\":4519:4528   */\n              dup3\n                /* \"#utility.yul\":4510:4517   */\n              dup5\n                /* \"#utility.yul\":4506:4529   */\n              sub\n                /* \"#utility.yul\":4502:4534   */\n              slt\n                /* \"#utility.yul\":4499:4618   */\n              iszero\n              tag_266\n              jumpi\n                /* \"#utility.yul\":4537:4616   */\n              tag_267\n              tag_189\n              jump\t// in\n            tag_267:\n                /* \"#utility.yul\":4499:4618   */\n            tag_266:\n                /* \"#utility.yul\":4657:4658   */\n              0x00\n                /* \"#utility.yul\":4682:4735   */\n              tag_268\n                /* \"#utility.yul\":4727:4734   */\n              dup5\n                /* \"#utility.yul\":4718:4724   */\n              dup3\n                /* \"#utility.yul\":4707:4716   */\n              dup6\n                /* \"#utility.yul\":4703:4725   */\n              add\n                /* \"#utility.yul\":4682:4735   */\n              tag_197\n              jump\t// in\n            tag_268:\n                /* \"#utility.yul\":4672:4735   */\n              swap2\n              pop\n                /* \"#utility.yul\":4628:4745   */\n              pop\n                /* \"#utility.yul\":4423:4752   */\n              swap3\n              swap2\n              pop\n              pop\n              jump\t// out\n                /* \"#utility.yul\":4758:4844   */\n            tag_201:\n                /* \"#utility.yul\":4793:4800   */\n              0x00\n                /* \"#utility.yul\":4833:4837   */\n              0xff\n                /* \"#utility.yul\":4826:4831   */\n              dup3\n                /* \"#utility.yul\":4822:4838   */\n              and\n                /* \"#utility.yul\":4811:4838   */\n              swap1\n              pop\n                /* \"#utility.yul\":4758:4844   */\n              swap2\n              swap1\n              pop\n              jump\t// out\n                /* \"#utility.yul\":4850:4962   */\n            tag_202:\n                /* \"#utility.yul\":4933:4955   */\n              tag_271\n                /* \"#utility.yul\":4949:4954   */\n              dup2\n                /* \"#utility.yul\":4933:4955   */\n              tag_201\n              jump\t// in\n            tag_271:\n                /* \"#utility.yul\":4928:4931   */\n              dup3\n                /* \"#utility.yul\":4921:4956   */\n              mstore\n                /* \"#utility.yul\":4850:4962   */\n              pop\n              pop\n              jump\t// out\n                /* \"#utility.yul\":4968:5182   */\n            tag_48:\n                /* \"#utility.yul\":5057:5061   */\n              0x00\n                /* \"#utility.yul\":5095:5097   */\n              0x20\n                /* \"#utility.yul\":5084:5093   */\n              dup3\n                /* \"#utility.yul\":5080:5098   */\n              add\n                /* \"#utility.yul\":5072:5098   */\n              swap1\n              pop\n                /* \"#utility.yul\":5108:5175   */\n              tag_273\n                /* \"#utility.yul\":5172:5173   */\n              0x00\n                /* \"#utility.yul\":5161:5170   */\n              dup4\n                /* \"#utility.yul\":5157:5174   */\n              add\n                /* \"#utility.yul\":5148:5154   */\n              dup5\n                /* \"#utility.yul\":5108:5175   */\n              tag_202\n              jump\t// in\n            tag_273:\n                /* \"#utility.yul\":4968:5182   */\n              swap3\n              swap2\n              pop\n              pop\n              jump\t// out\n                /* \"#utility.yul\":5188:5517   */\n            tag_52:\n                /* \"#utility.yul\":5247:5253   */\n              0x00\n                /* \"#utility.yul\":5296:5298   */\n              0x20\n                /* \"#utility.yul\":5284:5293   */\n              dup3\n                /* \"#utility.yul\":5275:5282   */\n              dup5\n                /* \"#utility.yul\":5271:5294   */\n              sub\n                /* \"#utility.yul\":5267:5299   */\n              slt\n                /* \"#utility.yul\":5264:5383   */\n              iszero\n              tag_275\n              jumpi\n                /* \"#utility.yul\":5302:5381   */\n              tag_276\n              tag_189\n              jump\t// in\n            tag_276:\n                /* \"#utility.yul\":5264:5383   */\n            tag_275:\n                /* \"#utility.yul\":5422:5423   */\n              0x00\n                /* \"#utility.yul\":5447:5500   */\n              tag_277\n                /* \"#utility.yul\":5492:5499   */\n              dup5\n                /* \"#utility.yul\":5483:5489   */\n              dup3\n                /* \"#utility.yul\":5472:5481   */\n              dup6\n                /* \"#utility.yul\":5468:5490   */\n              add\n                /* \"#utility.yul\":5447:5500   */\n              tag_194\n              jump\t// in\n            tag_277:\n                /* \"#utility.yul\":5437:5500   */\n              swap2\n              pop\n                /* \"#utility.yul\":5393:5510   */\n              pop\n                /* \"#utility.yul\":5188:5517   */\n              swap3\n              swap2\n              pop\n              pop\n              jump\t// out\n                /* \"#utility.yul\":5523:5641   */\n            tag_203:\n                /* \"#utility.yul\":5610:5634   */\n              tag_279\n                /* \"#utility.yul\":5628:5633   */\n              dup2\n                /* \"#utility.yul\":5610:5634   */\n              tag_192\n              jump\t// in\n            tag_279:\n                /* \"#utility.yul\":5605:5608   */\n              dup3\n                /* \"#utility.yul\":5598:5635   */\n              mstore\n                /* \"#utility.yul\":5523:5641   */\n              pop\n              pop\n              jump\t// out\n                /* \"#utility.yul\":5647:6089   */\n            tag_69:\n                /* \"#utility.yul\":5796:5800   */\n              0x00\n                /* \"#utility.yul\":5834:5836   */\n              0x60\n                /* \"#utility.yul\":5823:5832   */\n              dup3\n                /* \"#utility.yul\":5819:5837   */\n              add\n                /* \"#utility.yul\":5811:5837   */\n              swap1\n              pop\n                /* \"#utility.yul\":5847:5918   */\n              tag_281\n                /* \"#utility.yul\":5915:5916   */\n              0x00\n                /* \"#utility.yul\":5904:5913   */\n              dup4\n                /* \"#utility.yul\":5900:5917   */\n              add\n                /* \"#utility.yul\":5891:5897   */\n              dup7\n                /* \"#utility.yul\":5847:5918   */\n              tag_203\n              jump\t// in\n            tag_281:\n                /* \"#utility.yul\":5928:6000   */\n              tag_282\n                /* \"#utility.yul\":5996:5998   */\n              0x20\n                /* \"#utility.yul\":5985:5994   */\n              dup4\n                /* \"#utility.yul\":5981:5999   */\n              add\n                /* \"#utility.yul\":5972:5978   */\n              dup6\n                /* \"#utility.yul\":5928:6000   */\n              tag_200\n              jump\t// in\n            tag_282:\n                /* \"#utility.yul\":6010:6082   */\n              tag_283\n                /* \"#utility.yul\":6078:6080   */\n              0x40\n                /* \"#utility.yul\":6067:6076   */\n              dup4\n                /* \"#utility.yul\":6063:6081   */\n              add\n                /* \"#utility.yul\":6054:6060   */\n              dup5\n                /* \"#utility.yul\":6010:6082   */\n              tag_200\n              jump\t// in\n            tag_283:\n                /* \"#utility.yul\":5647:6089   */\n              swap5\n              swap4\n              pop\n              pop\n              pop\n              pop\n              jump\t// out\n                /* \"#utility.yul\":6095:6569   */\n            tag_73:\n                /* \"#utility.yul\":6163:6169   */\n              0x00\n                /* \"#utility.yul\":6171:6177   */\n              dup1\n                /* \"#utility.yul\":6220:6222   */\n              0x40\n                /* \"#utility.yul\":6208:6217   */\n              dup4\n                /* \"#utility.yul\":6199:6206   */\n              dup6\n                /* \"#utility.yul\":6195:6218   */\n              sub\n                /* \"#utility.yul\":6191:6223   */\n              slt\n                /* \"#utility.yul\":6188:6307   */\n              iszero\n              tag_285\n              jumpi\n                /* \"#utility.yul\":6226:6305   */\n              tag_286\n              tag_189\n              jump\t// in\n            tag_286:\n                /* \"#utility.yul\":6188:6307   */\n            tag_285:\n                /* \"#utility.yul\":6346:6347   */\n              0x00\n                /* \"#utility.yul\":6371:6424   */\n              tag_287\n                /* \"#utility.yul\":6416:6423   */\n              dup6\n                /* \"#utility.yul\":6407:6413   */\n              dup3\n                /* \"#utility.yul\":6396:6405   */\n              dup7\n                /* \"#utility.yul\":6392:6414   */\n              add\n                /* \"#utility.yul\":6371:6424   */\n              tag_194\n              jump\t// in\n            tag_287:\n                /* \"#utility.yul\":6361:6424   */\n              swap3\n              pop\n                /* \"#utility.yul\":6317:6434   */\n              pop\n                /* \"#utility.yul\":6473:6475   */\n              0x20\n                /* \"#utility.yul\":6499:6552   */\n              tag_288\n                /* \"#utility.yul\":6544:6551   */\n              dup6\n                /* \"#utility.yul\":6535:6541   */\n              dup3\n                /* \"#utility.yul\":6524:6533   */\n              dup7\n                /* \"#utility.yul\":6520:6542   */\n              add\n                /* \"#utility.yul\":6499:6552   */\n              tag_194\n              jump\t// in\n            tag_288:\n                /* \"#utility.yul\":6489:6552   */\n              swap2\n              pop\n                /* \"#utility.yul\":6444:6562   */\n              pop\n                /* \"#utility.yul\":6095:6569   */\n              swap3\n              pop\n              swap3\n              swap1\n              pop\n              jump\t// out\n                /* \"#utility.yul\":6575:6755   */\n            tag_204:\n                /* \"#utility.yul\":6623:6700   */\n              0x4e487b7100000000000000000000000000000000000000000000000000000000\n                /* \"#utility.yul\":6620:6621   */\n              0x00\n                /* \"#utility.yul\":6613:6701   */\n              mstore\n                /* \"#utility.yul\":6720:6724   */\n              0x22\n                /* \"#utility.yul\":6717:6718   */\n              0x04\n                /* \"#utility.yul\":6710:6725   */\n              mstore\n                /* \"#utility.yul\":6744:6748   */\n              0x24\n                /* \"#utility.yul\":6741:6742   */\n              0x00\n                /* \"#utility.yul\":6734:6749   */\n              revert\n                /* \"#utility.yul\":6761:7081   */\n            tag_86:\n                /* \"#utility.yul\":6805:6811   */\n              0x00\n                /* \"#utility.yul\":6842:6843   */\n              0x02\n                /* \"#utility.yul\":6836:6840   */\n              dup3\n                /* \"#utility.yul\":6832:6844   */\n              div\n                /* \"#utility.yul\":6822:6844   */\n              swap1\n              pop\n                /* \"#utility.yul\":6889:6890   */\n              0x01\n                /* \"#utility.yul\":6883:6887   */\n              dup3\n                /* \"#utility.yul\":6879:6891   */\n              and\n                /* \"#utility.yul\":6910:6928   */\n              dup1\n                /* \"#utility.yul\":6900:6981   */\n              tag_291\n              jumpi\n                /* \"#utility.yul\":6966:6970   */\n              0x7f\n                /* \"#utility.yul\":6958:6964   */\n              dup3\n                /* \"#utility.yul\":6954:6971   */\n              and\n                /* \"#utility.yul\":6944:6971   */\n              swap2\n              pop\n                /* \"#utility.yul\":6900:6981   */\n            tag_291:\n                /* \"#utility.yul\":7028:7030   */\n              0x20\n                /* \"#utility.yul\":7020:7026   */\n              dup3\n                /* \"#utility.yul\":7017:7031   */\n              lt\n                /* \"#utility.yul\":6997:7015   */\n              dup2\n                /* \"#utility.yul\":6994:7032   */\n              sub\n                /* \"#utility.yul\":6991:7075   */\n              tag_292\n              jumpi\n                /* \"#utility.yul\":7047:7065   */\n              tag_293\n              tag_204\n              jump\t// in\n            tag_293:\n                /* \"#utility.yul\":6991:7075   */\n            tag_292:\n                /* \"#utility.yul\":6812:7081   */\n              pop\n                /* \"#utility.yul\":6761:7081   */\n              swap2\n              swap1\n              pop\n              jump\t// out\n                /* \"#utility.yul\":7087:7260   */\n            tag_205:\n                /* \"#utility.yul\":7227:7252   */\n              0x55736572206861736e7420656e6f756768206c696d6974000000000000000000\n                /* \"#utility.yul\":7223:7224   */\n              0x00\n                /* \"#utility.yul\":7215:7221   */\n              dup3\n                /* \"#utility.yul\":7211:7225   */\n              add\n                /* \"#utility.yul\":7204:7253   */\n              mstore\n                /* \"#utility.yul\":7087:7260   */\n              pop\n              jump\t// out\n                /* \"#utility.yul\":7266:7632   */\n            tag_206:\n                /* \"#utility.yul\":7408:7411   */\n              0x00\n                /* \"#utility.yul\":7429:7496   */\n              tag_296\n                /* \"#utility.yul\":7493:7495   */\n              0x17\n                /* \"#utility.yul\":7488:7491   */\n              dup4\n                /* \"#utility.yul\":7429:7496   */\n              tag_184\n              jump\t// in\n            tag_296:\n                /* \"#utility.yul\":7422:7496   */\n              swap2\n              pop\n                /* \"#utility.yul\":7505:7598   */\n              tag_297\n                /* \"#utility.yul\":7594:7597   */\n              dup3\n                /* \"#utility.yul\":7505:7598   */\n              tag_205\n              jump\t// in\n            tag_297:\n                /* \"#utility.yul\":7623:7625   */\n              0x20\n                /* \"#utility.yul\":7618:7621   */\n              dup3\n                /* \"#utility.yul\":7614:7626   */\n              add\n                /* \"#utility.yul\":7607:7626   */\n              swap1\n              pop\n                /* \"#utility.yul\":7266:7632   */\n              swap2\n              swap1\n              pop\n              jump\t// out\n                /* \"#utility.yul\":7638:8057   */\n            tag_106:\n                /* \"#utility.yul\":7804:7808   */\n              0x00\n                /* \"#utility.yul\":7842:7844   */\n              0x20\n                /* \"#utility.yul\":7831:7840   */\n              dup3\n                /* \"#utility.yul\":7827:7845   */\n              add\n                /* \"#utility.yul\":7819:7845   */\n              swap1\n              pop\n                /* \"#utility.yul\":7891:7900   */\n              dup2\n                /* \"#utility.yul\":7885:7889   */\n              dup2\n                /* \"#utility.yul\":7881:7901   */\n              sub\n                /* \"#utility.yul\":7877:7878   */\n              0x00\n                /* \"#utility.yul\":7866:7875   */\n              dup4\n                /* \"#utility.yul\":7862:7879   */\n              add\n                /* \"#utility.yul\":7855:7902   */\n              mstore\n                /* \"#utility.yul\":7919:8050   */\n              tag_299\n                /* \"#utility.yul\":8045:8049   */\n              dup2\n                /* \"#utility.yul\":7919:8050   */\n              tag_206\n              jump\t// in\n            tag_299:\n                /* \"#utility.yul\":7911:8050   */\n              swap1\n              pop\n                /* \"#utility.yul\":7638:8057   */\n              swap2\n              swap1\n              pop\n              jump\t// out\n                /* \"#utility.yul\":8063:8210   */\n            tag_207:\n                /* \"#utility.yul\":8164:8175   */\n              0x00\n                /* \"#utility.yul\":8201:8204   */\n              dup2\n                /* \"#utility.yul\":8186:8204   */\n              swap1\n              pop\n                /* \"#utility.yul\":8063:8210   */\n              swap3\n              swap2\n              pop\n              pop\n              jump\t// out\n                /* \"#utility.yul\":8216:8330   */\n            tag_208:\n              pop\n              jump\t// out\n                /* \"#utility.yul\":8336:8734   */\n            tag_209:\n                /* \"#utility.yul\":8495:8498   */\n              0x00\n                /* \"#utility.yul\":8516:8599   */\n              tag_303\n                /* \"#utility.yul\":8597:8598   */\n              0x00\n                /* \"#utility.yul\":8592:8595   */\n              dup4\n                /* \"#utility.yul\":8516:8599   */\n              tag_207\n              jump\t// in\n            tag_303:\n                /* \"#utility.yul\":8509:8599   */\n              swap2\n              pop\n                /* \"#utility.yul\":8608:8701   */\n              tag_304\n                /* \"#utility.yul\":8697:8700   */\n              dup3\n                /* \"#utility.yul\":8608:8701   */\n              tag_208\n              jump\t// in\n            tag_304:\n                /* \"#utility.yul\":8726:8727   */\n              0x00\n                /* \"#utility.yul\":8721:8724   */\n              dup3\n                /* \"#utility.yul\":8717:8728   */\n              add\n                /* \"#utility.yul\":8710:8728   */\n              swap1\n              pop\n                /* \"#utility.yul\":8336:8734   */\n              swap2\n              swap1\n              pop\n              jump\t// out\n                /* \"#utility.yul\":8740:9119   */\n            tag_109:\n                /* \"#utility.yul\":8924:8927   */\n              0x00\n                /* \"#utility.yul\":8946:9093   */\n              tag_306\n                /* \"#utility.yul\":9089:9092   */\n              dup3\n                /* \"#utility.yul\":8946:9093   */\n              tag_209\n              jump\t// in\n            tag_306:\n                /* \"#utility.yul\":8939:9093   */\n              swap2\n              pop\n                /* \"#utility.yul\":9110:9113   */\n              dup2\n                /* \"#utility.yul\":9103:9113   */\n              swap1\n              pop\n                /* \"#utility.yul\":8740:9119   */\n              swap2\n              swap1\n              pop\n              jump\t// out\n                /* \"#utility.yul\":9125:9295   */\n            tag_210:\n                /* \"#utility.yul\":9265:9287   */\n              0x4661696c656420746f2073656e64204574686572000000000000000000000000\n                /* \"#utility.yul\":9261:9262   */\n              0x00\n                /* \"#utility.yul\":9253:9259   */\n              dup3\n                /* \"#utility.yul\":9249:9263   */\n              add\n                /* \"#utility.yul\":9242:9288   */\n              mstore\n                /* \"#utility.yul\":9125:9295   */\n              pop\n              jump\t// out\n                /* \"#utility.yul\":9301:9667   */\n            tag_211:\n                /* \"#utility.yul\":9443:9446   */\n              0x00\n                /* \"#utility.yul\":9464:9531   */\n              tag_309\n                /* \"#utility.yul\":9528:9530   */\n              0x14\n                /* \"#utility.yul\":9523:9526   */\n              dup4\n                /* \"#utility.yul\":9464:9531   */\n              tag_184\n              jump\t// in\n            tag_309:\n                /* \"#utility.yul\":9457:9531   */\n              swap2\n              pop\n                /* \"#utility.yul\":9540:9633   */\n              tag_310\n                /* \"#utility.yul\":9629:9632   */\n              dup3\n                /* \"#utility.yul\":9540:9633   */\n              tag_210\n              jump\t// in\n            tag_310:\n                /* \"#utility.yul\":9658:9660   */\n              0x20\n                /* \"#utility.yul\":9653:9656   */\n              dup3\n                /* \"#utility.yul\":9649:9661   */\n              add\n                /* \"#utility.yul\":9642:9661   */\n              swap1\n              pop\n                /* \"#utility.yul\":9301:9667   */\n              swap2\n              swap1\n              pop\n              jump\t// out\n                /* \"#utility.yul\":9673:10092   */\n            tag_115:\n                /* \"#utility.yul\":9839:9843   */\n              0x00\n                /* \"#utility.yul\":9877:9879   */\n              0x20\n                /* \"#utility.yul\":9866:9875   */\n              dup3\n                /* \"#utility.yul\":9862:9880   */\n              add\n                /* \"#utility.yul\":9854:9880   */\n              swap1\n              pop\n                /* \"#utility.yul\":9926:9935   */\n              dup2\n                /* \"#utility.yul\":9920:9924   */\n              dup2\n                /* \"#utility.yul\":9916:9936   */\n              sub\n                /* \"#utility.yul\":9912:9913   */\n              0x00\n                /* \"#utility.yul\":9901:9910   */\n              dup4\n                /* \"#utility.yul\":9897:9914   */\n              add\n                /* \"#utility.yul\":9890:9937   */\n              mstore\n                /* \"#utility.yul\":9954:10085   */\n              tag_312\n                /* \"#utility.yul\":10080:10084   */\n              dup2\n                /* \"#utility.yul\":9954:10085   */\n              tag_211\n              jump\t// in\n            tag_312:\n                /* \"#utility.yul\":9946:10085   */\n              swap1\n              pop\n                /* \"#utility.yul\":9673:10092   */\n              swap2\n              swap1\n              pop\n              jump\t// out\n                /* \"#utility.yul\":10098:10278   */\n            tag_212:\n                /* \"#utility.yul\":10146:10223   */\n              0x4e487b7100000000000000000000000000000000000000000000000000000000\n                /* \"#utility.yul\":10143:10144   */\n              0x00\n                /* \"#utility.yul\":10136:10224   */\n              mstore\n                /* \"#utility.yul\":10243:10247   */\n              0x11\n                /* \"#utility.yul\":10240:10241   */\n              0x04\n                /* \"#utility.yul\":10233:10248   */\n              mstore\n                /* \"#utility.yul\":10267:10271   */\n              0x24\n                /* \"#utility.yul\":10264:10265   */\n              0x00\n                /* \"#utility.yul\":10257:10272   */\n              revert\n                /* \"#utility.yul\":10284:10478   */\n            tag_117:\n                /* \"#utility.yul\":10324:10328   */\n              0x00\n                /* \"#utility.yul\":10344:10364   */\n              tag_315\n                /* \"#utility.yul\":10362:10363   */\n              dup3\n                /* \"#utility.yul\":10344:10364   */\n              tag_195\n              jump\t// in\n            tag_315:\n                /* \"#utility.yul\":10339:10364   */\n              swap2\n              pop\n                /* \"#utility.yul\":10378:10398   */\n              tag_316\n                /* \"#utility.yul\":10396:10397   */\n              dup4\n                /* \"#utility.yul\":10378:10398   */\n              tag_195\n              jump\t// in\n            tag_316:\n                /* \"#utility.yul\":10373:10398   */\n              swap3\n              pop\n                /* \"#utility.yul\":10422:10423   */\n              dup3\n                /* \"#utility.yul\":10419:10420   */\n              dup3\n                /* \"#utility.yul\":10415:10424   */\n              sub\n                /* \"#utility.yul\":10407:10424   */\n              swap1\n              pop\n                /* \"#utility.yul\":10446:10447   */\n              dup2\n                /* \"#utility.yul\":10440:10444   */\n              dup2\n                /* \"#utility.yul\":10437:10448   */\n              gt\n                /* \"#utility.yul\":10434:10471   */\n              iszero\n              tag_317\n              jumpi\n                /* \"#utility.yul\":10451:10469   */\n              tag_318\n              tag_212\n              jump\t// in\n            tag_318:\n                /* \"#utility.yul\":10434:10471   */\n            tag_317:\n                /* \"#utility.yul\":10284:10478   */\n              swap3\n              swap2\n              pop\n              pop\n              jump\t// out\n                /* \"#utility.yul\":10484:10675   */\n            tag_134:\n                /* \"#utility.yul\":10524:10527   */\n              0x00\n                /* \"#utility.yul\":10543:10563   */\n              tag_320\n                /* \"#utility.yul\":10561:10562   */\n              dup3\n                /* \"#utility.yul\":10543:10563   */\n              tag_195\n              jump\t// in\n            tag_320:\n                /* \"#utility.yul\":10538:10563   */\n              swap2\n              pop\n                /* \"#utility.yul\":10577:10597   */\n              tag_321\n                /* \"#utility.yul\":10595:10596   */\n              dup4\n                /* \"#utility.yul\":10577:10597   */\n              tag_195\n              jump\t// in\n            tag_321:\n                /* \"#utility.yul\":10572:10597   */\n              swap3\n              pop\n                /* \"#utility.yul\":10620:10621   */\n              dup3\n                /* \"#utility.yul\":10617:10618   */\n              dup3\n                /* \"#utility.yul\":10613:10622   */\n              add\n                /* \"#utility.yul\":10606:10622   */\n              swap1\n              pop\n                /* \"#utility.yul\":10641:10644   */\n              dup1\n                /* \"#utility.yul\":10638:10639   */\n              dup3\n                /* \"#utility.yul\":10635:10645   */\n              gt\n                /* \"#utility.yul\":10632:10668   */\n              iszero\n              tag_322\n              jumpi\n                /* \"#utility.yul\":10648:10666   */\n              tag_323\n              tag_212\n              jump\t// in\n            tag_323:\n                /* \"#utility.yul\":10632:10668   */\n            tag_322:\n                /* \"#utility.yul\":10484:10675   */\n              swap3\n              swap2\n              pop\n              pop\n              jump\t// out\n                /* \"#utility.yul\":10681:10903   */\n            tag_152:\n                /* \"#utility.yul\":10774:10778   */\n              0x00\n                /* \"#utility.yul\":10812:10814   */\n              0x20\n                /* \"#utility.yul\":10801:10810   */\n              dup3\n                /* \"#utility.yul\":10797:10815   */\n              add\n                /* \"#utility.yul\":10789:10815   */\n              swap1\n              pop\n                /* \"#utility.yul\":10825:10896   */\n              tag_325\n                /* \"#utility.yul\":10893:10894   */\n              0x00\n                /* \"#utility.yul\":10882:10891   */\n              dup4\n                /* \"#utility.yul\":10878:10895   */\n              add\n                /* \"#utility.yul\":10869:10875   */\n              dup5\n                /* \"#utility.yul\":10825:10896   */\n              tag_203\n              jump\t// in\n            tag_325:\n                /* \"#utility.yul\":10681:10903   */\n              swap3\n              swap2\n              pop\n              pop\n              jump\t// out\n\n            auxdata: 0xa2646970667358221220f96f42999724f2eab14475930524a393597cf6efe964b2dfbc06be0fb5af6f6d64736f6c63430008160033\n        }\n    }\n\n    auxdata: 0xa26469706673582212204ef30cd9741ab2c35b6f65d1b9b0688720f77f6d14cdfe4c54620c2ab45232a264736f6c63430008160033\n}\n",
				"bytecode": {
					"linkReferences": {},
					"object": "608060405234801561000f575f80fd5b506129e38061001d5f395ff3fe608060405234801562000010575f80fd5b50600436106200005c575f3560e01c80632acada4d1462000060578063cf35bdd01462000082578063d301fbbd14620000b8578063db6a1d6214620000ee578063dc52eba81462000124575b5f80fd5b6200006a62000144565b6040516200007991906200069a565b60405180910390f35b620000a060048036038101906200009a919062000705565b62000222565b604051620000af919062000785565b60405180910390f35b620000d66004803603810190620000d0919062000811565b620002d1565b604051620000e59190620008a7565b60405180910390f35b6200010c600480360381019062000106919062000a06565b6200031b565b6040516200011b9190620008a7565b60405180910390f35b6200014260048036038101906200013c919062000a84565b62000362565b005b60606001805480602002602001604051908101604052809291908181526020015f905b8282101562000219578382905f5260205f20018054620001879062000b18565b80601f0160208091040260200160405190810160405280929190818152602001828054620001b59062000b18565b8015620002045780601f10620001da5761010080835404028352916020019162000204565b820191905f5260205f20905b815481529060010190602001808311620001e657829003601f168201915b50505050508152602001906001019062000167565b50505050905090565b6001818154811062000232575f80fd5b905f5260205f20015f9150905080546200024c9062000b18565b80601f01602080910402602001604051908101604052809291908181526020018280546200027a9062000b18565b8015620002c95780601f106200029f57610100808354040283529160200191620002c9565b820191905f5260205f20905b815481529060010190602001808311620002ab57829003601f168201915b505050505081565b5f808383604051620002e592919062000b7e565b90815260200160405180910390205f9054906101000a900473ffffffffffffffffffffffffffffffffffffffff16905092915050565b5f818051602081018201805184825260208301602085012081835280955050505050505f915054906101000a900473ffffffffffffffffffffffffffffffffffffffff1681565b82825f73ffffffffffffffffffffffffffffffffffffffff165f83836040516200038e92919062000b7e565b90815260200160405180910390205f9054906101000a900473ffffffffffffffffffffffffffffffffffffffff1673ffffffffffffffffffffffffffffffffffffffff161462000415576040517f08c379a00000000000000000000000000000000000000000000000000000000081526004016200040c9062000be6565b60405180910390fd5b5f85858560405162000427906200052f565b620004359392919062000c38565b604051809103905ff0801580156200044f573d5f803e3d5ffd5b5090507f14bc445941746b6cec74f6d7ebf98edd82939f3f7418542f8bffbd7ff282fff381604051620004839190620008a7565b60405180910390a16001868690918060018154018082558091505060019003905f5260205f20015f909192909192909192909192509182620004c792919062000e39565b50805f8787604051620004dc92919062000b7e565b90815260200160405180910390205f6101000a81548173ffffffffffffffffffffffffffffffffffffffff021916908373ffffffffffffffffffffffffffffffffffffffff160217905550505050505050565b611a928062000f1c83390190565b5f81519050919050565b5f82825260208201905092915050565b5f819050602082019050919050565b5f81519050919050565b5f82825260208201905092915050565b5f5b838110156200059f57808201518184015260208101905062000582565b5f8484015250505050565b5f601f19601f8301169050919050565b5f620005c68262000566565b620005d2818562000570565b9350620005e481856020860162000580565b620005ef81620005aa565b840191505092915050565b5f620006078383620005ba565b905092915050565b5f602082019050919050565b5f62000627826200053d565b62000633818562000547565b935083602082028501620006478562000557565b805f5b85811015620006885784840389528151620006668582620005fa565b945062000673836200060f565b925060208a019950506001810190506200064a565b50829750879550505050505092915050565b5f6020820190508181035f830152620006b481846200061b565b905092915050565b5f604051905090565b5f80fd5b5f80fd5b5f819050919050565b620006e181620006cd565b8114620006ec575f80fd5b50565b5f81359050620006ff81620006d6565b92915050565b5f602082840312156200071d576200071c620006c5565b5b5f6200072c84828501620006ef565b91505092915050565b5f82825260208201905092915050565b5f620007518262000566565b6200075d818562000735565b93506200076f81856020860162000580565b6200077a81620005aa565b840191505092915050565b5f6020820190508181035f8301526200079f818462000745565b905092915050565b5f80fd5b5f80fd5b5f80fd5b5f8083601f840112620007cb57620007ca620007a7565b5b8235905067ffffffffffffffff811115620007eb57620007ea620007ab565b5b6020830191508360018202830111156200080a5762000809620007af565b5b9250929050565b5f80602083850312156200082a5762000829620006c5565b5b5f83013567ffffffffffffffff8111156200084a5762000849620006c9565b5b6200085885828601620007b3565b92509250509250929050565b5f73ffffffffffffffffffffffffffffffffffffffff82169050919050565b5f6200088f8262000864565b9050919050565b620008a18162000883565b82525050565b5f602082019050620008bc5f83018462000896565b92915050565b5f80fd5b7f4e487b71000000000000000000000000000000000000000000000000000000005f52604160045260245ffd5b620008fe82620005aa565b810181811067ffffffffffffffff8211171562000920576200091f620008c6565b5b80604052505050565b5f62000934620006bc565b9050620009428282620008f3565b919050565b5f67ffffffffffffffff821115620009645762000963620008c6565b5b6200096f82620005aa565b9050602081019050919050565b828183375f83830152505050565b5f620009a06200099a8462000947565b62000929565b905082815260208101848484011115620009bf57620009be620008c2565b5b620009cc8482856200097c565b509392505050565b5f82601f830112620009eb57620009ea620007a7565b5b8135620009fd8482602086016200098a565b91505092915050565b5f6020828403121562000a1e5762000a1d620006c5565b5b5f82013567ffffffffffffffff81111562000a3e5762000a3d620006c9565b5b62000a4c84828501620009d4565b91505092915050565b62000a608162000883565b811462000a6b575f80fd5b50565b5f8135905062000a7e8162000a55565b92915050565b5f805f6040848603121562000a9e5762000a9d620006c5565b5b5f84013567ffffffffffffffff81111562000abe5762000abd620006c9565b5b62000acc86828701620007b3565b9350935050602062000ae18682870162000a6e565b9150509250925092565b7f4e487b71000000000000000000000000000000000000000000000000000000005f52602260045260245ffd5b5f600282049050600182168062000b3057607f821691505b60208210810362000b465762000b4562000aeb565b5b50919050565b5f81905092915050565b5f62000b63838562000b4c565b935062000b728385846200097c565b82840190509392505050565b5f62000b8c82848662000b56565b91508190509392505050565b7f506f6f6c20666f722074686520746f6b656e20697320637265617465640000005f82015250565b5f62000bce601d8362000735565b915062000bdb8262000b98565b602082019050919050565b5f6020820190508181035f83015262000bff8162000bc0565b9050919050565b5f62000c13838562000735565b935062000c228385846200097c565b62000c2d83620005aa565b840190509392505050565b5f6040820190508181035f83015262000c5381858762000c06565b905062000c64602083018462000896565b949350505050565b5f82905092915050565b5f819050815f5260205f209050919050565b5f6020601f8301049050919050565b5f82821b905092915050565b5f6008830262000cd47fffffffffffffffffffffffffffffffffffffffffffffffffffffffffffffffff8262000c97565b62000ce0868362000c97565b95508019841693508086168417925050509392505050565b5f819050919050565b5f62000d2162000d1b62000d1584620006cd565b62000cf8565b620006cd565b9050919050565b5f819050919050565b62000d3c8362000d01565b62000d5462000d4b8262000d28565b84845462000ca3565b825550505050565b5f90565b62000d6a62000d5c565b62000d7781848462000d31565b505050565b5b8181101562000d9e5762000d925f8262000d60565b60018101905062000d7d565b5050565b601f82111562000ded5762000db78162000c76565b62000dc28462000c88565b8101602085101562000dd2578190505b62000dea62000de18562000c88565b83018262000d7c565b50505b505050565b5f82821c905092915050565b5f62000e0f5f198460080262000df2565b1980831691505092915050565b5f62000e29838362000dfe565b9150826002028217905092915050565b62000e45838362000c6c565b67ffffffffffffffff81111562000e615762000e60620008c6565b5b62000e6d825462000b18565b62000e7a82828562000da2565b5f601f83116001811462000eac575f841562000e97578287013590505b62000ea3858262000e1c565b86555062000f12565b601f19841662000ebc8662000c76565b5f5b8281101562000ee55784890135825560018201915060208501945060208101905062000ebe565b8683101562000f05578489013562000f01601f89168262000dfe565b8355505b6001600288020188555050505b5050505050505056fe608060405234801562000010575f80fd5b5060405162001a9238038062001a9283398181016040528101906200003691906200029e565b8182816003908162000049919062000539565b5080600490816200005b919062000539565b5050508060065f6101000a81548173ffffffffffffffffffffffffffffffffffffffff021916908373ffffffffffffffffffffffffffffffffffffffff1602179055508160059081620000af919062000539565b5050506200061d565b5f604051905090565b5f80fd5b5f80fd5b5f80fd5b5f80fd5b5f601f19601f8301169050919050565b7f4e487b71000000000000000000000000000000000000000000000000000000005f52604160045260245ffd5b6200011982620000d1565b810181811067ffffffffffffffff821117156200013b576200013a620000e1565b5b80604052505050565b5f6200014f620000b8565b90506200015d82826200010e565b919050565b5f67ffffffffffffffff8211156200017f576200017e620000e1565b5b6200018a82620000d1565b9050602081019050919050565b5f5b83811015620001b657808201518184015260208101905062000199565b5f8484015250505050565b5f620001d7620001d18462000162565b62000144565b905082815260208101848484011115620001f657620001f5620000cd565b5b6200020384828562000197565b509392505050565b5f82601f830112620002225762000221620000c9565b5b815162000234848260208601620001c1565b91505092915050565b5f73ffffffffffffffffffffffffffffffffffffffff82169050919050565b5f62000268826200023d565b9050919050565b6200027a816200025c565b811462000285575f80fd5b50565b5f8151905062000298816200026f565b92915050565b5f8060408385031215620002b757620002b6620000c1565b5b5f83015167ffffffffffffffff811115620002d757620002d6620000c5565b5b620002e5858286016200020b565b9250506020620002f88582860162000288565b9150509250929050565b5f81519050919050565b7f4e487b71000000000000000000000000000000000000000000000000000000005f52602260045260245ffd5b5f60028204905060018216806200035157607f821691505b6020821081036200036757620003666200030c565b5b50919050565b5f819050815f5260205f209050919050565b5f6020601f8301049050919050565b5f82821b905092915050565b5f60088302620003cb7fffffffffffffffffffffffffffffffffffffffffffffffffffffffffffffffff826200038e565b620003d786836200038e565b95508019841693508086168417925050509392505050565b5f819050919050565b5f819050919050565b5f620004216200041b6200041584620003ef565b620003f8565b620003ef565b9050919050565b5f819050919050565b6200043c8362000401565b620004546200044b8262000428565b8484546200039a565b825550505050565b5f90565b6200046a6200045c565b6200047781848462000431565b505050565b5b818110156200049e57620004925f8262000460565b6001810190506200047d565b5050565b601f821115620004ed57620004b7816200036d565b620004c2846200037f565b81016020851015620004d2578190505b620004ea620004e1856200037f565b8301826200047c565b50505b505050565b5f82821c905092915050565b5f6200050f5f1984600802620004f2565b1980831691505092915050565b5f620005298383620004fe565b9150826002028217905092915050565b620005448262000302565b67ffffffffffffffff81111562000560576200055f620000e1565b5b6200056c825462000339565b62000579828285620004a2565b5f60209050601f831160018114620005af575f84156200059a578287015190505b620005a685826200051c565b86555062000615565b601f198416620005bf866200036d565b5f5b82811015620005e857848901518255600182019150602085019450602081019050620005c1565b8683101562000608578489015162000604601f891682620004fe565b8355505b6001600288020188555050505b505050505050565b611467806200062b5f395ff3fe6080604052600436106100c1575f3560e01c806370a082311161007e578063d50b262811610058578063d50b262814610279578063dd62ed3e146102b7578063e121b448146102f3578063e8078d941461032f576100c1565b806370a08231146101d757806395d89b4114610213578063a9059cbb1461023d576100c1565b806306fdde03146100c5578063095ea7b3146100ef57806318160ddd1461012b57806323b872dd146101555780632e1a7d4d14610191578063313ce567146101ad575b5f80fd5b3480156100d0575f80fd5b506100d961034d565b6040516100e69190610f71565b60405180910390f35b3480156100fa575f80fd5b5061011560048036038101906101109190611022565b6103dd565b604051610122919061107a565b60405180910390f35b348015610136575f80fd5b5061013f6103ff565b60405161014c91906110a2565b60405180910390f35b348015610160575f80fd5b5061017b600480360381019061017691906110bb565b610408565b604051610188919061107a565b60405180910390f35b6101ab60048036038101906101a6919061110b565b610436565b005b3480156101b8575f80fd5b506101c16105b7565b6040516101ce9190611151565b60405180910390f35b3480156101e2575f80fd5b506101fd60048036038101906101f8919061116a565b6105bf565b60405161020a91906110a2565b60405180910390f35b34801561021e575f80fd5b50610227610604565b6040516102349190610f71565b60405180910390f35b348015610248575f80fd5b50610263600480360381019061025e9190611022565b610694565b604051610270919061107a565b60405180910390f35b348015610284575f80fd5b5061029f600480360381019061029a919061110b565b6106b6565b6040516102ae939291906111a4565b60405180910390f35b3480156102c2575f80fd5b506102dd60048036038101906102d891906111d9565b61070a565b6040516102ea91906110a2565b60405180910390f35b3480156102fe575f80fd5b506103196004803603810190610314919061116a565b61078c565b60405161032691906110a2565b60405180910390f35b6103376107a1565b60405161034491906110a2565b60405180910390f35b60606003805461035c90611244565b80601f016020809104026020016040519081016040528092919081815260200182805461038890611244565b80156103d35780601f106103aa576101008083540402835291602001916103d3565b820191905f5260205f20905b8154815290600101906020018083116103b657829003601f168201915b5050505050905090565b5f806103e76108c9565b90506103f48185856108d0565b600191505092915050565b5f600254905090565b5f806104126108c9565b905061041f8582856108e2565b61042a858585610974565b60019150509392505050565b808060085f3373ffffffffffffffffffffffffffffffffffffffff1673ffffffffffffffffffffffffffffffffffffffff1681526020019081526020015f205410156104b7576040517f08c379a00000000000000000000000000000000000000000000000000000000081526004016104ae906112be565b60405180910390fd5b5f3373ffffffffffffffffffffffffffffffffffffffff16836040516104dc90611309565b5f6040518083038185875af1925050503d805f8114610516576040519150601f19603f3d011682016040523d82523d5f602084013e61051b565b606091505b505090508061055f576040517f08c379a000000000000000000000000000000000000000000000000000000000815260040161055690611367565b60405180910390fd5b8260085f3373ffffffffffffffffffffffffffffffffffffffff1673ffffffffffffffffffffffffffffffffffffffff1681526020019081526020015f205f8282546105ab91906113b2565b92505081905550505050565b5f6012905090565b5f805f8373ffffffffffffffffffffffffffffffffffffffff1673ffffffffffffffffffffffffffffffffffffffff1681526020019081526020015f20549050919050565b60606004805461061390611244565b80601f016020809104026020016040519081016040528092919081815260200182805461063f90611244565b801561068a5780601f106106615761010080835404028352916020019161068a565b820191905f5260205f20905b81548152906001019060200180831161066d57829003601f168201915b5050505050905090565b5f8061069e6108c9565b90506106ab818585610974565b600191505092915050565b600781815481106106c5575f80fd5b905f5260205f2090600302015f91509050805f015f9054906101000a900473ffffffffffffffffffffffffffffffffffffffff16908060010154908060020154905083565b5f60015f8473ffffffffffffffffffffffffffffffffffffffff1673ffffffffffffffffffffffffffffffffffffffff1681526020019081526020015f205f8373ffffffffffffffffffffffffffffffffffffffff1673ffffffffffffffffffffffffffffffffffffffff1681526020019081526020015f2054905092915050565b6008602052805f5260405f205f915090505481565b5f3460085f3373ffffffffffffffffffffffffffffffffffffffff1673ffffffffffffffffffffffffffffffffffffffff1681526020019081526020015f205f8282546107ee91906113e5565b92505081905550600760405180606001604052803373ffffffffffffffffffffffffffffffffffffffff16815260200134815260200142815250908060018154018082558091505060019003905f5260205f2090600302015f909190919091505f820151815f015f6101000a81548173ffffffffffffffffffffffffffffffffffffffff021916908373ffffffffffffffffffffffffffffffffffffffff160217905550602082015181600101556040820151816002015550506108b23334610a64565b60016007805490506108c491906113b2565b905090565b5f33905090565b6108dd8383836001610a72565b505050565b5f6108ed848461070a565b90507fffffffffffffffffffffffffffffffffffffffffffffffffffffffffffffffff811461096e578181101561095f578281836040517ffb8f41b2000000000000000000000000000000000000000000000000000000008152600401610956939291906111a4565b60405180910390fd5b61096d84848484035f610a72565b5b50505050565b5f73ffffffffffffffffffffffffffffffffffffffff168373ffffffffffffffffffffffffffffffffffffffff16036109e4575f6040517f96c6fd1e0000000000000000000000000000000000000000000000000000000081526004016109db9190611418565b60405180910390fd5b5f73ffffffffffffffffffffffffffffffffffffffff168273ffffffffffffffffffffffffffffffffffffffff1603610a54575f6040517fec442f05000000000000000000000000000000000000000000000000000000008152600401610a4b9190611418565b60405180910390fd5b610a5f838383610c41565b505050565b610a6e8282610e5a565b5050565b5f73ffffffffffffffffffffffffffffffffffffffff168473ffffffffffffffffffffffffffffffffffffffff1603610ae2575f6040517fe602df05000000000000000000000000000000000000000000000000000000008152600401610ad99190611418565b60405180910390fd5b5f73ffffffffffffffffffffffffffffffffffffffff168373ffffffffffffffffffffffffffffffffffffffff1603610b52575f6040517f94280d62000000000000000000000000000000000000000000000000000000008152600401610b499190611418565b60405180910390fd5b8160015f8673ffffffffffffffffffffffffffffffffffffffff1673ffffffffffffffffffffffffffffffffffffffff1681526020019081526020015f205f8573ffffffffffffffffffffffffffffffffffffffff1673ffffffffffffffffffffffffffffffffffffffff1681526020019081526020015f20819055508015610c3b578273ffffffffffffffffffffffffffffffffffffffff168473ffffffffffffffffffffffffffffffffffffffff167f8c5be1e5ebec7d5bd14f71427d1e84f3dd0314c0f7b2291e5b200ac8c7c3b92584604051610c3291906110a2565b60405180910390a35b50505050565b5f73ffffffffffffffffffffffffffffffffffffffff168373ffffffffffffffffffffffffffffffffffffffff1603610c91578060025f828254610c8591906113e5565b92505081905550610d5f565b5f805f8573ffffffffffffffffffffffffffffffffffffffff1673ffffffffffffffffffffffffffffffffffffffff1681526020019081526020015f2054905081811015610d1a578381836040517fe450d38c000000000000000000000000000000000000000000000000000000008152600401610d11939291906111a4565b60405180910390fd5b8181035f808673ffffffffffffffffffffffffffffffffffffffff1673ffffffffffffffffffffffffffffffffffffffff1681526020019081526020015f2081905550505b5f73ffffffffffffffffffffffffffffffffffffffff168273ffffffffffffffffffffffffffffffffffffffff1603610da6578060025f8282540392505081905550610df0565b805f808473ffffffffffffffffffffffffffffffffffffffff1673ffffffffffffffffffffffffffffffffffffffff1681526020019081526020015f205f82825401925050819055505b8173ffffffffffffffffffffffffffffffffffffffff168373ffffffffffffffffffffffffffffffffffffffff167fddf252ad1be2c89b69c2b068fc378daa952ba7f163c4a11628f55a4df523b3ef83604051610e4d91906110a2565b60405180910390a3505050565b610e648282610e68565b5050565b5f73ffffffffffffffffffffffffffffffffffffffff168273ffffffffffffffffffffffffffffffffffffffff1603610ed8575f6040517fec442f05000000000000000000000000000000000000000000000000000000008152600401610ecf9190611418565b60405180910390fd5b610ee35f8383610c41565b5050565b5f81519050919050565b5f82825260208201905092915050565b5f5b83811015610f1e578082015181840152602081019050610f03565b5f8484015250505050565b5f601f19601f8301169050919050565b5f610f4382610ee7565b610f4d8185610ef1565b9350610f5d818560208601610f01565b610f6681610f29565b840191505092915050565b5f6020820190508181035f830152610f898184610f39565b905092915050565b5f80fd5b5f73ffffffffffffffffffffffffffffffffffffffff82169050919050565b5f610fbe82610f95565b9050919050565b610fce81610fb4565b8114610fd8575f80fd5b50565b5f81359050610fe981610fc5565b92915050565b5f819050919050565b61100181610fef565b811461100b575f80fd5b50565b5f8135905061101c81610ff8565b92915050565b5f806040838503121561103857611037610f91565b5b5f61104585828601610fdb565b92505060206110568582860161100e565b9150509250929050565b5f8115159050919050565b61107481611060565b82525050565b5f60208201905061108d5f83018461106b565b92915050565b61109c81610fef565b82525050565b5f6020820190506110b55f830184611093565b92915050565b5f805f606084860312156110d2576110d1610f91565b5b5f6110df86828701610fdb565b93505060206110f086828701610fdb565b92505060406111018682870161100e565b9150509250925092565b5f602082840312156111205761111f610f91565b5b5f61112d8482850161100e565b91505092915050565b5f60ff82169050919050565b61114b81611136565b82525050565b5f6020820190506111645f830184611142565b92915050565b5f6020828403121561117f5761117e610f91565b5b5f61118c84828501610fdb565b91505092915050565b61119e81610fb4565b82525050565b5f6060820190506111b75f830186611195565b6111c46020830185611093565b6111d16040830184611093565b949350505050565b5f80604083850312156111ef576111ee610f91565b5b5f6111fc85828601610fdb565b925050602061120d85828601610fdb565b9150509250929050565b7f4e487b71000000000000000000000000000000000000000000000000000000005f52602260045260245ffd5b5f600282049050600182168061125b57607f821691505b60208210810361126e5761126d611217565b5b50919050565b7f55736572206861736e7420656e6f756768206c696d69740000000000000000005f82015250565b5f6112a8601783610ef1565b91506112b382611274565b602082019050919050565b5f6020820190508181035f8301526112d58161129c565b9050919050565b5f81905092915050565b50565b5f6112f45f836112dc565b91506112ff826112e6565b5f82019050919050565b5f611313826112e9565b9150819050919050565b7f4661696c656420746f2073656e642045746865720000000000000000000000005f82015250565b5f611351601483610ef1565b915061135c8261131d565b602082019050919050565b5f6020820190508181035f83015261137e81611345565b9050919050565b7f4e487b71000000000000000000000000000000000000000000000000000000005f52601160045260245ffd5b5f6113bc82610fef565b91506113c783610fef565b92508282039050818111156113df576113de611385565b5b92915050565b5f6113ef82610fef565b91506113fa83610fef565b925082820190508082111561141257611411611385565b5b92915050565b5f60208201905061142b5f830184611195565b9291505056fea2646970667358221220f96f42999724f2eab14475930524a393597cf6efe964b2dfbc06be0fb5af6f6d64736f6c63430008160033a26469706673582212204ef30cd9741ab2c35b6f65d1b9b0688720f77f6d14cdfe4c54620c2ab45232a264736f6c63430008160033",
					"opcodes": "PUSH1 0x80 PUSH1 0x40 MSTORE CALLVALUE DUP1 ISZERO PUSH2 0xF JUMPI PUSH0 DUP1 REVERT JUMPDEST POP PUSH2 0x29E3 DUP1 PUSH2 0x1D PUSH0 CODECOPY PUSH0 RETURN INVALID PUSH1 0x80 PUSH1 0x40 MSTORE CALLVALUE DUP1 ISZERO PUSH3 0x10 JUMPI PUSH0 DUP1 REVERT JUMPDEST POP PUSH1 0x4 CALLDATASIZE LT PUSH3 0x5C JUMPI PUSH0 CALLDATALOAD PUSH1 0xE0 SHR DUP1 PUSH4 0x2ACADA4D EQ PUSH3 0x60 JUMPI DUP1 PUSH4 0xCF35BDD0 EQ PUSH3 0x82 JUMPI DUP1 PUSH4 0xD301FBBD EQ PUSH3 0xB8 JUMPI DUP1 PUSH4 0xDB6A1D62 EQ PUSH3 0xEE JUMPI DUP1 PUSH4 0xDC52EBA8 EQ PUSH3 0x124 JUMPI JUMPDEST PUSH0 DUP1 REVERT JUMPDEST PUSH3 0x6A PUSH3 0x144 JUMP JUMPDEST PUSH1 0x40 MLOAD PUSH3 0x79 SWAP2 SWAP1 PUSH3 0x69A JUMP JUMPDEST PUSH1 0x40 MLOAD DUP1 SWAP2 SUB SWAP1 RETURN JUMPDEST PUSH3 0xA0 PUSH1 0x4 DUP1 CALLDATASIZE SUB DUP2 ADD SWAP1 PUSH3 0x9A SWAP2 SWAP1 PUSH3 0x705 JUMP JUMPDEST PUSH3 0x222 JUMP JUMPDEST PUSH1 0x40 MLOAD PUSH3 0xAF SWAP2 SWAP1 PUSH3 0x785 JUMP JUMPDEST PUSH1 0x40 MLOAD DUP1 SWAP2 SUB SWAP1 RETURN JUMPDEST PUSH3 0xD6 PUSH1 0x4 DUP1 CALLDATASIZE SUB DUP2 ADD SWAP1 PUSH3 0xD0 SWAP2 SWAP1 PUSH3 0x811 JUMP JUMPDEST PUSH3 0x2D1 JUMP JUMPDEST PUSH1 0x40 MLOAD PUSH3 0xE5 SWAP2 SWAP1 PUSH3 0x8A7 JUMP JUMPDEST PUSH1 0x40 MLOAD DUP1 SWAP2 SUB SWAP1 RETURN JUMPDEST PUSH3 0x10C PUSH1 0x4 DUP1 CALLDATASIZE SUB DUP2 ADD SWAP1 PUSH3 0x106 SWAP2 SWAP1 PUSH3 0xA06 JUMP JUMPDEST PUSH3 0x31B JUMP JUMPDEST PUSH1 0x40 MLOAD PUSH3 0x11B SWAP2 SWAP1 PUSH3 0x8A7 JUMP JUMPDEST PUSH1 0x40 MLOAD DUP1 SWAP2 SUB SWAP1 RETURN JUMPDEST PUSH3 0x142 PUSH1 0x4 DUP1 CALLDATASIZE SUB DUP2 ADD SWAP1 PUSH3 0x13C SWAP2 SWAP1 PUSH3 0xA84 JUMP JUMPDEST PUSH3 0x362 JUMP JUMPDEST STOP JUMPDEST PUSH1 0x60 PUSH1 0x1 DUP1 SLOAD DUP1 PUSH1 0x20 MUL PUSH1 0x20 ADD PUSH1 0x40 MLOAD SWAP1 DUP2 ADD PUSH1 0x40 MSTORE DUP1 SWAP3 SWAP2 SWAP1 DUP2 DUP2 MSTORE PUSH1 0x20 ADD PUSH0 SWAP1 JUMPDEST DUP3 DUP3 LT ISZERO PUSH3 0x219 JUMPI DUP4 DUP3 SWAP1 PUSH0 MSTORE PUSH1 0x20 PUSH0 KECCAK256 ADD DUP1 SLOAD PUSH3 0x187 SWAP1 PUSH3 0xB18 JUMP JUMPDEST DUP1 PUSH1 0x1F ADD PUSH1 0x20 DUP1 SWAP2 DIV MUL PUSH1 0x20 ADD PUSH1 0x40 MLOAD SWAP1 DUP2 ADD PUSH1 0x40 MSTORE DUP1 SWAP3 SWAP2 SWAP1 DUP2 DUP2 MSTORE PUSH1 0x20 ADD DUP3 DUP1 SLOAD PUSH3 0x1B5 SWAP1 PUSH3 0xB18 JUMP JUMPDEST DUP1 ISZERO PUSH3 0x204 JUMPI DUP1 PUSH1 0x1F LT PUSH3 0x1DA JUMPI PUSH2 0x100 DUP1 DUP4 SLOAD DIV MUL DUP4 MSTORE SWAP2 PUSH1 0x20 ADD SWAP2 PUSH3 0x204 JUMP JUMPDEST DUP3 ADD SWAP2 SWAP1 PUSH0 MSTORE PUSH1 0x20 PUSH0 KECCAK256 SWAP1 JUMPDEST DUP2 SLOAD DUP2 MSTORE SWAP1 PUSH1 0x1 ADD SWAP1 PUSH1 0x20 ADD DUP1 DUP4 GT PUSH3 0x1E6 JUMPI DUP3 SWAP1 SUB PUSH1 0x1F AND DUP3 ADD SWAP2 JUMPDEST POP POP POP POP POP DUP2 MSTORE PUSH1 0x20 ADD SWAP1 PUSH1 0x1 ADD SWAP1 PUSH3 0x167 JUMP JUMPDEST POP POP POP POP SWAP1 POP SWAP1 JUMP JUMPDEST PUSH1 0x1 DUP2 DUP2 SLOAD DUP2 LT PUSH3 0x232 JUMPI PUSH0 DUP1 REVERT JUMPDEST SWAP1 PUSH0 MSTORE PUSH1 0x20 PUSH0 KECCAK256 ADD PUSH0 SWAP2 POP SWAP1 POP DUP1 SLOAD PUSH3 0x24C SWAP1 PUSH3 0xB18 JUMP JUMPDEST DUP1 PUSH1 0x1F ADD PUSH1 0x20 DUP1 SWAP2 DIV MUL PUSH1 0x20 ADD PUSH1 0x40 MLOAD SWAP1 DUP2 ADD PUSH1 0x40 MSTORE DUP1 SWAP3 SWAP2 SWAP1 DUP2 DUP2 MSTORE PUSH1 0x20 ADD DUP3 DUP1 SLOAD PUSH3 0x27A SWAP1 PUSH3 0xB18 JUMP JUMPDEST DUP1 ISZERO PUSH3 0x2C9 JUMPI DUP1 PUSH1 0x1F LT PUSH3 0x29F JUMPI PUSH2 0x100 DUP1 DUP4 SLOAD DIV MUL DUP4 MSTORE SWAP2 PUSH1 0x20 ADD SWAP2 PUSH3 0x2C9 JUMP JUMPDEST DUP3 ADD SWAP2 SWAP1 PUSH0 MSTORE PUSH1 0x20 PUSH0 KECCAK256 SWAP1 JUMPDEST DUP2 SLOAD DUP2 MSTORE SWAP1 PUSH1 0x1 ADD SWAP1 PUSH1 0x20 ADD DUP1 DUP4 GT PUSH3 0x2AB JUMPI DUP3 SWAP1 SUB PUSH1 0x1F AND DUP3 ADD SWAP2 JUMPDEST POP POP POP POP POP DUP2 JUMP JUMPDEST PUSH0 DUP1 DUP4 DUP4 PUSH1 0x40 MLOAD PUSH3 0x2E5 SWAP3 SWAP2 SWAP1 PUSH3 0xB7E JUMP JUMPDEST SWAP1 DUP2 MSTORE PUSH1 0x20 ADD PUSH1 0x40 MLOAD DUP1 SWAP2 SUB SWAP1 KECCAK256 PUSH0 SWAP1 SLOAD SWAP1 PUSH2 0x100 EXP SWAP1 DIV PUSH20 0xFFFFFFFFFFFFFFFFFFFFFFFFFFFFFFFFFFFFFFFF AND SWAP1 POP SWAP3 SWAP2 POP POP JUMP JUMPDEST PUSH0 DUP2 DUP1 MLOAD PUSH1 0x20 DUP2 ADD DUP3 ADD DUP1 MLOAD DUP5 DUP3 MSTORE PUSH1 0x20 DUP4 ADD PUSH1 0x20 DUP6 ADD KECCAK256 DUP2 DUP4 MSTORE DUP1 SWAP6 POP POP POP POP POP POP PUSH0 SWAP2 POP SLOAD SWAP1 PUSH2 0x100 EXP SWAP1 DIV PUSH20 0xFFFFFFFFFFFFFFFFFFFFFFFFFFFFFFFFFFFFFFFF AND DUP2 JUMP JUMPDEST DUP3 DUP3 PUSH0 PUSH20 0xFFFFFFFFFFFFFFFFFFFFFFFFFFFFFFFFFFFFFFFF AND PUSH0 DUP4 DUP4 PUSH1 0x40 MLOAD PUSH3 0x38E SWAP3 SWAP2 SWAP1 PUSH3 0xB7E JUMP JUMPDEST SWAP1 DUP2 MSTORE PUSH1 0x20 ADD PUSH1 0x40 MLOAD DUP1 SWAP2 SUB SWAP1 KECCAK256 PUSH0 SWAP1 SLOAD SWAP1 PUSH2 0x100 EXP SWAP1 DIV PUSH20 0xFFFFFFFFFFFFFFFFFFFFFFFFFFFFFFFFFFFFFFFF AND PUSH20 0xFFFFFFFFFFFFFFFFFFFFFFFFFFFFFFFFFFFFFFFF AND EQ PUSH3 0x415 JUMPI PUSH1 0x40 MLOAD PUSH32 0x8C379A000000000000000000000000000000000000000000000000000000000 DUP2 MSTORE PUSH1 0x4 ADD PUSH3 0x40C SWAP1 PUSH3 0xBE6 JUMP JUMPDEST PUSH1 0x40 MLOAD DUP1 SWAP2 SUB SWAP1 REVERT JUMPDEST PUSH0 DUP6 DUP6 DUP6 PUSH1 0x40 MLOAD PUSH3 0x427 SWAP1 PUSH3 0x52F JUMP JUMPDEST PUSH3 0x435 SWAP4 SWAP3 SWAP2 SWAP1 PUSH3 0xC38 JUMP JUMPDEST PUSH1 0x40 MLOAD DUP1 SWAP2 SUB SWAP1 PUSH0 CREATE DUP1 ISZERO DUP1 ISZERO PUSH3 0x44F JUMPI RETURNDATASIZE PUSH0 DUP1 RETURNDATACOPY RETURNDATASIZE PUSH0 REVERT JUMPDEST POP SWAP1 POP PUSH32 0x14BC445941746B6CEC74F6D7EBF98EDD82939F3F7418542F8BFFBD7FF282FFF3 DUP2 PUSH1 0x40 MLOAD PUSH3 0x483 SWAP2 SWAP1 PUSH3 0x8A7 JUMP JUMPDEST PUSH1 0x40 MLOAD DUP1 SWAP2 SUB SWAP1 LOG1 PUSH1 0x1 DUP7 DUP7 SWAP1 SWAP2 DUP1 PUSH1 0x1 DUP2 SLOAD ADD DUP1 DUP3 SSTORE DUP1 SWAP2 POP POP PUSH1 0x1 SWAP1 SUB SWAP1 PUSH0 MSTORE PUSH1 0x20 PUSH0 KECCAK256 ADD PUSH0 SWAP1 SWAP2 SWAP3 SWAP1 SWAP2 SWAP3 SWAP1 SWAP2 SWAP3 SWAP1 SWAP2 SWAP3 POP SWAP2 DUP3 PUSH3 0x4C7 SWAP3 SWAP2 SWAP1 PUSH3 0xE39 JUMP JUMPDEST POP DUP1 PUSH0 DUP8 DUP8 PUSH1 0x40 MLOAD PUSH3 0x4DC SWAP3 SWAP2 SWAP1 PUSH3 0xB7E JUMP JUMPDEST SWAP1 DUP2 MSTORE PUSH1 0x20 ADD PUSH1 0x40 MLOAD DUP1 SWAP2 SUB SWAP1 KECCAK256 PUSH0 PUSH2 0x100 EXP DUP2 SLOAD DUP2 PUSH20 0xFFFFFFFFFFFFFFFFFFFFFFFFFFFFFFFFFFFFFFFF MUL NOT AND SWAP1 DUP4 PUSH20 0xFFFFFFFFFFFFFFFFFFFFFFFFFFFFFFFFFFFFFFFF AND MUL OR SWAP1 SSTORE POP POP POP POP POP POP POP JUMP JUMPDEST PUSH2 0x1A92 DUP1 PUSH3 0xF1C DUP4 CODECOPY ADD SWAP1 JUMP JUMPDEST PUSH0 DUP2 MLOAD SWAP1 POP SWAP2 SWAP1 POP JUMP JUMPDEST PUSH0 DUP3 DUP3 MSTORE PUSH1 0x20 DUP3 ADD SWAP1 POP SWAP3 SWAP2 POP POP JUMP JUMPDEST PUSH0 DUP2 SWAP1 POP PUSH1 0x20 DUP3 ADD SWAP1 POP SWAP2 SWAP1 POP JUMP JUMPDEST PUSH0 DUP2 MLOAD SWAP1 POP SWAP2 SWAP1 POP JUMP JUMPDEST PUSH0 DUP3 DUP3 MSTORE PUSH1 0x20 DUP3 ADD SWAP1 POP SWAP3 SWAP2 POP POP JUMP JUMPDEST PUSH0 JUMPDEST DUP4 DUP2 LT ISZERO PUSH3 0x59F JUMPI DUP1 DUP3 ADD MLOAD DUP2 DUP5 ADD MSTORE PUSH1 0x20 DUP2 ADD SWAP1 POP PUSH3 0x582 JUMP JUMPDEST PUSH0 DUP5 DUP5 ADD MSTORE POP POP POP POP JUMP JUMPDEST PUSH0 PUSH1 0x1F NOT PUSH1 0x1F DUP4 ADD AND SWAP1 POP SWAP2 SWAP1 POP JUMP JUMPDEST PUSH0 PUSH3 0x5C6 DUP3 PUSH3 0x566 JUMP JUMPDEST PUSH3 0x5D2 DUP2 DUP6 PUSH3 0x570 JUMP JUMPDEST SWAP4 POP PUSH3 0x5E4 DUP2 DUP6 PUSH1 0x20 DUP7 ADD PUSH3 0x580 JUMP JUMPDEST PUSH3 0x5EF DUP2 PUSH3 0x5AA JUMP JUMPDEST DUP5 ADD SWAP2 POP POP SWAP3 SWAP2 POP POP JUMP JUMPDEST PUSH0 PUSH3 0x607 DUP4 DUP4 PUSH3 0x5BA JUMP JUMPDEST SWAP1 POP SWAP3 SWAP2 POP POP JUMP JUMPDEST PUSH0 PUSH1 0x20 DUP3 ADD SWAP1 POP SWAP2 SWAP1 POP JUMP JUMPDEST PUSH0 PUSH3 0x627 DUP3 PUSH3 0x53D JUMP JUMPDEST PUSH3 0x633 DUP2 DUP6 PUSH3 0x547 JUMP JUMPDEST SWAP4 POP DUP4 PUSH1 0x20 DUP3 MUL DUP6 ADD PUSH3 0x647 DUP6 PUSH3 0x557 JUMP JUMPDEST DUP1 PUSH0 JUMPDEST DUP6 DUP2 LT ISZERO PUSH3 0x688 JUMPI DUP5 DUP5 SUB DUP10 MSTORE DUP2 MLOAD PUSH3 0x666 DUP6 DUP3 PUSH3 0x5FA JUMP JUMPDEST SWAP5 POP PUSH3 0x673 DUP4 PUSH3 0x60F JUMP JUMPDEST SWAP3 POP PUSH1 0x20 DUP11 ADD SWAP10 POP POP PUSH1 0x1 DUP2 ADD SWAP1 POP PUSH3 0x64A JUMP JUMPDEST POP DUP3 SWAP8 POP DUP8 SWAP6 POP POP POP POP POP POP SWAP3 SWAP2 POP POP JUMP JUMPDEST PUSH0 PUSH1 0x20 DUP3 ADD SWAP1 POP DUP2 DUP2 SUB PUSH0 DUP4 ADD MSTORE PUSH3 0x6B4 DUP2 DUP5 PUSH3 0x61B JUMP JUMPDEST SWAP1 POP SWAP3 SWAP2 POP POP JUMP JUMPDEST PUSH0 PUSH1 0x40 MLOAD SWAP1 POP SWAP1 JUMP JUMPDEST PUSH0 DUP1 REVERT JUMPDEST PUSH0 DUP1 REVERT JUMPDEST PUSH0 DUP2 SWAP1 POP SWAP2 SWAP1 POP JUMP JUMPDEST PUSH3 0x6E1 DUP2 PUSH3 0x6CD JUMP JUMPDEST DUP2 EQ PUSH3 0x6EC JUMPI PUSH0 DUP1 REVERT JUMPDEST POP JUMP JUMPDEST PUSH0 DUP2 CALLDATALOAD SWAP1 POP PUSH3 0x6FF DUP2 PUSH3 0x6D6 JUMP JUMPDEST SWAP3 SWAP2 POP POP JUMP JUMPDEST PUSH0 PUSH1 0x20 DUP3 DUP5 SUB SLT ISZERO PUSH3 0x71D JUMPI PUSH3 0x71C PUSH3 0x6C5 JUMP JUMPDEST JUMPDEST PUSH0 PUSH3 0x72C DUP5 DUP3 DUP6 ADD PUSH3 0x6EF JUMP JUMPDEST SWAP2 POP POP SWAP3 SWAP2 POP POP JUMP JUMPDEST PUSH0 DUP3 DUP3 MSTORE PUSH1 0x20 DUP3 ADD SWAP1 POP SWAP3 SWAP2 POP POP JUMP JUMPDEST PUSH0 PUSH3 0x751 DUP3 PUSH3 0x566 JUMP JUMPDEST PUSH3 0x75D DUP2 DUP6 PUSH3 0x735 JUMP JUMPDEST SWAP4 POP PUSH3 0x76F DUP2 DUP6 PUSH1 0x20 DUP7 ADD PUSH3 0x580 JUMP JUMPDEST PUSH3 0x77A DUP2 PUSH3 0x5AA JUMP JUMPDEST DUP5 ADD SWAP2 POP POP SWAP3 SWAP2 POP POP JUMP JUMPDEST PUSH0 PUSH1 0x20 DUP3 ADD SWAP1 POP DUP2 DUP2 SUB PUSH0 DUP4 ADD MSTORE PUSH3 0x79F DUP2 DUP5 PUSH3 0x745 JUMP JUMPDEST SWAP1 POP SWAP3 SWAP2 POP POP JUMP JUMPDEST PUSH0 DUP1 REVERT JUMPDEST PUSH0 DUP1 REVERT JUMPDEST PUSH0 DUP1 REVERT JUMPDEST PUSH0 DUP1 DUP4 PUSH1 0x1F DUP5 ADD SLT PUSH3 0x7CB JUMPI PUSH3 0x7CA PUSH3 0x7A7 JUMP JUMPDEST JUMPDEST DUP3 CALLDATALOAD SWAP1 POP PUSH8 0xFFFFFFFFFFFFFFFF DUP2 GT ISZERO PUSH3 0x7EB JUMPI PUSH3 0x7EA PUSH3 0x7AB JUMP JUMPDEST JUMPDEST PUSH1 0x20 DUP4 ADD SWAP2 POP DUP4 PUSH1 0x1 DUP3 MUL DUP4 ADD GT ISZERO PUSH3 0x80A JUMPI PUSH3 0x809 PUSH3 0x7AF JUMP JUMPDEST JUMPDEST SWAP3 POP SWAP3 SWAP1 POP JUMP JUMPDEST PUSH0 DUP1 PUSH1 0x20 DUP4 DUP6 SUB SLT ISZERO PUSH3 0x82A JUMPI PUSH3 0x829 PUSH3 0x6C5 JUMP JUMPDEST JUMPDEST PUSH0 DUP4 ADD CALLDATALOAD PUSH8 0xFFFFFFFFFFFFFFFF DUP2 GT ISZERO PUSH3 0x84A JUMPI PUSH3 0x849 PUSH3 0x6C9 JUMP JUMPDEST JUMPDEST PUSH3 0x858 DUP6 DUP3 DUP7 ADD PUSH3 0x7B3 JUMP JUMPDEST SWAP3 POP SWAP3 POP POP SWAP3 POP SWAP3 SWAP1 POP JUMP JUMPDEST PUSH0 PUSH20 0xFFFFFFFFFFFFFFFFFFFFFFFFFFFFFFFFFFFFFFFF DUP3 AND SWAP1 POP SWAP2 SWAP1 POP JUMP JUMPDEST PUSH0 PUSH3 0x88F DUP3 PUSH3 0x864 JUMP JUMPDEST SWAP1 POP SWAP2 SWAP1 POP JUMP JUMPDEST PUSH3 0x8A1 DUP2 PUSH3 0x883 JUMP JUMPDEST DUP3 MSTORE POP POP JUMP JUMPDEST PUSH0 PUSH1 0x20 DUP3 ADD SWAP1 POP PUSH3 0x8BC PUSH0 DUP4 ADD DUP5 PUSH3 0x896 JUMP JUMPDEST SWAP3 SWAP2 POP POP JUMP JUMPDEST PUSH0 DUP1 REVERT JUMPDEST PUSH32 0x4E487B7100000000000000000000000000000000000000000000000000000000 PUSH0 MSTORE PUSH1 0x41 PUSH1 0x4 MSTORE PUSH1 0x24 PUSH0 REVERT JUMPDEST PUSH3 0x8FE DUP3 PUSH3 0x5AA JUMP JUMPDEST DUP2 ADD DUP2 DUP2 LT PUSH8 0xFFFFFFFFFFFFFFFF DUP3 GT OR ISZERO PUSH3 0x920 JUMPI PUSH3 0x91F PUSH3 0x8C6 JUMP JUMPDEST JUMPDEST DUP1 PUSH1 0x40 MSTORE POP POP POP JUMP JUMPDEST PUSH0 PUSH3 0x934 PUSH3 0x6BC JUMP JUMPDEST SWAP1 POP PUSH3 0x942 DUP3 DUP3 PUSH3 0x8F3 JUMP JUMPDEST SWAP2 SWAP1 POP JUMP JUMPDEST PUSH0 PUSH8 0xFFFFFFFFFFFFFFFF DUP3 GT ISZERO PUSH3 0x964 JUMPI PUSH3 0x963 PUSH3 0x8C6 JUMP JUMPDEST JUMPDEST PUSH3 0x96F DUP3 PUSH3 0x5AA JUMP JUMPDEST SWAP1 POP PUSH1 0x20 DUP2 ADD SWAP1 POP SWAP2 SWAP1 POP JUMP JUMPDEST DUP3 DUP2 DUP4 CALLDATACOPY PUSH0 DUP4 DUP4 ADD MSTORE POP POP POP JUMP JUMPDEST PUSH0 PUSH3 0x9A0 PUSH3 0x99A DUP5 PUSH3 0x947 JUMP JUMPDEST PUSH3 0x929 JUMP JUMPDEST SWAP1 POP DUP3 DUP2 MSTORE PUSH1 0x20 DUP2 ADD DUP5 DUP5 DUP5 ADD GT ISZERO PUSH3 0x9BF JUMPI PUSH3 0x9BE PUSH3 0x8C2 JUMP JUMPDEST JUMPDEST PUSH3 0x9CC DUP5 DUP3 DUP6 PUSH3 0x97C JUMP JUMPDEST POP SWAP4 SWAP3 POP POP POP JUMP JUMPDEST PUSH0 DUP3 PUSH1 0x1F DUP4 ADD SLT PUSH3 0x9EB JUMPI PUSH3 0x9EA PUSH3 0x7A7 JUMP JUMPDEST JUMPDEST DUP2 CALLDATALOAD PUSH3 0x9FD DUP5 DUP3 PUSH1 0x20 DUP7 ADD PUSH3 0x98A JUMP JUMPDEST SWAP2 POP POP SWAP3 SWAP2 POP POP JUMP JUMPDEST PUSH0 PUSH1 0x20 DUP3 DUP5 SUB SLT ISZERO PUSH3 0xA1E JUMPI PUSH3 0xA1D PUSH3 0x6C5 JUMP JUMPDEST JUMPDEST PUSH0 DUP3 ADD CALLDATALOAD PUSH8 0xFFFFFFFFFFFFFFFF DUP2 GT ISZERO PUSH3 0xA3E JUMPI PUSH3 0xA3D PUSH3 0x6C9 JUMP JUMPDEST JUMPDEST PUSH3 0xA4C DUP5 DUP3 DUP6 ADD PUSH3 0x9D4 JUMP JUMPDEST SWAP2 POP POP SWAP3 SWAP2 POP POP JUMP JUMPDEST PUSH3 0xA60 DUP2 PUSH3 0x883 JUMP JUMPDEST DUP2 EQ PUSH3 0xA6B JUMPI PUSH0 DUP1 REVERT JUMPDEST POP JUMP JUMPDEST PUSH0 DUP2 CALLDATALOAD SWAP1 POP PUSH3 0xA7E DUP2 PUSH3 0xA55 JUMP JUMPDEST SWAP3 SWAP2 POP POP JUMP JUMPDEST PUSH0 DUP1 PUSH0 PUSH1 0x40 DUP5 DUP7 SUB SLT ISZERO PUSH3 0xA9E JUMPI PUSH3 0xA9D PUSH3 0x6C5 JUMP JUMPDEST JUMPDEST PUSH0 DUP5 ADD CALLDATALOAD PUSH8 0xFFFFFFFFFFFFFFFF DUP2 GT ISZERO PUSH3 0xABE JUMPI PUSH3 0xABD PUSH3 0x6C9 JUMP JUMPDEST JUMPDEST PUSH3 0xACC DUP7 DUP3 DUP8 ADD PUSH3 0x7B3 JUMP JUMPDEST SWAP4 POP SWAP4 POP POP PUSH1 0x20 PUSH3 0xAE1 DUP7 DUP3 DUP8 ADD PUSH3 0xA6E JUMP JUMPDEST SWAP2 POP POP SWAP3 POP SWAP3 POP SWAP3 JUMP JUMPDEST PUSH32 0x4E487B7100000000000000000000000000000000000000000000000000000000 PUSH0 MSTORE PUSH1 0x22 PUSH1 0x4 MSTORE PUSH1 0x24 PUSH0 REVERT JUMPDEST PUSH0 PUSH1 0x2 DUP3 DIV SWAP1 POP PUSH1 0x1 DUP3 AND DUP1 PUSH3 0xB30 JUMPI PUSH1 0x7F DUP3 AND SWAP2 POP JUMPDEST PUSH1 0x20 DUP3 LT DUP2 SUB PUSH3 0xB46 JUMPI PUSH3 0xB45 PUSH3 0xAEB JUMP JUMPDEST JUMPDEST POP SWAP2 SWAP1 POP JUMP JUMPDEST PUSH0 DUP2 SWAP1 POP SWAP3 SWAP2 POP POP JUMP JUMPDEST PUSH0 PUSH3 0xB63 DUP4 DUP6 PUSH3 0xB4C JUMP JUMPDEST SWAP4 POP PUSH3 0xB72 DUP4 DUP6 DUP5 PUSH3 0x97C JUMP JUMPDEST DUP3 DUP5 ADD SWAP1 POP SWAP4 SWAP3 POP POP POP JUMP JUMPDEST PUSH0 PUSH3 0xB8C DUP3 DUP5 DUP7 PUSH3 0xB56 JUMP JUMPDEST SWAP2 POP DUP2 SWAP1 POP SWAP4 SWAP3 POP POP POP JUMP JUMPDEST PUSH32 0x506F6F6C20666F722074686520746F6B656E2069732063726561746564000000 PUSH0 DUP3 ADD MSTORE POP JUMP JUMPDEST PUSH0 PUSH3 0xBCE PUSH1 0x1D DUP4 PUSH3 0x735 JUMP JUMPDEST SWAP2 POP PUSH3 0xBDB DUP3 PUSH3 0xB98 JUMP JUMPDEST PUSH1 0x20 DUP3 ADD SWAP1 POP SWAP2 SWAP1 POP JUMP JUMPDEST PUSH0 PUSH1 0x20 DUP3 ADD SWAP1 POP DUP2 DUP2 SUB PUSH0 DUP4 ADD MSTORE PUSH3 0xBFF DUP2 PUSH3 0xBC0 JUMP JUMPDEST SWAP1 POP SWAP2 SWAP1 POP JUMP JUMPDEST PUSH0 PUSH3 0xC13 DUP4 DUP6 PUSH3 0x735 JUMP JUMPDEST SWAP4 POP PUSH3 0xC22 DUP4 DUP6 DUP5 PUSH3 0x97C JUMP JUMPDEST PUSH3 0xC2D DUP4 PUSH3 0x5AA JUMP JUMPDEST DUP5 ADD SWAP1 POP SWAP4 SWAP3 POP POP POP JUMP JUMPDEST PUSH0 PUSH1 0x40 DUP3 ADD SWAP1 POP DUP2 DUP2 SUB PUSH0 DUP4 ADD MSTORE PUSH3 0xC53 DUP2 DUP6 DUP8 PUSH3 0xC06 JUMP JUMPDEST SWAP1 POP PUSH3 0xC64 PUSH1 0x20 DUP4 ADD DUP5 PUSH3 0x896 JUMP JUMPDEST SWAP5 SWAP4 POP POP POP POP JUMP JUMPDEST PUSH0 DUP3 SWAP1 POP SWAP3 SWAP2 POP POP JUMP JUMPDEST PUSH0 DUP2 SWAP1 POP DUP2 PUSH0 MSTORE PUSH1 0x20 PUSH0 KECCAK256 SWAP1 POP SWAP2 SWAP1 POP JUMP JUMPDEST PUSH0 PUSH1 0x20 PUSH1 0x1F DUP4 ADD DIV SWAP1 POP SWAP2 SWAP1 POP JUMP JUMPDEST PUSH0 DUP3 DUP3 SHL SWAP1 POP SWAP3 SWAP2 POP POP JUMP JUMPDEST PUSH0 PUSH1 0x8 DUP4 MUL PUSH3 0xCD4 PUSH32 0xFFFFFFFFFFFFFFFFFFFFFFFFFFFFFFFFFFFFFFFFFFFFFFFFFFFFFFFFFFFFFFFF DUP3 PUSH3 0xC97 JUMP JUMPDEST PUSH3 0xCE0 DUP7 DUP4 PUSH3 0xC97 JUMP JUMPDEST SWAP6 POP DUP1 NOT DUP5 AND SWAP4 POP DUP1 DUP7 AND DUP5 OR SWAP3 POP POP POP SWAP4 SWAP3 POP POP POP JUMP JUMPDEST PUSH0 DUP2 SWAP1 POP SWAP2 SWAP1 POP JUMP JUMPDEST PUSH0 PUSH3 0xD21 PUSH3 0xD1B PUSH3 0xD15 DUP5 PUSH3 0x6CD JUMP JUMPDEST PUSH3 0xCF8 JUMP JUMPDEST PUSH3 0x6CD JUMP JUMPDEST SWAP1 POP SWAP2 SWAP1 POP JUMP JUMPDEST PUSH0 DUP2 SWAP1 POP SWAP2 SWAP1 POP JUMP JUMPDEST PUSH3 0xD3C DUP4 PUSH3 0xD01 JUMP JUMPDEST PUSH3 0xD54 PUSH3 0xD4B DUP3 PUSH3 0xD28 JUMP JUMPDEST DUP5 DUP5 SLOAD PUSH3 0xCA3 JUMP JUMPDEST DUP3 SSTORE POP POP POP POP JUMP JUMPDEST PUSH0 SWAP1 JUMP JUMPDEST PUSH3 0xD6A PUSH3 0xD5C JUMP JUMPDEST PUSH3 0xD77 DUP2 DUP5 DUP5 PUSH3 0xD31 JUMP JUMPDEST POP POP POP JUMP JUMPDEST JUMPDEST DUP2 DUP2 LT ISZERO PUSH3 0xD9E JUMPI PUSH3 0xD92 PUSH0 DUP3 PUSH3 0xD60 JUMP JUMPDEST PUSH1 0x1 DUP2 ADD SWAP1 POP PUSH3 0xD7D JUMP JUMPDEST POP POP JUMP JUMPDEST PUSH1 0x1F DUP3 GT ISZERO PUSH3 0xDED JUMPI PUSH3 0xDB7 DUP2 PUSH3 0xC76 JUMP JUMPDEST PUSH3 0xDC2 DUP5 PUSH3 0xC88 JUMP JUMPDEST DUP2 ADD PUSH1 0x20 DUP6 LT ISZERO PUSH3 0xDD2 JUMPI DUP2 SWAP1 POP JUMPDEST PUSH3 0xDEA PUSH3 0xDE1 DUP6 PUSH3 0xC88 JUMP JUMPDEST DUP4 ADD DUP3 PUSH3 0xD7C JUMP JUMPDEST POP POP JUMPDEST POP POP POP JUMP JUMPDEST PUSH0 DUP3 DUP3 SHR SWAP1 POP SWAP3 SWAP2 POP POP JUMP JUMPDEST PUSH0 PUSH3 0xE0F PUSH0 NOT DUP5 PUSH1 0x8 MUL PUSH3 0xDF2 JUMP JUMPDEST NOT DUP1 DUP4 AND SWAP2 POP POP SWAP3 SWAP2 POP POP JUMP JUMPDEST PUSH0 PUSH3 0xE29 DUP4 DUP4 PUSH3 0xDFE JUMP JUMPDEST SWAP2 POP DUP3 PUSH1 0x2 MUL DUP3 OR SWAP1 POP SWAP3 SWAP2 POP POP JUMP JUMPDEST PUSH3 0xE45 DUP4 DUP4 PUSH3 0xC6C JUMP JUMPDEST PUSH8 0xFFFFFFFFFFFFFFFF DUP2 GT ISZERO PUSH3 0xE61 JUMPI PUSH3 0xE60 PUSH3 0x8C6 JUMP JUMPDEST JUMPDEST PUSH3 0xE6D DUP3 SLOAD PUSH3 0xB18 JUMP JUMPDEST PUSH3 0xE7A DUP3 DUP3 DUP6 PUSH3 0xDA2 JUMP JUMPDEST PUSH0 PUSH1 0x1F DUP4 GT PUSH1 0x1 DUP2 EQ PUSH3 0xEAC JUMPI PUSH0 DUP5 ISZERO PUSH3 0xE97 JUMPI DUP3 DUP8 ADD CALLDATALOAD SWAP1 POP JUMPDEST PUSH3 0xEA3 DUP6 DUP3 PUSH3 0xE1C JUMP JUMPDEST DUP7 SSTORE POP PUSH3 0xF12 JUMP JUMPDEST PUSH1 0x1F NOT DUP5 AND PUSH3 0xEBC DUP7 PUSH3 0xC76 JUMP JUMPDEST PUSH0 JUMPDEST DUP3 DUP2 LT ISZERO PUSH3 0xEE5 JUMPI DUP5 DUP10 ADD CALLDATALOAD DUP3 SSTORE PUSH1 0x1 DUP3 ADD SWAP2 POP PUSH1 0x20 DUP6 ADD SWAP5 POP PUSH1 0x20 DUP2 ADD SWAP1 POP PUSH3 0xEBE JUMP JUMPDEST DUP7 DUP4 LT ISZERO PUSH3 0xF05 JUMPI DUP5 DUP10 ADD CALLDATALOAD PUSH3 0xF01 PUSH1 0x1F DUP10 AND DUP3 PUSH3 0xDFE JUMP JUMPDEST DUP4 SSTORE POP JUMPDEST PUSH1 0x1 PUSH1 0x2 DUP9 MUL ADD DUP9 SSTORE POP POP POP JUMPDEST POP POP POP POP POP POP POP JUMP INVALID PUSH1 0x80 PUSH1 0x40 MSTORE CALLVALUE DUP1 ISZERO PUSH3 0x10 JUMPI PUSH0 DUP1 REVERT JUMPDEST POP PUSH1 0x40 MLOAD PUSH3 0x1A92 CODESIZE SUB DUP1 PUSH3 0x1A92 DUP4 CODECOPY DUP2 DUP2 ADD PUSH1 0x40 MSTORE DUP2 ADD SWAP1 PUSH3 0x36 SWAP2 SWAP1 PUSH3 0x29E JUMP JUMPDEST DUP2 DUP3 DUP2 PUSH1 0x3 SWAP1 DUP2 PUSH3 0x49 SWAP2 SWAP1 PUSH3 0x539 JUMP JUMPDEST POP DUP1 PUSH1 0x4 SWAP1 DUP2 PUSH3 0x5B SWAP2 SWAP1 PUSH3 0x539 JUMP JUMPDEST POP POP POP DUP1 PUSH1 0x6 PUSH0 PUSH2 0x100 EXP DUP2 SLOAD DUP2 PUSH20 0xFFFFFFFFFFFFFFFFFFFFFFFFFFFFFFFFFFFFFFFF MUL NOT AND SWAP1 DUP4 PUSH20 0xFFFFFFFFFFFFFFFFFFFFFFFFFFFFFFFFFFFFFFFF AND MUL OR SWAP1 SSTORE POP DUP2 PUSH1 0x5 SWAP1 DUP2 PUSH3 0xAF SWAP2 SWAP1 PUSH3 0x539 JUMP JUMPDEST POP POP POP PUSH3 0x61D JUMP JUMPDEST PUSH0 PUSH1 0x40 MLOAD SWAP1 POP SWAP1 JUMP JUMPDEST PUSH0 DUP1 REVERT JUMPDEST PUSH0 DUP1 REVERT JUMPDEST PUSH0 DUP1 REVERT JUMPDEST PUSH0 DUP1 REVERT JUMPDEST PUSH0 PUSH1 0x1F NOT PUSH1 0x1F DUP4 ADD AND SWAP1 POP SWAP2 SWAP1 POP JUMP JUMPDEST PUSH32 0x4E487B7100000000000000000000000000000000000000000000000000000000 PUSH0 MSTORE PUSH1 0x41 PUSH1 0x4 MSTORE PUSH1 0x24 PUSH0 REVERT JUMPDEST PUSH3 0x119 DUP3 PUSH3 0xD1 JUMP JUMPDEST DUP2 ADD DUP2 DUP2 LT PUSH8 0xFFFFFFFFFFFFFFFF DUP3 GT OR ISZERO PUSH3 0x13B JUMPI PUSH3 0x13A PUSH3 0xE1 JUMP JUMPDEST JUMPDEST DUP1 PUSH1 0x40 MSTORE POP POP POP JUMP JUMPDEST PUSH0 PUSH3 0x14F PUSH3 0xB8 JUMP JUMPDEST SWAP1 POP PUSH3 0x15D DUP3 DUP3 PUSH3 0x10E JUMP JUMPDEST SWAP2 SWAP1 POP JUMP JUMPDEST PUSH0 PUSH8 0xFFFFFFFFFFFFFFFF DUP3 GT ISZERO PUSH3 0x17F JUMPI PUSH3 0x17E PUSH3 0xE1 JUMP JUMPDEST JUMPDEST PUSH3 0x18A DUP3 PUSH3 0xD1 JUMP JUMPDEST SWAP1 POP PUSH1 0x20 DUP2 ADD SWAP1 POP SWAP2 SWAP1 POP JUMP JUMPDEST PUSH0 JUMPDEST DUP4 DUP2 LT ISZERO PUSH3 0x1B6 JUMPI DUP1 DUP3 ADD MLOAD DUP2 DUP5 ADD MSTORE PUSH1 0x20 DUP2 ADD SWAP1 POP PUSH3 0x199 JUMP JUMPDEST PUSH0 DUP5 DUP5 ADD MSTORE POP POP POP POP JUMP JUMPDEST PUSH0 PUSH3 0x1D7 PUSH3 0x1D1 DUP5 PUSH3 0x162 JUMP JUMPDEST PUSH3 0x144 JUMP JUMPDEST SWAP1 POP DUP3 DUP2 MSTORE PUSH1 0x20 DUP2 ADD DUP5 DUP5 DUP5 ADD GT ISZERO PUSH3 0x1F6 JUMPI PUSH3 0x1F5 PUSH3 0xCD JUMP JUMPDEST JUMPDEST PUSH3 0x203 DUP5 DUP3 DUP6 PUSH3 0x197 JUMP JUMPDEST POP SWAP4 SWAP3 POP POP POP JUMP JUMPDEST PUSH0 DUP3 PUSH1 0x1F DUP4 ADD SLT PUSH3 0x222 JUMPI PUSH3 0x221 PUSH3 0xC9 JUMP JUMPDEST JUMPDEST DUP2 MLOAD PUSH3 0x234 DUP5 DUP3 PUSH1 0x20 DUP7 ADD PUSH3 0x1C1 JUMP JUMPDEST SWAP2 POP POP SWAP3 SWAP2 POP POP JUMP JUMPDEST PUSH0 PUSH20 0xFFFFFFFFFFFFFFFFFFFFFFFFFFFFFFFFFFFFFFFF DUP3 AND SWAP1 POP SWAP2 SWAP1 POP JUMP JUMPDEST PUSH0 PUSH3 0x268 DUP3 PUSH3 0x23D JUMP JUMPDEST SWAP1 POP SWAP2 SWAP1 POP JUMP JUMPDEST PUSH3 0x27A DUP2 PUSH3 0x25C JUMP JUMPDEST DUP2 EQ PUSH3 0x285 JUMPI PUSH0 DUP1 REVERT JUMPDEST POP JUMP JUMPDEST PUSH0 DUP2 MLOAD SWAP1 POP PUSH3 0x298 DUP2 PUSH3 0x26F JUMP JUMPDEST SWAP3 SWAP2 POP POP JUMP JUMPDEST PUSH0 DUP1 PUSH1 0x40 DUP4 DUP6 SUB SLT ISZERO PUSH3 0x2B7 JUMPI PUSH3 0x2B6 PUSH3 0xC1 JUMP JUMPDEST JUMPDEST PUSH0 DUP4 ADD MLOAD PUSH8 0xFFFFFFFFFFFFFFFF DUP2 GT ISZERO PUSH3 0x2D7 JUMPI PUSH3 0x2D6 PUSH3 0xC5 JUMP JUMPDEST JUMPDEST PUSH3 0x2E5 DUP6 DUP3 DUP7 ADD PUSH3 0x20B JUMP JUMPDEST SWAP3 POP POP PUSH1 0x20 PUSH3 0x2F8 DUP6 DUP3 DUP7 ADD PUSH3 0x288 JUMP JUMPDEST SWAP2 POP POP SWAP3 POP SWAP3 SWAP1 POP JUMP JUMPDEST PUSH0 DUP2 MLOAD SWAP1 POP SWAP2 SWAP1 POP JUMP JUMPDEST PUSH32 0x4E487B7100000000000000000000000000000000000000000000000000000000 PUSH0 MSTORE PUSH1 0x22 PUSH1 0x4 MSTORE PUSH1 0x24 PUSH0 REVERT JUMPDEST PUSH0 PUSH1 0x2 DUP3 DIV SWAP1 POP PUSH1 0x1 DUP3 AND DUP1 PUSH3 0x351 JUMPI PUSH1 0x7F DUP3 AND SWAP2 POP JUMPDEST PUSH1 0x20 DUP3 LT DUP2 SUB PUSH3 0x367 JUMPI PUSH3 0x366 PUSH3 0x30C JUMP JUMPDEST JUMPDEST POP SWAP2 SWAP1 POP JUMP JUMPDEST PUSH0 DUP2 SWAP1 POP DUP2 PUSH0 MSTORE PUSH1 0x20 PUSH0 KECCAK256 SWAP1 POP SWAP2 SWAP1 POP JUMP JUMPDEST PUSH0 PUSH1 0x20 PUSH1 0x1F DUP4 ADD DIV SWAP1 POP SWAP2 SWAP1 POP JUMP JUMPDEST PUSH0 DUP3 DUP3 SHL SWAP1 POP SWAP3 SWAP2 POP POP JUMP JUMPDEST PUSH0 PUSH1 0x8 DUP4 MUL PUSH3 0x3CB PUSH32 0xFFFFFFFFFFFFFFFFFFFFFFFFFFFFFFFFFFFFFFFFFFFFFFFFFFFFFFFFFFFFFFFF DUP3 PUSH3 0x38E JUMP JUMPDEST PUSH3 0x3D7 DUP7 DUP4 PUSH3 0x38E JUMP JUMPDEST SWAP6 POP DUP1 NOT DUP5 AND SWAP4 POP DUP1 DUP7 AND DUP5 OR SWAP3 POP POP POP SWAP4 SWAP3 POP POP POP JUMP JUMPDEST PUSH0 DUP2 SWAP1 POP SWAP2 SWAP1 POP JUMP JUMPDEST PUSH0 DUP2 SWAP1 POP SWAP2 SWAP1 POP JUMP JUMPDEST PUSH0 PUSH3 0x421 PUSH3 0x41B PUSH3 0x415 DUP5 PUSH3 0x3EF JUMP JUMPDEST PUSH3 0x3F8 JUMP JUMPDEST PUSH3 0x3EF JUMP JUMPDEST SWAP1 POP SWAP2 SWAP1 POP JUMP JUMPDEST PUSH0 DUP2 SWAP1 POP SWAP2 SWAP1 POP JUMP JUMPDEST PUSH3 0x43C DUP4 PUSH3 0x401 JUMP JUMPDEST PUSH3 0x454 PUSH3 0x44B DUP3 PUSH3 0x428 JUMP JUMPDEST DUP5 DUP5 SLOAD PUSH3 0x39A JUMP JUMPDEST DUP3 SSTORE POP POP POP POP JUMP JUMPDEST PUSH0 SWAP1 JUMP JUMPDEST PUSH3 0x46A PUSH3 0x45C JUMP JUMPDEST PUSH3 0x477 DUP2 DUP5 DUP5 PUSH3 0x431 JUMP JUMPDEST POP POP POP JUMP JUMPDEST JUMPDEST DUP2 DUP2 LT ISZERO PUSH3 0x49E JUMPI PUSH3 0x492 PUSH0 DUP3 PUSH3 0x460 JUMP JUMPDEST PUSH1 0x1 DUP2 ADD SWAP1 POP PUSH3 0x47D JUMP JUMPDEST POP POP JUMP JUMPDEST PUSH1 0x1F DUP3 GT ISZERO PUSH3 0x4ED JUMPI PUSH3 0x4B7 DUP2 PUSH3 0x36D JUMP JUMPDEST PUSH3 0x4C2 DUP5 PUSH3 0x37F JUMP JUMPDEST DUP2 ADD PUSH1 0x20 DUP6 LT ISZERO PUSH3 0x4D2 JUMPI DUP2 SWAP1 POP JUMPDEST PUSH3 0x4EA PUSH3 0x4E1 DUP6 PUSH3 0x37F JUMP JUMPDEST DUP4 ADD DUP3 PUSH3 0x47C JUMP JUMPDEST POP POP JUMPDEST POP POP POP JUMP JUMPDEST PUSH0 DUP3 DUP3 SHR SWAP1 POP SWAP3 SWAP2 POP POP JUMP JUMPDEST PUSH0 PUSH3 0x50F PUSH0 NOT DUP5 PUSH1 0x8 MUL PUSH3 0x4F2 JUMP JUMPDEST NOT DUP1 DUP4 AND SWAP2 POP POP SWAP3 SWAP2 POP POP JUMP JUMPDEST PUSH0 PUSH3 0x529 DUP4 DUP4 PUSH3 0x4FE JUMP JUMPDEST SWAP2 POP DUP3 PUSH1 0x2 MUL DUP3 OR SWAP1 POP SWAP3 SWAP2 POP POP JUMP JUMPDEST PUSH3 0x544 DUP3 PUSH3 0x302 JUMP JUMPDEST PUSH8 0xFFFFFFFFFFFFFFFF DUP2 GT ISZERO PUSH3 0x560 JUMPI PUSH3 0x55F PUSH3 0xE1 JUMP JUMPDEST JUMPDEST PUSH3 0x56C DUP3 SLOAD PUSH3 0x339 JUMP JUMPDEST PUSH3 0x579 DUP3 DUP3 DUP6 PUSH3 0x4A2 JUMP JUMPDEST PUSH0 PUSH1 0x20 SWAP1 POP PUSH1 0x1F DUP4 GT PUSH1 0x1 DUP2 EQ PUSH3 0x5AF JUMPI PUSH0 DUP5 ISZERO PUSH3 0x59A JUMPI DUP3 DUP8 ADD MLOAD SWAP1 POP JUMPDEST PUSH3 0x5A6 DUP6 DUP3 PUSH3 0x51C JUMP JUMPDEST DUP7 SSTORE POP PUSH3 0x615 JUMP JUMPDEST PUSH1 0x1F NOT DUP5 AND PUSH3 0x5BF DUP7 PUSH3 0x36D JUMP JUMPDEST PUSH0 JUMPDEST DUP3 DUP2 LT ISZERO PUSH3 0x5E8 JUMPI DUP5 DUP10 ADD MLOAD DUP3 SSTORE PUSH1 0x1 DUP3 ADD SWAP2 POP PUSH1 0x20 DUP6 ADD SWAP5 POP PUSH1 0x20 DUP2 ADD SWAP1 POP PUSH3 0x5C1 JUMP JUMPDEST DUP7 DUP4 LT ISZERO PUSH3 0x608 JUMPI DUP5 DUP10 ADD MLOAD PUSH3 0x604 PUSH1 0x1F DUP10 AND DUP3 PUSH3 0x4FE JUMP JUMPDEST DUP4 SSTORE POP JUMPDEST PUSH1 0x1 PUSH1 0x2 DUP9 MUL ADD DUP9 SSTORE POP POP POP JUMPDEST POP POP POP POP POP POP JUMP JUMPDEST PUSH2 0x1467 DUP1 PUSH3 0x62B PUSH0 CODECOPY PUSH0 RETURN INVALID PUSH1 0x80 PUSH1 0x40 MSTORE PUSH1 0x4 CALLDATASIZE LT PUSH2 0xC1 JUMPI PUSH0 CALLDATALOAD PUSH1 0xE0 SHR DUP1 PUSH4 0x70A08231 GT PUSH2 0x7E JUMPI DUP1 PUSH4 0xD50B2628 GT PUSH2 0x58 JUMPI DUP1 PUSH4 0xD50B2628 EQ PUSH2 0x279 JUMPI DUP1 PUSH4 0xDD62ED3E EQ PUSH2 0x2B7 JUMPI DUP1 PUSH4 0xE121B448 EQ PUSH2 0x2F3 JUMPI DUP1 PUSH4 0xE8078D94 EQ PUSH2 0x32F JUMPI PUSH2 0xC1 JUMP JUMPDEST DUP1 PUSH4 0x70A08231 EQ PUSH2 0x1D7 JUMPI DUP1 PUSH4 0x95D89B41 EQ PUSH2 0x213 JUMPI DUP1 PUSH4 0xA9059CBB EQ PUSH2 0x23D JUMPI PUSH2 0xC1 JUMP JUMPDEST DUP1 PUSH4 0x6FDDE03 EQ PUSH2 0xC5 JUMPI DUP1 PUSH4 0x95EA7B3 EQ PUSH2 0xEF JUMPI DUP1 PUSH4 0x18160DDD EQ PUSH2 0x12B JUMPI DUP1 PUSH4 0x23B872DD EQ PUSH2 0x155 JUMPI DUP1 PUSH4 0x2E1A7D4D EQ PUSH2 0x191 JUMPI DUP1 PUSH4 0x313CE567 EQ PUSH2 0x1AD JUMPI JUMPDEST PUSH0 DUP1 REVERT JUMPDEST CALLVALUE DUP1 ISZERO PUSH2 0xD0 JUMPI PUSH0 DUP1 REVERT JUMPDEST POP PUSH2 0xD9 PUSH2 0x34D JUMP JUMPDEST PUSH1 0x40 MLOAD PUSH2 0xE6 SWAP2 SWAP1 PUSH2 0xF71 JUMP JUMPDEST PUSH1 0x40 MLOAD DUP1 SWAP2 SUB SWAP1 RETURN JUMPDEST CALLVALUE DUP1 ISZERO PUSH2 0xFA JUMPI PUSH0 DUP1 REVERT JUMPDEST POP PUSH2 0x115 PUSH1 0x4 DUP1 CALLDATASIZE SUB DUP2 ADD SWAP1 PUSH2 0x110 SWAP2 SWAP1 PUSH2 0x1022 JUMP JUMPDEST PUSH2 0x3DD JUMP JUMPDEST PUSH1 0x40 MLOAD PUSH2 0x122 SWAP2 SWAP1 PUSH2 0x107A JUMP JUMPDEST PUSH1 0x40 MLOAD DUP1 SWAP2 SUB SWAP1 RETURN JUMPDEST CALLVALUE DUP1 ISZERO PUSH2 0x136 JUMPI PUSH0 DUP1 REVERT JUMPDEST POP PUSH2 0x13F PUSH2 0x3FF JUMP JUMPDEST PUSH1 0x40 MLOAD PUSH2 0x14C SWAP2 SWAP1 PUSH2 0x10A2 JUMP JUMPDEST PUSH1 0x40 MLOAD DUP1 SWAP2 SUB SWAP1 RETURN JUMPDEST CALLVALUE DUP1 ISZERO PUSH2 0x160 JUMPI PUSH0 DUP1 REVERT JUMPDEST POP PUSH2 0x17B PUSH1 0x4 DUP1 CALLDATASIZE SUB DUP2 ADD SWAP1 PUSH2 0x176 SWAP2 SWAP1 PUSH2 0x10BB JUMP JUMPDEST PUSH2 0x408 JUMP JUMPDEST PUSH1 0x40 MLOAD PUSH2 0x188 SWAP2 SWAP1 PUSH2 0x107A JUMP JUMPDEST PUSH1 0x40 MLOAD DUP1 SWAP2 SUB SWAP1 RETURN JUMPDEST PUSH2 0x1AB PUSH1 0x4 DUP1 CALLDATASIZE SUB DUP2 ADD SWAP1 PUSH2 0x1A6 SWAP2 SWAP1 PUSH2 0x110B JUMP JUMPDEST PUSH2 0x436 JUMP JUMPDEST STOP JUMPDEST CALLVALUE DUP1 ISZERO PUSH2 0x1B8 JUMPI PUSH0 DUP1 REVERT JUMPDEST POP PUSH2 0x1C1 PUSH2 0x5B7 JUMP JUMPDEST PUSH1 0x40 MLOAD PUSH2 0x1CE SWAP2 SWAP1 PUSH2 0x1151 JUMP JUMPDEST PUSH1 0x40 MLOAD DUP1 SWAP2 SUB SWAP1 RETURN JUMPDEST CALLVALUE DUP1 ISZERO PUSH2 0x1E2 JUMPI PUSH0 DUP1 REVERT JUMPDEST POP PUSH2 0x1FD PUSH1 0x4 DUP1 CALLDATASIZE SUB DUP2 ADD SWAP1 PUSH2 0x1F8 SWAP2 SWAP1 PUSH2 0x116A JUMP JUMPDEST PUSH2 0x5BF JUMP JUMPDEST PUSH1 0x40 MLOAD PUSH2 0x20A SWAP2 SWAP1 PUSH2 0x10A2 JUMP JUMPDEST PUSH1 0x40 MLOAD DUP1 SWAP2 SUB SWAP1 RETURN JUMPDEST CALLVALUE DUP1 ISZERO PUSH2 0x21E JUMPI PUSH0 DUP1 REVERT JUMPDEST POP PUSH2 0x227 PUSH2 0x604 JUMP JUMPDEST PUSH1 0x40 MLOAD PUSH2 0x234 SWAP2 SWAP1 PUSH2 0xF71 JUMP JUMPDEST PUSH1 0x40 MLOAD DUP1 SWAP2 SUB SWAP1 RETURN JUMPDEST CALLVALUE DUP1 ISZERO PUSH2 0x248 JUMPI PUSH0 DUP1 REVERT JUMPDEST POP PUSH2 0x263 PUSH1 0x4 DUP1 CALLDATASIZE SUB DUP2 ADD SWAP1 PUSH2 0x25E SWAP2 SWAP1 PUSH2 0x1022 JUMP JUMPDEST PUSH2 0x694 JUMP JUMPDEST PUSH1 0x40 MLOAD PUSH2 0x270 SWAP2 SWAP1 PUSH2 0x107A JUMP JUMPDEST PUSH1 0x40 MLOAD DUP1 SWAP2 SUB SWAP1 RETURN JUMPDEST CALLVALUE DUP1 ISZERO PUSH2 0x284 JUMPI PUSH0 DUP1 REVERT JUMPDEST POP PUSH2 0x29F PUSH1 0x4 DUP1 CALLDATASIZE SUB DUP2 ADD SWAP1 PUSH2 0x29A SWAP2 SWAP1 PUSH2 0x110B JUMP JUMPDEST PUSH2 0x6B6 JUMP JUMPDEST PUSH1 0x40 MLOAD PUSH2 0x2AE SWAP4 SWAP3 SWAP2 SWAP1 PUSH2 0x11A4 JUMP JUMPDEST PUSH1 0x40 MLOAD DUP1 SWAP2 SUB SWAP1 RETURN JUMPDEST CALLVALUE DUP1 ISZERO PUSH2 0x2C2 JUMPI PUSH0 DUP1 REVERT JUMPDEST POP PUSH2 0x2DD PUSH1 0x4 DUP1 CALLDATASIZE SUB DUP2 ADD SWAP1 PUSH2 0x2D8 SWAP2 SWAP1 PUSH2 0x11D9 JUMP JUMPDEST PUSH2 0x70A JUMP JUMPDEST PUSH1 0x40 MLOAD PUSH2 0x2EA SWAP2 SWAP1 PUSH2 0x10A2 JUMP JUMPDEST PUSH1 0x40 MLOAD DUP1 SWAP2 SUB SWAP1 RETURN JUMPDEST CALLVALUE DUP1 ISZERO PUSH2 0x2FE JUMPI PUSH0 DUP1 REVERT JUMPDEST POP PUSH2 0x319 PUSH1 0x4 DUP1 CALLDATASIZE SUB DUP2 ADD SWAP1 PUSH2 0x314 SWAP2 SWAP1 PUSH2 0x116A JUMP JUMPDEST PUSH2 0x78C JUMP JUMPDEST PUSH1 0x40 MLOAD PUSH2 0x326 SWAP2 SWAP1 PUSH2 0x10A2 JUMP JUMPDEST PUSH1 0x40 MLOAD DUP1 SWAP2 SUB SWAP1 RETURN JUMPDEST PUSH2 0x337 PUSH2 0x7A1 JUMP JUMPDEST PUSH1 0x40 MLOAD PUSH2 0x344 SWAP2 SWAP1 PUSH2 0x10A2 JUMP JUMPDEST PUSH1 0x40 MLOAD DUP1 SWAP2 SUB SWAP1 RETURN JUMPDEST PUSH1 0x60 PUSH1 0x3 DUP1 SLOAD PUSH2 0x35C SWAP1 PUSH2 0x1244 JUMP JUMPDEST DUP1 PUSH1 0x1F ADD PUSH1 0x20 DUP1 SWAP2 DIV MUL PUSH1 0x20 ADD PUSH1 0x40 MLOAD SWAP1 DUP2 ADD PUSH1 0x40 MSTORE DUP1 SWAP3 SWAP2 SWAP1 DUP2 DUP2 MSTORE PUSH1 0x20 ADD DUP3 DUP1 SLOAD PUSH2 0x388 SWAP1 PUSH2 0x1244 JUMP JUMPDEST DUP1 ISZERO PUSH2 0x3D3 JUMPI DUP1 PUSH1 0x1F LT PUSH2 0x3AA JUMPI PUSH2 0x100 DUP1 DUP4 SLOAD DIV MUL DUP4 MSTORE SWAP2 PUSH1 0x20 ADD SWAP2 PUSH2 0x3D3 JUMP JUMPDEST DUP3 ADD SWAP2 SWAP1 PUSH0 MSTORE PUSH1 0x20 PUSH0 KECCAK256 SWAP1 JUMPDEST DUP2 SLOAD DUP2 MSTORE SWAP1 PUSH1 0x1 ADD SWAP1 PUSH1 0x20 ADD DUP1 DUP4 GT PUSH2 0x3B6 JUMPI DUP3 SWAP1 SUB PUSH1 0x1F AND DUP3 ADD SWAP2 JUMPDEST POP POP POP POP POP SWAP1 POP SWAP1 JUMP JUMPDEST PUSH0 DUP1 PUSH2 0x3E7 PUSH2 0x8C9 JUMP JUMPDEST SWAP1 POP PUSH2 0x3F4 DUP2 DUP6 DUP6 PUSH2 0x8D0 JUMP JUMPDEST PUSH1 0x1 SWAP2 POP POP SWAP3 SWAP2 POP POP JUMP JUMPDEST PUSH0 PUSH1 0x2 SLOAD SWAP1 POP SWAP1 JUMP JUMPDEST PUSH0 DUP1 PUSH2 0x412 PUSH2 0x8C9 JUMP JUMPDEST SWAP1 POP PUSH2 0x41F DUP6 DUP3 DUP6 PUSH2 0x8E2 JUMP JUMPDEST PUSH2 0x42A DUP6 DUP6 DUP6 PUSH2 0x974 JUMP JUMPDEST PUSH1 0x1 SWAP2 POP POP SWAP4 SWAP3 POP POP POP JUMP JUMPDEST DUP1 DUP1 PUSH1 0x8 PUSH0 CALLER PUSH20 0xFFFFFFFFFFFFFFFFFFFFFFFFFFFFFFFFFFFFFFFF AND PUSH20 0xFFFFFFFFFFFFFFFFFFFFFFFFFFFFFFFFFFFFFFFF AND DUP2 MSTORE PUSH1 0x20 ADD SWAP1 DUP2 MSTORE PUSH1 0x20 ADD PUSH0 KECCAK256 SLOAD LT ISZERO PUSH2 0x4B7 JUMPI PUSH1 0x40 MLOAD PUSH32 0x8C379A000000000000000000000000000000000000000000000000000000000 DUP2 MSTORE PUSH1 0x4 ADD PUSH2 0x4AE SWAP1 PUSH2 0x12BE JUMP JUMPDEST PUSH1 0x40 MLOAD DUP1 SWAP2 SUB SWAP1 REVERT JUMPDEST PUSH0 CALLER PUSH20 0xFFFFFFFFFFFFFFFFFFFFFFFFFFFFFFFFFFFFFFFF AND DUP4 PUSH1 0x40 MLOAD PUSH2 0x4DC SWAP1 PUSH2 0x1309 JUMP JUMPDEST PUSH0 PUSH1 0x40 MLOAD DUP1 DUP4 SUB DUP2 DUP6 DUP8 GAS CALL SWAP3 POP POP POP RETURNDATASIZE DUP1 PUSH0 DUP2 EQ PUSH2 0x516 JUMPI PUSH1 0x40 MLOAD SWAP2 POP PUSH1 0x1F NOT PUSH1 0x3F RETURNDATASIZE ADD AND DUP3 ADD PUSH1 0x40 MSTORE RETURNDATASIZE DUP3 MSTORE RETURNDATASIZE PUSH0 PUSH1 0x20 DUP5 ADD RETURNDATACOPY PUSH2 0x51B JUMP JUMPDEST PUSH1 0x60 SWAP2 POP JUMPDEST POP POP SWAP1 POP DUP1 PUSH2 0x55F JUMPI PUSH1 0x40 MLOAD PUSH32 0x8C379A000000000000000000000000000000000000000000000000000000000 DUP2 MSTORE PUSH1 0x4 ADD PUSH2 0x556 SWAP1 PUSH2 0x1367 JUMP JUMPDEST PUSH1 0x40 MLOAD DUP1 SWAP2 SUB SWAP1 REVERT JUMPDEST DUP3 PUSH1 0x8 PUSH0 CALLER PUSH20 0xFFFFFFFFFFFFFFFFFFFFFFFFFFFFFFFFFFFFFFFF AND PUSH20 0xFFFFFFFFFFFFFFFFFFFFFFFFFFFFFFFFFFFFFFFF AND DUP2 MSTORE PUSH1 0x20 ADD SWAP1 DUP2 MSTORE PUSH1 0x20 ADD PUSH0 KECCAK256 PUSH0 DUP3 DUP3 SLOAD PUSH2 0x5AB SWAP2 SWAP1 PUSH2 0x13B2 JUMP JUMPDEST SWAP3 POP POP DUP2 SWAP1 SSTORE POP POP POP POP JUMP JUMPDEST PUSH0 PUSH1 0x12 SWAP1 POP SWAP1 JUMP JUMPDEST PUSH0 DUP1 PUSH0 DUP4 PUSH20 0xFFFFFFFFFFFFFFFFFFFFFFFFFFFFFFFFFFFFFFFF AND PUSH20 0xFFFFFFFFFFFFFFFFFFFFFFFFFFFFFFFFFFFFFFFF AND DUP2 MSTORE PUSH1 0x20 ADD SWAP1 DUP2 MSTORE PUSH1 0x20 ADD PUSH0 KECCAK256 SLOAD SWAP1 POP SWAP2 SWAP1 POP JUMP JUMPDEST PUSH1 0x60 PUSH1 0x4 DUP1 SLOAD PUSH2 0x613 SWAP1 PUSH2 0x1244 JUMP JUMPDEST DUP1 PUSH1 0x1F ADD PUSH1 0x20 DUP1 SWAP2 DIV MUL PUSH1 0x20 ADD PUSH1 0x40 MLOAD SWAP1 DUP2 ADD PUSH1 0x40 MSTORE DUP1 SWAP3 SWAP2 SWAP1 DUP2 DUP2 MSTORE PUSH1 0x20 ADD DUP3 DUP1 SLOAD PUSH2 0x63F SWAP1 PUSH2 0x1244 JUMP JUMPDEST DUP1 ISZERO PUSH2 0x68A JUMPI DUP1 PUSH1 0x1F LT PUSH2 0x661 JUMPI PUSH2 0x100 DUP1 DUP4 SLOAD DIV MUL DUP4 MSTORE SWAP2 PUSH1 0x20 ADD SWAP2 PUSH2 0x68A JUMP JUMPDEST DUP3 ADD SWAP2 SWAP1 PUSH0 MSTORE PUSH1 0x20 PUSH0 KECCAK256 SWAP1 JUMPDEST DUP2 SLOAD DUP2 MSTORE SWAP1 PUSH1 0x1 ADD SWAP1 PUSH1 0x20 ADD DUP1 DUP4 GT PUSH2 0x66D JUMPI DUP3 SWAP1 SUB PUSH1 0x1F AND DUP3 ADD SWAP2 JUMPDEST POP POP POP POP POP SWAP1 POP SWAP1 JUMP JUMPDEST PUSH0 DUP1 PUSH2 0x69E PUSH2 0x8C9 JUMP JUMPDEST SWAP1 POP PUSH2 0x6AB DUP2 DUP6 DUP6 PUSH2 0x974 JUMP JUMPDEST PUSH1 0x1 SWAP2 POP POP SWAP3 SWAP2 POP POP JUMP JUMPDEST PUSH1 0x7 DUP2 DUP2 SLOAD DUP2 LT PUSH2 0x6C5 JUMPI PUSH0 DUP1 REVERT JUMPDEST SWAP1 PUSH0 MSTORE PUSH1 0x20 PUSH0 KECCAK256 SWAP1 PUSH1 0x3 MUL ADD PUSH0 SWAP2 POP SWAP1 POP DUP1 PUSH0 ADD PUSH0 SWAP1 SLOAD SWAP1 PUSH2 0x100 EXP SWAP1 DIV PUSH20 0xFFFFFFFFFFFFFFFFFFFFFFFFFFFFFFFFFFFFFFFF AND SWAP1 DUP1 PUSH1 0x1 ADD SLOAD SWAP1 DUP1 PUSH1 0x2 ADD SLOAD SWAP1 POP DUP4 JUMP JUMPDEST PUSH0 PUSH1 0x1 PUSH0 DUP5 PUSH20 0xFFFFFFFFFFFFFFFFFFFFFFFFFFFFFFFFFFFFFFFF AND PUSH20 0xFFFFFFFFFFFFFFFFFFFFFFFFFFFFFFFFFFFFFFFF AND DUP2 MSTORE PUSH1 0x20 ADD SWAP1 DUP2 MSTORE PUSH1 0x20 ADD PUSH0 KECCAK256 PUSH0 DUP4 PUSH20 0xFFFFFFFFFFFFFFFFFFFFFFFFFFFFFFFFFFFFFFFF AND PUSH20 0xFFFFFFFFFFFFFFFFFFFFFFFFFFFFFFFFFFFFFFFF AND DUP2 MSTORE PUSH1 0x20 ADD SWAP1 DUP2 MSTORE PUSH1 0x20 ADD PUSH0 KECCAK256 SLOAD SWAP1 POP SWAP3 SWAP2 POP POP JUMP JUMPDEST PUSH1 0x8 PUSH1 0x20 MSTORE DUP1 PUSH0 MSTORE PUSH1 0x40 PUSH0 KECCAK256 PUSH0 SWAP2 POP SWAP1 POP SLOAD DUP2 JUMP JUMPDEST PUSH0 CALLVALUE PUSH1 0x8 PUSH0 CALLER PUSH20 0xFFFFFFFFFFFFFFFFFFFFFFFFFFFFFFFFFFFFFFFF AND PUSH20 0xFFFFFFFFFFFFFFFFFFFFFFFFFFFFFFFFFFFFFFFF AND DUP2 MSTORE PUSH1 0x20 ADD SWAP1 DUP2 MSTORE PUSH1 0x20 ADD PUSH0 KECCAK256 PUSH0 DUP3 DUP3 SLOAD PUSH2 0x7EE SWAP2 SWAP1 PUSH2 0x13E5 JUMP JUMPDEST SWAP3 POP POP DUP2 SWAP1 SSTORE POP PUSH1 0x7 PUSH1 0x40 MLOAD DUP1 PUSH1 0x60 ADD PUSH1 0x40 MSTORE DUP1 CALLER PUSH20 0xFFFFFFFFFFFFFFFFFFFFFFFFFFFFFFFFFFFFFFFF AND DUP2 MSTORE PUSH1 0x20 ADD CALLVALUE DUP2 MSTORE PUSH1 0x20 ADD TIMESTAMP DUP2 MSTORE POP SWAP1 DUP1 PUSH1 0x1 DUP2 SLOAD ADD DUP1 DUP3 SSTORE DUP1 SWAP2 POP POP PUSH1 0x1 SWAP1 SUB SWAP1 PUSH0 MSTORE PUSH1 0x20 PUSH0 KECCAK256 SWAP1 PUSH1 0x3 MUL ADD PUSH0 SWAP1 SWAP2 SWAP1 SWAP2 SWAP1 SWAP2 POP PUSH0 DUP3 ADD MLOAD DUP2 PUSH0 ADD PUSH0 PUSH2 0x100 EXP DUP2 SLOAD DUP2 PUSH20 0xFFFFFFFFFFFFFFFFFFFFFFFFFFFFFFFFFFFFFFFF MUL NOT AND SWAP1 DUP4 PUSH20 0xFFFFFFFFFFFFFFFFFFFFFFFFFFFFFFFFFFFFFFFF AND MUL OR SWAP1 SSTORE POP PUSH1 0x20 DUP3 ADD MLOAD DUP2 PUSH1 0x1 ADD SSTORE PUSH1 0x40 DUP3 ADD MLOAD DUP2 PUSH1 0x2 ADD SSTORE POP POP PUSH2 0x8B2 CALLER CALLVALUE PUSH2 0xA64 JUMP JUMPDEST PUSH1 0x1 PUSH1 0x7 DUP1 SLOAD SWAP1 POP PUSH2 0x8C4 SWAP2 SWAP1 PUSH2 0x13B2 JUMP JUMPDEST SWAP1 POP SWAP1 JUMP JUMPDEST PUSH0 CALLER SWAP1 POP SWAP1 JUMP JUMPDEST PUSH2 0x8DD DUP4 DUP4 DUP4 PUSH1 0x1 PUSH2 0xA72 JUMP JUMPDEST POP POP POP JUMP JUMPDEST PUSH0 PUSH2 0x8ED DUP5 DUP5 PUSH2 0x70A JUMP JUMPDEST SWAP1 POP PUSH32 0xFFFFFFFFFFFFFFFFFFFFFFFFFFFFFFFFFFFFFFFFFFFFFFFFFFFFFFFFFFFFFFFF DUP2 EQ PUSH2 0x96E JUMPI DUP2 DUP2 LT ISZERO PUSH2 0x95F JUMPI DUP3 DUP2 DUP4 PUSH1 0x40 MLOAD PUSH32 0xFB8F41B200000000000000000000000000000000000000000000000000000000 DUP2 MSTORE PUSH1 0x4 ADD PUSH2 0x956 SWAP4 SWAP3 SWAP2 SWAP1 PUSH2 0x11A4 JUMP JUMPDEST PUSH1 0x40 MLOAD DUP1 SWAP2 SUB SWAP1 REVERT JUMPDEST PUSH2 0x96D DUP5 DUP5 DUP5 DUP5 SUB PUSH0 PUSH2 0xA72 JUMP JUMPDEST JUMPDEST POP POP POP POP JUMP JUMPDEST PUSH0 PUSH20 0xFFFFFFFFFFFFFFFFFFFFFFFFFFFFFFFFFFFFFFFF AND DUP4 PUSH20 0xFFFFFFFFFFFFFFFFFFFFFFFFFFFFFFFFFFFFFFFF AND SUB PUSH2 0x9E4 JUMPI PUSH0 PUSH1 0x40 MLOAD PUSH32 0x96C6FD1E00000000000000000000000000000000000000000000000000000000 DUP2 MSTORE PUSH1 0x4 ADD PUSH2 0x9DB SWAP2 SWAP1 PUSH2 0x1418 JUMP JUMPDEST PUSH1 0x40 MLOAD DUP1 SWAP2 SUB SWAP1 REVERT JUMPDEST PUSH0 PUSH20 0xFFFFFFFFFFFFFFFFFFFFFFFFFFFFFFFFFFFFFFFF AND DUP3 PUSH20 0xFFFFFFFFFFFFFFFFFFFFFFFFFFFFFFFFFFFFFFFF AND SUB PUSH2 0xA54 JUMPI PUSH0 PUSH1 0x40 MLOAD PUSH32 0xEC442F0500000000000000000000000000000000000000000000000000000000 DUP2 MSTORE PUSH1 0x4 ADD PUSH2 0xA4B SWAP2 SWAP1 PUSH2 0x1418 JUMP JUMPDEST PUSH1 0x40 MLOAD DUP1 SWAP2 SUB SWAP1 REVERT JUMPDEST PUSH2 0xA5F DUP4 DUP4 DUP4 PUSH2 0xC41 JUMP JUMPDEST POP POP POP JUMP JUMPDEST PUSH2 0xA6E DUP3 DUP3 PUSH2 0xE5A JUMP JUMPDEST POP POP JUMP JUMPDEST PUSH0 PUSH20 0xFFFFFFFFFFFFFFFFFFFFFFFFFFFFFFFFFFFFFFFF AND DUP5 PUSH20 0xFFFFFFFFFFFFFFFFFFFFFFFFFFFFFFFFFFFFFFFF AND SUB PUSH2 0xAE2 JUMPI PUSH0 PUSH1 0x40 MLOAD PUSH32 0xE602DF0500000000000000000000000000000000000000000000000000000000 DUP2 MSTORE PUSH1 0x4 ADD PUSH2 0xAD9 SWAP2 SWAP1 PUSH2 0x1418 JUMP JUMPDEST PUSH1 0x40 MLOAD DUP1 SWAP2 SUB SWAP1 REVERT JUMPDEST PUSH0 PUSH20 0xFFFFFFFFFFFFFFFFFFFFFFFFFFFFFFFFFFFFFFFF AND DUP4 PUSH20 0xFFFFFFFFFFFFFFFFFFFFFFFFFFFFFFFFFFFFFFFF AND SUB PUSH2 0xB52 JUMPI PUSH0 PUSH1 0x40 MLOAD PUSH32 0x94280D6200000000000000000000000000000000000000000000000000000000 DUP2 MSTORE PUSH1 0x4 ADD PUSH2 0xB49 SWAP2 SWAP1 PUSH2 0x1418 JUMP JUMPDEST PUSH1 0x40 MLOAD DUP1 SWAP2 SUB SWAP1 REVERT JUMPDEST DUP2 PUSH1 0x1 PUSH0 DUP7 PUSH20 0xFFFFFFFFFFFFFFFFFFFFFFFFFFFFFFFFFFFFFFFF AND PUSH20 0xFFFFFFFFFFFFFFFFFFFFFFFFFFFFFFFFFFFFFFFF AND DUP2 MSTORE PUSH1 0x20 ADD SWAP1 DUP2 MSTORE PUSH1 0x20 ADD PUSH0 KECCAK256 PUSH0 DUP6 PUSH20 0xFFFFFFFFFFFFFFFFFFFFFFFFFFFFFFFFFFFFFFFF AND PUSH20 0xFFFFFFFFFFFFFFFFFFFFFFFFFFFFFFFFFFFFFFFF AND DUP2 MSTORE PUSH1 0x20 ADD SWAP1 DUP2 MSTORE PUSH1 0x20 ADD PUSH0 KECCAK256 DUP2 SWAP1 SSTORE POP DUP1 ISZERO PUSH2 0xC3B JUMPI DUP3 PUSH20 0xFFFFFFFFFFFFFFFFFFFFFFFFFFFFFFFFFFFFFFFF AND DUP5 PUSH20 0xFFFFFFFFFFFFFFFFFFFFFFFFFFFFFFFFFFFFFFFF AND PUSH32 0x8C5BE1E5EBEC7D5BD14F71427D1E84F3DD0314C0F7B2291E5B200AC8C7C3B925 DUP5 PUSH1 0x40 MLOAD PUSH2 0xC32 SWAP2 SWAP1 PUSH2 0x10A2 JUMP JUMPDEST PUSH1 0x40 MLOAD DUP1 SWAP2 SUB SWAP1 LOG3 JUMPDEST POP POP POP POP JUMP JUMPDEST PUSH0 PUSH20 0xFFFFFFFFFFFFFFFFFFFFFFFFFFFFFFFFFFFFFFFF AND DUP4 PUSH20 0xFFFFFFFFFFFFFFFFFFFFFFFFFFFFFFFFFFFFFFFF AND SUB PUSH2 0xC91 JUMPI DUP1 PUSH1 0x2 PUSH0 DUP3 DUP3 SLOAD PUSH2 0xC85 SWAP2 SWAP1 PUSH2 0x13E5 JUMP JUMPDEST SWAP3 POP POP DUP2 SWAP1 SSTORE POP PUSH2 0xD5F JUMP JUMPDEST PUSH0 DUP1 PUSH0 DUP6 PUSH20 0xFFFFFFFFFFFFFFFFFFFFFFFFFFFFFFFFFFFFFFFF AND PUSH20 0xFFFFFFFFFFFFFFFFFFFFFFFFFFFFFFFFFFFFFFFF AND DUP2 MSTORE PUSH1 0x20 ADD SWAP1 DUP2 MSTORE PUSH1 0x20 ADD PUSH0 KECCAK256 SLOAD SWAP1 POP DUP2 DUP2 LT ISZERO PUSH2 0xD1A JUMPI DUP4 DUP2 DUP4 PUSH1 0x40 MLOAD PUSH32 0xE450D38C00000000000000000000000000000000000000000000000000000000 DUP2 MSTORE PUSH1 0x4 ADD PUSH2 0xD11 SWAP4 SWAP3 SWAP2 SWAP1 PUSH2 0x11A4 JUMP JUMPDEST PUSH1 0x40 MLOAD DUP1 SWAP2 SUB SWAP1 REVERT JUMPDEST DUP2 DUP2 SUB PUSH0 DUP1 DUP7 PUSH20 0xFFFFFFFFFFFFFFFFFFFFFFFFFFFFFFFFFFFFFFFF AND PUSH20 0xFFFFFFFFFFFFFFFFFFFFFFFFFFFFFFFFFFFFFFFF AND DUP2 MSTORE PUSH1 0x20 ADD SWAP1 DUP2 MSTORE PUSH1 0x20 ADD PUSH0 KECCAK256 DUP2 SWAP1 SSTORE POP POP JUMPDEST PUSH0 PUSH20 0xFFFFFFFFFFFFFFFFFFFFFFFFFFFFFFFFFFFFFFFF AND DUP3 PUSH20 0xFFFFFFFFFFFFFFFFFFFFFFFFFFFFFFFFFFFFFFFF AND SUB PUSH2 0xDA6 JUMPI DUP1 PUSH1 0x2 PUSH0 DUP3 DUP3 SLOAD SUB SWAP3 POP POP DUP2 SWAP1 SSTORE POP PUSH2 0xDF0 JUMP JUMPDEST DUP1 PUSH0 DUP1 DUP5 PUSH20 0xFFFFFFFFFFFFFFFFFFFFFFFFFFFFFFFFFFFFFFFF AND PUSH20 0xFFFFFFFFFFFFFFFFFFFFFFFFFFFFFFFFFFFFFFFF AND DUP2 MSTORE PUSH1 0x20 ADD SWAP1 DUP2 MSTORE PUSH1 0x20 ADD PUSH0 KECCAK256 PUSH0 DUP3 DUP3 SLOAD ADD SWAP3 POP POP DUP2 SWAP1 SSTORE POP JUMPDEST DUP2 PUSH20 0xFFFFFFFFFFFFFFFFFFFFFFFFFFFFFFFFFFFFFFFF AND DUP4 PUSH20 0xFFFFFFFFFFFFFFFFFFFFFFFFFFFFFFFFFFFFFFFF AND PUSH32 0xDDF252AD1BE2C89B69C2B068FC378DAA952BA7F163C4A11628F55A4DF523B3EF DUP4 PUSH1 0x40 MLOAD PUSH2 0xE4D SWAP2 SWAP1 PUSH2 0x10A2 JUMP JUMPDEST PUSH1 0x40 MLOAD DUP1 SWAP2 SUB SWAP1 LOG3 POP POP POP JUMP JUMPDEST PUSH2 0xE64 DUP3 DUP3 PUSH2 0xE68 JUMP JUMPDEST POP POP JUMP JUMPDEST PUSH0 PUSH20 0xFFFFFFFFFFFFFFFFFFFFFFFFFFFFFFFFFFFFFFFF AND DUP3 PUSH20 0xFFFFFFFFFFFFFFFFFFFFFFFFFFFFFFFFFFFFFFFF AND SUB PUSH2 0xED8 JUMPI PUSH0 PUSH1 0x40 MLOAD PUSH32 0xEC442F0500000000000000000000000000000000000000000000000000000000 DUP2 MSTORE PUSH1 0x4 ADD PUSH2 0xECF SWAP2 SWAP1 PUSH2 0x1418 JUMP JUMPDEST PUSH1 0x40 MLOAD DUP1 SWAP2 SUB SWAP1 REVERT JUMPDEST PUSH2 0xEE3 PUSH0 DUP4 DUP4 PUSH2 0xC41 JUMP JUMPDEST POP POP JUMP JUMPDEST PUSH0 DUP2 MLOAD SWAP1 POP SWAP2 SWAP1 POP JUMP JUMPDEST PUSH0 DUP3 DUP3 MSTORE PUSH1 0x20 DUP3 ADD SWAP1 POP SWAP3 SWAP2 POP POP JUMP JUMPDEST PUSH0 JUMPDEST DUP4 DUP2 LT ISZERO PUSH2 0xF1E JUMPI DUP1 DUP3 ADD MLOAD DUP2 DUP5 ADD MSTORE PUSH1 0x20 DUP2 ADD SWAP1 POP PUSH2 0xF03 JUMP JUMPDEST PUSH0 DUP5 DUP5 ADD MSTORE POP POP POP POP JUMP JUMPDEST PUSH0 PUSH1 0x1F NOT PUSH1 0x1F DUP4 ADD AND SWAP1 POP SWAP2 SWAP1 POP JUMP JUMPDEST PUSH0 PUSH2 0xF43 DUP3 PUSH2 0xEE7 JUMP JUMPDEST PUSH2 0xF4D DUP2 DUP6 PUSH2 0xEF1 JUMP JUMPDEST SWAP4 POP PUSH2 0xF5D DUP2 DUP6 PUSH1 0x20 DUP7 ADD PUSH2 0xF01 JUMP JUMPDEST PUSH2 0xF66 DUP2 PUSH2 0xF29 JUMP JUMPDEST DUP5 ADD SWAP2 POP POP SWAP3 SWAP2 POP POP JUMP JUMPDEST PUSH0 PUSH1 0x20 DUP3 ADD SWAP1 POP DUP2 DUP2 SUB PUSH0 DUP4 ADD MSTORE PUSH2 0xF89 DUP2 DUP5 PUSH2 0xF39 JUMP JUMPDEST SWAP1 POP SWAP3 SWAP2 POP POP JUMP JUMPDEST PUSH0 DUP1 REVERT JUMPDEST PUSH0 PUSH20 0xFFFFFFFFFFFFFFFFFFFFFFFFFFFFFFFFFFFFFFFF DUP3 AND SWAP1 POP SWAP2 SWAP1 POP JUMP JUMPDEST PUSH0 PUSH2 0xFBE DUP3 PUSH2 0xF95 JUMP JUMPDEST SWAP1 POP SWAP2 SWAP1 POP JUMP JUMPDEST PUSH2 0xFCE DUP2 PUSH2 0xFB4 JUMP JUMPDEST DUP2 EQ PUSH2 0xFD8 JUMPI PUSH0 DUP1 REVERT JUMPDEST POP JUMP JUMPDEST PUSH0 DUP2 CALLDATALOAD SWAP1 POP PUSH2 0xFE9 DUP2 PUSH2 0xFC5 JUMP JUMPDEST SWAP3 SWAP2 POP POP JUMP JUMPDEST PUSH0 DUP2 SWAP1 POP SWAP2 SWAP1 POP JUMP JUMPDEST PUSH2 0x1001 DUP2 PUSH2 0xFEF JUMP JUMPDEST DUP2 EQ PUSH2 0x100B JUMPI PUSH0 DUP1 REVERT JUMPDEST POP JUMP JUMPDEST PUSH0 DUP2 CALLDATALOAD SWAP1 POP PUSH2 0x101C DUP2 PUSH2 0xFF8 JUMP JUMPDEST SWAP3 SWAP2 POP POP JUMP JUMPDEST PUSH0 DUP1 PUSH1 0x40 DUP4 DUP6 SUB SLT ISZERO PUSH2 0x1038 JUMPI PUSH2 0x1037 PUSH2 0xF91 JUMP JUMPDEST JUMPDEST PUSH0 PUSH2 0x1045 DUP6 DUP3 DUP7 ADD PUSH2 0xFDB JUMP JUMPDEST SWAP3 POP POP PUSH1 0x20 PUSH2 0x1056 DUP6 DUP3 DUP7 ADD PUSH2 0x100E JUMP JUMPDEST SWAP2 POP POP SWAP3 POP SWAP3 SWAP1 POP JUMP JUMPDEST PUSH0 DUP2 ISZERO ISZERO SWAP1 POP SWAP2 SWAP1 POP JUMP JUMPDEST PUSH2 0x1074 DUP2 PUSH2 0x1060 JUMP JUMPDEST DUP3 MSTORE POP POP JUMP JUMPDEST PUSH0 PUSH1 0x20 DUP3 ADD SWAP1 POP PUSH2 0x108D PUSH0 DUP4 ADD DUP5 PUSH2 0x106B JUMP JUMPDEST SWAP3 SWAP2 POP POP JUMP JUMPDEST PUSH2 0x109C DUP2 PUSH2 0xFEF JUMP JUMPDEST DUP3 MSTORE POP POP JUMP JUMPDEST PUSH0 PUSH1 0x20 DUP3 ADD SWAP1 POP PUSH2 0x10B5 PUSH0 DUP4 ADD DUP5 PUSH2 0x1093 JUMP JUMPDEST SWAP3 SWAP2 POP POP JUMP JUMPDEST PUSH0 DUP1 PUSH0 PUSH1 0x60 DUP5 DUP7 SUB SLT ISZERO PUSH2 0x10D2 JUMPI PUSH2 0x10D1 PUSH2 0xF91 JUMP JUMPDEST JUMPDEST PUSH0 PUSH2 0x10DF DUP7 DUP3 DUP8 ADD PUSH2 0xFDB JUMP JUMPDEST SWAP4 POP POP PUSH1 0x20 PUSH2 0x10F0 DUP7 DUP3 DUP8 ADD PUSH2 0xFDB JUMP JUMPDEST SWAP3 POP POP PUSH1 0x40 PUSH2 0x1101 DUP7 DUP3 DUP8 ADD PUSH2 0x100E JUMP JUMPDEST SWAP2 POP POP SWAP3 POP SWAP3 POP SWAP3 JUMP JUMPDEST PUSH0 PUSH1 0x20 DUP3 DUP5 SUB SLT ISZERO PUSH2 0x1120 JUMPI PUSH2 0x111F PUSH2 0xF91 JUMP JUMPDEST JUMPDEST PUSH0 PUSH2 0x112D DUP5 DUP3 DUP6 ADD PUSH2 0x100E JUMP JUMPDEST SWAP2 POP POP SWAP3 SWAP2 POP POP JUMP JUMPDEST PUSH0 PUSH1 0xFF DUP3 AND SWAP1 POP SWAP2 SWAP1 POP JUMP JUMPDEST PUSH2 0x114B DUP2 PUSH2 0x1136 JUMP JUMPDEST DUP3 MSTORE POP POP JUMP JUMPDEST PUSH0 PUSH1 0x20 DUP3 ADD SWAP1 POP PUSH2 0x1164 PUSH0 DUP4 ADD DUP5 PUSH2 0x1142 JUMP JUMPDEST SWAP3 SWAP2 POP POP JUMP JUMPDEST PUSH0 PUSH1 0x20 DUP3 DUP5 SUB SLT ISZERO PUSH2 0x117F JUMPI PUSH2 0x117E PUSH2 0xF91 JUMP JUMPDEST JUMPDEST PUSH0 PUSH2 0x118C DUP5 DUP3 DUP6 ADD PUSH2 0xFDB JUMP JUMPDEST SWAP2 POP POP SWAP3 SWAP2 POP POP JUMP JUMPDEST PUSH2 0x119E DUP2 PUSH2 0xFB4 JUMP JUMPDEST DUP3 MSTORE POP POP JUMP JUMPDEST PUSH0 PUSH1 0x60 DUP3 ADD SWAP1 POP PUSH2 0x11B7 PUSH0 DUP4 ADD DUP7 PUSH2 0x1195 JUMP JUMPDEST PUSH2 0x11C4 PUSH1 0x20 DUP4 ADD DUP6 PUSH2 0x1093 JUMP JUMPDEST PUSH2 0x11D1 PUSH1 0x40 DUP4 ADD DUP5 PUSH2 0x1093 JUMP JUMPDEST SWAP5 SWAP4 POP POP POP POP JUMP JUMPDEST PUSH0 DUP1 PUSH1 0x40 DUP4 DUP6 SUB SLT ISZERO PUSH2 0x11EF JUMPI PUSH2 0x11EE PUSH2 0xF91 JUMP JUMPDEST JUMPDEST PUSH0 PUSH2 0x11FC DUP6 DUP3 DUP7 ADD PUSH2 0xFDB JUMP JUMPDEST SWAP3 POP POP PUSH1 0x20 PUSH2 0x120D DUP6 DUP3 DUP7 ADD PUSH2 0xFDB JUMP JUMPDEST SWAP2 POP POP SWAP3 POP SWAP3 SWAP1 POP JUMP JUMPDEST PUSH32 0x4E487B7100000000000000000000000000000000000000000000000000000000 PUSH0 MSTORE PUSH1 0x22 PUSH1 0x4 MSTORE PUSH1 0x24 PUSH0 REVERT JUMPDEST PUSH0 PUSH1 0x2 DUP3 DIV SWAP1 POP PUSH1 0x1 DUP3 AND DUP1 PUSH2 0x125B JUMPI PUSH1 0x7F DUP3 AND SWAP2 POP JUMPDEST PUSH1 0x20 DUP3 LT DUP2 SUB PUSH2 0x126E JUMPI PUSH2 0x126D PUSH2 0x1217 JUMP JUMPDEST JUMPDEST POP SWAP2 SWAP1 POP JUMP JUMPDEST PUSH32 0x55736572206861736E7420656E6F756768206C696D6974000000000000000000 PUSH0 DUP3 ADD MSTORE POP JUMP JUMPDEST PUSH0 PUSH2 0x12A8 PUSH1 0x17 DUP4 PUSH2 0xEF1 JUMP JUMPDEST SWAP2 POP PUSH2 0x12B3 DUP3 PUSH2 0x1274 JUMP JUMPDEST PUSH1 0x20 DUP3 ADD SWAP1 POP SWAP2 SWAP1 POP JUMP JUMPDEST PUSH0 PUSH1 0x20 DUP3 ADD SWAP1 POP DUP2 DUP2 SUB PUSH0 DUP4 ADD MSTORE PUSH2 0x12D5 DUP2 PUSH2 0x129C JUMP JUMPDEST SWAP1 POP SWAP2 SWAP1 POP JUMP JUMPDEST PUSH0 DUP2 SWAP1 POP SWAP3 SWAP2 POP POP JUMP JUMPDEST POP JUMP JUMPDEST PUSH0 PUSH2 0x12F4 PUSH0 DUP4 PUSH2 0x12DC JUMP JUMPDEST SWAP2 POP PUSH2 0x12FF DUP3 PUSH2 0x12E6 JUMP JUMPDEST PUSH0 DUP3 ADD SWAP1 POP SWAP2 SWAP1 POP JUMP JUMPDEST PUSH0 PUSH2 0x1313 DUP3 PUSH2 0x12E9 JUMP JUMPDEST SWAP2 POP DUP2 SWAP1 POP SWAP2 SWAP1 POP JUMP JUMPDEST PUSH32 0x4661696C656420746F2073656E64204574686572000000000000000000000000 PUSH0 DUP3 ADD MSTORE POP JUMP JUMPDEST PUSH0 PUSH2 0x1351 PUSH1 0x14 DUP4 PUSH2 0xEF1 JUMP JUMPDEST SWAP2 POP PUSH2 0x135C DUP3 PUSH2 0x131D JUMP JUMPDEST PUSH1 0x20 DUP3 ADD SWAP1 POP SWAP2 SWAP1 POP JUMP JUMPDEST PUSH0 PUSH1 0x20 DUP3 ADD SWAP1 POP DUP2 DUP2 SUB PUSH0 DUP4 ADD MSTORE PUSH2 0x137E DUP2 PUSH2 0x1345 JUMP JUMPDEST SWAP1 POP SWAP2 SWAP1 POP JUMP JUMPDEST PUSH32 0x4E487B7100000000000000000000000000000000000000000000000000000000 PUSH0 MSTORE PUSH1 0x11 PUSH1 0x4 MSTORE PUSH1 0x24 PUSH0 REVERT JUMPDEST PUSH0 PUSH2 0x13BC DUP3 PUSH2 0xFEF JUMP JUMPDEST SWAP2 POP PUSH2 0x13C7 DUP4 PUSH2 0xFEF JUMP JUMPDEST SWAP3 POP DUP3 DUP3 SUB SWAP1 POP DUP2 DUP2 GT ISZERO PUSH2 0x13DF JUMPI PUSH2 0x13DE PUSH2 0x1385 JUMP JUMPDEST JUMPDEST SWAP3 SWAP2 POP POP JUMP JUMPDEST PUSH0 PUSH2 0x13EF DUP3 PUSH2 0xFEF JUMP JUMPDEST SWAP2 POP PUSH2 0x13FA DUP4 PUSH2 0xFEF JUMP JUMPDEST SWAP3 POP DUP3 DUP3 ADD SWAP1 POP DUP1 DUP3 GT ISZERO PUSH2 0x1412 JUMPI PUSH2 0x1411 PUSH2 0x1385 JUMP JUMPDEST JUMPDEST SWAP3 SWAP2 POP POP JUMP JUMPDEST PUSH0 PUSH1 0x20 DUP3 ADD SWAP1 POP PUSH2 0x142B PUSH0 DUP4 ADD DUP5 PUSH2 0x1195 JUMP JUMPDEST SWAP3 SWAP2 POP POP JUMP INVALID LOG2 PUSH5 0x6970667358 0x22 SLT KECCAK256 0xF9 PUSH16 0x42999724F2EAB14475930524A393597C 0xF6 0xEF 0xE9 PUSH5 0xB2DFBC06BE 0xF 0xB5 0xAF PUSH16 0x6D64736F6C63430008160033A2646970 PUSH7 0x73582212204EF3 0xC 0xD9 PUSH21 0x1AB2C35B6F65D1B9B0688720F77F6D14CDFE4C5462 0xC 0x2A 0xB4 MSTORE ORIGIN LOG2 PUSH5 0x736F6C6343 STOP ADDMOD AND STOP CALLER "
				},
				"gasEstimates": {
					"creation": {
						"codeDepositCost": "2144600",
						"executionCost": "2285",
						"totalCost": "2146885"
					},
					"external": {
						"assets(uint256)": "infinite",
						"createPool(string,address)": "infinite",
						"getAllAssets()": "infinite",
						"getPoolAddressForToken(string)": "infinite",
						"poolData(string)": "infinite"
					}
				},
				"methodIdentifiers": {
					"assets(uint256)": "cf35bdd0",
					"createPool(string,address)": "dc52eba8",
					"getAllAssets()": "2acada4d",
					"getPoolAddressForToken(string)": "d301fbbd",
					"poolData(string)": "db6a1d62"
				}
			},
			"storageLayout": {
				"storage": [
					{
						"astId": 792,
						"contract": "OpenZeppelin ERC20 - 1/pool/Lendingmarket.sol:LendingMarket",
						"label": "poolData",
						"offset": 0,
						"slot": "0",
						"type": "t_mapping(t_string_memory_ptr,t_address)"
					},
					{
						"astId": 795,
						"contract": "OpenZeppelin ERC20 - 1/pool/Lendingmarket.sol:LendingMarket",
						"label": "assets",
						"offset": 0,
						"slot": "1",
						"type": "t_array(t_string_storage)dyn_storage"
					}
				],
				"types": {
					"t_address": {
						"encoding": "inplace",
						"label": "address",
						"numberOfBytes": "20"
					},
					"t_array(t_string_storage)dyn_storage": {
						"base": "t_string_storage",
						"encoding": "dynamic_array",
						"label": "string[]",
						"numberOfBytes": "32"
					},
					"t_mapping(t_string_memory_ptr,t_address)": {
						"encoding": "mapping",
						"key": "t_string_memory_ptr",
						"label": "mapping(string => address)",
						"numberOfBytes": "32",
						"value": "t_address"
					},
					"t_string_memory_ptr": {
						"encoding": "bytes",
						"label": "string",
						"numberOfBytes": "32"
					},
					"t_string_storage": {
						"encoding": "bytes",
						"label": "string",
						"numberOfBytes": "32"
					}
				}
			},
			"userdoc": {
				"kind": "user",
				"methods": {},
				"version": 1
			}
		}
	}
}