{
	"LendingPool.sol": {
		"BankDeposit": {
			"abi": [
				{
					"inputs": [],
					"stateMutability": "payable",
					"type": "constructor"
				},
				{
					"inputs": [],
					"name": "BorrowError",
					"type": "error"
				},
				{
					"anonymous": false,
					"inputs": [
						{
							"indexed": true,
							"internalType": "address",
							"name": "borrower",
							"type": "address"
						},
						{
							"indexed": false,
							"internalType": "uint256",
							"name": "amount",
							"type": "uint256"
						}
					],
					"name": "Borrow",
					"type": "event"
				},
				{
					"anonymous": false,
					"inputs": [
						{
							"indexed": true,
							"internalType": "address",
							"name": "depositor",
							"type": "address"
						},
						{
							"indexed": false,
							"internalType": "uint256",
							"name": "amount",
							"type": "uint256"
						}
					],
					"name": "DepositMade",
					"type": "event"
				},
				{
					"anonymous": false,
					"inputs": [
						{
							"indexed": true,
							"internalType": "address",
							"name": "borrower",
							"type": "address"
						},
						{
							"indexed": false,
							"internalType": "uint256",
							"name": "repaidAmount",
							"type": "uint256"
						}
					],
					"name": "LoanRepayment",
					"type": "event"
				},
				{
					"anonymous": false,
					"inputs": [
						{
							"indexed": false,
							"internalType": "address",
							"name": "_from",
							"type": "address"
						},
						{
							"indexed": false,
							"internalType": "uint256",
							"name": "amount",
							"type": "uint256"
						},
						{
							"indexed": false,
							"internalType": "uint256",
							"name": "commission",
							"type": "uint256"
						}
					],
					"name": "Withdrawal",
					"type": "event"
				},
				{
					"inputs": [
						{
							"internalType": "uint256",
							"name": "index",
							"type": "uint256"
						}
					],
					"name": "cancelCollateralAmount",
					"outputs": [],
					"stateMutability": "nonpayable",
					"type": "function"
				},
				{
					"inputs": [],
					"name": "deposit",
					"outputs": [],
					"stateMutability": "payable",
					"type": "function"
				},
				{
					"inputs": [
						{
							"internalType": "address",
							"name": "user",
							"type": "address"
						}
					],
					"name": "getAllTransactions",
					"outputs": [
						{
							"components": [
								{
									"internalType": "uint256",
									"name": "amount",
									"type": "uint256"
								},
								{
									"internalType": "uint256",
									"name": "lockTime",
									"type": "uint256"
								},
								{
									"internalType": "bool",
									"name": "useAsCollateral",
									"type": "bool"
								},
								{
									"internalType": "bool",
									"name": "canWithdrawal",
									"type": "bool"
								},
								{
									"internalType": "uint256",
									"name": "depositTimeStamp",
									"type": "uint256"
								}
							],
							"internalType": "struct BankDeposit.Transaction[]",
							"name": "",
							"type": "tuple[]"
						}
					],
					"stateMutability": "view",
					"type": "function"
				},
				{
					"inputs": [],
					"name": "getDepositedValue",
					"outputs": [
						{
							"internalType": "uint256",
							"name": "",
							"type": "uint256"
						}
					],
					"stateMutability": "view",
					"type": "function"
				},
				{
					"inputs": [],
					"name": "getInterestAmount",
					"outputs": [
						{
							"internalType": "uint256",
							"name": "",
							"type": "uint256"
						}
					],
					"stateMutability": "view",
					"type": "function"
				},
				{
					"inputs": [
						{
							"internalType": "uint256",
							"name": "loanAmount",
							"type": "uint256"
						}
					],
					"name": "getLoan",
					"outputs": [],
					"stateMutability": "nonpayable",
					"type": "function"
				},
				{
					"inputs": [
						{
							"internalType": "address",
							"name": "user",
							"type": "address"
						}
					],
					"name": "getUserCollateral",
					"outputs": [
						{
							"internalType": "uint256",
							"name": "",
							"type": "uint256"
						}
					],
					"stateMutability": "view",
					"type": "function"
				},
				{
					"inputs": [
						{
							"internalType": "address",
							"name": "user",
							"type": "address"
						}
					],
					"name": "getUserLoanAmount",
					"outputs": [
						{
							"internalType": "uint256",
							"name": "",
							"type": "uint256"
						}
					],
					"stateMutability": "view",
					"type": "function"
				},
				{
					"inputs": [],
					"name": "healthFactor",
					"outputs": [
						{
							"internalType": "uint256",
							"name": "",
							"type": "uint256"
						}
					],
					"stateMutability": "view",
					"type": "function"
				},
				{
					"inputs": [
						{
							"internalType": "uint256",
							"name": "_secondsToIncrease",
							"type": "uint256"
						}
					],
					"name": "increaseLockTime",
					"outputs": [],
					"stateMutability": "nonpayable",
					"type": "function"
				},
				{
					"inputs": [],
					"name": "interestAmount",
					"outputs": [
						{
							"internalType": "uint256",
							"name": "",
							"type": "uint256"
						}
					],
					"stateMutability": "view",
					"type": "function"
				},
				{
					"inputs": [],
					"name": "liquidationThreshold",
					"outputs": [
						{
							"internalType": "uint256",
							"name": "",
							"type": "uint256"
						}
					],
					"stateMutability": "view",
					"type": "function"
				},
				{
					"inputs": [],
					"name": "loanTimeStamp",
					"outputs": [
						{
							"internalType": "uint256",
							"name": "",
							"type": "uint256"
						}
					],
					"stateMutability": "view",
					"type": "function"
				},
				{
					"inputs": [],
					"name": "repayLoan",
					"outputs": [
						{
							"internalType": "uint256",
							"name": "",
							"type": "uint256"
						}
					],
					"stateMutability": "payable",
					"type": "function"
				},
				{
					"inputs": [],
					"name": "repayLoanTimeStamp",
					"outputs": [
						{
							"internalType": "uint256",
							"name": "",
							"type": "uint256"
						}
					],
					"stateMutability": "view",
					"type": "function"
				},
				{
					"inputs": [
						{
							"internalType": "uint256",
							"name": "index",
							"type": "uint256"
						}
					],
					"name": "setCollateralAmount",
					"outputs": [],
					"stateMutability": "nonpayable",
					"type": "function"
				},
				{
					"inputs": [],
					"name": "totalCollateralAmount",
					"outputs": [
						{
							"internalType": "uint256",
							"name": "",
							"type": "uint256"
						}
					],
					"stateMutability": "view",
					"type": "function"
				},
				{
					"inputs": [
						{
							"internalType": "address",
							"name": "",
							"type": "address"
						}
					],
					"name": "userCollateralAmount",
					"outputs": [
						{
							"internalType": "uint256",
							"name": "",
							"type": "uint256"
						}
					],
					"stateMutability": "view",
					"type": "function"
				},
				{
					"inputs": [
						{
							"internalType": "address",
							"name": "",
							"type": "address"
						}
					],
					"name": "userLoanAmount",
					"outputs": [
						{
							"internalType": "uint256",
							"name": "",
							"type": "uint256"
						}
					],
					"stateMutability": "view",
					"type": "function"
				},
				{
					"inputs": [
						{
							"internalType": "uint256",
							"name": "index",
							"type": "uint256"
						}
					],
					"name": "withdraw",
					"outputs": [],
					"stateMutability": "nonpayable",
					"type": "function"
				},
				{
					"inputs": [],
					"name": "withdrawTimeStamp",
					"outputs": [
						{
							"internalType": "uint256",
							"name": "",
							"type": "uint256"
						}
					],
					"stateMutability": "view",
					"type": "function"
				}
			],
			"devdoc": {
				"kind": "dev",
				"methods": {},
				"version": 1
			},
			"evm": {
				"assembly": "    /* \"LendingPool.sol\":60:11119  contract BankDeposit {... */\n  mstore(0x40, 0x80)\n    /* \"LendingPool.sol\":570:580  msg.sender */\n  caller\n    /* \"LendingPool.sol\":558:567  ownerBank */\n  0x00\n  dup1\n    /* \"LendingPool.sol\":558:580  ownerBank = msg.sender */\n  0x0100\n  exp\n  dup2\n  sload\n  dup2\n  0xffffffffffffffffffffffffffffffffffffffff\n  mul\n  not\n  and\n  swap1\n  dup4\n  0xffffffffffffffffffffffffffffffffffffffff\n  and\n  mul\n  or\n  swap1\n  sstore\n  pop\n    /* \"LendingPool.sol\":614:623  msg.value */\n  callvalue\n    /* \"LendingPool.sol\":591:611  totalDepositedAmount */\n  0x01\n    /* \"LendingPool.sol\":591:623  totalDepositedAmount = msg.value */\n  dup2\n  swap1\n  sstore\n  pop\n    /* \"LendingPool.sol\":60:11119  contract BankDeposit {... */\n  dataSize(sub_0)\n  dup1\n  dataOffset(sub_0)\n  0x00\n  codecopy\n  0x00\n  return\nstop\n\nsub_0: assembly {\n        /* \"LendingPool.sol\":60:11119  contract BankDeposit {... */\n      mstore(0x40, 0x80)\n      jumpi(tag_1, lt(calldatasize, 0x04))\n      shr(0xe0, calldataload(0x00))\n      dup1\n      0x91f68106\n      gt\n      tag_23\n      jumpi\n      dup1\n      0xd0e30db0\n      gt\n      tag_24\n      jumpi\n      dup1\n      0xd0e30db0\n      eq\n      tag_17\n      jumpi\n      dup1\n      0xd7ee24e8\n      eq\n      tag_18\n      jumpi\n      dup1\n      0xdab3b7aa\n      eq\n      tag_19\n      jumpi\n      dup1\n      0xe2633637\n      eq\n      tag_20\n      jumpi\n      dup1\n      0xf966ade7\n      eq\n      tag_21\n      jumpi\n      dup1\n      0xfff2df2a\n      eq\n      tag_22\n      jumpi\n      jump(tag_1)\n    tag_24:\n      dup1\n      0x91f68106\n      eq\n      tag_12\n      jumpi\n      dup1\n      0xb1c43cbe\n      eq\n      tag_13\n      jumpi\n      dup1\n      0xb6f7132f\n      eq\n      tag_14\n      jumpi\n      dup1\n      0xb98ab070\n      eq\n      tag_15\n      jumpi\n      dup1\n      0xbf3eb03b\n      eq\n      tag_16\n      jumpi\n      jump(tag_1)\n    tag_23:\n      dup1\n      0x4031234c\n      gt\n      tag_25\n      jumpi\n      dup1\n      0x4031234c\n      eq\n      tag_7\n      jumpi\n      dup1\n      0x504006ca\n      eq\n      tag_8\n      jumpi\n      dup1\n      0x63f31d2c\n      eq\n      tag_9\n      jumpi\n      dup1\n      0x714fef4c\n      eq\n      tag_10\n      jumpi\n      dup1\n      0x79af55e4\n      eq\n      tag_11\n      jumpi\n      jump(tag_1)\n    tag_25:\n      dup1\n      0x22841f01\n      eq\n      tag_2\n      jumpi\n      dup1\n      0x2e1a7d4d\n      eq\n      tag_3\n      jumpi\n      dup1\n      0x366559c5\n      eq\n      tag_4\n      jumpi\n      dup1\n      0x3d4f04ad\n      eq\n      tag_5\n      jumpi\n      dup1\n      0x3ed58de0\n      eq\n      tag_6\n      jumpi\n    tag_1:\n      0x00\n      dup1\n      revert\n        /* \"LendingPool.sol\":248:275  uint256 public healthFactor */\n    tag_2:\n      callvalue\n      dup1\n      iszero\n      tag_26\n      jumpi\n      0x00\n      dup1\n      revert\n    tag_26:\n      pop\n      tag_27\n      tag_28\n      jump\t// in\n    tag_27:\n      mload(0x40)\n      tag_29\n      swap2\n      swap1\n      tag_30\n      jump\t// in\n    tag_29:\n      mload(0x40)\n      dup1\n      swap2\n      sub\n      swap1\n      return\n        /* \"LendingPool.sol\":3675:5745  function withdraw(uint256 index) public {... */\n    tag_3:\n      callvalue\n      dup1\n      iszero\n      tag_31\n      jumpi\n      0x00\n      dup1\n      revert\n    tag_31:\n      pop\n      tag_32\n      0x04\n      dup1\n      calldatasize\n      sub\n      dup2\n      add\n      swap1\n      tag_33\n      swap2\n      swap1\n      tag_34\n      jump\t// in\n    tag_33:\n      tag_35\n      jump\t// in\n    tag_32:\n      stop\n        /* \"LendingPool.sol\":392:425  uint256 public repayLoanTimeStamp */\n    tag_4:\n      callvalue\n      dup1\n      iszero\n      tag_36\n      jumpi\n      0x00\n      dup1\n      revert\n    tag_36:\n      pop\n      tag_37\n      tag_38\n      jump\t// in\n    tag_37:\n      mload(0x40)\n      tag_39\n      swap2\n      swap1\n      tag_30\n      jump\t// in\n    tag_39:\n      mload(0x40)\n      dup1\n      swap2\n      sub\n      swap1\n      return\n        /* \"LendingPool.sol\":5831:6499  function setCollateralAmount(uint256 index) public {... */\n    tag_5:\n      callvalue\n      dup1\n      iszero\n      tag_40\n      jumpi\n      0x00\n      dup1\n      revert\n    tag_40:\n      pop\n      tag_41\n      0x04\n      dup1\n      calldatasize\n      sub\n      dup2\n      add\n      swap1\n      tag_42\n      swap2\n      swap1\n      tag_34\n      jump\t// in\n    tag_42:\n      tag_43\n      jump\t// in\n    tag_41:\n      stop\n        /* \"LendingPool.sol\":357:385  uint256 public loanTimeStamp */\n    tag_6:\n      callvalue\n      dup1\n      iszero\n      tag_44\n      jumpi\n      0x00\n      dup1\n      revert\n    tag_44:\n      pop\n      tag_45\n      tag_46\n      jump\t// in\n    tag_45:\n      mload(0x40)\n      tag_47\n      swap2\n      swap1\n      tag_30\n      jump\t// in\n    tag_47:\n      mload(0x40)\n      dup1\n      swap2\n      sub\n      swap1\n      return\n        /* \"LendingPool.sol\":206:241  uint256 public liquidationThreshold */\n    tag_7:\n      callvalue\n      dup1\n      iszero\n      tag_48\n      jumpi\n      0x00\n      dup1\n      revert\n    tag_48:\n      pop\n      tag_49\n      tag_50\n      jump\t// in\n    tag_49:\n      mload(0x40)\n      tag_51\n      swap2\n      swap1\n      tag_30\n      jump\t// in\n    tag_51:\n      mload(0x40)\n      dup1\n      swap2\n      sub\n      swap1\n      return\n        /* \"LendingPool.sol\":7718:9059  function getLoan(uint256 loanAmount) external {... */\n    tag_8:\n      callvalue\n      dup1\n      iszero\n      tag_52\n      jumpi\n      0x00\n      dup1\n      revert\n    tag_52:\n      pop\n      tag_53\n      0x04\n      dup1\n      calldatasize\n      sub\n      dup2\n      add\n      swap1\n      tag_54\n      swap2\n      swap1\n      tag_34\n      jump\t// in\n    tag_54:\n      tag_55\n      jump\t// in\n    tag_53:\n      stop\n        /* \"LendingPool.sol\":163:199  uint256 public totalCollateralAmount */\n    tag_9:\n      callvalue\n      dup1\n      iszero\n      tag_56\n      jumpi\n      0x00\n      dup1\n      revert\n    tag_56:\n      pop\n      tag_57\n      tag_58\n      jump\t// in\n    tag_57:\n      mload(0x40)\n      tag_59\n      swap2\n      swap1\n      tag_30\n      jump\t// in\n    tag_59:\n      mload(0x40)\n      dup1\n      swap2\n      sub\n      swap1\n      return\n        /* \"LendingPool.sol\":318:350  uint256 public withdrawTimeStamp */\n    tag_10:\n      callvalue\n      dup1\n      iszero\n      tag_60\n      jumpi\n      0x00\n      dup1\n      revert\n    tag_60:\n      pop\n      tag_61\n      tag_62\n      jump\t// in\n    tag_61:\n      mload(0x40)\n      tag_63\n      swap2\n      swap1\n      tag_30\n      jump\t// in\n    tag_63:\n      mload(0x40)\n      dup1\n      swap2\n      sub\n      swap1\n      return\n        /* \"LendingPool.sol\":3304:3594  function increaseLockTime(uint256 _secondsToIncrease) public onlyOwner {... */\n    tag_11:\n      callvalue\n      dup1\n      iszero\n      tag_64\n      jumpi\n      0x00\n      dup1\n      revert\n    tag_64:\n      pop\n      tag_65\n      0x04\n      dup1\n      calldatasize\n      sub\n      dup2\n      add\n      swap1\n      tag_66\n      swap2\n      swap1\n      tag_34\n      jump\t// in\n    tag_66:\n      tag_67\n      jump\t// in\n    tag_65:\n      stop\n        /* \"LendingPool.sol\":10699:10804  function getDepositedValue() public view returns (uint256) {... */\n    tag_12:\n      callvalue\n      dup1\n      iszero\n      tag_68\n      jumpi\n      0x00\n      dup1\n      revert\n    tag_68:\n      pop\n      tag_69\n      tag_70\n      jump\t// in\n    tag_69:\n      mload(0x40)\n      tag_71\n      swap2\n      swap1\n      tag_30\n      jump\t// in\n    tag_71:\n      mload(0x40)\n      dup1\n      swap2\n      sub\n      swap1\n      return\n        /* \"LendingPool.sol\":995:1050  mapping(address => uint256) public userCollateralAmount */\n    tag_13:\n      callvalue\n      dup1\n      iszero\n      tag_72\n      jumpi\n      0x00\n      dup1\n      revert\n    tag_72:\n      pop\n      tag_73\n      0x04\n      dup1\n      calldatasize\n      sub\n      dup2\n      add\n      swap1\n      tag_74\n      swap2\n      swap1\n      tag_75\n      jump\t// in\n    tag_74:\n      tag_76\n      jump\t// in\n    tag_73:\n      mload(0x40)\n      tag_77\n      swap2\n      swap1\n      tag_30\n      jump\t// in\n    tag_77:\n      mload(0x40)\n      dup1\n      swap2\n      sub\n      swap1\n      return\n        /* \"LendingPool.sol\":10509:10632  function getUserCollateral(address user) public view returns (uint256) {... */\n    tag_14:\n      callvalue\n      dup1\n      iszero\n      tag_78\n      jumpi\n      0x00\n      dup1\n      revert\n    tag_78:\n      pop\n      tag_79\n      0x04\n      dup1\n      calldatasize\n      sub\n      dup2\n      add\n      swap1\n      tag_80\n      swap2\n      swap1\n      tag_75\n      jump\t// in\n    tag_80:\n      tag_81\n      jump\t// in\n    tag_79:\n      mload(0x40)\n      tag_82\n      swap2\n      swap1\n      tag_30\n      jump\t// in\n    tag_82:\n      mload(0x40)\n      dup1\n      swap2\n      sub\n      swap1\n      return\n        /* \"LendingPool.sol\":1320:1369  mapping(address => uint256) public userLoanAmount */\n    tag_15:\n      callvalue\n      dup1\n      iszero\n      tag_83\n      jumpi\n      0x00\n      dup1\n      revert\n    tag_83:\n      pop\n      tag_84\n      0x04\n      dup1\n      calldatasize\n      sub\n      dup2\n      add\n      swap1\n      tag_85\n      swap2\n      swap1\n      tag_75\n      jump\t// in\n    tag_85:\n      tag_86\n      jump\t// in\n    tag_84:\n      mload(0x40)\n      tag_87\n      swap2\n      swap1\n      tag_30\n      jump\t// in\n    tag_87:\n      mload(0x40)\n      dup1\n      swap2\n      sub\n      swap1\n      return\n        /* \"LendingPool.sol\":6507:7195  function cancelCollateralAmount(uint256 index) public {... */\n    tag_16:\n      callvalue\n      dup1\n      iszero\n      tag_88\n      jumpi\n      0x00\n      dup1\n      revert\n    tag_88:\n      pop\n      tag_89\n      0x04\n      dup1\n      calldatasize\n      sub\n      dup2\n      add\n      swap1\n      tag_90\n      swap2\n      swap1\n      tag_34\n      jump\t// in\n    tag_90:\n      tag_91\n      jump\t// in\n    tag_89:\n      stop\n        /* \"LendingPool.sol\":2202:3204  function deposit() external payable {... */\n    tag_17:\n      tag_92\n      tag_93\n      jump\t// in\n    tag_92:\n      stop\n        /* \"LendingPool.sol\":10329:10448  function getUserLoanAmount(address user) external view returns (uint256) {... */\n    tag_18:\n      callvalue\n      dup1\n      iszero\n      tag_94\n      jumpi\n      0x00\n      dup1\n      revert\n    tag_94:\n      pop\n      tag_95\n      0x04\n      dup1\n      calldatasize\n      sub\n      dup2\n      add\n      swap1\n      tag_96\n      swap2\n      swap1\n      tag_75\n      jump\t// in\n    tag_96:\n      tag_97\n      jump\t// in\n    tag_95:\n      mload(0x40)\n      tag_98\n      swap2\n      swap1\n      tag_30\n      jump\t// in\n    tag_98:\n      mload(0x40)\n      dup1\n      swap2\n      sub\n      swap1\n      return\n        /* \"LendingPool.sol\":10873:11009  function getAllTransactions(address user) public view returns (Transaction[] memory) {... */\n    tag_19:\n      callvalue\n      dup1\n      iszero\n      tag_99\n      jumpi\n      0x00\n      dup1\n      revert\n    tag_99:\n      pop\n      tag_100\n      0x04\n      dup1\n      calldatasize\n      sub\n      dup2\n      add\n      swap1\n      tag_101\n      swap2\n      swap1\n      tag_75\n      jump\t// in\n    tag_101:\n      tag_102\n      jump\t// in\n    tag_100:\n      mload(0x40)\n      tag_103\n      swap2\n      swap1\n      tag_104\n      jump\t// in\n    tag_103:\n      mload(0x40)\n      dup1\n      swap2\n      sub\n      swap1\n      return\n        /* \"LendingPool.sol\":11017:11116  function getInterestAmount() public view returns (uint256) {... */\n    tag_20:\n      callvalue\n      dup1\n      iszero\n      tag_105\n      jumpi\n      0x00\n      dup1\n      revert\n    tag_105:\n      pop\n      tag_106\n      tag_107\n      jump\t// in\n    tag_106:\n      mload(0x40)\n      tag_108\n      swap2\n      swap1\n      tag_30\n      jump\t// in\n    tag_108:\n      mload(0x40)\n      dup1\n      swap2\n      sub\n      swap1\n      return\n        /* \"LendingPool.sol\":9114:10260  function repayLoan() external payable returns (uint256) {... */\n    tag_21:\n      tag_109\n      tag_110\n      jump\t// in\n    tag_109:\n      mload(0x40)\n      tag_111\n      swap2\n      swap1\n      tag_30\n      jump\t// in\n    tag_111:\n      mload(0x40)\n      dup1\n      swap2\n      sub\n      swap1\n      return\n        /* \"LendingPool.sol\":282:311  uint256 public interestAmount */\n    tag_22:\n      callvalue\n      dup1\n      iszero\n      tag_112\n      jumpi\n      0x00\n      dup1\n      revert\n    tag_112:\n      pop\n      tag_113\n      tag_114\n      jump\t// in\n    tag_113:\n      mload(0x40)\n      tag_115\n      swap2\n      swap1\n      tag_30\n      jump\t// in\n    tag_115:\n      mload(0x40)\n      dup1\n      swap2\n      sub\n      swap1\n      return\n        /* \"LendingPool.sol\":248:275  uint256 public healthFactor */\n    tag_28:\n      sload(0x04)\n      dup2\n      jump\t// out\n        /* \"LendingPool.sol\":3675:5745  function withdraw(uint256 index) public {... */\n    tag_35:\n        /* \"LendingPool.sol\":3756:3775  depositTransactions */\n      0x09\n        /* \"LendingPool.sol\":3756:3787  depositTransactions[msg.sender] */\n      0x00\n        /* \"LendingPool.sol\":3776:3786  msg.sender */\n      caller\n        /* \"LendingPool.sol\":3756:3787  depositTransactions[msg.sender] */\n      0xffffffffffffffffffffffffffffffffffffffff\n      and\n      0xffffffffffffffffffffffffffffffffffffffff\n      and\n      dup2\n      mstore\n      0x20\n      add\n      swap1\n      dup2\n      mstore\n      0x20\n      add\n      0x00\n      keccak256\n        /* \"LendingPool.sol\":3756:3794  depositTransactions[msg.sender].length */\n      dup1\n      sload\n      swap1\n      pop\n        /* \"LendingPool.sol\":3748:3753  index */\n      dup2\n        /* \"LendingPool.sol\":3748:3794  index < depositTransactions[msg.sender].length */\n      lt\n        /* \"LendingPool.sol\":3726:3835  require(... */\n      tag_117\n      jumpi\n      mload(0x40)\n      0x08c379a000000000000000000000000000000000000000000000000000000000\n      dup2\n      mstore\n      0x04\n      add\n      tag_118\n      swap1\n      tag_119\n      jump\t// in\n    tag_118:\n      mload(0x40)\n      dup1\n      swap2\n      sub\n      swap1\n      revert\n    tag_117:\n        /* \"LendingPool.sol\":3886:3905  depositTransactions */\n      0x09\n        /* \"LendingPool.sol\":3886:3917  depositTransactions[msg.sender] */\n      0x00\n        /* \"LendingPool.sol\":3906:3916  msg.sender */\n      caller\n        /* \"LendingPool.sol\":3886:3917  depositTransactions[msg.sender] */\n      0xffffffffffffffffffffffffffffffffffffffff\n      and\n      0xffffffffffffffffffffffffffffffffffffffff\n      and\n      dup2\n      mstore\n      0x20\n      add\n      swap1\n      dup2\n      mstore\n      0x20\n      add\n      0x00\n      keccak256\n        /* \"LendingPool.sol\":3918:3923  index */\n      dup2\n        /* \"LendingPool.sol\":3886:3924  depositTransactions[msg.sender][index] */\n      dup2\n      sload\n      dup2\n      lt\n      tag_120\n      jumpi\n      tag_121\n      tag_122\n      jump\t// in\n    tag_121:\n    tag_120:\n      swap1\n      0x00\n      mstore\n      keccak256(0x00, 0x20)\n      swap1\n      0x04\n      mul\n      add\n        /* \"LendingPool.sol\":3886:3933  depositTransactions[msg.sender][index].lockTime */\n      0x01\n      add\n      sload\n        /* \"LendingPool.sol\":3868:3883  block.timestamp */\n      timestamp\n        /* \"LendingPool.sol\":3868:3933  block.timestamp > depositTransactions[msg.sender][index].lockTime */\n      gt\n        /* \"LendingPool.sol\":3846:3986  require(... */\n      tag_124\n      jumpi\n      mload(0x40)\n      0x08c379a000000000000000000000000000000000000000000000000000000000\n      dup2\n      mstore\n      0x04\n      add\n      tag_125\n      swap1\n      tag_126\n      jump\t// in\n    tag_125:\n      mload(0x40)\n      dup1\n      swap2\n      sub\n      swap1\n      revert\n    tag_124:\n        /* \"LendingPool.sol\":4149:4169  uint256 interestRate */\n      0x00\n        /* \"LendingPool.sol\":4172:4174  10 */\n      0x0a\n        /* \"LendingPool.sol\":4149:4174  uint256 interestRate = 10 */\n      swap1\n      pop\n        /* \"LendingPool.sol\":4205:4220  block.timestamp */\n      timestamp\n        /* \"LendingPool.sol\":4185:4202  withdrawTimeStamp */\n      0x06\n        /* \"LendingPool.sol\":4185:4220  withdrawTimeStamp = block.timestamp */\n      dup2\n      swap1\n      sstore\n      pop\n        /* \"LendingPool.sol\":4231:4253  uint256 deltaTimeStamp */\n      0x00\n        /* \"LendingPool.sol\":4277:4296  depositTransactions */\n      0x09\n        /* \"LendingPool.sol\":4277:4308  depositTransactions[msg.sender] */\n      0x00\n        /* \"LendingPool.sol\":4297:4307  msg.sender */\n      caller\n        /* \"LendingPool.sol\":4277:4308  depositTransactions[msg.sender] */\n      0xffffffffffffffffffffffffffffffffffffffff\n      and\n      0xffffffffffffffffffffffffffffffffffffffff\n      and\n      dup2\n      mstore\n      0x20\n      add\n      swap1\n      dup2\n      mstore\n      0x20\n      add\n      0x00\n      keccak256\n        /* \"LendingPool.sol\":4309:4314  index */\n      dup4\n        /* \"LendingPool.sol\":4277:4315  depositTransactions[msg.sender][index] */\n      dup2\n      sload\n      dup2\n      lt\n      tag_127\n      jumpi\n      tag_128\n      tag_122\n      jump\t// in\n    tag_128:\n    tag_127:\n      swap1\n      0x00\n      mstore\n      keccak256(0x00, 0x20)\n      swap1\n      0x04\n      mul\n      add\n        /* \"LendingPool.sol\":4277:4332  depositTransactions[msg.sender][index].depositTimeStamp */\n      0x03\n      add\n      sload\n        /* \"LendingPool.sol\":4257:4274  withdrawTimeStamp */\n      sload(0x06)\n        /* \"LendingPool.sol\":4257:4332  withdrawTimeStamp - depositTransactions[msg.sender][index].depositTimeStamp */\n      tag_130\n      swap2\n      swap1\n      tag_131\n      jump\t// in\n    tag_130:\n        /* \"LendingPool.sol\":4231:4333  uint256 deltaTimeStamp = (withdrawTimeStamp - depositTransactions[msg.sender][index].depositTimeStamp) */\n      swap1\n      pop\n        /* \"LendingPool.sol\":4344:4373  uint256 interestRatePerSecond */\n      0x00\n        /* \"LendingPool.sol\":4415:4426  10000000000 */\n      0x02540be400\n        /* \"LendingPool.sol\":4393:4410  365 * 24 * 60 *60 */\n      0x01e13380\n        /* \"LendingPool.sol\":4377:4389  interestRate */\n      dup5\n        /* \"LendingPool.sol\":4377:4411  interestRate / (365 * 24 * 60 *60) */\n      tag_132\n      swap2\n      swap1\n      tag_133\n      jump\t// in\n    tag_132:\n        /* \"LendingPool.sol\":4376:4426  (interestRate / (365 * 24 * 60 *60)) * 10000000000 */\n      tag_134\n      swap2\n      swap1\n      tag_135\n      jump\t// in\n    tag_134:\n        /* \"LendingPool.sol\":4344:4426  uint256 interestRatePerSecond = (interestRate / (365 * 24 * 60 *60)) * 10000000000 */\n      swap1\n      pop\n        /* \"LendingPool.sol\":4519:4540  interestRatePerSecond */\n      dup1\n        /* \"LendingPool.sol\":4502:4516  deltaTimeStamp */\n      dup3\n        /* \"LendingPool.sol\":4454:4473  depositTransactions */\n      0x09\n        /* \"LendingPool.sol\":4454:4485  depositTransactions[msg.sender] */\n      0x00\n        /* \"LendingPool.sol\":4474:4484  msg.sender */\n      caller\n        /* \"LendingPool.sol\":4454:4485  depositTransactions[msg.sender] */\n      0xffffffffffffffffffffffffffffffffffffffff\n      and\n      0xffffffffffffffffffffffffffffffffffffffff\n      and\n      dup2\n      mstore\n      0x20\n      add\n      swap1\n      dup2\n      mstore\n      0x20\n      add\n      0x00\n      keccak256\n        /* \"LendingPool.sol\":4486:4491  index */\n      dup7\n        /* \"LendingPool.sol\":4454:4492  depositTransactions[msg.sender][index] */\n      dup2\n      sload\n      dup2\n      lt\n      tag_136\n      jumpi\n      tag_137\n      tag_122\n      jump\t// in\n    tag_137:\n    tag_136:\n      swap1\n      0x00\n      mstore\n      keccak256(0x00, 0x20)\n      swap1\n      0x04\n      mul\n      add\n        /* \"LendingPool.sol\":4454:4499  depositTransactions[msg.sender][index].amount */\n      0x00\n      add\n      sload\n        /* \"LendingPool.sol\":4454:4516  depositTransactions[msg.sender][index].amount * deltaTimeStamp */\n      tag_139\n      swap2\n      swap1\n      tag_135\n      jump\t// in\n    tag_139:\n        /* \"LendingPool.sol\":4454:4540  depositTransactions[msg.sender][index].amount * deltaTimeStamp * interestRatePerSecond */\n      tag_140\n      swap2\n      swap1\n      tag_135\n      jump\t// in\n    tag_140:\n        /* \"LendingPool.sol\":4437:4451  interestAmount */\n      0x05\n        /* \"LendingPool.sol\":4437:4540  interestAmount = depositTransactions[msg.sender][index].amount * deltaTimeStamp * interestRatePerSecond */\n      dup2\n      swap1\n      sstore\n      pop\n        /* \"LendingPool.sol\":4553:4570  uint256 commision */\n      0x00\n        /* \"LendingPool.sol\":4636:4640  1000 */\n      0x03e8\n        /* \"LendingPool.sol\":4574:4593  depositTransactions */\n      0x09\n        /* \"LendingPool.sol\":4574:4605  depositTransactions[msg.sender] */\n      0x00\n        /* \"LendingPool.sol\":4594:4604  msg.sender */\n      caller\n        /* \"LendingPool.sol\":4574:4605  depositTransactions[msg.sender] */\n      0xffffffffffffffffffffffffffffffffffffffff\n      and\n      0xffffffffffffffffffffffffffffffffffffffff\n      and\n      dup2\n      mstore\n      0x20\n      add\n      swap1\n      dup2\n      mstore\n      0x20\n      add\n      0x00\n      keccak256\n        /* \"LendingPool.sol\":4606:4611  index */\n      dup7\n        /* \"LendingPool.sol\":4574:4612  depositTransactions[msg.sender][index] */\n      dup2\n      sload\n      dup2\n      lt\n      tag_141\n      jumpi\n      tag_142\n      tag_122\n      jump\t// in\n    tag_142:\n    tag_141:\n      swap1\n      0x00\n      mstore\n      keccak256(0x00, 0x20)\n      swap1\n      0x04\n      mul\n      add\n        /* \"LendingPool.sol\":4574:4619  depositTransactions[msg.sender][index].amount */\n      0x00\n      add\n      sload\n        /* \"LendingPool.sol\":4573:4640  (depositTransactions[msg.sender][index].amount) /... */\n      tag_144\n      swap2\n      swap1\n      tag_133\n      jump\t// in\n    tag_144:\n        /* \"LendingPool.sol\":4553:4640  uint256 commision = (depositTransactions[msg.sender][index].amount) /... */\n      swap1\n      pop\n        /* \"LendingPool.sol\":4651:4668  uint256 newAmount */\n      0x00\n        /* \"LendingPool.sol\":4746:4760  interestAmount */\n      sload(0x05)\n        /* \"LendingPool.sol\":4733:4742  commision */\n      dup3\n        /* \"LendingPool.sol\":4672:4691  depositTransactions */\n      0x09\n        /* \"LendingPool.sol\":4672:4703  depositTransactions[msg.sender] */\n      0x00\n        /* \"LendingPool.sol\":4692:4702  msg.sender */\n      caller\n        /* \"LendingPool.sol\":4672:4703  depositTransactions[msg.sender] */\n      0xffffffffffffffffffffffffffffffffffffffff\n      and\n      0xffffffffffffffffffffffffffffffffffffffff\n      and\n      dup2\n      mstore\n      0x20\n      add\n      swap1\n      dup2\n      mstore\n      0x20\n      add\n      0x00\n      keccak256\n        /* \"LendingPool.sol\":4704:4709  index */\n      dup9\n        /* \"LendingPool.sol\":4672:4710  depositTransactions[msg.sender][index] */\n      dup2\n      sload\n      dup2\n      lt\n      tag_145\n      jumpi\n      tag_146\n      tag_122\n      jump\t// in\n    tag_146:\n    tag_145:\n      swap1\n      0x00\n      mstore\n      keccak256(0x00, 0x20)\n      swap1\n      0x04\n      mul\n      add\n        /* \"LendingPool.sol\":4672:4717  depositTransactions[msg.sender][index].amount */\n      0x00\n      add\n      sload\n        /* \"LendingPool.sol\":4672:4742  depositTransactions[msg.sender][index].amount -... */\n      tag_148\n      swap2\n      swap1\n      tag_131\n      jump\t// in\n    tag_148:\n        /* \"LendingPool.sol\":4671:4760  (depositTransactions[msg.sender][index].amount -... */\n      tag_149\n      swap2\n      swap1\n      tag_131\n      jump\t// in\n    tag_149:\n        /* \"LendingPool.sol\":4651:4760  uint256 newAmount = (depositTransactions[msg.sender][index].amount -... */\n      swap1\n      pop\n        /* \"LendingPool.sol\":4777:4796  depositTransactions */\n      0x09\n        /* \"LendingPool.sol\":4777:4808  depositTransactions[msg.sender] */\n      0x00\n        /* \"LendingPool.sol\":4797:4807  msg.sender */\n      caller\n        /* \"LendingPool.sol\":4777:4808  depositTransactions[msg.sender] */\n      0xffffffffffffffffffffffffffffffffffffffff\n      and\n      0xffffffffffffffffffffffffffffffffffffffff\n      and\n      dup2\n      mstore\n      0x20\n      add\n      swap1\n      dup2\n      mstore\n      0x20\n      add\n      0x00\n      keccak256\n        /* \"LendingPool.sol\":4809:4814  index */\n      dup7\n        /* \"LendingPool.sol\":4777:4815  depositTransactions[msg.sender][index] */\n      dup2\n      sload\n      dup2\n      lt\n      tag_150\n      jumpi\n      tag_151\n      tag_122\n      jump\t// in\n    tag_151:\n    tag_150:\n      swap1\n      0x00\n      mstore\n      keccak256(0x00, 0x20)\n      swap1\n      0x04\n      mul\n      add\n        /* \"LendingPool.sol\":4777:4831  depositTransactions[msg.sender][index].useAsCollateral */\n      0x02\n      add\n      0x00\n      swap1\n      sload\n      swap1\n      0x0100\n      exp\n      swap1\n      div\n      0xff\n      and\n        /* \"LendingPool.sol\":4773:5076  if (depositTransactions[msg.sender][index].useAsCollateral) {... */\n      iszero\n      tag_153\n      jumpi\n        /* \"LendingPool.sol\":4873:4892  depositTransactions */\n      0x09\n        /* \"LendingPool.sol\":4873:4904  depositTransactions[msg.sender] */\n      0x00\n        /* \"LendingPool.sol\":4893:4903  msg.sender */\n      caller\n        /* \"LendingPool.sol\":4873:4904  depositTransactions[msg.sender] */\n      0xffffffffffffffffffffffffffffffffffffffff\n      and\n      0xffffffffffffffffffffffffffffffffffffffff\n      and\n      dup2\n      mstore\n      0x20\n      add\n      swap1\n      dup2\n      mstore\n      0x20\n      add\n      0x00\n      keccak256\n        /* \"LendingPool.sol\":4905:4910  index */\n      dup7\n        /* \"LendingPool.sol\":4873:4911  depositTransactions[msg.sender][index] */\n      dup2\n      sload\n      dup2\n      lt\n      tag_154\n      jumpi\n      tag_155\n      tag_122\n      jump\t// in\n    tag_155:\n    tag_154:\n      swap1\n      0x00\n      mstore\n      keccak256(0x00, 0x20)\n      swap1\n      0x04\n      mul\n      add\n        /* \"LendingPool.sol\":4873:4936  depositTransactions[msg.sender][index]... */\n      0x00\n      add\n      sload\n        /* \"LendingPool.sol\":4848:4869  totalCollateralAmount */\n      0x02\n      0x00\n        /* \"LendingPool.sol\":4848:4936  totalCollateralAmount -= depositTransactions[msg.sender][index]... */\n      dup3\n      dup3\n      sload\n      tag_157\n      swap2\n      swap1\n      tag_131\n      jump\t// in\n    tag_157:\n      swap3\n      pop\n      pop\n      dup2\n      swap1\n      sstore\n      pop\n        /* \"LendingPool.sol\":4987:5006  depositTransactions */\n      0x09\n        /* \"LendingPool.sol\":4987:5018  depositTransactions[msg.sender] */\n      0x00\n        /* \"LendingPool.sol\":5007:5017  msg.sender */\n      caller\n        /* \"LendingPool.sol\":4987:5018  depositTransactions[msg.sender] */\n      0xffffffffffffffffffffffffffffffffffffffff\n      and\n      0xffffffffffffffffffffffffffffffffffffffff\n      and\n      dup2\n      mstore\n      0x20\n      add\n      swap1\n      dup2\n      mstore\n      0x20\n      add\n      0x00\n      keccak256\n        /* \"LendingPool.sol\":5037:5042  index */\n      dup7\n        /* \"LendingPool.sol\":4987:5057  depositTransactions[msg.sender][... */\n      dup2\n      sload\n      dup2\n      lt\n      tag_158\n      jumpi\n      tag_159\n      tag_122\n      jump\t// in\n    tag_159:\n    tag_158:\n      swap1\n      0x00\n      mstore\n      keccak256(0x00, 0x20)\n      swap1\n      0x04\n      mul\n      add\n        /* \"LendingPool.sol\":4987:5064  depositTransactions[msg.sender][... */\n      0x00\n      add\n      sload\n        /* \"LendingPool.sol\":4951:4971  userCollateralAmount */\n      0x0a\n        /* \"LendingPool.sol\":4951:4983  userCollateralAmount[msg.sender] */\n      0x00\n        /* \"LendingPool.sol\":4972:4982  msg.sender */\n      caller\n        /* \"LendingPool.sol\":4951:4983  userCollateralAmount[msg.sender] */\n      0xffffffffffffffffffffffffffffffffffffffff\n      and\n      0xffffffffffffffffffffffffffffffffffffffff\n      and\n      dup2\n      mstore\n      0x20\n      add\n      swap1\n      dup2\n      mstore\n      0x20\n      add\n      0x00\n      keccak256\n      0x00\n        /* \"LendingPool.sol\":4951:5064  userCollateralAmount[msg.sender] -= depositTransactions[msg.sender][... */\n      dup3\n      dup3\n      sload\n      tag_161\n      swap2\n      swap1\n      tag_131\n      jump\t// in\n    tag_161:\n      swap3\n      pop\n      pop\n      dup2\n      swap1\n      sstore\n      pop\n        /* \"LendingPool.sol\":4773:5076  if (depositTransactions[msg.sender][index].useAsCollateral) {... */\n    tag_153:\n        /* \"LendingPool.sol\":5111:5113  75 */\n      0x4b\n        /* \"LendingPool.sol\":5088:5108  liquidationThreshold */\n      0x03\n        /* \"LendingPool.sol\":5088:5113  liquidationThreshold = 75 */\n      dup2\n      swap1\n      sstore\n      pop\n        /* \"LendingPool.sol\":5225:5239  userLoanAmount */\n      0x0d\n        /* \"LendingPool.sol\":5225:5251  userLoanAmount[msg.sender] */\n      0x00\n        /* \"LendingPool.sol\":5240:5250  msg.sender */\n      caller\n        /* \"LendingPool.sol\":5225:5251  userLoanAmount[msg.sender] */\n      0xffffffffffffffffffffffffffffffffffffffff\n      and\n      0xffffffffffffffffffffffffffffffffffffffff\n      and\n      dup2\n      mstore\n      0x20\n      add\n      swap1\n      dup2\n      mstore\n      0x20\n      add\n      0x00\n      keccak256\n      sload\n        /* \"LendingPool.sol\":5188:5208  liquidationThreshold */\n      sload(0x03)\n        /* \"LendingPool.sol\":5153:5173  userCollateralAmount */\n      0x0a\n        /* \"LendingPool.sol\":5153:5185  userCollateralAmount[msg.sender] */\n      0x00\n        /* \"LendingPool.sol\":5174:5184  msg.sender */\n      caller\n        /* \"LendingPool.sol\":5153:5185  userCollateralAmount[msg.sender] */\n      0xffffffffffffffffffffffffffffffffffffffff\n      and\n      0xffffffffffffffffffffffffffffffffffffffff\n      and\n      dup2\n      mstore\n      0x20\n      add\n      swap1\n      dup2\n      mstore\n      0x20\n      add\n      0x00\n      keccak256\n      sload\n        /* \"LendingPool.sol\":5153:5208  userCollateralAmount[msg.sender] * liquidationThreshold */\n      tag_162\n      swap2\n      swap1\n      tag_135\n      jump\t// in\n    tag_162:\n        /* \"LendingPool.sol\":5152:5251  (userCollateralAmount[msg.sender] * liquidationThreshold) /... */\n      tag_163\n      swap2\n      swap1\n      tag_133\n      jump\t// in\n    tag_163:\n        /* \"LendingPool.sol\":5124:5136  healthFactor */\n      0x04\n        /* \"LendingPool.sol\":5124:5251  healthFactor =... */\n      dup2\n      swap1\n      sstore\n      pop\n        /* \"LendingPool.sol\":5332:5342  msg.sender */\n      caller\n        /* \"LendingPool.sol\":5324:5352  payable(msg.sender).transfer */\n      0xffffffffffffffffffffffffffffffffffffffff\n      and\n        /* \"LendingPool.sol\":5324:5363  payable(msg.sender).transfer(newAmount) */\n      0x08fc\n        /* \"LendingPool.sol\":5353:5362  newAmount */\n      dup3\n        /* \"LendingPool.sol\":5324:5363  payable(msg.sender).transfer(newAmount) */\n      swap1\n      dup2\n      iszero\n      mul\n      swap1\n      mload(0x40)\n      0x00\n      mload(0x40)\n      dup1\n      dup4\n      sub\n      dup2\n      dup6\n      dup9\n      dup9\n      call\n      swap4\n      pop\n      pop\n      pop\n      pop\n      iszero\n      dup1\n      iszero\n      tag_165\n      jumpi\n      returndatasize\n      0x00\n      dup1\n      returndatacopy\n      revert(0x00, returndatasize)\n    tag_165:\n      pop\n        /* \"LendingPool.sol\":5398:5417  depositTransactions */\n      0x09\n        /* \"LendingPool.sol\":5398:5429  depositTransactions[msg.sender] */\n      0x00\n        /* \"LendingPool.sol\":5418:5428  msg.sender */\n      caller\n        /* \"LendingPool.sol\":5398:5429  depositTransactions[msg.sender] */\n      0xffffffffffffffffffffffffffffffffffffffff\n      and\n      0xffffffffffffffffffffffffffffffffffffffff\n      and\n      dup2\n      mstore\n      0x20\n      add\n      swap1\n      dup2\n      mstore\n      0x20\n      add\n      0x00\n      keccak256\n        /* \"LendingPool.sol\":5430:5435  index */\n      dup7\n        /* \"LendingPool.sol\":5398:5436  depositTransactions[msg.sender][index] */\n      dup2\n      sload\n      dup2\n      lt\n      tag_166\n      jumpi\n      tag_167\n      tag_122\n      jump\t// in\n    tag_167:\n    tag_166:\n      swap1\n      0x00\n      mstore\n      keccak256(0x00, 0x20)\n      swap1\n      0x04\n      mul\n      add\n        /* \"LendingPool.sol\":5398:5443  depositTransactions[msg.sender][index].amount */\n      0x00\n      add\n      sload\n        /* \"LendingPool.sol\":5374:5394  totalDepositedAmount */\n      0x01\n      0x00\n        /* \"LendingPool.sol\":5374:5443  totalDepositedAmount -= depositTransactions[msg.sender][index].amount */\n      dup3\n      dup3\n      sload\n      tag_169\n      swap2\n      swap1\n      tag_131\n      jump\t// in\n    tag_169:\n      swap3\n      pop\n      pop\n      dup2\n      swap1\n      sstore\n      pop\n        /* \"LendingPool.sol\":5534:5538  true */\n      0x01\n        /* \"LendingPool.sol\":5478:5538  depositTransactions[msg.sender][index].canWithdrawal == true */\n      iszero\n      iszero\n        /* \"LendingPool.sol\":5478:5497  depositTransactions */\n      0x09\n        /* \"LendingPool.sol\":5478:5509  depositTransactions[msg.sender] */\n      0x00\n        /* \"LendingPool.sol\":5498:5508  msg.sender */\n      caller\n        /* \"LendingPool.sol\":5478:5509  depositTransactions[msg.sender] */\n      0xffffffffffffffffffffffffffffffffffffffff\n      and\n      0xffffffffffffffffffffffffffffffffffffffff\n      and\n      dup2\n      mstore\n      0x20\n      add\n      swap1\n      dup2\n      mstore\n      0x20\n      add\n      0x00\n      keccak256\n        /* \"LendingPool.sol\":5510:5515  index */\n      dup8\n        /* \"LendingPool.sol\":5478:5516  depositTransactions[msg.sender][index] */\n      dup2\n      sload\n      dup2\n      lt\n      tag_170\n      jumpi\n      tag_171\n      tag_122\n      jump\t// in\n    tag_171:\n    tag_170:\n      swap1\n      0x00\n      mstore\n      keccak256(0x00, 0x20)\n      swap1\n      0x04\n      mul\n      add\n        /* \"LendingPool.sol\":5478:5530  depositTransactions[msg.sender][index].canWithdrawal */\n      0x02\n      add\n      0x01\n      swap1\n      sload\n      swap1\n      0x0100\n      exp\n      swap1\n      div\n      0xff\n      and\n        /* \"LendingPool.sol\":5478:5538  depositTransactions[msg.sender][index].canWithdrawal == true */\n      iszero\n      iszero\n      eq\n        /* \"LendingPool.sol\":5456:5604  require(... */\n      tag_173\n      jumpi\n      mload(0x40)\n      0x08c379a000000000000000000000000000000000000000000000000000000000\n      dup2\n      mstore\n      0x04\n      add\n      tag_174\n      swap1\n      tag_175\n      jump\t// in\n    tag_174:\n      mload(0x40)\n      dup1\n      swap2\n      sub\n      swap1\n      revert\n    tag_173:\n        /* \"LendingPool.sol\":5670:5675  false */\n      0x00\n        /* \"LendingPool.sol\":5615:5634  depositTransactions */\n      0x09\n        /* \"LendingPool.sol\":5615:5646  depositTransactions[msg.sender] */\n      0x00\n        /* \"LendingPool.sol\":5635:5645  msg.sender */\n      caller\n        /* \"LendingPool.sol\":5615:5646  depositTransactions[msg.sender] */\n      0xffffffffffffffffffffffffffffffffffffffff\n      and\n      0xffffffffffffffffffffffffffffffffffffffff\n      and\n      dup2\n      mstore\n      0x20\n      add\n      swap1\n      dup2\n      mstore\n      0x20\n      add\n      0x00\n      keccak256\n        /* \"LendingPool.sol\":5647:5652  index */\n      dup8\n        /* \"LendingPool.sol\":5615:5653  depositTransactions[msg.sender][index] */\n      dup2\n      sload\n      dup2\n      lt\n      tag_176\n      jumpi\n      tag_177\n      tag_122\n      jump\t// in\n    tag_177:\n    tag_176:\n      swap1\n      0x00\n      mstore\n      keccak256(0x00, 0x20)\n      swap1\n      0x04\n      mul\n      add\n        /* \"LendingPool.sol\":5615:5667  depositTransactions[msg.sender][index].canWithdrawal */\n      0x02\n      add\n      0x01\n        /* \"LendingPool.sol\":5615:5675  depositTransactions[msg.sender][index].canWithdrawal = false */\n      0x0100\n      exp\n      dup2\n      sload\n      dup2\n      0xff\n      mul\n      not\n      and\n      swap1\n      dup4\n      iszero\n      iszero\n      mul\n      or\n      swap1\n      sstore\n      pop\n        /* \"LendingPool.sol\":5693:5737  Withdrawal(msg.sender, newAmount, commision) */\n      0xdf273cb619d95419a9cd0ec88123a0538c85064229baa6363788f743fff90deb\n        /* \"LendingPool.sol\":5704:5714  msg.sender */\n      caller\n        /* \"LendingPool.sol\":5716:5725  newAmount */\n      dup3\n        /* \"LendingPool.sol\":5727:5736  commision */\n      dup5\n        /* \"LendingPool.sol\":5693:5737  Withdrawal(msg.sender, newAmount, commision) */\n      mload(0x40)\n      tag_179\n      swap4\n      swap3\n      swap2\n      swap1\n      tag_180\n      jump\t// in\n    tag_179:\n      mload(0x40)\n      dup1\n      swap2\n      sub\n      swap1\n      log1\n        /* \"LendingPool.sol\":3715:5745  {... */\n      pop\n      pop\n      pop\n      pop\n      pop\n        /* \"LendingPool.sol\":3675:5745  function withdraw(uint256 index) public {... */\n      pop\n      jump\t// out\n        /* \"LendingPool.sol\":392:425  uint256 public repayLoanTimeStamp */\n    tag_38:\n      sload(0x08)\n      dup2\n      jump\t// out\n        /* \"LendingPool.sol\":5831:6499  function setCollateralAmount(uint256 index) public {... */\n    tag_43:\n        /* \"LendingPool.sol\":5923:5942  depositTransactions */\n      0x09\n        /* \"LendingPool.sol\":5923:5954  depositTransactions[msg.sender] */\n      0x00\n        /* \"LendingPool.sol\":5943:5953  msg.sender */\n      caller\n        /* \"LendingPool.sol\":5923:5954  depositTransactions[msg.sender] */\n      0xffffffffffffffffffffffffffffffffffffffff\n      and\n      0xffffffffffffffffffffffffffffffffffffffff\n      and\n      dup2\n      mstore\n      0x20\n      add\n      swap1\n      dup2\n      mstore\n      0x20\n      add\n      0x00\n      keccak256\n        /* \"LendingPool.sol\":5923:5961  depositTransactions[msg.sender].length */\n      dup1\n      sload\n      swap1\n      pop\n        /* \"LendingPool.sol\":5915:5920  index */\n      dup2\n        /* \"LendingPool.sol\":5915:5961  index < depositTransactions[msg.sender].length */\n      lt\n        /* \"LendingPool.sol\":5893:6004  require(... */\n      tag_182\n      jumpi\n      mload(0x40)\n      0x08c379a000000000000000000000000000000000000000000000000000000000\n      dup2\n      mstore\n      0x04\n      add\n      tag_183\n      swap1\n      tag_184\n      jump\t// in\n    tag_183:\n      mload(0x40)\n      dup1\n      swap2\n      sub\n      swap1\n      revert\n    tag_182:\n        /* \"LendingPool.sol\":6017:6048  Transaction storage transaction */\n      0x00\n        /* \"LendingPool.sol\":6051:6070  depositTransactions */\n      0x09\n        /* \"LendingPool.sol\":6051:6082  depositTransactions[msg.sender] */\n      0x00\n        /* \"LendingPool.sol\":6071:6081  msg.sender */\n      caller\n        /* \"LendingPool.sol\":6051:6082  depositTransactions[msg.sender] */\n      0xffffffffffffffffffffffffffffffffffffffff\n      and\n      0xffffffffffffffffffffffffffffffffffffffff\n      and\n      dup2\n      mstore\n      0x20\n      add\n      swap1\n      dup2\n      mstore\n      0x20\n      add\n      0x00\n      keccak256\n        /* \"LendingPool.sol\":6097:6102  index */\n      dup3\n        /* \"LendingPool.sol\":6051:6113  depositTransactions[msg.sender][... */\n      dup2\n      sload\n      dup2\n      lt\n      tag_185\n      jumpi\n      tag_186\n      tag_122\n      jump\t// in\n    tag_186:\n    tag_185:\n      swap1\n      0x00\n      mstore\n      keccak256(0x00, 0x20)\n      swap1\n      0x04\n      mul\n      add\n        /* \"LendingPool.sol\":6017:6113  Transaction storage transaction = depositTransactions[msg.sender][... */\n      swap1\n      pop\n        /* \"LendingPool.sol\":6179:6184  false */\n      0x00\n        /* \"LendingPool.sol\":6148:6184  transaction.useAsCollateral == false */\n      iszero\n      iszero\n        /* \"LendingPool.sol\":6148:6159  transaction */\n      dup2\n        /* \"LendingPool.sol\":6148:6175  transaction.useAsCollateral */\n      0x02\n      add\n      0x00\n      swap1\n      sload\n      swap1\n      0x0100\n      exp\n      swap1\n      div\n      0xff\n      and\n        /* \"LendingPool.sol\":6148:6184  transaction.useAsCollateral == false */\n      iszero\n      iszero\n      eq\n        /* \"LendingPool.sol\":6126:6260  require(... */\n      tag_188\n      jumpi\n      mload(0x40)\n      0x08c379a000000000000000000000000000000000000000000000000000000000\n      dup2\n      mstore\n      0x04\n      add\n      tag_189\n      swap1\n      tag_190\n      jump\t// in\n    tag_189:\n      mload(0x40)\n      dup1\n      swap2\n      sub\n      swap1\n      revert\n    tag_188:\n        /* \"LendingPool.sol\":6303:6307  true */\n      0x01\n        /* \"LendingPool.sol\":6273:6284  transaction */\n      dup2\n        /* \"LendingPool.sol\":6273:6300  transaction.useAsCollateral */\n      0x02\n      add\n      0x00\n        /* \"LendingPool.sol\":6273:6307  transaction.useAsCollateral = true */\n      0x0100\n      exp\n      dup2\n      sload\n      dup2\n      0xff\n      mul\n      not\n      and\n      swap1\n      dup4\n      iszero\n      iszero\n      mul\n      or\n      swap1\n      sstore\n      pop\n        /* \"LendingPool.sol\":6324:6335  transaction */\n      dup1\n        /* \"LendingPool.sol\":6324:6351  transaction.useAsCollateral */\n      0x02\n      add\n      0x00\n      swap1\n      sload\n      swap1\n      0x0100\n      exp\n      swap1\n      div\n      0xff\n      and\n        /* \"LendingPool.sol\":6320:6492  if (transaction.useAsCollateral) {... */\n      iszero\n      tag_191\n      jumpi\n        /* \"LendingPool.sol\":6404:6415  transaction */\n      dup1\n        /* \"LendingPool.sol\":6404:6422  transaction.amount */\n      0x00\n      add\n      sload\n        /* \"LendingPool.sol\":6368:6388  userCollateralAmount */\n      0x0a\n        /* \"LendingPool.sol\":6368:6400  userCollateralAmount[msg.sender] */\n      0x00\n        /* \"LendingPool.sol\":6389:6399  msg.sender */\n      caller\n        /* \"LendingPool.sol\":6368:6400  userCollateralAmount[msg.sender] */\n      0xffffffffffffffffffffffffffffffffffffffff\n      and\n      0xffffffffffffffffffffffffffffffffffffffff\n      and\n      dup2\n      mstore\n      0x20\n      add\n      swap1\n      dup2\n      mstore\n      0x20\n      add\n      0x00\n      keccak256\n      0x00\n        /* \"LendingPool.sol\":6368:6422  userCollateralAmount[msg.sender] += transaction.amount */\n      dup3\n      dup3\n      sload\n      tag_192\n      swap2\n      swap1\n      tag_193\n      jump\t// in\n    tag_192:\n      swap3\n      pop\n      pop\n      dup2\n      swap1\n      sstore\n      pop\n        /* \"LendingPool.sol\":6462:6473  transaction */\n      dup1\n        /* \"LendingPool.sol\":6462:6480  transaction.amount */\n      0x00\n      add\n      sload\n        /* \"LendingPool.sol\":6437:6458  totalCollateralAmount */\n      0x02\n      0x00\n        /* \"LendingPool.sol\":6437:6480  totalCollateralAmount += transaction.amount */\n      dup3\n      dup3\n      sload\n      tag_194\n      swap2\n      swap1\n      tag_193\n      jump\t// in\n    tag_194:\n      swap3\n      pop\n      pop\n      dup2\n      swap1\n      sstore\n      pop\n        /* \"LendingPool.sol\":6320:6492  if (transaction.useAsCollateral) {... */\n    tag_191:\n        /* \"LendingPool.sol\":5882:6499  {... */\n      pop\n        /* \"LendingPool.sol\":5831:6499  function setCollateralAmount(uint256 index) public {... */\n      pop\n      jump\t// out\n        /* \"LendingPool.sol\":357:385  uint256 public loanTimeStamp */\n    tag_46:\n      sload(0x07)\n      dup2\n      jump\t// out\n        /* \"LendingPool.sol\":206:241  uint256 public liquidationThreshold */\n    tag_50:\n      sload(0x03)\n      dup2\n      jump\t// out\n        /* \"LendingPool.sol\":7718:9059  function getLoan(uint256 loanAmount) external {... */\n    tag_55:\n        /* \"LendingPool.sol\":7775:7800  uint256 loanAmountInEther */\n      0x00\n        /* \"LendingPool.sol\":7816:7823  1 ether */\n      0x0de0b6b3a7640000\n        /* \"LendingPool.sol\":7803:7813  loanAmount */\n      dup3\n        /* \"LendingPool.sol\":7803:7823  loanAmount * 1 ether */\n      tag_196\n      swap2\n      swap1\n      tag_135\n      jump\t// in\n    tag_196:\n        /* \"LendingPool.sol\":7775:7823  uint256 loanAmountInEther = loanAmount * 1 ether */\n      swap1\n      pop\n        /* \"LendingPool.sol\":7870:7890  userCollateralAmount */\n      0x0a\n        /* \"LendingPool.sol\":7870:7902  userCollateralAmount[msg.sender] */\n      0x00\n        /* \"LendingPool.sol\":7891:7901  msg.sender */\n      caller\n        /* \"LendingPool.sol\":7870:7902  userCollateralAmount[msg.sender] */\n      0xffffffffffffffffffffffffffffffffffffffff\n      and\n      0xffffffffffffffffffffffffffffffffffffffff\n      and\n      dup2\n      mstore\n      0x20\n      add\n      swap1\n      dup2\n      mstore\n      0x20\n      add\n      0x00\n      keccak256\n      sload\n        /* \"LendingPool.sol\":7856:7866  loanAmount */\n      dup3\n        /* \"LendingPool.sol\":7856:7902  loanAmount <= userCollateralAmount[msg.sender] */\n      gt\n      iszero\n        /* \"LendingPool.sol\":7834:7960  require(... */\n      tag_197\n      jumpi\n      mload(0x40)\n      0x08c379a000000000000000000000000000000000000000000000000000000000\n      dup2\n      mstore\n      0x04\n      add\n      tag_198\n      swap1\n      tag_199\n      jump\t// in\n    tag_198:\n      mload(0x40)\n      dup1\n      swap2\n      sub\n      swap1\n      revert\n    tag_197:\n        /* \"LendingPool.sol\":8294:8311  loanAmountInEther */\n      dup1\n        /* \"LendingPool.sol\":8269:8290  totalCollateralAmount */\n      0x02\n      0x00\n        /* \"LendingPool.sol\":8269:8311  totalCollateralAmount -= loanAmountInEther */\n      dup3\n      dup3\n      sload\n      tag_200\n      swap2\n      swap1\n      tag_131\n      jump\t// in\n    tag_200:\n      swap3\n      pop\n      pop\n      dup2\n      swap1\n      sstore\n      pop\n        /* \"LendingPool.sol\":8358:8375  loanAmountInEther */\n      dup1\n        /* \"LendingPool.sol\":8322:8342  userCollateralAmount */\n      0x0a\n        /* \"LendingPool.sol\":8322:8354  userCollateralAmount[msg.sender] */\n      0x00\n        /* \"LendingPool.sol\":8343:8353  msg.sender */\n      caller\n        /* \"LendingPool.sol\":8322:8354  userCollateralAmount[msg.sender] */\n      0xffffffffffffffffffffffffffffffffffffffff\n      and\n      0xffffffffffffffffffffffffffffffffffffffff\n      and\n      dup2\n      mstore\n      0x20\n      add\n      swap1\n      dup2\n      mstore\n      0x20\n      add\n      0x00\n      keccak256\n      0x00\n        /* \"LendingPool.sol\":8322:8375  userCollateralAmount[msg.sender] -= loanAmountInEther */\n      dup3\n      dup3\n      sload\n      tag_201\n      swap2\n      swap1\n      tag_131\n      jump\t// in\n    tag_201:\n      swap3\n      pop\n      pop\n      dup2\n      swap1\n      sstore\n      pop\n        /* \"LendingPool.sol\":8462:8479  loanAmountInEther */\n      dup1\n        /* \"LendingPool.sol\":8432:8446  userLoanAmount */\n      0x0d\n        /* \"LendingPool.sol\":8432:8458  userLoanAmount[msg.sender] */\n      0x00\n        /* \"LendingPool.sol\":8447:8457  msg.sender */\n      caller\n        /* \"LendingPool.sol\":8432:8458  userLoanAmount[msg.sender] */\n      0xffffffffffffffffffffffffffffffffffffffff\n      and\n      0xffffffffffffffffffffffffffffffffffffffff\n      and\n      dup2\n      mstore\n      0x20\n      add\n      swap1\n      dup2\n      mstore\n      0x20\n      add\n      0x00\n      keccak256\n      0x00\n        /* \"LendingPool.sol\":8432:8479  userLoanAmount[msg.sender] += loanAmountInEther */\n      dup3\n      dup3\n      sload\n      tag_202\n      swap2\n      swap1\n      tag_193\n      jump\t// in\n    tag_202:\n      swap3\n      pop\n      pop\n      dup2\n      swap1\n      sstore\n      pop\n        /* \"LendingPool.sol\":8515:8517  75 */\n      0x4b\n        /* \"LendingPool.sol\":8492:8512  liquidationThreshold */\n      0x03\n        /* \"LendingPool.sol\":8492:8517  liquidationThreshold = 75 */\n      dup2\n      swap1\n      sstore\n      pop\n        /* \"LendingPool.sol\":8629:8643  userLoanAmount */\n      0x0d\n        /* \"LendingPool.sol\":8629:8655  userLoanAmount[msg.sender] */\n      0x00\n        /* \"LendingPool.sol\":8644:8654  msg.sender */\n      caller\n        /* \"LendingPool.sol\":8629:8655  userLoanAmount[msg.sender] */\n      0xffffffffffffffffffffffffffffffffffffffff\n      and\n      0xffffffffffffffffffffffffffffffffffffffff\n      and\n      dup2\n      mstore\n      0x20\n      add\n      swap1\n      dup2\n      mstore\n      0x20\n      add\n      0x00\n      keccak256\n      sload\n        /* \"LendingPool.sol\":8592:8612  liquidationThreshold */\n      sload(0x03)\n        /* \"LendingPool.sol\":8557:8577  userCollateralAmount */\n      0x0a\n        /* \"LendingPool.sol\":8557:8589  userCollateralAmount[msg.sender] */\n      0x00\n        /* \"LendingPool.sol\":8578:8588  msg.sender */\n      caller\n        /* \"LendingPool.sol\":8557:8589  userCollateralAmount[msg.sender] */\n      0xffffffffffffffffffffffffffffffffffffffff\n      and\n      0xffffffffffffffffffffffffffffffffffffffff\n      and\n      dup2\n      mstore\n      0x20\n      add\n      swap1\n      dup2\n      mstore\n      0x20\n      add\n      0x00\n      keccak256\n      sload\n        /* \"LendingPool.sol\":8557:8612  userCollateralAmount[msg.sender] * liquidationThreshold */\n      tag_203\n      swap2\n      swap1\n      tag_135\n      jump\t// in\n    tag_203:\n        /* \"LendingPool.sol\":8556:8655  (userCollateralAmount[msg.sender] * liquidationThreshold) /... */\n      tag_204\n      swap2\n      swap1\n      tag_133\n      jump\t// in\n    tag_204:\n        /* \"LendingPool.sol\":8528:8540  healthFactor */\n      0x04\n        /* \"LendingPool.sol\":8528:8655  healthFactor =... */\n      dup2\n      swap1\n      sstore\n      pop\n        /* \"LendingPool.sol\":8823:8826  100 */\n      0x64\n        /* \"LendingPool.sol\":8807:8819  healthFactor */\n      sload(0x04)\n        /* \"LendingPool.sol\":8807:8826  healthFactor >= 100 */\n      lt\n      iszero\n        /* \"LendingPool.sol\":8799:8860  require(healthFactor >= 100, \"Health factor must be above 1\") */\n      tag_205\n      jumpi\n      mload(0x40)\n      0x08c379a000000000000000000000000000000000000000000000000000000000\n      dup2\n      mstore\n      0x04\n      add\n      tag_206\n      swap1\n      tag_207\n      jump\t// in\n    tag_206:\n      mload(0x40)\n      dup1\n      swap2\n      sub\n      swap1\n      revert\n    tag_205:\n        /* \"LendingPool.sol\":8881:8891  msg.sender */\n      caller\n        /* \"LendingPool.sol\":8873:8901  payable(msg.sender).transfer */\n      0xffffffffffffffffffffffffffffffffffffffff\n      and\n        /* \"LendingPool.sol\":8873:8920  payable(msg.sender).transfer(loanAmountInEther) */\n      0x08fc\n        /* \"LendingPool.sol\":8902:8919  loanAmountInEther */\n      dup3\n        /* \"LendingPool.sol\":8873:8920  payable(msg.sender).transfer(loanAmountInEther) */\n      swap1\n      dup2\n      iszero\n      mul\n      swap1\n      mload(0x40)\n      0x00\n      mload(0x40)\n      dup1\n      dup4\n      sub\n      dup2\n      dup6\n      dup9\n      dup9\n      call\n      swap4\n      pop\n      pop\n      pop\n      pop\n      iszero\n      dup1\n      iszero\n      tag_209\n      jumpi\n      returndatasize\n      0x00\n      dup1\n      returndatacopy\n      revert(0x00, returndatasize)\n    tag_209:\n      pop\n        /* \"LendingPool.sol\":8949:8964  block.timestamp */\n      timestamp\n        /* \"LendingPool.sol\":8933:8946  loanTimeStamp */\n      0x07\n        /* \"LendingPool.sol\":8933:8964  loanTimeStamp = block.timestamp */\n      dup2\n      swap1\n      sstore\n      pop\n        /* \"LendingPool.sol\":9028:9038  msg.sender */\n      caller\n        /* \"LendingPool.sol\":9021:9051  Borrow(msg.sender, loanAmount) */\n      0xffffffffffffffffffffffffffffffffffffffff\n      and\n      0xcbc04eca7e9da35cb1393a6135a199ca52e450d5e9251cbd99f7847d33a36750\n        /* \"LendingPool.sol\":9040:9050  loanAmount */\n      dup4\n        /* \"LendingPool.sol\":9021:9051  Borrow(msg.sender, loanAmount) */\n      mload(0x40)\n      tag_210\n      swap2\n      swap1\n      tag_30\n      jump\t// in\n    tag_210:\n      mload(0x40)\n      dup1\n      swap2\n      sub\n      swap1\n      log2\n        /* \"LendingPool.sol\":7764:9059  {... */\n      pop\n        /* \"LendingPool.sol\":7718:9059  function getLoan(uint256 loanAmount) external {... */\n      pop\n      jump\t// out\n        /* \"LendingPool.sol\":163:199  uint256 public totalCollateralAmount */\n    tag_58:\n      sload(0x02)\n      dup2\n      jump\t// out\n        /* \"LendingPool.sol\":318:350  uint256 public withdrawTimeStamp */\n    tag_62:\n      sload(0x06)\n      dup2\n      jump\t// out\n        /* \"LendingPool.sol\":3304:3594  function increaseLockTime(uint256 _secondsToIncrease) public onlyOwner {... */\n    tag_67:\n        /* \"LendingPool.sol\":2077:2086  ownerBank */\n      0x00\n      dup1\n      sload\n      swap1\n      0x0100\n      exp\n      swap1\n      div\n      0xffffffffffffffffffffffffffffffffffffffff\n      and\n        /* \"LendingPool.sol\":2063:2086  msg.sender == ownerBank */\n      0xffffffffffffffffffffffffffffffffffffffff\n      and\n        /* \"LendingPool.sol\":2063:2073  msg.sender */\n      caller\n        /* \"LendingPool.sol\":2063:2086  msg.sender == ownerBank */\n      0xffffffffffffffffffffffffffffffffffffffff\n      and\n      eq\n        /* \"LendingPool.sol\":2055:2112  require(msg.sender == ownerBank, \"You are not the owner\") */\n      tag_212\n      jumpi\n      mload(0x40)\n      0x08c379a000000000000000000000000000000000000000000000000000000000\n      dup2\n      mstore\n      0x04\n      add\n      tag_213\n      swap1\n      tag_214\n      jump\t// in\n    tag_213:\n      mload(0x40)\n      dup1\n      swap2\n      sub\n      swap1\n      revert\n    tag_212:\n        /* \"LendingPool.sol\":3386:3416  uint256 latestTransactionIndex */\n      0x00\n        /* \"LendingPool.sol\":3474:3475  1 */\n      0x01\n        /* \"LendingPool.sol\":3419:3438  depositTransactions */\n      0x09\n        /* \"LendingPool.sol\":3419:3450  depositTransactions[msg.sender] */\n      0x00\n        /* \"LendingPool.sol\":3439:3449  msg.sender */\n      caller\n        /* \"LendingPool.sol\":3419:3450  depositTransactions[msg.sender] */\n      0xffffffffffffffffffffffffffffffffffffffff\n      and\n      0xffffffffffffffffffffffffffffffffffffffff\n      and\n      dup2\n      mstore\n      0x20\n      add\n      swap1\n      dup2\n      mstore\n      0x20\n      add\n      0x00\n      keccak256\n        /* \"LendingPool.sol\":3419:3471  depositTransactions[msg.sender]... */\n      dup1\n      sload\n      swap1\n      pop\n        /* \"LendingPool.sol\":3419:3475  depositTransactions[msg.sender]... */\n      tag_216\n      swap2\n      swap1\n      tag_131\n      jump\t// in\n    tag_216:\n        /* \"LendingPool.sol\":3386:3475  uint256 latestTransactionIndex = depositTransactions[msg.sender]... */\n      swap1\n      pop\n        /* \"LendingPool.sol\":3568:3586  _secondsToIncrease */\n      dup2\n        /* \"LendingPool.sol\":3486:3505  depositTransactions */\n      0x09\n        /* \"LendingPool.sol\":3486:3517  depositTransactions[msg.sender] */\n      0x00\n        /* \"LendingPool.sol\":3506:3516  msg.sender */\n      caller\n        /* \"LendingPool.sol\":3486:3517  depositTransactions[msg.sender] */\n      0xffffffffffffffffffffffffffffffffffffffff\n      and\n      0xffffffffffffffffffffffffffffffffffffffff\n      and\n      dup2\n      mstore\n      0x20\n      add\n      swap1\n      dup2\n      mstore\n      0x20\n      add\n      0x00\n      keccak256\n        /* \"LendingPool.sol\":3518:3540  latestTransactionIndex */\n      dup3\n        /* \"LendingPool.sol\":3486:3541  depositTransactions[msg.sender][latestTransactionIndex] */\n      dup2\n      sload\n      dup2\n      lt\n      tag_217\n      jumpi\n      tag_218\n      tag_122\n      jump\t// in\n    tag_218:\n    tag_217:\n      swap1\n      0x00\n      mstore\n      keccak256(0x00, 0x20)\n      swap1\n      0x04\n      mul\n      add\n        /* \"LendingPool.sol\":3486:3564  depositTransactions[msg.sender][latestTransactionIndex]... */\n      0x01\n      add\n      0x00\n        /* \"LendingPool.sol\":3486:3586  depositTransactions[msg.sender][latestTransactionIndex]... */\n      dup3\n      dup3\n      sload\n      tag_220\n      swap2\n      swap1\n      tag_193\n      jump\t// in\n    tag_220:\n      swap3\n      pop\n      pop\n      dup2\n      swap1\n      sstore\n      pop\n        /* \"LendingPool.sol\":3375:3594  {... */\n      pop\n        /* \"LendingPool.sol\":3304:3594  function increaseLockTime(uint256 _secondsToIncrease) public onlyOwner {... */\n      pop\n      jump\t// out\n        /* \"LendingPool.sol\":10699:10804  function getDepositedValue() public view returns (uint256) {... */\n    tag_70:\n        /* \"LendingPool.sol\":10749:10756  uint256 */\n      0x00\n        /* \"LendingPool.sol\":10776:10796  totalDepositedAmount */\n      sload(0x01)\n        /* \"LendingPool.sol\":10769:10796  return totalDepositedAmount */\n      swap1\n      pop\n        /* \"LendingPool.sol\":10699:10804  function getDepositedValue() public view returns (uint256) {... */\n      swap1\n      jump\t// out\n        /* \"LendingPool.sol\":995:1050  mapping(address => uint256) public userCollateralAmount */\n    tag_76:\n      mstore(0x20, 0x0a)\n      dup1\n      0x00\n      mstore\n      keccak256(0x00, 0x40)\n      0x00\n      swap2\n      pop\n      swap1\n      pop\n      sload\n      dup2\n      jump\t// out\n        /* \"LendingPool.sol\":10509:10632  function getUserCollateral(address user) public view returns (uint256) {... */\n    tag_81:\n        /* \"LendingPool.sol\":10571:10578  uint256 */\n      0x00\n        /* \"LendingPool.sol\":10598:10618  userCollateralAmount */\n      0x0a\n        /* \"LendingPool.sol\":10598:10624  userCollateralAmount[user] */\n      0x00\n        /* \"LendingPool.sol\":10619:10623  user */\n      dup4\n        /* \"LendingPool.sol\":10598:10624  userCollateralAmount[user] */\n      0xffffffffffffffffffffffffffffffffffffffff\n      and\n      0xffffffffffffffffffffffffffffffffffffffff\n      and\n      dup2\n      mstore\n      0x20\n      add\n      swap1\n      dup2\n      mstore\n      0x20\n      add\n      0x00\n      keccak256\n      sload\n        /* \"LendingPool.sol\":10591:10624  return userCollateralAmount[user] */\n      swap1\n      pop\n        /* \"LendingPool.sol\":10509:10632  function getUserCollateral(address user) public view returns (uint256) {... */\n      swap2\n      swap1\n      pop\n      jump\t// out\n        /* \"LendingPool.sol\":1320:1369  mapping(address => uint256) public userLoanAmount */\n    tag_86:\n      mstore(0x20, 0x0d)\n      dup1\n      0x00\n      mstore\n      keccak256(0x00, 0x40)\n      0x00\n      swap2\n      pop\n      swap1\n      pop\n      sload\n      dup2\n      jump\t// out\n        /* \"LendingPool.sol\":6507:7195  function cancelCollateralAmount(uint256 index) public {... */\n    tag_91:\n        /* \"LendingPool.sol\":6602:6621  depositTransactions */\n      0x09\n        /* \"LendingPool.sol\":6602:6633  depositTransactions[msg.sender] */\n      0x00\n        /* \"LendingPool.sol\":6622:6632  msg.sender */\n      caller\n        /* \"LendingPool.sol\":6602:6633  depositTransactions[msg.sender] */\n      0xffffffffffffffffffffffffffffffffffffffff\n      and\n      0xffffffffffffffffffffffffffffffffffffffff\n      and\n      dup2\n      mstore\n      0x20\n      add\n      swap1\n      dup2\n      mstore\n      0x20\n      add\n      0x00\n      keccak256\n        /* \"LendingPool.sol\":6602:6640  depositTransactions[msg.sender].length */\n      dup1\n      sload\n      swap1\n      pop\n        /* \"LendingPool.sol\":6594:6599  index */\n      dup2\n        /* \"LendingPool.sol\":6594:6640  index < depositTransactions[msg.sender].length */\n      lt\n        /* \"LendingPool.sol\":6572:6683  require(... */\n      tag_224\n      jumpi\n      mload(0x40)\n      0x08c379a000000000000000000000000000000000000000000000000000000000\n      dup2\n      mstore\n      0x04\n      add\n      tag_225\n      swap1\n      tag_184\n      jump\t// in\n    tag_225:\n      mload(0x40)\n      dup1\n      swap2\n      sub\n      swap1\n      revert\n    tag_224:\n        /* \"LendingPool.sol\":6696:6727  Transaction storage transaction */\n      0x00\n        /* \"LendingPool.sol\":6730:6749  depositTransactions */\n      0x09\n        /* \"LendingPool.sol\":6730:6761  depositTransactions[msg.sender] */\n      0x00\n        /* \"LendingPool.sol\":6750:6760  msg.sender */\n      caller\n        /* \"LendingPool.sol\":6730:6761  depositTransactions[msg.sender] */\n      0xffffffffffffffffffffffffffffffffffffffff\n      and\n      0xffffffffffffffffffffffffffffffffffffffff\n      and\n      dup2\n      mstore\n      0x20\n      add\n      swap1\n      dup2\n      mstore\n      0x20\n      add\n      0x00\n      keccak256\n        /* \"LendingPool.sol\":6776:6781  index */\n      dup3\n        /* \"LendingPool.sol\":6730:6792  depositTransactions[msg.sender][... */\n      dup2\n      sload\n      dup2\n      lt\n      tag_226\n      jumpi\n      tag_227\n      tag_122\n      jump\t// in\n    tag_227:\n    tag_226:\n      swap1\n      0x00\n      mstore\n      keccak256(0x00, 0x20)\n      swap1\n      0x04\n      mul\n      add\n        /* \"LendingPool.sol\":6696:6792  Transaction storage transaction = depositTransactions[msg.sender][... */\n      swap1\n      pop\n        /* \"LendingPool.sol\":6858:6862  true */\n      0x01\n        /* \"LendingPool.sol\":6827:6862  transaction.useAsCollateral == true */\n      iszero\n      iszero\n        /* \"LendingPool.sol\":6827:6838  transaction */\n      dup2\n        /* \"LendingPool.sol\":6827:6854  transaction.useAsCollateral */\n      0x02\n      add\n      0x00\n      swap1\n      sload\n      swap1\n      0x0100\n      exp\n      swap1\n      div\n      0xff\n      and\n        /* \"LendingPool.sol\":6827:6862  transaction.useAsCollateral == true */\n      iszero\n      iszero\n      eq\n        /* \"LendingPool.sol\":6805:6946  require(... */\n      tag_229\n      jumpi\n      mload(0x40)\n      0x08c379a000000000000000000000000000000000000000000000000000000000\n      dup2\n      mstore\n      0x04\n      add\n      tag_230\n      swap1\n      tag_231\n      jump\t// in\n    tag_230:\n      mload(0x40)\n      dup1\n      swap2\n      sub\n      swap1\n      revert\n    tag_229:\n        /* \"LendingPool.sol\":6989:6994  false */\n      0x00\n        /* \"LendingPool.sol\":6959:6970  transaction */\n      dup2\n        /* \"LendingPool.sol\":6959:6986  transaction.useAsCollateral */\n      0x02\n      add\n      0x00\n        /* \"LendingPool.sol\":6959:6994  transaction.useAsCollateral = false */\n      0x0100\n      exp\n      dup2\n      sload\n      dup2\n      0xff\n      mul\n      not\n      and\n      swap1\n      dup4\n      iszero\n      iszero\n      mul\n      or\n      swap1\n      sstore\n      pop\n        /* \"LendingPool.sol\":7042:7047  false */\n      0x00\n        /* \"LendingPool.sol\":7011:7047  transaction.useAsCollateral == false */\n      iszero\n      iszero\n        /* \"LendingPool.sol\":7011:7022  transaction */\n      dup2\n        /* \"LendingPool.sol\":7011:7038  transaction.useAsCollateral */\n      0x02\n      add\n      0x00\n      swap1\n      sload\n      swap1\n      0x0100\n      exp\n      swap1\n      div\n      0xff\n      and\n        /* \"LendingPool.sol\":7011:7047  transaction.useAsCollateral == false */\n      iszero\n      iszero\n      sub\n        /* \"LendingPool.sol\":7007:7188  if (transaction.useAsCollateral == false) {... */\n      tag_232\n      jumpi\n        /* \"LendingPool.sol\":7100:7111  transaction */\n      dup1\n        /* \"LendingPool.sol\":7100:7118  transaction.amount */\n      0x00\n      add\n      sload\n        /* \"LendingPool.sol\":7064:7084  userCollateralAmount */\n      0x0a\n        /* \"LendingPool.sol\":7064:7096  userCollateralAmount[msg.sender] */\n      0x00\n        /* \"LendingPool.sol\":7085:7095  msg.sender */\n      caller\n        /* \"LendingPool.sol\":7064:7096  userCollateralAmount[msg.sender] */\n      0xffffffffffffffffffffffffffffffffffffffff\n      and\n      0xffffffffffffffffffffffffffffffffffffffff\n      and\n      dup2\n      mstore\n      0x20\n      add\n      swap1\n      dup2\n      mstore\n      0x20\n      add\n      0x00\n      keccak256\n      0x00\n        /* \"LendingPool.sol\":7064:7118  userCollateralAmount[msg.sender] -= transaction.amount */\n      dup3\n      dup3\n      sload\n      tag_233\n      swap2\n      swap1\n      tag_131\n      jump\t// in\n    tag_233:\n      swap3\n      pop\n      pop\n      dup2\n      swap1\n      sstore\n      pop\n        /* \"LendingPool.sol\":7158:7169  transaction */\n      dup1\n        /* \"LendingPool.sol\":7158:7176  transaction.amount */\n      0x00\n      add\n      sload\n        /* \"LendingPool.sol\":7133:7154  totalCollateralAmount */\n      0x02\n      0x00\n        /* \"LendingPool.sol\":7133:7176  totalCollateralAmount -= transaction.amount */\n      dup3\n      dup3\n      sload\n      tag_234\n      swap2\n      swap1\n      tag_131\n      jump\t// in\n    tag_234:\n      swap3\n      pop\n      pop\n      dup2\n      swap1\n      sstore\n      pop\n        /* \"LendingPool.sol\":7007:7188  if (transaction.useAsCollateral == false) {... */\n    tag_232:\n        /* \"LendingPool.sol\":6561:7195  {... */\n      pop\n        /* \"LendingPool.sol\":6507:7195  function cancelCollateralAmount(uint256 index) public {... */\n      pop\n      jump\t// out\n        /* \"LendingPool.sol\":2202:3204  function deposit() external payable {... */\n    tag_93:\n        /* \"LendingPool.sol\":2284:2296  5000000 gwei */\n      0x11c37937e08000\n        /* \"LendingPool.sol\":2271:2280  msg.value */\n      callvalue\n        /* \"LendingPool.sol\":2271:2296  msg.value >= 5000000 gwei */\n      lt\n      iszero\n        /* \"LendingPool.sol\":2249:2360  require(... */\n      tag_236\n      jumpi\n      mload(0x40)\n      0x08c379a000000000000000000000000000000000000000000000000000000000\n      dup2\n      mstore\n      0x04\n      add\n      tag_237\n      swap1\n      tag_238\n      jump\t// in\n    tag_237:\n      mload(0x40)\n      dup1\n      swap2\n      sub\n      swap1\n      revert\n    tag_236:\n        /* \"LendingPool.sol\":2448:2481  Transaction memory newTransaction */\n      0x00\n        /* \"LendingPool.sol\":2484:2735  Transaction({... */\n      mload(0x40)\n      dup1\n      0xa0\n      add\n      0x40\n      mstore\n      dup1\n        /* \"LendingPool.sol\":2519:2528  msg.value */\n      callvalue\n        /* \"LendingPool.sol\":2484:2735  Transaction({... */\n      dup2\n      mstore\n      0x20\n      add\n        /* \"LendingPool.sol\":2571:2572  1 */\n      0x01\n        /* \"LendingPool.sol\":2553:2568  block.timestamp */\n      timestamp\n        /* \"LendingPool.sol\":2553:2572  block.timestamp + 1 */\n      tag_239\n      swap2\n      swap1\n      tag_193\n      jump\t// in\n    tag_239:\n        /* \"LendingPool.sol\":2484:2735  Transaction({... */\n      dup2\n      mstore\n      0x20\n      add\n        /* \"LendingPool.sol\":2604:2608  true */\n      0x01\n        /* \"LendingPool.sol\":2484:2735  Transaction({... */\n      iszero\n      iszero\n      dup2\n      mstore\n      0x20\n      add\n        /* \"LendingPool.sol\":2638:2642  true */\n      0x01\n        /* \"LendingPool.sol\":2484:2735  Transaction({... */\n      iszero\n      iszero\n      dup2\n      mstore\n      0x20\n      add\n        /* \"LendingPool.sol\":2675:2690  block.timestamp */\n      timestamp\n        /* \"LendingPool.sol\":2484:2735  Transaction({... */\n      dup2\n      mstore\n      pop\n        /* \"LendingPool.sol\":2448:2735  Transaction memory newTransaction = Transaction({... */\n      swap1\n      pop\n        /* \"LendingPool.sol\":2748:2767  depositTransactions */\n      0x09\n        /* \"LendingPool.sol\":2748:2779  depositTransactions[msg.sender] */\n      0x00\n        /* \"LendingPool.sol\":2768:2778  msg.sender */\n      caller\n        /* \"LendingPool.sol\":2748:2779  depositTransactions[msg.sender] */\n      0xffffffffffffffffffffffffffffffffffffffff\n      and\n      0xffffffffffffffffffffffffffffffffffffffff\n      and\n      dup2\n      mstore\n      0x20\n      add\n      swap1\n      dup2\n      mstore\n      0x20\n      add\n      0x00\n      keccak256\n        /* \"LendingPool.sol\":2785:2799  newTransaction */\n      dup2\n        /* \"LendingPool.sol\":2748:2800  depositTransactions[msg.sender].push(newTransaction) */\n      swap1\n      dup1\n      0x01\n      dup2\n      sload\n      add\n      dup1\n      dup3\n      sstore\n      dup1\n      swap2\n      pop\n      pop\n      0x01\n      swap1\n      sub\n      swap1\n      0x00\n      mstore\n      keccak256(0x00, 0x20)\n      swap1\n      0x04\n      mul\n      add\n      0x00\n      swap1\n      swap2\n      swap1\n      swap2\n      swap1\n      swap2\n      pop\n      0x00\n      dup3\n      add\n      mload\n      dup2\n      0x00\n      add\n      sstore\n      0x20\n      dup3\n      add\n      mload\n      dup2\n      0x01\n      add\n      sstore\n      0x40\n      dup3\n      add\n      mload\n      dup2\n      0x02\n      add\n      exp(0x0100, 0x00)\n      dup2\n      sload\n      dup2\n      0xff\n      mul\n      not\n      and\n      swap1\n      dup4\n      iszero\n      iszero\n      mul\n      or\n      swap1\n      sstore\n      pop\n      0x60\n      dup3\n      add\n      mload\n      dup2\n      0x02\n      add\n      exp(0x0100, 0x01)\n      dup2\n      sload\n      dup2\n      0xff\n      mul\n      not\n      and\n      swap1\n      dup4\n      iszero\n      iszero\n      mul\n      or\n      swap1\n      sstore\n      pop\n      0x80\n      dup3\n      add\n      mload\n      dup2\n      0x03\n      add\n      sstore\n      pop\n      pop\n        /* \"LendingPool.sol\":2835:2844  msg.value */\n      callvalue\n        /* \"LendingPool.sol\":2811:2831  totalDepositedAmount */\n      0x01\n      0x00\n        /* \"LendingPool.sol\":2811:2844  totalDepositedAmount += msg.value */\n      dup3\n      dup3\n      sload\n      tag_241\n      swap2\n      swap1\n      tag_193\n      jump\t// in\n    tag_241:\n      swap3\n      pop\n      pop\n      dup2\n      swap1\n      sstore\n      pop\n        /* \"LendingPool.sol\":2880:2889  msg.value */\n      callvalue\n        /* \"LendingPool.sol\":2855:2876  totalCollateralAmount */\n      0x02\n      0x00\n        /* \"LendingPool.sol\":2855:2889  totalCollateralAmount += msg.value */\n      dup3\n      dup3\n      sload\n      tag_242\n      swap2\n      swap1\n      tag_193\n      jump\t// in\n    tag_242:\n      swap3\n      pop\n      pop\n      dup2\n      swap1\n      sstore\n      pop\n        /* \"LendingPool.sol\":2936:2945  msg.value */\n      callvalue\n        /* \"LendingPool.sol\":2900:2920  userCollateralAmount */\n      0x0a\n        /* \"LendingPool.sol\":2900:2932  userCollateralAmount[msg.sender] */\n      0x00\n        /* \"LendingPool.sol\":2921:2931  msg.sender */\n      caller\n        /* \"LendingPool.sol\":2900:2932  userCollateralAmount[msg.sender] */\n      0xffffffffffffffffffffffffffffffffffffffff\n      and\n      0xffffffffffffffffffffffffffffffffffffffff\n      and\n      dup2\n      mstore\n      0x20\n      add\n      swap1\n      dup2\n      mstore\n      0x20\n      add\n      0x00\n      keccak256\n      0x00\n        /* \"LendingPool.sol\":2900:2945  userCollateralAmount[msg.sender] += msg.value */\n      dup3\n      dup3\n      sload\n      tag_243\n      swap2\n      swap1\n      tag_193\n      jump\t// in\n    tag_243:\n      swap3\n      pop\n      pop\n      dup2\n      swap1\n      sstore\n      pop\n        /* \"LendingPool.sol\":2238:3204  {... */\n      pop\n        /* \"LendingPool.sol\":2202:3204  function deposit() external payable {... */\n      jump\t// out\n        /* \"LendingPool.sol\":10329:10448  function getUserLoanAmount(address user) external view returns (uint256) {... */\n    tag_97:\n        /* \"LendingPool.sol\":10393:10400  uint256 */\n      0x00\n        /* \"LendingPool.sol\":10420:10434  userLoanAmount */\n      0x0d\n        /* \"LendingPool.sol\":10420:10440  userLoanAmount[user] */\n      0x00\n        /* \"LendingPool.sol\":10435:10439  user */\n      dup4\n        /* \"LendingPool.sol\":10420:10440  userLoanAmount[user] */\n      0xffffffffffffffffffffffffffffffffffffffff\n      and\n      0xffffffffffffffffffffffffffffffffffffffff\n      and\n      dup2\n      mstore\n      0x20\n      add\n      swap1\n      dup2\n      mstore\n      0x20\n      add\n      0x00\n      keccak256\n      sload\n        /* \"LendingPool.sol\":10413:10440  return userLoanAmount[user] */\n      swap1\n      pop\n        /* \"LendingPool.sol\":10329:10448  function getUserLoanAmount(address user) external view returns (uint256) {... */\n      swap2\n      swap1\n      pop\n      jump\t// out\n        /* \"LendingPool.sol\":10873:11009  function getAllTransactions(address user) public view returns (Transaction[] memory) {... */\n    tag_102:\n        /* \"LendingPool.sol\":10936:10956  Transaction[] memory */\n      0x60\n        /* \"LendingPool.sol\":10976:10995  depositTransactions */\n      0x09\n        /* \"LendingPool.sol\":10976:11001  depositTransactions[user] */\n      0x00\n        /* \"LendingPool.sol\":10996:11000  user */\n      dup4\n        /* \"LendingPool.sol\":10976:11001  depositTransactions[user] */\n      0xffffffffffffffffffffffffffffffffffffffff\n      and\n      0xffffffffffffffffffffffffffffffffffffffff\n      and\n      dup2\n      mstore\n      0x20\n      add\n      swap1\n      dup2\n      mstore\n      0x20\n      add\n      0x00\n      keccak256\n        /* \"LendingPool.sol\":10969:11001  return depositTransactions[user] */\n      dup1\n      sload\n      dup1\n      0x20\n      mul\n      0x20\n      add\n      mload(0x40)\n      swap1\n      dup2\n      add\n      0x40\n      mstore\n      dup1\n      swap3\n      swap2\n      swap1\n      dup2\n      dup2\n      mstore\n      0x20\n      add\n      0x00\n      swap1\n    tag_246:\n      dup3\n      dup3\n      lt\n      iszero\n      tag_247\n      jumpi\n      dup4\n      dup3\n      swap1\n      0x00\n      mstore\n      keccak256(0x00, 0x20)\n      swap1\n      0x04\n      mul\n      add\n      mload(0x40)\n      dup1\n      0xa0\n      add\n      0x40\n      mstore\n      swap1\n      dup2\n      0x00\n      dup3\n      add\n      sload\n      dup2\n      mstore\n      0x20\n      add\n      0x01\n      dup3\n      add\n      sload\n      dup2\n      mstore\n      0x20\n      add\n      0x02\n      dup3\n      add\n      0x00\n      swap1\n      sload\n      swap1\n      0x0100\n      exp\n      swap1\n      div\n      0xff\n      and\n      iszero\n      iszero\n      iszero\n      iszero\n      dup2\n      mstore\n      0x20\n      add\n      0x02\n      dup3\n      add\n      0x01\n      swap1\n      sload\n      swap1\n      0x0100\n      exp\n      swap1\n      div\n      0xff\n      and\n      iszero\n      iszero\n      iszero\n      iszero\n      dup2\n      mstore\n      0x20\n      add\n      0x03\n      dup3\n      add\n      sload\n      dup2\n      mstore\n      pop\n      pop\n      dup2\n      mstore\n      0x20\n      add\n      swap1\n      0x01\n      add\n      swap1\n      jump(tag_246)\n    tag_247:\n      pop\n      pop\n      pop\n      pop\n      swap1\n      pop\n        /* \"LendingPool.sol\":10873:11009  function getAllTransactions(address user) public view returns (Transaction[] memory) {... */\n      swap2\n      swap1\n      pop\n      jump\t// out\n        /* \"LendingPool.sol\":11017:11116  function getInterestAmount() public view returns (uint256) {... */\n    tag_107:\n        /* \"LendingPool.sol\":11067:11074  uint256 */\n      0x00\n        /* \"LendingPool.sol\":11094:11108  interestAmount */\n      sload(0x05)\n        /* \"LendingPool.sol\":11087:11108  return interestAmount */\n      swap1\n      pop\n        /* \"LendingPool.sol\":11017:11116  function getInterestAmount() public view returns (uint256) {... */\n      swap1\n      jump\t// out\n        /* \"LendingPool.sol\":9114:10260  function repayLoan() external payable returns (uint256) {... */\n    tag_110:\n        /* \"LendingPool.sol\":9161:9168  uint256 */\n      0x00\n        /* \"LendingPool.sol\":9216:9230  userLoanAmount */\n      0x0d\n        /* \"LendingPool.sol\":9216:9242  userLoanAmount[msg.sender] */\n      0x00\n        /* \"LendingPool.sol\":9231:9241  msg.sender */\n      caller\n        /* \"LendingPool.sol\":9216:9242  userLoanAmount[msg.sender] */\n      0xffffffffffffffffffffffffffffffffffffffff\n      and\n      0xffffffffffffffffffffffffffffffffffffffff\n      and\n      dup2\n      mstore\n      0x20\n      add\n      swap1\n      dup2\n      mstore\n      0x20\n      add\n      0x00\n      keccak256\n      sload\n        /* \"LendingPool.sol\":9203:9212  msg.value */\n      callvalue\n        /* \"LendingPool.sol\":9203:9242  msg.value <= userLoanAmount[msg.sender] */\n      gt\n      iszero\n        /* \"LendingPool.sol\":9181:9311  require(... */\n      tag_251\n      jumpi\n      mload(0x40)\n      0x08c379a000000000000000000000000000000000000000000000000000000000\n      dup2\n      mstore\n      0x04\n      add\n      tag_252\n      swap1\n      tag_253\n      jump\t// in\n    tag_252:\n      mload(0x40)\n      dup1\n      swap2\n      sub\n      swap1\n      revert\n    tag_251:\n        /* \"LendingPool.sol\":9413:9422  msg.value */\n      callvalue\n        /* \"LendingPool.sol\":9383:9397  userLoanAmount */\n      0x0d\n        /* \"LendingPool.sol\":9383:9409  userLoanAmount[msg.sender] */\n      0x00\n        /* \"LendingPool.sol\":9398:9408  msg.sender */\n      caller\n        /* \"LendingPool.sol\":9383:9409  userLoanAmount[msg.sender] */\n      0xffffffffffffffffffffffffffffffffffffffff\n      and\n      0xffffffffffffffffffffffffffffffffffffffff\n      and\n      dup2\n      mstore\n      0x20\n      add\n      swap1\n      dup2\n      mstore\n      0x20\n      add\n      0x00\n      keccak256\n      0x00\n        /* \"LendingPool.sol\":9383:9422  userLoanAmount[msg.sender] -= msg.value */\n      dup3\n      dup3\n      sload\n      tag_254\n      swap2\n      swap1\n      tag_131\n      jump\t// in\n    tag_254:\n      swap3\n      pop\n      pop\n      dup2\n      swap1\n      sstore\n      pop\n        /* \"LendingPool.sol\":9458:9467  msg.value */\n      callvalue\n        /* \"LendingPool.sol\":9433:9454  totalCollateralAmount */\n      0x02\n      0x00\n        /* \"LendingPool.sol\":9433:9467  totalCollateralAmount += msg.value */\n      dup3\n      dup3\n      sload\n      tag_255\n      swap2\n      swap1\n      tag_193\n      jump\t// in\n    tag_255:\n      swap3\n      pop\n      pop\n      dup2\n      swap1\n      sstore\n      pop\n        /* \"LendingPool.sol\":9514:9523  msg.value */\n      callvalue\n        /* \"LendingPool.sol\":9478:9498  userCollateralAmount */\n      0x0a\n        /* \"LendingPool.sol\":9478:9510  userCollateralAmount[msg.sender] */\n      0x00\n        /* \"LendingPool.sol\":9499:9509  msg.sender */\n      caller\n        /* \"LendingPool.sol\":9478:9510  userCollateralAmount[msg.sender] */\n      0xffffffffffffffffffffffffffffffffffffffff\n      and\n      0xffffffffffffffffffffffffffffffffffffffff\n      and\n      dup2\n      mstore\n      0x20\n      add\n      swap1\n      dup2\n      mstore\n      0x20\n      add\n      0x00\n      keccak256\n      0x00\n        /* \"LendingPool.sol\":9478:9523  userCollateralAmount[msg.sender] += msg.value */\n      dup3\n      dup3\n      sload\n      tag_256\n      swap2\n      swap1\n      tag_193\n      jump\t// in\n    tag_256:\n      swap3\n      pop\n      pop\n      dup2\n      swap1\n      sstore\n      pop\n        /* \"LendingPool.sol\":9567:9587  uint256 interestRate */\n      0x00\n        /* \"LendingPool.sol\":9590:9591  8 */\n      0x08\n        /* \"LendingPool.sol\":9567:9591  uint256 interestRate = 8 */\n      swap1\n      pop\n        /* \"LendingPool.sol\":9623:9638  block.timestamp */\n      timestamp\n        /* \"LendingPool.sol\":9602:9620  repayLoanTimeStamp */\n      0x08\n        /* \"LendingPool.sol\":9602:9638  repayLoanTimeStamp = block.timestamp */\n      dup2\n      swap1\n      sstore\n      pop\n        /* \"LendingPool.sol\":9649:9671  uint256 deltaTimeStamp */\n      0x00\n        /* \"LendingPool.sol\":9696:9709  loanTimeStamp */\n      sload(0x07)\n        /* \"LendingPool.sol\":9675:9693  repayLoanTimeStamp */\n      sload(0x08)\n        /* \"LendingPool.sol\":9675:9709  repayLoanTimeStamp - loanTimeStamp */\n      tag_257\n      swap2\n      swap1\n      tag_131\n      jump\t// in\n    tag_257:\n        /* \"LendingPool.sol\":9649:9710  uint256 deltaTimeStamp = (repayLoanTimeStamp - loanTimeStamp) */\n      swap1\n      pop\n        /* \"LendingPool.sol\":9721:9750  uint256 interestRatePerSecond */\n      0x00\n        /* \"LendingPool.sol\":9792:9803  10000000000 */\n      0x02540be400\n        /* \"LendingPool.sol\":9770:9787  365 * 24 * 60 *60 */\n      0x01e13380\n        /* \"LendingPool.sol\":9754:9766  interestRate */\n      dup5\n        /* \"LendingPool.sol\":9754:9788  interestRate / (365 * 24 * 60 *60) */\n      tag_258\n      swap2\n      swap1\n      tag_133\n      jump\t// in\n    tag_258:\n        /* \"LendingPool.sol\":9753:9803  (interestRate / (365 * 24 * 60 *60)) * 10000000000 */\n      tag_259\n      swap2\n      swap1\n      tag_135\n      jump\t// in\n    tag_259:\n        /* \"LendingPool.sol\":9721:9803  uint256 interestRatePerSecond = (interestRate / (365 * 24 * 60 *60)) * 10000000000 */\n      swap1\n      pop\n        /* \"LendingPool.sol\":9860:9881  interestRatePerSecond */\n      dup1\n        /* \"LendingPool.sol\":9843:9857  deltaTimeStamp */\n      dup3\n        /* \"LendingPool.sol\":9831:9840  msg.value */\n      callvalue\n        /* \"LendingPool.sol\":9831:9857  msg.value * deltaTimeStamp */\n      tag_260\n      swap2\n      swap1\n      tag_135\n      jump\t// in\n    tag_260:\n        /* \"LendingPool.sol\":9831:9881  msg.value * deltaTimeStamp * interestRatePerSecond */\n      tag_261\n      swap2\n      swap1\n      tag_135\n      jump\t// in\n    tag_261:\n        /* \"LendingPool.sol\":9814:9828  interestAmount */\n      0x05\n        /* \"LendingPool.sol\":9814:9881  interestAmount = msg.value * deltaTimeStamp * interestRatePerSecond */\n      dup2\n      swap1\n      sstore\n      pop\n        /* \"LendingPool.sol\":9917:9919  75 */\n      0x4b\n        /* \"LendingPool.sol\":9894:9914  liquidationThreshold */\n      0x03\n        /* \"LendingPool.sol\":9894:9919  liquidationThreshold = 75 */\n      dup2\n      swap1\n      sstore\n      pop\n        /* \"LendingPool.sol\":10031:10045  userLoanAmount */\n      0x0d\n        /* \"LendingPool.sol\":10031:10057  userLoanAmount[msg.sender] */\n      0x00\n        /* \"LendingPool.sol\":10046:10056  msg.sender */\n      caller\n        /* \"LendingPool.sol\":10031:10057  userLoanAmount[msg.sender] */\n      0xffffffffffffffffffffffffffffffffffffffff\n      and\n      0xffffffffffffffffffffffffffffffffffffffff\n      and\n      dup2\n      mstore\n      0x20\n      add\n      swap1\n      dup2\n      mstore\n      0x20\n      add\n      0x00\n      keccak256\n      sload\n        /* \"LendingPool.sol\":9994:10014  liquidationThreshold */\n      sload(0x03)\n        /* \"LendingPool.sol\":9959:9979  userCollateralAmount */\n      0x0a\n        /* \"LendingPool.sol\":9959:9991  userCollateralAmount[msg.sender] */\n      0x00\n        /* \"LendingPool.sol\":9980:9990  msg.sender */\n      caller\n        /* \"LendingPool.sol\":9959:9991  userCollateralAmount[msg.sender] */\n      0xffffffffffffffffffffffffffffffffffffffff\n      and\n      0xffffffffffffffffffffffffffffffffffffffff\n      and\n      dup2\n      mstore\n      0x20\n      add\n      swap1\n      dup2\n      mstore\n      0x20\n      add\n      0x00\n      keccak256\n      sload\n        /* \"LendingPool.sol\":9959:10014  userCollateralAmount[msg.sender] * liquidationThreshold */\n      tag_262\n      swap2\n      swap1\n      tag_135\n      jump\t// in\n    tag_262:\n        /* \"LendingPool.sol\":9958:10057  (userCollateralAmount[msg.sender] * liquidationThreshold) /... */\n      tag_263\n      swap2\n      swap1\n      tag_133\n      jump\t// in\n    tag_263:\n        /* \"LendingPool.sol\":9930:9942  healthFactor */\n      0x04\n        /* \"LendingPool.sol\":9930:10057  healthFactor =... */\n      dup2\n      swap1\n      sstore\n      pop\n        /* \"LendingPool.sol\":10198:10208  msg.sender */\n      caller\n        /* \"LendingPool.sol\":10184:10220  LoanRepayment(msg.sender, msg.value) */\n      0xffffffffffffffffffffffffffffffffffffffff\n      and\n      0x6f8286e47ace49394f4a28298c2ba2c5df760a3872931a94e60ab7fe82b809cd\n        /* \"LendingPool.sol\":10210:10219  msg.value */\n      callvalue\n        /* \"LendingPool.sol\":10184:10220  LoanRepayment(msg.sender, msg.value) */\n      mload(0x40)\n      tag_264\n      swap2\n      swap1\n      tag_30\n      jump\t// in\n    tag_264:\n      mload(0x40)\n      dup1\n      swap2\n      sub\n      swap1\n      log2\n        /* \"LendingPool.sol\":10238:10252  interestAmount */\n      sload(0x05)\n        /* \"LendingPool.sol\":10231:10252  return interestAmount */\n      swap4\n      pop\n      pop\n      pop\n      pop\n        /* \"LendingPool.sol\":9114:10260  function repayLoan() external payable returns (uint256) {... */\n      swap1\n      jump\t// out\n        /* \"LendingPool.sol\":282:311  uint256 public interestAmount */\n    tag_114:\n      sload(0x05)\n      dup2\n      jump\t// out\n        /* \"#utility.yul\":7:84   */\n    tag_265:\n        /* \"#utility.yul\":44:51   */\n      0x00\n        /* \"#utility.yul\":73:78   */\n      dup2\n        /* \"#utility.yul\":62:78   */\n      swap1\n      pop\n        /* \"#utility.yul\":7:84   */\n      swap2\n      swap1\n      pop\n      jump\t// out\n        /* \"#utility.yul\":90:208   */\n    tag_266:\n        /* \"#utility.yul\":177:201   */\n      tag_315\n        /* \"#utility.yul\":195:200   */\n      dup2\n        /* \"#utility.yul\":177:201   */\n      tag_265\n      jump\t// in\n    tag_315:\n        /* \"#utility.yul\":172:175   */\n      dup3\n        /* \"#utility.yul\":165:202   */\n      mstore\n        /* \"#utility.yul\":90:208   */\n      pop\n      pop\n      jump\t// out\n        /* \"#utility.yul\":214:436   */\n    tag_30:\n        /* \"#utility.yul\":307:311   */\n      0x00\n        /* \"#utility.yul\":345:347   */\n      0x20\n        /* \"#utility.yul\":334:343   */\n      dup3\n        /* \"#utility.yul\":330:348   */\n      add\n        /* \"#utility.yul\":322:348   */\n      swap1\n      pop\n        /* \"#utility.yul\":358:429   */\n      tag_317\n        /* \"#utility.yul\":426:427   */\n      0x00\n        /* \"#utility.yul\":415:424   */\n      dup4\n        /* \"#utility.yul\":411:428   */\n      add\n        /* \"#utility.yul\":402:408   */\n      dup5\n        /* \"#utility.yul\":358:429   */\n      tag_266\n      jump\t// in\n    tag_317:\n        /* \"#utility.yul\":214:436   */\n      swap3\n      swap2\n      pop\n      pop\n      jump\t// out\n        /* \"#utility.yul\":523:640   */\n    tag_268:\n        /* \"#utility.yul\":632:633   */\n      0x00\n        /* \"#utility.yul\":629:630   */\n      dup1\n        /* \"#utility.yul\":622:634   */\n      revert\n        /* \"#utility.yul\":769:891   */\n    tag_270:\n        /* \"#utility.yul\":842:866   */\n      tag_322\n        /* \"#utility.yul\":860:865   */\n      dup2\n        /* \"#utility.yul\":842:866   */\n      tag_265\n      jump\t// in\n    tag_322:\n        /* \"#utility.yul\":835:840   */\n      dup2\n        /* \"#utility.yul\":832:867   */\n      eq\n        /* \"#utility.yul\":822:885   */\n      tag_323\n      jumpi\n        /* \"#utility.yul\":881:882   */\n      0x00\n        /* \"#utility.yul\":878:879   */\n      dup1\n        /* \"#utility.yul\":871:883   */\n      revert\n        /* \"#utility.yul\":822:885   */\n    tag_323:\n        /* \"#utility.yul\":769:891   */\n      pop\n      jump\t// out\n        /* \"#utility.yul\":897:1036   */\n    tag_271:\n        /* \"#utility.yul\":943:948   */\n      0x00\n        /* \"#utility.yul\":981:987   */\n      dup2\n        /* \"#utility.yul\":968:988   */\n      calldataload\n        /* \"#utility.yul\":959:988   */\n      swap1\n      pop\n        /* \"#utility.yul\":997:1030   */\n      tag_325\n        /* \"#utility.yul\":1024:1029   */\n      dup2\n        /* \"#utility.yul\":997:1030   */\n      tag_270\n      jump\t// in\n    tag_325:\n        /* \"#utility.yul\":897:1036   */\n      swap3\n      swap2\n      pop\n      pop\n      jump\t// out\n        /* \"#utility.yul\":1042:1371   */\n    tag_34:\n        /* \"#utility.yul\":1101:1107   */\n      0x00\n        /* \"#utility.yul\":1150:1152   */\n      0x20\n        /* \"#utility.yul\":1138:1147   */\n      dup3\n        /* \"#utility.yul\":1129:1136   */\n      dup5\n        /* \"#utility.yul\":1125:1148   */\n      sub\n        /* \"#utility.yul\":1121:1153   */\n      slt\n        /* \"#utility.yul\":1118:1237   */\n      iszero\n      tag_327\n      jumpi\n        /* \"#utility.yul\":1156:1235   */\n      tag_328\n      tag_268\n      jump\t// in\n    tag_328:\n        /* \"#utility.yul\":1118:1237   */\n    tag_327:\n        /* \"#utility.yul\":1276:1277   */\n      0x00\n        /* \"#utility.yul\":1301:1354   */\n      tag_329\n        /* \"#utility.yul\":1346:1353   */\n      dup5\n        /* \"#utility.yul\":1337:1343   */\n      dup3\n        /* \"#utility.yul\":1326:1335   */\n      dup6\n        /* \"#utility.yul\":1322:1344   */\n      add\n        /* \"#utility.yul\":1301:1354   */\n      tag_271\n      jump\t// in\n    tag_329:\n        /* \"#utility.yul\":1291:1354   */\n      swap2\n      pop\n        /* \"#utility.yul\":1247:1364   */\n      pop\n        /* \"#utility.yul\":1042:1371   */\n      swap3\n      swap2\n      pop\n      pop\n      jump\t// out\n        /* \"#utility.yul\":1377:1503   */\n    tag_272:\n        /* \"#utility.yul\":1414:1421   */\n      0x00\n        /* \"#utility.yul\":1454:1496   */\n      0xffffffffffffffffffffffffffffffffffffffff\n        /* \"#utility.yul\":1447:1452   */\n      dup3\n        /* \"#utility.yul\":1443:1497   */\n      and\n        /* \"#utility.yul\":1432:1497   */\n      swap1\n      pop\n        /* \"#utility.yul\":1377:1503   */\n      swap2\n      swap1\n      pop\n      jump\t// out\n        /* \"#utility.yul\":1509:1605   */\n    tag_273:\n        /* \"#utility.yul\":1546:1553   */\n      0x00\n        /* \"#utility.yul\":1575:1599   */\n      tag_332\n        /* \"#utility.yul\":1593:1598   */\n      dup3\n        /* \"#utility.yul\":1575:1599   */\n      tag_272\n      jump\t// in\n    tag_332:\n        /* \"#utility.yul\":1564:1599   */\n      swap1\n      pop\n        /* \"#utility.yul\":1509:1605   */\n      swap2\n      swap1\n      pop\n      jump\t// out\n        /* \"#utility.yul\":1611:1733   */\n    tag_274:\n        /* \"#utility.yul\":1684:1708   */\n      tag_334\n        /* \"#utility.yul\":1702:1707   */\n      dup2\n        /* \"#utility.yul\":1684:1708   */\n      tag_273\n      jump\t// in\n    tag_334:\n        /* \"#utility.yul\":1677:1682   */\n      dup2\n        /* \"#utility.yul\":1674:1709   */\n      eq\n        /* \"#utility.yul\":1664:1727   */\n      tag_335\n      jumpi\n        /* \"#utility.yul\":1723:1724   */\n      0x00\n        /* \"#utility.yul\":1720:1721   */\n      dup1\n        /* \"#utility.yul\":1713:1725   */\n      revert\n        /* \"#utility.yul\":1664:1727   */\n    tag_335:\n        /* \"#utility.yul\":1611:1733   */\n      pop\n      jump\t// out\n        /* \"#utility.yul\":1739:1878   */\n    tag_275:\n        /* \"#utility.yul\":1785:1790   */\n      0x00\n        /* \"#utility.yul\":1823:1829   */\n      dup2\n        /* \"#utility.yul\":1810:1830   */\n      calldataload\n        /* \"#utility.yul\":1801:1830   */\n      swap1\n      pop\n        /* \"#utility.yul\":1839:1872   */\n      tag_337\n        /* \"#utility.yul\":1866:1871   */\n      dup2\n        /* \"#utility.yul\":1839:1872   */\n      tag_274\n      jump\t// in\n    tag_337:\n        /* \"#utility.yul\":1739:1878   */\n      swap3\n      swap2\n      pop\n      pop\n      jump\t// out\n        /* \"#utility.yul\":1884:2213   */\n    tag_75:\n        /* \"#utility.yul\":1943:1949   */\n      0x00\n        /* \"#utility.yul\":1992:1994   */\n      0x20\n        /* \"#utility.yul\":1980:1989   */\n      dup3\n        /* \"#utility.yul\":1971:1978   */\n      dup5\n        /* \"#utility.yul\":1967:1990   */\n      sub\n        /* \"#utility.yul\":1963:1995   */\n      slt\n        /* \"#utility.yul\":1960:2079   */\n      iszero\n      tag_339\n      jumpi\n        /* \"#utility.yul\":1998:2077   */\n      tag_340\n      tag_268\n      jump\t// in\n    tag_340:\n        /* \"#utility.yul\":1960:2079   */\n    tag_339:\n        /* \"#utility.yul\":2118:2119   */\n      0x00\n        /* \"#utility.yul\":2143:2196   */\n      tag_341\n        /* \"#utility.yul\":2188:2195   */\n      dup5\n        /* \"#utility.yul\":2179:2185   */\n      dup3\n        /* \"#utility.yul\":2168:2177   */\n      dup6\n        /* \"#utility.yul\":2164:2186   */\n      add\n        /* \"#utility.yul\":2143:2196   */\n      tag_275\n      jump\t// in\n    tag_341:\n        /* \"#utility.yul\":2133:2196   */\n      swap2\n      pop\n        /* \"#utility.yul\":2089:2206   */\n      pop\n        /* \"#utility.yul\":1884:2213   */\n      swap3\n      swap2\n      pop\n      pop\n      jump\t// out\n        /* \"#utility.yul\":2219:2360   */\n    tag_276:\n        /* \"#utility.yul\":2313:2319   */\n      0x00\n        /* \"#utility.yul\":2347:2352   */\n      dup2\n        /* \"#utility.yul\":2341:2353   */\n      mload\n        /* \"#utility.yul\":2331:2353   */\n      swap1\n      pop\n        /* \"#utility.yul\":2219:2360   */\n      swap2\n      swap1\n      pop\n      jump\t// out\n        /* \"#utility.yul\":2366:2577   */\n    tag_277:\n        /* \"#utility.yul\":2492:2503   */\n      0x00\n        /* \"#utility.yul\":2526:2532   */\n      dup3\n        /* \"#utility.yul\":2521:2524   */\n      dup3\n        /* \"#utility.yul\":2514:2533   */\n      mstore\n        /* \"#utility.yul\":2566:2570   */\n      0x20\n        /* \"#utility.yul\":2561:2564   */\n      dup3\n        /* \"#utility.yul\":2557:2571   */\n      add\n        /* \"#utility.yul\":2542:2571   */\n      swap1\n      pop\n        /* \"#utility.yul\":2366:2577   */\n      swap3\n      swap2\n      pop\n      pop\n      jump\t// out\n        /* \"#utility.yul\":2583:2742   */\n    tag_278:\n        /* \"#utility.yul\":2677:2681   */\n      0x00\n        /* \"#utility.yul\":2700:2703   */\n      dup2\n        /* \"#utility.yul\":2692:2703   */\n      swap1\n      pop\n        /* \"#utility.yul\":2730:2734   */\n      0x20\n        /* \"#utility.yul\":2725:2728   */\n      dup3\n        /* \"#utility.yul\":2721:2735   */\n      add\n        /* \"#utility.yul\":2713:2735   */\n      swap1\n      pop\n        /* \"#utility.yul\":2583:2742   */\n      swap2\n      swap1\n      pop\n      jump\t// out\n        /* \"#utility.yul\":2748:2856   */\n    tag_279:\n        /* \"#utility.yul\":2825:2849   */\n      tag_346\n        /* \"#utility.yul\":2843:2848   */\n      dup2\n        /* \"#utility.yul\":2825:2849   */\n      tag_265\n      jump\t// in\n    tag_346:\n        /* \"#utility.yul\":2820:2823   */\n      dup3\n        /* \"#utility.yul\":2813:2850   */\n      mstore\n        /* \"#utility.yul\":2748:2856   */\n      pop\n      pop\n      jump\t// out\n        /* \"#utility.yul\":2862:2952   */\n    tag_280:\n        /* \"#utility.yul\":2896:2903   */\n      0x00\n        /* \"#utility.yul\":2939:2944   */\n      dup2\n        /* \"#utility.yul\":2932:2945   */\n      iszero\n        /* \"#utility.yul\":2925:2946   */\n      iszero\n        /* \"#utility.yul\":2914:2946   */\n      swap1\n      pop\n        /* \"#utility.yul\":2862:2952   */\n      swap2\n      swap1\n      pop\n      jump\t// out\n        /* \"#utility.yul\":2958:3057   */\n    tag_281:\n        /* \"#utility.yul\":3029:3050   */\n      tag_349\n        /* \"#utility.yul\":3044:3049   */\n      dup2\n        /* \"#utility.yul\":3029:3050   */\n      tag_280\n      jump\t// in\n    tag_349:\n        /* \"#utility.yul\":3024:3027   */\n      dup3\n        /* \"#utility.yul\":3017:3051   */\n      mstore\n        /* \"#utility.yul\":2958:3057   */\n      pop\n      pop\n      jump\t// out\n        /* \"#utility.yul\":3135:4184   */\n    tag_282:\n        /* \"#utility.yul\":3276:3280   */\n      0xa0\n        /* \"#utility.yul\":3271:3274   */\n      dup3\n        /* \"#utility.yul\":3267:3281   */\n      add\n        /* \"#utility.yul\":3365:3369   */\n      0x00\n        /* \"#utility.yul\":3358:3363   */\n      dup3\n        /* \"#utility.yul\":3354:3370   */\n      add\n        /* \"#utility.yul\":3348:3371   */\n      mload\n        /* \"#utility.yul\":3384:3447   */\n      tag_351\n        /* \"#utility.yul\":3441:3445   */\n      0x00\n        /* \"#utility.yul\":3436:3439   */\n      dup6\n        /* \"#utility.yul\":3432:3446   */\n      add\n        /* \"#utility.yul\":3418:3430   */\n      dup3\n        /* \"#utility.yul\":3384:3447   */\n      tag_279\n      jump\t// in\n    tag_351:\n        /* \"#utility.yul\":3291:3457   */\n      pop\n        /* \"#utility.yul\":3543:3547   */\n      0x20\n        /* \"#utility.yul\":3536:3541   */\n      dup3\n        /* \"#utility.yul\":3532:3548   */\n      add\n        /* \"#utility.yul\":3526:3549   */\n      mload\n        /* \"#utility.yul\":3562:3625   */\n      tag_352\n        /* \"#utility.yul\":3619:3623   */\n      0x20\n        /* \"#utility.yul\":3614:3617   */\n      dup6\n        /* \"#utility.yul\":3610:3624   */\n      add\n        /* \"#utility.yul\":3596:3608   */\n      dup3\n        /* \"#utility.yul\":3562:3625   */\n      tag_279\n      jump\t// in\n    tag_352:\n        /* \"#utility.yul\":3467:3635   */\n      pop\n        /* \"#utility.yul\":3728:3732   */\n      0x40\n        /* \"#utility.yul\":3721:3726   */\n      dup3\n        /* \"#utility.yul\":3717:3733   */\n      add\n        /* \"#utility.yul\":3711:3734   */\n      mload\n        /* \"#utility.yul\":3747:3804   */\n      tag_353\n        /* \"#utility.yul\":3798:3802   */\n      0x40\n        /* \"#utility.yul\":3793:3796   */\n      dup6\n        /* \"#utility.yul\":3789:3803   */\n      add\n        /* \"#utility.yul\":3775:3787   */\n      dup3\n        /* \"#utility.yul\":3747:3804   */\n      tag_281\n      jump\t// in\n    tag_353:\n        /* \"#utility.yul\":3645:3814   */\n      pop\n        /* \"#utility.yul\":3905:3909   */\n      0x60\n        /* \"#utility.yul\":3898:3903   */\n      dup3\n        /* \"#utility.yul\":3894:3910   */\n      add\n        /* \"#utility.yul\":3888:3911   */\n      mload\n        /* \"#utility.yul\":3924:3981   */\n      tag_354\n        /* \"#utility.yul\":3975:3979   */\n      0x60\n        /* \"#utility.yul\":3970:3973   */\n      dup6\n        /* \"#utility.yul\":3966:3980   */\n      add\n        /* \"#utility.yul\":3952:3964   */\n      dup3\n        /* \"#utility.yul\":3924:3981   */\n      tag_281\n      jump\t// in\n    tag_354:\n        /* \"#utility.yul\":3824:3991   */\n      pop\n        /* \"#utility.yul\":4085:4089   */\n      0x80\n        /* \"#utility.yul\":4078:4083   */\n      dup3\n        /* \"#utility.yul\":4074:4090   */\n      add\n        /* \"#utility.yul\":4068:4091   */\n      mload\n        /* \"#utility.yul\":4104:4167   */\n      tag_355\n        /* \"#utility.yul\":4161:4165   */\n      0x80\n        /* \"#utility.yul\":4156:4159   */\n      dup6\n        /* \"#utility.yul\":4152:4166   */\n      add\n        /* \"#utility.yul\":4138:4150   */\n      dup3\n        /* \"#utility.yul\":4104:4167   */\n      tag_279\n      jump\t// in\n    tag_355:\n        /* \"#utility.yul\":4001:4177   */\n      pop\n        /* \"#utility.yul\":3245:4184   */\n      pop\n        /* \"#utility.yul\":3135:4184   */\n      pop\n      pop\n      jump\t// out\n        /* \"#utility.yul\":4190:4477   */\n    tag_283:\n        /* \"#utility.yul\":4313:4323   */\n      0x00\n        /* \"#utility.yul\":4334:4434   */\n      tag_357\n        /* \"#utility.yul\":4430:4433   */\n      dup4\n        /* \"#utility.yul\":4422:4428   */\n      dup4\n        /* \"#utility.yul\":4334:4434   */\n      tag_282\n      jump\t// in\n    tag_357:\n        /* \"#utility.yul\":4466:4470   */\n      0xa0\n        /* \"#utility.yul\":4461:4464   */\n      dup4\n        /* \"#utility.yul\":4457:4471   */\n      add\n        /* \"#utility.yul\":4443:4471   */\n      swap1\n      pop\n        /* \"#utility.yul\":4190:4477   */\n      swap3\n      swap2\n      pop\n      pop\n      jump\t// out\n        /* \"#utility.yul\":4483:4623   */\n    tag_284:\n        /* \"#utility.yul\":4580:4584   */\n      0x00\n        /* \"#utility.yul\":4612:4616   */\n      0x20\n        /* \"#utility.yul\":4607:4610   */\n      dup3\n        /* \"#utility.yul\":4603:4617   */\n      add\n        /* \"#utility.yul\":4595:4617   */\n      swap1\n      pop\n        /* \"#utility.yul\":4483:4623   */\n      swap2\n      swap1\n      pop\n      jump\t// out\n        /* \"#utility.yul\":4705:5653   */\n    tag_285:\n        /* \"#utility.yul\":4878:4881   */\n      0x00\n        /* \"#utility.yul\":4907:4988   */\n      tag_360\n        /* \"#utility.yul\":4982:4987   */\n      dup3\n        /* \"#utility.yul\":4907:4988   */\n      tag_276\n      jump\t// in\n    tag_360:\n        /* \"#utility.yul\":5004:5117   */\n      tag_361\n        /* \"#utility.yul\":5110:5116   */\n      dup2\n        /* \"#utility.yul\":5105:5108   */\n      dup6\n        /* \"#utility.yul\":5004:5117   */\n      tag_277\n      jump\t// in\n    tag_361:\n        /* \"#utility.yul\":4997:5117   */\n      swap4\n      pop\n        /* \"#utility.yul\":5141:5224   */\n      tag_362\n        /* \"#utility.yul\":5218:5223   */\n      dup4\n        /* \"#utility.yul\":5141:5224   */\n      tag_278\n      jump\t// in\n    tag_362:\n        /* \"#utility.yul\":5247:5254   */\n      dup1\n        /* \"#utility.yul\":5278:5279   */\n      0x00\n        /* \"#utility.yul\":5263:5628   */\n    tag_363:\n        /* \"#utility.yul\":5288:5294   */\n      dup4\n        /* \"#utility.yul\":5285:5286   */\n      dup2\n        /* \"#utility.yul\":5282:5295   */\n      lt\n        /* \"#utility.yul\":5263:5628   */\n      iszero\n      tag_365\n      jumpi\n        /* \"#utility.yul\":5364:5370   */\n      dup2\n        /* \"#utility.yul\":5358:5371   */\n      mload\n        /* \"#utility.yul\":5391:5508   */\n      tag_366\n        /* \"#utility.yul\":5504:5507   */\n      dup9\n        /* \"#utility.yul\":5489:5502   */\n      dup3\n        /* \"#utility.yul\":5391:5508   */\n      tag_283\n      jump\t// in\n    tag_366:\n        /* \"#utility.yul\":5384:5508   */\n      swap8\n      pop\n        /* \"#utility.yul\":5531:5618   */\n      tag_367\n        /* \"#utility.yul\":5611:5617   */\n      dup4\n        /* \"#utility.yul\":5531:5618   */\n      tag_284\n      jump\t// in\n    tag_367:\n        /* \"#utility.yul\":5521:5618   */\n      swap3\n      pop\n        /* \"#utility.yul\":5323:5628   */\n      pop\n        /* \"#utility.yul\":5310:5311   */\n      0x01\n        /* \"#utility.yul\":5307:5308   */\n      dup2\n        /* \"#utility.yul\":5303:5312   */\n      add\n        /* \"#utility.yul\":5298:5312   */\n      swap1\n      pop\n        /* \"#utility.yul\":5263:5628   */\n      jump(tag_363)\n    tag_365:\n        /* \"#utility.yul\":5267:5281   */\n      pop\n        /* \"#utility.yul\":5644:5647   */\n      dup6\n        /* \"#utility.yul\":5637:5647   */\n      swap4\n      pop\n        /* \"#utility.yul\":4883:5653   */\n      pop\n      pop\n      pop\n        /* \"#utility.yul\":4705:5653   */\n      swap3\n      swap2\n      pop\n      pop\n      jump\t// out\n        /* \"#utility.yul\":5659:6140   */\n    tag_104:\n        /* \"#utility.yul\":5856:5860   */\n      0x00\n        /* \"#utility.yul\":5894:5896   */\n      0x20\n        /* \"#utility.yul\":5883:5892   */\n      dup3\n        /* \"#utility.yul\":5879:5897   */\n      add\n        /* \"#utility.yul\":5871:5897   */\n      swap1\n      pop\n        /* \"#utility.yul\":5943:5952   */\n      dup2\n        /* \"#utility.yul\":5937:5941   */\n      dup2\n        /* \"#utility.yul\":5933:5953   */\n      sub\n        /* \"#utility.yul\":5929:5930   */\n      0x00\n        /* \"#utility.yul\":5918:5927   */\n      dup4\n        /* \"#utility.yul\":5914:5931   */\n      add\n        /* \"#utility.yul\":5907:5954   */\n      mstore\n        /* \"#utility.yul\":5971:6133   */\n      tag_369\n        /* \"#utility.yul\":6128:6132   */\n      dup2\n        /* \"#utility.yul\":6119:6125   */\n      dup5\n        /* \"#utility.yul\":5971:6133   */\n      tag_285\n      jump\t// in\n    tag_369:\n        /* \"#utility.yul\":5963:6133   */\n      swap1\n      pop\n        /* \"#utility.yul\":5659:6140   */\n      swap3\n      swap2\n      pop\n      pop\n      jump\t// out\n        /* \"#utility.yul\":6146:6315   */\n    tag_286:\n        /* \"#utility.yul\":6230:6241   */\n      0x00\n        /* \"#utility.yul\":6264:6270   */\n      dup3\n        /* \"#utility.yul\":6259:6262   */\n      dup3\n        /* \"#utility.yul\":6252:6271   */\n      mstore\n        /* \"#utility.yul\":6304:6308   */\n      0x20\n        /* \"#utility.yul\":6299:6302   */\n      dup3\n        /* \"#utility.yul\":6295:6309   */\n      add\n        /* \"#utility.yul\":6280:6309   */\n      swap1\n      pop\n        /* \"#utility.yul\":6146:6315   */\n      swap3\n      swap2\n      pop\n      pop\n      jump\t// out\n        /* \"#utility.yul\":6321:6484   */\n    tag_287:\n        /* \"#utility.yul\":6461:6476   */\n      0x496e76616c696420696e64657800000000000000000000000000000000000000\n        /* \"#utility.yul\":6457:6458   */\n      0x00\n        /* \"#utility.yul\":6449:6455   */\n      dup3\n        /* \"#utility.yul\":6445:6459   */\n      add\n        /* \"#utility.yul\":6438:6477   */\n      mstore\n        /* \"#utility.yul\":6321:6484   */\n      pop\n      jump\t// out\n        /* \"#utility.yul\":6490:6856   */\n    tag_288:\n        /* \"#utility.yul\":6632:6635   */\n      0x00\n        /* \"#utility.yul\":6653:6720   */\n      tag_373\n        /* \"#utility.yul\":6717:6719   */\n      0x0d\n        /* \"#utility.yul\":6712:6715   */\n      dup4\n        /* \"#utility.yul\":6653:6720   */\n      tag_286\n      jump\t// in\n    tag_373:\n        /* \"#utility.yul\":6646:6720   */\n      swap2\n      pop\n        /* \"#utility.yul\":6729:6822   */\n      tag_374\n        /* \"#utility.yul\":6818:6821   */\n      dup3\n        /* \"#utility.yul\":6729:6822   */\n      tag_287\n      jump\t// in\n    tag_374:\n        /* \"#utility.yul\":6847:6849   */\n      0x20\n        /* \"#utility.yul\":6842:6845   */\n      dup3\n        /* \"#utility.yul\":6838:6850   */\n      add\n        /* \"#utility.yul\":6831:6850   */\n      swap1\n      pop\n        /* \"#utility.yul\":6490:6856   */\n      swap2\n      swap1\n      pop\n      jump\t// out\n        /* \"#utility.yul\":6862:7281   */\n    tag_119:\n        /* \"#utility.yul\":7028:7032   */\n      0x00\n        /* \"#utility.yul\":7066:7068   */\n      0x20\n        /* \"#utility.yul\":7055:7064   */\n      dup3\n        /* \"#utility.yul\":7051:7069   */\n      add\n        /* \"#utility.yul\":7043:7069   */\n      swap1\n      pop\n        /* \"#utility.yul\":7115:7124   */\n      dup2\n        /* \"#utility.yul\":7109:7113   */\n      dup2\n        /* \"#utility.yul\":7105:7125   */\n      sub\n        /* \"#utility.yul\":7101:7102   */\n      0x00\n        /* \"#utility.yul\":7090:7099   */\n      dup4\n        /* \"#utility.yul\":7086:7103   */\n      add\n        /* \"#utility.yul\":7079:7126   */\n      mstore\n        /* \"#utility.yul\":7143:7274   */\n      tag_376\n        /* \"#utility.yul\":7269:7273   */\n      dup2\n        /* \"#utility.yul\":7143:7274   */\n      tag_288\n      jump\t// in\n    tag_376:\n        /* \"#utility.yul\":7135:7274   */\n      swap1\n      pop\n        /* \"#utility.yul\":6862:7281   */\n      swap2\n      swap1\n      pop\n      jump\t// out\n        /* \"#utility.yul\":7287:7467   */\n    tag_122:\n        /* \"#utility.yul\":7335:7412   */\n      0x4e487b7100000000000000000000000000000000000000000000000000000000\n        /* \"#utility.yul\":7332:7333   */\n      0x00\n        /* \"#utility.yul\":7325:7413   */\n      mstore\n        /* \"#utility.yul\":7432:7436   */\n      0x32\n        /* \"#utility.yul\":7429:7430   */\n      0x04\n        /* \"#utility.yul\":7422:7437   */\n      mstore\n        /* \"#utility.yul\":7456:7460   */\n      0x24\n        /* \"#utility.yul\":7453:7454   */\n      0x00\n        /* \"#utility.yul\":7446:7461   */\n      revert\n        /* \"#utility.yul\":7473:7648   */\n    tag_289:\n        /* \"#utility.yul\":7613:7640   */\n      0x4c6f636b2074696d6520686173206e6f74206578706972656400000000000000\n        /* \"#utility.yul\":7609:7610   */\n      0x00\n        /* \"#utility.yul\":7601:7607   */\n      dup3\n        /* \"#utility.yul\":7597:7611   */\n      add\n        /* \"#utility.yul\":7590:7641   */\n      mstore\n        /* \"#utility.yul\":7473:7648   */\n      pop\n      jump\t// out\n        /* \"#utility.yul\":7654:8020   */\n    tag_290:\n        /* \"#utility.yul\":7796:7799   */\n      0x00\n        /* \"#utility.yul\":7817:7884   */\n      tag_380\n        /* \"#utility.yul\":7881:7883   */\n      0x19\n        /* \"#utility.yul\":7876:7879   */\n      dup4\n        /* \"#utility.yul\":7817:7884   */\n      tag_286\n      jump\t// in\n    tag_380:\n        /* \"#utility.yul\":7810:7884   */\n      swap2\n      pop\n        /* \"#utility.yul\":7893:7986   */\n      tag_381\n        /* \"#utility.yul\":7982:7985   */\n      dup3\n        /* \"#utility.yul\":7893:7986   */\n      tag_289\n      jump\t// in\n    tag_381:\n        /* \"#utility.yul\":8011:8013   */\n      0x20\n        /* \"#utility.yul\":8006:8009   */\n      dup3\n        /* \"#utility.yul\":8002:8014   */\n      add\n        /* \"#utility.yul\":7995:8014   */\n      swap1\n      pop\n        /* \"#utility.yul\":7654:8020   */\n      swap2\n      swap1\n      pop\n      jump\t// out\n        /* \"#utility.yul\":8026:8445   */\n    tag_126:\n        /* \"#utility.yul\":8192:8196   */\n      0x00\n        /* \"#utility.yul\":8230:8232   */\n      0x20\n        /* \"#utility.yul\":8219:8228   */\n      dup3\n        /* \"#utility.yul\":8215:8233   */\n      add\n        /* \"#utility.yul\":8207:8233   */\n      swap1\n      pop\n        /* \"#utility.yul\":8279:8288   */\n      dup2\n        /* \"#utility.yul\":8273:8277   */\n      dup2\n        /* \"#utility.yul\":8269:8289   */\n      sub\n        /* \"#utility.yul\":8265:8266   */\n      0x00\n        /* \"#utility.yul\":8254:8263   */\n      dup4\n        /* \"#utility.yul\":8250:8267   */\n      add\n        /* \"#utility.yul\":8243:8290   */\n      mstore\n        /* \"#utility.yul\":8307:8438   */\n      tag_383\n        /* \"#utility.yul\":8433:8437   */\n      dup2\n        /* \"#utility.yul\":8307:8438   */\n      tag_290\n      jump\t// in\n    tag_383:\n        /* \"#utility.yul\":8299:8438   */\n      swap1\n      pop\n        /* \"#utility.yul\":8026:8445   */\n      swap2\n      swap1\n      pop\n      jump\t// out\n        /* \"#utility.yul\":8451:8631   */\n    tag_291:\n        /* \"#utility.yul\":8499:8576   */\n      0x4e487b7100000000000000000000000000000000000000000000000000000000\n        /* \"#utility.yul\":8496:8497   */\n      0x00\n        /* \"#utility.yul\":8489:8577   */\n      mstore\n        /* \"#utility.yul\":8596:8600   */\n      0x11\n        /* \"#utility.yul\":8593:8594   */\n      0x04\n        /* \"#utility.yul\":8586:8601   */\n      mstore\n        /* \"#utility.yul\":8620:8624   */\n      0x24\n        /* \"#utility.yul\":8617:8618   */\n      0x00\n        /* \"#utility.yul\":8610:8625   */\n      revert\n        /* \"#utility.yul\":8637:8831   */\n    tag_131:\n        /* \"#utility.yul\":8677:8681   */\n      0x00\n        /* \"#utility.yul\":8697:8717   */\n      tag_386\n        /* \"#utility.yul\":8715:8716   */\n      dup3\n        /* \"#utility.yul\":8697:8717   */\n      tag_265\n      jump\t// in\n    tag_386:\n        /* \"#utility.yul\":8692:8717   */\n      swap2\n      pop\n        /* \"#utility.yul\":8731:8751   */\n      tag_387\n        /* \"#utility.yul\":8749:8750   */\n      dup4\n        /* \"#utility.yul\":8731:8751   */\n      tag_265\n      jump\t// in\n    tag_387:\n        /* \"#utility.yul\":8726:8751   */\n      swap3\n      pop\n        /* \"#utility.yul\":8775:8776   */\n      dup3\n        /* \"#utility.yul\":8772:8773   */\n      dup3\n        /* \"#utility.yul\":8768:8777   */\n      sub\n        /* \"#utility.yul\":8760:8777   */\n      swap1\n      pop\n        /* \"#utility.yul\":8799:8800   */\n      dup2\n        /* \"#utility.yul\":8793:8797   */\n      dup2\n        /* \"#utility.yul\":8790:8801   */\n      gt\n        /* \"#utility.yul\":8787:8824   */\n      iszero\n      tag_388\n      jumpi\n        /* \"#utility.yul\":8804:8822   */\n      tag_389\n      tag_291\n      jump\t// in\n    tag_389:\n        /* \"#utility.yul\":8787:8824   */\n    tag_388:\n        /* \"#utility.yul\":8637:8831   */\n      swap3\n      swap2\n      pop\n      pop\n      jump\t// out\n        /* \"#utility.yul\":8837:9017   */\n    tag_292:\n        /* \"#utility.yul\":8885:8962   */\n      0x4e487b7100000000000000000000000000000000000000000000000000000000\n        /* \"#utility.yul\":8882:8883   */\n      0x00\n        /* \"#utility.yul\":8875:8963   */\n      mstore\n        /* \"#utility.yul\":8982:8986   */\n      0x12\n        /* \"#utility.yul\":8979:8980   */\n      0x04\n        /* \"#utility.yul\":8972:8987   */\n      mstore\n        /* \"#utility.yul\":9006:9010   */\n      0x24\n        /* \"#utility.yul\":9003:9004   */\n      0x00\n        /* \"#utility.yul\":8996:9011   */\n      revert\n        /* \"#utility.yul\":9023:9208   */\n    tag_133:\n        /* \"#utility.yul\":9063:9064   */\n      0x00\n        /* \"#utility.yul\":9080:9100   */\n      tag_392\n        /* \"#utility.yul\":9098:9099   */\n      dup3\n        /* \"#utility.yul\":9080:9100   */\n      tag_265\n      jump\t// in\n    tag_392:\n        /* \"#utility.yul\":9075:9100   */\n      swap2\n      pop\n        /* \"#utility.yul\":9114:9134   */\n      tag_393\n        /* \"#utility.yul\":9132:9133   */\n      dup4\n        /* \"#utility.yul\":9114:9134   */\n      tag_265\n      jump\t// in\n    tag_393:\n        /* \"#utility.yul\":9109:9134   */\n      swap3\n      pop\n        /* \"#utility.yul\":9153:9154   */\n      dup3\n        /* \"#utility.yul\":9143:9178   */\n      tag_394\n      jumpi\n        /* \"#utility.yul\":9158:9176   */\n      tag_395\n      tag_292\n      jump\t// in\n    tag_395:\n        /* \"#utility.yul\":9143:9178   */\n    tag_394:\n        /* \"#utility.yul\":9200:9201   */\n      dup3\n        /* \"#utility.yul\":9197:9198   */\n      dup3\n        /* \"#utility.yul\":9193:9202   */\n      div\n        /* \"#utility.yul\":9188:9202   */\n      swap1\n      pop\n        /* \"#utility.yul\":9023:9208   */\n      swap3\n      swap2\n      pop\n      pop\n      jump\t// out\n        /* \"#utility.yul\":9214:9624   */\n    tag_135:\n        /* \"#utility.yul\":9254:9261   */\n      0x00\n        /* \"#utility.yul\":9277:9297   */\n      tag_397\n        /* \"#utility.yul\":9295:9296   */\n      dup3\n        /* \"#utility.yul\":9277:9297   */\n      tag_265\n      jump\t// in\n    tag_397:\n        /* \"#utility.yul\":9272:9297   */\n      swap2\n      pop\n        /* \"#utility.yul\":9311:9331   */\n      tag_398\n        /* \"#utility.yul\":9329:9330   */\n      dup4\n        /* \"#utility.yul\":9311:9331   */\n      tag_265\n      jump\t// in\n    tag_398:\n        /* \"#utility.yul\":9306:9331   */\n      swap3\n      pop\n        /* \"#utility.yul\":9366:9367   */\n      dup3\n        /* \"#utility.yul\":9363:9364   */\n      dup3\n        /* \"#utility.yul\":9359:9368   */\n      mul\n        /* \"#utility.yul\":9388:9418   */\n      tag_399\n        /* \"#utility.yul\":9406:9417   */\n      dup2\n        /* \"#utility.yul\":9388:9418   */\n      tag_265\n      jump\t// in\n    tag_399:\n        /* \"#utility.yul\":9377:9418   */\n      swap2\n      pop\n        /* \"#utility.yul\":9567:9568   */\n      dup3\n        /* \"#utility.yul\":9558:9565   */\n      dup3\n        /* \"#utility.yul\":9554:9569   */\n      div\n        /* \"#utility.yul\":9551:9552   */\n      dup5\n        /* \"#utility.yul\":9548:9570   */\n      eq\n        /* \"#utility.yul\":9528:9529   */\n      dup4\n        /* \"#utility.yul\":9521:9530   */\n      iszero\n        /* \"#utility.yul\":9501:9584   */\n      or\n        /* \"#utility.yul\":9478:9617   */\n      tag_400\n      jumpi\n        /* \"#utility.yul\":9597:9615   */\n      tag_401\n      tag_291\n      jump\t// in\n    tag_401:\n        /* \"#utility.yul\":9478:9617   */\n    tag_400:\n        /* \"#utility.yul\":9262:9624   */\n      pop\n        /* \"#utility.yul\":9214:9624   */\n      swap3\n      swap2\n      pop\n      pop\n      jump\t// out\n        /* \"#utility.yul\":9630:9855   */\n    tag_293:\n        /* \"#utility.yul\":9770:9804   */\n      0x596f7520616c72656164792077697468647261776e2074686973207472616e73\n        /* \"#utility.yul\":9766:9767   */\n      0x00\n        /* \"#utility.yul\":9758:9764   */\n      dup3\n        /* \"#utility.yul\":9754:9768   */\n      add\n        /* \"#utility.yul\":9747:9805   */\n      mstore\n        /* \"#utility.yul\":9839:9847   */\n      0x616374696f6e0000000000000000000000000000000000000000000000000000\n        /* \"#utility.yul\":9834:9836   */\n      0x20\n        /* \"#utility.yul\":9826:9832   */\n      dup3\n        /* \"#utility.yul\":9822:9837   */\n      add\n        /* \"#utility.yul\":9815:9848   */\n      mstore\n        /* \"#utility.yul\":9630:9855   */\n      pop\n      jump\t// out\n        /* \"#utility.yul\":9861:10227   */\n    tag_294:\n        /* \"#utility.yul\":10003:10006   */\n      0x00\n        /* \"#utility.yul\":10024:10091   */\n      tag_404\n        /* \"#utility.yul\":10088:10090   */\n      0x26\n        /* \"#utility.yul\":10083:10086   */\n      dup4\n        /* \"#utility.yul\":10024:10091   */\n      tag_286\n      jump\t// in\n    tag_404:\n        /* \"#utility.yul\":10017:10091   */\n      swap2\n      pop\n        /* \"#utility.yul\":10100:10193   */\n      tag_405\n        /* \"#utility.yul\":10189:10192   */\n      dup3\n        /* \"#utility.yul\":10100:10193   */\n      tag_293\n      jump\t// in\n    tag_405:\n        /* \"#utility.yul\":10218:10220   */\n      0x40\n        /* \"#utility.yul\":10213:10216   */\n      dup3\n        /* \"#utility.yul\":10209:10221   */\n      add\n        /* \"#utility.yul\":10202:10221   */\n      swap1\n      pop\n        /* \"#utility.yul\":9861:10227   */\n      swap2\n      swap1\n      pop\n      jump\t// out\n        /* \"#utility.yul\":10233:10652   */\n    tag_175:\n        /* \"#utility.yul\":10399:10403   */\n      0x00\n        /* \"#utility.yul\":10437:10439   */\n      0x20\n        /* \"#utility.yul\":10426:10435   */\n      dup3\n        /* \"#utility.yul\":10422:10440   */\n      add\n        /* \"#utility.yul\":10414:10440   */\n      swap1\n      pop\n        /* \"#utility.yul\":10486:10495   */\n      dup2\n        /* \"#utility.yul\":10480:10484   */\n      dup2\n        /* \"#utility.yul\":10476:10496   */\n      sub\n        /* \"#utility.yul\":10472:10473   */\n      0x00\n        /* \"#utility.yul\":10461:10470   */\n      dup4\n        /* \"#utility.yul\":10457:10474   */\n      add\n        /* \"#utility.yul\":10450:10497   */\n      mstore\n        /* \"#utility.yul\":10514:10645   */\n      tag_407\n        /* \"#utility.yul\":10640:10644   */\n      dup2\n        /* \"#utility.yul\":10514:10645   */\n      tag_294\n      jump\t// in\n    tag_407:\n        /* \"#utility.yul\":10506:10645   */\n      swap1\n      pop\n        /* \"#utility.yul\":10233:10652   */\n      swap2\n      swap1\n      pop\n      jump\t// out\n        /* \"#utility.yul\":10658:10776   */\n    tag_295:\n        /* \"#utility.yul\":10745:10769   */\n      tag_409\n        /* \"#utility.yul\":10763:10768   */\n      dup2\n        /* \"#utility.yul\":10745:10769   */\n      tag_273\n      jump\t// in\n    tag_409:\n        /* \"#utility.yul\":10740:10743   */\n      dup3\n        /* \"#utility.yul\":10733:10770   */\n      mstore\n        /* \"#utility.yul\":10658:10776   */\n      pop\n      pop\n      jump\t// out\n        /* \"#utility.yul\":10782:11224   */\n    tag_180:\n        /* \"#utility.yul\":10931:10935   */\n      0x00\n        /* \"#utility.yul\":10969:10971   */\n      0x60\n        /* \"#utility.yul\":10958:10967   */\n      dup3\n        /* \"#utility.yul\":10954:10972   */\n      add\n        /* \"#utility.yul\":10946:10972   */\n      swap1\n      pop\n        /* \"#utility.yul\":10982:11053   */\n      tag_411\n        /* \"#utility.yul\":11050:11051   */\n      0x00\n        /* \"#utility.yul\":11039:11048   */\n      dup4\n        /* \"#utility.yul\":11035:11052   */\n      add\n        /* \"#utility.yul\":11026:11032   */\n      dup7\n        /* \"#utility.yul\":10982:11053   */\n      tag_295\n      jump\t// in\n    tag_411:\n        /* \"#utility.yul\":11063:11135   */\n      tag_412\n        /* \"#utility.yul\":11131:11133   */\n      0x20\n        /* \"#utility.yul\":11120:11129   */\n      dup4\n        /* \"#utility.yul\":11116:11134   */\n      add\n        /* \"#utility.yul\":11107:11113   */\n      dup6\n        /* \"#utility.yul\":11063:11135   */\n      tag_266\n      jump\t// in\n    tag_412:\n        /* \"#utility.yul\":11145:11217   */\n      tag_413\n        /* \"#utility.yul\":11213:11215   */\n      0x40\n        /* \"#utility.yul\":11202:11211   */\n      dup4\n        /* \"#utility.yul\":11198:11216   */\n      add\n        /* \"#utility.yul\":11189:11195   */\n      dup5\n        /* \"#utility.yul\":11145:11217   */\n      tag_266\n      jump\t// in\n    tag_413:\n        /* \"#utility.yul\":10782:11224   */\n      swap5\n      swap4\n      pop\n      pop\n      pop\n      pop\n      jump\t// out\n        /* \"#utility.yul\":11230:11395   */\n    tag_296:\n        /* \"#utility.yul\":11370:11387   */\n      0x496e646578206e6f7420666f756e640000000000000000000000000000000000\n        /* \"#utility.yul\":11366:11367   */\n      0x00\n        /* \"#utility.yul\":11358:11364   */\n      dup3\n        /* \"#utility.yul\":11354:11368   */\n      add\n        /* \"#utility.yul\":11347:11388   */\n      mstore\n        /* \"#utility.yul\":11230:11395   */\n      pop\n      jump\t// out\n        /* \"#utility.yul\":11401:11767   */\n    tag_297:\n        /* \"#utility.yul\":11543:11546   */\n      0x00\n        /* \"#utility.yul\":11564:11631   */\n      tag_416\n        /* \"#utility.yul\":11628:11630   */\n      0x0f\n        /* \"#utility.yul\":11623:11626   */\n      dup4\n        /* \"#utility.yul\":11564:11631   */\n      tag_286\n      jump\t// in\n    tag_416:\n        /* \"#utility.yul\":11557:11631   */\n      swap2\n      pop\n        /* \"#utility.yul\":11640:11733   */\n      tag_417\n        /* \"#utility.yul\":11729:11732   */\n      dup3\n        /* \"#utility.yul\":11640:11733   */\n      tag_296\n      jump\t// in\n    tag_417:\n        /* \"#utility.yul\":11758:11760   */\n      0x20\n        /* \"#utility.yul\":11753:11756   */\n      dup3\n        /* \"#utility.yul\":11749:11761   */\n      add\n        /* \"#utility.yul\":11742:11761   */\n      swap1\n      pop\n        /* \"#utility.yul\":11401:11767   */\n      swap2\n      swap1\n      pop\n      jump\t// out\n        /* \"#utility.yul\":11773:12192   */\n    tag_184:\n        /* \"#utility.yul\":11939:11943   */\n      0x00\n        /* \"#utility.yul\":11977:11979   */\n      0x20\n        /* \"#utility.yul\":11966:11975   */\n      dup3\n        /* \"#utility.yul\":11962:11980   */\n      add\n        /* \"#utility.yul\":11954:11980   */\n      swap1\n      pop\n        /* \"#utility.yul\":12026:12035   */\n      dup2\n        /* \"#utility.yul\":12020:12024   */\n      dup2\n        /* \"#utility.yul\":12016:12036   */\n      sub\n        /* \"#utility.yul\":12012:12013   */\n      0x00\n        /* \"#utility.yul\":12001:12010   */\n      dup4\n        /* \"#utility.yul\":11997:12014   */\n      add\n        /* \"#utility.yul\":11990:12037   */\n      mstore\n        /* \"#utility.yul\":12054:12185   */\n      tag_419\n        /* \"#utility.yul\":12180:12184   */\n      dup2\n        /* \"#utility.yul\":12054:12185   */\n      tag_297\n      jump\t// in\n    tag_419:\n        /* \"#utility.yul\":12046:12185   */\n      swap1\n      pop\n        /* \"#utility.yul\":11773:12192   */\n      swap2\n      swap1\n      pop\n      jump\t// out\n        /* \"#utility.yul\":12198:12433   */\n    tag_298:\n        /* \"#utility.yul\":12338:12372   */\n      0x596f7520616c7265616479207365742074686973207472616e73616374696f6e\n        /* \"#utility.yul\":12334:12335   */\n      0x00\n        /* \"#utility.yul\":12326:12332   */\n      dup3\n        /* \"#utility.yul\":12322:12336   */\n      add\n        /* \"#utility.yul\":12315:12373   */\n      mstore\n        /* \"#utility.yul\":12407:12425   */\n      0x206173206120636f6c6c61746572616c00000000000000000000000000000000\n        /* \"#utility.yul\":12402:12404   */\n      0x20\n        /* \"#utility.yul\":12394:12400   */\n      dup3\n        /* \"#utility.yul\":12390:12405   */\n      add\n        /* \"#utility.yul\":12383:12426   */\n      mstore\n        /* \"#utility.yul\":12198:12433   */\n      pop\n      jump\t// out\n        /* \"#utility.yul\":12439:12805   */\n    tag_299:\n        /* \"#utility.yul\":12581:12584   */\n      0x00\n        /* \"#utility.yul\":12602:12669   */\n      tag_422\n        /* \"#utility.yul\":12666:12668   */\n      0x30\n        /* \"#utility.yul\":12661:12664   */\n      dup4\n        /* \"#utility.yul\":12602:12669   */\n      tag_286\n      jump\t// in\n    tag_422:\n        /* \"#utility.yul\":12595:12669   */\n      swap2\n      pop\n        /* \"#utility.yul\":12678:12771   */\n      tag_423\n        /* \"#utility.yul\":12767:12770   */\n      dup3\n        /* \"#utility.yul\":12678:12771   */\n      tag_298\n      jump\t// in\n    tag_423:\n        /* \"#utility.yul\":12796:12798   */\n      0x40\n        /* \"#utility.yul\":12791:12794   */\n      dup3\n        /* \"#utility.yul\":12787:12799   */\n      add\n        /* \"#utility.yul\":12780:12799   */\n      swap1\n      pop\n        /* \"#utility.yul\":12439:12805   */\n      swap2\n      swap1\n      pop\n      jump\t// out\n        /* \"#utility.yul\":12811:13230   */\n    tag_190:\n        /* \"#utility.yul\":12977:12981   */\n      0x00\n        /* \"#utility.yul\":13015:13017   */\n      0x20\n        /* \"#utility.yul\":13004:13013   */\n      dup3\n        /* \"#utility.yul\":13000:13018   */\n      add\n        /* \"#utility.yul\":12992:13018   */\n      swap1\n      pop\n        /* \"#utility.yul\":13064:13073   */\n      dup2\n        /* \"#utility.yul\":13058:13062   */\n      dup2\n        /* \"#utility.yul\":13054:13074   */\n      sub\n        /* \"#utility.yul\":13050:13051   */\n      0x00\n        /* \"#utility.yul\":13039:13048   */\n      dup4\n        /* \"#utility.yul\":13035:13052   */\n      add\n        /* \"#utility.yul\":13028:13075   */\n      mstore\n        /* \"#utility.yul\":13092:13223   */\n      tag_425\n        /* \"#utility.yul\":13218:13222   */\n      dup2\n        /* \"#utility.yul\":13092:13223   */\n      tag_299\n      jump\t// in\n    tag_425:\n        /* \"#utility.yul\":13084:13223   */\n      swap1\n      pop\n        /* \"#utility.yul\":12811:13230   */\n      swap2\n      swap1\n      pop\n      jump\t// out\n        /* \"#utility.yul\":13236:13427   */\n    tag_193:\n        /* \"#utility.yul\":13276:13279   */\n      0x00\n        /* \"#utility.yul\":13295:13315   */\n      tag_427\n        /* \"#utility.yul\":13313:13314   */\n      dup3\n        /* \"#utility.yul\":13295:13315   */\n      tag_265\n      jump\t// in\n    tag_427:\n        /* \"#utility.yul\":13290:13315   */\n      swap2\n      pop\n        /* \"#utility.yul\":13329:13349   */\n      tag_428\n        /* \"#utility.yul\":13347:13348   */\n      dup4\n        /* \"#utility.yul\":13329:13349   */\n      tag_265\n      jump\t// in\n    tag_428:\n        /* \"#utility.yul\":13324:13349   */\n      swap3\n      pop\n        /* \"#utility.yul\":13372:13373   */\n      dup3\n        /* \"#utility.yul\":13369:13370   */\n      dup3\n        /* \"#utility.yul\":13365:13374   */\n      add\n        /* \"#utility.yul\":13358:13374   */\n      swap1\n      pop\n        /* \"#utility.yul\":13393:13396   */\n      dup1\n        /* \"#utility.yul\":13390:13391   */\n      dup3\n        /* \"#utility.yul\":13387:13397   */\n      gt\n        /* \"#utility.yul\":13384:13420   */\n      iszero\n      tag_429\n      jumpi\n        /* \"#utility.yul\":13400:13418   */\n      tag_430\n      tag_291\n      jump\t// in\n    tag_430:\n        /* \"#utility.yul\":13384:13420   */\n    tag_429:\n        /* \"#utility.yul\":13236:13427   */\n      swap3\n      swap2\n      pop\n      pop\n      jump\t// out\n        /* \"#utility.yul\":13433:13613   */\n    tag_300:\n        /* \"#utility.yul\":13573:13605   */\n      0x4c6f616e20616d6f756e74206578636565647320636f6c6c61746572616c0000\n        /* \"#utility.yul\":13569:13570   */\n      0x00\n        /* \"#utility.yul\":13561:13567   */\n      dup3\n        /* \"#utility.yul\":13557:13571   */\n      add\n        /* \"#utility.yul\":13550:13606   */\n      mstore\n        /* \"#utility.yul\":13433:13613   */\n      pop\n      jump\t// out\n        /* \"#utility.yul\":13619:13985   */\n    tag_301:\n        /* \"#utility.yul\":13761:13764   */\n      0x00\n        /* \"#utility.yul\":13782:13849   */\n      tag_433\n        /* \"#utility.yul\":13846:13848   */\n      0x1e\n        /* \"#utility.yul\":13841:13844   */\n      dup4\n        /* \"#utility.yul\":13782:13849   */\n      tag_286\n      jump\t// in\n    tag_433:\n        /* \"#utility.yul\":13775:13849   */\n      swap2\n      pop\n        /* \"#utility.yul\":13858:13951   */\n      tag_434\n        /* \"#utility.yul\":13947:13950   */\n      dup3\n        /* \"#utility.yul\":13858:13951   */\n      tag_300\n      jump\t// in\n    tag_434:\n        /* \"#utility.yul\":13976:13978   */\n      0x20\n        /* \"#utility.yul\":13971:13974   */\n      dup3\n        /* \"#utility.yul\":13967:13979   */\n      add\n        /* \"#utility.yul\":13960:13979   */\n      swap1\n      pop\n        /* \"#utility.yul\":13619:13985   */\n      swap2\n      swap1\n      pop\n      jump\t// out\n        /* \"#utility.yul\":13991:14410   */\n    tag_199:\n        /* \"#utility.yul\":14157:14161   */\n      0x00\n        /* \"#utility.yul\":14195:14197   */\n      0x20\n        /* \"#utility.yul\":14184:14193   */\n      dup3\n        /* \"#utility.yul\":14180:14198   */\n      add\n        /* \"#utility.yul\":14172:14198   */\n      swap1\n      pop\n        /* \"#utility.yul\":14244:14253   */\n      dup2\n        /* \"#utility.yul\":14238:14242   */\n      dup2\n        /* \"#utility.yul\":14234:14254   */\n      sub\n        /* \"#utility.yul\":14230:14231   */\n      0x00\n        /* \"#utility.yul\":14219:14228   */\n      dup4\n        /* \"#utility.yul\":14215:14232   */\n      add\n        /* \"#utility.yul\":14208:14255   */\n      mstore\n        /* \"#utility.yul\":14272:14403   */\n      tag_436\n        /* \"#utility.yul\":14398:14402   */\n      dup2\n        /* \"#utility.yul\":14272:14403   */\n      tag_301\n      jump\t// in\n    tag_436:\n        /* \"#utility.yul\":14264:14403   */\n      swap1\n      pop\n        /* \"#utility.yul\":13991:14410   */\n      swap2\n      swap1\n      pop\n      jump\t// out\n        /* \"#utility.yul\":14416:14595   */\n    tag_302:\n        /* \"#utility.yul\":14556:14587   */\n      0x4865616c746820666163746f72206d7573742062652061626f76652031000000\n        /* \"#utility.yul\":14552:14553   */\n      0x00\n        /* \"#utility.yul\":14544:14550   */\n      dup3\n        /* \"#utility.yul\":14540:14554   */\n      add\n        /* \"#utility.yul\":14533:14588   */\n      mstore\n        /* \"#utility.yul\":14416:14595   */\n      pop\n      jump\t// out\n        /* \"#utility.yul\":14601:14967   */\n    tag_303:\n        /* \"#utility.yul\":14743:14746   */\n      0x00\n        /* \"#utility.yul\":14764:14831   */\n      tag_439\n        /* \"#utility.yul\":14828:14830   */\n      0x1d\n        /* \"#utility.yul\":14823:14826   */\n      dup4\n        /* \"#utility.yul\":14764:14831   */\n      tag_286\n      jump\t// in\n    tag_439:\n        /* \"#utility.yul\":14757:14831   */\n      swap2\n      pop\n        /* \"#utility.yul\":14840:14933   */\n      tag_440\n        /* \"#utility.yul\":14929:14932   */\n      dup3\n        /* \"#utility.yul\":14840:14933   */\n      tag_302\n      jump\t// in\n    tag_440:\n        /* \"#utility.yul\":14958:14960   */\n      0x20\n        /* \"#utility.yul\":14953:14956   */\n      dup3\n        /* \"#utility.yul\":14949:14961   */\n      add\n        /* \"#utility.yul\":14942:14961   */\n      swap1\n      pop\n        /* \"#utility.yul\":14601:14967   */\n      swap2\n      swap1\n      pop\n      jump\t// out\n        /* \"#utility.yul\":14973:15392   */\n    tag_207:\n        /* \"#utility.yul\":15139:15143   */\n      0x00\n        /* \"#utility.yul\":15177:15179   */\n      0x20\n        /* \"#utility.yul\":15166:15175   */\n      dup3\n        /* \"#utility.yul\":15162:15180   */\n      add\n        /* \"#utility.yul\":15154:15180   */\n      swap1\n      pop\n        /* \"#utility.yul\":15226:15235   */\n      dup2\n        /* \"#utility.yul\":15220:15224   */\n      dup2\n        /* \"#utility.yul\":15216:15236   */\n      sub\n        /* \"#utility.yul\":15212:15213   */\n      0x00\n        /* \"#utility.yul\":15201:15210   */\n      dup4\n        /* \"#utility.yul\":15197:15214   */\n      add\n        /* \"#utility.yul\":15190:15237   */\n      mstore\n        /* \"#utility.yul\":15254:15385   */\n      tag_442\n        /* \"#utility.yul\":15380:15384   */\n      dup2\n        /* \"#utility.yul\":15254:15385   */\n      tag_303\n      jump\t// in\n    tag_442:\n        /* \"#utility.yul\":15246:15385   */\n      swap1\n      pop\n        /* \"#utility.yul\":14973:15392   */\n      swap2\n      swap1\n      pop\n      jump\t// out\n        /* \"#utility.yul\":15398:15569   */\n    tag_304:\n        /* \"#utility.yul\":15538:15561   */\n      0x596f7520617265206e6f7420746865206f776e65720000000000000000000000\n        /* \"#utility.yul\":15534:15535   */\n      0x00\n        /* \"#utility.yul\":15526:15532   */\n      dup3\n        /* \"#utility.yul\":15522:15536   */\n      add\n        /* \"#utility.yul\":15515:15562   */\n      mstore\n        /* \"#utility.yul\":15398:15569   */\n      pop\n      jump\t// out\n        /* \"#utility.yul\":15575:15941   */\n    tag_305:\n        /* \"#utility.yul\":15717:15720   */\n      0x00\n        /* \"#utility.yul\":15738:15805   */\n      tag_445\n        /* \"#utility.yul\":15802:15804   */\n      0x15\n        /* \"#utility.yul\":15797:15800   */\n      dup4\n        /* \"#utility.yul\":15738:15805   */\n      tag_286\n      jump\t// in\n    tag_445:\n        /* \"#utility.yul\":15731:15805   */\n      swap2\n      pop\n        /* \"#utility.yul\":15814:15907   */\n      tag_446\n        /* \"#utility.yul\":15903:15906   */\n      dup3\n        /* \"#utility.yul\":15814:15907   */\n      tag_304\n      jump\t// in\n    tag_446:\n        /* \"#utility.yul\":15932:15934   */\n      0x20\n        /* \"#utility.yul\":15927:15930   */\n      dup3\n        /* \"#utility.yul\":15923:15935   */\n      add\n        /* \"#utility.yul\":15916:15935   */\n      swap1\n      pop\n        /* \"#utility.yul\":15575:15941   */\n      swap2\n      swap1\n      pop\n      jump\t// out\n        /* \"#utility.yul\":15947:16366   */\n    tag_214:\n        /* \"#utility.yul\":16113:16117   */\n      0x00\n        /* \"#utility.yul\":16151:16153   */\n      0x20\n        /* \"#utility.yul\":16140:16149   */\n      dup3\n        /* \"#utility.yul\":16136:16154   */\n      add\n        /* \"#utility.yul\":16128:16154   */\n      swap1\n      pop\n        /* \"#utility.yul\":16200:16209   */\n      dup2\n        /* \"#utility.yul\":16194:16198   */\n      dup2\n        /* \"#utility.yul\":16190:16210   */\n      sub\n        /* \"#utility.yul\":16186:16187   */\n      0x00\n        /* \"#utility.yul\":16175:16184   */\n      dup4\n        /* \"#utility.yul\":16171:16188   */\n      add\n        /* \"#utility.yul\":16164:16211   */\n      mstore\n        /* \"#utility.yul\":16228:16359   */\n      tag_448\n        /* \"#utility.yul\":16354:16358   */\n      dup2\n        /* \"#utility.yul\":16228:16359   */\n      tag_305\n      jump\t// in\n    tag_448:\n        /* \"#utility.yul\":16220:16359   */\n      swap1\n      pop\n        /* \"#utility.yul\":15947:16366   */\n      swap2\n      swap1\n      pop\n      jump\t// out\n        /* \"#utility.yul\":16372:16615   */\n    tag_306:\n        /* \"#utility.yul\":16512:16546   */\n      0x596f752068617665206e6f742064657369676e61746564207468697320747261\n        /* \"#utility.yul\":16508:16509   */\n      0x00\n        /* \"#utility.yul\":16500:16506   */\n      dup3\n        /* \"#utility.yul\":16496:16510   */\n      add\n        /* \"#utility.yul\":16489:16547   */\n      mstore\n        /* \"#utility.yul\":16581:16607   */\n      0x6e73616374696f6e206173206120636f6c6c61746572616c0000000000000000\n        /* \"#utility.yul\":16576:16578   */\n      0x20\n        /* \"#utility.yul\":16568:16574   */\n      dup3\n        /* \"#utility.yul\":16564:16579   */\n      add\n        /* \"#utility.yul\":16557:16608   */\n      mstore\n        /* \"#utility.yul\":16372:16615   */\n      pop\n      jump\t// out\n        /* \"#utility.yul\":16621:16987   */\n    tag_307:\n        /* \"#utility.yul\":16763:16766   */\n      0x00\n        /* \"#utility.yul\":16784:16851   */\n      tag_451\n        /* \"#utility.yul\":16848:16850   */\n      0x38\n        /* \"#utility.yul\":16843:16846   */\n      dup4\n        /* \"#utility.yul\":16784:16851   */\n      tag_286\n      jump\t// in\n    tag_451:\n        /* \"#utility.yul\":16777:16851   */\n      swap2\n      pop\n        /* \"#utility.yul\":16860:16953   */\n      tag_452\n        /* \"#utility.yul\":16949:16952   */\n      dup3\n        /* \"#utility.yul\":16860:16953   */\n      tag_306\n      jump\t// in\n    tag_452:\n        /* \"#utility.yul\":16978:16980   */\n      0x40\n        /* \"#utility.yul\":16973:16976   */\n      dup3\n        /* \"#utility.yul\":16969:16981   */\n      add\n        /* \"#utility.yul\":16962:16981   */\n      swap1\n      pop\n        /* \"#utility.yul\":16621:16987   */\n      swap2\n      swap1\n      pop\n      jump\t// out\n        /* \"#utility.yul\":16993:17412   */\n    tag_231:\n        /* \"#utility.yul\":17159:17163   */\n      0x00\n        /* \"#utility.yul\":17197:17199   */\n      0x20\n        /* \"#utility.yul\":17186:17195   */\n      dup3\n        /* \"#utility.yul\":17182:17200   */\n      add\n        /* \"#utility.yul\":17174:17200   */\n      swap1\n      pop\n        /* \"#utility.yul\":17246:17255   */\n      dup2\n        /* \"#utility.yul\":17240:17244   */\n      dup2\n        /* \"#utility.yul\":17236:17256   */\n      sub\n        /* \"#utility.yul\":17232:17233   */\n      0x00\n        /* \"#utility.yul\":17221:17230   */\n      dup4\n        /* \"#utility.yul\":17217:17234   */\n      add\n        /* \"#utility.yul\":17210:17257   */\n      mstore\n        /* \"#utility.yul\":17274:17405   */\n      tag_454\n        /* \"#utility.yul\":17400:17404   */\n      dup2\n        /* \"#utility.yul\":17274:17405   */\n      tag_307\n      jump\t// in\n    tag_454:\n        /* \"#utility.yul\":17266:17405   */\n      swap1\n      pop\n        /* \"#utility.yul\":16993:17412   */\n      swap2\n      swap1\n      pop\n      jump\t// out\n        /* \"#utility.yul\":17418:17641   */\n    tag_308:\n        /* \"#utility.yul\":17558:17592   */\n      0x4465706f736974206d757374206265206174206c6561737420302e3030352045\n        /* \"#utility.yul\":17554:17555   */\n      0x00\n        /* \"#utility.yul\":17546:17552   */\n      dup3\n        /* \"#utility.yul\":17542:17556   */\n      add\n        /* \"#utility.yul\":17535:17593   */\n      mstore\n        /* \"#utility.yul\":17627:17633   */\n      0x7468657200000000000000000000000000000000000000000000000000000000\n        /* \"#utility.yul\":17622:17624   */\n      0x20\n        /* \"#utility.yul\":17614:17620   */\n      dup3\n        /* \"#utility.yul\":17610:17625   */\n      add\n        /* \"#utility.yul\":17603:17634   */\n      mstore\n        /* \"#utility.yul\":17418:17641   */\n      pop\n      jump\t// out\n        /* \"#utility.yul\":17647:18013   */\n    tag_309:\n        /* \"#utility.yul\":17789:17792   */\n      0x00\n        /* \"#utility.yul\":17810:17877   */\n      tag_457\n        /* \"#utility.yul\":17874:17876   */\n      0x24\n        /* \"#utility.yul\":17869:17872   */\n      dup4\n        /* \"#utility.yul\":17810:17877   */\n      tag_286\n      jump\t// in\n    tag_457:\n        /* \"#utility.yul\":17803:17877   */\n      swap2\n      pop\n        /* \"#utility.yul\":17886:17979   */\n      tag_458\n        /* \"#utility.yul\":17975:17978   */\n      dup3\n        /* \"#utility.yul\":17886:17979   */\n      tag_308\n      jump\t// in\n    tag_458:\n        /* \"#utility.yul\":18004:18006   */\n      0x40\n        /* \"#utility.yul\":17999:18002   */\n      dup3\n        /* \"#utility.yul\":17995:18007   */\n      add\n        /* \"#utility.yul\":17988:18007   */\n      swap1\n      pop\n        /* \"#utility.yul\":17647:18013   */\n      swap2\n      swap1\n      pop\n      jump\t// out\n        /* \"#utility.yul\":18019:18438   */\n    tag_238:\n        /* \"#utility.yul\":18185:18189   */\n      0x00\n        /* \"#utility.yul\":18223:18225   */\n      0x20\n        /* \"#utility.yul\":18212:18221   */\n      dup3\n        /* \"#utility.yul\":18208:18226   */\n      add\n        /* \"#utility.yul\":18200:18226   */\n      swap1\n      pop\n        /* \"#utility.yul\":18272:18281   */\n      dup2\n        /* \"#utility.yul\":18266:18270   */\n      dup2\n        /* \"#utility.yul\":18262:18282   */\n      sub\n        /* \"#utility.yul\":18258:18259   */\n      0x00\n        /* \"#utility.yul\":18247:18256   */\n      dup4\n        /* \"#utility.yul\":18243:18260   */\n      add\n        /* \"#utility.yul\":18236:18283   */\n      mstore\n        /* \"#utility.yul\":18300:18431   */\n      tag_460\n        /* \"#utility.yul\":18426:18430   */\n      dup2\n        /* \"#utility.yul\":18300:18431   */\n      tag_309\n      jump\t// in\n    tag_460:\n        /* \"#utility.yul\":18292:18431   */\n      swap1\n      pop\n        /* \"#utility.yul\":18019:18438   */\n      swap2\n      swap1\n      pop\n      jump\t// out\n        /* \"#utility.yul\":18444:18672   */\n    tag_310:\n        /* \"#utility.yul\":18584:18618   */\n      0x52657061796d656e7420616d6f756e742065786365656473206f75747374616e\n        /* \"#utility.yul\":18580:18581   */\n      0x00\n        /* \"#utility.yul\":18572:18578   */\n      dup3\n        /* \"#utility.yul\":18568:18582   */\n      add\n        /* \"#utility.yul\":18561:18619   */\n      mstore\n        /* \"#utility.yul\":18653:18664   */\n      0x64696e67206c6f616e0000000000000000000000000000000000000000000000\n        /* \"#utility.yul\":18648:18650   */\n      0x20\n        /* \"#utility.yul\":18640:18646   */\n      dup3\n        /* \"#utility.yul\":18636:18651   */\n      add\n        /* \"#utility.yul\":18629:18665   */\n      mstore\n        /* \"#utility.yul\":18444:18672   */\n      pop\n      jump\t// out\n        /* \"#utility.yul\":18678:19044   */\n    tag_311:\n        /* \"#utility.yul\":18820:18823   */\n      0x00\n        /* \"#utility.yul\":18841:18908   */\n      tag_463\n        /* \"#utility.yul\":18905:18907   */\n      0x29\n        /* \"#utility.yul\":18900:18903   */\n      dup4\n        /* \"#utility.yul\":18841:18908   */\n      tag_286\n      jump\t// in\n    tag_463:\n        /* \"#utility.yul\":18834:18908   */\n      swap2\n      pop\n        /* \"#utility.yul\":18917:19010   */\n      tag_464\n        /* \"#utility.yul\":19006:19009   */\n      dup3\n        /* \"#utility.yul\":18917:19010   */\n      tag_310\n      jump\t// in\n    tag_464:\n        /* \"#utility.yul\":19035:19037   */\n      0x40\n        /* \"#utility.yul\":19030:19033   */\n      dup3\n        /* \"#utility.yul\":19026:19038   */\n      add\n        /* \"#utility.yul\":19019:19038   */\n      swap1\n      pop\n        /* \"#utility.yul\":18678:19044   */\n      swap2\n      swap1\n      pop\n      jump\t// out\n        /* \"#utility.yul\":19050:19469   */\n    tag_253:\n        /* \"#utility.yul\":19216:19220   */\n      0x00\n        /* \"#utility.yul\":19254:19256   */\n      0x20\n        /* \"#utility.yul\":19243:19252   */\n      dup3\n        /* \"#utility.yul\":19239:19257   */\n      add\n        /* \"#utility.yul\":19231:19257   */\n      swap1\n      pop\n        /* \"#utility.yul\":19303:19312   */\n      dup2\n        /* \"#utility.yul\":19297:19301   */\n      dup2\n        /* \"#utility.yul\":19293:19313   */\n      sub\n        /* \"#utility.yul\":19289:19290   */\n      0x00\n        /* \"#utility.yul\":19278:19287   */\n      dup4\n        /* \"#utility.yul\":19274:19291   */\n      add\n        /* \"#utility.yul\":19267:19314   */\n      mstore\n        /* \"#utility.yul\":19331:19462   */\n      tag_466\n        /* \"#utility.yul\":19457:19461   */\n      dup2\n        /* \"#utility.yul\":19331:19462   */\n      tag_311\n      jump\t// in\n    tag_466:\n        /* \"#utility.yul\":19323:19462   */\n      swap1\n      pop\n        /* \"#utility.yul\":19050:19469   */\n      swap2\n      swap1\n      pop\n      jump\t// out\n\n    auxdata: 0xa2646970667358221220bdf559b5e7f53213dccffcdfb3440659bd6ab3a6058ee86f2d2c5814c1a9517764736f6c63430008160033\n}\n",
				"bytecode": {
					"linkReferences": {},
					"object": "6080604052335f806101000a81548173ffffffffffffffffffffffffffffffffffffffff021916908373ffffffffffffffffffffffffffffffffffffffff160217905550346001819055506123f4806100575f395ff3fe608060405260043610610129575f3560e01c806391f68106116100aa578063d0e30db01161006e578063d0e30db0146103cf578063d7ee24e8146103d9578063dab3b7aa14610415578063e263363714610451578063f966ade71461047b578063fff2df2a1461049957610129565b806391f68106146102c9578063b1c43cbe146102f3578063b6f7132f1461032f578063b98ab0701461036b578063bf3eb03b146103a757610129565b80634031234c116100f15780634031234c146101fb578063504006ca1461022557806363f31d2c1461024d578063714fef4c1461027757806379af55e4146102a157610129565b806322841f011461012d5780632e1a7d4d14610157578063366559c51461017f5780633d4f04ad146101a95780633ed58de0146101d1575b5f80fd5b348015610138575f80fd5b506101416104c3565b60405161014e9190611a88565b60405180910390f35b348015610162575f80fd5b5061017d60048036038101906101789190611acf565b6104c9565b005b34801561018a575f80fd5b50610193610c45565b6040516101a09190611a88565b60405180910390f35b3480156101b4575f80fd5b506101cf60048036038101906101ca9190611acf565b610c4b565b005b3480156101dc575f80fd5b506101e5610e29565b6040516101f29190611a88565b60405180910390f35b348015610206575f80fd5b5061020f610e2f565b60405161021c9190611a88565b60405180910390f35b348015610230575f80fd5b5061024b60048036038101906102469190611acf565b610e35565b005b348015610258575f80fd5b5061026161110e565b60405161026e9190611a88565b60405180910390f35b348015610282575f80fd5b5061028b611114565b6040516102989190611a88565b60405180910390f35b3480156102ac575f80fd5b506102c760048036038101906102c29190611acf565b61111a565b005b3480156102d4575f80fd5b506102dd61126f565b6040516102ea9190611a88565b60405180910390f35b3480156102fe575f80fd5b5061031960048036038101906103149190611b54565b611278565b6040516103269190611a88565b60405180910390f35b34801561033a575f80fd5b5061035560048036038101906103509190611b54565b61128d565b6040516103629190611a88565b60405180910390f35b348015610376575f80fd5b50610391600480360381019061038c9190611b54565b6112d3565b60405161039e9190611a88565b60405180910390f35b3480156103b2575f80fd5b506103cd60048036038101906103c89190611acf565b6112e8565b005b6103d76114cb565b005b3480156103e4575f80fd5b506103ff60048036038101906103fa9190611b54565b611698565b60405161040c9190611a88565b60405180910390f35b348015610420575f80fd5b5061043b60048036038101906104369190611b54565b6116de565b6040516104489190611cb6565b60405180910390f35b34801561045c575f80fd5b506104656117c9565b6040516104729190611a88565b60405180910390f35b6104836117d2565b6040516104909190611a88565b60405180910390f35b3480156104a4575f80fd5b506104ad611a6a565b6040516104ba9190611a88565b60405180910390f35b60045481565b60095f3373ffffffffffffffffffffffffffffffffffffffff1673ffffffffffffffffffffffffffffffffffffffff1681526020019081526020015f2080549050811061054b576040517f08c379a000000000000000000000000000000000000000000000000000000000815260040161054290611d30565b60405180910390fd5b60095f3373ffffffffffffffffffffffffffffffffffffffff1673ffffffffffffffffffffffffffffffffffffffff1681526020019081526020015f20818154811061059a57610599611d4e565b5b905f5260205f2090600402016001015442116105eb576040517f08c379a00000000000000000000000000000000000000000000000000000000081526004016105e290611dc5565b60405180910390fd5b5f600a9050426006819055505f60095f3373ffffffffffffffffffffffffffffffffffffffff1673ffffffffffffffffffffffffffffffffffffffff1681526020019081526020015f20838154811061064757610646611d4e565b5b905f5260205f209060040201600301546006546106649190611e10565b90505f6402540be4006301e133808461067d9190611e70565b6106879190611ea0565b9050808260095f3373ffffffffffffffffffffffffffffffffffffffff1673ffffffffffffffffffffffffffffffffffffffff1681526020019081526020015f2086815481106106da576106d9611d4e565b5b905f5260205f2090600402015f01546106f39190611ea0565b6106fd9190611ea0565b6005819055505f6103e860095f3373ffffffffffffffffffffffffffffffffffffffff1673ffffffffffffffffffffffffffffffffffffffff1681526020019081526020015f20868154811061075657610755611d4e565b5b905f5260205f2090600402015f015461076f9190611e70565b90505f6005548260095f3373ffffffffffffffffffffffffffffffffffffffff1673ffffffffffffffffffffffffffffffffffffffff1681526020019081526020015f2088815481106107c5576107c4611d4e565b5b905f5260205f2090600402015f01546107de9190611e10565b6107e89190611e10565b905060095f3373ffffffffffffffffffffffffffffffffffffffff1673ffffffffffffffffffffffffffffffffffffffff1681526020019081526020015f20868154811061083957610838611d4e565b5b905f5260205f2090600402016002015f9054906101000a900460ff16156109805760095f3373ffffffffffffffffffffffffffffffffffffffff1673ffffffffffffffffffffffffffffffffffffffff1681526020019081526020015f2086815481106108a9576108a8611d4e565b5b905f5260205f2090600402015f015460025f8282546108c89190611e10565b9250508190555060095f3373ffffffffffffffffffffffffffffffffffffffff1673ffffffffffffffffffffffffffffffffffffffff1681526020019081526020015f20868154811061091e5761091d611d4e565b5b905f5260205f2090600402015f0154600a5f3373ffffffffffffffffffffffffffffffffffffffff1673ffffffffffffffffffffffffffffffffffffffff1681526020019081526020015f205f8282546109789190611e10565b925050819055505b604b600381905550600d5f3373ffffffffffffffffffffffffffffffffffffffff1673ffffffffffffffffffffffffffffffffffffffff1681526020019081526020015f2054600354600a5f3373ffffffffffffffffffffffffffffffffffffffff1673ffffffffffffffffffffffffffffffffffffffff1681526020019081526020015f2054610a119190611ea0565b610a1b9190611e70565b6004819055503373ffffffffffffffffffffffffffffffffffffffff166108fc8290811502906040515f60405180830381858888f19350505050158015610a64573d5f803e3d5ffd5b5060095f3373ffffffffffffffffffffffffffffffffffffffff1673ffffffffffffffffffffffffffffffffffffffff1681526020019081526020015f208681548110610ab457610ab3611d4e565b5b905f5260205f2090600402015f015460015f828254610ad39190611e10565b925050819055506001151560095f3373ffffffffffffffffffffffffffffffffffffffff1673ffffffffffffffffffffffffffffffffffffffff1681526020019081526020015f208781548110610b2d57610b2c611d4e565b5b905f5260205f20906004020160020160019054906101000a900460ff16151514610b8c576040517f08c379a0000000000000000000000000000000000000000000000000000000008152600401610b8390611f51565b60405180910390fd5b5f60095f3373ffffffffffffffffffffffffffffffffffffffff1673ffffffffffffffffffffffffffffffffffffffff1681526020019081526020015f208781548110610bdc57610bdb611d4e565b5b905f5260205f20906004020160020160016101000a81548160ff0219169083151502179055507fdf273cb619d95419a9cd0ec88123a0538c85064229baa6363788f743fff90deb338284604051610c3593929190611f7e565b60405180910390a1505050505050565b60085481565b60095f3373ffffffffffffffffffffffffffffffffffffffff1673ffffffffffffffffffffffffffffffffffffffff1681526020019081526020015f20805490508110610ccd576040517f08c379a0000000000000000000000000000000000000000000000000000000008152600401610cc490611ffd565b60405180910390fd5b5f60095f3373ffffffffffffffffffffffffffffffffffffffff1673ffffffffffffffffffffffffffffffffffffffff1681526020019081526020015f208281548110610d1d57610d1c611d4e565b5b905f5260205f20906004020190505f1515816002015f9054906101000a900460ff16151514610d81576040517f08c379a0000000000000000000000000000000000000000000000000000000008152600401610d789061208b565b60405180910390fd5b6001816002015f6101000a81548160ff021916908315150217905550806002015f9054906101000a900460ff1615610e2557805f0154600a5f3373ffffffffffffffffffffffffffffffffffffffff1673ffffffffffffffffffffffffffffffffffffffff1681526020019081526020015f205f828254610e0291906120a9565b92505081905550805f015460025f828254610e1d91906120a9565b925050819055505b5050565b60075481565b60035481565b5f670de0b6b3a764000082610e4a9190611ea0565b9050600a5f3373ffffffffffffffffffffffffffffffffffffffff1673ffffffffffffffffffffffffffffffffffffffff1681526020019081526020015f2054821115610ecc576040517f08c379a0000000000000000000000000000000000000000000000000000000008152600401610ec390612126565b60405180910390fd5b8060025f828254610edd9190611e10565b9250508190555080600a5f3373ffffffffffffffffffffffffffffffffffffffff1673ffffffffffffffffffffffffffffffffffffffff1681526020019081526020015f205f828254610f309190611e10565b9250508190555080600d5f3373ffffffffffffffffffffffffffffffffffffffff1673ffffffffffffffffffffffffffffffffffffffff1681526020019081526020015f205f828254610f8391906120a9565b92505081905550604b600381905550600d5f3373ffffffffffffffffffffffffffffffffffffffff1673ffffffffffffffffffffffffffffffffffffffff1681526020019081526020015f2054600354600a5f3373ffffffffffffffffffffffffffffffffffffffff1673ffffffffffffffffffffffffffffffffffffffff1681526020019081526020015f205461101b9190611ea0565b6110259190611e70565b60048190555060646004541015611071576040517f08c379a00000000000000000000000000000000000000000000000000000000081526004016110689061218e565b60405180910390fd5b3373ffffffffffffffffffffffffffffffffffffffff166108fc8290811502906040515f60405180830381858888f193505050501580156110b4573d5f803e3d5ffd5b50426007819055503373ffffffffffffffffffffffffffffffffffffffff167fcbc04eca7e9da35cb1393a6135a199ca52e450d5e9251cbd99f7847d33a36750836040516111029190611a88565b60405180910390a25050565b60025481565b60065481565b5f8054906101000a900473ffffffffffffffffffffffffffffffffffffffff1673ffffffffffffffffffffffffffffffffffffffff163373ffffffffffffffffffffffffffffffffffffffff16146111a7576040517f08c379a000000000000000000000000000000000000000000000000000000000815260040161119e906121f6565b60405180910390fd5b5f600160095f3373ffffffffffffffffffffffffffffffffffffffff1673ffffffffffffffffffffffffffffffffffffffff1681526020019081526020015f20805490506111f59190611e10565b90508160095f3373ffffffffffffffffffffffffffffffffffffffff1673ffffffffffffffffffffffffffffffffffffffff1681526020019081526020015f20828154811061124757611246611d4e565b5b905f5260205f2090600402016001015f82825461126491906120a9565b925050819055505050565b5f600154905090565b600a602052805f5260405f205f915090505481565b5f600a5f8373ffffffffffffffffffffffffffffffffffffffff1673ffffffffffffffffffffffffffffffffffffffff1681526020019081526020015f20549050919050565b600d602052805f5260405f205f915090505481565b60095f3373ffffffffffffffffffffffffffffffffffffffff1673ffffffffffffffffffffffffffffffffffffffff1681526020019081526020015f2080549050811061136a576040517f08c379a000000000000000000000000000000000000000000000000000000000815260040161136190611ffd565b60405180910390fd5b5f60095f3373ffffffffffffffffffffffffffffffffffffffff1673ffffffffffffffffffffffffffffffffffffffff1681526020019081526020015f2082815481106113ba576113b9611d4e565b5b905f5260205f209060040201905060011515816002015f9054906101000a900460ff1615151461141f576040517f08c379a000000000000000000000000000000000000000000000000000000000815260040161141690612284565b60405180910390fd5b5f816002015f6101000a81548160ff0219169083151502179055505f1515816002015f9054906101000a900460ff161515036114c757805f0154600a5f3373ffffffffffffffffffffffffffffffffffffffff1673ffffffffffffffffffffffffffffffffffffffff1681526020019081526020015f205f8282546114a49190611e10565b92505081905550805f015460025f8282546114bf9190611e10565b925050819055505b5050565b6611c37937e08000341015611515576040517f08c379a000000000000000000000000000000000000000000000000000000000815260040161150c90612312565b60405180910390fd5b5f6040518060a0016040528034815260200160014261153491906120a9565b815260200160011515815260200160011515815260200142815250905060095f3373ffffffffffffffffffffffffffffffffffffffff1673ffffffffffffffffffffffffffffffffffffffff1681526020019081526020015f2081908060018154018082558091505060019003905f5260205f2090600402015f909190919091505f820151815f0155602082015181600101556040820151816002015f6101000a81548160ff02191690831515021790555060608201518160020160016101000a81548160ff0219169083151502179055506080820151816003015550503460015f82825461162391906120a9565b925050819055503460025f82825461163b91906120a9565b9250508190555034600a5f3373ffffffffffffffffffffffffffffffffffffffff1673ffffffffffffffffffffffffffffffffffffffff1681526020019081526020015f205f82825461168e91906120a9565b9250508190555050565b5f600d5f8373ffffffffffffffffffffffffffffffffffffffff1673ffffffffffffffffffffffffffffffffffffffff1681526020019081526020015f20549050919050565b606060095f8373ffffffffffffffffffffffffffffffffffffffff1673ffffffffffffffffffffffffffffffffffffffff1681526020019081526020015f20805480602002602001604051908101604052809291908181526020015f905b828210156117be578382905f5260205f2090600402016040518060a00160405290815f820154815260200160018201548152602001600282015f9054906101000a900460ff161515151581526020016002820160019054906101000a900460ff161515151581526020016003820154815250508152602001906001019061173c565b505050509050919050565b5f600554905090565b5f600d5f3373ffffffffffffffffffffffffffffffffffffffff1673ffffffffffffffffffffffffffffffffffffffff1681526020019081526020015f2054341115611853576040517f08c379a000000000000000000000000000000000000000000000000000000000815260040161184a906123a0565b60405180910390fd5b34600d5f3373ffffffffffffffffffffffffffffffffffffffff1673ffffffffffffffffffffffffffffffffffffffff1681526020019081526020015f205f82825461189f9190611e10565b925050819055503460025f8282546118b791906120a9565b9250508190555034600a5f3373ffffffffffffffffffffffffffffffffffffffff1673ffffffffffffffffffffffffffffffffffffffff1681526020019081526020015f205f82825461190a91906120a9565b925050819055505f60089050426008819055505f60075460085461192e9190611e10565b90505f6402540be4006301e13380846119479190611e70565b6119519190611ea0565b90508082346119609190611ea0565b61196a9190611ea0565b600581905550604b600381905550600d5f3373ffffffffffffffffffffffffffffffffffffffff1673ffffffffffffffffffffffffffffffffffffffff1681526020019081526020015f2054600354600a5f3373ffffffffffffffffffffffffffffffffffffffff1673ffffffffffffffffffffffffffffffffffffffff1681526020019081526020015f2054611a019190611ea0565b611a0b9190611e70565b6004819055503373ffffffffffffffffffffffffffffffffffffffff167f6f8286e47ace49394f4a28298c2ba2c5df760a3872931a94e60ab7fe82b809cd34604051611a579190611a88565b60405180910390a2600554935050505090565b60055481565b5f819050919050565b611a8281611a70565b82525050565b5f602082019050611a9b5f830184611a79565b92915050565b5f80fd5b611aae81611a70565b8114611ab8575f80fd5b50565b5f81359050611ac981611aa5565b92915050565b5f60208284031215611ae457611ae3611aa1565b5b5f611af184828501611abb565b91505092915050565b5f73ffffffffffffffffffffffffffffffffffffffff82169050919050565b5f611b2382611afa565b9050919050565b611b3381611b19565b8114611b3d575f80fd5b50565b5f81359050611b4e81611b2a565b92915050565b5f60208284031215611b6957611b68611aa1565b5b5f611b7684828501611b40565b91505092915050565b5f81519050919050565b5f82825260208201905092915050565b5f819050602082019050919050565b611bb181611a70565b82525050565b5f8115159050919050565b611bcb81611bb7565b82525050565b60a082015f820151611be55f850182611ba8565b506020820151611bf86020850182611ba8565b506040820151611c0b6040850182611bc2565b506060820151611c1e6060850182611bc2565b506080820151611c316080850182611ba8565b50505050565b5f611c428383611bd1565b60a08301905092915050565b5f602082019050919050565b5f611c6482611b7f565b611c6e8185611b89565b9350611c7983611b99565b805f5b83811015611ca9578151611c908882611c37565b9750611c9b83611c4e565b925050600181019050611c7c565b5085935050505092915050565b5f6020820190508181035f830152611cce8184611c5a565b905092915050565b5f82825260208201905092915050565b7f496e76616c696420696e646578000000000000000000000000000000000000005f82015250565b5f611d1a600d83611cd6565b9150611d2582611ce6565b602082019050919050565b5f6020820190508181035f830152611d4781611d0e565b9050919050565b7f4e487b71000000000000000000000000000000000000000000000000000000005f52603260045260245ffd5b7f4c6f636b2074696d6520686173206e6f742065787069726564000000000000005f82015250565b5f611daf601983611cd6565b9150611dba82611d7b565b602082019050919050565b5f6020820190508181035f830152611ddc81611da3565b9050919050565b7f4e487b71000000000000000000000000000000000000000000000000000000005f52601160045260245ffd5b5f611e1a82611a70565b9150611e2583611a70565b9250828203905081811115611e3d57611e3c611de3565b5b92915050565b7f4e487b71000000000000000000000000000000000000000000000000000000005f52601260045260245ffd5b5f611e7a82611a70565b9150611e8583611a70565b925082611e9557611e94611e43565b5b828204905092915050565b5f611eaa82611a70565b9150611eb583611a70565b9250828202611ec381611a70565b91508282048414831517611eda57611ed9611de3565b5b5092915050565b7f596f7520616c72656164792077697468647261776e2074686973207472616e735f8201527f616374696f6e0000000000000000000000000000000000000000000000000000602082015250565b5f611f3b602683611cd6565b9150611f4682611ee1565b604082019050919050565b5f6020820190508181035f830152611f6881611f2f565b9050919050565b611f7881611b19565b82525050565b5f606082019050611f915f830186611f6f565b611f9e6020830185611a79565b611fab6040830184611a79565b949350505050565b7f496e646578206e6f7420666f756e6400000000000000000000000000000000005f82015250565b5f611fe7600f83611cd6565b9150611ff282611fb3565b602082019050919050565b5f6020820190508181035f83015261201481611fdb565b9050919050565b7f596f7520616c7265616479207365742074686973207472616e73616374696f6e5f8201527f206173206120636f6c6c61746572616c00000000000000000000000000000000602082015250565b5f612075603083611cd6565b91506120808261201b565b604082019050919050565b5f6020820190508181035f8301526120a281612069565b9050919050565b5f6120b382611a70565b91506120be83611a70565b92508282019050808211156120d6576120d5611de3565b5b92915050565b7f4c6f616e20616d6f756e74206578636565647320636f6c6c61746572616c00005f82015250565b5f612110601e83611cd6565b915061211b826120dc565b602082019050919050565b5f6020820190508181035f83015261213d81612104565b9050919050565b7f4865616c746820666163746f72206d7573742062652061626f766520310000005f82015250565b5f612178601d83611cd6565b915061218382612144565b602082019050919050565b5f6020820190508181035f8301526121a58161216c565b9050919050565b7f596f7520617265206e6f7420746865206f776e657200000000000000000000005f82015250565b5f6121e0601583611cd6565b91506121eb826121ac565b602082019050919050565b5f6020820190508181035f83015261220d816121d4565b9050919050565b7f596f752068617665206e6f742064657369676e617465642074686973207472615f8201527f6e73616374696f6e206173206120636f6c6c61746572616c0000000000000000602082015250565b5f61226e603883611cd6565b915061227982612214565b604082019050919050565b5f6020820190508181035f83015261229b81612262565b9050919050565b7f4465706f736974206d757374206265206174206c6561737420302e30303520455f8201527f7468657200000000000000000000000000000000000000000000000000000000602082015250565b5f6122fc602483611cd6565b9150612307826122a2565b604082019050919050565b5f6020820190508181035f830152612329816122f0565b9050919050565b7f52657061796d656e7420616d6f756e742065786365656473206f75747374616e5f8201527f64696e67206c6f616e0000000000000000000000000000000000000000000000602082015250565b5f61238a602983611cd6565b915061239582612330565b604082019050919050565b5f6020820190508181035f8301526123b78161237e565b905091905056fea2646970667358221220bdf559b5e7f53213dccffcdfb3440659bd6ab3a6058ee86f2d2c5814c1a9517764736f6c63430008160033",
					"opcodes": "PUSH1 0x80 PUSH1 0x40 MSTORE CALLER PUSH0 DUP1 PUSH2 0x100 EXP DUP2 SLOAD DUP2 PUSH20 0xFFFFFFFFFFFFFFFFFFFFFFFFFFFFFFFFFFFFFFFF MUL NOT AND SWAP1 DUP4 PUSH20 0xFFFFFFFFFFFFFFFFFFFFFFFFFFFFFFFFFFFFFFFF AND MUL OR SWAP1 SSTORE POP CALLVALUE PUSH1 0x1 DUP2 SWAP1 SSTORE POP PUSH2 0x23F4 DUP1 PUSH2 0x57 PUSH0 CODECOPY PUSH0 RETURN INVALID PUSH1 0x80 PUSH1 0x40 MSTORE PUSH1 0x4 CALLDATASIZE LT PUSH2 0x129 JUMPI PUSH0 CALLDATALOAD PUSH1 0xE0 SHR DUP1 PUSH4 0x91F68106 GT PUSH2 0xAA JUMPI DUP1 PUSH4 0xD0E30DB0 GT PUSH2 0x6E JUMPI DUP1 PUSH4 0xD0E30DB0 EQ PUSH2 0x3CF JUMPI DUP1 PUSH4 0xD7EE24E8 EQ PUSH2 0x3D9 JUMPI DUP1 PUSH4 0xDAB3B7AA EQ PUSH2 0x415 JUMPI DUP1 PUSH4 0xE2633637 EQ PUSH2 0x451 JUMPI DUP1 PUSH4 0xF966ADE7 EQ PUSH2 0x47B JUMPI DUP1 PUSH4 0xFFF2DF2A EQ PUSH2 0x499 JUMPI PUSH2 0x129 JUMP JUMPDEST DUP1 PUSH4 0x91F68106 EQ PUSH2 0x2C9 JUMPI DUP1 PUSH4 0xB1C43CBE EQ PUSH2 0x2F3 JUMPI DUP1 PUSH4 0xB6F7132F EQ PUSH2 0x32F JUMPI DUP1 PUSH4 0xB98AB070 EQ PUSH2 0x36B JUMPI DUP1 PUSH4 0xBF3EB03B EQ PUSH2 0x3A7 JUMPI PUSH2 0x129 JUMP JUMPDEST DUP1 PUSH4 0x4031234C GT PUSH2 0xF1 JUMPI DUP1 PUSH4 0x4031234C EQ PUSH2 0x1FB JUMPI DUP1 PUSH4 0x504006CA EQ PUSH2 0x225 JUMPI DUP1 PUSH4 0x63F31D2C EQ PUSH2 0x24D JUMPI DUP1 PUSH4 0x714FEF4C EQ PUSH2 0x277 JUMPI DUP1 PUSH4 0x79AF55E4 EQ PUSH2 0x2A1 JUMPI PUSH2 0x129 JUMP JUMPDEST DUP1 PUSH4 0x22841F01 EQ PUSH2 0x12D JUMPI DUP1 PUSH4 0x2E1A7D4D EQ PUSH2 0x157 JUMPI DUP1 PUSH4 0x366559C5 EQ PUSH2 0x17F JUMPI DUP1 PUSH4 0x3D4F04AD EQ PUSH2 0x1A9 JUMPI DUP1 PUSH4 0x3ED58DE0 EQ PUSH2 0x1D1 JUMPI JUMPDEST PUSH0 DUP1 REVERT JUMPDEST CALLVALUE DUP1 ISZERO PUSH2 0x138 JUMPI PUSH0 DUP1 REVERT JUMPDEST POP PUSH2 0x141 PUSH2 0x4C3 JUMP JUMPDEST PUSH1 0x40 MLOAD PUSH2 0x14E SWAP2 SWAP1 PUSH2 0x1A88 JUMP JUMPDEST PUSH1 0x40 MLOAD DUP1 SWAP2 SUB SWAP1 RETURN JUMPDEST CALLVALUE DUP1 ISZERO PUSH2 0x162 JUMPI PUSH0 DUP1 REVERT JUMPDEST POP PUSH2 0x17D PUSH1 0x4 DUP1 CALLDATASIZE SUB DUP2 ADD SWAP1 PUSH2 0x178 SWAP2 SWAP1 PUSH2 0x1ACF JUMP JUMPDEST PUSH2 0x4C9 JUMP JUMPDEST STOP JUMPDEST CALLVALUE DUP1 ISZERO PUSH2 0x18A JUMPI PUSH0 DUP1 REVERT JUMPDEST POP PUSH2 0x193 PUSH2 0xC45 JUMP JUMPDEST PUSH1 0x40 MLOAD PUSH2 0x1A0 SWAP2 SWAP1 PUSH2 0x1A88 JUMP JUMPDEST PUSH1 0x40 MLOAD DUP1 SWAP2 SUB SWAP1 RETURN JUMPDEST CALLVALUE DUP1 ISZERO PUSH2 0x1B4 JUMPI PUSH0 DUP1 REVERT JUMPDEST POP PUSH2 0x1CF PUSH1 0x4 DUP1 CALLDATASIZE SUB DUP2 ADD SWAP1 PUSH2 0x1CA SWAP2 SWAP1 PUSH2 0x1ACF JUMP JUMPDEST PUSH2 0xC4B JUMP JUMPDEST STOP JUMPDEST CALLVALUE DUP1 ISZERO PUSH2 0x1DC JUMPI PUSH0 DUP1 REVERT JUMPDEST POP PUSH2 0x1E5 PUSH2 0xE29 JUMP JUMPDEST PUSH1 0x40 MLOAD PUSH2 0x1F2 SWAP2 SWAP1 PUSH2 0x1A88 JUMP JUMPDEST PUSH1 0x40 MLOAD DUP1 SWAP2 SUB SWAP1 RETURN JUMPDEST CALLVALUE DUP1 ISZERO PUSH2 0x206 JUMPI PUSH0 DUP1 REVERT JUMPDEST POP PUSH2 0x20F PUSH2 0xE2F JUMP JUMPDEST PUSH1 0x40 MLOAD PUSH2 0x21C SWAP2 SWAP1 PUSH2 0x1A88 JUMP JUMPDEST PUSH1 0x40 MLOAD DUP1 SWAP2 SUB SWAP1 RETURN JUMPDEST CALLVALUE DUP1 ISZERO PUSH2 0x230 JUMPI PUSH0 DUP1 REVERT JUMPDEST POP PUSH2 0x24B PUSH1 0x4 DUP1 CALLDATASIZE SUB DUP2 ADD SWAP1 PUSH2 0x246 SWAP2 SWAP1 PUSH2 0x1ACF JUMP JUMPDEST PUSH2 0xE35 JUMP JUMPDEST STOP JUMPDEST CALLVALUE DUP1 ISZERO PUSH2 0x258 JUMPI PUSH0 DUP1 REVERT JUMPDEST POP PUSH2 0x261 PUSH2 0x110E JUMP JUMPDEST PUSH1 0x40 MLOAD PUSH2 0x26E SWAP2 SWAP1 PUSH2 0x1A88 JUMP JUMPDEST PUSH1 0x40 MLOAD DUP1 SWAP2 SUB SWAP1 RETURN JUMPDEST CALLVALUE DUP1 ISZERO PUSH2 0x282 JUMPI PUSH0 DUP1 REVERT JUMPDEST POP PUSH2 0x28B PUSH2 0x1114 JUMP JUMPDEST PUSH1 0x40 MLOAD PUSH2 0x298 SWAP2 SWAP1 PUSH2 0x1A88 JUMP JUMPDEST PUSH1 0x40 MLOAD DUP1 SWAP2 SUB SWAP1 RETURN JUMPDEST CALLVALUE DUP1 ISZERO PUSH2 0x2AC JUMPI PUSH0 DUP1 REVERT JUMPDEST POP PUSH2 0x2C7 PUSH1 0x4 DUP1 CALLDATASIZE SUB DUP2 ADD SWAP1 PUSH2 0x2C2 SWAP2 SWAP1 PUSH2 0x1ACF JUMP JUMPDEST PUSH2 0x111A JUMP JUMPDEST STOP JUMPDEST CALLVALUE DUP1 ISZERO PUSH2 0x2D4 JUMPI PUSH0 DUP1 REVERT JUMPDEST POP PUSH2 0x2DD PUSH2 0x126F JUMP JUMPDEST PUSH1 0x40 MLOAD PUSH2 0x2EA SWAP2 SWAP1 PUSH2 0x1A88 JUMP JUMPDEST PUSH1 0x40 MLOAD DUP1 SWAP2 SUB SWAP1 RETURN JUMPDEST CALLVALUE DUP1 ISZERO PUSH2 0x2FE JUMPI PUSH0 DUP1 REVERT JUMPDEST POP PUSH2 0x319 PUSH1 0x4 DUP1 CALLDATASIZE SUB DUP2 ADD SWAP1 PUSH2 0x314 SWAP2 SWAP1 PUSH2 0x1B54 JUMP JUMPDEST PUSH2 0x1278 JUMP JUMPDEST PUSH1 0x40 MLOAD PUSH2 0x326 SWAP2 SWAP1 PUSH2 0x1A88 JUMP JUMPDEST PUSH1 0x40 MLOAD DUP1 SWAP2 SUB SWAP1 RETURN JUMPDEST CALLVALUE DUP1 ISZERO PUSH2 0x33A JUMPI PUSH0 DUP1 REVERT JUMPDEST POP PUSH2 0x355 PUSH1 0x4 DUP1 CALLDATASIZE SUB DUP2 ADD SWAP1 PUSH2 0x350 SWAP2 SWAP1 PUSH2 0x1B54 JUMP JUMPDEST PUSH2 0x128D JUMP JUMPDEST PUSH1 0x40 MLOAD PUSH2 0x362 SWAP2 SWAP1 PUSH2 0x1A88 JUMP JUMPDEST PUSH1 0x40 MLOAD DUP1 SWAP2 SUB SWAP1 RETURN JUMPDEST CALLVALUE DUP1 ISZERO PUSH2 0x376 JUMPI PUSH0 DUP1 REVERT JUMPDEST POP PUSH2 0x391 PUSH1 0x4 DUP1 CALLDATASIZE SUB DUP2 ADD SWAP1 PUSH2 0x38C SWAP2 SWAP1 PUSH2 0x1B54 JUMP JUMPDEST PUSH2 0x12D3 JUMP JUMPDEST PUSH1 0x40 MLOAD PUSH2 0x39E SWAP2 SWAP1 PUSH2 0x1A88 JUMP JUMPDEST PUSH1 0x40 MLOAD DUP1 SWAP2 SUB SWAP1 RETURN JUMPDEST CALLVALUE DUP1 ISZERO PUSH2 0x3B2 JUMPI PUSH0 DUP1 REVERT JUMPDEST POP PUSH2 0x3CD PUSH1 0x4 DUP1 CALLDATASIZE SUB DUP2 ADD SWAP1 PUSH2 0x3C8 SWAP2 SWAP1 PUSH2 0x1ACF JUMP JUMPDEST PUSH2 0x12E8 JUMP JUMPDEST STOP JUMPDEST PUSH2 0x3D7 PUSH2 0x14CB JUMP JUMPDEST STOP JUMPDEST CALLVALUE DUP1 ISZERO PUSH2 0x3E4 JUMPI PUSH0 DUP1 REVERT JUMPDEST POP PUSH2 0x3FF PUSH1 0x4 DUP1 CALLDATASIZE SUB DUP2 ADD SWAP1 PUSH2 0x3FA SWAP2 SWAP1 PUSH2 0x1B54 JUMP JUMPDEST PUSH2 0x1698 JUMP JUMPDEST PUSH1 0x40 MLOAD PUSH2 0x40C SWAP2 SWAP1 PUSH2 0x1A88 JUMP JUMPDEST PUSH1 0x40 MLOAD DUP1 SWAP2 SUB SWAP1 RETURN JUMPDEST CALLVALUE DUP1 ISZERO PUSH2 0x420 JUMPI PUSH0 DUP1 REVERT JUMPDEST POP PUSH2 0x43B PUSH1 0x4 DUP1 CALLDATASIZE SUB DUP2 ADD SWAP1 PUSH2 0x436 SWAP2 SWAP1 PUSH2 0x1B54 JUMP JUMPDEST PUSH2 0x16DE JUMP JUMPDEST PUSH1 0x40 MLOAD PUSH2 0x448 SWAP2 SWAP1 PUSH2 0x1CB6 JUMP JUMPDEST PUSH1 0x40 MLOAD DUP1 SWAP2 SUB SWAP1 RETURN JUMPDEST CALLVALUE DUP1 ISZERO PUSH2 0x45C JUMPI PUSH0 DUP1 REVERT JUMPDEST POP PUSH2 0x465 PUSH2 0x17C9 JUMP JUMPDEST PUSH1 0x40 MLOAD PUSH2 0x472 SWAP2 SWAP1 PUSH2 0x1A88 JUMP JUMPDEST PUSH1 0x40 MLOAD DUP1 SWAP2 SUB SWAP1 RETURN JUMPDEST PUSH2 0x483 PUSH2 0x17D2 JUMP JUMPDEST PUSH1 0x40 MLOAD PUSH2 0x490 SWAP2 SWAP1 PUSH2 0x1A88 JUMP JUMPDEST PUSH1 0x40 MLOAD DUP1 SWAP2 SUB SWAP1 RETURN JUMPDEST CALLVALUE DUP1 ISZERO PUSH2 0x4A4 JUMPI PUSH0 DUP1 REVERT JUMPDEST POP PUSH2 0x4AD PUSH2 0x1A6A JUMP JUMPDEST PUSH1 0x40 MLOAD PUSH2 0x4BA SWAP2 SWAP1 PUSH2 0x1A88 JUMP JUMPDEST PUSH1 0x40 MLOAD DUP1 SWAP2 SUB SWAP1 RETURN JUMPDEST PUSH1 0x4 SLOAD DUP2 JUMP JUMPDEST PUSH1 0x9 PUSH0 CALLER PUSH20 0xFFFFFFFFFFFFFFFFFFFFFFFFFFFFFFFFFFFFFFFF AND PUSH20 0xFFFFFFFFFFFFFFFFFFFFFFFFFFFFFFFFFFFFFFFF AND DUP2 MSTORE PUSH1 0x20 ADD SWAP1 DUP2 MSTORE PUSH1 0x20 ADD PUSH0 KECCAK256 DUP1 SLOAD SWAP1 POP DUP2 LT PUSH2 0x54B JUMPI PUSH1 0x40 MLOAD PUSH32 0x8C379A000000000000000000000000000000000000000000000000000000000 DUP2 MSTORE PUSH1 0x4 ADD PUSH2 0x542 SWAP1 PUSH2 0x1D30 JUMP JUMPDEST PUSH1 0x40 MLOAD DUP1 SWAP2 SUB SWAP1 REVERT JUMPDEST PUSH1 0x9 PUSH0 CALLER PUSH20 0xFFFFFFFFFFFFFFFFFFFFFFFFFFFFFFFFFFFFFFFF AND PUSH20 0xFFFFFFFFFFFFFFFFFFFFFFFFFFFFFFFFFFFFFFFF AND DUP2 MSTORE PUSH1 0x20 ADD SWAP1 DUP2 MSTORE PUSH1 0x20 ADD PUSH0 KECCAK256 DUP2 DUP2 SLOAD DUP2 LT PUSH2 0x59A JUMPI PUSH2 0x599 PUSH2 0x1D4E JUMP JUMPDEST JUMPDEST SWAP1 PUSH0 MSTORE PUSH1 0x20 PUSH0 KECCAK256 SWAP1 PUSH1 0x4 MUL ADD PUSH1 0x1 ADD SLOAD TIMESTAMP GT PUSH2 0x5EB JUMPI PUSH1 0x40 MLOAD PUSH32 0x8C379A000000000000000000000000000000000000000000000000000000000 DUP2 MSTORE PUSH1 0x4 ADD PUSH2 0x5E2 SWAP1 PUSH2 0x1DC5 JUMP JUMPDEST PUSH1 0x40 MLOAD DUP1 SWAP2 SUB SWAP1 REVERT JUMPDEST PUSH0 PUSH1 0xA SWAP1 POP TIMESTAMP PUSH1 0x6 DUP2 SWAP1 SSTORE POP PUSH0 PUSH1 0x9 PUSH0 CALLER PUSH20 0xFFFFFFFFFFFFFFFFFFFFFFFFFFFFFFFFFFFFFFFF AND PUSH20 0xFFFFFFFFFFFFFFFFFFFFFFFFFFFFFFFFFFFFFFFF AND DUP2 MSTORE PUSH1 0x20 ADD SWAP1 DUP2 MSTORE PUSH1 0x20 ADD PUSH0 KECCAK256 DUP4 DUP2 SLOAD DUP2 LT PUSH2 0x647 JUMPI PUSH2 0x646 PUSH2 0x1D4E JUMP JUMPDEST JUMPDEST SWAP1 PUSH0 MSTORE PUSH1 0x20 PUSH0 KECCAK256 SWAP1 PUSH1 0x4 MUL ADD PUSH1 0x3 ADD SLOAD PUSH1 0x6 SLOAD PUSH2 0x664 SWAP2 SWAP1 PUSH2 0x1E10 JUMP JUMPDEST SWAP1 POP PUSH0 PUSH5 0x2540BE400 PUSH4 0x1E13380 DUP5 PUSH2 0x67D SWAP2 SWAP1 PUSH2 0x1E70 JUMP JUMPDEST PUSH2 0x687 SWAP2 SWAP1 PUSH2 0x1EA0 JUMP JUMPDEST SWAP1 POP DUP1 DUP3 PUSH1 0x9 PUSH0 CALLER PUSH20 0xFFFFFFFFFFFFFFFFFFFFFFFFFFFFFFFFFFFFFFFF AND PUSH20 0xFFFFFFFFFFFFFFFFFFFFFFFFFFFFFFFFFFFFFFFF AND DUP2 MSTORE PUSH1 0x20 ADD SWAP1 DUP2 MSTORE PUSH1 0x20 ADD PUSH0 KECCAK256 DUP7 DUP2 SLOAD DUP2 LT PUSH2 0x6DA JUMPI PUSH2 0x6D9 PUSH2 0x1D4E JUMP JUMPDEST JUMPDEST SWAP1 PUSH0 MSTORE PUSH1 0x20 PUSH0 KECCAK256 SWAP1 PUSH1 0x4 MUL ADD PUSH0 ADD SLOAD PUSH2 0x6F3 SWAP2 SWAP1 PUSH2 0x1EA0 JUMP JUMPDEST PUSH2 0x6FD SWAP2 SWAP1 PUSH2 0x1EA0 JUMP JUMPDEST PUSH1 0x5 DUP2 SWAP1 SSTORE POP PUSH0 PUSH2 0x3E8 PUSH1 0x9 PUSH0 CALLER PUSH20 0xFFFFFFFFFFFFFFFFFFFFFFFFFFFFFFFFFFFFFFFF AND PUSH20 0xFFFFFFFFFFFFFFFFFFFFFFFFFFFFFFFFFFFFFFFF AND DUP2 MSTORE PUSH1 0x20 ADD SWAP1 DUP2 MSTORE PUSH1 0x20 ADD PUSH0 KECCAK256 DUP7 DUP2 SLOAD DUP2 LT PUSH2 0x756 JUMPI PUSH2 0x755 PUSH2 0x1D4E JUMP JUMPDEST JUMPDEST SWAP1 PUSH0 MSTORE PUSH1 0x20 PUSH0 KECCAK256 SWAP1 PUSH1 0x4 MUL ADD PUSH0 ADD SLOAD PUSH2 0x76F SWAP2 SWAP1 PUSH2 0x1E70 JUMP JUMPDEST SWAP1 POP PUSH0 PUSH1 0x5 SLOAD DUP3 PUSH1 0x9 PUSH0 CALLER PUSH20 0xFFFFFFFFFFFFFFFFFFFFFFFFFFFFFFFFFFFFFFFF AND PUSH20 0xFFFFFFFFFFFFFFFFFFFFFFFFFFFFFFFFFFFFFFFF AND DUP2 MSTORE PUSH1 0x20 ADD SWAP1 DUP2 MSTORE PUSH1 0x20 ADD PUSH0 KECCAK256 DUP9 DUP2 SLOAD DUP2 LT PUSH2 0x7C5 JUMPI PUSH2 0x7C4 PUSH2 0x1D4E JUMP JUMPDEST JUMPDEST SWAP1 PUSH0 MSTORE PUSH1 0x20 PUSH0 KECCAK256 SWAP1 PUSH1 0x4 MUL ADD PUSH0 ADD SLOAD PUSH2 0x7DE SWAP2 SWAP1 PUSH2 0x1E10 JUMP JUMPDEST PUSH2 0x7E8 SWAP2 SWAP1 PUSH2 0x1E10 JUMP JUMPDEST SWAP1 POP PUSH1 0x9 PUSH0 CALLER PUSH20 0xFFFFFFFFFFFFFFFFFFFFFFFFFFFFFFFFFFFFFFFF AND PUSH20 0xFFFFFFFFFFFFFFFFFFFFFFFFFFFFFFFFFFFFFFFF AND DUP2 MSTORE PUSH1 0x20 ADD SWAP1 DUP2 MSTORE PUSH1 0x20 ADD PUSH0 KECCAK256 DUP7 DUP2 SLOAD DUP2 LT PUSH2 0x839 JUMPI PUSH2 0x838 PUSH2 0x1D4E JUMP JUMPDEST JUMPDEST SWAP1 PUSH0 MSTORE PUSH1 0x20 PUSH0 KECCAK256 SWAP1 PUSH1 0x4 MUL ADD PUSH1 0x2 ADD PUSH0 SWAP1 SLOAD SWAP1 PUSH2 0x100 EXP SWAP1 DIV PUSH1 0xFF AND ISZERO PUSH2 0x980 JUMPI PUSH1 0x9 PUSH0 CALLER PUSH20 0xFFFFFFFFFFFFFFFFFFFFFFFFFFFFFFFFFFFFFFFF AND PUSH20 0xFFFFFFFFFFFFFFFFFFFFFFFFFFFFFFFFFFFFFFFF AND DUP2 MSTORE PUSH1 0x20 ADD SWAP1 DUP2 MSTORE PUSH1 0x20 ADD PUSH0 KECCAK256 DUP7 DUP2 SLOAD DUP2 LT PUSH2 0x8A9 JUMPI PUSH2 0x8A8 PUSH2 0x1D4E JUMP JUMPDEST JUMPDEST SWAP1 PUSH0 MSTORE PUSH1 0x20 PUSH0 KECCAK256 SWAP1 PUSH1 0x4 MUL ADD PUSH0 ADD SLOAD PUSH1 0x2 PUSH0 DUP3 DUP3 SLOAD PUSH2 0x8C8 SWAP2 SWAP1 PUSH2 0x1E10 JUMP JUMPDEST SWAP3 POP POP DUP2 SWAP1 SSTORE POP PUSH1 0x9 PUSH0 CALLER PUSH20 0xFFFFFFFFFFFFFFFFFFFFFFFFFFFFFFFFFFFFFFFF AND PUSH20 0xFFFFFFFFFFFFFFFFFFFFFFFFFFFFFFFFFFFFFFFF AND DUP2 MSTORE PUSH1 0x20 ADD SWAP1 DUP2 MSTORE PUSH1 0x20 ADD PUSH0 KECCAK256 DUP7 DUP2 SLOAD DUP2 LT PUSH2 0x91E JUMPI PUSH2 0x91D PUSH2 0x1D4E JUMP JUMPDEST JUMPDEST SWAP1 PUSH0 MSTORE PUSH1 0x20 PUSH0 KECCAK256 SWAP1 PUSH1 0x4 MUL ADD PUSH0 ADD SLOAD PUSH1 0xA PUSH0 CALLER PUSH20 0xFFFFFFFFFFFFFFFFFFFFFFFFFFFFFFFFFFFFFFFF AND PUSH20 0xFFFFFFFFFFFFFFFFFFFFFFFFFFFFFFFFFFFFFFFF AND DUP2 MSTORE PUSH1 0x20 ADD SWAP1 DUP2 MSTORE PUSH1 0x20 ADD PUSH0 KECCAK256 PUSH0 DUP3 DUP3 SLOAD PUSH2 0x978 SWAP2 SWAP1 PUSH2 0x1E10 JUMP JUMPDEST SWAP3 POP POP DUP2 SWAP1 SSTORE POP JUMPDEST PUSH1 0x4B PUSH1 0x3 DUP2 SWAP1 SSTORE POP PUSH1 0xD PUSH0 CALLER PUSH20 0xFFFFFFFFFFFFFFFFFFFFFFFFFFFFFFFFFFFFFFFF AND PUSH20 0xFFFFFFFFFFFFFFFFFFFFFFFFFFFFFFFFFFFFFFFF AND DUP2 MSTORE PUSH1 0x20 ADD SWAP1 DUP2 MSTORE PUSH1 0x20 ADD PUSH0 KECCAK256 SLOAD PUSH1 0x3 SLOAD PUSH1 0xA PUSH0 CALLER PUSH20 0xFFFFFFFFFFFFFFFFFFFFFFFFFFFFFFFFFFFFFFFF AND PUSH20 0xFFFFFFFFFFFFFFFFFFFFFFFFFFFFFFFFFFFFFFFF AND DUP2 MSTORE PUSH1 0x20 ADD SWAP1 DUP2 MSTORE PUSH1 0x20 ADD PUSH0 KECCAK256 SLOAD PUSH2 0xA11 SWAP2 SWAP1 PUSH2 0x1EA0 JUMP JUMPDEST PUSH2 0xA1B SWAP2 SWAP1 PUSH2 0x1E70 JUMP JUMPDEST PUSH1 0x4 DUP2 SWAP1 SSTORE POP CALLER PUSH20 0xFFFFFFFFFFFFFFFFFFFFFFFFFFFFFFFFFFFFFFFF AND PUSH2 0x8FC DUP3 SWAP1 DUP2 ISZERO MUL SWAP1 PUSH1 0x40 MLOAD PUSH0 PUSH1 0x40 MLOAD DUP1 DUP4 SUB DUP2 DUP6 DUP9 DUP9 CALL SWAP4 POP POP POP POP ISZERO DUP1 ISZERO PUSH2 0xA64 JUMPI RETURNDATASIZE PUSH0 DUP1 RETURNDATACOPY RETURNDATASIZE PUSH0 REVERT JUMPDEST POP PUSH1 0x9 PUSH0 CALLER PUSH20 0xFFFFFFFFFFFFFFFFFFFFFFFFFFFFFFFFFFFFFFFF AND PUSH20 0xFFFFFFFFFFFFFFFFFFFFFFFFFFFFFFFFFFFFFFFF AND DUP2 MSTORE PUSH1 0x20 ADD SWAP1 DUP2 MSTORE PUSH1 0x20 ADD PUSH0 KECCAK256 DUP7 DUP2 SLOAD DUP2 LT PUSH2 0xAB4 JUMPI PUSH2 0xAB3 PUSH2 0x1D4E JUMP JUMPDEST JUMPDEST SWAP1 PUSH0 MSTORE PUSH1 0x20 PUSH0 KECCAK256 SWAP1 PUSH1 0x4 MUL ADD PUSH0 ADD SLOAD PUSH1 0x1 PUSH0 DUP3 DUP3 SLOAD PUSH2 0xAD3 SWAP2 SWAP1 PUSH2 0x1E10 JUMP JUMPDEST SWAP3 POP POP DUP2 SWAP1 SSTORE POP PUSH1 0x1 ISZERO ISZERO PUSH1 0x9 PUSH0 CALLER PUSH20 0xFFFFFFFFFFFFFFFFFFFFFFFFFFFFFFFFFFFFFFFF AND PUSH20 0xFFFFFFFFFFFFFFFFFFFFFFFFFFFFFFFFFFFFFFFF AND DUP2 MSTORE PUSH1 0x20 ADD SWAP1 DUP2 MSTORE PUSH1 0x20 ADD PUSH0 KECCAK256 DUP8 DUP2 SLOAD DUP2 LT PUSH2 0xB2D JUMPI PUSH2 0xB2C PUSH2 0x1D4E JUMP JUMPDEST JUMPDEST SWAP1 PUSH0 MSTORE PUSH1 0x20 PUSH0 KECCAK256 SWAP1 PUSH1 0x4 MUL ADD PUSH1 0x2 ADD PUSH1 0x1 SWAP1 SLOAD SWAP1 PUSH2 0x100 EXP SWAP1 DIV PUSH1 0xFF AND ISZERO ISZERO EQ PUSH2 0xB8C JUMPI PUSH1 0x40 MLOAD PUSH32 0x8C379A000000000000000000000000000000000000000000000000000000000 DUP2 MSTORE PUSH1 0x4 ADD PUSH2 0xB83 SWAP1 PUSH2 0x1F51 JUMP JUMPDEST PUSH1 0x40 MLOAD DUP1 SWAP2 SUB SWAP1 REVERT JUMPDEST PUSH0 PUSH1 0x9 PUSH0 CALLER PUSH20 0xFFFFFFFFFFFFFFFFFFFFFFFFFFFFFFFFFFFFFFFF AND PUSH20 0xFFFFFFFFFFFFFFFFFFFFFFFFFFFFFFFFFFFFFFFF AND DUP2 MSTORE PUSH1 0x20 ADD SWAP1 DUP2 MSTORE PUSH1 0x20 ADD PUSH0 KECCAK256 DUP8 DUP2 SLOAD DUP2 LT PUSH2 0xBDC JUMPI PUSH2 0xBDB PUSH2 0x1D4E JUMP JUMPDEST JUMPDEST SWAP1 PUSH0 MSTORE PUSH1 0x20 PUSH0 KECCAK256 SWAP1 PUSH1 0x4 MUL ADD PUSH1 0x2 ADD PUSH1 0x1 PUSH2 0x100 EXP DUP2 SLOAD DUP2 PUSH1 0xFF MUL NOT AND SWAP1 DUP4 ISZERO ISZERO MUL OR SWAP1 SSTORE POP PUSH32 0xDF273CB619D95419A9CD0EC88123A0538C85064229BAA6363788F743FFF90DEB CALLER DUP3 DUP5 PUSH1 0x40 MLOAD PUSH2 0xC35 SWAP4 SWAP3 SWAP2 SWAP1 PUSH2 0x1F7E JUMP JUMPDEST PUSH1 0x40 MLOAD DUP1 SWAP2 SUB SWAP1 LOG1 POP POP POP POP POP POP JUMP JUMPDEST PUSH1 0x8 SLOAD DUP2 JUMP JUMPDEST PUSH1 0x9 PUSH0 CALLER PUSH20 0xFFFFFFFFFFFFFFFFFFFFFFFFFFFFFFFFFFFFFFFF AND PUSH20 0xFFFFFFFFFFFFFFFFFFFFFFFFFFFFFFFFFFFFFFFF AND DUP2 MSTORE PUSH1 0x20 ADD SWAP1 DUP2 MSTORE PUSH1 0x20 ADD PUSH0 KECCAK256 DUP1 SLOAD SWAP1 POP DUP2 LT PUSH2 0xCCD JUMPI PUSH1 0x40 MLOAD PUSH32 0x8C379A000000000000000000000000000000000000000000000000000000000 DUP2 MSTORE PUSH1 0x4 ADD PUSH2 0xCC4 SWAP1 PUSH2 0x1FFD JUMP JUMPDEST PUSH1 0x40 MLOAD DUP1 SWAP2 SUB SWAP1 REVERT JUMPDEST PUSH0 PUSH1 0x9 PUSH0 CALLER PUSH20 0xFFFFFFFFFFFFFFFFFFFFFFFFFFFFFFFFFFFFFFFF AND PUSH20 0xFFFFFFFFFFFFFFFFFFFFFFFFFFFFFFFFFFFFFFFF AND DUP2 MSTORE PUSH1 0x20 ADD SWAP1 DUP2 MSTORE PUSH1 0x20 ADD PUSH0 KECCAK256 DUP3 DUP2 SLOAD DUP2 LT PUSH2 0xD1D JUMPI PUSH2 0xD1C PUSH2 0x1D4E JUMP JUMPDEST JUMPDEST SWAP1 PUSH0 MSTORE PUSH1 0x20 PUSH0 KECCAK256 SWAP1 PUSH1 0x4 MUL ADD SWAP1 POP PUSH0 ISZERO ISZERO DUP2 PUSH1 0x2 ADD PUSH0 SWAP1 SLOAD SWAP1 PUSH2 0x100 EXP SWAP1 DIV PUSH1 0xFF AND ISZERO ISZERO EQ PUSH2 0xD81 JUMPI PUSH1 0x40 MLOAD PUSH32 0x8C379A000000000000000000000000000000000000000000000000000000000 DUP2 MSTORE PUSH1 0x4 ADD PUSH2 0xD78 SWAP1 PUSH2 0x208B JUMP JUMPDEST PUSH1 0x40 MLOAD DUP1 SWAP2 SUB SWAP1 REVERT JUMPDEST PUSH1 0x1 DUP2 PUSH1 0x2 ADD PUSH0 PUSH2 0x100 EXP DUP2 SLOAD DUP2 PUSH1 0xFF MUL NOT AND SWAP1 DUP4 ISZERO ISZERO MUL OR SWAP1 SSTORE POP DUP1 PUSH1 0x2 ADD PUSH0 SWAP1 SLOAD SWAP1 PUSH2 0x100 EXP SWAP1 DIV PUSH1 0xFF AND ISZERO PUSH2 0xE25 JUMPI DUP1 PUSH0 ADD SLOAD PUSH1 0xA PUSH0 CALLER PUSH20 0xFFFFFFFFFFFFFFFFFFFFFFFFFFFFFFFFFFFFFFFF AND PUSH20 0xFFFFFFFFFFFFFFFFFFFFFFFFFFFFFFFFFFFFFFFF AND DUP2 MSTORE PUSH1 0x20 ADD SWAP1 DUP2 MSTORE PUSH1 0x20 ADD PUSH0 KECCAK256 PUSH0 DUP3 DUP3 SLOAD PUSH2 0xE02 SWAP2 SWAP1 PUSH2 0x20A9 JUMP JUMPDEST SWAP3 POP POP DUP2 SWAP1 SSTORE POP DUP1 PUSH0 ADD SLOAD PUSH1 0x2 PUSH0 DUP3 DUP3 SLOAD PUSH2 0xE1D SWAP2 SWAP1 PUSH2 0x20A9 JUMP JUMPDEST SWAP3 POP POP DUP2 SWAP1 SSTORE POP JUMPDEST POP POP JUMP JUMPDEST PUSH1 0x7 SLOAD DUP2 JUMP JUMPDEST PUSH1 0x3 SLOAD DUP2 JUMP JUMPDEST PUSH0 PUSH8 0xDE0B6B3A7640000 DUP3 PUSH2 0xE4A SWAP2 SWAP1 PUSH2 0x1EA0 JUMP JUMPDEST SWAP1 POP PUSH1 0xA PUSH0 CALLER PUSH20 0xFFFFFFFFFFFFFFFFFFFFFFFFFFFFFFFFFFFFFFFF AND PUSH20 0xFFFFFFFFFFFFFFFFFFFFFFFFFFFFFFFFFFFFFFFF AND DUP2 MSTORE PUSH1 0x20 ADD SWAP1 DUP2 MSTORE PUSH1 0x20 ADD PUSH0 KECCAK256 SLOAD DUP3 GT ISZERO PUSH2 0xECC JUMPI PUSH1 0x40 MLOAD PUSH32 0x8C379A000000000000000000000000000000000000000000000000000000000 DUP2 MSTORE PUSH1 0x4 ADD PUSH2 0xEC3 SWAP1 PUSH2 0x2126 JUMP JUMPDEST PUSH1 0x40 MLOAD DUP1 SWAP2 SUB SWAP1 REVERT JUMPDEST DUP1 PUSH1 0x2 PUSH0 DUP3 DUP3 SLOAD PUSH2 0xEDD SWAP2 SWAP1 PUSH2 0x1E10 JUMP JUMPDEST SWAP3 POP POP DUP2 SWAP1 SSTORE POP DUP1 PUSH1 0xA PUSH0 CALLER PUSH20 0xFFFFFFFFFFFFFFFFFFFFFFFFFFFFFFFFFFFFFFFF AND PUSH20 0xFFFFFFFFFFFFFFFFFFFFFFFFFFFFFFFFFFFFFFFF AND DUP2 MSTORE PUSH1 0x20 ADD SWAP1 DUP2 MSTORE PUSH1 0x20 ADD PUSH0 KECCAK256 PUSH0 DUP3 DUP3 SLOAD PUSH2 0xF30 SWAP2 SWAP1 PUSH2 0x1E10 JUMP JUMPDEST SWAP3 POP POP DUP2 SWAP1 SSTORE POP DUP1 PUSH1 0xD PUSH0 CALLER PUSH20 0xFFFFFFFFFFFFFFFFFFFFFFFFFFFFFFFFFFFFFFFF AND PUSH20 0xFFFFFFFFFFFFFFFFFFFFFFFFFFFFFFFFFFFFFFFF AND DUP2 MSTORE PUSH1 0x20 ADD SWAP1 DUP2 MSTORE PUSH1 0x20 ADD PUSH0 KECCAK256 PUSH0 DUP3 DUP3 SLOAD PUSH2 0xF83 SWAP2 SWAP1 PUSH2 0x20A9 JUMP JUMPDEST SWAP3 POP POP DUP2 SWAP1 SSTORE POP PUSH1 0x4B PUSH1 0x3 DUP2 SWAP1 SSTORE POP PUSH1 0xD PUSH0 CALLER PUSH20 0xFFFFFFFFFFFFFFFFFFFFFFFFFFFFFFFFFFFFFFFF AND PUSH20 0xFFFFFFFFFFFFFFFFFFFFFFFFFFFFFFFFFFFFFFFF AND DUP2 MSTORE PUSH1 0x20 ADD SWAP1 DUP2 MSTORE PUSH1 0x20 ADD PUSH0 KECCAK256 SLOAD PUSH1 0x3 SLOAD PUSH1 0xA PUSH0 CALLER PUSH20 0xFFFFFFFFFFFFFFFFFFFFFFFFFFFFFFFFFFFFFFFF AND PUSH20 0xFFFFFFFFFFFFFFFFFFFFFFFFFFFFFFFFFFFFFFFF AND DUP2 MSTORE PUSH1 0x20 ADD SWAP1 DUP2 MSTORE PUSH1 0x20 ADD PUSH0 KECCAK256 SLOAD PUSH2 0x101B SWAP2 SWAP1 PUSH2 0x1EA0 JUMP JUMPDEST PUSH2 0x1025 SWAP2 SWAP1 PUSH2 0x1E70 JUMP JUMPDEST PUSH1 0x4 DUP2 SWAP1 SSTORE POP PUSH1 0x64 PUSH1 0x4 SLOAD LT ISZERO PUSH2 0x1071 JUMPI PUSH1 0x40 MLOAD PUSH32 0x8C379A000000000000000000000000000000000000000000000000000000000 DUP2 MSTORE PUSH1 0x4 ADD PUSH2 0x1068 SWAP1 PUSH2 0x218E JUMP JUMPDEST PUSH1 0x40 MLOAD DUP1 SWAP2 SUB SWAP1 REVERT JUMPDEST CALLER PUSH20 0xFFFFFFFFFFFFFFFFFFFFFFFFFFFFFFFFFFFFFFFF AND PUSH2 0x8FC DUP3 SWAP1 DUP2 ISZERO MUL SWAP1 PUSH1 0x40 MLOAD PUSH0 PUSH1 0x40 MLOAD DUP1 DUP4 SUB DUP2 DUP6 DUP9 DUP9 CALL SWAP4 POP POP POP POP ISZERO DUP1 ISZERO PUSH2 0x10B4 JUMPI RETURNDATASIZE PUSH0 DUP1 RETURNDATACOPY RETURNDATASIZE PUSH0 REVERT JUMPDEST POP TIMESTAMP PUSH1 0x7 DUP2 SWAP1 SSTORE POP CALLER PUSH20 0xFFFFFFFFFFFFFFFFFFFFFFFFFFFFFFFFFFFFFFFF AND PUSH32 0xCBC04ECA7E9DA35CB1393A6135A199CA52E450D5E9251CBD99F7847D33A36750 DUP4 PUSH1 0x40 MLOAD PUSH2 0x1102 SWAP2 SWAP1 PUSH2 0x1A88 JUMP JUMPDEST PUSH1 0x40 MLOAD DUP1 SWAP2 SUB SWAP1 LOG2 POP POP JUMP JUMPDEST PUSH1 0x2 SLOAD DUP2 JUMP JUMPDEST PUSH1 0x6 SLOAD DUP2 JUMP JUMPDEST PUSH0 DUP1 SLOAD SWAP1 PUSH2 0x100 EXP SWAP1 DIV PUSH20 0xFFFFFFFFFFFFFFFFFFFFFFFFFFFFFFFFFFFFFFFF AND PUSH20 0xFFFFFFFFFFFFFFFFFFFFFFFFFFFFFFFFFFFFFFFF AND CALLER PUSH20 0xFFFFFFFFFFFFFFFFFFFFFFFFFFFFFFFFFFFFFFFF AND EQ PUSH2 0x11A7 JUMPI PUSH1 0x40 MLOAD PUSH32 0x8C379A000000000000000000000000000000000000000000000000000000000 DUP2 MSTORE PUSH1 0x4 ADD PUSH2 0x119E SWAP1 PUSH2 0x21F6 JUMP JUMPDEST PUSH1 0x40 MLOAD DUP1 SWAP2 SUB SWAP1 REVERT JUMPDEST PUSH0 PUSH1 0x1 PUSH1 0x9 PUSH0 CALLER PUSH20 0xFFFFFFFFFFFFFFFFFFFFFFFFFFFFFFFFFFFFFFFF AND PUSH20 0xFFFFFFFFFFFFFFFFFFFFFFFFFFFFFFFFFFFFFFFF AND DUP2 MSTORE PUSH1 0x20 ADD SWAP1 DUP2 MSTORE PUSH1 0x20 ADD PUSH0 KECCAK256 DUP1 SLOAD SWAP1 POP PUSH2 0x11F5 SWAP2 SWAP1 PUSH2 0x1E10 JUMP JUMPDEST SWAP1 POP DUP2 PUSH1 0x9 PUSH0 CALLER PUSH20 0xFFFFFFFFFFFFFFFFFFFFFFFFFFFFFFFFFFFFFFFF AND PUSH20 0xFFFFFFFFFFFFFFFFFFFFFFFFFFFFFFFFFFFFFFFF AND DUP2 MSTORE PUSH1 0x20 ADD SWAP1 DUP2 MSTORE PUSH1 0x20 ADD PUSH0 KECCAK256 DUP3 DUP2 SLOAD DUP2 LT PUSH2 0x1247 JUMPI PUSH2 0x1246 PUSH2 0x1D4E JUMP JUMPDEST JUMPDEST SWAP1 PUSH0 MSTORE PUSH1 0x20 PUSH0 KECCAK256 SWAP1 PUSH1 0x4 MUL ADD PUSH1 0x1 ADD PUSH0 DUP3 DUP3 SLOAD PUSH2 0x1264 SWAP2 SWAP1 PUSH2 0x20A9 JUMP JUMPDEST SWAP3 POP POP DUP2 SWAP1 SSTORE POP POP POP JUMP JUMPDEST PUSH0 PUSH1 0x1 SLOAD SWAP1 POP SWAP1 JUMP JUMPDEST PUSH1 0xA PUSH1 0x20 MSTORE DUP1 PUSH0 MSTORE PUSH1 0x40 PUSH0 KECCAK256 PUSH0 SWAP2 POP SWAP1 POP SLOAD DUP2 JUMP JUMPDEST PUSH0 PUSH1 0xA PUSH0 DUP4 PUSH20 0xFFFFFFFFFFFFFFFFFFFFFFFFFFFFFFFFFFFFFFFF AND PUSH20 0xFFFFFFFFFFFFFFFFFFFFFFFFFFFFFFFFFFFFFFFF AND DUP2 MSTORE PUSH1 0x20 ADD SWAP1 DUP2 MSTORE PUSH1 0x20 ADD PUSH0 KECCAK256 SLOAD SWAP1 POP SWAP2 SWAP1 POP JUMP JUMPDEST PUSH1 0xD PUSH1 0x20 MSTORE DUP1 PUSH0 MSTORE PUSH1 0x40 PUSH0 KECCAK256 PUSH0 SWAP2 POP SWAP1 POP SLOAD DUP2 JUMP JUMPDEST PUSH1 0x9 PUSH0 CALLER PUSH20 0xFFFFFFFFFFFFFFFFFFFFFFFFFFFFFFFFFFFFFFFF AND PUSH20 0xFFFFFFFFFFFFFFFFFFFFFFFFFFFFFFFFFFFFFFFF AND DUP2 MSTORE PUSH1 0x20 ADD SWAP1 DUP2 MSTORE PUSH1 0x20 ADD PUSH0 KECCAK256 DUP1 SLOAD SWAP1 POP DUP2 LT PUSH2 0x136A JUMPI PUSH1 0x40 MLOAD PUSH32 0x8C379A000000000000000000000000000000000000000000000000000000000 DUP2 MSTORE PUSH1 0x4 ADD PUSH2 0x1361 SWAP1 PUSH2 0x1FFD JUMP JUMPDEST PUSH1 0x40 MLOAD DUP1 SWAP2 SUB SWAP1 REVERT JUMPDEST PUSH0 PUSH1 0x9 PUSH0 CALLER PUSH20 0xFFFFFFFFFFFFFFFFFFFFFFFFFFFFFFFFFFFFFFFF AND PUSH20 0xFFFFFFFFFFFFFFFFFFFFFFFFFFFFFFFFFFFFFFFF AND DUP2 MSTORE PUSH1 0x20 ADD SWAP1 DUP2 MSTORE PUSH1 0x20 ADD PUSH0 KECCAK256 DUP3 DUP2 SLOAD DUP2 LT PUSH2 0x13BA JUMPI PUSH2 0x13B9 PUSH2 0x1D4E JUMP JUMPDEST JUMPDEST SWAP1 PUSH0 MSTORE PUSH1 0x20 PUSH0 KECCAK256 SWAP1 PUSH1 0x4 MUL ADD SWAP1 POP PUSH1 0x1 ISZERO ISZERO DUP2 PUSH1 0x2 ADD PUSH0 SWAP1 SLOAD SWAP1 PUSH2 0x100 EXP SWAP1 DIV PUSH1 0xFF AND ISZERO ISZERO EQ PUSH2 0x141F JUMPI PUSH1 0x40 MLOAD PUSH32 0x8C379A000000000000000000000000000000000000000000000000000000000 DUP2 MSTORE PUSH1 0x4 ADD PUSH2 0x1416 SWAP1 PUSH2 0x2284 JUMP JUMPDEST PUSH1 0x40 MLOAD DUP1 SWAP2 SUB SWAP1 REVERT JUMPDEST PUSH0 DUP2 PUSH1 0x2 ADD PUSH0 PUSH2 0x100 EXP DUP2 SLOAD DUP2 PUSH1 0xFF MUL NOT AND SWAP1 DUP4 ISZERO ISZERO MUL OR SWAP1 SSTORE POP PUSH0 ISZERO ISZERO DUP2 PUSH1 0x2 ADD PUSH0 SWAP1 SLOAD SWAP1 PUSH2 0x100 EXP SWAP1 DIV PUSH1 0xFF AND ISZERO ISZERO SUB PUSH2 0x14C7 JUMPI DUP1 PUSH0 ADD SLOAD PUSH1 0xA PUSH0 CALLER PUSH20 0xFFFFFFFFFFFFFFFFFFFFFFFFFFFFFFFFFFFFFFFF AND PUSH20 0xFFFFFFFFFFFFFFFFFFFFFFFFFFFFFFFFFFFFFFFF AND DUP2 MSTORE PUSH1 0x20 ADD SWAP1 DUP2 MSTORE PUSH1 0x20 ADD PUSH0 KECCAK256 PUSH0 DUP3 DUP3 SLOAD PUSH2 0x14A4 SWAP2 SWAP1 PUSH2 0x1E10 JUMP JUMPDEST SWAP3 POP POP DUP2 SWAP1 SSTORE POP DUP1 PUSH0 ADD SLOAD PUSH1 0x2 PUSH0 DUP3 DUP3 SLOAD PUSH2 0x14BF SWAP2 SWAP1 PUSH2 0x1E10 JUMP JUMPDEST SWAP3 POP POP DUP2 SWAP1 SSTORE POP JUMPDEST POP POP JUMP JUMPDEST PUSH7 0x11C37937E08000 CALLVALUE LT ISZERO PUSH2 0x1515 JUMPI PUSH1 0x40 MLOAD PUSH32 0x8C379A000000000000000000000000000000000000000000000000000000000 DUP2 MSTORE PUSH1 0x4 ADD PUSH2 0x150C SWAP1 PUSH2 0x2312 JUMP JUMPDEST PUSH1 0x40 MLOAD DUP1 SWAP2 SUB SWAP1 REVERT JUMPDEST PUSH0 PUSH1 0x40 MLOAD DUP1 PUSH1 0xA0 ADD PUSH1 0x40 MSTORE DUP1 CALLVALUE DUP2 MSTORE PUSH1 0x20 ADD PUSH1 0x1 TIMESTAMP PUSH2 0x1534 SWAP2 SWAP1 PUSH2 0x20A9 JUMP JUMPDEST DUP2 MSTORE PUSH1 0x20 ADD PUSH1 0x1 ISZERO ISZERO DUP2 MSTORE PUSH1 0x20 ADD PUSH1 0x1 ISZERO ISZERO DUP2 MSTORE PUSH1 0x20 ADD TIMESTAMP DUP2 MSTORE POP SWAP1 POP PUSH1 0x9 PUSH0 CALLER PUSH20 0xFFFFFFFFFFFFFFFFFFFFFFFFFFFFFFFFFFFFFFFF AND PUSH20 0xFFFFFFFFFFFFFFFFFFFFFFFFFFFFFFFFFFFFFFFF AND DUP2 MSTORE PUSH1 0x20 ADD SWAP1 DUP2 MSTORE PUSH1 0x20 ADD PUSH0 KECCAK256 DUP2 SWAP1 DUP1 PUSH1 0x1 DUP2 SLOAD ADD DUP1 DUP3 SSTORE DUP1 SWAP2 POP POP PUSH1 0x1 SWAP1 SUB SWAP1 PUSH0 MSTORE PUSH1 0x20 PUSH0 KECCAK256 SWAP1 PUSH1 0x4 MUL ADD PUSH0 SWAP1 SWAP2 SWAP1 SWAP2 SWAP1 SWAP2 POP PUSH0 DUP3 ADD MLOAD DUP2 PUSH0 ADD SSTORE PUSH1 0x20 DUP3 ADD MLOAD DUP2 PUSH1 0x1 ADD SSTORE PUSH1 0x40 DUP3 ADD MLOAD DUP2 PUSH1 0x2 ADD PUSH0 PUSH2 0x100 EXP DUP2 SLOAD DUP2 PUSH1 0xFF MUL NOT AND SWAP1 DUP4 ISZERO ISZERO MUL OR SWAP1 SSTORE POP PUSH1 0x60 DUP3 ADD MLOAD DUP2 PUSH1 0x2 ADD PUSH1 0x1 PUSH2 0x100 EXP DUP2 SLOAD DUP2 PUSH1 0xFF MUL NOT AND SWAP1 DUP4 ISZERO ISZERO MUL OR SWAP1 SSTORE POP PUSH1 0x80 DUP3 ADD MLOAD DUP2 PUSH1 0x3 ADD SSTORE POP POP CALLVALUE PUSH1 0x1 PUSH0 DUP3 DUP3 SLOAD PUSH2 0x1623 SWAP2 SWAP1 PUSH2 0x20A9 JUMP JUMPDEST SWAP3 POP POP DUP2 SWAP1 SSTORE POP CALLVALUE PUSH1 0x2 PUSH0 DUP3 DUP3 SLOAD PUSH2 0x163B SWAP2 SWAP1 PUSH2 0x20A9 JUMP JUMPDEST SWAP3 POP POP DUP2 SWAP1 SSTORE POP CALLVALUE PUSH1 0xA PUSH0 CALLER PUSH20 0xFFFFFFFFFFFFFFFFFFFFFFFFFFFFFFFFFFFFFFFF AND PUSH20 0xFFFFFFFFFFFFFFFFFFFFFFFFFFFFFFFFFFFFFFFF AND DUP2 MSTORE PUSH1 0x20 ADD SWAP1 DUP2 MSTORE PUSH1 0x20 ADD PUSH0 KECCAK256 PUSH0 DUP3 DUP3 SLOAD PUSH2 0x168E SWAP2 SWAP1 PUSH2 0x20A9 JUMP JUMPDEST SWAP3 POP POP DUP2 SWAP1 SSTORE POP POP JUMP JUMPDEST PUSH0 PUSH1 0xD PUSH0 DUP4 PUSH20 0xFFFFFFFFFFFFFFFFFFFFFFFFFFFFFFFFFFFFFFFF AND PUSH20 0xFFFFFFFFFFFFFFFFFFFFFFFFFFFFFFFFFFFFFFFF AND DUP2 MSTORE PUSH1 0x20 ADD SWAP1 DUP2 MSTORE PUSH1 0x20 ADD PUSH0 KECCAK256 SLOAD SWAP1 POP SWAP2 SWAP1 POP JUMP JUMPDEST PUSH1 0x60 PUSH1 0x9 PUSH0 DUP4 PUSH20 0xFFFFFFFFFFFFFFFFFFFFFFFFFFFFFFFFFFFFFFFF AND PUSH20 0xFFFFFFFFFFFFFFFFFFFFFFFFFFFFFFFFFFFFFFFF AND DUP2 MSTORE PUSH1 0x20 ADD SWAP1 DUP2 MSTORE PUSH1 0x20 ADD PUSH0 KECCAK256 DUP1 SLOAD DUP1 PUSH1 0x20 MUL PUSH1 0x20 ADD PUSH1 0x40 MLOAD SWAP1 DUP2 ADD PUSH1 0x40 MSTORE DUP1 SWAP3 SWAP2 SWAP1 DUP2 DUP2 MSTORE PUSH1 0x20 ADD PUSH0 SWAP1 JUMPDEST DUP3 DUP3 LT ISZERO PUSH2 0x17BE JUMPI DUP4 DUP3 SWAP1 PUSH0 MSTORE PUSH1 0x20 PUSH0 KECCAK256 SWAP1 PUSH1 0x4 MUL ADD PUSH1 0x40 MLOAD DUP1 PUSH1 0xA0 ADD PUSH1 0x40 MSTORE SWAP1 DUP2 PUSH0 DUP3 ADD SLOAD DUP2 MSTORE PUSH1 0x20 ADD PUSH1 0x1 DUP3 ADD SLOAD DUP2 MSTORE PUSH1 0x20 ADD PUSH1 0x2 DUP3 ADD PUSH0 SWAP1 SLOAD SWAP1 PUSH2 0x100 EXP SWAP1 DIV PUSH1 0xFF AND ISZERO ISZERO ISZERO ISZERO DUP2 MSTORE PUSH1 0x20 ADD PUSH1 0x2 DUP3 ADD PUSH1 0x1 SWAP1 SLOAD SWAP1 PUSH2 0x100 EXP SWAP1 DIV PUSH1 0xFF AND ISZERO ISZERO ISZERO ISZERO DUP2 MSTORE PUSH1 0x20 ADD PUSH1 0x3 DUP3 ADD SLOAD DUP2 MSTORE POP POP DUP2 MSTORE PUSH1 0x20 ADD SWAP1 PUSH1 0x1 ADD SWAP1 PUSH2 0x173C JUMP JUMPDEST POP POP POP POP SWAP1 POP SWAP2 SWAP1 POP JUMP JUMPDEST PUSH0 PUSH1 0x5 SLOAD SWAP1 POP SWAP1 JUMP JUMPDEST PUSH0 PUSH1 0xD PUSH0 CALLER PUSH20 0xFFFFFFFFFFFFFFFFFFFFFFFFFFFFFFFFFFFFFFFF AND PUSH20 0xFFFFFFFFFFFFFFFFFFFFFFFFFFFFFFFFFFFFFFFF AND DUP2 MSTORE PUSH1 0x20 ADD SWAP1 DUP2 MSTORE PUSH1 0x20 ADD PUSH0 KECCAK256 SLOAD CALLVALUE GT ISZERO PUSH2 0x1853 JUMPI PUSH1 0x40 MLOAD PUSH32 0x8C379A000000000000000000000000000000000000000000000000000000000 DUP2 MSTORE PUSH1 0x4 ADD PUSH2 0x184A SWAP1 PUSH2 0x23A0 JUMP JUMPDEST PUSH1 0x40 MLOAD DUP1 SWAP2 SUB SWAP1 REVERT JUMPDEST CALLVALUE PUSH1 0xD PUSH0 CALLER PUSH20 0xFFFFFFFFFFFFFFFFFFFFFFFFFFFFFFFFFFFFFFFF AND PUSH20 0xFFFFFFFFFFFFFFFFFFFFFFFFFFFFFFFFFFFFFFFF AND DUP2 MSTORE PUSH1 0x20 ADD SWAP1 DUP2 MSTORE PUSH1 0x20 ADD PUSH0 KECCAK256 PUSH0 DUP3 DUP3 SLOAD PUSH2 0x189F SWAP2 SWAP1 PUSH2 0x1E10 JUMP JUMPDEST SWAP3 POP POP DUP2 SWAP1 SSTORE POP CALLVALUE PUSH1 0x2 PUSH0 DUP3 DUP3 SLOAD PUSH2 0x18B7 SWAP2 SWAP1 PUSH2 0x20A9 JUMP JUMPDEST SWAP3 POP POP DUP2 SWAP1 SSTORE POP CALLVALUE PUSH1 0xA PUSH0 CALLER PUSH20 0xFFFFFFFFFFFFFFFFFFFFFFFFFFFFFFFFFFFFFFFF AND PUSH20 0xFFFFFFFFFFFFFFFFFFFFFFFFFFFFFFFFFFFFFFFF AND DUP2 MSTORE PUSH1 0x20 ADD SWAP1 DUP2 MSTORE PUSH1 0x20 ADD PUSH0 KECCAK256 PUSH0 DUP3 DUP3 SLOAD PUSH2 0x190A SWAP2 SWAP1 PUSH2 0x20A9 JUMP JUMPDEST SWAP3 POP POP DUP2 SWAP1 SSTORE POP PUSH0 PUSH1 0x8 SWAP1 POP TIMESTAMP PUSH1 0x8 DUP2 SWAP1 SSTORE POP PUSH0 PUSH1 0x7 SLOAD PUSH1 0x8 SLOAD PUSH2 0x192E SWAP2 SWAP1 PUSH2 0x1E10 JUMP JUMPDEST SWAP1 POP PUSH0 PUSH5 0x2540BE400 PUSH4 0x1E13380 DUP5 PUSH2 0x1947 SWAP2 SWAP1 PUSH2 0x1E70 JUMP JUMPDEST PUSH2 0x1951 SWAP2 SWAP1 PUSH2 0x1EA0 JUMP JUMPDEST SWAP1 POP DUP1 DUP3 CALLVALUE PUSH2 0x1960 SWAP2 SWAP1 PUSH2 0x1EA0 JUMP JUMPDEST PUSH2 0x196A SWAP2 SWAP1 PUSH2 0x1EA0 JUMP JUMPDEST PUSH1 0x5 DUP2 SWAP1 SSTORE POP PUSH1 0x4B PUSH1 0x3 DUP2 SWAP1 SSTORE POP PUSH1 0xD PUSH0 CALLER PUSH20 0xFFFFFFFFFFFFFFFFFFFFFFFFFFFFFFFFFFFFFFFF AND PUSH20 0xFFFFFFFFFFFFFFFFFFFFFFFFFFFFFFFFFFFFFFFF AND DUP2 MSTORE PUSH1 0x20 ADD SWAP1 DUP2 MSTORE PUSH1 0x20 ADD PUSH0 KECCAK256 SLOAD PUSH1 0x3 SLOAD PUSH1 0xA PUSH0 CALLER PUSH20 0xFFFFFFFFFFFFFFFFFFFFFFFFFFFFFFFFFFFFFFFF AND PUSH20 0xFFFFFFFFFFFFFFFFFFFFFFFFFFFFFFFFFFFFFFFF AND DUP2 MSTORE PUSH1 0x20 ADD SWAP1 DUP2 MSTORE PUSH1 0x20 ADD PUSH0 KECCAK256 SLOAD PUSH2 0x1A01 SWAP2 SWAP1 PUSH2 0x1EA0 JUMP JUMPDEST PUSH2 0x1A0B SWAP2 SWAP1 PUSH2 0x1E70 JUMP JUMPDEST PUSH1 0x4 DUP2 SWAP1 SSTORE POP CALLER PUSH20 0xFFFFFFFFFFFFFFFFFFFFFFFFFFFFFFFFFFFFFFFF AND PUSH32 0x6F8286E47ACE49394F4A28298C2BA2C5DF760A3872931A94E60AB7FE82B809CD CALLVALUE PUSH1 0x40 MLOAD PUSH2 0x1A57 SWAP2 SWAP1 PUSH2 0x1A88 JUMP JUMPDEST PUSH1 0x40 MLOAD DUP1 SWAP2 SUB SWAP1 LOG2 PUSH1 0x5 SLOAD SWAP4 POP POP POP POP SWAP1 JUMP JUMPDEST PUSH1 0x5 SLOAD DUP2 JUMP JUMPDEST PUSH0 DUP2 SWAP1 POP SWAP2 SWAP1 POP JUMP JUMPDEST PUSH2 0x1A82 DUP2 PUSH2 0x1A70 JUMP JUMPDEST DUP3 MSTORE POP POP JUMP JUMPDEST PUSH0 PUSH1 0x20 DUP3 ADD SWAP1 POP PUSH2 0x1A9B PUSH0 DUP4 ADD DUP5 PUSH2 0x1A79 JUMP JUMPDEST SWAP3 SWAP2 POP POP JUMP JUMPDEST PUSH0 DUP1 REVERT JUMPDEST PUSH2 0x1AAE DUP2 PUSH2 0x1A70 JUMP JUMPDEST DUP2 EQ PUSH2 0x1AB8 JUMPI PUSH0 DUP1 REVERT JUMPDEST POP JUMP JUMPDEST PUSH0 DUP2 CALLDATALOAD SWAP1 POP PUSH2 0x1AC9 DUP2 PUSH2 0x1AA5 JUMP JUMPDEST SWAP3 SWAP2 POP POP JUMP JUMPDEST PUSH0 PUSH1 0x20 DUP3 DUP5 SUB SLT ISZERO PUSH2 0x1AE4 JUMPI PUSH2 0x1AE3 PUSH2 0x1AA1 JUMP JUMPDEST JUMPDEST PUSH0 PUSH2 0x1AF1 DUP5 DUP3 DUP6 ADD PUSH2 0x1ABB JUMP JUMPDEST SWAP2 POP POP SWAP3 SWAP2 POP POP JUMP JUMPDEST PUSH0 PUSH20 0xFFFFFFFFFFFFFFFFFFFFFFFFFFFFFFFFFFFFFFFF DUP3 AND SWAP1 POP SWAP2 SWAP1 POP JUMP JUMPDEST PUSH0 PUSH2 0x1B23 DUP3 PUSH2 0x1AFA JUMP JUMPDEST SWAP1 POP SWAP2 SWAP1 POP JUMP JUMPDEST PUSH2 0x1B33 DUP2 PUSH2 0x1B19 JUMP JUMPDEST DUP2 EQ PUSH2 0x1B3D JUMPI PUSH0 DUP1 REVERT JUMPDEST POP JUMP JUMPDEST PUSH0 DUP2 CALLDATALOAD SWAP1 POP PUSH2 0x1B4E DUP2 PUSH2 0x1B2A JUMP JUMPDEST SWAP3 SWAP2 POP POP JUMP JUMPDEST PUSH0 PUSH1 0x20 DUP3 DUP5 SUB SLT ISZERO PUSH2 0x1B69 JUMPI PUSH2 0x1B68 PUSH2 0x1AA1 JUMP JUMPDEST JUMPDEST PUSH0 PUSH2 0x1B76 DUP5 DUP3 DUP6 ADD PUSH2 0x1B40 JUMP JUMPDEST SWAP2 POP POP SWAP3 SWAP2 POP POP JUMP JUMPDEST PUSH0 DUP2 MLOAD SWAP1 POP SWAP2 SWAP1 POP JUMP JUMPDEST PUSH0 DUP3 DUP3 MSTORE PUSH1 0x20 DUP3 ADD SWAP1 POP SWAP3 SWAP2 POP POP JUMP JUMPDEST PUSH0 DUP2 SWAP1 POP PUSH1 0x20 DUP3 ADD SWAP1 POP SWAP2 SWAP1 POP JUMP JUMPDEST PUSH2 0x1BB1 DUP2 PUSH2 0x1A70 JUMP JUMPDEST DUP3 MSTORE POP POP JUMP JUMPDEST PUSH0 DUP2 ISZERO ISZERO SWAP1 POP SWAP2 SWAP1 POP JUMP JUMPDEST PUSH2 0x1BCB DUP2 PUSH2 0x1BB7 JUMP JUMPDEST DUP3 MSTORE POP POP JUMP JUMPDEST PUSH1 0xA0 DUP3 ADD PUSH0 DUP3 ADD MLOAD PUSH2 0x1BE5 PUSH0 DUP6 ADD DUP3 PUSH2 0x1BA8 JUMP JUMPDEST POP PUSH1 0x20 DUP3 ADD MLOAD PUSH2 0x1BF8 PUSH1 0x20 DUP6 ADD DUP3 PUSH2 0x1BA8 JUMP JUMPDEST POP PUSH1 0x40 DUP3 ADD MLOAD PUSH2 0x1C0B PUSH1 0x40 DUP6 ADD DUP3 PUSH2 0x1BC2 JUMP JUMPDEST POP PUSH1 0x60 DUP3 ADD MLOAD PUSH2 0x1C1E PUSH1 0x60 DUP6 ADD DUP3 PUSH2 0x1BC2 JUMP JUMPDEST POP PUSH1 0x80 DUP3 ADD MLOAD PUSH2 0x1C31 PUSH1 0x80 DUP6 ADD DUP3 PUSH2 0x1BA8 JUMP JUMPDEST POP POP POP POP JUMP JUMPDEST PUSH0 PUSH2 0x1C42 DUP4 DUP4 PUSH2 0x1BD1 JUMP JUMPDEST PUSH1 0xA0 DUP4 ADD SWAP1 POP SWAP3 SWAP2 POP POP JUMP JUMPDEST PUSH0 PUSH1 0x20 DUP3 ADD SWAP1 POP SWAP2 SWAP1 POP JUMP JUMPDEST PUSH0 PUSH2 0x1C64 DUP3 PUSH2 0x1B7F JUMP JUMPDEST PUSH2 0x1C6E DUP2 DUP6 PUSH2 0x1B89 JUMP JUMPDEST SWAP4 POP PUSH2 0x1C79 DUP4 PUSH2 0x1B99 JUMP JUMPDEST DUP1 PUSH0 JUMPDEST DUP4 DUP2 LT ISZERO PUSH2 0x1CA9 JUMPI DUP2 MLOAD PUSH2 0x1C90 DUP9 DUP3 PUSH2 0x1C37 JUMP JUMPDEST SWAP8 POP PUSH2 0x1C9B DUP4 PUSH2 0x1C4E JUMP JUMPDEST SWAP3 POP POP PUSH1 0x1 DUP2 ADD SWAP1 POP PUSH2 0x1C7C JUMP JUMPDEST POP DUP6 SWAP4 POP POP POP POP SWAP3 SWAP2 POP POP JUMP JUMPDEST PUSH0 PUSH1 0x20 DUP3 ADD SWAP1 POP DUP2 DUP2 SUB PUSH0 DUP4 ADD MSTORE PUSH2 0x1CCE DUP2 DUP5 PUSH2 0x1C5A JUMP JUMPDEST SWAP1 POP SWAP3 SWAP2 POP POP JUMP JUMPDEST PUSH0 DUP3 DUP3 MSTORE PUSH1 0x20 DUP3 ADD SWAP1 POP SWAP3 SWAP2 POP POP JUMP JUMPDEST PUSH32 0x496E76616C696420696E64657800000000000000000000000000000000000000 PUSH0 DUP3 ADD MSTORE POP JUMP JUMPDEST PUSH0 PUSH2 0x1D1A PUSH1 0xD DUP4 PUSH2 0x1CD6 JUMP JUMPDEST SWAP2 POP PUSH2 0x1D25 DUP3 PUSH2 0x1CE6 JUMP JUMPDEST PUSH1 0x20 DUP3 ADD SWAP1 POP SWAP2 SWAP1 POP JUMP JUMPDEST PUSH0 PUSH1 0x20 DUP3 ADD SWAP1 POP DUP2 DUP2 SUB PUSH0 DUP4 ADD MSTORE PUSH2 0x1D47 DUP2 PUSH2 0x1D0E JUMP JUMPDEST SWAP1 POP SWAP2 SWAP1 POP JUMP JUMPDEST PUSH32 0x4E487B7100000000000000000000000000000000000000000000000000000000 PUSH0 MSTORE PUSH1 0x32 PUSH1 0x4 MSTORE PUSH1 0x24 PUSH0 REVERT JUMPDEST PUSH32 0x4C6F636B2074696D6520686173206E6F74206578706972656400000000000000 PUSH0 DUP3 ADD MSTORE POP JUMP JUMPDEST PUSH0 PUSH2 0x1DAF PUSH1 0x19 DUP4 PUSH2 0x1CD6 JUMP JUMPDEST SWAP2 POP PUSH2 0x1DBA DUP3 PUSH2 0x1D7B JUMP JUMPDEST PUSH1 0x20 DUP3 ADD SWAP1 POP SWAP2 SWAP1 POP JUMP JUMPDEST PUSH0 PUSH1 0x20 DUP3 ADD SWAP1 POP DUP2 DUP2 SUB PUSH0 DUP4 ADD MSTORE PUSH2 0x1DDC DUP2 PUSH2 0x1DA3 JUMP JUMPDEST SWAP1 POP SWAP2 SWAP1 POP JUMP JUMPDEST PUSH32 0x4E487B7100000000000000000000000000000000000000000000000000000000 PUSH0 MSTORE PUSH1 0x11 PUSH1 0x4 MSTORE PUSH1 0x24 PUSH0 REVERT JUMPDEST PUSH0 PUSH2 0x1E1A DUP3 PUSH2 0x1A70 JUMP JUMPDEST SWAP2 POP PUSH2 0x1E25 DUP4 PUSH2 0x1A70 JUMP JUMPDEST SWAP3 POP DUP3 DUP3 SUB SWAP1 POP DUP2 DUP2 GT ISZERO PUSH2 0x1E3D JUMPI PUSH2 0x1E3C PUSH2 0x1DE3 JUMP JUMPDEST JUMPDEST SWAP3 SWAP2 POP POP JUMP JUMPDEST PUSH32 0x4E487B7100000000000000000000000000000000000000000000000000000000 PUSH0 MSTORE PUSH1 0x12 PUSH1 0x4 MSTORE PUSH1 0x24 PUSH0 REVERT JUMPDEST PUSH0 PUSH2 0x1E7A DUP3 PUSH2 0x1A70 JUMP JUMPDEST SWAP2 POP PUSH2 0x1E85 DUP4 PUSH2 0x1A70 JUMP JUMPDEST SWAP3 POP DUP3 PUSH2 0x1E95 JUMPI PUSH2 0x1E94 PUSH2 0x1E43 JUMP JUMPDEST JUMPDEST DUP3 DUP3 DIV SWAP1 POP SWAP3 SWAP2 POP POP JUMP JUMPDEST PUSH0 PUSH2 0x1EAA DUP3 PUSH2 0x1A70 JUMP JUMPDEST SWAP2 POP PUSH2 0x1EB5 DUP4 PUSH2 0x1A70 JUMP JUMPDEST SWAP3 POP DUP3 DUP3 MUL PUSH2 0x1EC3 DUP2 PUSH2 0x1A70 JUMP JUMPDEST SWAP2 POP DUP3 DUP3 DIV DUP5 EQ DUP4 ISZERO OR PUSH2 0x1EDA JUMPI PUSH2 0x1ED9 PUSH2 0x1DE3 JUMP JUMPDEST JUMPDEST POP SWAP3 SWAP2 POP POP JUMP JUMPDEST PUSH32 0x596F7520616C72656164792077697468647261776E2074686973207472616E73 PUSH0 DUP3 ADD MSTORE PUSH32 0x616374696F6E0000000000000000000000000000000000000000000000000000 PUSH1 0x20 DUP3 ADD MSTORE POP JUMP JUMPDEST PUSH0 PUSH2 0x1F3B PUSH1 0x26 DUP4 PUSH2 0x1CD6 JUMP JUMPDEST SWAP2 POP PUSH2 0x1F46 DUP3 PUSH2 0x1EE1 JUMP JUMPDEST PUSH1 0x40 DUP3 ADD SWAP1 POP SWAP2 SWAP1 POP JUMP JUMPDEST PUSH0 PUSH1 0x20 DUP3 ADD SWAP1 POP DUP2 DUP2 SUB PUSH0 DUP4 ADD MSTORE PUSH2 0x1F68 DUP2 PUSH2 0x1F2F JUMP JUMPDEST SWAP1 POP SWAP2 SWAP1 POP JUMP JUMPDEST PUSH2 0x1F78 DUP2 PUSH2 0x1B19 JUMP JUMPDEST DUP3 MSTORE POP POP JUMP JUMPDEST PUSH0 PUSH1 0x60 DUP3 ADD SWAP1 POP PUSH2 0x1F91 PUSH0 DUP4 ADD DUP7 PUSH2 0x1F6F JUMP JUMPDEST PUSH2 0x1F9E PUSH1 0x20 DUP4 ADD DUP6 PUSH2 0x1A79 JUMP JUMPDEST PUSH2 0x1FAB PUSH1 0x40 DUP4 ADD DUP5 PUSH2 0x1A79 JUMP JUMPDEST SWAP5 SWAP4 POP POP POP POP JUMP JUMPDEST PUSH32 0x496E646578206E6F7420666F756E640000000000000000000000000000000000 PUSH0 DUP3 ADD MSTORE POP JUMP JUMPDEST PUSH0 PUSH2 0x1FE7 PUSH1 0xF DUP4 PUSH2 0x1CD6 JUMP JUMPDEST SWAP2 POP PUSH2 0x1FF2 DUP3 PUSH2 0x1FB3 JUMP JUMPDEST PUSH1 0x20 DUP3 ADD SWAP1 POP SWAP2 SWAP1 POP JUMP JUMPDEST PUSH0 PUSH1 0x20 DUP3 ADD SWAP1 POP DUP2 DUP2 SUB PUSH0 DUP4 ADD MSTORE PUSH2 0x2014 DUP2 PUSH2 0x1FDB JUMP JUMPDEST SWAP1 POP SWAP2 SWAP1 POP JUMP JUMPDEST PUSH32 0x596F7520616C7265616479207365742074686973207472616E73616374696F6E PUSH0 DUP3 ADD MSTORE PUSH32 0x206173206120636F6C6C61746572616C00000000000000000000000000000000 PUSH1 0x20 DUP3 ADD MSTORE POP JUMP JUMPDEST PUSH0 PUSH2 0x2075 PUSH1 0x30 DUP4 PUSH2 0x1CD6 JUMP JUMPDEST SWAP2 POP PUSH2 0x2080 DUP3 PUSH2 0x201B JUMP JUMPDEST PUSH1 0x40 DUP3 ADD SWAP1 POP SWAP2 SWAP1 POP JUMP JUMPDEST PUSH0 PUSH1 0x20 DUP3 ADD SWAP1 POP DUP2 DUP2 SUB PUSH0 DUP4 ADD MSTORE PUSH2 0x20A2 DUP2 PUSH2 0x2069 JUMP JUMPDEST SWAP1 POP SWAP2 SWAP1 POP JUMP JUMPDEST PUSH0 PUSH2 0x20B3 DUP3 PUSH2 0x1A70 JUMP JUMPDEST SWAP2 POP PUSH2 0x20BE DUP4 PUSH2 0x1A70 JUMP JUMPDEST SWAP3 POP DUP3 DUP3 ADD SWAP1 POP DUP1 DUP3 GT ISZERO PUSH2 0x20D6 JUMPI PUSH2 0x20D5 PUSH2 0x1DE3 JUMP JUMPDEST JUMPDEST SWAP3 SWAP2 POP POP JUMP JUMPDEST PUSH32 0x4C6F616E20616D6F756E74206578636565647320636F6C6C61746572616C0000 PUSH0 DUP3 ADD MSTORE POP JUMP JUMPDEST PUSH0 PUSH2 0x2110 PUSH1 0x1E DUP4 PUSH2 0x1CD6 JUMP JUMPDEST SWAP2 POP PUSH2 0x211B DUP3 PUSH2 0x20DC JUMP JUMPDEST PUSH1 0x20 DUP3 ADD SWAP1 POP SWAP2 SWAP1 POP JUMP JUMPDEST PUSH0 PUSH1 0x20 DUP3 ADD SWAP1 POP DUP2 DUP2 SUB PUSH0 DUP4 ADD MSTORE PUSH2 0x213D DUP2 PUSH2 0x2104 JUMP JUMPDEST SWAP1 POP SWAP2 SWAP1 POP JUMP JUMPDEST PUSH32 0x4865616C746820666163746F72206D7573742062652061626F76652031000000 PUSH0 DUP3 ADD MSTORE POP JUMP JUMPDEST PUSH0 PUSH2 0x2178 PUSH1 0x1D DUP4 PUSH2 0x1CD6 JUMP JUMPDEST SWAP2 POP PUSH2 0x2183 DUP3 PUSH2 0x2144 JUMP JUMPDEST PUSH1 0x20 DUP3 ADD SWAP1 POP SWAP2 SWAP1 POP JUMP JUMPDEST PUSH0 PUSH1 0x20 DUP3 ADD SWAP1 POP DUP2 DUP2 SUB PUSH0 DUP4 ADD MSTORE PUSH2 0x21A5 DUP2 PUSH2 0x216C JUMP JUMPDEST SWAP1 POP SWAP2 SWAP1 POP JUMP JUMPDEST PUSH32 0x596F7520617265206E6F7420746865206F776E65720000000000000000000000 PUSH0 DUP3 ADD MSTORE POP JUMP JUMPDEST PUSH0 PUSH2 0x21E0 PUSH1 0x15 DUP4 PUSH2 0x1CD6 JUMP JUMPDEST SWAP2 POP PUSH2 0x21EB DUP3 PUSH2 0x21AC JUMP JUMPDEST PUSH1 0x20 DUP3 ADD SWAP1 POP SWAP2 SWAP1 POP JUMP JUMPDEST PUSH0 PUSH1 0x20 DUP3 ADD SWAP1 POP DUP2 DUP2 SUB PUSH0 DUP4 ADD MSTORE PUSH2 0x220D DUP2 PUSH2 0x21D4 JUMP JUMPDEST SWAP1 POP SWAP2 SWAP1 POP JUMP JUMPDEST PUSH32 0x596F752068617665206E6F742064657369676E61746564207468697320747261 PUSH0 DUP3 ADD MSTORE PUSH32 0x6E73616374696F6E206173206120636F6C6C61746572616C0000000000000000 PUSH1 0x20 DUP3 ADD MSTORE POP JUMP JUMPDEST PUSH0 PUSH2 0x226E PUSH1 0x38 DUP4 PUSH2 0x1CD6 JUMP JUMPDEST SWAP2 POP PUSH2 0x2279 DUP3 PUSH2 0x2214 JUMP JUMPDEST PUSH1 0x40 DUP3 ADD SWAP1 POP SWAP2 SWAP1 POP JUMP JUMPDEST PUSH0 PUSH1 0x20 DUP3 ADD SWAP1 POP DUP2 DUP2 SUB PUSH0 DUP4 ADD MSTORE PUSH2 0x229B DUP2 PUSH2 0x2262 JUMP JUMPDEST SWAP1 POP SWAP2 SWAP1 POP JUMP JUMPDEST PUSH32 0x4465706F736974206D757374206265206174206C6561737420302E3030352045 PUSH0 DUP3 ADD MSTORE PUSH32 0x7468657200000000000000000000000000000000000000000000000000000000 PUSH1 0x20 DUP3 ADD MSTORE POP JUMP JUMPDEST PUSH0 PUSH2 0x22FC PUSH1 0x24 DUP4 PUSH2 0x1CD6 JUMP JUMPDEST SWAP2 POP PUSH2 0x2307 DUP3 PUSH2 0x22A2 JUMP JUMPDEST PUSH1 0x40 DUP3 ADD SWAP1 POP SWAP2 SWAP1 POP JUMP JUMPDEST PUSH0 PUSH1 0x20 DUP3 ADD SWAP1 POP DUP2 DUP2 SUB PUSH0 DUP4 ADD MSTORE PUSH2 0x2329 DUP2 PUSH2 0x22F0 JUMP JUMPDEST SWAP1 POP SWAP2 SWAP1 POP JUMP JUMPDEST PUSH32 0x52657061796D656E7420616D6F756E742065786365656473206F75747374616E PUSH0 DUP3 ADD MSTORE PUSH32 0x64696E67206C6F616E0000000000000000000000000000000000000000000000 PUSH1 0x20 DUP3 ADD MSTORE POP JUMP JUMPDEST PUSH0 PUSH2 0x238A PUSH1 0x29 DUP4 PUSH2 0x1CD6 JUMP JUMPDEST SWAP2 POP PUSH2 0x2395 DUP3 PUSH2 0x2330 JUMP JUMPDEST PUSH1 0x40 DUP3 ADD SWAP1 POP SWAP2 SWAP1 POP JUMP JUMPDEST PUSH0 PUSH1 0x20 DUP3 ADD SWAP1 POP DUP2 DUP2 SUB PUSH0 DUP4 ADD MSTORE PUSH2 0x23B7 DUP2 PUSH2 0x237E JUMP JUMPDEST SWAP1 POP SWAP2 SWAP1 POP JUMP INVALID LOG2 PUSH5 0x6970667358 0x22 SLT KECCAK256 0xBD CREATE2 MSIZE 0xB5 0xE7 CREATE2 ORIGIN SGT 0xDC 0xCF 0xFC 0xDF 0xB3 PREVRANDAO MOD MSIZE 0xBD PUSH11 0xB3A6058EE86F2D2C5814C1 0xA9 MLOAD PUSH24 0x64736F6C6343000816003300000000000000000000000000 "
				},
				"gasEstimates": {
					"creation": {
						"codeDepositCost": "1840800",
						"executionCost": "48293",
						"totalCost": "1889093"
					},
					"external": {
						"cancelCollateralAmount(uint256)": "infinite",
						"deposit()": "infinite",
						"getAllTransactions(address)": "infinite",
						"getDepositedValue()": "2455",
						"getInterestAmount()": "2520",
						"getLoan(uint256)": "infinite",
						"getUserCollateral(address)": "2896",
						"getUserLoanAmount(address)": "2873",
						"healthFactor()": "2449",
						"increaseLockTime(uint256)": "infinite",
						"interestAmount()": "2557",
						"liquidationThreshold()": "2448",
						"loanTimeStamp()": "2537",
						"repayLoan()": "infinite",
						"repayLoanTimeStamp()": "2493",
						"setCollateralAmount(uint256)": "infinite",
						"totalCollateralAmount()": "2492",
						"userCollateralAmount(address)": "2847",
						"userLoanAmount(address)": "2891",
						"withdraw(uint256)": "infinite",
						"withdrawTimeStamp()": "2514"
					}
				},
				"methodIdentifiers": {
					"cancelCollateralAmount(uint256)": "bf3eb03b",
					"deposit()": "d0e30db0",
					"getAllTransactions(address)": "dab3b7aa",
					"getDepositedValue()": "91f68106",
					"getInterestAmount()": "e2633637",
					"getLoan(uint256)": "504006ca",
					"getUserCollateral(address)": "b6f7132f",
					"getUserLoanAmount(address)": "d7ee24e8",
					"healthFactor()": "22841f01",
					"increaseLockTime(uint256)": "79af55e4",
					"interestAmount()": "fff2df2a",
					"liquidationThreshold()": "4031234c",
					"loanTimeStamp()": "3ed58de0",
					"repayLoan()": "f966ade7",
					"repayLoanTimeStamp()": "366559c5",
					"setCollateralAmount(uint256)": "3d4f04ad",
					"totalCollateralAmount()": "63f31d2c",
					"userCollateralAmount(address)": "b1c43cbe",
					"userLoanAmount(address)": "b98ab070",
					"withdraw(uint256)": "2e1a7d4d",
					"withdrawTimeStamp()": "714fef4c"
				}
			},
			"storageLayout": {
				"storage": [
					{
						"astId": 3,
						"contract": "LendingPool.sol:BankDeposit",
						"label": "ownerBank",
						"offset": 0,
						"slot": "0",
						"type": "t_address"
					},
					{
						"astId": 5,
						"contract": "LendingPool.sol:BankDeposit",
						"label": "totalDepositedAmount",
						"offset": 0,
						"slot": "1",
						"type": "t_uint256"
					},
					{
						"astId": 7,
						"contract": "LendingPool.sol:BankDeposit",
						"label": "totalCollateralAmount",
						"offset": 0,
						"slot": "2",
						"type": "t_uint256"
					},
					{
						"astId": 9,
						"contract": "LendingPool.sol:BankDeposit",
						"label": "liquidationThreshold",
						"offset": 0,
						"slot": "3",
						"type": "t_uint256"
					},
					{
						"astId": 11,
						"contract": "LendingPool.sol:BankDeposit",
						"label": "healthFactor",
						"offset": 0,
						"slot": "4",
						"type": "t_uint256"
					},
					{
						"astId": 13,
						"contract": "LendingPool.sol:BankDeposit",
						"label": "interestAmount",
						"offset": 0,
						"slot": "5",
						"type": "t_uint256"
					},
					{
						"astId": 15,
						"contract": "LendingPool.sol:BankDeposit",
						"label": "withdrawTimeStamp",
						"offset": 0,
						"slot": "6",
						"type": "t_uint256"
					},
					{
						"astId": 17,
						"contract": "LendingPool.sol:BankDeposit",
						"label": "loanTimeStamp",
						"offset": 0,
						"slot": "7",
						"type": "t_uint256"
					},
					{
						"astId": 19,
						"contract": "LendingPool.sol:BankDeposit",
						"label": "repayLoanTimeStamp",
						"offset": 0,
						"slot": "8",
						"type": "t_uint256"
					},
					{
						"astId": 50,
						"contract": "LendingPool.sol:BankDeposit",
						"label": "depositTransactions",
						"offset": 0,
						"slot": "9",
						"type": "t_mapping(t_address,t_array(t_struct(Transaction)44_storage)dyn_storage)"
					},
					{
						"astId": 54,
						"contract": "LendingPool.sol:BankDeposit",
						"label": "userCollateralAmount",
						"offset": 0,
						"slot": "10",
						"type": "t_mapping(t_address,t_uint256)"
					},
					{
						"astId": 58,
						"contract": "LendingPool.sol:BankDeposit",
						"label": "collateralIndexToAddress",
						"offset": 0,
						"slot": "11",
						"type": "t_mapping(t_uint256,t_address)"
					},
					{
						"astId": 60,
						"contract": "LendingPool.sol:BankDeposit",
						"label": "nextCollateralIndex",
						"offset": 0,
						"slot": "12",
						"type": "t_uint256"
					},
					{
						"astId": 64,
						"contract": "LendingPool.sol:BankDeposit",
						"label": "userLoanAmount",
						"offset": 0,
						"slot": "13",
						"type": "t_mapping(t_address,t_uint256)"
					}
				],
				"types": {
					"t_address": {
						"encoding": "inplace",
						"label": "address",
						"numberOfBytes": "20"
					},
					"t_array(t_struct(Transaction)44_storage)dyn_storage": {
						"base": "t_struct(Transaction)44_storage",
						"encoding": "dynamic_array",
						"label": "struct BankDeposit.Transaction[]",
						"numberOfBytes": "32"
					},
					"t_bool": {
						"encoding": "inplace",
						"label": "bool",
						"numberOfBytes": "1"
					},
					"t_mapping(t_address,t_array(t_struct(Transaction)44_storage)dyn_storage)": {
						"encoding": "mapping",
						"key": "t_address",
						"label": "mapping(address => struct BankDeposit.Transaction[])",
						"numberOfBytes": "32",
						"value": "t_array(t_struct(Transaction)44_storage)dyn_storage"
					},
					"t_mapping(t_address,t_uint256)": {
						"encoding": "mapping",
						"key": "t_address",
						"label": "mapping(address => uint256)",
						"numberOfBytes": "32",
						"value": "t_uint256"
					},
					"t_mapping(t_uint256,t_address)": {
						"encoding": "mapping",
						"key": "t_uint256",
						"label": "mapping(uint256 => address)",
						"numberOfBytes": "32",
						"value": "t_address"
					},
					"t_struct(Transaction)44_storage": {
						"encoding": "inplace",
						"label": "struct BankDeposit.Transaction",
						"members": [
							{
								"astId": 35,
								"contract": "LendingPool.sol:BankDeposit",
								"label": "amount",
								"offset": 0,
								"slot": "0",
								"type": "t_uint256"
							},
							{
								"astId": 37,
								"contract": "LendingPool.sol:BankDeposit",
								"label": "lockTime",
								"offset": 0,
								"slot": "1",
								"type": "t_uint256"
							},
							{
								"astId": 39,
								"contract": "LendingPool.sol:BankDeposit",
								"label": "useAsCollateral",
								"offset": 0,
								"slot": "2",
								"type": "t_bool"
							},
							{
								"astId": 41,
								"contract": "LendingPool.sol:BankDeposit",
								"label": "canWithdrawal",
								"offset": 1,
								"slot": "2",
								"type": "t_bool"
							},
							{
								"astId": 43,
								"contract": "LendingPool.sol:BankDeposit",
								"label": "depositTimeStamp",
								"offset": 0,
								"slot": "3",
								"type": "t_uint256"
							}
						],
						"numberOfBytes": "128"
					},
					"t_uint256": {
						"encoding": "inplace",
						"label": "uint256",
						"numberOfBytes": "32"
					}
				}
			},
			"userdoc": {
				"kind": "user",
				"methods": {},
				"version": 1
			}
		}
	}
}