{
	"data": {
		"bytecode": {
			"linkReferences": {},
			"object": "6080604052604b6004557363be8ea7c2966b0d6b74a4773cf532b42ecd405d600b5f6101000a81548173ffffffffffffffffffffffffffffffffffffffff021916908373ffffffffffffffffffffffffffffffffffffffff160217905550604051620047b1380380620047b183398181016040528101906200008291906200035c565b3460018190555081600990816200009a9190620005f7565b50805f806101000a81548173ffffffffffffffffffffffffffffffffffffffff021916908373ffffffffffffffffffffffffffffffffffffffff16021790555080600a5f6101000a81548173ffffffffffffffffffffffffffffffffffffffff021916908373ffffffffffffffffffffffffffffffffffffffff16021790555073c59e3633baac79493d908e63626716e204a45edf600c5f6101000a81548173ffffffffffffffffffffffffffffffffffffffff021916908373ffffffffffffffffffffffffffffffffffffffff1602179055505050620006db565b5f604051905090565b5f80fd5b5f80fd5b5f80fd5b5f80fd5b5f601f19601f8301169050919050565b7f4e487b71000000000000000000000000000000000000000000000000000000005f52604160045260245ffd5b620001d7826200018f565b810181811067ffffffffffffffff82111715620001f957620001f86200019f565b5b80604052505050565b5f6200020d62000176565b90506200021b8282620001cc565b919050565b5f67ffffffffffffffff8211156200023d576200023c6200019f565b5b62000248826200018f565b9050602081019050919050565b5f5b838110156200027457808201518184015260208101905062000257565b5f8484015250505050565b5f620002956200028f8462000220565b62000202565b905082815260208101848484011115620002b457620002b36200018b565b5b620002c184828562000255565b509392505050565b5f82601f830112620002e057620002df62000187565b5b8151620002f28482602086016200027f565b91505092915050565b5f73ffffffffffffffffffffffffffffffffffffffff82169050919050565b5f6200032682620002fb565b9050919050565b62000338816200031a565b811462000343575f80fd5b50565b5f8151905062000356816200032d565b92915050565b5f80604083850312156200037557620003746200017f565b5b5f83015167ffffffffffffffff81111562000395576200039462000183565b5b620003a385828601620002c9565b9250506020620003b68582860162000346565b9150509250929050565b5f81519050919050565b7f4e487b71000000000000000000000000000000000000000000000000000000005f52602260045260245ffd5b5f60028204905060018216806200040f57607f821691505b602082108103620004255762000424620003ca565b5b50919050565b5f819050815f5260205f209050919050565b5f6020601f8301049050919050565b5f82821b905092915050565b5f60088302620004897fffffffffffffffffffffffffffffffffffffffffffffffffffffffffffffffff826200044c565b6200049586836200044c565b95508019841693508086168417925050509392505050565b5f819050919050565b5f819050919050565b5f620004df620004d9620004d384620004ad565b620004b6565b620004ad565b9050919050565b5f819050919050565b620004fa83620004bf565b620005126200050982620004e6565b84845462000458565b825550505050565b5f90565b620005286200051a565b62000535818484620004ef565b505050565b5b818110156200055c57620005505f826200051e565b6001810190506200053b565b5050565b601f821115620005ab5762000575816200042b565b62000580846200043d565b8101602085101562000590578190505b620005a86200059f856200043d565b8301826200053a565b50505b505050565b5f82821c905092915050565b5f620005cd5f1984600802620005b0565b1980831691505092915050565b5f620005e78383620005bc565b9150826002028217905092915050565b6200060282620003c0565b67ffffffffffffffff8111156200061e576200061d6200019f565b5b6200062a8254620003f7565b6200063782828562000560565b5f60209050601f8311600181146200066d575f841562000658578287015190505b620006648582620005da565b865550620006d3565b601f1984166200067d866200042b565b5f5b82811015620006a6578489015182556001820191506020850194506020810190506200067f565b86831015620006c65784890151620006c2601f891682620005bc565b8355505b6001600288020188555050505b505050505050565b6140c880620006e95f395ff3fe6080604052600436106101d7575f3560e01c80638c0db83011610101578063b6f7132f11610094578063e263363711610063578063e26336371461068b578063f1850af8146106b5578063f2494f3b146106df578063fff2df2a14610709576101d7565b8063b6f7132f146105d3578063bea4dfb51461060f578063bf3eb03b14610639578063cc484c5c14610661576101d7565b8063a5f352b7116100d0578063a5f352b714610535578063b0eb04571461055f578063b176e3111461059b578063b6b55f25146105b7576101d7565b80638c0db8301461047b57806397436655146104a55780639d76ea58146104e1578063a386e8d61461050b576101d7565b80633d4f04ad1161017957806363f31d2c1161014857806363f31d2c146103c1578063714fef4c146103eb5780637b61c3201461041557806388c5ba1b1461043f576101d7565b80633d4f04ad146103095780634031234c14610331578063477348921461035b5780634a417a5314610397576101d7565b806325af889d116101b557806325af889d1461025d57806326be90bf146102995780632a648300146102c35780632e1a7d4d146102ed576101d7565b80630e752702146101db57806310fe9ae8146101f7578063147fdaa214610221575b5f80fd5b6101f560048036038101906101f091906130ee565b610733565b005b348015610202575f80fd5b5061020b610d8f565b6040516102189190613158565b60405180910390f35b34801561022c575f80fd5b506102476004803603810190610242919061319b565b610db6565b60405161025491906132aa565b60405180910390f35b348015610268575f80fd5b50610283600480360381019061027e919061319b565b610e62565b60405161029091906132d9565b60405180910390f35b3480156102a4575f80fd5b506102ad610ea8565b6040516102ba91906132d9565b60405180910390f35b3480156102ce575f80fd5b506102d7610f46565b6040516102e491906132d9565b60405180910390f35b610307600480360381019061030291906130ee565b611013565b005b348015610314575f80fd5b5061032f600480360381019061032a91906130ee565b6118cb565b005b34801561033c575f80fd5b50610345611bf8565b60405161035291906132d9565b60405180910390f35b348015610366575f80fd5b50610381600480360381019061037c919061319b565b611bfe565b60405161038e91906132d9565b60405180910390f35b3480156103a2575f80fd5b506103ab611c9f565b6040516103b891906132d9565b60405180910390f35b3480156103cc575f80fd5b506103d5611cda565b6040516103e291906132d9565b60405180910390f35b3480156103f6575f80fd5b506103ff611ce0565b60405161040c91906132d9565b60405180910390f35b348015610420575f80fd5b50610429611ce6565b604051610436919061337c565b60405180910390f35b34801561044a575f80fd5b506104656004803603810190610460919061319b565b611d72565b60405161047291906132d9565b60405180910390f35b348015610486575f80fd5b5061048f611db8565b60405161049c91906132d9565b60405180910390f35b3480156104b0575f80fd5b506104cb60048036038101906104c691906133d2565b611dbe565b6040516104d8919061343a565b60405180910390f35b3480156104ec575f80fd5b506104f5612034565b6040516105029190613158565b60405180910390f35b348015610516575f80fd5b5061051f612057565b60405161052c91906132d9565b60405180910390f35b348015610540575f80fd5b50610549612060565b60405161055691906132d9565b60405180910390f35b34801561056a575f80fd5b506105856004803603810190610580919061319b565b612069565b6040516105929190613555565b60405180910390f35b6105b560048036038101906105b091906130ee565b61212f565b005b6105d160048036038101906105cc91906130ee565b6124e0565b005b3480156105de575f80fd5b506105f960048036038101906105f4919061319b565b612819565b60405161060691906132d9565b60405180910390f35b34801561061a575f80fd5b5061062361285f565b604051610630919061343a565b60405180910390f35b348015610644575f80fd5b5061065f600480360381019061065a91906130ee565b6128fc565b005b34801561066c575f80fd5b50610675612d57565b60405161068291906132d9565b60405180910390f35b348015610696575f80fd5b5061069f612d60565b6040516106ac91906132d9565b60405180910390f35b3480156106c0575f80fd5b506106c9612d69565b6040516106d6919061337c565b60405180910390f35b3480156106ea575f80fd5b506106f3612df9565b60405161070091906132d9565b60405180910390f35b348015610714575f80fd5b5061071d61302f565b60405161072a91906132d9565b60405180910390f35b600e5f3373ffffffffffffffffffffffffffffffffffffffff1673ffffffffffffffffffffffffffffffffffffffff1681526020019081526020015f208054905081106107b5576040517f08c379a00000000000000000000000000000000000000000000000000000000081526004016107ac906135bf565b60405180910390fd5b5f600e5f3373ffffffffffffffffffffffffffffffffffffffff1673ffffffffffffffffffffffffffffffffffffffff1681526020019081526020015f208281548110610805576108046135dd565b5b905f5260205f2090600202015f015490508060025f8282546108279190613637565b925050819055508060105f3373ffffffffffffffffffffffffffffffffffffffff1673ffffffffffffffffffffffffffffffffffffffff1681526020019081526020015f205f82825461087a9190613637565b925050819055508060035f828254610892919061366a565b9250508190555080600f5f3373ffffffffffffffffffffffffffffffffffffffff1673ffffffffffffffffffffffffffffffffffffffff1681526020019081526020015f205f8282546108e5919061366a565b925050819055505f60646108f7612df9565b61090191906136ca565b9050426008819055505f600e5f3373ffffffffffffffffffffffffffffffffffffffff1673ffffffffffffffffffffffffffffffffffffffff1681526020019081526020015f20848154811061095a576109596135dd565b5b905f5260205f209060020201600101546008546109779190613637565b90505f63bc7bf40090508083838661098f91906136fa565b61099991906136fa565b6109a391906136ca565b6006819055505f60105f3373ffffffffffffffffffffffffffffffffffffffff1673ffffffffffffffffffffffffffffffffffffffff1681526020019081526020015f205403610a19577fffffffffffffffffffffffffffffffffffffffffffffffffffffffffffffffff600581905550610ab3565b60105f3373ffffffffffffffffffffffffffffffffffffffff1673ffffffffffffffffffffffffffffffffffffffff1681526020019081526020015f2054600454600f5f3373ffffffffffffffffffffffffffffffffffffffff1673ffffffffffffffffffffffffffffffffffffffff1681526020019081526020015f2054610aa291906136fa565b610aac91906136ca565b6005819055505b5f8054906101000a900473ffffffffffffffffffffffffffffffffffffffff1673ffffffffffffffffffffffffffffffffffffffff166323b872dd333060065488610afe919061366a565b6040518463ffffffff1660e01b8152600401610b1c9392919061373b565b6020604051808303815f875af1158015610b38573d5f803e3d5ffd5b505050506040513d601f19601f82011682018060405250810190610b5c919061379a565b506001600e5f3373ffffffffffffffffffffffffffffffffffffffff1673ffffffffffffffffffffffffffffffffffffffff1681526020019081526020015f2080549050610baa9190613637565b851015610cc957600e5f3373ffffffffffffffffffffffffffffffffffffffff1673ffffffffffffffffffffffffffffffffffffffff1681526020019081526020015f206001600e5f3373ffffffffffffffffffffffffffffffffffffffff1673ffffffffffffffffffffffffffffffffffffffff1681526020019081526020015f2080549050610c3b9190613637565b81548110610c4c57610c4b6135dd565b5b905f5260205f209060020201600e5f3373ffffffffffffffffffffffffffffffffffffffff1673ffffffffffffffffffffffffffffffffffffffff1681526020019081526020015f208681548110610ca757610ca66135dd565b5b905f5260205f2090600202015f820154815f0155600182015481600101559050505b600e5f3373ffffffffffffffffffffffffffffffffffffffff1673ffffffffffffffffffffffffffffffffffffffff1681526020019081526020015f20805480610d1657610d156137c5565b5b600190038181905f5260205f2090600202015f8082015f9055600182015f9055505090553373ffffffffffffffffffffffffffffffffffffffff167f7d75f3f0c4b2e11033b8db47653a591f1621ef3c685afc24485a58c159f53d1885604051610d8091906132d9565b60405180910390a25050505050565b5f805f9054906101000a900473ffffffffffffffffffffffffffffffffffffffff16905090565b6060600e5f8373ffffffffffffffffffffffffffffffffffffffff1673ffffffffffffffffffffffffffffffffffffffff1681526020019081526020015f20805480602002602001604051908101604052809291908181526020015f905b82821015610e57578382905f5260205f2090600202016040518060400160405290815f820154815260200160018201548152505081526020019060010190610e14565b505050509050919050565b5f60115f8373ffffffffffffffffffffffffffffffffffffffff1673ffffffffffffffffffffffffffffffffffffffff1681526020019081526020015f20549050919050565b5f805f9054906101000a900473ffffffffffffffffffffffffffffffffffffffff1673ffffffffffffffffffffffffffffffffffffffff166370a08231306040518263ffffffff1660e01b8152600401610f029190613158565b602060405180830381865afa158015610f1d573d5f803e3d5ffd5b505050506040513d601f19601f82011682018060405250810190610f419190613806565b905090565b5f80610f50611c9f565b90505f670429d069189e000090505f670b1a2bc2ec500000905081831015610f7e5760649350505050611010565b80831015611007575f8282610f939190613637565b670de0b6b3a764000060c86107d0610fab9190613637565b610fb591906136fa565b610fbf91906136ca565b90505f670de0b6b3a76400008486610fd79190613637565b83610fe291906136fa565b610fec91906136ca565b90508060c8610ffb919061366a565b95505050505050611010565b6107d093505050505b90565b600d5f3373ffffffffffffffffffffffffffffffffffffffff1673ffffffffffffffffffffffffffffffffffffffff1681526020019081526020015f20805490508110611095576040517f08c379a000000000000000000000000000000000000000000000000000000000815260040161108c9061387b565b60405180910390fd5b5f600d5f3373ffffffffffffffffffffffffffffffffffffffff1673ffffffffffffffffffffffffffffffffffffffff1681526020019081526020015f2082815481106110e5576110e46135dd565b5b905f5260205f2090600302015f015490505f6064611101610f46565b61110b91906136ca565b9050426007819055505f600d5f3373ffffffffffffffffffffffffffffffffffffffff1673ffffffffffffffffffffffffffffffffffffffff1681526020019081526020015f208481548110611164576111636135dd565b5b905f5260205f209060030201600201546007546111819190613637565b90505f63bc7bf40090508083838661119991906136fa565b6111a391906136fa565b6111ad91906136ca565b6006819055505f6103e8856111c291906136ca565b90505f60065482876111d49190613637565b6111de9190613637565b9050600d5f3373ffffffffffffffffffffffffffffffffffffffff1673ffffffffffffffffffffffffffffffffffffffff1681526020019081526020015f20878154811061122f5761122e6135dd565b5b905f5260205f2090600302016001015f9054906101000a900460ff16156112bc578560035f8282546112619190613637565b9250508190555085600f5f3373ffffffffffffffffffffffffffffffffffffffff1673ffffffffffffffffffffffffffffffffffffffff1681526020019081526020015f205f8282546112b49190613637565b925050819055505b5f60105f3373ffffffffffffffffffffffffffffffffffffffff1673ffffffffffffffffffffffffffffffffffffffff1681526020019081526020015f205414801561134557505f600f5f3373ffffffffffffffffffffffffffffffffffffffff1673ffffffffffffffffffffffffffffffffffffffff1681526020019081526020015f205414155b15611376577fffffffffffffffffffffffffffffffffffffffffffffffffffffffffffffffff6005819055506114aa565b5f60105f3373ffffffffffffffffffffffffffffffffffffffff1673ffffffffffffffffffffffffffffffffffffffff1681526020019081526020015f20541480156113fe57505f600f5f3373ffffffffffffffffffffffffffffffffffffffff1673ffffffffffffffffffffffffffffffffffffffff1681526020019081526020015f2054145b1561140f575f6005819055506114a9565b60105f3373ffffffffffffffffffffffffffffffffffffffff1673ffffffffffffffffffffffffffffffffffffffff1681526020019081526020015f2054600454600f5f3373ffffffffffffffffffffffffffffffffffffffff1673ffffffffffffffffffffffffffffffffffffffff1681526020019081526020015f205461149891906136fa565b6114a291906136ca565b6005819055505b5b8560015f8282546114bb9190613637565b925050819055508560115f3373ffffffffffffffffffffffffffffffffffffffff1673ffffffffffffffffffffffffffffffffffffffff1681526020019081526020015f205f82825461150e9190613637565b925050819055505f8054906101000a900473ffffffffffffffffffffffffffffffffffffffff1673ffffffffffffffffffffffffffffffffffffffff1663a9059cbb33836040518363ffffffff1660e01b815260040161156f929190613899565b6020604051808303815f875af115801561158b573d5f803e3d5ffd5b505050506040513d601f19601f820116820180604052508101906115af919061379a565b505f8054906101000a900473ffffffffffffffffffffffffffffffffffffffff1673ffffffffffffffffffffffffffffffffffffffff1663a9059cbb600b5f9054906101000a900473ffffffffffffffffffffffffffffffffffffffff16846040518363ffffffff1660e01b815260040161162b929190613899565b6020604051808303815f875af1158015611647573d5f803e3d5ffd5b505050506040513d601f19601f8201168201806040525081019061166b919061379a565b506001600d5f3373ffffffffffffffffffffffffffffffffffffffff1673ffffffffffffffffffffffffffffffffffffffff1681526020019081526020015f20805490506116b99190613637565b87101561180357600d5f3373ffffffffffffffffffffffffffffffffffffffff1673ffffffffffffffffffffffffffffffffffffffff1681526020019081526020015f206001600d5f3373ffffffffffffffffffffffffffffffffffffffff1673ffffffffffffffffffffffffffffffffffffffff1681526020019081526020015f208054905061174a9190613637565b8154811061175b5761175a6135dd565b5b905f5260205f209060030201600d5f3373ffffffffffffffffffffffffffffffffffffffff1673ffffffffffffffffffffffffffffffffffffffff1681526020019081526020015f2088815481106117b6576117b56135dd565b5b905f5260205f2090600302015f820154815f0155600182015f9054906101000a900460ff16816001015f6101000a81548160ff021916908315150217905550600282015481600201559050505b600d5f3373ffffffffffffffffffffffffffffffffffffffff1673ffffffffffffffffffffffffffffffffffffffff1681526020019081526020015f208054806118505761184f6137c5565b5b600190038181905f5260205f2090600302015f8082015f9055600182015f6101000a81549060ff0219169055600282015f9055505090557fdf273cb619d95419a9cd0ec88123a0538c85064229baa6363788f743fff90deb3382846040516118ba939291906138c0565b60405180910390a150505050505050565b600d5f3373ffffffffffffffffffffffffffffffffffffffff1673ffffffffffffffffffffffffffffffffffffffff1681526020019081526020015f2080549050811061194d576040517f08c379a00000000000000000000000000000000000000000000000000000000081526004016119449061393f565b60405180910390fd5b5f600d5f3373ffffffffffffffffffffffffffffffffffffffff1673ffffffffffffffffffffffffffffffffffffffff1681526020019081526020015f20828154811061199d5761199c6135dd565b5b905f5260205f20906003020190505f1515816001015f9054906101000a900460ff16151514611a01576040517f08c379a00000000000000000000000000000000000000000000000000000000081526004016119f8906139cd565b60405180910390fd5b5f60105f3373ffffffffffffffffffffffffffffffffffffffff1673ffffffffffffffffffffffffffffffffffffffff1681526020019081526020015f205403611a71577fffffffffffffffffffffffffffffffffffffffffffffffffffffffffffffffff600581905550611b0b565b60105f3373ffffffffffffffffffffffffffffffffffffffff1673ffffffffffffffffffffffffffffffffffffffff1681526020019081526020015f2054600454600f5f3373ffffffffffffffffffffffffffffffffffffffff1673ffffffffffffffffffffffffffffffffffffffff1681526020019081526020015f2054611afa91906136fa565b611b0491906136ca565b6005819055505b606460055411611b50576040517f08c379a0000000000000000000000000000000000000000000000000000000008152600401611b4790613a81565b60405180910390fd5b6001816001015f6101000a81548160ff021916908315150217905550806001015f9054906101000a900460ff1615611bf457805f0154600f5f3373ffffffffffffffffffffffffffffffffffffffff1673ffffffffffffffffffffffffffffffffffffffff1681526020019081526020015f205f828254611bd1919061366a565b92505081905550805f015460035f828254611bec919061366a565b925050819055505b5050565b60045481565b5f600a5f9054906101000a900473ffffffffffffffffffffffffffffffffffffffff1673ffffffffffffffffffffffffffffffffffffffff166370a08231836040518263ffffffff1660e01b8152600401611c599190613158565b602060405180830381865afa158015611c74573d5f803e3d5ffd5b505050506040513d601f19601f82011682018060405250810190611c989190613806565b9050919050565b5f8060015403611cb1575f9050611cd7565b600154670de0b6b3a7640000600254611cca91906136fa565b611cd491906136ca565b90505b90565b60035481565b60075481565b60098054611cf390613acc565b80601f0160208091040260200160405190810160405280929190818152602001828054611d1f90613acc565b8015611d6a5780601f10611d4157610100808354040283529160200191611d6a565b820191905f5260205f20905b815481529060010190602001808311611d4d57829003601f168201915b505050505081565b5f60105f8373ffffffffffffffffffffffffffffffffffffffff1673ffffffffffffffffffffffffffffffffffffffff1681526020019081526020015f20549050919050565b60085481565b5f8060ff168260ff16118015611ddb5750601260ff168260ff1611155b611e1a576040517f08c379a0000000000000000000000000000000000000000000000000000000008152600401611e1190613b46565b60405180910390fd5b5f8260ff16600a611e2b9190613c93565b90505f8573ffffffffffffffffffffffffffffffffffffffff1663feaf968c6040518163ffffffff1660e01b815260040160a060405180830381865afa158015611e77573d5f803e3d5ffd5b505050506040513d601f19601f82011682018060405250810190611e9b9190613d46565b5050509150505f8673ffffffffffffffffffffffffffffffffffffffff1663313ce5676040518163ffffffff1660e01b8152600401602060405180830381865afa158015611eeb573d5f803e3d5ffd5b505050506040513d601f19601f82011682018060405250810190611f0f9190613dd1565b9050611f1c828287613035565b91505f8673ffffffffffffffffffffffffffffffffffffffff1663feaf968c6040518163ffffffff1660e01b815260040160a060405180830381865afa158015611f68573d5f803e3d5ffd5b505050506040513d601f19601f82011682018060405250810190611f8c9190613d46565b5050509150505f8773ffffffffffffffffffffffffffffffffffffffff1663313ce5676040518163ffffffff1660e01b8152600401602060405180830381865afa158015611fdc573d5f803e3d5ffd5b505050506040513d601f19601f820116820180604052508101906120009190613dd1565b905061200d828289613035565b915081858561201c9190613dfc565b6120269190613e72565b955050505050509392505050565b5f8054906101000a900473ffffffffffffffffffffffffffffffffffffffff1681565b5f600154905090565b5f600554905090565b6060600d5f8373ffffffffffffffffffffffffffffffffffffffff1673ffffffffffffffffffffffffffffffffffffffff1681526020019081526020015f20805480602002602001604051908101604052809291908181526020015f905b82821015612124578382905f5260205f2090600302016040518060600160405290815f8201548152602001600182015f9054906101000a900460ff16151515158152602001600282015481525050815260200190600101906120c7565b505050509050919050565b600f5f3373ffffffffffffffffffffffffffffffffffffffff1673ffffffffffffffffffffffffffffffffffffffff1681526020019081526020015f20548111156121af576040517f08c379a00000000000000000000000000000000000000000000000000000000081526004016121a690613f24565b60405180910390fd5b5f6040518060400160405280838152602001428152509050600e5f3373ffffffffffffffffffffffffffffffffffffffff1673ffffffffffffffffffffffffffffffffffffffff1681526020019081526020015f2081908060018154018082558091505060019003905f5260205f2090600202015f909190919091505f820151815f01556020820151816001015550508160035f8282546122509190613637565b9250508190555081600f5f3373ffffffffffffffffffffffffffffffffffffffff1673ffffffffffffffffffffffffffffffffffffffff1681526020019081526020015f205f8282546122a39190613637565b925050819055508160025f8282546122bb919061366a565b925050819055508160105f3373ffffffffffffffffffffffffffffffffffffffff1673ffffffffffffffffffffffffffffffffffffffff1681526020019081526020015f205f82825461230e919061366a565b9250508190555060105f3373ffffffffffffffffffffffffffffffffffffffff1673ffffffffffffffffffffffffffffffffffffffff1681526020019081526020015f2054600454600f5f3373ffffffffffffffffffffffffffffffffffffffff1673ffffffffffffffffffffffffffffffffffffffff1681526020019081526020015f205461239e91906136fa565b6123a891906136ca565b6005819055506064600554116123f3576040517f08c379a00000000000000000000000000000000000000000000000000000000081526004016123ea90613fb2565b60405180910390fd5b5f8054906101000a900473ffffffffffffffffffffffffffffffffffffffff1673ffffffffffffffffffffffffffffffffffffffff1663a9059cbb33846040518363ffffffff1660e01b815260040161244d929190613899565b6020604051808303815f875af1158015612469573d5f803e3d5ffd5b505050506040513d601f19601f8201168201806040525081019061248d919061379a565b503373ffffffffffffffffffffffffffffffffffffffff167f1db23cf53464267c45324569941e81e23d29c48ff9be2b35af2cc0a2681159d6836040516124d491906132d9565b60405180910390a25050565b5f6040518060600160405280838152602001600115158152602001428152509050600d5f3373ffffffffffffffffffffffffffffffffffffffff1673ffffffffffffffffffffffffffffffffffffffff1681526020019081526020015f2081908060018154018082558091505060019003905f5260205f2090600302015f909190919091505f820151815f01556020820151816001015f6101000a81548160ff0219169083151502179055506040820151816002015550508160015f8282546125a9919061366a565b925050819055508160035f8282546125c1919061366a565b9250508190555081600f5f3373ffffffffffffffffffffffffffffffffffffffff1673ffffffffffffffffffffffffffffffffffffffff1681526020019081526020015f205f828254612614919061366a565b925050819055508160115f3373ffffffffffffffffffffffffffffffffffffffff1673ffffffffffffffffffffffffffffffffffffffff1681526020019081526020015f205f828254612667919061366a565b925050819055505f60105f3373ffffffffffffffffffffffffffffffffffffffff1673ffffffffffffffffffffffffffffffffffffffff1681526020019081526020015f2054036126de577fffffffffffffffffffffffffffffffffffffffffffffffffffffffffffffffff600581905550612778565b60105f3373ffffffffffffffffffffffffffffffffffffffff1673ffffffffffffffffffffffffffffffffffffffff1681526020019081526020015f2054600454600f5f3373ffffffffffffffffffffffffffffffffffffffff1673ffffffffffffffffffffffffffffffffffffffff1681526020019081526020015f205461276791906136fa565b61277191906136ca565b6005819055505b5f8054906101000a900473ffffffffffffffffffffffffffffffffffffffff1673ffffffffffffffffffffffffffffffffffffffff166323b872dd3330856040518463ffffffff1660e01b81526004016127d49392919061373b565b6020604051808303815f875af11580156127f0573d5f803e3d5ffd5b505050506040513d601f19601f82011682018060405250810190612814919061379a565b505050565b5f600f5f8373ffffffffffffffffffffffffffffffffffffffff1673ffffffffffffffffffffffffffffffffffffffff1681526020019081526020015f20549050919050565b5f80600c5f9054906101000a900473ffffffffffffffffffffffffffffffffffffffff1673ffffffffffffffffffffffffffffffffffffffff1663feaf968c6040518163ffffffff1660e01b815260040160a060405180830381865afa1580156128cb573d5f803e3d5ffd5b505050506040513d601f19601f820116820180604052508101906128ef9190613d46565b5050509150508091505090565b600d5f3373ffffffffffffffffffffffffffffffffffffffff1673ffffffffffffffffffffffffffffffffffffffff1681526020019081526020015f2080549050811061297e576040517f08c379a00000000000000000000000000000000000000000000000000000000081526004016129759061393f565b60405180910390fd5b5f600d5f3373ffffffffffffffffffffffffffffffffffffffff1673ffffffffffffffffffffffffffffffffffffffff1681526020019081526020015f2082815481106129ce576129cd6135dd565b5b905f5260205f209060030201905060011515816001015f9054906101000a900460ff16151514612a33576040517f08c379a0000000000000000000000000000000000000000000000000000000008152600401612a2a90614040565b60405180910390fd5b5f816001015f6101000a81548160ff0219169083151502179055505f1515816001015f9054906101000a900460ff16151503612adb57805f0154600f5f3373ffffffffffffffffffffffffffffffffffffffff1673ffffffffffffffffffffffffffffffffffffffff1681526020019081526020015f205f828254612ab89190613637565b92505081905550805f015460035f828254612ad39190613637565b925050819055505b5f60105f3373ffffffffffffffffffffffffffffffffffffffff1673ffffffffffffffffffffffffffffffffffffffff1681526020019081526020015f2054148015612b6457505f600f5f3373ffffffffffffffffffffffffffffffffffffffff1673ffffffffffffffffffffffffffffffffffffffff1681526020019081526020015f205414155b15612b95577fffffffffffffffffffffffffffffffffffffffffffffffffffffffffffffffff600581905550612cc9565b5f60105f3373ffffffffffffffffffffffffffffffffffffffff1673ffffffffffffffffffffffffffffffffffffffff1681526020019081526020015f2054148015612c1d57505f600f5f3373ffffffffffffffffffffffffffffffffffffffff1673ffffffffffffffffffffffffffffffffffffffff1681526020019081526020015f2054145b15612c2e575f600581905550612cc8565b60105f3373ffffffffffffffffffffffffffffffffffffffff1673ffffffffffffffffffffffffffffffffffffffff1681526020019081526020015f2054600454600f5f3373ffffffffffffffffffffffffffffffffffffffff1673ffffffffffffffffffffffffffffffffffffffff1681526020019081526020015f2054612cb791906136fa565b612cc191906136ca565b6005819055505b5b5f60105f3373ffffffffffffffffffffffffffffffffffffffff1673ffffffffffffffffffffffffffffffffffffffff1681526020019081526020015f205414612d5357606460055411612d52576040517f08c379a0000000000000000000000000000000000000000000000000000000008152600401612d4990613a81565b60405180910390fd5b5b5050565b5f600254905090565b5f600654905090565b606060098054612d7890613acc565b80601f0160208091040260200160405190810160405280929190818152602001828054612da490613acc565b8015612def5780601f10612dc657610100808354040283529160200191612def565b820191905f5260205f20905b815481529060010190602001808311612dd257829003601f168201915b5050505050905090565b5f80612e03611c9f565b90505f670429d069189e000090505f670b1a2bc2ec50000090505f6101906064612e2d919061366a565b90505f61019060c8612e3f919061366a565b90505f6101906107d0612e52919061366a565b90505f8086881015612eac576064601e612e6a612057565b612e7491906136fa565b612e7e91906136ca565b612e86610ea8565b11612e9b57849850505050505050505061302c565b60649850505050505050505061302c565b85881015612fe1576064601e612ec0612057565b612eca91906136fa565b612ed491906136ca565b612edc610ea8565b11612f5f578686612eed9190613637565b670de0b6b3a76400008585612f029190613637565b612f0c91906136fa565b612f1691906136ca565b9150670de0b6b3a76400008789612f2d9190613637565b83612f3891906136fa565b612f4291906136ca565b90508084612f50919061366a565b9850505050505050505061302c565b8686612f6b9190613637565b670de0b6b3a764000060c86107d0612f839190613637565b612f8d91906136fa565b612f9791906136ca565b9150670de0b6b3a76400008789612fae9190613637565b83612fb991906136fa565b612fc391906136ca565b90508060c8612fd2919061366a565b9850505050505050505061302c565b6064601e612fed612057565b612ff791906136fa565b61300191906136ca565b613009610ea8565b1161301e57829850505050505050505061302c565b6107d0985050505050505050505b90565b60065481565b5f8160ff168360ff161015613071578282613050919061405e565b60ff16600a61305f9190613c93565b8461306a9190613dfc565b90506130b0565b8160ff168360ff1611156130ac57818361308b919061405e565b60ff16600a61309a9190613c93565b846130a59190613e72565b90506130b0565b8390505b9392505050565b5f80fd5b5f819050919050565b6130cd816130bb565b81146130d7575f80fd5b50565b5f813590506130e8816130c4565b92915050565b5f60208284031215613103576131026130b7565b5b5f613110848285016130da565b91505092915050565b5f73ffffffffffffffffffffffffffffffffffffffff82169050919050565b5f61314282613119565b9050919050565b61315281613138565b82525050565b5f60208201905061316b5f830184613149565b92915050565b61317a81613138565b8114613184575f80fd5b50565b5f8135905061319581613171565b92915050565b5f602082840312156131b0576131af6130b7565b5b5f6131bd84828501613187565b91505092915050565b5f81519050919050565b5f82825260208201905092915050565b5f819050602082019050919050565b6131f8816130bb565b82525050565b604082015f8201516132125f8501826131ef565b50602082015161322560208501826131ef565b50505050565b5f61323683836131fe565b60408301905092915050565b5f602082019050919050565b5f613258826131c6565b61326281856131d0565b935061326d836131e0565b805f5b8381101561329d578151613284888261322b565b975061328f83613242565b925050600181019050613270565b5085935050505092915050565b5f6020820190508181035f8301526132c2818461324e565b905092915050565b6132d3816130bb565b82525050565b5f6020820190506132ec5f8301846132ca565b92915050565b5f81519050919050565b5f82825260208201905092915050565b5f5b8381101561332957808201518184015260208101905061330e565b5f8484015250505050565b5f601f19601f8301169050919050565b5f61334e826132f2565b61335881856132fc565b935061336881856020860161330c565b61337181613334565b840191505092915050565b5f6020820190508181035f8301526133948184613344565b905092915050565b5f60ff82169050919050565b6133b18161339c565b81146133bb575f80fd5b50565b5f813590506133cc816133a8565b92915050565b5f805f606084860312156133e9576133e86130b7565b5b5f6133f686828701613187565b935050602061340786828701613187565b9250506040613418868287016133be565b9150509250925092565b5f819050919050565b61343481613422565b82525050565b5f60208201905061344d5f83018461342b565b92915050565b5f81519050919050565b5f82825260208201905092915050565b5f819050602082019050919050565b5f8115159050919050565b6134908161347c565b82525050565b606082015f8201516134aa5f8501826131ef565b5060208201516134bd6020850182613487565b5060408201516134d060408501826131ef565b50505050565b5f6134e18383613496565b60608301905092915050565b5f602082019050919050565b5f61350382613453565b61350d818561345d565b93506135188361346d565b805f5b8381101561354857815161352f88826134d6565b975061353a836134ed565b92505060018101905061351b565b5085935050505092915050565b5f6020820190508181035f83015261356d81846134f9565b905092915050565b7f496e76616c696420696e646578000000000000000000000000000000000000005f82015250565b5f6135a9600d836132fc565b91506135b482613575565b602082019050919050565b5f6020820190508181035f8301526135d68161359d565b9050919050565b7f4e487b71000000000000000000000000000000000000000000000000000000005f52603260045260245ffd5b7f4e487b71000000000000000000000000000000000000000000000000000000005f52601160045260245ffd5b5f613641826130bb565b915061364c836130bb565b92508282039050818111156136645761366361360a565b5b92915050565b5f613674826130bb565b915061367f836130bb565b92508282019050808211156136975761369661360a565b5b92915050565b7f4e487b71000000000000000000000000000000000000000000000000000000005f52601260045260245ffd5b5f6136d4826130bb565b91506136df836130bb565b9250826136ef576136ee61369d565b5b828204905092915050565b5f613704826130bb565b915061370f836130bb565b925082820261371d816130bb565b915082820484148315176137345761373361360a565b5b5092915050565b5f60608201905061374e5f830186613149565b61375b6020830185613149565b61376860408301846132ca565b949350505050565b6137798161347c565b8114613783575f80fd5b50565b5f8151905061379481613770565b92915050565b5f602082840312156137af576137ae6130b7565b5b5f6137bc84828501613786565b91505092915050565b7f4e487b71000000000000000000000000000000000000000000000000000000005f52603160045260245ffd5b5f81519050613800816130c4565b92915050565b5f6020828403121561381b5761381a6130b7565b5b5f613828848285016137f2565b91505092915050565b7f4e6f2073756368207472616e73616374696f6e20666f756e64000000000000005f82015250565b5f6138656019836132fc565b915061387082613831565b602082019050919050565b5f6020820190508181035f83015261389281613859565b9050919050565b5f6040820190506138ac5f830185613149565b6138b960208301846132ca565b9392505050565b5f6060820190506138d35f830186613149565b6138e060208301856132ca565b6138ed60408301846132ca565b949350505050565b7f496e646578206e6f7420666f756e6400000000000000000000000000000000005f82015250565b5f613929600f836132fc565b9150613934826138f5565b602082019050919050565b5f6020820190508181035f8301526139568161391d565b9050919050565b7f596f7520616c7265616479207365742074686973207472616e73616374696f6e5f8201527f206173206120636f6c6c61746572616c00000000000000000000000000000000602082015250565b5f6139b76030836132fc565b91506139c28261395d565b604082019050919050565b5f6020820190508181035f8301526139e4816139ab565b9050919050565b7f596f752063616e206e6f742063616e63656c207468697320636f6c6c617465725f8201527f616c206361757365206f66206865616c746820666163746f7220646f776e696e60208201527f672062656c6f7720310000000000000000000000000000000000000000000000604082015250565b5f613a6b6049836132fc565b9150613a76826139eb565b606082019050919050565b5f6020820190508181035f830152613a9881613a5f565b9050919050565b7f4e487b71000000000000000000000000000000000000000000000000000000005f52602260045260245ffd5b5f6002820490506001821680613ae357607f821691505b602082108103613af657613af5613a9f565b5b50919050565b7f496e76616c6964205f646563696d616c730000000000000000000000000000005f82015250565b5f613b306011836132fc565b9150613b3b82613afc565b602082019050919050565b5f6020820190508181035f830152613b5d81613b24565b9050919050565b5f8160011c9050919050565b5f808291508390505b6001851115613bb957808604811115613b9557613b9461360a565b5b6001851615613ba45780820291505b8081029050613bb285613b64565b9450613b79565b94509492505050565b5f82613bd15760019050613c8c565b81613bde575f9050613c8c565b8160018114613bf45760028114613bfe57613c2d565b6001915050613c8c565b60ff841115613c1057613c0f61360a565b5b8360020a915084821115613c2757613c2661360a565b5b50613c8c565b5060208310610133831016604e8410600b8410161715613c625782820a905083811115613c5d57613c5c61360a565b5b613c8c565b613c6f8484846001613b70565b92509050818404811115613c8657613c8561360a565b5b81810290505b9392505050565b5f613c9d826130bb565b9150613ca8836130bb565b9250613cd57fffffffffffffffffffffffffffffffffffffffffffffffffffffffffffffffff8484613bc2565b905092915050565b5f69ffffffffffffffffffff82169050919050565b613cfb81613cdd565b8114613d05575f80fd5b50565b5f81519050613d1681613cf2565b92915050565b613d2581613422565b8114613d2f575f80fd5b50565b5f81519050613d4081613d1c565b92915050565b5f805f805f60a08688031215613d5f57613d5e6130b7565b5b5f613d6c88828901613d08565b9550506020613d7d88828901613d32565b9450506040613d8e888289016137f2565b9350506060613d9f888289016137f2565b9250506080613db088828901613d08565b9150509295509295909350565b5f81519050613dcb816133a8565b92915050565b5f60208284031215613de657613de56130b7565b5b5f613df384828501613dbd565b91505092915050565b5f613e0682613422565b9150613e1183613422565b9250828202613e1f81613422565b91507f800000000000000000000000000000000000000000000000000000000000000084145f84121615613e5657613e5561360a565b5b8282058414831517613e6b57613e6a61360a565b5b5092915050565b5f613e7c82613422565b9150613e8783613422565b925082613e9757613e9661369d565b5b60015f0383147f800000000000000000000000000000000000000000000000000000000000000083141615613ecf57613ece61360a565b5b828205905092915050565b7f426f72726f7720616d6f756e74206578636565647320636f6c6c61746572616c5f82015250565b5f613f0e6020836132fc565b9150613f1982613eda565b602082019050919050565b5f6020820190508181035f830152613f3b81613f02565b9050919050565b7f596f752063616e206e6f7420626f72726f772c20796f7572206865616c7468205f8201527f666163746f72206d7573742062652061626f7665203121000000000000000000602082015250565b5f613f9c6037836132fc565b9150613fa782613f42565b604082019050919050565b5f6020820190508181035f830152613fc981613f90565b9050919050565b7f596f752068617665206e6f742064657369676e617465642074686973207472615f8201527f6e73616374696f6e206173206120636f6c6c61746572616c0000000000000000602082015250565b5f61402a6038836132fc565b915061403582613fd0565b604082019050919050565b5f6020820190508181035f8301526140578161401e565b9050919050565b5f6140688261339c565b91506140738361339c565b9250828203905060ff81111561408c5761408b61360a565b5b9291505056fea2646970667358221220431843c46d94b2a84b71174713f58782d573f3258ad558a6bd8b8f5a14c634c564736f6c63430008180033",
			"opcodes": "PUSH1 0x80 PUSH1 0x40 MSTORE PUSH1 0x4B PUSH1 0x4 SSTORE PUSH20 0x63BE8EA7C2966B0D6B74A4773CF532B42ECD405D PUSH1 0xB PUSH0 PUSH2 0x100 EXP DUP2 SLOAD DUP2 PUSH20 0xFFFFFFFFFFFFFFFFFFFFFFFFFFFFFFFFFFFFFFFF MUL NOT AND SWAP1 DUP4 PUSH20 0xFFFFFFFFFFFFFFFFFFFFFFFFFFFFFFFFFFFFFFFF AND MUL OR SWAP1 SSTORE POP PUSH1 0x40 MLOAD PUSH3 0x47B1 CODESIZE SUB DUP1 PUSH3 0x47B1 DUP4 CODECOPY DUP2 DUP2 ADD PUSH1 0x40 MSTORE DUP2 ADD SWAP1 PUSH3 0x82 SWAP2 SWAP1 PUSH3 0x35C JUMP JUMPDEST CALLVALUE PUSH1 0x1 DUP2 SWAP1 SSTORE POP DUP2 PUSH1 0x9 SWAP1 DUP2 PUSH3 0x9A SWAP2 SWAP1 PUSH3 0x5F7 JUMP JUMPDEST POP DUP1 PUSH0 DUP1 PUSH2 0x100 EXP DUP2 SLOAD DUP2 PUSH20 0xFFFFFFFFFFFFFFFFFFFFFFFFFFFFFFFFFFFFFFFF MUL NOT AND SWAP1 DUP4 PUSH20 0xFFFFFFFFFFFFFFFFFFFFFFFFFFFFFFFFFFFFFFFF AND MUL OR SWAP1 SSTORE POP DUP1 PUSH1 0xA PUSH0 PUSH2 0x100 EXP DUP2 SLOAD DUP2 PUSH20 0xFFFFFFFFFFFFFFFFFFFFFFFFFFFFFFFFFFFFFFFF MUL NOT AND SWAP1 DUP4 PUSH20 0xFFFFFFFFFFFFFFFFFFFFFFFFFFFFFFFFFFFFFFFF AND MUL OR SWAP1 SSTORE POP PUSH20 0xC59E3633BAAC79493D908E63626716E204A45EDF PUSH1 0xC PUSH0 PUSH2 0x100 EXP DUP2 SLOAD DUP2 PUSH20 0xFFFFFFFFFFFFFFFFFFFFFFFFFFFFFFFFFFFFFFFF MUL NOT AND SWAP1 DUP4 PUSH20 0xFFFFFFFFFFFFFFFFFFFFFFFFFFFFFFFFFFFFFFFF AND MUL OR SWAP1 SSTORE POP POP POP PUSH3 0x6DB JUMP JUMPDEST PUSH0 PUSH1 0x40 MLOAD SWAP1 POP SWAP1 JUMP JUMPDEST PUSH0 DUP1 REVERT JUMPDEST PUSH0 DUP1 REVERT JUMPDEST PUSH0 DUP1 REVERT JUMPDEST PUSH0 DUP1 REVERT JUMPDEST PUSH0 PUSH1 0x1F NOT PUSH1 0x1F DUP4 ADD AND SWAP1 POP SWAP2 SWAP1 POP JUMP JUMPDEST PUSH32 0x4E487B7100000000000000000000000000000000000000000000000000000000 PUSH0 MSTORE PUSH1 0x41 PUSH1 0x4 MSTORE PUSH1 0x24 PUSH0 REVERT JUMPDEST PUSH3 0x1D7 DUP3 PUSH3 0x18F JUMP JUMPDEST DUP2 ADD DUP2 DUP2 LT PUSH8 0xFFFFFFFFFFFFFFFF DUP3 GT OR ISZERO PUSH3 0x1F9 JUMPI PUSH3 0x1F8 PUSH3 0x19F JUMP JUMPDEST JUMPDEST DUP1 PUSH1 0x40 MSTORE POP POP POP JUMP JUMPDEST PUSH0 PUSH3 0x20D PUSH3 0x176 JUMP JUMPDEST SWAP1 POP PUSH3 0x21B DUP3 DUP3 PUSH3 0x1CC JUMP JUMPDEST SWAP2 SWAP1 POP JUMP JUMPDEST PUSH0 PUSH8 0xFFFFFFFFFFFFFFFF DUP3 GT ISZERO PUSH3 0x23D JUMPI PUSH3 0x23C PUSH3 0x19F JUMP JUMPDEST JUMPDEST PUSH3 0x248 DUP3 PUSH3 0x18F JUMP JUMPDEST SWAP1 POP PUSH1 0x20 DUP2 ADD SWAP1 POP SWAP2 SWAP1 POP JUMP JUMPDEST PUSH0 JUMPDEST DUP4 DUP2 LT ISZERO PUSH3 0x274 JUMPI DUP1 DUP3 ADD MLOAD DUP2 DUP5 ADD MSTORE PUSH1 0x20 DUP2 ADD SWAP1 POP PUSH3 0x257 JUMP JUMPDEST PUSH0 DUP5 DUP5 ADD MSTORE POP POP POP POP JUMP JUMPDEST PUSH0 PUSH3 0x295 PUSH3 0x28F DUP5 PUSH3 0x220 JUMP JUMPDEST PUSH3 0x202 JUMP JUMPDEST SWAP1 POP DUP3 DUP2 MSTORE PUSH1 0x20 DUP2 ADD DUP5 DUP5 DUP5 ADD GT ISZERO PUSH3 0x2B4 JUMPI PUSH3 0x2B3 PUSH3 0x18B JUMP JUMPDEST JUMPDEST PUSH3 0x2C1 DUP5 DUP3 DUP6 PUSH3 0x255 JUMP JUMPDEST POP SWAP4 SWAP3 POP POP POP JUMP JUMPDEST PUSH0 DUP3 PUSH1 0x1F DUP4 ADD SLT PUSH3 0x2E0 JUMPI PUSH3 0x2DF PUSH3 0x187 JUMP JUMPDEST JUMPDEST DUP2 MLOAD PUSH3 0x2F2 DUP5 DUP3 PUSH1 0x20 DUP7 ADD PUSH3 0x27F JUMP JUMPDEST SWAP2 POP POP SWAP3 SWAP2 POP POP JUMP JUMPDEST PUSH0 PUSH20 0xFFFFFFFFFFFFFFFFFFFFFFFFFFFFFFFFFFFFFFFF DUP3 AND SWAP1 POP SWAP2 SWAP1 POP JUMP JUMPDEST PUSH0 PUSH3 0x326 DUP3 PUSH3 0x2FB JUMP JUMPDEST SWAP1 POP SWAP2 SWAP1 POP JUMP JUMPDEST PUSH3 0x338 DUP2 PUSH3 0x31A JUMP JUMPDEST DUP2 EQ PUSH3 0x343 JUMPI PUSH0 DUP1 REVERT JUMPDEST POP JUMP JUMPDEST PUSH0 DUP2 MLOAD SWAP1 POP PUSH3 0x356 DUP2 PUSH3 0x32D JUMP JUMPDEST SWAP3 SWAP2 POP POP JUMP JUMPDEST PUSH0 DUP1 PUSH1 0x40 DUP4 DUP6 SUB SLT ISZERO PUSH3 0x375 JUMPI PUSH3 0x374 PUSH3 0x17F JUMP JUMPDEST JUMPDEST PUSH0 DUP4 ADD MLOAD PUSH8 0xFFFFFFFFFFFFFFFF DUP2 GT ISZERO PUSH3 0x395 JUMPI PUSH3 0x394 PUSH3 0x183 JUMP JUMPDEST JUMPDEST PUSH3 0x3A3 DUP6 DUP3 DUP7 ADD PUSH3 0x2C9 JUMP JUMPDEST SWAP3 POP POP PUSH1 0x20 PUSH3 0x3B6 DUP6 DUP3 DUP7 ADD PUSH3 0x346 JUMP JUMPDEST SWAP2 POP POP SWAP3 POP SWAP3 SWAP1 POP JUMP JUMPDEST PUSH0 DUP2 MLOAD SWAP1 POP SWAP2 SWAP1 POP JUMP JUMPDEST PUSH32 0x4E487B7100000000000000000000000000000000000000000000000000000000 PUSH0 MSTORE PUSH1 0x22 PUSH1 0x4 MSTORE PUSH1 0x24 PUSH0 REVERT JUMPDEST PUSH0 PUSH1 0x2 DUP3 DIV SWAP1 POP PUSH1 0x1 DUP3 AND DUP1 PUSH3 0x40F JUMPI PUSH1 0x7F DUP3 AND SWAP2 POP JUMPDEST PUSH1 0x20 DUP3 LT DUP2 SUB PUSH3 0x425 JUMPI PUSH3 0x424 PUSH3 0x3CA JUMP JUMPDEST JUMPDEST POP SWAP2 SWAP1 POP JUMP JUMPDEST PUSH0 DUP2 SWAP1 POP DUP2 PUSH0 MSTORE PUSH1 0x20 PUSH0 KECCAK256 SWAP1 POP SWAP2 SWAP1 POP JUMP JUMPDEST PUSH0 PUSH1 0x20 PUSH1 0x1F DUP4 ADD DIV SWAP1 POP SWAP2 SWAP1 POP JUMP JUMPDEST PUSH0 DUP3 DUP3 SHL SWAP1 POP SWAP3 SWAP2 POP POP JUMP JUMPDEST PUSH0 PUSH1 0x8 DUP4 MUL PUSH3 0x489 PUSH32 0xFFFFFFFFFFFFFFFFFFFFFFFFFFFFFFFFFFFFFFFFFFFFFFFFFFFFFFFFFFFFFFFF DUP3 PUSH3 0x44C JUMP JUMPDEST PUSH3 0x495 DUP7 DUP4 PUSH3 0x44C JUMP JUMPDEST SWAP6 POP DUP1 NOT DUP5 AND SWAP4 POP DUP1 DUP7 AND DUP5 OR SWAP3 POP POP POP SWAP4 SWAP3 POP POP POP JUMP JUMPDEST PUSH0 DUP2 SWAP1 POP SWAP2 SWAP1 POP JUMP JUMPDEST PUSH0 DUP2 SWAP1 POP SWAP2 SWAP1 POP JUMP JUMPDEST PUSH0 PUSH3 0x4DF PUSH3 0x4D9 PUSH3 0x4D3 DUP5 PUSH3 0x4AD JUMP JUMPDEST PUSH3 0x4B6 JUMP JUMPDEST PUSH3 0x4AD JUMP JUMPDEST SWAP1 POP SWAP2 SWAP1 POP JUMP JUMPDEST PUSH0 DUP2 SWAP1 POP SWAP2 SWAP1 POP JUMP JUMPDEST PUSH3 0x4FA DUP4 PUSH3 0x4BF JUMP JUMPDEST PUSH3 0x512 PUSH3 0x509 DUP3 PUSH3 0x4E6 JUMP JUMPDEST DUP5 DUP5 SLOAD PUSH3 0x458 JUMP JUMPDEST DUP3 SSTORE POP POP POP POP JUMP JUMPDEST PUSH0 SWAP1 JUMP JUMPDEST PUSH3 0x528 PUSH3 0x51A JUMP JUMPDEST PUSH3 0x535 DUP2 DUP5 DUP5 PUSH3 0x4EF JUMP JUMPDEST POP POP POP JUMP JUMPDEST JUMPDEST DUP2 DUP2 LT ISZERO PUSH3 0x55C JUMPI PUSH3 0x550 PUSH0 DUP3 PUSH3 0x51E JUMP JUMPDEST PUSH1 0x1 DUP2 ADD SWAP1 POP PUSH3 0x53B JUMP JUMPDEST POP POP JUMP JUMPDEST PUSH1 0x1F DUP3 GT ISZERO PUSH3 0x5AB JUMPI PUSH3 0x575 DUP2 PUSH3 0x42B JUMP JUMPDEST PUSH3 0x580 DUP5 PUSH3 0x43D JUMP JUMPDEST DUP2 ADD PUSH1 0x20 DUP6 LT ISZERO PUSH3 0x590 JUMPI DUP2 SWAP1 POP JUMPDEST PUSH3 0x5A8 PUSH3 0x59F DUP6 PUSH3 0x43D JUMP JUMPDEST DUP4 ADD DUP3 PUSH3 0x53A JUMP JUMPDEST POP POP JUMPDEST POP POP POP JUMP JUMPDEST PUSH0 DUP3 DUP3 SHR SWAP1 POP SWAP3 SWAP2 POP POP JUMP JUMPDEST PUSH0 PUSH3 0x5CD PUSH0 NOT DUP5 PUSH1 0x8 MUL PUSH3 0x5B0 JUMP JUMPDEST NOT DUP1 DUP4 AND SWAP2 POP POP SWAP3 SWAP2 POP POP JUMP JUMPDEST PUSH0 PUSH3 0x5E7 DUP4 DUP4 PUSH3 0x5BC JUMP JUMPDEST SWAP2 POP DUP3 PUSH1 0x2 MUL DUP3 OR SWAP1 POP SWAP3 SWAP2 POP POP JUMP JUMPDEST PUSH3 0x602 DUP3 PUSH3 0x3C0 JUMP JUMPDEST PUSH8 0xFFFFFFFFFFFFFFFF DUP2 GT ISZERO PUSH3 0x61E JUMPI PUSH3 0x61D PUSH3 0x19F JUMP JUMPDEST JUMPDEST PUSH3 0x62A DUP3 SLOAD PUSH3 0x3F7 JUMP JUMPDEST PUSH3 0x637 DUP3 DUP3 DUP6 PUSH3 0x560 JUMP JUMPDEST PUSH0 PUSH1 0x20 SWAP1 POP PUSH1 0x1F DUP4 GT PUSH1 0x1 DUP2 EQ PUSH3 0x66D JUMPI PUSH0 DUP5 ISZERO PUSH3 0x658 JUMPI DUP3 DUP8 ADD MLOAD SWAP1 POP JUMPDEST PUSH3 0x664 DUP6 DUP3 PUSH3 0x5DA JUMP JUMPDEST DUP7 SSTORE POP PUSH3 0x6D3 JUMP JUMPDEST PUSH1 0x1F NOT DUP5 AND PUSH3 0x67D DUP7 PUSH3 0x42B JUMP JUMPDEST PUSH0 JUMPDEST DUP3 DUP2 LT ISZERO PUSH3 0x6A6 JUMPI DUP5 DUP10 ADD MLOAD DUP3 SSTORE PUSH1 0x1 DUP3 ADD SWAP2 POP PUSH1 0x20 DUP6 ADD SWAP5 POP PUSH1 0x20 DUP2 ADD SWAP1 POP PUSH3 0x67F JUMP JUMPDEST DUP7 DUP4 LT ISZERO PUSH3 0x6C6 JUMPI DUP5 DUP10 ADD MLOAD PUSH3 0x6C2 PUSH1 0x1F DUP10 AND DUP3 PUSH3 0x5BC JUMP JUMPDEST DUP4 SSTORE POP JUMPDEST PUSH1 0x1 PUSH1 0x2 DUP9 MUL ADD DUP9 SSTORE POP POP POP JUMPDEST POP POP POP POP POP POP JUMP JUMPDEST PUSH2 0x40C8 DUP1 PUSH3 0x6E9 PUSH0 CODECOPY PUSH0 RETURN INVALID PUSH1 0x80 PUSH1 0x40 MSTORE PUSH1 0x4 CALLDATASIZE LT PUSH2 0x1D7 JUMPI PUSH0 CALLDATALOAD PUSH1 0xE0 SHR DUP1 PUSH4 0x8C0DB830 GT PUSH2 0x101 JUMPI DUP1 PUSH4 0xB6F7132F GT PUSH2 0x94 JUMPI DUP1 PUSH4 0xE2633637 GT PUSH2 0x63 JUMPI DUP1 PUSH4 0xE2633637 EQ PUSH2 0x68B JUMPI DUP1 PUSH4 0xF1850AF8 EQ PUSH2 0x6B5 JUMPI DUP1 PUSH4 0xF2494F3B EQ PUSH2 0x6DF JUMPI DUP1 PUSH4 0xFFF2DF2A EQ PUSH2 0x709 JUMPI PUSH2 0x1D7 JUMP JUMPDEST DUP1 PUSH4 0xB6F7132F EQ PUSH2 0x5D3 JUMPI DUP1 PUSH4 0xBEA4DFB5 EQ PUSH2 0x60F JUMPI DUP1 PUSH4 0xBF3EB03B EQ PUSH2 0x639 JUMPI DUP1 PUSH4 0xCC484C5C EQ PUSH2 0x661 JUMPI PUSH2 0x1D7 JUMP JUMPDEST DUP1 PUSH4 0xA5F352B7 GT PUSH2 0xD0 JUMPI DUP1 PUSH4 0xA5F352B7 EQ PUSH2 0x535 JUMPI DUP1 PUSH4 0xB0EB0457 EQ PUSH2 0x55F JUMPI DUP1 PUSH4 0xB176E311 EQ PUSH2 0x59B JUMPI DUP1 PUSH4 0xB6B55F25 EQ PUSH2 0x5B7 JUMPI PUSH2 0x1D7 JUMP JUMPDEST DUP1 PUSH4 0x8C0DB830 EQ PUSH2 0x47B JUMPI DUP1 PUSH4 0x97436655 EQ PUSH2 0x4A5 JUMPI DUP1 PUSH4 0x9D76EA58 EQ PUSH2 0x4E1 JUMPI DUP1 PUSH4 0xA386E8D6 EQ PUSH2 0x50B JUMPI PUSH2 0x1D7 JUMP JUMPDEST DUP1 PUSH4 0x3D4F04AD GT PUSH2 0x179 JUMPI DUP1 PUSH4 0x63F31D2C GT PUSH2 0x148 JUMPI DUP1 PUSH4 0x63F31D2C EQ PUSH2 0x3C1 JUMPI DUP1 PUSH4 0x714FEF4C EQ PUSH2 0x3EB JUMPI DUP1 PUSH4 0x7B61C320 EQ PUSH2 0x415 JUMPI DUP1 PUSH4 0x88C5BA1B EQ PUSH2 0x43F JUMPI PUSH2 0x1D7 JUMP JUMPDEST DUP1 PUSH4 0x3D4F04AD EQ PUSH2 0x309 JUMPI DUP1 PUSH4 0x4031234C EQ PUSH2 0x331 JUMPI DUP1 PUSH4 0x47734892 EQ PUSH2 0x35B JUMPI DUP1 PUSH4 0x4A417A53 EQ PUSH2 0x397 JUMPI PUSH2 0x1D7 JUMP JUMPDEST DUP1 PUSH4 0x25AF889D GT PUSH2 0x1B5 JUMPI DUP1 PUSH4 0x25AF889D EQ PUSH2 0x25D JUMPI DUP1 PUSH4 0x26BE90BF EQ PUSH2 0x299 JUMPI DUP1 PUSH4 0x2A648300 EQ PUSH2 0x2C3 JUMPI DUP1 PUSH4 0x2E1A7D4D EQ PUSH2 0x2ED JUMPI PUSH2 0x1D7 JUMP JUMPDEST DUP1 PUSH4 0xE752702 EQ PUSH2 0x1DB JUMPI DUP1 PUSH4 0x10FE9AE8 EQ PUSH2 0x1F7 JUMPI DUP1 PUSH4 0x147FDAA2 EQ PUSH2 0x221 JUMPI JUMPDEST PUSH0 DUP1 REVERT JUMPDEST PUSH2 0x1F5 PUSH1 0x4 DUP1 CALLDATASIZE SUB DUP2 ADD SWAP1 PUSH2 0x1F0 SWAP2 SWAP1 PUSH2 0x30EE JUMP JUMPDEST PUSH2 0x733 JUMP JUMPDEST STOP JUMPDEST CALLVALUE DUP1 ISZERO PUSH2 0x202 JUMPI PUSH0 DUP1 REVERT JUMPDEST POP PUSH2 0x20B PUSH2 0xD8F JUMP JUMPDEST PUSH1 0x40 MLOAD PUSH2 0x218 SWAP2 SWAP1 PUSH2 0x3158 JUMP JUMPDEST PUSH1 0x40 MLOAD DUP1 SWAP2 SUB SWAP1 RETURN JUMPDEST CALLVALUE DUP1 ISZERO PUSH2 0x22C JUMPI PUSH0 DUP1 REVERT JUMPDEST POP PUSH2 0x247 PUSH1 0x4 DUP1 CALLDATASIZE SUB DUP2 ADD SWAP1 PUSH2 0x242 SWAP2 SWAP1 PUSH2 0x319B JUMP JUMPDEST PUSH2 0xDB6 JUMP JUMPDEST PUSH1 0x40 MLOAD PUSH2 0x254 SWAP2 SWAP1 PUSH2 0x32AA JUMP JUMPDEST PUSH1 0x40 MLOAD DUP1 SWAP2 SUB SWAP1 RETURN JUMPDEST CALLVALUE DUP1 ISZERO PUSH2 0x268 JUMPI PUSH0 DUP1 REVERT JUMPDEST POP PUSH2 0x283 PUSH1 0x4 DUP1 CALLDATASIZE SUB DUP2 ADD SWAP1 PUSH2 0x27E SWAP2 SWAP1 PUSH2 0x319B JUMP JUMPDEST PUSH2 0xE62 JUMP JUMPDEST PUSH1 0x40 MLOAD PUSH2 0x290 SWAP2 SWAP1 PUSH2 0x32D9 JUMP JUMPDEST PUSH1 0x40 MLOAD DUP1 SWAP2 SUB SWAP1 RETURN JUMPDEST CALLVALUE DUP1 ISZERO PUSH2 0x2A4 JUMPI PUSH0 DUP1 REVERT JUMPDEST POP PUSH2 0x2AD PUSH2 0xEA8 JUMP JUMPDEST PUSH1 0x40 MLOAD PUSH2 0x2BA SWAP2 SWAP1 PUSH2 0x32D9 JUMP JUMPDEST PUSH1 0x40 MLOAD DUP1 SWAP2 SUB SWAP1 RETURN JUMPDEST CALLVALUE DUP1 ISZERO PUSH2 0x2CE JUMPI PUSH0 DUP1 REVERT JUMPDEST POP PUSH2 0x2D7 PUSH2 0xF46 JUMP JUMPDEST PUSH1 0x40 MLOAD PUSH2 0x2E4 SWAP2 SWAP1 PUSH2 0x32D9 JUMP JUMPDEST PUSH1 0x40 MLOAD DUP1 SWAP2 SUB SWAP1 RETURN JUMPDEST PUSH2 0x307 PUSH1 0x4 DUP1 CALLDATASIZE SUB DUP2 ADD SWAP1 PUSH2 0x302 SWAP2 SWAP1 PUSH2 0x30EE JUMP JUMPDEST PUSH2 0x1013 JUMP JUMPDEST STOP JUMPDEST CALLVALUE DUP1 ISZERO PUSH2 0x314 JUMPI PUSH0 DUP1 REVERT JUMPDEST POP PUSH2 0x32F PUSH1 0x4 DUP1 CALLDATASIZE SUB DUP2 ADD SWAP1 PUSH2 0x32A SWAP2 SWAP1 PUSH2 0x30EE JUMP JUMPDEST PUSH2 0x18CB JUMP JUMPDEST STOP JUMPDEST CALLVALUE DUP1 ISZERO PUSH2 0x33C JUMPI PUSH0 DUP1 REVERT JUMPDEST POP PUSH2 0x345 PUSH2 0x1BF8 JUMP JUMPDEST PUSH1 0x40 MLOAD PUSH2 0x352 SWAP2 SWAP1 PUSH2 0x32D9 JUMP JUMPDEST PUSH1 0x40 MLOAD DUP1 SWAP2 SUB SWAP1 RETURN JUMPDEST CALLVALUE DUP1 ISZERO PUSH2 0x366 JUMPI PUSH0 DUP1 REVERT JUMPDEST POP PUSH2 0x381 PUSH1 0x4 DUP1 CALLDATASIZE SUB DUP2 ADD SWAP1 PUSH2 0x37C SWAP2 SWAP1 PUSH2 0x319B JUMP JUMPDEST PUSH2 0x1BFE JUMP JUMPDEST PUSH1 0x40 MLOAD PUSH2 0x38E SWAP2 SWAP1 PUSH2 0x32D9 JUMP JUMPDEST PUSH1 0x40 MLOAD DUP1 SWAP2 SUB SWAP1 RETURN JUMPDEST CALLVALUE DUP1 ISZERO PUSH2 0x3A2 JUMPI PUSH0 DUP1 REVERT JUMPDEST POP PUSH2 0x3AB PUSH2 0x1C9F JUMP JUMPDEST PUSH1 0x40 MLOAD PUSH2 0x3B8 SWAP2 SWAP1 PUSH2 0x32D9 JUMP JUMPDEST PUSH1 0x40 MLOAD DUP1 SWAP2 SUB SWAP1 RETURN JUMPDEST CALLVALUE DUP1 ISZERO PUSH2 0x3CC JUMPI PUSH0 DUP1 REVERT JUMPDEST POP PUSH2 0x3D5 PUSH2 0x1CDA JUMP JUMPDEST PUSH1 0x40 MLOAD PUSH2 0x3E2 SWAP2 SWAP1 PUSH2 0x32D9 JUMP JUMPDEST PUSH1 0x40 MLOAD DUP1 SWAP2 SUB SWAP1 RETURN JUMPDEST CALLVALUE DUP1 ISZERO PUSH2 0x3F6 JUMPI PUSH0 DUP1 REVERT JUMPDEST POP PUSH2 0x3FF PUSH2 0x1CE0 JUMP JUMPDEST PUSH1 0x40 MLOAD PUSH2 0x40C SWAP2 SWAP1 PUSH2 0x32D9 JUMP JUMPDEST PUSH1 0x40 MLOAD DUP1 SWAP2 SUB SWAP1 RETURN JUMPDEST CALLVALUE DUP1 ISZERO PUSH2 0x420 JUMPI PUSH0 DUP1 REVERT JUMPDEST POP PUSH2 0x429 PUSH2 0x1CE6 JUMP JUMPDEST PUSH1 0x40 MLOAD PUSH2 0x436 SWAP2 SWAP1 PUSH2 0x337C JUMP JUMPDEST PUSH1 0x40 MLOAD DUP1 SWAP2 SUB SWAP1 RETURN JUMPDEST CALLVALUE DUP1 ISZERO PUSH2 0x44A JUMPI PUSH0 DUP1 REVERT JUMPDEST POP PUSH2 0x465 PUSH1 0x4 DUP1 CALLDATASIZE SUB DUP2 ADD SWAP1 PUSH2 0x460 SWAP2 SWAP1 PUSH2 0x319B JUMP JUMPDEST PUSH2 0x1D72 JUMP JUMPDEST PUSH1 0x40 MLOAD PUSH2 0x472 SWAP2 SWAP1 PUSH2 0x32D9 JUMP JUMPDEST PUSH1 0x40 MLOAD DUP1 SWAP2 SUB SWAP1 RETURN JUMPDEST CALLVALUE DUP1 ISZERO PUSH2 0x486 JUMPI PUSH0 DUP1 REVERT JUMPDEST POP PUSH2 0x48F PUSH2 0x1DB8 JUMP JUMPDEST PUSH1 0x40 MLOAD PUSH2 0x49C SWAP2 SWAP1 PUSH2 0x32D9 JUMP JUMPDEST PUSH1 0x40 MLOAD DUP1 SWAP2 SUB SWAP1 RETURN JUMPDEST CALLVALUE DUP1 ISZERO PUSH2 0x4B0 JUMPI PUSH0 DUP1 REVERT JUMPDEST POP PUSH2 0x4CB PUSH1 0x4 DUP1 CALLDATASIZE SUB DUP2 ADD SWAP1 PUSH2 0x4C6 SWAP2 SWAP1 PUSH2 0x33D2 JUMP JUMPDEST PUSH2 0x1DBE JUMP JUMPDEST PUSH1 0x40 MLOAD PUSH2 0x4D8 SWAP2 SWAP1 PUSH2 0x343A JUMP JUMPDEST PUSH1 0x40 MLOAD DUP1 SWAP2 SUB SWAP1 RETURN JUMPDEST CALLVALUE DUP1 ISZERO PUSH2 0x4EC JUMPI PUSH0 DUP1 REVERT JUMPDEST POP PUSH2 0x4F5 PUSH2 0x2034 JUMP JUMPDEST PUSH1 0x40 MLOAD PUSH2 0x502 SWAP2 SWAP1 PUSH2 0x3158 JUMP JUMPDEST PUSH1 0x40 MLOAD DUP1 SWAP2 SUB SWAP1 RETURN JUMPDEST CALLVALUE DUP1 ISZERO PUSH2 0x516 JUMPI PUSH0 DUP1 REVERT JUMPDEST POP PUSH2 0x51F PUSH2 0x2057 JUMP JUMPDEST PUSH1 0x40 MLOAD PUSH2 0x52C SWAP2 SWAP1 PUSH2 0x32D9 JUMP JUMPDEST PUSH1 0x40 MLOAD DUP1 SWAP2 SUB SWAP1 RETURN JUMPDEST CALLVALUE DUP1 ISZERO PUSH2 0x540 JUMPI PUSH0 DUP1 REVERT JUMPDEST POP PUSH2 0x549 PUSH2 0x2060 JUMP JUMPDEST PUSH1 0x40 MLOAD PUSH2 0x556 SWAP2 SWAP1 PUSH2 0x32D9 JUMP JUMPDEST PUSH1 0x40 MLOAD DUP1 SWAP2 SUB SWAP1 RETURN JUMPDEST CALLVALUE DUP1 ISZERO PUSH2 0x56A JUMPI PUSH0 DUP1 REVERT JUMPDEST POP PUSH2 0x585 PUSH1 0x4 DUP1 CALLDATASIZE SUB DUP2 ADD SWAP1 PUSH2 0x580 SWAP2 SWAP1 PUSH2 0x319B JUMP JUMPDEST PUSH2 0x2069 JUMP JUMPDEST PUSH1 0x40 MLOAD PUSH2 0x592 SWAP2 SWAP1 PUSH2 0x3555 JUMP JUMPDEST PUSH1 0x40 MLOAD DUP1 SWAP2 SUB SWAP1 RETURN JUMPDEST PUSH2 0x5B5 PUSH1 0x4 DUP1 CALLDATASIZE SUB DUP2 ADD SWAP1 PUSH2 0x5B0 SWAP2 SWAP1 PUSH2 0x30EE JUMP JUMPDEST PUSH2 0x212F JUMP JUMPDEST STOP JUMPDEST PUSH2 0x5D1 PUSH1 0x4 DUP1 CALLDATASIZE SUB DUP2 ADD SWAP1 PUSH2 0x5CC SWAP2 SWAP1 PUSH2 0x30EE JUMP JUMPDEST PUSH2 0x24E0 JUMP JUMPDEST STOP JUMPDEST CALLVALUE DUP1 ISZERO PUSH2 0x5DE JUMPI PUSH0 DUP1 REVERT JUMPDEST POP PUSH2 0x5F9 PUSH1 0x4 DUP1 CALLDATASIZE SUB DUP2 ADD SWAP1 PUSH2 0x5F4 SWAP2 SWAP1 PUSH2 0x319B JUMP JUMPDEST PUSH2 0x2819 JUMP JUMPDEST PUSH1 0x40 MLOAD PUSH2 0x606 SWAP2 SWAP1 PUSH2 0x32D9 JUMP JUMPDEST PUSH1 0x40 MLOAD DUP1 SWAP2 SUB SWAP1 RETURN JUMPDEST CALLVALUE DUP1 ISZERO PUSH2 0x61A JUMPI PUSH0 DUP1 REVERT JUMPDEST POP PUSH2 0x623 PUSH2 0x285F JUMP JUMPDEST PUSH1 0x40 MLOAD PUSH2 0x630 SWAP2 SWAP1 PUSH2 0x343A JUMP JUMPDEST PUSH1 0x40 MLOAD DUP1 SWAP2 SUB SWAP1 RETURN JUMPDEST CALLVALUE DUP1 ISZERO PUSH2 0x644 JUMPI PUSH0 DUP1 REVERT JUMPDEST POP PUSH2 0x65F PUSH1 0x4 DUP1 CALLDATASIZE SUB DUP2 ADD SWAP1 PUSH2 0x65A SWAP2 SWAP1 PUSH2 0x30EE JUMP JUMPDEST PUSH2 0x28FC JUMP JUMPDEST STOP JUMPDEST CALLVALUE DUP1 ISZERO PUSH2 0x66C JUMPI PUSH0 DUP1 REVERT JUMPDEST POP PUSH2 0x675 PUSH2 0x2D57 JUMP JUMPDEST PUSH1 0x40 MLOAD PUSH2 0x682 SWAP2 SWAP1 PUSH2 0x32D9 JUMP JUMPDEST PUSH1 0x40 MLOAD DUP1 SWAP2 SUB SWAP1 RETURN JUMPDEST CALLVALUE DUP1 ISZERO PUSH2 0x696 JUMPI PUSH0 DUP1 REVERT JUMPDEST POP PUSH2 0x69F PUSH2 0x2D60 JUMP JUMPDEST PUSH1 0x40 MLOAD PUSH2 0x6AC SWAP2 SWAP1 PUSH2 0x32D9 JUMP JUMPDEST PUSH1 0x40 MLOAD DUP1 SWAP2 SUB SWAP1 RETURN JUMPDEST CALLVALUE DUP1 ISZERO PUSH2 0x6C0 JUMPI PUSH0 DUP1 REVERT JUMPDEST POP PUSH2 0x6C9 PUSH2 0x2D69 JUMP JUMPDEST PUSH1 0x40 MLOAD PUSH2 0x6D6 SWAP2 SWAP1 PUSH2 0x337C JUMP JUMPDEST PUSH1 0x40 MLOAD DUP1 SWAP2 SUB SWAP1 RETURN JUMPDEST CALLVALUE DUP1 ISZERO PUSH2 0x6EA JUMPI PUSH0 DUP1 REVERT JUMPDEST POP PUSH2 0x6F3 PUSH2 0x2DF9 JUMP JUMPDEST PUSH1 0x40 MLOAD PUSH2 0x700 SWAP2 SWAP1 PUSH2 0x32D9 JUMP JUMPDEST PUSH1 0x40 MLOAD DUP1 SWAP2 SUB SWAP1 RETURN JUMPDEST CALLVALUE DUP1 ISZERO PUSH2 0x714 JUMPI PUSH0 DUP1 REVERT JUMPDEST POP PUSH2 0x71D PUSH2 0x302F JUMP JUMPDEST PUSH1 0x40 MLOAD PUSH2 0x72A SWAP2 SWAP1 PUSH2 0x32D9 JUMP JUMPDEST PUSH1 0x40 MLOAD DUP1 SWAP2 SUB SWAP1 RETURN JUMPDEST PUSH1 0xE PUSH0 CALLER PUSH20 0xFFFFFFFFFFFFFFFFFFFFFFFFFFFFFFFFFFFFFFFF AND PUSH20 0xFFFFFFFFFFFFFFFFFFFFFFFFFFFFFFFFFFFFFFFF AND DUP2 MSTORE PUSH1 0x20 ADD SWAP1 DUP2 MSTORE PUSH1 0x20 ADD PUSH0 KECCAK256 DUP1 SLOAD SWAP1 POP DUP2 LT PUSH2 0x7B5 JUMPI PUSH1 0x40 MLOAD PUSH32 0x8C379A000000000000000000000000000000000000000000000000000000000 DUP2 MSTORE PUSH1 0x4 ADD PUSH2 0x7AC SWAP1 PUSH2 0x35BF JUMP JUMPDEST PUSH1 0x40 MLOAD DUP1 SWAP2 SUB SWAP1 REVERT JUMPDEST PUSH0 PUSH1 0xE PUSH0 CALLER PUSH20 0xFFFFFFFFFFFFFFFFFFFFFFFFFFFFFFFFFFFFFFFF AND PUSH20 0xFFFFFFFFFFFFFFFFFFFFFFFFFFFFFFFFFFFFFFFF AND DUP2 MSTORE PUSH1 0x20 ADD SWAP1 DUP2 MSTORE PUSH1 0x20 ADD PUSH0 KECCAK256 DUP3 DUP2 SLOAD DUP2 LT PUSH2 0x805 JUMPI PUSH2 0x804 PUSH2 0x35DD JUMP JUMPDEST JUMPDEST SWAP1 PUSH0 MSTORE PUSH1 0x20 PUSH0 KECCAK256 SWAP1 PUSH1 0x2 MUL ADD PUSH0 ADD SLOAD SWAP1 POP DUP1 PUSH1 0x2 PUSH0 DUP3 DUP3 SLOAD PUSH2 0x827 SWAP2 SWAP1 PUSH2 0x3637 JUMP JUMPDEST SWAP3 POP POP DUP2 SWAP1 SSTORE POP DUP1 PUSH1 0x10 PUSH0 CALLER PUSH20 0xFFFFFFFFFFFFFFFFFFFFFFFFFFFFFFFFFFFFFFFF AND PUSH20 0xFFFFFFFFFFFFFFFFFFFFFFFFFFFFFFFFFFFFFFFF AND DUP2 MSTORE PUSH1 0x20 ADD SWAP1 DUP2 MSTORE PUSH1 0x20 ADD PUSH0 KECCAK256 PUSH0 DUP3 DUP3 SLOAD PUSH2 0x87A SWAP2 SWAP1 PUSH2 0x3637 JUMP JUMPDEST SWAP3 POP POP DUP2 SWAP1 SSTORE POP DUP1 PUSH1 0x3 PUSH0 DUP3 DUP3 SLOAD PUSH2 0x892 SWAP2 SWAP1 PUSH2 0x366A JUMP JUMPDEST SWAP3 POP POP DUP2 SWAP1 SSTORE POP DUP1 PUSH1 0xF PUSH0 CALLER PUSH20 0xFFFFFFFFFFFFFFFFFFFFFFFFFFFFFFFFFFFFFFFF AND PUSH20 0xFFFFFFFFFFFFFFFFFFFFFFFFFFFFFFFFFFFFFFFF AND DUP2 MSTORE PUSH1 0x20 ADD SWAP1 DUP2 MSTORE PUSH1 0x20 ADD PUSH0 KECCAK256 PUSH0 DUP3 DUP3 SLOAD PUSH2 0x8E5 SWAP2 SWAP1 PUSH2 0x366A JUMP JUMPDEST SWAP3 POP POP DUP2 SWAP1 SSTORE POP PUSH0 PUSH1 0x64 PUSH2 0x8F7 PUSH2 0x2DF9 JUMP JUMPDEST PUSH2 0x901 SWAP2 SWAP1 PUSH2 0x36CA JUMP JUMPDEST SWAP1 POP TIMESTAMP PUSH1 0x8 DUP2 SWAP1 SSTORE POP PUSH0 PUSH1 0xE PUSH0 CALLER PUSH20 0xFFFFFFFFFFFFFFFFFFFFFFFFFFFFFFFFFFFFFFFF AND PUSH20 0xFFFFFFFFFFFFFFFFFFFFFFFFFFFFFFFFFFFFFFFF AND DUP2 MSTORE PUSH1 0x20 ADD SWAP1 DUP2 MSTORE PUSH1 0x20 ADD PUSH0 KECCAK256 DUP5 DUP2 SLOAD DUP2 LT PUSH2 0x95A JUMPI PUSH2 0x959 PUSH2 0x35DD JUMP JUMPDEST JUMPDEST SWAP1 PUSH0 MSTORE PUSH1 0x20 PUSH0 KECCAK256 SWAP1 PUSH1 0x2 MUL ADD PUSH1 0x1 ADD SLOAD PUSH1 0x8 SLOAD PUSH2 0x977 SWAP2 SWAP1 PUSH2 0x3637 JUMP JUMPDEST SWAP1 POP PUSH0 PUSH4 0xBC7BF400 SWAP1 POP DUP1 DUP4 DUP4 DUP7 PUSH2 0x98F SWAP2 SWAP1 PUSH2 0x36FA JUMP JUMPDEST PUSH2 0x999 SWAP2 SWAP1 PUSH2 0x36FA JUMP JUMPDEST PUSH2 0x9A3 SWAP2 SWAP1 PUSH2 0x36CA JUMP JUMPDEST PUSH1 0x6 DUP2 SWAP1 SSTORE POP PUSH0 PUSH1 0x10 PUSH0 CALLER PUSH20 0xFFFFFFFFFFFFFFFFFFFFFFFFFFFFFFFFFFFFFFFF AND PUSH20 0xFFFFFFFFFFFFFFFFFFFFFFFFFFFFFFFFFFFFFFFF AND DUP2 MSTORE PUSH1 0x20 ADD SWAP1 DUP2 MSTORE PUSH1 0x20 ADD PUSH0 KECCAK256 SLOAD SUB PUSH2 0xA19 JUMPI PUSH32 0xFFFFFFFFFFFFFFFFFFFFFFFFFFFFFFFFFFFFFFFFFFFFFFFFFFFFFFFFFFFFFFFF PUSH1 0x5 DUP2 SWAP1 SSTORE POP PUSH2 0xAB3 JUMP JUMPDEST PUSH1 0x10 PUSH0 CALLER PUSH20 0xFFFFFFFFFFFFFFFFFFFFFFFFFFFFFFFFFFFFFFFF AND PUSH20 0xFFFFFFFFFFFFFFFFFFFFFFFFFFFFFFFFFFFFFFFF AND DUP2 MSTORE PUSH1 0x20 ADD SWAP1 DUP2 MSTORE PUSH1 0x20 ADD PUSH0 KECCAK256 SLOAD PUSH1 0x4 SLOAD PUSH1 0xF PUSH0 CALLER PUSH20 0xFFFFFFFFFFFFFFFFFFFFFFFFFFFFFFFFFFFFFFFF AND PUSH20 0xFFFFFFFFFFFFFFFFFFFFFFFFFFFFFFFFFFFFFFFF AND DUP2 MSTORE PUSH1 0x20 ADD SWAP1 DUP2 MSTORE PUSH1 0x20 ADD PUSH0 KECCAK256 SLOAD PUSH2 0xAA2 SWAP2 SWAP1 PUSH2 0x36FA JUMP JUMPDEST PUSH2 0xAAC SWAP2 SWAP1 PUSH2 0x36CA JUMP JUMPDEST PUSH1 0x5 DUP2 SWAP1 SSTORE POP JUMPDEST PUSH0 DUP1 SLOAD SWAP1 PUSH2 0x100 EXP SWAP1 DIV PUSH20 0xFFFFFFFFFFFFFFFFFFFFFFFFFFFFFFFFFFFFFFFF AND PUSH20 0xFFFFFFFFFFFFFFFFFFFFFFFFFFFFFFFFFFFFFFFF AND PUSH4 0x23B872DD CALLER ADDRESS PUSH1 0x6 SLOAD DUP9 PUSH2 0xAFE SWAP2 SWAP1 PUSH2 0x366A JUMP JUMPDEST PUSH1 0x40 MLOAD DUP5 PUSH4 0xFFFFFFFF AND PUSH1 0xE0 SHL DUP2 MSTORE PUSH1 0x4 ADD PUSH2 0xB1C SWAP4 SWAP3 SWAP2 SWAP1 PUSH2 0x373B JUMP JUMPDEST PUSH1 0x20 PUSH1 0x40 MLOAD DUP1 DUP4 SUB DUP2 PUSH0 DUP8 GAS CALL ISZERO DUP1 ISZERO PUSH2 0xB38 JUMPI RETURNDATASIZE PUSH0 DUP1 RETURNDATACOPY RETURNDATASIZE PUSH0 REVERT JUMPDEST POP POP POP POP PUSH1 0x40 MLOAD RETURNDATASIZE PUSH1 0x1F NOT PUSH1 0x1F DUP3 ADD AND DUP3 ADD DUP1 PUSH1 0x40 MSTORE POP DUP2 ADD SWAP1 PUSH2 0xB5C SWAP2 SWAP1 PUSH2 0x379A JUMP JUMPDEST POP PUSH1 0x1 PUSH1 0xE PUSH0 CALLER PUSH20 0xFFFFFFFFFFFFFFFFFFFFFFFFFFFFFFFFFFFFFFFF AND PUSH20 0xFFFFFFFFFFFFFFFFFFFFFFFFFFFFFFFFFFFFFFFF AND DUP2 MSTORE PUSH1 0x20 ADD SWAP1 DUP2 MSTORE PUSH1 0x20 ADD PUSH0 KECCAK256 DUP1 SLOAD SWAP1 POP PUSH2 0xBAA SWAP2 SWAP1 PUSH2 0x3637 JUMP JUMPDEST DUP6 LT ISZERO PUSH2 0xCC9 JUMPI PUSH1 0xE PUSH0 CALLER PUSH20 0xFFFFFFFFFFFFFFFFFFFFFFFFFFFFFFFFFFFFFFFF AND PUSH20 0xFFFFFFFFFFFFFFFFFFFFFFFFFFFFFFFFFFFFFFFF AND DUP2 MSTORE PUSH1 0x20 ADD SWAP1 DUP2 MSTORE PUSH1 0x20 ADD PUSH0 KECCAK256 PUSH1 0x1 PUSH1 0xE PUSH0 CALLER PUSH20 0xFFFFFFFFFFFFFFFFFFFFFFFFFFFFFFFFFFFFFFFF AND PUSH20 0xFFFFFFFFFFFFFFFFFFFFFFFFFFFFFFFFFFFFFFFF AND DUP2 MSTORE PUSH1 0x20 ADD SWAP1 DUP2 MSTORE PUSH1 0x20 ADD PUSH0 KECCAK256 DUP1 SLOAD SWAP1 POP PUSH2 0xC3B SWAP2 SWAP1 PUSH2 0x3637 JUMP JUMPDEST DUP2 SLOAD DUP2 LT PUSH2 0xC4C JUMPI PUSH2 0xC4B PUSH2 0x35DD JUMP JUMPDEST JUMPDEST SWAP1 PUSH0 MSTORE PUSH1 0x20 PUSH0 KECCAK256 SWAP1 PUSH1 0x2 MUL ADD PUSH1 0xE PUSH0 CALLER PUSH20 0xFFFFFFFFFFFFFFFFFFFFFFFFFFFFFFFFFFFFFFFF AND PUSH20 0xFFFFFFFFFFFFFFFFFFFFFFFFFFFFFFFFFFFFFFFF AND DUP2 MSTORE PUSH1 0x20 ADD SWAP1 DUP2 MSTORE PUSH1 0x20 ADD PUSH0 KECCAK256 DUP7 DUP2 SLOAD DUP2 LT PUSH2 0xCA7 JUMPI PUSH2 0xCA6 PUSH2 0x35DD JUMP JUMPDEST JUMPDEST SWAP1 PUSH0 MSTORE PUSH1 0x20 PUSH0 KECCAK256 SWAP1 PUSH1 0x2 MUL ADD PUSH0 DUP3 ADD SLOAD DUP2 PUSH0 ADD SSTORE PUSH1 0x1 DUP3 ADD SLOAD DUP2 PUSH1 0x1 ADD SSTORE SWAP1 POP POP JUMPDEST PUSH1 0xE PUSH0 CALLER PUSH20 0xFFFFFFFFFFFFFFFFFFFFFFFFFFFFFFFFFFFFFFFF AND PUSH20 0xFFFFFFFFFFFFFFFFFFFFFFFFFFFFFFFFFFFFFFFF AND DUP2 MSTORE PUSH1 0x20 ADD SWAP1 DUP2 MSTORE PUSH1 0x20 ADD PUSH0 KECCAK256 DUP1 SLOAD DUP1 PUSH2 0xD16 JUMPI PUSH2 0xD15 PUSH2 0x37C5 JUMP JUMPDEST JUMPDEST PUSH1 0x1 SWAP1 SUB DUP2 DUP2 SWAP1 PUSH0 MSTORE PUSH1 0x20 PUSH0 KECCAK256 SWAP1 PUSH1 0x2 MUL ADD PUSH0 DUP1 DUP3 ADD PUSH0 SWAP1 SSTORE PUSH1 0x1 DUP3 ADD PUSH0 SWAP1 SSTORE POP POP SWAP1 SSTORE CALLER PUSH20 0xFFFFFFFFFFFFFFFFFFFFFFFFFFFFFFFFFFFFFFFF AND PUSH32 0x7D75F3F0C4B2E11033B8DB47653A591F1621EF3C685AFC24485A58C159F53D18 DUP6 PUSH1 0x40 MLOAD PUSH2 0xD80 SWAP2 SWAP1 PUSH2 0x32D9 JUMP JUMPDEST PUSH1 0x40 MLOAD DUP1 SWAP2 SUB SWAP1 LOG2 POP POP POP POP POP JUMP JUMPDEST PUSH0 DUP1 PUSH0 SWAP1 SLOAD SWAP1 PUSH2 0x100 EXP SWAP1 DIV PUSH20 0xFFFFFFFFFFFFFFFFFFFFFFFFFFFFFFFFFFFFFFFF AND SWAP1 POP SWAP1 JUMP JUMPDEST PUSH1 0x60 PUSH1 0xE PUSH0 DUP4 PUSH20 0xFFFFFFFFFFFFFFFFFFFFFFFFFFFFFFFFFFFFFFFF AND PUSH20 0xFFFFFFFFFFFFFFFFFFFFFFFFFFFFFFFFFFFFFFFF AND DUP2 MSTORE PUSH1 0x20 ADD SWAP1 DUP2 MSTORE PUSH1 0x20 ADD PUSH0 KECCAK256 DUP1 SLOAD DUP1 PUSH1 0x20 MUL PUSH1 0x20 ADD PUSH1 0x40 MLOAD SWAP1 DUP2 ADD PUSH1 0x40 MSTORE DUP1 SWAP3 SWAP2 SWAP1 DUP2 DUP2 MSTORE PUSH1 0x20 ADD PUSH0 SWAP1 JUMPDEST DUP3 DUP3 LT ISZERO PUSH2 0xE57 JUMPI DUP4 DUP3 SWAP1 PUSH0 MSTORE PUSH1 0x20 PUSH0 KECCAK256 SWAP1 PUSH1 0x2 MUL ADD PUSH1 0x40 MLOAD DUP1 PUSH1 0x40 ADD PUSH1 0x40 MSTORE SWAP1 DUP2 PUSH0 DUP3 ADD SLOAD DUP2 MSTORE PUSH1 0x20 ADD PUSH1 0x1 DUP3 ADD SLOAD DUP2 MSTORE POP POP DUP2 MSTORE PUSH1 0x20 ADD SWAP1 PUSH1 0x1 ADD SWAP1 PUSH2 0xE14 JUMP JUMPDEST POP POP POP POP SWAP1 POP SWAP2 SWAP1 POP JUMP JUMPDEST PUSH0 PUSH1 0x11 PUSH0 DUP4 PUSH20 0xFFFFFFFFFFFFFFFFFFFFFFFFFFFFFFFFFFFFFFFF AND PUSH20 0xFFFFFFFFFFFFFFFFFFFFFFFFFFFFFFFFFFFFFFFF AND DUP2 MSTORE PUSH1 0x20 ADD SWAP1 DUP2 MSTORE PUSH1 0x20 ADD PUSH0 KECCAK256 SLOAD SWAP1 POP SWAP2 SWAP1 POP JUMP JUMPDEST PUSH0 DUP1 PUSH0 SWAP1 SLOAD SWAP1 PUSH2 0x100 EXP SWAP1 DIV PUSH20 0xFFFFFFFFFFFFFFFFFFFFFFFFFFFFFFFFFFFFFFFF AND PUSH20 0xFFFFFFFFFFFFFFFFFFFFFFFFFFFFFFFFFFFFFFFF AND PUSH4 0x70A08231 ADDRESS PUSH1 0x40 MLOAD DUP3 PUSH4 0xFFFFFFFF AND PUSH1 0xE0 SHL DUP2 MSTORE PUSH1 0x4 ADD PUSH2 0xF02 SWAP2 SWAP1 PUSH2 0x3158 JUMP JUMPDEST PUSH1 0x20 PUSH1 0x40 MLOAD DUP1 DUP4 SUB DUP2 DUP7 GAS STATICCALL ISZERO DUP1 ISZERO PUSH2 0xF1D JUMPI RETURNDATASIZE PUSH0 DUP1 RETURNDATACOPY RETURNDATASIZE PUSH0 REVERT JUMPDEST POP POP POP POP PUSH1 0x40 MLOAD RETURNDATASIZE PUSH1 0x1F NOT PUSH1 0x1F DUP3 ADD AND DUP3 ADD DUP1 PUSH1 0x40 MSTORE POP DUP2 ADD SWAP1 PUSH2 0xF41 SWAP2 SWAP1 PUSH2 0x3806 JUMP JUMPDEST SWAP1 POP SWAP1 JUMP JUMPDEST PUSH0 DUP1 PUSH2 0xF50 PUSH2 0x1C9F JUMP JUMPDEST SWAP1 POP PUSH0 PUSH8 0x429D069189E0000 SWAP1 POP PUSH0 PUSH8 0xB1A2BC2EC500000 SWAP1 POP DUP2 DUP4 LT ISZERO PUSH2 0xF7E JUMPI PUSH1 0x64 SWAP4 POP POP POP POP PUSH2 0x1010 JUMP JUMPDEST DUP1 DUP4 LT ISZERO PUSH2 0x1007 JUMPI PUSH0 DUP3 DUP3 PUSH2 0xF93 SWAP2 SWAP1 PUSH2 0x3637 JUMP JUMPDEST PUSH8 0xDE0B6B3A7640000 PUSH1 0xC8 PUSH2 0x7D0 PUSH2 0xFAB SWAP2 SWAP1 PUSH2 0x3637 JUMP JUMPDEST PUSH2 0xFB5 SWAP2 SWAP1 PUSH2 0x36FA JUMP JUMPDEST PUSH2 0xFBF SWAP2 SWAP1 PUSH2 0x36CA JUMP JUMPDEST SWAP1 POP PUSH0 PUSH8 0xDE0B6B3A7640000 DUP5 DUP7 PUSH2 0xFD7 SWAP2 SWAP1 PUSH2 0x3637 JUMP JUMPDEST DUP4 PUSH2 0xFE2 SWAP2 SWAP1 PUSH2 0x36FA JUMP JUMPDEST PUSH2 0xFEC SWAP2 SWAP1 PUSH2 0x36CA JUMP JUMPDEST SWAP1 POP DUP1 PUSH1 0xC8 PUSH2 0xFFB SWAP2 SWAP1 PUSH2 0x366A JUMP JUMPDEST SWAP6 POP POP POP POP POP POP PUSH2 0x1010 JUMP JUMPDEST PUSH2 0x7D0 SWAP4 POP POP POP POP JUMPDEST SWAP1 JUMP JUMPDEST PUSH1 0xD PUSH0 CALLER PUSH20 0xFFFFFFFFFFFFFFFFFFFFFFFFFFFFFFFFFFFFFFFF AND PUSH20 0xFFFFFFFFFFFFFFFFFFFFFFFFFFFFFFFFFFFFFFFF AND DUP2 MSTORE PUSH1 0x20 ADD SWAP1 DUP2 MSTORE PUSH1 0x20 ADD PUSH0 KECCAK256 DUP1 SLOAD SWAP1 POP DUP2 LT PUSH2 0x1095 JUMPI PUSH1 0x40 MLOAD PUSH32 0x8C379A000000000000000000000000000000000000000000000000000000000 DUP2 MSTORE PUSH1 0x4 ADD PUSH2 0x108C SWAP1 PUSH2 0x387B JUMP JUMPDEST PUSH1 0x40 MLOAD DUP1 SWAP2 SUB SWAP1 REVERT JUMPDEST PUSH0 PUSH1 0xD PUSH0 CALLER PUSH20 0xFFFFFFFFFFFFFFFFFFFFFFFFFFFFFFFFFFFFFFFF AND PUSH20 0xFFFFFFFFFFFFFFFFFFFFFFFFFFFFFFFFFFFFFFFF AND DUP2 MSTORE PUSH1 0x20 ADD SWAP1 DUP2 MSTORE PUSH1 0x20 ADD PUSH0 KECCAK256 DUP3 DUP2 SLOAD DUP2 LT PUSH2 0x10E5 JUMPI PUSH2 0x10E4 PUSH2 0x35DD JUMP JUMPDEST JUMPDEST SWAP1 PUSH0 MSTORE PUSH1 0x20 PUSH0 KECCAK256 SWAP1 PUSH1 0x3 MUL ADD PUSH0 ADD SLOAD SWAP1 POP PUSH0 PUSH1 0x64 PUSH2 0x1101 PUSH2 0xF46 JUMP JUMPDEST PUSH2 0x110B SWAP2 SWAP1 PUSH2 0x36CA JUMP JUMPDEST SWAP1 POP TIMESTAMP PUSH1 0x7 DUP2 SWAP1 SSTORE POP PUSH0 PUSH1 0xD PUSH0 CALLER PUSH20 0xFFFFFFFFFFFFFFFFFFFFFFFFFFFFFFFFFFFFFFFF AND PUSH20 0xFFFFFFFFFFFFFFFFFFFFFFFFFFFFFFFFFFFFFFFF AND DUP2 MSTORE PUSH1 0x20 ADD SWAP1 DUP2 MSTORE PUSH1 0x20 ADD PUSH0 KECCAK256 DUP5 DUP2 SLOAD DUP2 LT PUSH2 0x1164 JUMPI PUSH2 0x1163 PUSH2 0x35DD JUMP JUMPDEST JUMPDEST SWAP1 PUSH0 MSTORE PUSH1 0x20 PUSH0 KECCAK256 SWAP1 PUSH1 0x3 MUL ADD PUSH1 0x2 ADD SLOAD PUSH1 0x7 SLOAD PUSH2 0x1181 SWAP2 SWAP1 PUSH2 0x3637 JUMP JUMPDEST SWAP1 POP PUSH0 PUSH4 0xBC7BF400 SWAP1 POP DUP1 DUP4 DUP4 DUP7 PUSH2 0x1199 SWAP2 SWAP1 PUSH2 0x36FA JUMP JUMPDEST PUSH2 0x11A3 SWAP2 SWAP1 PUSH2 0x36FA JUMP JUMPDEST PUSH2 0x11AD SWAP2 SWAP1 PUSH2 0x36CA JUMP JUMPDEST PUSH1 0x6 DUP2 SWAP1 SSTORE POP PUSH0 PUSH2 0x3E8 DUP6 PUSH2 0x11C2 SWAP2 SWAP1 PUSH2 0x36CA JUMP JUMPDEST SWAP1 POP PUSH0 PUSH1 0x6 SLOAD DUP3 DUP8 PUSH2 0x11D4 SWAP2 SWAP1 PUSH2 0x3637 JUMP JUMPDEST PUSH2 0x11DE SWAP2 SWAP1 PUSH2 0x3637 JUMP JUMPDEST SWAP1 POP PUSH1 0xD PUSH0 CALLER PUSH20 0xFFFFFFFFFFFFFFFFFFFFFFFFFFFFFFFFFFFFFFFF AND PUSH20 0xFFFFFFFFFFFFFFFFFFFFFFFFFFFFFFFFFFFFFFFF AND DUP2 MSTORE PUSH1 0x20 ADD SWAP1 DUP2 MSTORE PUSH1 0x20 ADD PUSH0 KECCAK256 DUP8 DUP2 SLOAD DUP2 LT PUSH2 0x122F JUMPI PUSH2 0x122E PUSH2 0x35DD JUMP JUMPDEST JUMPDEST SWAP1 PUSH0 MSTORE PUSH1 0x20 PUSH0 KECCAK256 SWAP1 PUSH1 0x3 MUL ADD PUSH1 0x1 ADD PUSH0 SWAP1 SLOAD SWAP1 PUSH2 0x100 EXP SWAP1 DIV PUSH1 0xFF AND ISZERO PUSH2 0x12BC JUMPI DUP6 PUSH1 0x3 PUSH0 DUP3 DUP3 SLOAD PUSH2 0x1261 SWAP2 SWAP1 PUSH2 0x3637 JUMP JUMPDEST SWAP3 POP POP DUP2 SWAP1 SSTORE POP DUP6 PUSH1 0xF PUSH0 CALLER PUSH20 0xFFFFFFFFFFFFFFFFFFFFFFFFFFFFFFFFFFFFFFFF AND PUSH20 0xFFFFFFFFFFFFFFFFFFFFFFFFFFFFFFFFFFFFFFFF AND DUP2 MSTORE PUSH1 0x20 ADD SWAP1 DUP2 MSTORE PUSH1 0x20 ADD PUSH0 KECCAK256 PUSH0 DUP3 DUP3 SLOAD PUSH2 0x12B4 SWAP2 SWAP1 PUSH2 0x3637 JUMP JUMPDEST SWAP3 POP POP DUP2 SWAP1 SSTORE POP JUMPDEST PUSH0 PUSH1 0x10 PUSH0 CALLER PUSH20 0xFFFFFFFFFFFFFFFFFFFFFFFFFFFFFFFFFFFFFFFF AND PUSH20 0xFFFFFFFFFFFFFFFFFFFFFFFFFFFFFFFFFFFFFFFF AND DUP2 MSTORE PUSH1 0x20 ADD SWAP1 DUP2 MSTORE PUSH1 0x20 ADD PUSH0 KECCAK256 SLOAD EQ DUP1 ISZERO PUSH2 0x1345 JUMPI POP PUSH0 PUSH1 0xF PUSH0 CALLER PUSH20 0xFFFFFFFFFFFFFFFFFFFFFFFFFFFFFFFFFFFFFFFF AND PUSH20 0xFFFFFFFFFFFFFFFFFFFFFFFFFFFFFFFFFFFFFFFF AND DUP2 MSTORE PUSH1 0x20 ADD SWAP1 DUP2 MSTORE PUSH1 0x20 ADD PUSH0 KECCAK256 SLOAD EQ ISZERO JUMPDEST ISZERO PUSH2 0x1376 JUMPI PUSH32 0xFFFFFFFFFFFFFFFFFFFFFFFFFFFFFFFFFFFFFFFFFFFFFFFFFFFFFFFFFFFFFFFF PUSH1 0x5 DUP2 SWAP1 SSTORE POP PUSH2 0x14AA JUMP JUMPDEST PUSH0 PUSH1 0x10 PUSH0 CALLER PUSH20 0xFFFFFFFFFFFFFFFFFFFFFFFFFFFFFFFFFFFFFFFF AND PUSH20 0xFFFFFFFFFFFFFFFFFFFFFFFFFFFFFFFFFFFFFFFF AND DUP2 MSTORE PUSH1 0x20 ADD SWAP1 DUP2 MSTORE PUSH1 0x20 ADD PUSH0 KECCAK256 SLOAD EQ DUP1 ISZERO PUSH2 0x13FE JUMPI POP PUSH0 PUSH1 0xF PUSH0 CALLER PUSH20 0xFFFFFFFFFFFFFFFFFFFFFFFFFFFFFFFFFFFFFFFF AND PUSH20 0xFFFFFFFFFFFFFFFFFFFFFFFFFFFFFFFFFFFFFFFF AND DUP2 MSTORE PUSH1 0x20 ADD SWAP1 DUP2 MSTORE PUSH1 0x20 ADD PUSH0 KECCAK256 SLOAD EQ JUMPDEST ISZERO PUSH2 0x140F JUMPI PUSH0 PUSH1 0x5 DUP2 SWAP1 SSTORE POP PUSH2 0x14A9 JUMP JUMPDEST PUSH1 0x10 PUSH0 CALLER PUSH20 0xFFFFFFFFFFFFFFFFFFFFFFFFFFFFFFFFFFFFFFFF AND PUSH20 0xFFFFFFFFFFFFFFFFFFFFFFFFFFFFFFFFFFFFFFFF AND DUP2 MSTORE PUSH1 0x20 ADD SWAP1 DUP2 MSTORE PUSH1 0x20 ADD PUSH0 KECCAK256 SLOAD PUSH1 0x4 SLOAD PUSH1 0xF PUSH0 CALLER PUSH20 0xFFFFFFFFFFFFFFFFFFFFFFFFFFFFFFFFFFFFFFFF AND PUSH20 0xFFFFFFFFFFFFFFFFFFFFFFFFFFFFFFFFFFFFFFFF AND DUP2 MSTORE PUSH1 0x20 ADD SWAP1 DUP2 MSTORE PUSH1 0x20 ADD PUSH0 KECCAK256 SLOAD PUSH2 0x1498 SWAP2 SWAP1 PUSH2 0x36FA JUMP JUMPDEST PUSH2 0x14A2 SWAP2 SWAP1 PUSH2 0x36CA JUMP JUMPDEST PUSH1 0x5 DUP2 SWAP1 SSTORE POP JUMPDEST JUMPDEST DUP6 PUSH1 0x1 PUSH0 DUP3 DUP3 SLOAD PUSH2 0x14BB SWAP2 SWAP1 PUSH2 0x3637 JUMP JUMPDEST SWAP3 POP POP DUP2 SWAP1 SSTORE POP DUP6 PUSH1 0x11 PUSH0 CALLER PUSH20 0xFFFFFFFFFFFFFFFFFFFFFFFFFFFFFFFFFFFFFFFF AND PUSH20 0xFFFFFFFFFFFFFFFFFFFFFFFFFFFFFFFFFFFFFFFF AND DUP2 MSTORE PUSH1 0x20 ADD SWAP1 DUP2 MSTORE PUSH1 0x20 ADD PUSH0 KECCAK256 PUSH0 DUP3 DUP3 SLOAD PUSH2 0x150E SWAP2 SWAP1 PUSH2 0x3637 JUMP JUMPDEST SWAP3 POP POP DUP2 SWAP1 SSTORE POP PUSH0 DUP1 SLOAD SWAP1 PUSH2 0x100 EXP SWAP1 DIV PUSH20 0xFFFFFFFFFFFFFFFFFFFFFFFFFFFFFFFFFFFFFFFF AND PUSH20 0xFFFFFFFFFFFFFFFFFFFFFFFFFFFFFFFFFFFFFFFF AND PUSH4 0xA9059CBB CALLER DUP4 PUSH1 0x40 MLOAD DUP4 PUSH4 0xFFFFFFFF AND PUSH1 0xE0 SHL DUP2 MSTORE PUSH1 0x4 ADD PUSH2 0x156F SWAP3 SWAP2 SWAP1 PUSH2 0x3899 JUMP JUMPDEST PUSH1 0x20 PUSH1 0x40 MLOAD DUP1 DUP4 SUB DUP2 PUSH0 DUP8 GAS CALL ISZERO DUP1 ISZERO PUSH2 0x158B JUMPI RETURNDATASIZE PUSH0 DUP1 RETURNDATACOPY RETURNDATASIZE PUSH0 REVERT JUMPDEST POP POP POP POP PUSH1 0x40 MLOAD RETURNDATASIZE PUSH1 0x1F NOT PUSH1 0x1F DUP3 ADD AND DUP3 ADD DUP1 PUSH1 0x40 MSTORE POP DUP2 ADD SWAP1 PUSH2 0x15AF SWAP2 SWAP1 PUSH2 0x379A JUMP JUMPDEST POP PUSH0 DUP1 SLOAD SWAP1 PUSH2 0x100 EXP SWAP1 DIV PUSH20 0xFFFFFFFFFFFFFFFFFFFFFFFFFFFFFFFFFFFFFFFF AND PUSH20 0xFFFFFFFFFFFFFFFFFFFFFFFFFFFFFFFFFFFFFFFF AND PUSH4 0xA9059CBB PUSH1 0xB PUSH0 SWAP1 SLOAD SWAP1 PUSH2 0x100 EXP SWAP1 DIV PUSH20 0xFFFFFFFFFFFFFFFFFFFFFFFFFFFFFFFFFFFFFFFF AND DUP5 PUSH1 0x40 MLOAD DUP4 PUSH4 0xFFFFFFFF AND PUSH1 0xE0 SHL DUP2 MSTORE PUSH1 0x4 ADD PUSH2 0x162B SWAP3 SWAP2 SWAP1 PUSH2 0x3899 JUMP JUMPDEST PUSH1 0x20 PUSH1 0x40 MLOAD DUP1 DUP4 SUB DUP2 PUSH0 DUP8 GAS CALL ISZERO DUP1 ISZERO PUSH2 0x1647 JUMPI RETURNDATASIZE PUSH0 DUP1 RETURNDATACOPY RETURNDATASIZE PUSH0 REVERT JUMPDEST POP POP POP POP PUSH1 0x40 MLOAD RETURNDATASIZE PUSH1 0x1F NOT PUSH1 0x1F DUP3 ADD AND DUP3 ADD DUP1 PUSH1 0x40 MSTORE POP DUP2 ADD SWAP1 PUSH2 0x166B SWAP2 SWAP1 PUSH2 0x379A JUMP JUMPDEST POP PUSH1 0x1 PUSH1 0xD PUSH0 CALLER PUSH20 0xFFFFFFFFFFFFFFFFFFFFFFFFFFFFFFFFFFFFFFFF AND PUSH20 0xFFFFFFFFFFFFFFFFFFFFFFFFFFFFFFFFFFFFFFFF AND DUP2 MSTORE PUSH1 0x20 ADD SWAP1 DUP2 MSTORE PUSH1 0x20 ADD PUSH0 KECCAK256 DUP1 SLOAD SWAP1 POP PUSH2 0x16B9 SWAP2 SWAP1 PUSH2 0x3637 JUMP JUMPDEST DUP8 LT ISZERO PUSH2 0x1803 JUMPI PUSH1 0xD PUSH0 CALLER PUSH20 0xFFFFFFFFFFFFFFFFFFFFFFFFFFFFFFFFFFFFFFFF AND PUSH20 0xFFFFFFFFFFFFFFFFFFFFFFFFFFFFFFFFFFFFFFFF AND DUP2 MSTORE PUSH1 0x20 ADD SWAP1 DUP2 MSTORE PUSH1 0x20 ADD PUSH0 KECCAK256 PUSH1 0x1 PUSH1 0xD PUSH0 CALLER PUSH20 0xFFFFFFFFFFFFFFFFFFFFFFFFFFFFFFFFFFFFFFFF AND PUSH20 0xFFFFFFFFFFFFFFFFFFFFFFFFFFFFFFFFFFFFFFFF AND DUP2 MSTORE PUSH1 0x20 ADD SWAP1 DUP2 MSTORE PUSH1 0x20 ADD PUSH0 KECCAK256 DUP1 SLOAD SWAP1 POP PUSH2 0x174A SWAP2 SWAP1 PUSH2 0x3637 JUMP JUMPDEST DUP2 SLOAD DUP2 LT PUSH2 0x175B JUMPI PUSH2 0x175A PUSH2 0x35DD JUMP JUMPDEST JUMPDEST SWAP1 PUSH0 MSTORE PUSH1 0x20 PUSH0 KECCAK256 SWAP1 PUSH1 0x3 MUL ADD PUSH1 0xD PUSH0 CALLER PUSH20 0xFFFFFFFFFFFFFFFFFFFFFFFFFFFFFFFFFFFFFFFF AND PUSH20 0xFFFFFFFFFFFFFFFFFFFFFFFFFFFFFFFFFFFFFFFF AND DUP2 MSTORE PUSH1 0x20 ADD SWAP1 DUP2 MSTORE PUSH1 0x20 ADD PUSH0 KECCAK256 DUP9 DUP2 SLOAD DUP2 LT PUSH2 0x17B6 JUMPI PUSH2 0x17B5 PUSH2 0x35DD JUMP JUMPDEST JUMPDEST SWAP1 PUSH0 MSTORE PUSH1 0x20 PUSH0 KECCAK256 SWAP1 PUSH1 0x3 MUL ADD PUSH0 DUP3 ADD SLOAD DUP2 PUSH0 ADD SSTORE PUSH1 0x1 DUP3 ADD PUSH0 SWAP1 SLOAD SWAP1 PUSH2 0x100 EXP SWAP1 DIV PUSH1 0xFF AND DUP2 PUSH1 0x1 ADD PUSH0 PUSH2 0x100 EXP DUP2 SLOAD DUP2 PUSH1 0xFF MUL NOT AND SWAP1 DUP4 ISZERO ISZERO MUL OR SWAP1 SSTORE POP PUSH1 0x2 DUP3 ADD SLOAD DUP2 PUSH1 0x2 ADD SSTORE SWAP1 POP POP JUMPDEST PUSH1 0xD PUSH0 CALLER PUSH20 0xFFFFFFFFFFFFFFFFFFFFFFFFFFFFFFFFFFFFFFFF AND PUSH20 0xFFFFFFFFFFFFFFFFFFFFFFFFFFFFFFFFFFFFFFFF AND DUP2 MSTORE PUSH1 0x20 ADD SWAP1 DUP2 MSTORE PUSH1 0x20 ADD PUSH0 KECCAK256 DUP1 SLOAD DUP1 PUSH2 0x1850 JUMPI PUSH2 0x184F PUSH2 0x37C5 JUMP JUMPDEST JUMPDEST PUSH1 0x1 SWAP1 SUB DUP2 DUP2 SWAP1 PUSH0 MSTORE PUSH1 0x20 PUSH0 KECCAK256 SWAP1 PUSH1 0x3 MUL ADD PUSH0 DUP1 DUP3 ADD PUSH0 SWAP1 SSTORE PUSH1 0x1 DUP3 ADD PUSH0 PUSH2 0x100 EXP DUP2 SLOAD SWAP1 PUSH1 0xFF MUL NOT AND SWAP1 SSTORE PUSH1 0x2 DUP3 ADD PUSH0 SWAP1 SSTORE POP POP SWAP1 SSTORE PUSH32 0xDF273CB619D95419A9CD0EC88123A0538C85064229BAA6363788F743FFF90DEB CALLER DUP3 DUP5 PUSH1 0x40 MLOAD PUSH2 0x18BA SWAP4 SWAP3 SWAP2 SWAP1 PUSH2 0x38C0 JUMP JUMPDEST PUSH1 0x40 MLOAD DUP1 SWAP2 SUB SWAP1 LOG1 POP POP POP POP POP POP POP JUMP JUMPDEST PUSH1 0xD PUSH0 CALLER PUSH20 0xFFFFFFFFFFFFFFFFFFFFFFFFFFFFFFFFFFFFFFFF AND PUSH20 0xFFFFFFFFFFFFFFFFFFFFFFFFFFFFFFFFFFFFFFFF AND DUP2 MSTORE PUSH1 0x20 ADD SWAP1 DUP2 MSTORE PUSH1 0x20 ADD PUSH0 KECCAK256 DUP1 SLOAD SWAP1 POP DUP2 LT PUSH2 0x194D JUMPI PUSH1 0x40 MLOAD PUSH32 0x8C379A000000000000000000000000000000000000000000000000000000000 DUP2 MSTORE PUSH1 0x4 ADD PUSH2 0x1944 SWAP1 PUSH2 0x393F JUMP JUMPDEST PUSH1 0x40 MLOAD DUP1 SWAP2 SUB SWAP1 REVERT JUMPDEST PUSH0 PUSH1 0xD PUSH0 CALLER PUSH20 0xFFFFFFFFFFFFFFFFFFFFFFFFFFFFFFFFFFFFFFFF AND PUSH20 0xFFFFFFFFFFFFFFFFFFFFFFFFFFFFFFFFFFFFFFFF AND DUP2 MSTORE PUSH1 0x20 ADD SWAP1 DUP2 MSTORE PUSH1 0x20 ADD PUSH0 KECCAK256 DUP3 DUP2 SLOAD DUP2 LT PUSH2 0x199D JUMPI PUSH2 0x199C PUSH2 0x35DD JUMP JUMPDEST JUMPDEST SWAP1 PUSH0 MSTORE PUSH1 0x20 PUSH0 KECCAK256 SWAP1 PUSH1 0x3 MUL ADD SWAP1 POP PUSH0 ISZERO ISZERO DUP2 PUSH1 0x1 ADD PUSH0 SWAP1 SLOAD SWAP1 PUSH2 0x100 EXP SWAP1 DIV PUSH1 0xFF AND ISZERO ISZERO EQ PUSH2 0x1A01 JUMPI PUSH1 0x40 MLOAD PUSH32 0x8C379A000000000000000000000000000000000000000000000000000000000 DUP2 MSTORE PUSH1 0x4 ADD PUSH2 0x19F8 SWAP1 PUSH2 0x39CD JUMP JUMPDEST PUSH1 0x40 MLOAD DUP1 SWAP2 SUB SWAP1 REVERT JUMPDEST PUSH0 PUSH1 0x10 PUSH0 CALLER PUSH20 0xFFFFFFFFFFFFFFFFFFFFFFFFFFFFFFFFFFFFFFFF AND PUSH20 0xFFFFFFFFFFFFFFFFFFFFFFFFFFFFFFFFFFFFFFFF AND DUP2 MSTORE PUSH1 0x20 ADD SWAP1 DUP2 MSTORE PUSH1 0x20 ADD PUSH0 KECCAK256 SLOAD SUB PUSH2 0x1A71 JUMPI PUSH32 0xFFFFFFFFFFFFFFFFFFFFFFFFFFFFFFFFFFFFFFFFFFFFFFFFFFFFFFFFFFFFFFFF PUSH1 0x5 DUP2 SWAP1 SSTORE POP PUSH2 0x1B0B JUMP JUMPDEST PUSH1 0x10 PUSH0 CALLER PUSH20 0xFFFFFFFFFFFFFFFFFFFFFFFFFFFFFFFFFFFFFFFF AND PUSH20 0xFFFFFFFFFFFFFFFFFFFFFFFFFFFFFFFFFFFFFFFF AND DUP2 MSTORE PUSH1 0x20 ADD SWAP1 DUP2 MSTORE PUSH1 0x20 ADD PUSH0 KECCAK256 SLOAD PUSH1 0x4 SLOAD PUSH1 0xF PUSH0 CALLER PUSH20 0xFFFFFFFFFFFFFFFFFFFFFFFFFFFFFFFFFFFFFFFF AND PUSH20 0xFFFFFFFFFFFFFFFFFFFFFFFFFFFFFFFFFFFFFFFF AND DUP2 MSTORE PUSH1 0x20 ADD SWAP1 DUP2 MSTORE PUSH1 0x20 ADD PUSH0 KECCAK256 SLOAD PUSH2 0x1AFA SWAP2 SWAP1 PUSH2 0x36FA JUMP JUMPDEST PUSH2 0x1B04 SWAP2 SWAP1 PUSH2 0x36CA JUMP JUMPDEST PUSH1 0x5 DUP2 SWAP1 SSTORE POP JUMPDEST PUSH1 0x64 PUSH1 0x5 SLOAD GT PUSH2 0x1B50 JUMPI PUSH1 0x40 MLOAD PUSH32 0x8C379A000000000000000000000000000000000000000000000000000000000 DUP2 MSTORE PUSH1 0x4 ADD PUSH2 0x1B47 SWAP1 PUSH2 0x3A81 JUMP JUMPDEST PUSH1 0x40 MLOAD DUP1 SWAP2 SUB SWAP1 REVERT JUMPDEST PUSH1 0x1 DUP2 PUSH1 0x1 ADD PUSH0 PUSH2 0x100 EXP DUP2 SLOAD DUP2 PUSH1 0xFF MUL NOT AND SWAP1 DUP4 ISZERO ISZERO MUL OR SWAP1 SSTORE POP DUP1 PUSH1 0x1 ADD PUSH0 SWAP1 SLOAD SWAP1 PUSH2 0x100 EXP SWAP1 DIV PUSH1 0xFF AND ISZERO PUSH2 0x1BF4 JUMPI DUP1 PUSH0 ADD SLOAD PUSH1 0xF PUSH0 CALLER PUSH20 0xFFFFFFFFFFFFFFFFFFFFFFFFFFFFFFFFFFFFFFFF AND PUSH20 0xFFFFFFFFFFFFFFFFFFFFFFFFFFFFFFFFFFFFFFFF AND DUP2 MSTORE PUSH1 0x20 ADD SWAP1 DUP2 MSTORE PUSH1 0x20 ADD PUSH0 KECCAK256 PUSH0 DUP3 DUP3 SLOAD PUSH2 0x1BD1 SWAP2 SWAP1 PUSH2 0x366A JUMP JUMPDEST SWAP3 POP POP DUP2 SWAP1 SSTORE POP DUP1 PUSH0 ADD SLOAD PUSH1 0x3 PUSH0 DUP3 DUP3 SLOAD PUSH2 0x1BEC SWAP2 SWAP1 PUSH2 0x366A JUMP JUMPDEST SWAP3 POP POP DUP2 SWAP1 SSTORE POP JUMPDEST POP POP JUMP JUMPDEST PUSH1 0x4 SLOAD DUP2 JUMP JUMPDEST PUSH0 PUSH1 0xA PUSH0 SWAP1 SLOAD SWAP1 PUSH2 0x100 EXP SWAP1 DIV PUSH20 0xFFFFFFFFFFFFFFFFFFFFFFFFFFFFFFFFFFFFFFFF AND PUSH20 0xFFFFFFFFFFFFFFFFFFFFFFFFFFFFFFFFFFFFFFFF AND PUSH4 0x70A08231 DUP4 PUSH1 0x40 MLOAD DUP3 PUSH4 0xFFFFFFFF AND PUSH1 0xE0 SHL DUP2 MSTORE PUSH1 0x4 ADD PUSH2 0x1C59 SWAP2 SWAP1 PUSH2 0x3158 JUMP JUMPDEST PUSH1 0x20 PUSH1 0x40 MLOAD DUP1 DUP4 SUB DUP2 DUP7 GAS STATICCALL ISZERO DUP1 ISZERO PUSH2 0x1C74 JUMPI RETURNDATASIZE PUSH0 DUP1 RETURNDATACOPY RETURNDATASIZE PUSH0 REVERT JUMPDEST POP POP POP POP PUSH1 0x40 MLOAD RETURNDATASIZE PUSH1 0x1F NOT PUSH1 0x1F DUP3 ADD AND DUP3 ADD DUP1 PUSH1 0x40 MSTORE POP DUP2 ADD SWAP1 PUSH2 0x1C98 SWAP2 SWAP1 PUSH2 0x3806 JUMP JUMPDEST SWAP1 POP SWAP2 SWAP1 POP JUMP JUMPDEST PUSH0 DUP1 PUSH1 0x1 SLOAD SUB PUSH2 0x1CB1 JUMPI PUSH0 SWAP1 POP PUSH2 0x1CD7 JUMP JUMPDEST PUSH1 0x1 SLOAD PUSH8 0xDE0B6B3A7640000 PUSH1 0x2 SLOAD PUSH2 0x1CCA SWAP2 SWAP1 PUSH2 0x36FA JUMP JUMPDEST PUSH2 0x1CD4 SWAP2 SWAP1 PUSH2 0x36CA JUMP JUMPDEST SWAP1 POP JUMPDEST SWAP1 JUMP JUMPDEST PUSH1 0x3 SLOAD DUP2 JUMP JUMPDEST PUSH1 0x7 SLOAD DUP2 JUMP JUMPDEST PUSH1 0x9 DUP1 SLOAD PUSH2 0x1CF3 SWAP1 PUSH2 0x3ACC JUMP JUMPDEST DUP1 PUSH1 0x1F ADD PUSH1 0x20 DUP1 SWAP2 DIV MUL PUSH1 0x20 ADD PUSH1 0x40 MLOAD SWAP1 DUP2 ADD PUSH1 0x40 MSTORE DUP1 SWAP3 SWAP2 SWAP1 DUP2 DUP2 MSTORE PUSH1 0x20 ADD DUP3 DUP1 SLOAD PUSH2 0x1D1F SWAP1 PUSH2 0x3ACC JUMP JUMPDEST DUP1 ISZERO PUSH2 0x1D6A JUMPI DUP1 PUSH1 0x1F LT PUSH2 0x1D41 JUMPI PUSH2 0x100 DUP1 DUP4 SLOAD DIV MUL DUP4 MSTORE SWAP2 PUSH1 0x20 ADD SWAP2 PUSH2 0x1D6A JUMP JUMPDEST DUP3 ADD SWAP2 SWAP1 PUSH0 MSTORE PUSH1 0x20 PUSH0 KECCAK256 SWAP1 JUMPDEST DUP2 SLOAD DUP2 MSTORE SWAP1 PUSH1 0x1 ADD SWAP1 PUSH1 0x20 ADD DUP1 DUP4 GT PUSH2 0x1D4D JUMPI DUP3 SWAP1 SUB PUSH1 0x1F AND DUP3 ADD SWAP2 JUMPDEST POP POP POP POP POP DUP2 JUMP JUMPDEST PUSH0 PUSH1 0x10 PUSH0 DUP4 PUSH20 0xFFFFFFFFFFFFFFFFFFFFFFFFFFFFFFFFFFFFFFFF AND PUSH20 0xFFFFFFFFFFFFFFFFFFFFFFFFFFFFFFFFFFFFFFFF AND DUP2 MSTORE PUSH1 0x20 ADD SWAP1 DUP2 MSTORE PUSH1 0x20 ADD PUSH0 KECCAK256 SLOAD SWAP1 POP SWAP2 SWAP1 POP JUMP JUMPDEST PUSH1 0x8 SLOAD DUP2 JUMP JUMPDEST PUSH0 DUP1 PUSH1 0xFF AND DUP3 PUSH1 0xFF AND GT DUP1 ISZERO PUSH2 0x1DDB JUMPI POP PUSH1 0x12 PUSH1 0xFF AND DUP3 PUSH1 0xFF AND GT ISZERO JUMPDEST PUSH2 0x1E1A JUMPI PUSH1 0x40 MLOAD PUSH32 0x8C379A000000000000000000000000000000000000000000000000000000000 DUP2 MSTORE PUSH1 0x4 ADD PUSH2 0x1E11 SWAP1 PUSH2 0x3B46 JUMP JUMPDEST PUSH1 0x40 MLOAD DUP1 SWAP2 SUB SWAP1 REVERT JUMPDEST PUSH0 DUP3 PUSH1 0xFF AND PUSH1 0xA PUSH2 0x1E2B SWAP2 SWAP1 PUSH2 0x3C93 JUMP JUMPDEST SWAP1 POP PUSH0 DUP6 PUSH20 0xFFFFFFFFFFFFFFFFFFFFFFFFFFFFFFFFFFFFFFFF AND PUSH4 0xFEAF968C PUSH1 0x40 MLOAD DUP2 PUSH4 0xFFFFFFFF AND PUSH1 0xE0 SHL DUP2 MSTORE PUSH1 0x4 ADD PUSH1 0xA0 PUSH1 0x40 MLOAD DUP1 DUP4 SUB DUP2 DUP7 GAS STATICCALL ISZERO DUP1 ISZERO PUSH2 0x1E77 JUMPI RETURNDATASIZE PUSH0 DUP1 RETURNDATACOPY RETURNDATASIZE PUSH0 REVERT JUMPDEST POP POP POP POP PUSH1 0x40 MLOAD RETURNDATASIZE PUSH1 0x1F NOT PUSH1 0x1F DUP3 ADD AND DUP3 ADD DUP1 PUSH1 0x40 MSTORE POP DUP2 ADD SWAP1 PUSH2 0x1E9B SWAP2 SWAP1 PUSH2 0x3D46 JUMP JUMPDEST POP POP POP SWAP2 POP POP PUSH0 DUP7 PUSH20 0xFFFFFFFFFFFFFFFFFFFFFFFFFFFFFFFFFFFFFFFF AND PUSH4 0x313CE567 PUSH1 0x40 MLOAD DUP2 PUSH4 0xFFFFFFFF AND PUSH1 0xE0 SHL DUP2 MSTORE PUSH1 0x4 ADD PUSH1 0x20 PUSH1 0x40 MLOAD DUP1 DUP4 SUB DUP2 DUP7 GAS STATICCALL ISZERO DUP1 ISZERO PUSH2 0x1EEB JUMPI RETURNDATASIZE PUSH0 DUP1 RETURNDATACOPY RETURNDATASIZE PUSH0 REVERT JUMPDEST POP POP POP POP PUSH1 0x40 MLOAD RETURNDATASIZE PUSH1 0x1F NOT PUSH1 0x1F DUP3 ADD AND DUP3 ADD DUP1 PUSH1 0x40 MSTORE POP DUP2 ADD SWAP1 PUSH2 0x1F0F SWAP2 SWAP1 PUSH2 0x3DD1 JUMP JUMPDEST SWAP1 POP PUSH2 0x1F1C DUP3 DUP3 DUP8 PUSH2 0x3035 JUMP JUMPDEST SWAP2 POP PUSH0 DUP7 PUSH20 0xFFFFFFFFFFFFFFFFFFFFFFFFFFFFFFFFFFFFFFFF AND PUSH4 0xFEAF968C PUSH1 0x40 MLOAD DUP2 PUSH4 0xFFFFFFFF AND PUSH1 0xE0 SHL DUP2 MSTORE PUSH1 0x4 ADD PUSH1 0xA0 PUSH1 0x40 MLOAD DUP1 DUP4 SUB DUP2 DUP7 GAS STATICCALL ISZERO DUP1 ISZERO PUSH2 0x1F68 JUMPI RETURNDATASIZE PUSH0 DUP1 RETURNDATACOPY RETURNDATASIZE PUSH0 REVERT JUMPDEST POP POP POP POP PUSH1 0x40 MLOAD RETURNDATASIZE PUSH1 0x1F NOT PUSH1 0x1F DUP3 ADD AND DUP3 ADD DUP1 PUSH1 0x40 MSTORE POP DUP2 ADD SWAP1 PUSH2 0x1F8C SWAP2 SWAP1 PUSH2 0x3D46 JUMP JUMPDEST POP POP POP SWAP2 POP POP PUSH0 DUP8 PUSH20 0xFFFFFFFFFFFFFFFFFFFFFFFFFFFFFFFFFFFFFFFF AND PUSH4 0x313CE567 PUSH1 0x40 MLOAD DUP2 PUSH4 0xFFFFFFFF AND PUSH1 0xE0 SHL DUP2 MSTORE PUSH1 0x4 ADD PUSH1 0x20 PUSH1 0x40 MLOAD DUP1 DUP4 SUB DUP2 DUP7 GAS STATICCALL ISZERO DUP1 ISZERO PUSH2 0x1FDC JUMPI RETURNDATASIZE PUSH0 DUP1 RETURNDATACOPY RETURNDATASIZE PUSH0 REVERT JUMPDEST POP POP POP POP PUSH1 0x40 MLOAD RETURNDATASIZE PUSH1 0x1F NOT PUSH1 0x1F DUP3 ADD AND DUP3 ADD DUP1 PUSH1 0x40 MSTORE POP DUP2 ADD SWAP1 PUSH2 0x2000 SWAP2 SWAP1 PUSH2 0x3DD1 JUMP JUMPDEST SWAP1 POP PUSH2 0x200D DUP3 DUP3 DUP10 PUSH2 0x3035 JUMP JUMPDEST SWAP2 POP DUP2 DUP6 DUP6 PUSH2 0x201C SWAP2 SWAP1 PUSH2 0x3DFC JUMP JUMPDEST PUSH2 0x2026 SWAP2 SWAP1 PUSH2 0x3E72 JUMP JUMPDEST SWAP6 POP POP POP POP POP POP SWAP4 SWAP3 POP POP POP JUMP JUMPDEST PUSH0 DUP1 SLOAD SWAP1 PUSH2 0x100 EXP SWAP1 DIV PUSH20 0xFFFFFFFFFFFFFFFFFFFFFFFFFFFFFFFFFFFFFFFF AND DUP2 JUMP JUMPDEST PUSH0 PUSH1 0x1 SLOAD SWAP1 POP SWAP1 JUMP JUMPDEST PUSH0 PUSH1 0x5 SLOAD SWAP1 POP SWAP1 JUMP JUMPDEST PUSH1 0x60 PUSH1 0xD PUSH0 DUP4 PUSH20 0xFFFFFFFFFFFFFFFFFFFFFFFFFFFFFFFFFFFFFFFF AND PUSH20 0xFFFFFFFFFFFFFFFFFFFFFFFFFFFFFFFFFFFFFFFF AND DUP2 MSTORE PUSH1 0x20 ADD SWAP1 DUP2 MSTORE PUSH1 0x20 ADD PUSH0 KECCAK256 DUP1 SLOAD DUP1 PUSH1 0x20 MUL PUSH1 0x20 ADD PUSH1 0x40 MLOAD SWAP1 DUP2 ADD PUSH1 0x40 MSTORE DUP1 SWAP3 SWAP2 SWAP1 DUP2 DUP2 MSTORE PUSH1 0x20 ADD PUSH0 SWAP1 JUMPDEST DUP3 DUP3 LT ISZERO PUSH2 0x2124 JUMPI DUP4 DUP3 SWAP1 PUSH0 MSTORE PUSH1 0x20 PUSH0 KECCAK256 SWAP1 PUSH1 0x3 MUL ADD PUSH1 0x40 MLOAD DUP1 PUSH1 0x60 ADD PUSH1 0x40 MSTORE SWAP1 DUP2 PUSH0 DUP3 ADD SLOAD DUP2 MSTORE PUSH1 0x20 ADD PUSH1 0x1 DUP3 ADD PUSH0 SWAP1 SLOAD SWAP1 PUSH2 0x100 EXP SWAP1 DIV PUSH1 0xFF AND ISZERO ISZERO ISZERO ISZERO DUP2 MSTORE PUSH1 0x20 ADD PUSH1 0x2 DUP3 ADD SLOAD DUP2 MSTORE POP POP DUP2 MSTORE PUSH1 0x20 ADD SWAP1 PUSH1 0x1 ADD SWAP1 PUSH2 0x20C7 JUMP JUMPDEST POP POP POP POP SWAP1 POP SWAP2 SWAP1 POP JUMP JUMPDEST PUSH1 0xF PUSH0 CALLER PUSH20 0xFFFFFFFFFFFFFFFFFFFFFFFFFFFFFFFFFFFFFFFF AND PUSH20 0xFFFFFFFFFFFFFFFFFFFFFFFFFFFFFFFFFFFFFFFF AND DUP2 MSTORE PUSH1 0x20 ADD SWAP1 DUP2 MSTORE PUSH1 0x20 ADD PUSH0 KECCAK256 SLOAD DUP2 GT ISZERO PUSH2 0x21AF JUMPI PUSH1 0x40 MLOAD PUSH32 0x8C379A000000000000000000000000000000000000000000000000000000000 DUP2 MSTORE PUSH1 0x4 ADD PUSH2 0x21A6 SWAP1 PUSH2 0x3F24 JUMP JUMPDEST PUSH1 0x40 MLOAD DUP1 SWAP2 SUB SWAP1 REVERT JUMPDEST PUSH0 PUSH1 0x40 MLOAD DUP1 PUSH1 0x40 ADD PUSH1 0x40 MSTORE DUP1 DUP4 DUP2 MSTORE PUSH1 0x20 ADD TIMESTAMP DUP2 MSTORE POP SWAP1 POP PUSH1 0xE PUSH0 CALLER PUSH20 0xFFFFFFFFFFFFFFFFFFFFFFFFFFFFFFFFFFFFFFFF AND PUSH20 0xFFFFFFFFFFFFFFFFFFFFFFFFFFFFFFFFFFFFFFFF AND DUP2 MSTORE PUSH1 0x20 ADD SWAP1 DUP2 MSTORE PUSH1 0x20 ADD PUSH0 KECCAK256 DUP2 SWAP1 DUP1 PUSH1 0x1 DUP2 SLOAD ADD DUP1 DUP3 SSTORE DUP1 SWAP2 POP POP PUSH1 0x1 SWAP1 SUB SWAP1 PUSH0 MSTORE PUSH1 0x20 PUSH0 KECCAK256 SWAP1 PUSH1 0x2 MUL ADD PUSH0 SWAP1 SWAP2 SWAP1 SWAP2 SWAP1 SWAP2 POP PUSH0 DUP3 ADD MLOAD DUP2 PUSH0 ADD SSTORE PUSH1 0x20 DUP3 ADD MLOAD DUP2 PUSH1 0x1 ADD SSTORE POP POP DUP2 PUSH1 0x3 PUSH0 DUP3 DUP3 SLOAD PUSH2 0x2250 SWAP2 SWAP1 PUSH2 0x3637 JUMP JUMPDEST SWAP3 POP POP DUP2 SWAP1 SSTORE POP DUP2 PUSH1 0xF PUSH0 CALLER PUSH20 0xFFFFFFFFFFFFFFFFFFFFFFFFFFFFFFFFFFFFFFFF AND PUSH20 0xFFFFFFFFFFFFFFFFFFFFFFFFFFFFFFFFFFFFFFFF AND DUP2 MSTORE PUSH1 0x20 ADD SWAP1 DUP2 MSTORE PUSH1 0x20 ADD PUSH0 KECCAK256 PUSH0 DUP3 DUP3 SLOAD PUSH2 0x22A3 SWAP2 SWAP1 PUSH2 0x3637 JUMP JUMPDEST SWAP3 POP POP DUP2 SWAP1 SSTORE POP DUP2 PUSH1 0x2 PUSH0 DUP3 DUP3 SLOAD PUSH2 0x22BB SWAP2 SWAP1 PUSH2 0x366A JUMP JUMPDEST SWAP3 POP POP DUP2 SWAP1 SSTORE POP DUP2 PUSH1 0x10 PUSH0 CALLER PUSH20 0xFFFFFFFFFFFFFFFFFFFFFFFFFFFFFFFFFFFFFFFF AND PUSH20 0xFFFFFFFFFFFFFFFFFFFFFFFFFFFFFFFFFFFFFFFF AND DUP2 MSTORE PUSH1 0x20 ADD SWAP1 DUP2 MSTORE PUSH1 0x20 ADD PUSH0 KECCAK256 PUSH0 DUP3 DUP3 SLOAD PUSH2 0x230E SWAP2 SWAP1 PUSH2 0x366A JUMP JUMPDEST SWAP3 POP POP DUP2 SWAP1 SSTORE POP PUSH1 0x10 PUSH0 CALLER PUSH20 0xFFFFFFFFFFFFFFFFFFFFFFFFFFFFFFFFFFFFFFFF AND PUSH20 0xFFFFFFFFFFFFFFFFFFFFFFFFFFFFFFFFFFFFFFFF AND DUP2 MSTORE PUSH1 0x20 ADD SWAP1 DUP2 MSTORE PUSH1 0x20 ADD PUSH0 KECCAK256 SLOAD PUSH1 0x4 SLOAD PUSH1 0xF PUSH0 CALLER PUSH20 0xFFFFFFFFFFFFFFFFFFFFFFFFFFFFFFFFFFFFFFFF AND PUSH20 0xFFFFFFFFFFFFFFFFFFFFFFFFFFFFFFFFFFFFFFFF AND DUP2 MSTORE PUSH1 0x20 ADD SWAP1 DUP2 MSTORE PUSH1 0x20 ADD PUSH0 KECCAK256 SLOAD PUSH2 0x239E SWAP2 SWAP1 PUSH2 0x36FA JUMP JUMPDEST PUSH2 0x23A8 SWAP2 SWAP1 PUSH2 0x36CA JUMP JUMPDEST PUSH1 0x5 DUP2 SWAP1 SSTORE POP PUSH1 0x64 PUSH1 0x5 SLOAD GT PUSH2 0x23F3 JUMPI PUSH1 0x40 MLOAD PUSH32 0x8C379A000000000000000000000000000000000000000000000000000000000 DUP2 MSTORE PUSH1 0x4 ADD PUSH2 0x23EA SWAP1 PUSH2 0x3FB2 JUMP JUMPDEST PUSH1 0x40 MLOAD DUP1 SWAP2 SUB SWAP1 REVERT JUMPDEST PUSH0 DUP1 SLOAD SWAP1 PUSH2 0x100 EXP SWAP1 DIV PUSH20 0xFFFFFFFFFFFFFFFFFFFFFFFFFFFFFFFFFFFFFFFF AND PUSH20 0xFFFFFFFFFFFFFFFFFFFFFFFFFFFFFFFFFFFFFFFF AND PUSH4 0xA9059CBB CALLER DUP5 PUSH1 0x40 MLOAD DUP4 PUSH4 0xFFFFFFFF AND PUSH1 0xE0 SHL DUP2 MSTORE PUSH1 0x4 ADD PUSH2 0x244D SWAP3 SWAP2 SWAP1 PUSH2 0x3899 JUMP JUMPDEST PUSH1 0x20 PUSH1 0x40 MLOAD DUP1 DUP4 SUB DUP2 PUSH0 DUP8 GAS CALL ISZERO DUP1 ISZERO PUSH2 0x2469 JUMPI RETURNDATASIZE PUSH0 DUP1 RETURNDATACOPY RETURNDATASIZE PUSH0 REVERT JUMPDEST POP POP POP POP PUSH1 0x40 MLOAD RETURNDATASIZE PUSH1 0x1F NOT PUSH1 0x1F DUP3 ADD AND DUP3 ADD DUP1 PUSH1 0x40 MSTORE POP DUP2 ADD SWAP1 PUSH2 0x248D SWAP2 SWAP1 PUSH2 0x379A JUMP JUMPDEST POP CALLER PUSH20 0xFFFFFFFFFFFFFFFFFFFFFFFFFFFFFFFFFFFFFFFF AND PUSH32 0x1DB23CF53464267C45324569941E81E23D29C48FF9BE2B35AF2CC0A2681159D6 DUP4 PUSH1 0x40 MLOAD PUSH2 0x24D4 SWAP2 SWAP1 PUSH2 0x32D9 JUMP JUMPDEST PUSH1 0x40 MLOAD DUP1 SWAP2 SUB SWAP1 LOG2 POP POP JUMP JUMPDEST PUSH0 PUSH1 0x40 MLOAD DUP1 PUSH1 0x60 ADD PUSH1 0x40 MSTORE DUP1 DUP4 DUP2 MSTORE PUSH1 0x20 ADD PUSH1 0x1 ISZERO ISZERO DUP2 MSTORE PUSH1 0x20 ADD TIMESTAMP DUP2 MSTORE POP SWAP1 POP PUSH1 0xD PUSH0 CALLER PUSH20 0xFFFFFFFFFFFFFFFFFFFFFFFFFFFFFFFFFFFFFFFF AND PUSH20 0xFFFFFFFFFFFFFFFFFFFFFFFFFFFFFFFFFFFFFFFF AND DUP2 MSTORE PUSH1 0x20 ADD SWAP1 DUP2 MSTORE PUSH1 0x20 ADD PUSH0 KECCAK256 DUP2 SWAP1 DUP1 PUSH1 0x1 DUP2 SLOAD ADD DUP1 DUP3 SSTORE DUP1 SWAP2 POP POP PUSH1 0x1 SWAP1 SUB SWAP1 PUSH0 MSTORE PUSH1 0x20 PUSH0 KECCAK256 SWAP1 PUSH1 0x3 MUL ADD PUSH0 SWAP1 SWAP2 SWAP1 SWAP2 SWAP1 SWAP2 POP PUSH0 DUP3 ADD MLOAD DUP2 PUSH0 ADD SSTORE PUSH1 0x20 DUP3 ADD MLOAD DUP2 PUSH1 0x1 ADD PUSH0 PUSH2 0x100 EXP DUP2 SLOAD DUP2 PUSH1 0xFF MUL NOT AND SWAP1 DUP4 ISZERO ISZERO MUL OR SWAP1 SSTORE POP PUSH1 0x40 DUP3 ADD MLOAD DUP2 PUSH1 0x2 ADD SSTORE POP POP DUP2 PUSH1 0x1 PUSH0 DUP3 DUP3 SLOAD PUSH2 0x25A9 SWAP2 SWAP1 PUSH2 0x366A JUMP JUMPDEST SWAP3 POP POP DUP2 SWAP1 SSTORE POP DUP2 PUSH1 0x3 PUSH0 DUP3 DUP3 SLOAD PUSH2 0x25C1 SWAP2 SWAP1 PUSH2 0x366A JUMP JUMPDEST SWAP3 POP POP DUP2 SWAP1 SSTORE POP DUP2 PUSH1 0xF PUSH0 CALLER PUSH20 0xFFFFFFFFFFFFFFFFFFFFFFFFFFFFFFFFFFFFFFFF AND PUSH20 0xFFFFFFFFFFFFFFFFFFFFFFFFFFFFFFFFFFFFFFFF AND DUP2 MSTORE PUSH1 0x20 ADD SWAP1 DUP2 MSTORE PUSH1 0x20 ADD PUSH0 KECCAK256 PUSH0 DUP3 DUP3 SLOAD PUSH2 0x2614 SWAP2 SWAP1 PUSH2 0x366A JUMP JUMPDEST SWAP3 POP POP DUP2 SWAP1 SSTORE POP DUP2 PUSH1 0x11 PUSH0 CALLER PUSH20 0xFFFFFFFFFFFFFFFFFFFFFFFFFFFFFFFFFFFFFFFF AND PUSH20 0xFFFFFFFFFFFFFFFFFFFFFFFFFFFFFFFFFFFFFFFF AND DUP2 MSTORE PUSH1 0x20 ADD SWAP1 DUP2 MSTORE PUSH1 0x20 ADD PUSH0 KECCAK256 PUSH0 DUP3 DUP3 SLOAD PUSH2 0x2667 SWAP2 SWAP1 PUSH2 0x366A JUMP JUMPDEST SWAP3 POP POP DUP2 SWAP1 SSTORE POP PUSH0 PUSH1 0x10 PUSH0 CALLER PUSH20 0xFFFFFFFFFFFFFFFFFFFFFFFFFFFFFFFFFFFFFFFF AND PUSH20 0xFFFFFFFFFFFFFFFFFFFFFFFFFFFFFFFFFFFFFFFF AND DUP2 MSTORE PUSH1 0x20 ADD SWAP1 DUP2 MSTORE PUSH1 0x20 ADD PUSH0 KECCAK256 SLOAD SUB PUSH2 0x26DE JUMPI PUSH32 0xFFFFFFFFFFFFFFFFFFFFFFFFFFFFFFFFFFFFFFFFFFFFFFFFFFFFFFFFFFFFFFFF PUSH1 0x5 DUP2 SWAP1 SSTORE POP PUSH2 0x2778 JUMP JUMPDEST PUSH1 0x10 PUSH0 CALLER PUSH20 0xFFFFFFFFFFFFFFFFFFFFFFFFFFFFFFFFFFFFFFFF AND PUSH20 0xFFFFFFFFFFFFFFFFFFFFFFFFFFFFFFFFFFFFFFFF AND DUP2 MSTORE PUSH1 0x20 ADD SWAP1 DUP2 MSTORE PUSH1 0x20 ADD PUSH0 KECCAK256 SLOAD PUSH1 0x4 SLOAD PUSH1 0xF PUSH0 CALLER PUSH20 0xFFFFFFFFFFFFFFFFFFFFFFFFFFFFFFFFFFFFFFFF AND PUSH20 0xFFFFFFFFFFFFFFFFFFFFFFFFFFFFFFFFFFFFFFFF AND DUP2 MSTORE PUSH1 0x20 ADD SWAP1 DUP2 MSTORE PUSH1 0x20 ADD PUSH0 KECCAK256 SLOAD PUSH2 0x2767 SWAP2 SWAP1 PUSH2 0x36FA JUMP JUMPDEST PUSH2 0x2771 SWAP2 SWAP1 PUSH2 0x36CA JUMP JUMPDEST PUSH1 0x5 DUP2 SWAP1 SSTORE POP JUMPDEST PUSH0 DUP1 SLOAD SWAP1 PUSH2 0x100 EXP SWAP1 DIV PUSH20 0xFFFFFFFFFFFFFFFFFFFFFFFFFFFFFFFFFFFFFFFF AND PUSH20 0xFFFFFFFFFFFFFFFFFFFFFFFFFFFFFFFFFFFFFFFF AND PUSH4 0x23B872DD CALLER ADDRESS DUP6 PUSH1 0x40 MLOAD DUP5 PUSH4 0xFFFFFFFF AND PUSH1 0xE0 SHL DUP2 MSTORE PUSH1 0x4 ADD PUSH2 0x27D4 SWAP4 SWAP3 SWAP2 SWAP1 PUSH2 0x373B JUMP JUMPDEST PUSH1 0x20 PUSH1 0x40 MLOAD DUP1 DUP4 SUB DUP2 PUSH0 DUP8 GAS CALL ISZERO DUP1 ISZERO PUSH2 0x27F0 JUMPI RETURNDATASIZE PUSH0 DUP1 RETURNDATACOPY RETURNDATASIZE PUSH0 REVERT JUMPDEST POP POP POP POP PUSH1 0x40 MLOAD RETURNDATASIZE PUSH1 0x1F NOT PUSH1 0x1F DUP3 ADD AND DUP3 ADD DUP1 PUSH1 0x40 MSTORE POP DUP2 ADD SWAP1 PUSH2 0x2814 SWAP2 SWAP1 PUSH2 0x379A JUMP JUMPDEST POP POP POP JUMP JUMPDEST PUSH0 PUSH1 0xF PUSH0 DUP4 PUSH20 0xFFFFFFFFFFFFFFFFFFFFFFFFFFFFFFFFFFFFFFFF AND PUSH20 0xFFFFFFFFFFFFFFFFFFFFFFFFFFFFFFFFFFFFFFFF AND DUP2 MSTORE PUSH1 0x20 ADD SWAP1 DUP2 MSTORE PUSH1 0x20 ADD PUSH0 KECCAK256 SLOAD SWAP1 POP SWAP2 SWAP1 POP JUMP JUMPDEST PUSH0 DUP1 PUSH1 0xC PUSH0 SWAP1 SLOAD SWAP1 PUSH2 0x100 EXP SWAP1 DIV PUSH20 0xFFFFFFFFFFFFFFFFFFFFFFFFFFFFFFFFFFFFFFFF AND PUSH20 0xFFFFFFFFFFFFFFFFFFFFFFFFFFFFFFFFFFFFFFFF AND PUSH4 0xFEAF968C PUSH1 0x40 MLOAD DUP2 PUSH4 0xFFFFFFFF AND PUSH1 0xE0 SHL DUP2 MSTORE PUSH1 0x4 ADD PUSH1 0xA0 PUSH1 0x40 MLOAD DUP1 DUP4 SUB DUP2 DUP7 GAS STATICCALL ISZERO DUP1 ISZERO PUSH2 0x28CB JUMPI RETURNDATASIZE PUSH0 DUP1 RETURNDATACOPY RETURNDATASIZE PUSH0 REVERT JUMPDEST POP POP POP POP PUSH1 0x40 MLOAD RETURNDATASIZE PUSH1 0x1F NOT PUSH1 0x1F DUP3 ADD AND DUP3 ADD DUP1 PUSH1 0x40 MSTORE POP DUP2 ADD SWAP1 PUSH2 0x28EF SWAP2 SWAP1 PUSH2 0x3D46 JUMP JUMPDEST POP POP POP SWAP2 POP POP DUP1 SWAP2 POP POP SWAP1 JUMP JUMPDEST PUSH1 0xD PUSH0 CALLER PUSH20 0xFFFFFFFFFFFFFFFFFFFFFFFFFFFFFFFFFFFFFFFF AND PUSH20 0xFFFFFFFFFFFFFFFFFFFFFFFFFFFFFFFFFFFFFFFF AND DUP2 MSTORE PUSH1 0x20 ADD SWAP1 DUP2 MSTORE PUSH1 0x20 ADD PUSH0 KECCAK256 DUP1 SLOAD SWAP1 POP DUP2 LT PUSH2 0x297E JUMPI PUSH1 0x40 MLOAD PUSH32 0x8C379A000000000000000000000000000000000000000000000000000000000 DUP2 MSTORE PUSH1 0x4 ADD PUSH2 0x2975 SWAP1 PUSH2 0x393F JUMP JUMPDEST PUSH1 0x40 MLOAD DUP1 SWAP2 SUB SWAP1 REVERT JUMPDEST PUSH0 PUSH1 0xD PUSH0 CALLER PUSH20 0xFFFFFFFFFFFFFFFFFFFFFFFFFFFFFFFFFFFFFFFF AND PUSH20 0xFFFFFFFFFFFFFFFFFFFFFFFFFFFFFFFFFFFFFFFF AND DUP2 MSTORE PUSH1 0x20 ADD SWAP1 DUP2 MSTORE PUSH1 0x20 ADD PUSH0 KECCAK256 DUP3 DUP2 SLOAD DUP2 LT PUSH2 0x29CE JUMPI PUSH2 0x29CD PUSH2 0x35DD JUMP JUMPDEST JUMPDEST SWAP1 PUSH0 MSTORE PUSH1 0x20 PUSH0 KECCAK256 SWAP1 PUSH1 0x3 MUL ADD SWAP1 POP PUSH1 0x1 ISZERO ISZERO DUP2 PUSH1 0x1 ADD PUSH0 SWAP1 SLOAD SWAP1 PUSH2 0x100 EXP SWAP1 DIV PUSH1 0xFF AND ISZERO ISZERO EQ PUSH2 0x2A33 JUMPI PUSH1 0x40 MLOAD PUSH32 0x8C379A000000000000000000000000000000000000000000000000000000000 DUP2 MSTORE PUSH1 0x4 ADD PUSH2 0x2A2A SWAP1 PUSH2 0x4040 JUMP JUMPDEST PUSH1 0x40 MLOAD DUP1 SWAP2 SUB SWAP1 REVERT JUMPDEST PUSH0 DUP2 PUSH1 0x1 ADD PUSH0 PUSH2 0x100 EXP DUP2 SLOAD DUP2 PUSH1 0xFF MUL NOT AND SWAP1 DUP4 ISZERO ISZERO MUL OR SWAP1 SSTORE POP PUSH0 ISZERO ISZERO DUP2 PUSH1 0x1 ADD PUSH0 SWAP1 SLOAD SWAP1 PUSH2 0x100 EXP SWAP1 DIV PUSH1 0xFF AND ISZERO ISZERO SUB PUSH2 0x2ADB JUMPI DUP1 PUSH0 ADD SLOAD PUSH1 0xF PUSH0 CALLER PUSH20 0xFFFFFFFFFFFFFFFFFFFFFFFFFFFFFFFFFFFFFFFF AND PUSH20 0xFFFFFFFFFFFFFFFFFFFFFFFFFFFFFFFFFFFFFFFF AND DUP2 MSTORE PUSH1 0x20 ADD SWAP1 DUP2 MSTORE PUSH1 0x20 ADD PUSH0 KECCAK256 PUSH0 DUP3 DUP3 SLOAD PUSH2 0x2AB8 SWAP2 SWAP1 PUSH2 0x3637 JUMP JUMPDEST SWAP3 POP POP DUP2 SWAP1 SSTORE POP DUP1 PUSH0 ADD SLOAD PUSH1 0x3 PUSH0 DUP3 DUP3 SLOAD PUSH2 0x2AD3 SWAP2 SWAP1 PUSH2 0x3637 JUMP JUMPDEST SWAP3 POP POP DUP2 SWAP1 SSTORE POP JUMPDEST PUSH0 PUSH1 0x10 PUSH0 CALLER PUSH20 0xFFFFFFFFFFFFFFFFFFFFFFFFFFFFFFFFFFFFFFFF AND PUSH20 0xFFFFFFFFFFFFFFFFFFFFFFFFFFFFFFFFFFFFFFFF AND DUP2 MSTORE PUSH1 0x20 ADD SWAP1 DUP2 MSTORE PUSH1 0x20 ADD PUSH0 KECCAK256 SLOAD EQ DUP1 ISZERO PUSH2 0x2B64 JUMPI POP PUSH0 PUSH1 0xF PUSH0 CALLER PUSH20 0xFFFFFFFFFFFFFFFFFFFFFFFFFFFFFFFFFFFFFFFF AND PUSH20 0xFFFFFFFFFFFFFFFFFFFFFFFFFFFFFFFFFFFFFFFF AND DUP2 MSTORE PUSH1 0x20 ADD SWAP1 DUP2 MSTORE PUSH1 0x20 ADD PUSH0 KECCAK256 SLOAD EQ ISZERO JUMPDEST ISZERO PUSH2 0x2B95 JUMPI PUSH32 0xFFFFFFFFFFFFFFFFFFFFFFFFFFFFFFFFFFFFFFFFFFFFFFFFFFFFFFFFFFFFFFFF PUSH1 0x5 DUP2 SWAP1 SSTORE POP PUSH2 0x2CC9 JUMP JUMPDEST PUSH0 PUSH1 0x10 PUSH0 CALLER PUSH20 0xFFFFFFFFFFFFFFFFFFFFFFFFFFFFFFFFFFFFFFFF AND PUSH20 0xFFFFFFFFFFFFFFFFFFFFFFFFFFFFFFFFFFFFFFFF AND DUP2 MSTORE PUSH1 0x20 ADD SWAP1 DUP2 MSTORE PUSH1 0x20 ADD PUSH0 KECCAK256 SLOAD EQ DUP1 ISZERO PUSH2 0x2C1D JUMPI POP PUSH0 PUSH1 0xF PUSH0 CALLER PUSH20 0xFFFFFFFFFFFFFFFFFFFFFFFFFFFFFFFFFFFFFFFF AND PUSH20 0xFFFFFFFFFFFFFFFFFFFFFFFFFFFFFFFFFFFFFFFF AND DUP2 MSTORE PUSH1 0x20 ADD SWAP1 DUP2 MSTORE PUSH1 0x20 ADD PUSH0 KECCAK256 SLOAD EQ JUMPDEST ISZERO PUSH2 0x2C2E JUMPI PUSH0 PUSH1 0x5 DUP2 SWAP1 SSTORE POP PUSH2 0x2CC8 JUMP JUMPDEST PUSH1 0x10 PUSH0 CALLER PUSH20 0xFFFFFFFFFFFFFFFFFFFFFFFFFFFFFFFFFFFFFFFF AND PUSH20 0xFFFFFFFFFFFFFFFFFFFFFFFFFFFFFFFFFFFFFFFF AND DUP2 MSTORE PUSH1 0x20 ADD SWAP1 DUP2 MSTORE PUSH1 0x20 ADD PUSH0 KECCAK256 SLOAD PUSH1 0x4 SLOAD PUSH1 0xF PUSH0 CALLER PUSH20 0xFFFFFFFFFFFFFFFFFFFFFFFFFFFFFFFFFFFFFFFF AND PUSH20 0xFFFFFFFFFFFFFFFFFFFFFFFFFFFFFFFFFFFFFFFF AND DUP2 MSTORE PUSH1 0x20 ADD SWAP1 DUP2 MSTORE PUSH1 0x20 ADD PUSH0 KECCAK256 SLOAD PUSH2 0x2CB7 SWAP2 SWAP1 PUSH2 0x36FA JUMP JUMPDEST PUSH2 0x2CC1 SWAP2 SWAP1 PUSH2 0x36CA JUMP JUMPDEST PUSH1 0x5 DUP2 SWAP1 SSTORE POP JUMPDEST JUMPDEST PUSH0 PUSH1 0x10 PUSH0 CALLER PUSH20 0xFFFFFFFFFFFFFFFFFFFFFFFFFFFFFFFFFFFFFFFF AND PUSH20 0xFFFFFFFFFFFFFFFFFFFFFFFFFFFFFFFFFFFFFFFF AND DUP2 MSTORE PUSH1 0x20 ADD SWAP1 DUP2 MSTORE PUSH1 0x20 ADD PUSH0 KECCAK256 SLOAD EQ PUSH2 0x2D53 JUMPI PUSH1 0x64 PUSH1 0x5 SLOAD GT PUSH2 0x2D52 JUMPI PUSH1 0x40 MLOAD PUSH32 0x8C379A000000000000000000000000000000000000000000000000000000000 DUP2 MSTORE PUSH1 0x4 ADD PUSH2 0x2D49 SWAP1 PUSH2 0x3A81 JUMP JUMPDEST PUSH1 0x40 MLOAD DUP1 SWAP2 SUB SWAP1 REVERT JUMPDEST JUMPDEST POP POP JUMP JUMPDEST PUSH0 PUSH1 0x2 SLOAD SWAP1 POP SWAP1 JUMP JUMPDEST PUSH0 PUSH1 0x6 SLOAD SWAP1 POP SWAP1 JUMP JUMPDEST PUSH1 0x60 PUSH1 0x9 DUP1 SLOAD PUSH2 0x2D78 SWAP1 PUSH2 0x3ACC JUMP JUMPDEST DUP1 PUSH1 0x1F ADD PUSH1 0x20 DUP1 SWAP2 DIV MUL PUSH1 0x20 ADD PUSH1 0x40 MLOAD SWAP1 DUP2 ADD PUSH1 0x40 MSTORE DUP1 SWAP3 SWAP2 SWAP1 DUP2 DUP2 MSTORE PUSH1 0x20 ADD DUP3 DUP1 SLOAD PUSH2 0x2DA4 SWAP1 PUSH2 0x3ACC JUMP JUMPDEST DUP1 ISZERO PUSH2 0x2DEF JUMPI DUP1 PUSH1 0x1F LT PUSH2 0x2DC6 JUMPI PUSH2 0x100 DUP1 DUP4 SLOAD DIV MUL DUP4 MSTORE SWAP2 PUSH1 0x20 ADD SWAP2 PUSH2 0x2DEF JUMP JUMPDEST DUP3 ADD SWAP2 SWAP1 PUSH0 MSTORE PUSH1 0x20 PUSH0 KECCAK256 SWAP1 JUMPDEST DUP2 SLOAD DUP2 MSTORE SWAP1 PUSH1 0x1 ADD SWAP1 PUSH1 0x20 ADD DUP1 DUP4 GT PUSH2 0x2DD2 JUMPI DUP3 SWAP1 SUB PUSH1 0x1F AND DUP3 ADD SWAP2 JUMPDEST POP POP POP POP POP SWAP1 POP SWAP1 JUMP JUMPDEST PUSH0 DUP1 PUSH2 0x2E03 PUSH2 0x1C9F JUMP JUMPDEST SWAP1 POP PUSH0 PUSH8 0x429D069189E0000 SWAP1 POP PUSH0 PUSH8 0xB1A2BC2EC500000 SWAP1 POP PUSH0 PUSH2 0x190 PUSH1 0x64 PUSH2 0x2E2D SWAP2 SWAP1 PUSH2 0x366A JUMP JUMPDEST SWAP1 POP PUSH0 PUSH2 0x190 PUSH1 0xC8 PUSH2 0x2E3F SWAP2 SWAP1 PUSH2 0x366A JUMP JUMPDEST SWAP1 POP PUSH0 PUSH2 0x190 PUSH2 0x7D0 PUSH2 0x2E52 SWAP2 SWAP1 PUSH2 0x366A JUMP JUMPDEST SWAP1 POP PUSH0 DUP1 DUP7 DUP9 LT ISZERO PUSH2 0x2EAC JUMPI PUSH1 0x64 PUSH1 0x1E PUSH2 0x2E6A PUSH2 0x2057 JUMP JUMPDEST PUSH2 0x2E74 SWAP2 SWAP1 PUSH2 0x36FA JUMP JUMPDEST PUSH2 0x2E7E SWAP2 SWAP1 PUSH2 0x36CA JUMP JUMPDEST PUSH2 0x2E86 PUSH2 0xEA8 JUMP JUMPDEST GT PUSH2 0x2E9B JUMPI DUP5 SWAP9 POP POP POP POP POP POP POP POP POP PUSH2 0x302C JUMP JUMPDEST PUSH1 0x64 SWAP9 POP POP POP POP POP POP POP POP POP PUSH2 0x302C JUMP JUMPDEST DUP6 DUP9 LT ISZERO PUSH2 0x2FE1 JUMPI PUSH1 0x64 PUSH1 0x1E PUSH2 0x2EC0 PUSH2 0x2057 JUMP JUMPDEST PUSH2 0x2ECA SWAP2 SWAP1 PUSH2 0x36FA JUMP JUMPDEST PUSH2 0x2ED4 SWAP2 SWAP1 PUSH2 0x36CA JUMP JUMPDEST PUSH2 0x2EDC PUSH2 0xEA8 JUMP JUMPDEST GT PUSH2 0x2F5F JUMPI DUP7 DUP7 PUSH2 0x2EED SWAP2 SWAP1 PUSH2 0x3637 JUMP JUMPDEST PUSH8 0xDE0B6B3A7640000 DUP6 DUP6 PUSH2 0x2F02 SWAP2 SWAP1 PUSH2 0x3637 JUMP JUMPDEST PUSH2 0x2F0C SWAP2 SWAP1 PUSH2 0x36FA JUMP JUMPDEST PUSH2 0x2F16 SWAP2 SWAP1 PUSH2 0x36CA JUMP JUMPDEST SWAP2 POP PUSH8 0xDE0B6B3A7640000 DUP8 DUP10 PUSH2 0x2F2D SWAP2 SWAP1 PUSH2 0x3637 JUMP JUMPDEST DUP4 PUSH2 0x2F38 SWAP2 SWAP1 PUSH2 0x36FA JUMP JUMPDEST PUSH2 0x2F42 SWAP2 SWAP1 PUSH2 0x36CA JUMP JUMPDEST SWAP1 POP DUP1 DUP5 PUSH2 0x2F50 SWAP2 SWAP1 PUSH2 0x366A JUMP JUMPDEST SWAP9 POP POP POP POP POP POP POP POP POP PUSH2 0x302C JUMP JUMPDEST DUP7 DUP7 PUSH2 0x2F6B SWAP2 SWAP1 PUSH2 0x3637 JUMP JUMPDEST PUSH8 0xDE0B6B3A7640000 PUSH1 0xC8 PUSH2 0x7D0 PUSH2 0x2F83 SWAP2 SWAP1 PUSH2 0x3637 JUMP JUMPDEST PUSH2 0x2F8D SWAP2 SWAP1 PUSH2 0x36FA JUMP JUMPDEST PUSH2 0x2F97 SWAP2 SWAP1 PUSH2 0x36CA JUMP JUMPDEST SWAP2 POP PUSH8 0xDE0B6B3A7640000 DUP8 DUP10 PUSH2 0x2FAE SWAP2 SWAP1 PUSH2 0x3637 JUMP JUMPDEST DUP4 PUSH2 0x2FB9 SWAP2 SWAP1 PUSH2 0x36FA JUMP JUMPDEST PUSH2 0x2FC3 SWAP2 SWAP1 PUSH2 0x36CA JUMP JUMPDEST SWAP1 POP DUP1 PUSH1 0xC8 PUSH2 0x2FD2 SWAP2 SWAP1 PUSH2 0x366A JUMP JUMPDEST SWAP9 POP POP POP POP POP POP POP POP POP PUSH2 0x302C JUMP JUMPDEST PUSH1 0x64 PUSH1 0x1E PUSH2 0x2FED PUSH2 0x2057 JUMP JUMPDEST PUSH2 0x2FF7 SWAP2 SWAP1 PUSH2 0x36FA JUMP JUMPDEST PUSH2 0x3001 SWAP2 SWAP1 PUSH2 0x36CA JUMP JUMPDEST PUSH2 0x3009 PUSH2 0xEA8 JUMP JUMPDEST GT PUSH2 0x301E JUMPI DUP3 SWAP9 POP POP POP POP POP POP POP POP POP PUSH2 0x302C JUMP JUMPDEST PUSH2 0x7D0 SWAP9 POP POP POP POP POP POP POP POP POP JUMPDEST SWAP1 JUMP JUMPDEST PUSH1 0x6 SLOAD DUP2 JUMP JUMPDEST PUSH0 DUP2 PUSH1 0xFF AND DUP4 PUSH1 0xFF AND LT ISZERO PUSH2 0x3071 JUMPI DUP3 DUP3 PUSH2 0x3050 SWAP2 SWAP1 PUSH2 0x405E JUMP JUMPDEST PUSH1 0xFF AND PUSH1 0xA PUSH2 0x305F SWAP2 SWAP1 PUSH2 0x3C93 JUMP JUMPDEST DUP5 PUSH2 0x306A SWAP2 SWAP1 PUSH2 0x3DFC JUMP JUMPDEST SWAP1 POP PUSH2 0x30B0 JUMP JUMPDEST DUP2 PUSH1 0xFF AND DUP4 PUSH1 0xFF AND GT ISZERO PUSH2 0x30AC JUMPI DUP2 DUP4 PUSH2 0x308B SWAP2 SWAP1 PUSH2 0x405E JUMP JUMPDEST PUSH1 0xFF AND PUSH1 0xA PUSH2 0x309A SWAP2 SWAP1 PUSH2 0x3C93 JUMP JUMPDEST DUP5 PUSH2 0x30A5 SWAP2 SWAP1 PUSH2 0x3E72 JUMP JUMPDEST SWAP1 POP PUSH2 0x30B0 JUMP JUMPDEST DUP4 SWAP1 POP JUMPDEST SWAP4 SWAP3 POP POP POP JUMP JUMPDEST PUSH0 DUP1 REVERT JUMPDEST PUSH0 DUP2 SWAP1 POP SWAP2 SWAP1 POP JUMP JUMPDEST PUSH2 0x30CD DUP2 PUSH2 0x30BB JUMP JUMPDEST DUP2 EQ PUSH2 0x30D7 JUMPI PUSH0 DUP1 REVERT JUMPDEST POP JUMP JUMPDEST PUSH0 DUP2 CALLDATALOAD SWAP1 POP PUSH2 0x30E8 DUP2 PUSH2 0x30C4 JUMP JUMPDEST SWAP3 SWAP2 POP POP JUMP JUMPDEST PUSH0 PUSH1 0x20 DUP3 DUP5 SUB SLT ISZERO PUSH2 0x3103 JUMPI PUSH2 0x3102 PUSH2 0x30B7 JUMP JUMPDEST JUMPDEST PUSH0 PUSH2 0x3110 DUP5 DUP3 DUP6 ADD PUSH2 0x30DA JUMP JUMPDEST SWAP2 POP POP SWAP3 SWAP2 POP POP JUMP JUMPDEST PUSH0 PUSH20 0xFFFFFFFFFFFFFFFFFFFFFFFFFFFFFFFFFFFFFFFF DUP3 AND SWAP1 POP SWAP2 SWAP1 POP JUMP JUMPDEST PUSH0 PUSH2 0x3142 DUP3 PUSH2 0x3119 JUMP JUMPDEST SWAP1 POP SWAP2 SWAP1 POP JUMP JUMPDEST PUSH2 0x3152 DUP2 PUSH2 0x3138 JUMP JUMPDEST DUP3 MSTORE POP POP JUMP JUMPDEST PUSH0 PUSH1 0x20 DUP3 ADD SWAP1 POP PUSH2 0x316B PUSH0 DUP4 ADD DUP5 PUSH2 0x3149 JUMP JUMPDEST SWAP3 SWAP2 POP POP JUMP JUMPDEST PUSH2 0x317A DUP2 PUSH2 0x3138 JUMP JUMPDEST DUP2 EQ PUSH2 0x3184 JUMPI PUSH0 DUP1 REVERT JUMPDEST POP JUMP JUMPDEST PUSH0 DUP2 CALLDATALOAD SWAP1 POP PUSH2 0x3195 DUP2 PUSH2 0x3171 JUMP JUMPDEST SWAP3 SWAP2 POP POP JUMP JUMPDEST PUSH0 PUSH1 0x20 DUP3 DUP5 SUB SLT ISZERO PUSH2 0x31B0 JUMPI PUSH2 0x31AF PUSH2 0x30B7 JUMP JUMPDEST JUMPDEST PUSH0 PUSH2 0x31BD DUP5 DUP3 DUP6 ADD PUSH2 0x3187 JUMP JUMPDEST SWAP2 POP POP SWAP3 SWAP2 POP POP JUMP JUMPDEST PUSH0 DUP2 MLOAD SWAP1 POP SWAP2 SWAP1 POP JUMP JUMPDEST PUSH0 DUP3 DUP3 MSTORE PUSH1 0x20 DUP3 ADD SWAP1 POP SWAP3 SWAP2 POP POP JUMP JUMPDEST PUSH0 DUP2 SWAP1 POP PUSH1 0x20 DUP3 ADD SWAP1 POP SWAP2 SWAP1 POP JUMP JUMPDEST PUSH2 0x31F8 DUP2 PUSH2 0x30BB JUMP JUMPDEST DUP3 MSTORE POP POP JUMP JUMPDEST PUSH1 0x40 DUP3 ADD PUSH0 DUP3 ADD MLOAD PUSH2 0x3212 PUSH0 DUP6 ADD DUP3 PUSH2 0x31EF JUMP JUMPDEST POP PUSH1 0x20 DUP3 ADD MLOAD PUSH2 0x3225 PUSH1 0x20 DUP6 ADD DUP3 PUSH2 0x31EF JUMP JUMPDEST POP POP POP POP JUMP JUMPDEST PUSH0 PUSH2 0x3236 DUP4 DUP4 PUSH2 0x31FE JUMP JUMPDEST PUSH1 0x40 DUP4 ADD SWAP1 POP SWAP3 SWAP2 POP POP JUMP JUMPDEST PUSH0 PUSH1 0x20 DUP3 ADD SWAP1 POP SWAP2 SWAP1 POP JUMP JUMPDEST PUSH0 PUSH2 0x3258 DUP3 PUSH2 0x31C6 JUMP JUMPDEST PUSH2 0x3262 DUP2 DUP6 PUSH2 0x31D0 JUMP JUMPDEST SWAP4 POP PUSH2 0x326D DUP4 PUSH2 0x31E0 JUMP JUMPDEST DUP1 PUSH0 JUMPDEST DUP4 DUP2 LT ISZERO PUSH2 0x329D JUMPI DUP2 MLOAD PUSH2 0x3284 DUP9 DUP3 PUSH2 0x322B JUMP JUMPDEST SWAP8 POP PUSH2 0x328F DUP4 PUSH2 0x3242 JUMP JUMPDEST SWAP3 POP POP PUSH1 0x1 DUP2 ADD SWAP1 POP PUSH2 0x3270 JUMP JUMPDEST POP DUP6 SWAP4 POP POP POP POP SWAP3 SWAP2 POP POP JUMP JUMPDEST PUSH0 PUSH1 0x20 DUP3 ADD SWAP1 POP DUP2 DUP2 SUB PUSH0 DUP4 ADD MSTORE PUSH2 0x32C2 DUP2 DUP5 PUSH2 0x324E JUMP JUMPDEST SWAP1 POP SWAP3 SWAP2 POP POP JUMP JUMPDEST PUSH2 0x32D3 DUP2 PUSH2 0x30BB JUMP JUMPDEST DUP3 MSTORE POP POP JUMP JUMPDEST PUSH0 PUSH1 0x20 DUP3 ADD SWAP1 POP PUSH2 0x32EC PUSH0 DUP4 ADD DUP5 PUSH2 0x32CA JUMP JUMPDEST SWAP3 SWAP2 POP POP JUMP JUMPDEST PUSH0 DUP2 MLOAD SWAP1 POP SWAP2 SWAP1 POP JUMP JUMPDEST PUSH0 DUP3 DUP3 MSTORE PUSH1 0x20 DUP3 ADD SWAP1 POP SWAP3 SWAP2 POP POP JUMP JUMPDEST PUSH0 JUMPDEST DUP4 DUP2 LT ISZERO PUSH2 0x3329 JUMPI DUP1 DUP3 ADD MLOAD DUP2 DUP5 ADD MSTORE PUSH1 0x20 DUP2 ADD SWAP1 POP PUSH2 0x330E JUMP JUMPDEST PUSH0 DUP5 DUP5 ADD MSTORE POP POP POP POP JUMP JUMPDEST PUSH0 PUSH1 0x1F NOT PUSH1 0x1F DUP4 ADD AND SWAP1 POP SWAP2 SWAP1 POP JUMP JUMPDEST PUSH0 PUSH2 0x334E DUP3 PUSH2 0x32F2 JUMP JUMPDEST PUSH2 0x3358 DUP2 DUP6 PUSH2 0x32FC JUMP JUMPDEST SWAP4 POP PUSH2 0x3368 DUP2 DUP6 PUSH1 0x20 DUP7 ADD PUSH2 0x330C JUMP JUMPDEST PUSH2 0x3371 DUP2 PUSH2 0x3334 JUMP JUMPDEST DUP5 ADD SWAP2 POP POP SWAP3 SWAP2 POP POP JUMP JUMPDEST PUSH0 PUSH1 0x20 DUP3 ADD SWAP1 POP DUP2 DUP2 SUB PUSH0 DUP4 ADD MSTORE PUSH2 0x3394 DUP2 DUP5 PUSH2 0x3344 JUMP JUMPDEST SWAP1 POP SWAP3 SWAP2 POP POP JUMP JUMPDEST PUSH0 PUSH1 0xFF DUP3 AND SWAP1 POP SWAP2 SWAP1 POP JUMP JUMPDEST PUSH2 0x33B1 DUP2 PUSH2 0x339C JUMP JUMPDEST DUP2 EQ PUSH2 0x33BB JUMPI PUSH0 DUP1 REVERT JUMPDEST POP JUMP JUMPDEST PUSH0 DUP2 CALLDATALOAD SWAP1 POP PUSH2 0x33CC DUP2 PUSH2 0x33A8 JUMP JUMPDEST SWAP3 SWAP2 POP POP JUMP JUMPDEST PUSH0 DUP1 PUSH0 PUSH1 0x60 DUP5 DUP7 SUB SLT ISZERO PUSH2 0x33E9 JUMPI PUSH2 0x33E8 PUSH2 0x30B7 JUMP JUMPDEST JUMPDEST PUSH0 PUSH2 0x33F6 DUP7 DUP3 DUP8 ADD PUSH2 0x3187 JUMP JUMPDEST SWAP4 POP POP PUSH1 0x20 PUSH2 0x3407 DUP7 DUP3 DUP8 ADD PUSH2 0x3187 JUMP JUMPDEST SWAP3 POP POP PUSH1 0x40 PUSH2 0x3418 DUP7 DUP3 DUP8 ADD PUSH2 0x33BE JUMP JUMPDEST SWAP2 POP POP SWAP3 POP SWAP3 POP SWAP3 JUMP JUMPDEST PUSH0 DUP2 SWAP1 POP SWAP2 SWAP1 POP JUMP JUMPDEST PUSH2 0x3434 DUP2 PUSH2 0x3422 JUMP JUMPDEST DUP3 MSTORE POP POP JUMP JUMPDEST PUSH0 PUSH1 0x20 DUP3 ADD SWAP1 POP PUSH2 0x344D PUSH0 DUP4 ADD DUP5 PUSH2 0x342B JUMP JUMPDEST SWAP3 SWAP2 POP POP JUMP JUMPDEST PUSH0 DUP2 MLOAD SWAP1 POP SWAP2 SWAP1 POP JUMP JUMPDEST PUSH0 DUP3 DUP3 MSTORE PUSH1 0x20 DUP3 ADD SWAP1 POP SWAP3 SWAP2 POP POP JUMP JUMPDEST PUSH0 DUP2 SWAP1 POP PUSH1 0x20 DUP3 ADD SWAP1 POP SWAP2 SWAP1 POP JUMP JUMPDEST PUSH0 DUP2 ISZERO ISZERO SWAP1 POP SWAP2 SWAP1 POP JUMP JUMPDEST PUSH2 0x3490 DUP2 PUSH2 0x347C JUMP JUMPDEST DUP3 MSTORE POP POP JUMP JUMPDEST PUSH1 0x60 DUP3 ADD PUSH0 DUP3 ADD MLOAD PUSH2 0x34AA PUSH0 DUP6 ADD DUP3 PUSH2 0x31EF JUMP JUMPDEST POP PUSH1 0x20 DUP3 ADD MLOAD PUSH2 0x34BD PUSH1 0x20 DUP6 ADD DUP3 PUSH2 0x3487 JUMP JUMPDEST POP PUSH1 0x40 DUP3 ADD MLOAD PUSH2 0x34D0 PUSH1 0x40 DUP6 ADD DUP3 PUSH2 0x31EF JUMP JUMPDEST POP POP POP POP JUMP JUMPDEST PUSH0 PUSH2 0x34E1 DUP4 DUP4 PUSH2 0x3496 JUMP JUMPDEST PUSH1 0x60 DUP4 ADD SWAP1 POP SWAP3 SWAP2 POP POP JUMP JUMPDEST PUSH0 PUSH1 0x20 DUP3 ADD SWAP1 POP SWAP2 SWAP1 POP JUMP JUMPDEST PUSH0 PUSH2 0x3503 DUP3 PUSH2 0x3453 JUMP JUMPDEST PUSH2 0x350D DUP2 DUP6 PUSH2 0x345D JUMP JUMPDEST SWAP4 POP PUSH2 0x3518 DUP4 PUSH2 0x346D JUMP JUMPDEST DUP1 PUSH0 JUMPDEST DUP4 DUP2 LT ISZERO PUSH2 0x3548 JUMPI DUP2 MLOAD PUSH2 0x352F DUP9 DUP3 PUSH2 0x34D6 JUMP JUMPDEST SWAP8 POP PUSH2 0x353A DUP4 PUSH2 0x34ED JUMP JUMPDEST SWAP3 POP POP PUSH1 0x1 DUP2 ADD SWAP1 POP PUSH2 0x351B JUMP JUMPDEST POP DUP6 SWAP4 POP POP POP POP SWAP3 SWAP2 POP POP JUMP JUMPDEST PUSH0 PUSH1 0x20 DUP3 ADD SWAP1 POP DUP2 DUP2 SUB PUSH0 DUP4 ADD MSTORE PUSH2 0x356D DUP2 DUP5 PUSH2 0x34F9 JUMP JUMPDEST SWAP1 POP SWAP3 SWAP2 POP POP JUMP JUMPDEST PUSH32 0x496E76616C696420696E64657800000000000000000000000000000000000000 PUSH0 DUP3 ADD MSTORE POP JUMP JUMPDEST PUSH0 PUSH2 0x35A9 PUSH1 0xD DUP4 PUSH2 0x32FC JUMP JUMPDEST SWAP2 POP PUSH2 0x35B4 DUP3 PUSH2 0x3575 JUMP JUMPDEST PUSH1 0x20 DUP3 ADD SWAP1 POP SWAP2 SWAP1 POP JUMP JUMPDEST PUSH0 PUSH1 0x20 DUP3 ADD SWAP1 POP DUP2 DUP2 SUB PUSH0 DUP4 ADD MSTORE PUSH2 0x35D6 DUP2 PUSH2 0x359D JUMP JUMPDEST SWAP1 POP SWAP2 SWAP1 POP JUMP JUMPDEST PUSH32 0x4E487B7100000000000000000000000000000000000000000000000000000000 PUSH0 MSTORE PUSH1 0x32 PUSH1 0x4 MSTORE PUSH1 0x24 PUSH0 REVERT JUMPDEST PUSH32 0x4E487B7100000000000000000000000000000000000000000000000000000000 PUSH0 MSTORE PUSH1 0x11 PUSH1 0x4 MSTORE PUSH1 0x24 PUSH0 REVERT JUMPDEST PUSH0 PUSH2 0x3641 DUP3 PUSH2 0x30BB JUMP JUMPDEST SWAP2 POP PUSH2 0x364C DUP4 PUSH2 0x30BB JUMP JUMPDEST SWAP3 POP DUP3 DUP3 SUB SWAP1 POP DUP2 DUP2 GT ISZERO PUSH2 0x3664 JUMPI PUSH2 0x3663 PUSH2 0x360A JUMP JUMPDEST JUMPDEST SWAP3 SWAP2 POP POP JUMP JUMPDEST PUSH0 PUSH2 0x3674 DUP3 PUSH2 0x30BB JUMP JUMPDEST SWAP2 POP PUSH2 0x367F DUP4 PUSH2 0x30BB JUMP JUMPDEST SWAP3 POP DUP3 DUP3 ADD SWAP1 POP DUP1 DUP3 GT ISZERO PUSH2 0x3697 JUMPI PUSH2 0x3696 PUSH2 0x360A JUMP JUMPDEST JUMPDEST SWAP3 SWAP2 POP POP JUMP JUMPDEST PUSH32 0x4E487B7100000000000000000000000000000000000000000000000000000000 PUSH0 MSTORE PUSH1 0x12 PUSH1 0x4 MSTORE PUSH1 0x24 PUSH0 REVERT JUMPDEST PUSH0 PUSH2 0x36D4 DUP3 PUSH2 0x30BB JUMP JUMPDEST SWAP2 POP PUSH2 0x36DF DUP4 PUSH2 0x30BB JUMP JUMPDEST SWAP3 POP DUP3 PUSH2 0x36EF JUMPI PUSH2 0x36EE PUSH2 0x369D JUMP JUMPDEST JUMPDEST DUP3 DUP3 DIV SWAP1 POP SWAP3 SWAP2 POP POP JUMP JUMPDEST PUSH0 PUSH2 0x3704 DUP3 PUSH2 0x30BB JUMP JUMPDEST SWAP2 POP PUSH2 0x370F DUP4 PUSH2 0x30BB JUMP JUMPDEST SWAP3 POP DUP3 DUP3 MUL PUSH2 0x371D DUP2 PUSH2 0x30BB JUMP JUMPDEST SWAP2 POP DUP3 DUP3 DIV DUP5 EQ DUP4 ISZERO OR PUSH2 0x3734 JUMPI PUSH2 0x3733 PUSH2 0x360A JUMP JUMPDEST JUMPDEST POP SWAP3 SWAP2 POP POP JUMP JUMPDEST PUSH0 PUSH1 0x60 DUP3 ADD SWAP1 POP PUSH2 0x374E PUSH0 DUP4 ADD DUP7 PUSH2 0x3149 JUMP JUMPDEST PUSH2 0x375B PUSH1 0x20 DUP4 ADD DUP6 PUSH2 0x3149 JUMP JUMPDEST PUSH2 0x3768 PUSH1 0x40 DUP4 ADD DUP5 PUSH2 0x32CA JUMP JUMPDEST SWAP5 SWAP4 POP POP POP POP JUMP JUMPDEST PUSH2 0x3779 DUP2 PUSH2 0x347C JUMP JUMPDEST DUP2 EQ PUSH2 0x3783 JUMPI PUSH0 DUP1 REVERT JUMPDEST POP JUMP JUMPDEST PUSH0 DUP2 MLOAD SWAP1 POP PUSH2 0x3794 DUP2 PUSH2 0x3770 JUMP JUMPDEST SWAP3 SWAP2 POP POP JUMP JUMPDEST PUSH0 PUSH1 0x20 DUP3 DUP5 SUB SLT ISZERO PUSH2 0x37AF JUMPI PUSH2 0x37AE PUSH2 0x30B7 JUMP JUMPDEST JUMPDEST PUSH0 PUSH2 0x37BC DUP5 DUP3 DUP6 ADD PUSH2 0x3786 JUMP JUMPDEST SWAP2 POP POP SWAP3 SWAP2 POP POP JUMP JUMPDEST PUSH32 0x4E487B7100000000000000000000000000000000000000000000000000000000 PUSH0 MSTORE PUSH1 0x31 PUSH1 0x4 MSTORE PUSH1 0x24 PUSH0 REVERT JUMPDEST PUSH0 DUP2 MLOAD SWAP1 POP PUSH2 0x3800 DUP2 PUSH2 0x30C4 JUMP JUMPDEST SWAP3 SWAP2 POP POP JUMP JUMPDEST PUSH0 PUSH1 0x20 DUP3 DUP5 SUB SLT ISZERO PUSH2 0x381B JUMPI PUSH2 0x381A PUSH2 0x30B7 JUMP JUMPDEST JUMPDEST PUSH0 PUSH2 0x3828 DUP5 DUP3 DUP6 ADD PUSH2 0x37F2 JUMP JUMPDEST SWAP2 POP POP SWAP3 SWAP2 POP POP JUMP JUMPDEST PUSH32 0x4E6F2073756368207472616E73616374696F6E20666F756E6400000000000000 PUSH0 DUP3 ADD MSTORE POP JUMP JUMPDEST PUSH0 PUSH2 0x3865 PUSH1 0x19 DUP4 PUSH2 0x32FC JUMP JUMPDEST SWAP2 POP PUSH2 0x3870 DUP3 PUSH2 0x3831 JUMP JUMPDEST PUSH1 0x20 DUP3 ADD SWAP1 POP SWAP2 SWAP1 POP JUMP JUMPDEST PUSH0 PUSH1 0x20 DUP3 ADD SWAP1 POP DUP2 DUP2 SUB PUSH0 DUP4 ADD MSTORE PUSH2 0x3892 DUP2 PUSH2 0x3859 JUMP JUMPDEST SWAP1 POP SWAP2 SWAP1 POP JUMP JUMPDEST PUSH0 PUSH1 0x40 DUP3 ADD SWAP1 POP PUSH2 0x38AC PUSH0 DUP4 ADD DUP6 PUSH2 0x3149 JUMP JUMPDEST PUSH2 0x38B9 PUSH1 0x20 DUP4 ADD DUP5 PUSH2 0x32CA JUMP JUMPDEST SWAP4 SWAP3 POP POP POP JUMP JUMPDEST PUSH0 PUSH1 0x60 DUP3 ADD SWAP1 POP PUSH2 0x38D3 PUSH0 DUP4 ADD DUP7 PUSH2 0x3149 JUMP JUMPDEST PUSH2 0x38E0 PUSH1 0x20 DUP4 ADD DUP6 PUSH2 0x32CA JUMP JUMPDEST PUSH2 0x38ED PUSH1 0x40 DUP4 ADD DUP5 PUSH2 0x32CA JUMP JUMPDEST SWAP5 SWAP4 POP POP POP POP JUMP JUMPDEST PUSH32 0x496E646578206E6F7420666F756E640000000000000000000000000000000000 PUSH0 DUP3 ADD MSTORE POP JUMP JUMPDEST PUSH0 PUSH2 0x3929 PUSH1 0xF DUP4 PUSH2 0x32FC JUMP JUMPDEST SWAP2 POP PUSH2 0x3934 DUP3 PUSH2 0x38F5 JUMP JUMPDEST PUSH1 0x20 DUP3 ADD SWAP1 POP SWAP2 SWAP1 POP JUMP JUMPDEST PUSH0 PUSH1 0x20 DUP3 ADD SWAP1 POP DUP2 DUP2 SUB PUSH0 DUP4 ADD MSTORE PUSH2 0x3956 DUP2 PUSH2 0x391D JUMP JUMPDEST SWAP1 POP SWAP2 SWAP1 POP JUMP JUMPDEST PUSH32 0x596F7520616C7265616479207365742074686973207472616E73616374696F6E PUSH0 DUP3 ADD MSTORE PUSH32 0x206173206120636F6C6C61746572616C00000000000000000000000000000000 PUSH1 0x20 DUP3 ADD MSTORE POP JUMP JUMPDEST PUSH0 PUSH2 0x39B7 PUSH1 0x30 DUP4 PUSH2 0x32FC JUMP JUMPDEST SWAP2 POP PUSH2 0x39C2 DUP3 PUSH2 0x395D JUMP JUMPDEST PUSH1 0x40 DUP3 ADD SWAP1 POP SWAP2 SWAP1 POP JUMP JUMPDEST PUSH0 PUSH1 0x20 DUP3 ADD SWAP1 POP DUP2 DUP2 SUB PUSH0 DUP4 ADD MSTORE PUSH2 0x39E4 DUP2 PUSH2 0x39AB JUMP JUMPDEST SWAP1 POP SWAP2 SWAP1 POP JUMP JUMPDEST PUSH32 0x596F752063616E206E6F742063616E63656C207468697320636F6C6C61746572 PUSH0 DUP3 ADD MSTORE PUSH32 0x616C206361757365206F66206865616C746820666163746F7220646F776E696E PUSH1 0x20 DUP3 ADD MSTORE PUSH32 0x672062656C6F7720310000000000000000000000000000000000000000000000 PUSH1 0x40 DUP3 ADD MSTORE POP JUMP JUMPDEST PUSH0 PUSH2 0x3A6B PUSH1 0x49 DUP4 PUSH2 0x32FC JUMP JUMPDEST SWAP2 POP PUSH2 0x3A76 DUP3 PUSH2 0x39EB JUMP JUMPDEST PUSH1 0x60 DUP3 ADD SWAP1 POP SWAP2 SWAP1 POP JUMP JUMPDEST PUSH0 PUSH1 0x20 DUP3 ADD SWAP1 POP DUP2 DUP2 SUB PUSH0 DUP4 ADD MSTORE PUSH2 0x3A98 DUP2 PUSH2 0x3A5F JUMP JUMPDEST SWAP1 POP SWAP2 SWAP1 POP JUMP JUMPDEST PUSH32 0x4E487B7100000000000000000000000000000000000000000000000000000000 PUSH0 MSTORE PUSH1 0x22 PUSH1 0x4 MSTORE PUSH1 0x24 PUSH0 REVERT JUMPDEST PUSH0 PUSH1 0x2 DUP3 DIV SWAP1 POP PUSH1 0x1 DUP3 AND DUP1 PUSH2 0x3AE3 JUMPI PUSH1 0x7F DUP3 AND SWAP2 POP JUMPDEST PUSH1 0x20 DUP3 LT DUP2 SUB PUSH2 0x3AF6 JUMPI PUSH2 0x3AF5 PUSH2 0x3A9F JUMP JUMPDEST JUMPDEST POP SWAP2 SWAP1 POP JUMP JUMPDEST PUSH32 0x496E76616C6964205F646563696D616C73000000000000000000000000000000 PUSH0 DUP3 ADD MSTORE POP JUMP JUMPDEST PUSH0 PUSH2 0x3B30 PUSH1 0x11 DUP4 PUSH2 0x32FC JUMP JUMPDEST SWAP2 POP PUSH2 0x3B3B DUP3 PUSH2 0x3AFC JUMP JUMPDEST PUSH1 0x20 DUP3 ADD SWAP1 POP SWAP2 SWAP1 POP JUMP JUMPDEST PUSH0 PUSH1 0x20 DUP3 ADD SWAP1 POP DUP2 DUP2 SUB PUSH0 DUP4 ADD MSTORE PUSH2 0x3B5D DUP2 PUSH2 0x3B24 JUMP JUMPDEST SWAP1 POP SWAP2 SWAP1 POP JUMP JUMPDEST PUSH0 DUP2 PUSH1 0x1 SHR SWAP1 POP SWAP2 SWAP1 POP JUMP JUMPDEST PUSH0 DUP1 DUP3 SWAP2 POP DUP4 SWAP1 POP JUMPDEST PUSH1 0x1 DUP6 GT ISZERO PUSH2 0x3BB9 JUMPI DUP1 DUP7 DIV DUP2 GT ISZERO PUSH2 0x3B95 JUMPI PUSH2 0x3B94 PUSH2 0x360A JUMP JUMPDEST JUMPDEST PUSH1 0x1 DUP6 AND ISZERO PUSH2 0x3BA4 JUMPI DUP1 DUP3 MUL SWAP2 POP JUMPDEST DUP1 DUP2 MUL SWAP1 POP PUSH2 0x3BB2 DUP6 PUSH2 0x3B64 JUMP JUMPDEST SWAP5 POP PUSH2 0x3B79 JUMP JUMPDEST SWAP5 POP SWAP5 SWAP3 POP POP POP JUMP JUMPDEST PUSH0 DUP3 PUSH2 0x3BD1 JUMPI PUSH1 0x1 SWAP1 POP PUSH2 0x3C8C JUMP JUMPDEST DUP2 PUSH2 0x3BDE JUMPI PUSH0 SWAP1 POP PUSH2 0x3C8C JUMP JUMPDEST DUP2 PUSH1 0x1 DUP2 EQ PUSH2 0x3BF4 JUMPI PUSH1 0x2 DUP2 EQ PUSH2 0x3BFE JUMPI PUSH2 0x3C2D JUMP JUMPDEST PUSH1 0x1 SWAP2 POP POP PUSH2 0x3C8C JUMP JUMPDEST PUSH1 0xFF DUP5 GT ISZERO PUSH2 0x3C10 JUMPI PUSH2 0x3C0F PUSH2 0x360A JUMP JUMPDEST JUMPDEST DUP4 PUSH1 0x2 EXP SWAP2 POP DUP5 DUP3 GT ISZERO PUSH2 0x3C27 JUMPI PUSH2 0x3C26 PUSH2 0x360A JUMP JUMPDEST JUMPDEST POP PUSH2 0x3C8C JUMP JUMPDEST POP PUSH1 0x20 DUP4 LT PUSH2 0x133 DUP4 LT AND PUSH1 0x4E DUP5 LT PUSH1 0xB DUP5 LT AND OR ISZERO PUSH2 0x3C62 JUMPI DUP3 DUP3 EXP SWAP1 POP DUP4 DUP2 GT ISZERO PUSH2 0x3C5D JUMPI PUSH2 0x3C5C PUSH2 0x360A JUMP JUMPDEST JUMPDEST PUSH2 0x3C8C JUMP JUMPDEST PUSH2 0x3C6F DUP5 DUP5 DUP5 PUSH1 0x1 PUSH2 0x3B70 JUMP JUMPDEST SWAP3 POP SWAP1 POP DUP2 DUP5 DIV DUP2 GT ISZERO PUSH2 0x3C86 JUMPI PUSH2 0x3C85 PUSH2 0x360A JUMP JUMPDEST JUMPDEST DUP2 DUP2 MUL SWAP1 POP JUMPDEST SWAP4 SWAP3 POP POP POP JUMP JUMPDEST PUSH0 PUSH2 0x3C9D DUP3 PUSH2 0x30BB JUMP JUMPDEST SWAP2 POP PUSH2 0x3CA8 DUP4 PUSH2 0x30BB JUMP JUMPDEST SWAP3 POP PUSH2 0x3CD5 PUSH32 0xFFFFFFFFFFFFFFFFFFFFFFFFFFFFFFFFFFFFFFFFFFFFFFFFFFFFFFFFFFFFFFFF DUP5 DUP5 PUSH2 0x3BC2 JUMP JUMPDEST SWAP1 POP SWAP3 SWAP2 POP POP JUMP JUMPDEST PUSH0 PUSH10 0xFFFFFFFFFFFFFFFFFFFF DUP3 AND SWAP1 POP SWAP2 SWAP1 POP JUMP JUMPDEST PUSH2 0x3CFB DUP2 PUSH2 0x3CDD JUMP JUMPDEST DUP2 EQ PUSH2 0x3D05 JUMPI PUSH0 DUP1 REVERT JUMPDEST POP JUMP JUMPDEST PUSH0 DUP2 MLOAD SWAP1 POP PUSH2 0x3D16 DUP2 PUSH2 0x3CF2 JUMP JUMPDEST SWAP3 SWAP2 POP POP JUMP JUMPDEST PUSH2 0x3D25 DUP2 PUSH2 0x3422 JUMP JUMPDEST DUP2 EQ PUSH2 0x3D2F JUMPI PUSH0 DUP1 REVERT JUMPDEST POP JUMP JUMPDEST PUSH0 DUP2 MLOAD SWAP1 POP PUSH2 0x3D40 DUP2 PUSH2 0x3D1C JUMP JUMPDEST SWAP3 SWAP2 POP POP JUMP JUMPDEST PUSH0 DUP1 PUSH0 DUP1 PUSH0 PUSH1 0xA0 DUP7 DUP9 SUB SLT ISZERO PUSH2 0x3D5F JUMPI PUSH2 0x3D5E PUSH2 0x30B7 JUMP JUMPDEST JUMPDEST PUSH0 PUSH2 0x3D6C DUP9 DUP3 DUP10 ADD PUSH2 0x3D08 JUMP JUMPDEST SWAP6 POP POP PUSH1 0x20 PUSH2 0x3D7D DUP9 DUP3 DUP10 ADD PUSH2 0x3D32 JUMP JUMPDEST SWAP5 POP POP PUSH1 0x40 PUSH2 0x3D8E DUP9 DUP3 DUP10 ADD PUSH2 0x37F2 JUMP JUMPDEST SWAP4 POP POP PUSH1 0x60 PUSH2 0x3D9F DUP9 DUP3 DUP10 ADD PUSH2 0x37F2 JUMP JUMPDEST SWAP3 POP POP PUSH1 0x80 PUSH2 0x3DB0 DUP9 DUP3 DUP10 ADD PUSH2 0x3D08 JUMP JUMPDEST SWAP2 POP POP SWAP3 SWAP6 POP SWAP3 SWAP6 SWAP1 SWAP4 POP JUMP JUMPDEST PUSH0 DUP2 MLOAD SWAP1 POP PUSH2 0x3DCB DUP2 PUSH2 0x33A8 JUMP JUMPDEST SWAP3 SWAP2 POP POP JUMP JUMPDEST PUSH0 PUSH1 0x20 DUP3 DUP5 SUB SLT ISZERO PUSH2 0x3DE6 JUMPI PUSH2 0x3DE5 PUSH2 0x30B7 JUMP JUMPDEST JUMPDEST PUSH0 PUSH2 0x3DF3 DUP5 DUP3 DUP6 ADD PUSH2 0x3DBD JUMP JUMPDEST SWAP2 POP POP SWAP3 SWAP2 POP POP JUMP JUMPDEST PUSH0 PUSH2 0x3E06 DUP3 PUSH2 0x3422 JUMP JUMPDEST SWAP2 POP PUSH2 0x3E11 DUP4 PUSH2 0x3422 JUMP JUMPDEST SWAP3 POP DUP3 DUP3 MUL PUSH2 0x3E1F DUP2 PUSH2 0x3422 JUMP JUMPDEST SWAP2 POP PUSH32 0x8000000000000000000000000000000000000000000000000000000000000000 DUP5 EQ PUSH0 DUP5 SLT AND ISZERO PUSH2 0x3E56 JUMPI PUSH2 0x3E55 PUSH2 0x360A JUMP JUMPDEST JUMPDEST DUP3 DUP3 SDIV DUP5 EQ DUP4 ISZERO OR PUSH2 0x3E6B JUMPI PUSH2 0x3E6A PUSH2 0x360A JUMP JUMPDEST JUMPDEST POP SWAP3 SWAP2 POP POP JUMP JUMPDEST PUSH0 PUSH2 0x3E7C DUP3 PUSH2 0x3422 JUMP JUMPDEST SWAP2 POP PUSH2 0x3E87 DUP4 PUSH2 0x3422 JUMP JUMPDEST SWAP3 POP DUP3 PUSH2 0x3E97 JUMPI PUSH2 0x3E96 PUSH2 0x369D JUMP JUMPDEST JUMPDEST PUSH1 0x1 PUSH0 SUB DUP4 EQ PUSH32 0x8000000000000000000000000000000000000000000000000000000000000000 DUP4 EQ AND ISZERO PUSH2 0x3ECF JUMPI PUSH2 0x3ECE PUSH2 0x360A JUMP JUMPDEST JUMPDEST DUP3 DUP3 SDIV SWAP1 POP SWAP3 SWAP2 POP POP JUMP JUMPDEST PUSH32 0x426F72726F7720616D6F756E74206578636565647320636F6C6C61746572616C PUSH0 DUP3 ADD MSTORE POP JUMP JUMPDEST PUSH0 PUSH2 0x3F0E PUSH1 0x20 DUP4 PUSH2 0x32FC JUMP JUMPDEST SWAP2 POP PUSH2 0x3F19 DUP3 PUSH2 0x3EDA JUMP JUMPDEST PUSH1 0x20 DUP3 ADD SWAP1 POP SWAP2 SWAP1 POP JUMP JUMPDEST PUSH0 PUSH1 0x20 DUP3 ADD SWAP1 POP DUP2 DUP2 SUB PUSH0 DUP4 ADD MSTORE PUSH2 0x3F3B DUP2 PUSH2 0x3F02 JUMP JUMPDEST SWAP1 POP SWAP2 SWAP1 POP JUMP JUMPDEST PUSH32 0x596F752063616E206E6F7420626F72726F772C20796F7572206865616C746820 PUSH0 DUP3 ADD MSTORE PUSH32 0x666163746F72206D7573742062652061626F7665203121000000000000000000 PUSH1 0x20 DUP3 ADD MSTORE POP JUMP JUMPDEST PUSH0 PUSH2 0x3F9C PUSH1 0x37 DUP4 PUSH2 0x32FC JUMP JUMPDEST SWAP2 POP PUSH2 0x3FA7 DUP3 PUSH2 0x3F42 JUMP JUMPDEST PUSH1 0x40 DUP3 ADD SWAP1 POP SWAP2 SWAP1 POP JUMP JUMPDEST PUSH0 PUSH1 0x20 DUP3 ADD SWAP1 POP DUP2 DUP2 SUB PUSH0 DUP4 ADD MSTORE PUSH2 0x3FC9 DUP2 PUSH2 0x3F90 JUMP JUMPDEST SWAP1 POP SWAP2 SWAP1 POP JUMP JUMPDEST PUSH32 0x596F752068617665206E6F742064657369676E61746564207468697320747261 PUSH0 DUP3 ADD MSTORE PUSH32 0x6E73616374696F6E206173206120636F6C6C61746572616C0000000000000000 PUSH1 0x20 DUP3 ADD MSTORE POP JUMP JUMPDEST PUSH0 PUSH2 0x402A PUSH1 0x38 DUP4 PUSH2 0x32FC JUMP JUMPDEST SWAP2 POP PUSH2 0x4035 DUP3 PUSH2 0x3FD0 JUMP JUMPDEST PUSH1 0x40 DUP3 ADD SWAP1 POP SWAP2 SWAP1 POP JUMP JUMPDEST PUSH0 PUSH1 0x20 DUP3 ADD SWAP1 POP DUP2 DUP2 SUB PUSH0 DUP4 ADD MSTORE PUSH2 0x4057 DUP2 PUSH2 0x401E JUMP JUMPDEST SWAP1 POP SWAP2 SWAP1 POP JUMP JUMPDEST PUSH0 PUSH2 0x4068 DUP3 PUSH2 0x339C JUMP JUMPDEST SWAP2 POP PUSH2 0x4073 DUP4 PUSH2 0x339C JUMP JUMPDEST SWAP3 POP DUP3 DUP3 SUB SWAP1 POP PUSH1 0xFF DUP2 GT ISZERO PUSH2 0x408C JUMPI PUSH2 0x408B PUSH2 0x360A JUMP JUMPDEST JUMPDEST SWAP3 SWAP2 POP POP JUMP INVALID LOG2 PUSH5 0x6970667358 0x22 SLT KECCAK256 NUMBER XOR NUMBER 0xC4 PUSH14 0x94B2A84B71174713F58782D573F3 0x25 DUP11 0xD5 PC 0xA6 0xBD DUP12 DUP16 GAS EQ 0xC6 CALLVALUE 0xC5 PUSH5 0x736F6C6343 STOP ADDMOD XOR STOP CALLER "
		},
		"gasEstimates": {
			"creation": {
				"codeDepositCost": "3316800",
				"executionCost": "infinite",
				"totalCost": "infinite"
			},
			"external": {
				"calculateAPR()": "infinite",
				"calculateAPY()": "infinite",
				"cancelCollateralAmount(uint256)": "infinite",
				"deposit(uint256)": "infinite",
				"getAllBorrowTransactions(address)": "infinite",
				"getAllDepositTransactions(address)": "infinite",
				"getBorrow(uint256)": "infinite",
				"getChainlinkDataFeedLatestAnswer()": "infinite",
				"getDerivedPrice(address,address,uint8)": "infinite",
				"getHealthFactor()": "2477",
				"getInterestAmount()": "2476",
				"getPoolTVL()": "infinite",
				"getTokenAddress()": "2584",
				"getTokenSymbol()": "infinite",
				"getTotalBorrows()": "2543",
				"getTotalSupplies()": "2544",
				"getUserBalance(address)": "infinite",
				"getUserBorrowAmount(address)": "2940",
				"getUserCollateral(address)": "2874",
				"getUserTotalSupplies(address)": "2875",
				"getUtilizationRate()": "infinite",
				"interestAmount()": "2535",
				"liquidationThreshold()": "2493",
				"repayBorrow(uint256)": "infinite",
				"repayBorrowTimeStamp()": "2471",
				"setCollateralAmount(uint256)": "infinite",
				"tokenAddress()": "2595",
				"tokenSymbol()": "infinite",
				"totalCollateralAmount()": "2470",
				"withdraw(uint256)": "infinite",
				"withdrawTimeStamp()": "2492"
			},
			"internal": {
				"scalePrice(int256,uint8,uint8)": "infinite"
			}
		},
		"methodIdentifiers": {
			"calculateAPR()": "f2494f3b",
			"calculateAPY()": "2a648300",
			"cancelCollateralAmount(uint256)": "bf3eb03b",
			"deposit(uint256)": "b6b55f25",
			"getAllBorrowTransactions(address)": "147fdaa2",
			"getAllDepositTransactions(address)": "b0eb0457",
			"getBorrow(uint256)": "b176e311",
			"getChainlinkDataFeedLatestAnswer()": "bea4dfb5",
			"getDerivedPrice(address,address,uint8)": "97436655",
			"getHealthFactor()": "a5f352b7",
			"getInterestAmount()": "e2633637",
			"getPoolTVL()": "26be90bf",
			"getTokenAddress()": "10fe9ae8",
			"getTokenSymbol()": "f1850af8",
			"getTotalBorrows()": "cc484c5c",
			"getTotalSupplies()": "a386e8d6",
			"getUserBalance(address)": "47734892",
			"getUserBorrowAmount(address)": "88c5ba1b",
			"getUserCollateral(address)": "b6f7132f",
			"getUserTotalSupplies(address)": "25af889d",
			"getUtilizationRate()": "4a417a53",
			"interestAmount()": "fff2df2a",
			"liquidationThreshold()": "4031234c",
			"repayBorrow(uint256)": "0e752702",
			"repayBorrowTimeStamp()": "8c0db830",
			"setCollateralAmount(uint256)": "3d4f04ad",
			"tokenAddress()": "9d76ea58",
			"tokenSymbol()": "7b61c320",
			"totalCollateralAmount()": "63f31d2c",
			"withdraw(uint256)": "2e1a7d4d",
			"withdrawTimeStamp()": "714fef4c"
		}
	},
	"abi": [
		{
			"inputs": [
				{
					"internalType": "string",
					"name": "_tokenSymbol",
					"type": "string"
				},
				{
					"internalType": "address",
					"name": "_tokenAddress",
					"type": "address"
				}
			],
			"stateMutability": "payable",
			"type": "constructor"
		},
		{
			"anonymous": false,
			"inputs": [
				{
					"indexed": true,
					"internalType": "address",
					"name": "borrower",
					"type": "address"
				},
				{
					"indexed": false,
					"internalType": "uint256",
					"name": "repaidAmount",
					"type": "uint256"
				}
			],
			"name": "BorrowRepayment",
			"type": "event"
		},
		{
			"anonymous": false,
			"inputs": [
				{
					"indexed": true,
					"internalType": "address",
					"name": "depositor",
					"type": "address"
				},
				{
					"indexed": false,
					"internalType": "uint256",
					"name": "amount",
					"type": "uint256"
				}
			],
			"name": "DepositMade",
			"type": "event"
		},
		{
			"anonymous": false,
			"inputs": [
				{
					"indexed": true,
					"internalType": "address",
					"name": "borrower",
					"type": "address"
				},
				{
					"indexed": false,
					"internalType": "uint256",
					"name": "amount",
					"type": "uint256"
				}
			],
			"name": "Loan",
			"type": "event"
		},
		{
			"anonymous": false,
			"inputs": [
				{
					"indexed": false,
					"internalType": "address",
					"name": "_from",
					"type": "address"
				},
				{
					"indexed": false,
					"internalType": "uint256",
					"name": "amount",
					"type": "uint256"
				},
				{
					"indexed": false,
					"internalType": "uint256",
					"name": "commission",
					"type": "uint256"
				}
			],
			"name": "Withdrawal",
			"type": "event"
		},
		{
			"inputs": [],
			"name": "calculateAPR",
			"outputs": [
				{
					"internalType": "uint256",
					"name": "",
					"type": "uint256"
				}
			],
			"stateMutability": "view",
			"type": "function"
		},
		{
			"inputs": [],
			"name": "calculateAPY",
			"outputs": [
				{
					"internalType": "uint256",
					"name": "",
					"type": "uint256"
				}
			],
			"stateMutability": "view",
			"type": "function"
		},
		{
			"inputs": [
				{
					"internalType": "uint256",
					"name": "index",
					"type": "uint256"
				}
			],
			"name": "cancelCollateralAmount",
			"outputs": [],
			"stateMutability": "nonpayable",
			"type": "function"
		},
		{
			"inputs": [
				{
					"internalType": "uint256",
					"name": "amount",
					"type": "uint256"
				}
			],
			"name": "deposit",
			"outputs": [],
			"stateMutability": "payable",
			"type": "function"
		},
		{
			"inputs": [
				{
					"internalType": "address",
					"name": "user",
					"type": "address"
				}
			],
			"name": "getAllBorrowTransactions",
			"outputs": [
				{
					"components": [
						{
							"internalType": "uint256",
							"name": "amount",
							"type": "uint256"
						},
						{
							"internalType": "uint256",
							"name": "borrowTimeStamp",
							"type": "uint256"
						}
					],
					"internalType": "struct LendingPool.BorrowTransaction[]",
					"name": "",
					"type": "tuple[]"
				}
			],
			"stateMutability": "view",
			"type": "function"
		},
		{
			"inputs": [
				{
					"internalType": "address",
					"name": "user",
					"type": "address"
				}
			],
			"name": "getAllDepositTransactions",
			"outputs": [
				{
					"components": [
						{
							"internalType": "uint256",
							"name": "amount",
							"type": "uint256"
						},
						{
							"internalType": "bool",
							"name": "useAsCollateral",
							"type": "bool"
						},
						{
							"internalType": "uint256",
							"name": "depositTimeStamp",
							"type": "uint256"
						}
					],
					"internalType": "struct LendingPool.DepositTransaction[]",
					"name": "",
					"type": "tuple[]"
				}
			],
			"stateMutability": "view",
			"type": "function"
		},
		{
			"inputs": [
				{
					"internalType": "uint256",
					"name": "amount",
					"type": "uint256"
				}
			],
			"name": "getBorrow",
			"outputs": [],
			"stateMutability": "payable",
			"type": "function"
		},
		{
			"inputs": [],
			"name": "getChainlinkDataFeedLatestAnswer",
			"outputs": [
				{
					"internalType": "int256",
					"name": "",
					"type": "int256"
				}
			],
			"stateMutability": "view",
			"type": "function"
		},
		{
			"inputs": [
				{
					"internalType": "address",
					"name": "_base",
					"type": "address"
				},
				{
					"internalType": "address",
					"name": "_quote",
					"type": "address"
				},
				{
					"internalType": "uint8",
					"name": "_decimals",
					"type": "uint8"
				}
			],
			"name": "getDerivedPrice",
			"outputs": [
				{
					"internalType": "int256",
					"name": "",
					"type": "int256"
				}
			],
			"stateMutability": "view",
			"type": "function"
		},
		{
			"inputs": [],
			"name": "getHealthFactor",
			"outputs": [
				{
					"internalType": "uint256",
					"name": "",
					"type": "uint256"
				}
			],
			"stateMutability": "view",
			"type": "function"
		},
		{
			"inputs": [],
			"name": "getInterestAmount",
			"outputs": [
				{
					"internalType": "uint256",
					"name": "",
					"type": "uint256"
				}
			],
			"stateMutability": "view",
			"type": "function"
		},
		{
			"inputs": [],
			"name": "getPoolTVL",
			"outputs": [
				{
					"internalType": "uint256",
					"name": "",
					"type": "uint256"
				}
			],
			"stateMutability": "view",
			"type": "function"
		},
		{
			"inputs": [],
			"name": "getTokenAddress",
			"outputs": [
				{
					"internalType": "address",
					"name": "",
					"type": "address"
				}
			],
			"stateMutability": "view",
			"type": "function"
		},
		{
			"inputs": [],
			"name": "getTokenSymbol",
			"outputs": [
				{
					"internalType": "string",
					"name": "",
					"type": "string"
				}
			],
			"stateMutability": "view",
			"type": "function"
		},
		{
			"inputs": [],
			"name": "getTotalBorrows",
			"outputs": [
				{
					"internalType": "uint256",
					"name": "",
					"type": "uint256"
				}
			],
			"stateMutability": "view",
			"type": "function"
		},
		{
			"inputs": [],
			"name": "getTotalSupplies",
			"outputs": [
				{
					"internalType": "uint256",
					"name": "",
					"type": "uint256"
				}
			],
			"stateMutability": "view",
			"type": "function"
		},
		{
			"inputs": [
				{
					"internalType": "address",
					"name": "user",
					"type": "address"
				}
			],
			"name": "getUserBalance",
			"outputs": [
				{
					"internalType": "uint256",
					"name": "",
					"type": "uint256"
				}
			],
			"stateMutability": "view",
			"type": "function"
		},
		{
			"inputs": [
				{
					"internalType": "address",
					"name": "user",
					"type": "address"
				}
			],
			"name": "getUserBorrowAmount",
			"outputs": [
				{
					"internalType": "uint256",
					"name": "",
					"type": "uint256"
				}
			],
			"stateMutability": "view",
			"type": "function"
		},
		{
			"inputs": [
				{
					"internalType": "address",
					"name": "user",
					"type": "address"
				}
			],
			"name": "getUserCollateral",
			"outputs": [
				{
					"internalType": "uint256",
					"name": "",
					"type": "uint256"
				}
			],
			"stateMutability": "view",
			"type": "function"
		},
		{
			"inputs": [
				{
					"internalType": "address",
					"name": "user",
					"type": "address"
				}
			],
			"name": "getUserTotalSupplies",
			"outputs": [
				{
					"internalType": "uint256",
					"name": "",
					"type": "uint256"
				}
			],
			"stateMutability": "view",
			"type": "function"
		},
		{
			"inputs": [],
			"name": "getUtilizationRate",
			"outputs": [
				{
					"internalType": "uint256",
					"name": "",
					"type": "uint256"
				}
			],
			"stateMutability": "view",
			"type": "function"
		},
		{
			"inputs": [],
			"name": "interestAmount",
			"outputs": [
				{
					"internalType": "uint256",
					"name": "",
					"type": "uint256"
				}
			],
			"stateMutability": "view",
			"type": "function"
		},
		{
			"inputs": [],
			"name": "liquidationThreshold",
			"outputs": [
				{
					"internalType": "uint256",
					"name": "",
					"type": "uint256"
				}
			],
			"stateMutability": "view",
			"type": "function"
		},
		{
			"inputs": [
				{
					"internalType": "uint256",
					"name": "index",
					"type": "uint256"
				}
			],
			"name": "repayBorrow",
			"outputs": [],
			"stateMutability": "payable",
			"type": "function"
		},
		{
			"inputs": [],
			"name": "repayBorrowTimeStamp",
			"outputs": [
				{
					"internalType": "uint256",
					"name": "",
					"type": "uint256"
				}
			],
			"stateMutability": "view",
			"type": "function"
		},
		{
			"inputs": [
				{
					"internalType": "uint256",
					"name": "index",
					"type": "uint256"
				}
			],
			"name": "setCollateralAmount",
			"outputs": [],
			"stateMutability": "nonpayable",
			"type": "function"
		},
		{
			"inputs": [],
			"name": "tokenAddress",
			"outputs": [
				{
					"internalType": "address",
					"name": "",
					"type": "address"
				}
			],
			"stateMutability": "view",
			"type": "function"
		},
		{
			"inputs": [],
			"name": "tokenSymbol",
			"outputs": [
				{
					"internalType": "string",
					"name": "",
					"type": "string"
				}
			],
			"stateMutability": "view",
			"type": "function"
		},
		{
			"inputs": [],
			"name": "totalCollateralAmount",
			"outputs": [
				{
					"internalType": "uint256",
					"name": "",
					"type": "uint256"
				}
			],
			"stateMutability": "view",
			"type": "function"
		},
		{
			"inputs": [
				{
					"internalType": "uint256",
					"name": "index",
					"type": "uint256"
				}
			],
			"name": "withdraw",
			"outputs": [],
			"stateMutability": "payable",
			"type": "function"
		},
		{
			"inputs": [],
			"name": "withdrawTimeStamp",
			"outputs": [
				{
					"internalType": "uint256",
					"name": "",
					"type": "uint256"
				}
			],
			"stateMutability": "view",
			"type": "function"
		}
	]
}